{
  "transactions": [
    {
      "hash": "0xf2686fb603b3423d62423cd2ba806ae857bbcb207b51053eddf3eb5734ce2f7c",
      "transactionType": "CALL",
      "contractName": null,
      "contractAddress": "0xad473eaa51821c915d03d9db5349a0586d55e55e",
      "function": "createMatch(uint8,uint8,address,uint256,bytes32)",
      "arguments": [
        "1",
        "0",
        "0x0000000000000000000000000000000000000000",
        "0",
        "0x3608f503d624b47779fba399a097e68bc35cdbd22fcf04e3d6b7a3bd8fa9b746"
      ],
      "transaction": {
        "from": "0xe403f79171b7050c78479f52e49e753d43e72c1a",
        "to": "0xad473eaa51821c915d03d9db5349a0586d55e55e",
        "gas": "0x52a7d",
        "value": "0x0",
        "input": "0xea994fab00000000000000000000000000000000000000000000000000000000000000010000000000000000000000000000000000000000000000000000000000000000000000000000000000000000000000000000000000000000000000000000000000000000000000000000000000000000000000000000000000000000000000003608f503d624b47779fba399a097e68bc35cdbd22fcf04e3d6b7a3bd8fa9b746",
        "nonce": "0x2db",
        "chainId": "0x2105"
      },
      "additionalContracts": [],
      "isFixedGasLimit": false
    },
    {
      "hash": "0x1502c5569e91a52f16d01f99f1360124aeeae704fd41df4459e76e4619e3825e",
      "transactionType": "CALL",
      "contractName": null,
      "contractAddress": "0xad473eaa51821c915d03d9db5349a0586d55e55e",
      "function": "createMatch(uint8,uint8,address,uint256,bytes32)",
      "arguments": [
        "1",
        "0",
        "0x0000000000000000000000000000000000000000",
        "0",
        "0x3608f503d624b47779fba399a097e68bc35cdbd22fcf04e3d6b7a3bd8fa9b746"
      ],
      "transaction": {
        "from": "0xe403f79171b7050c78479f52e49e753d43e72c1a",
        "to": "0xad473eaa51821c915d03d9db5349a0586d55e55e",
        "gas": "0x52a7d",
        "value": "0x0",
        "input": "0xea994fab00000000000000000000000000000000000000000000000000000000000000010000000000000000000000000000000000000000000000000000000000000000000000000000000000000000000000000000000000000000000000000000000000000000000000000000000000000000000000000000000000000000000000003608f503d624b47779fba399a097e68bc35cdbd22fcf04e3d6b7a3bd8fa9b746",
        "nonce": "0x2dc",
        "chainId": "0x2105"
      },
      "additionalContracts": [],
      "isFixedGasLimit": false
    },
    {
      "hash": "0x49539abc58cffd0fde23aeec5bad0d7caa230a2091029175d97166139ee635af",
      "transactionType": "CALL",
      "contractName": null,
      "contractAddress": "0xad473eaa51821c915d03d9db5349a0586d55e55e",
      "function": "createMatch(uint8,uint8,address,uint256,bytes32)",
      "arguments": [
        "1",
        "0",
        "0x0000000000000000000000000000000000000000",
        "0",
        "0x3608f503d624b47779fba399a097e68bc35cdbd22fcf04e3d6b7a3bd8fa9b746"
      ],
      "transaction": {
        "from": "0xe403f79171b7050c78479f52e49e753d43e72c1a",
        "to": "0xad473eaa51821c915d03d9db5349a0586d55e55e",
        "gas": "0x52a7d",
        "value": "0x0",
        "input": "0xea994fab00000000000000000000000000000000000000000000000000000000000000010000000000000000000000000000000000000000000000000000000000000000000000000000000000000000000000000000000000000000000000000000000000000000000000000000000000000000000000000000000000000000000000003608f503d624b47779fba399a097e68bc35cdbd22fcf04e3d6b7a3bd8fa9b746",
        "nonce": "0x2dd",
        "chainId": "0x2105"
      },
      "additionalContracts": [],
      "isFixedGasLimit": false
    },
    {
      "hash": "0x49d482bc4e0b669e1a03fa5b7abda3c8d32b72464770a6499d0f9563f4b37aeb",
      "transactionType": "CALL",
      "contractName": null,
      "contractAddress": "0xad473eaa51821c915d03d9db5349a0586d55e55e",
      "function": "createMatch(uint8,uint8,address,uint256,bytes32)",
      "arguments": [
        "1",
        "0",
        "0x0000000000000000000000000000000000000000",
        "0",
        "0x3608f503d624b47779fba399a097e68bc35cdbd22fcf04e3d6b7a3bd8fa9b746"
      ],
      "transaction": {
        "from": "0xe403f79171b7050c78479f52e49e753d43e72c1a",
        "to": "0xad473eaa51821c915d03d9db5349a0586d55e55e",
        "gas": "0x52a7d",
        "value": "0x0",
        "input": "0xea994fab00000000000000000000000000000000000000000000000000000000000000010000000000000000000000000000000000000000000000000000000000000000000000000000000000000000000000000000000000000000000000000000000000000000000000000000000000000000000000000000000000000000000000003608f503d624b47779fba399a097e68bc35cdbd22fcf04e3d6b7a3bd8fa9b746",
        "nonce": "0x2de",
        "chainId": "0x2105"
      },
      "additionalContracts": [],
      "isFixedGasLimit": false
    },
    {
      "hash": "0xfe0b4c98a48191a9f1e7951496442faa746ad5c553126c1552491013aea0c73d",
      "transactionType": "CALL",
      "contractName": null,
      "contractAddress": "0xad473eaa51821c915d03d9db5349a0586d55e55e",
      "function": "createMatch(uint8,uint8,address,uint256,bytes32)",
      "arguments": [
        "1",
        "0",
        "0x0000000000000000000000000000000000000000",
        "0",
        "0x3608f503d624b47779fba399a097e68bc35cdbd22fcf04e3d6b7a3bd8fa9b746"
      ],
      "transaction": {
        "from": "0xe403f79171b7050c78479f52e49e753d43e72c1a",
        "to": "0xad473eaa51821c915d03d9db5349a0586d55e55e",
        "gas": "0x52a7d",
        "value": "0x0",
        "input": "0xea994fab00000000000000000000000000000000000000000000000000000000000000010000000000000000000000000000000000000000000000000000000000000000000000000000000000000000000000000000000000000000000000000000000000000000000000000000000000000000000000000000000000000000000000003608f503d624b47779fba399a097e68bc35cdbd22fcf04e3d6b7a3bd8fa9b746",
        "nonce": "0x2df",
        "chainId": "0x2105"
      },
      "additionalContracts": [],
      "isFixedGasLimit": false
    },
    {
      "hash": "0xcf6093bfce9b11222eeec4d97233d306e74667b06c49f03f3d3db287838231d7",
      "transactionType": "CALL",
      "contractName": null,
      "contractAddress": "0xad473eaa51821c915d03d9db5349a0586d55e55e",
      "function": "createMatch(uint8,uint8,address,uint256,bytes32)",
      "arguments": [
        "1",
        "0",
        "0x0000000000000000000000000000000000000000",
        "0",
        "0x3608f503d624b47779fba399a097e68bc35cdbd22fcf04e3d6b7a3bd8fa9b746"
      ],
      "transaction": {
        "from": "0xe403f79171b7050c78479f52e49e753d43e72c1a",
        "to": "0xad473eaa51821c915d03d9db5349a0586d55e55e",
        "gas": "0x52a7d",
        "value": "0x0",
        "input": "0xea994fab00000000000000000000000000000000000000000000000000000000000000010000000000000000000000000000000000000000000000000000000000000000000000000000000000000000000000000000000000000000000000000000000000000000000000000000000000000000000000000000000000000000000000003608f503d624b47779fba399a097e68bc35cdbd22fcf04e3d6b7a3bd8fa9b746",
        "nonce": "0x2e0",
        "chainId": "0x2105"
      },
      "additionalContracts": [],
      "isFixedGasLimit": false
    },
    {
      "hash": "0x321a061d25269752a2b173c3be703932aae070ad6e0f6a8967646d33e06f13b8",
      "transactionType": "CALL",
      "contractName": null,
      "contractAddress": "0xad473eaa51821c915d03d9db5349a0586d55e55e",
      "function": "createMatch(uint8,uint8,address,uint256,bytes32)",
      "arguments": [
        "1",
        "0",
        "0x0000000000000000000000000000000000000000",
        "0",
        "0x3608f503d624b47779fba399a097e68bc35cdbd22fcf04e3d6b7a3bd8fa9b746"
      ],
      "transaction": {
        "from": "0xe403f79171b7050c78479f52e49e753d43e72c1a",
        "to": "0xad473eaa51821c915d03d9db5349a0586d55e55e",
        "gas": "0x52a7d",
        "value": "0x0",
        "input": "0xea994fab00000000000000000000000000000000000000000000000000000000000000010000000000000000000000000000000000000000000000000000000000000000000000000000000000000000000000000000000000000000000000000000000000000000000000000000000000000000000000000000000000000000000000003608f503d624b47779fba399a097e68bc35cdbd22fcf04e3d6b7a3bd8fa9b746",
        "nonce": "0x2e1",
        "chainId": "0x2105"
      },
      "additionalContracts": [],
      "isFixedGasLimit": false
    },
    {
      "hash": "0xbee4f957aaace06aa5492b62ae16adf51ebd6a7d6ffc920458b6bd436ddfe09c",
      "transactionType": "CALL",
      "contractName": null,
      "contractAddress": "0xad473eaa51821c915d03d9db5349a0586d55e55e",
      "function": "createMatch(uint8,uint8,address,uint256,bytes32)",
      "arguments": [
        "1",
        "0",
        "0x0000000000000000000000000000000000000000",
        "0",
        "0x3608f503d624b47779fba399a097e68bc35cdbd22fcf04e3d6b7a3bd8fa9b746"
      ],
      "transaction": {
        "from": "0xe403f79171b7050c78479f52e49e753d43e72c1a",
        "to": "0xad473eaa51821c915d03d9db5349a0586d55e55e",
        "gas": "0x52a7d",
        "value": "0x0",
        "input": "0xea994fab00000000000000000000000000000000000000000000000000000000000000010000000000000000000000000000000000000000000000000000000000000000000000000000000000000000000000000000000000000000000000000000000000000000000000000000000000000000000000000000000000000000000000003608f503d624b47779fba399a097e68bc35cdbd22fcf04e3d6b7a3bd8fa9b746",
        "nonce": "0x2e2",
        "chainId": "0x2105"
      },
      "additionalContracts": [],
      "isFixedGasLimit": false
    },
    {
      "hash": "0x578d0ed5f7ba2b1aaf1b71d43d88a377815fbab4ce297a2ffc39c697cb41cf3a",
      "transactionType": "CALL",
      "contractName": null,
      "contractAddress": "0xad473eaa51821c915d03d9db5349a0586d55e55e",
      "function": "submitMove(uint256,bytes32,bytes)",
      "arguments": [
        "9",
        "0xe8773807ffd17108aa2d132cec684352f2c5c8337ff4659cc010d15b0551847d",
        "0x34240000"
      ],
      "transaction": {
        "from": "0xe403f79171b7050c78479f52e49e753d43e72c1a",
        "to": "0xad473eaa51821c915d03d9db5349a0586d55e55e",
        "gas": "0x1801c",
        "value": "0x0",
        "input": "0x73b07f890000000000000000000000000000000000000000000000000000000000000009e8773807ffd17108aa2d132cec684352f2c5c8337ff4659cc010d15b0551847d000000000000000000000000000000000000000000000000000000000000006000000000000000000000000000000000000000000000000000000000000000043424000000000000000000000000000000000000000000000000000000000000",
        "nonce": "0x2e3",
        "chainId": "0x2105"
      },
      "additionalContracts": [],
      "isFixedGasLimit": false
    },
    {
      "hash": "0xceadc7bd3a4925415c4b4de9720c0921c1900fee6ea1a9aaee79b0b881a6b8a6",
      "transactionType": "CALL",
      "contractName": null,
      "contractAddress": "0xad473eaa51821c915d03d9db5349a0586d55e55e",
      "function": "submitMove(uint256,bytes32,bytes)",
      "arguments": [
        "9",
        "0x0692c63251d62c8f04eed454cc75e5bc199ba842e6b8106095e5d806a5e48cfa",
        "0x33230000"
      ],
      "transaction": {
        "from": "0xe403f79171b7050c78479f52e49e753d43e72c1a",
        "to": "0xad473eaa51821c915d03d9db5349a0586d55e55e",
        "gas": "0x124c3",
        "value": "0x0",
        "input": "0x73b07f8900000000000000000000000000000000000000000000000000000000000000090692c63251d62c8f04eed454cc75e5bc199ba842e6b8106095e5d806a5e48cfa000000000000000000000000000000000000000000000000000000000000006000000000000000000000000000000000000000000000000000000000000000043323000000000000000000000000000000000000000000000000000000000000",
        "nonce": "0x2e4",
        "chainId": "0x2105"
      },
      "additionalContracts": [],
      "isFixedGasLimit": false
    },
    {
      "hash": "0x8b251eeb02a267c1c898142b8bdf05ab5439eec1936dfd3b09da5c20543d5c5a",
      "transactionType": "CALL",
      "contractName": null,
      "contractAddress": "0xad473eaa51821c915d03d9db5349a0586d55e55e",
      "function": "submitMove(uint256,bytes32,bytes)",
      "arguments": [
        "9",
        "0x4442d021ec118fea7ce3641d3375363801af2e92adb1272f726cf20292795a62",
        "0x392a0000"
      ],
      "transaction": {
        "from": "0xe403f79171b7050c78479f52e49e753d43e72c1a",
        "to": "0xad473eaa51821c915d03d9db5349a0586d55e55e",
        "gas": "0x124c3",
        "value": "0x0",
        "input": "0x73b07f8900000000000000000000000000000000000000000000000000000000000000094442d021ec118fea7ce3641d3375363801af2e92adb1272f726cf20292795a6200000000000000000000000000000000000000000000000000000000000000600000000000000000000000000000000000000000000000000000000000000004392a000000000000000000000000000000000000000000000000000000000000",
        "nonce": "0x2e5",
        "chainId": "0x2105"
      },
      "additionalContracts": [],
      "isFixedGasLimit": false
    },
    {
      "hash": "0x08cfb216a55ab3a5905849944ce37c985a47e125c8430695d1ec94e72daa40ce",
      "transactionType": "CALL",
      "contractName": null,
      "contractAddress": "0xad473eaa51821c915d03d9db5349a0586d55e55e",
      "function": "submitMove(uint256,bytes32,bytes)",
      "arguments": [
        "9",
        "0xc7183fc0754b5e7da3b74bf364f8affe59ffdf73627f9b8e7d4991d4453bd364",
        "0x3b2c0000"
      ],
      "transaction": {
        "from": "0xe403f79171b7050c78479f52e49e753d43e72c1a",
        "to": "0xad473eaa51821c915d03d9db5349a0586d55e55e",
        "gas": "0x124c3",
        "value": "0x0",
        "input": "0x73b07f890000000000000000000000000000000000000000000000000000000000000009c7183fc0754b5e7da3b74bf364f8affe59ffdf73627f9b8e7d4991d4453bd364000000000000000000000000000000000000000000000000000000000000006000000000000000000000000000000000000000000000000000000000000000043b2c000000000000000000000000000000000000000000000000000000000000",
        "nonce": "0x2e6",
        "chainId": "0x2105"
      },
      "additionalContracts": [],
      "isFixedGasLimit": false
    },
    {
      "hash": "0x12e8cd9f020fd62a4266392af457c9bdf78b3abb5a17ce6101352ef188a5005f",
      "transactionType": "CALL",
      "contractName": null,
      "contractAddress": "0xad473eaa51821c915d03d9db5349a0586d55e55e",
      "function": "submitMove(uint256,bytes32,bytes)",
      "arguments": [
        "10",
        "0x90e396633e67bfb131a9c9b400ea842e0f29f45c4bc7872a0e80af48deb78504",
        "0x30280000"
      ],
      "transaction": {
        "from": "0xe403f79171b7050c78479f52e49e753d43e72c1a",
        "to": "0xad473eaa51821c915d03d9db5349a0586d55e55e",
        "gas": "0x196a2",
        "value": "0x0",
        "input": "0x73b07f89000000000000000000000000000000000000000000000000000000000000000a90e396633e67bfb131a9c9b400ea842e0f29f45c4bc7872a0e80af48deb78504000000000000000000000000000000000000000000000000000000000000006000000000000000000000000000000000000000000000000000000000000000043028000000000000000000000000000000000000000000000000000000000000",
        "nonce": "0x2e7",
        "chainId": "0x2105"
      },
      "additionalContracts": [],
      "isFixedGasLimit": false
    },
    {
      "hash": "0xd39e4049c0249ca13f8cf73e9ad214f077d936703d9842c420e9d50448a404b2",
      "transactionType": "CALL",
      "contractName": null,
      "contractAddress": "0xad473eaa51821c915d03d9db5349a0586d55e55e",
      "function": "submitMove(uint256,bytes32,bytes)",
      "arguments": [
        "10",
        "0xfc6cc8976638831fc84ceab234894f532e0338e7268a3303d4c0c1939f85dbb9",
        "0x32220000"
      ],
      "transaction": {
        "from": "0xe403f79171b7050c78479f52e49e753d43e72c1a",
        "to": "0xad473eaa51821c915d03d9db5349a0586d55e55e",
        "gas": "0x124c3",
        "value": "0x0",
        "input": "0x73b07f89000000000000000000000000000000000000000000000000000000000000000afc6cc8976638831fc84ceab234894f532e0338e7268a3303d4c0c1939f85dbb9000000000000000000000000000000000000000000000000000000000000006000000000000000000000000000000000000000000000000000000000000000043222000000000000000000000000000000000000000000000000000000000000",
        "nonce": "0x2e8",
        "chainId": "0x2105"
      },
      "additionalContracts": [],
      "isFixedGasLimit": false
    },
    {
      "hash": "0x79785363444f24cd085daea7b396cd847e5d38b70bed3312c387a074ee628ae9",
      "transactionType": "CALL",
      "contractName": null,
      "contractAddress": "0xad473eaa51821c915d03d9db5349a0586d55e55e",
      "function": "submitMove(uint256,bytes32,bytes)",
      "arguments": [
        "10",
        "0xbb9afb9861b8290cda948e4af3b636449a44547dca4c3acbc45e65f4e22aab40",
        "0x31290000"
      ],
      "transaction": {
        "from": "0xe403f79171b7050c78479f52e49e753d43e72c1a",
        "to": "0xad473eaa51821c915d03d9db5349a0586d55e55e",
        "gas": "0x124c3",
        "value": "0x0",
        "input": "0x73b07f89000000000000000000000000000000000000000000000000000000000000000abb9afb9861b8290cda948e4af3b636449a44547dca4c3acbc45e65f4e22aab40000000000000000000000000000000000000000000000000000000000000006000000000000000000000000000000000000000000000000000000000000000043129000000000000000000000000000000000000000000000000000000000000",
        "nonce": "0x2e9",
        "chainId": "0x2105"
      },
      "additionalContracts": [],
      "isFixedGasLimit": false
    },
    {
      "hash": "0xa576054de2b75b10eda4056646dbf72bf8b4b63b188600a86611f4b3b0474521",
      "transactionType": "CALL",
      "contractName": null,
      "contractAddress": "0xad473eaa51821c915d03d9db5349a0586d55e55e",
      "function": "submitMove(uint256,bytes32,bytes)",
      "arguments": [
        "10",
        "0x2a4b22ea265f7017c3f5040f1eec7d58baac29eda24dc699336157972973d8e1",
        "0x3a2b0000"
      ],
      "transaction": {
        "from": "0xe403f79171b7050c78479f52e49e753d43e72c1a",
        "to": "0xad473eaa51821c915d03d9db5349a0586d55e55e",
        "gas": "0x124c3",
        "value": "0x0",
        "input": "0x73b07f89000000000000000000000000000000000000000000000000000000000000000a2a4b22ea265f7017c3f5040f1eec7d58baac29eda24dc699336157972973d8e1000000000000000000000000000000000000000000000000000000000000006000000000000000000000000000000000000000000000000000000000000000043a2b000000000000000000000000000000000000000000000000000000000000",
        "nonce": "0x2ea",
        "chainId": "0x2105"
      },
      "additionalContracts": [],
      "isFixedGasLimit": false
    },
    {
      "hash": "0xf395bc4906f0ec27ed98452caa3a2a8793fb429c5841e83c8f2daa49345d8511",
      "transactionType": "CALL",
      "contractName": null,
      "contractAddress": "0xad473eaa51821c915d03d9db5349a0586d55e55e",
      "function": "submitMove(uint256,bytes32,bytes)",
      "arguments": [
        "11",
        "0xe8773807ffd17108aa2d132cec684352f2c5c8337ff4659cc010d15b0551847d",
        "0x34240000"
      ],
      "transaction": {
        "from": "0xe403f79171b7050c78479f52e49e753d43e72c1a",
        "to": "0xad473eaa51821c915d03d9db5349a0586d55e55e",
        "gas": "0x1801c",
        "value": "0x0",
        "input": "0x73b07f89000000000000000000000000000000000000000000000000000000000000000be8773807ffd17108aa2d132cec684352f2c5c8337ff4659cc010d15b0551847d000000000000000000000000000000000000000000000000000000000000006000000000000000000000000000000000000000000000000000000000000000043424000000000000000000000000000000000000000000000000000000000000",
        "nonce": "0x2eb",
        "chainId": "0x2105"
      },
      "additionalContracts": [],
      "isFixedGasLimit": false
    },
    {
      "hash": "0x24c652a942bf185ba46eb0cbe84bc75341482b366d6be6125c8b72b78b5a13d6",
      "transactionType": "CALL",
      "contractName": null,
      "contractAddress": "0xad473eaa51821c915d03d9db5349a0586d55e55e",
      "function": "submitMove(uint256,bytes32,bytes)",
      "arguments": [
        "11",
        "0x0692c63251d62c8f04eed454cc75e5bc199ba842e6b8106095e5d806a5e48cfa",
        "0x33230000"
      ],
      "transaction": {
        "from": "0xe403f79171b7050c78479f52e49e753d43e72c1a",
        "to": "0xad473eaa51821c915d03d9db5349a0586d55e55e",
        "gas": "0x124c3",
        "value": "0x0",
        "input": "0x73b07f89000000000000000000000000000000000000000000000000000000000000000b0692c63251d62c8f04eed454cc75e5bc199ba842e6b8106095e5d806a5e48cfa000000000000000000000000000000000000000000000000000000000000006000000000000000000000000000000000000000000000000000000000000000043323000000000000000000000000000000000000000000000000000000000000",
        "nonce": "0x2ec",
        "chainId": "0x2105"
      },
      "additionalContracts": [],
      "isFixedGasLimit": false
    },
    {
      "hash": "0xc5c29b508cae51d0e9d91cc20dd2be1cceed3966b07e47189738fa6e1f342003",
      "transactionType": "CALL",
      "contractName": null,
      "contractAddress": "0xad473eaa51821c915d03d9db5349a0586d55e55e",
      "function": "submitMove(uint256,bytes32,bytes)",
      "arguments": [
        "11",
        "0x4442d021ec118fea7ce3641d3375363801af2e92adb1272f726cf20292795a62",
        "0x392a0000"
      ],
      "transaction": {
        "from": "0xe403f79171b7050c78479f52e49e753d43e72c1a",
        "to": "0xad473eaa51821c915d03d9db5349a0586d55e55e",
        "gas": "0x124c3",
        "value": "0x0",
        "input": "0x73b07f89000000000000000000000000000000000000000000000000000000000000000b4442d021ec118fea7ce3641d3375363801af2e92adb1272f726cf20292795a6200000000000000000000000000000000000000000000000000000000000000600000000000000000000000000000000000000000000000000000000000000004392a000000000000000000000000000000000000000000000000000000000000",
        "nonce": "0x2ed",
        "chainId": "0x2105"
      },
      "additionalContracts": [],
      "isFixedGasLimit": false
    },
    {
      "hash": "0x6b50aabd0c17120ae7e89ba92253b5cfca9957c1c956696ac584d29592686587",
      "transactionType": "CALL",
      "contractName": null,
      "contractAddress": "0xad473eaa51821c915d03d9db5349a0586d55e55e",
      "function": "submitMove(uint256,bytes32,bytes)",
      "arguments": [
        "11",
        "0xc7183fc0754b5e7da3b74bf364f8affe59ffdf73627f9b8e7d4991d4453bd364",
        "0x3b2c0000"
      ],
      "transaction": {
        "from": "0xe403f79171b7050c78479f52e49e753d43e72c1a",
        "to": "0xad473eaa51821c915d03d9db5349a0586d55e55e",
        "gas": "0x124c3",
        "value": "0x0",
        "input": "0x73b07f89000000000000000000000000000000000000000000000000000000000000000bc7183fc0754b5e7da3b74bf364f8affe59ffdf73627f9b8e7d4991d4453bd364000000000000000000000000000000000000000000000000000000000000006000000000000000000000000000000000000000000000000000000000000000043b2c000000000000000000000000000000000000000000000000000000000000",
        "nonce": "0x2ee",
        "chainId": "0x2105"
      },
      "additionalContracts": [],
      "isFixedGasLimit": false
    },
    {
      "hash": "0xd2968acaee9428f1d680e4570432ab6f55e6a11339a6d382a3fc6f0c6549d5a7",
      "transactionType": "CALL",
      "contractName": null,
      "contractAddress": "0xad473eaa51821c915d03d9db5349a0586d55e55e",
      "function": "submitMove(uint256,bytes32,bytes)",
      "arguments": [
        "12",
        "0x90e396633e67bfb131a9c9b400ea842e0f29f45c4bc7872a0e80af48deb78504",
        "0x30280000"
      ],
      "transaction": {
        "from": "0xe403f79171b7050c78479f52e49e753d43e72c1a",
        "to": "0xad473eaa51821c915d03d9db5349a0586d55e55e",
        "gas": "0x196a2",
        "value": "0x0",
        "input": "0x73b07f89000000000000000000000000000000000000000000000000000000000000000c90e396633e67bfb131a9c9b400ea842e0f29f45c4bc7872a0e80af48deb78504000000000000000000000000000000000000000000000000000000000000006000000000000000000000000000000000000000000000000000000000000000043028000000000000000000000000000000000000000000000000000000000000",
        "nonce": "0x2ef",
        "chainId": "0x2105"
      },
      "additionalContracts": [],
      "isFixedGasLimit": false
    },
    {
      "hash": "0xdec9a43be26f4bbb3fae40b657ce7b8439020e155d74aee16514550a797bdcda",
      "transactionType": "CALL",
      "contractName": null,
      "contractAddress": "0xad473eaa51821c915d03d9db5349a0586d55e55e",
      "function": "submitMove(uint256,bytes32,bytes)",
      "arguments": [
        "12",
        "0xfc6cc8976638831fc84ceab234894f532e0338e7268a3303d4c0c1939f85dbb9",
        "0x32220000"
      ],
      "transaction": {
        "from": "0xe403f79171b7050c78479f52e49e753d43e72c1a",
        "to": "0xad473eaa51821c915d03d9db5349a0586d55e55e",
        "gas": "0x124c3",
        "value": "0x0",
        "input": "0x73b07f89000000000000000000000000000000000000000000000000000000000000000cfc6cc8976638831fc84ceab234894f532e0338e7268a3303d4c0c1939f85dbb9000000000000000000000000000000000000000000000000000000000000006000000000000000000000000000000000000000000000000000000000000000043222000000000000000000000000000000000000000000000000000000000000",
        "nonce": "0x2f0",
        "chainId": "0x2105"
      },
      "additionalContracts": [],
      "isFixedGasLimit": false
    },
    {
      "hash": "0xdcebe744843b699a59af0859c87bd96fa19fabb2eabef84e12a200446e4eee74",
      "transactionType": "CALL",
      "contractName": null,
      "contractAddress": "0xad473eaa51821c915d03d9db5349a0586d55e55e",
      "function": "submitMove(uint256,bytes32,bytes)",
      "arguments": [
        "12",
        "0xbb9afb9861b8290cda948e4af3b636449a44547dca4c3acbc45e65f4e22aab40",
        "0x31290000"
      ],
      "transaction": {
        "from": "0xe403f79171b7050c78479f52e49e753d43e72c1a",
        "to": "0xad473eaa51821c915d03d9db5349a0586d55e55e",
        "gas": "0x124c3",
        "value": "0x0",
        "input": "0x73b07f89000000000000000000000000000000000000000000000000000000000000000cbb9afb9861b8290cda948e4af3b636449a44547dca4c3acbc45e65f4e22aab40000000000000000000000000000000000000000000000000000000000000006000000000000000000000000000000000000000000000000000000000000000043129000000000000000000000000000000000000000000000000000000000000",
        "nonce": "0x2f1",
        "chainId": "0x2105"
      },
      "additionalContracts": [],
      "isFixedGasLimit": false
    },
    {
      "hash": "0x436c6cf38dba6133fcd8c751f17cd55292665188f91aa5dee9cd14f34565d561",
      "transactionType": "CALL",
      "contractName": null,
      "contractAddress": "0xad473eaa51821c915d03d9db5349a0586d55e55e",
      "function": "submitMove(uint256,bytes32,bytes)",
      "arguments": [
        "12",
        "0x2a4b22ea265f7017c3f5040f1eec7d58baac29eda24dc699336157972973d8e1",
        "0x3a2b0000"
      ],
      "transaction": {
        "from": "0xe403f79171b7050c78479f52e49e753d43e72c1a",
        "to": "0xad473eaa51821c915d03d9db5349a0586d55e55e",
        "gas": "0x124c3",
        "value": "0x0",
        "input": "0x73b07f89000000000000000000000000000000000000000000000000000000000000000c2a4b22ea265f7017c3f5040f1eec7d58baac29eda24dc699336157972973d8e1000000000000000000000000000000000000000000000000000000000000006000000000000000000000000000000000000000000000000000000000000000043a2b000000000000000000000000000000000000000000000000000000000000",
        "nonce": "0x2f2",
        "chainId": "0x2105"
      },
      "additionalContracts": [],
      "isFixedGasLimit": false
    },
    {
      "hash": "0x22f566a70e3944acb1c26412aa859337f07b378a0630d8881c91dc943988f7cf",
      "transactionType": "CALL",
      "contractName": null,
      "contractAddress": "0xad473eaa51821c915d03d9db5349a0586d55e55e",
      "function": "submitMove(uint256,bytes32,bytes)",
      "arguments": [
        "13",
        "0xe8773807ffd17108aa2d132cec684352f2c5c8337ff4659cc010d15b0551847d",
        "0x34240000"
      ],
      "transaction": {
        "from": "0xe403f79171b7050c78479f52e49e753d43e72c1a",
        "to": "0xad473eaa51821c915d03d9db5349a0586d55e55e",
        "gas": "0x1801c",
        "value": "0x0",
        "input": "0x73b07f89000000000000000000000000000000000000000000000000000000000000000de8773807ffd17108aa2d132cec684352f2c5c8337ff4659cc010d15b0551847d000000000000000000000000000000000000000000000000000000000000006000000000000000000000000000000000000000000000000000000000000000043424000000000000000000000000000000000000000000000000000000000000",
        "nonce": "0x2f3",
        "chainId": "0x2105"
      },
      "additionalContracts": [],
      "isFixedGasLimit": false
    },
    {
      "hash": "0x25e7991bd6e5ca95a36d4f023c7c61bfdd4076fc89ad9f095ffdf66c2acc6442",
      "transactionType": "CALL",
      "contractName": null,
      "contractAddress": "0xad473eaa51821c915d03d9db5349a0586d55e55e",
      "function": "submitMove(uint256,bytes32,bytes)",
      "arguments": [
        "13",
        "0x0692c63251d62c8f04eed454cc75e5bc199ba842e6b8106095e5d806a5e48cfa",
        "0x33230000"
      ],
      "transaction": {
        "from": "0xe403f79171b7050c78479f52e49e753d43e72c1a",
        "to": "0xad473eaa51821c915d03d9db5349a0586d55e55e",
        "gas": "0x124c3",
        "value": "0x0",
        "input": "0x73b07f89000000000000000000000000000000000000000000000000000000000000000d0692c63251d62c8f04eed454cc75e5bc199ba842e6b8106095e5d806a5e48cfa000000000000000000000000000000000000000000000000000000000000006000000000000000000000000000000000000000000000000000000000000000043323000000000000000000000000000000000000000000000000000000000000",
        "nonce": "0x2f4",
        "chainId": "0x2105"
      },
      "additionalContracts": [],
      "isFixedGasLimit": false
    },
    {
      "hash": "0x5dcd23858958c091f857f3e2b3b2402d160137dc29da8b52b793b0f3361b5366",
      "transactionType": "CALL",
      "contractName": null,
      "contractAddress": "0xad473eaa51821c915d03d9db5349a0586d55e55e",
      "function": "submitMove(uint256,bytes32,bytes)",
      "arguments": [
        "13",
        "0x4442d021ec118fea7ce3641d3375363801af2e92adb1272f726cf20292795a62",
        "0x392a0000"
      ],
      "transaction": {
        "from": "0xe403f79171b7050c78479f52e49e753d43e72c1a",
        "to": "0xad473eaa51821c915d03d9db5349a0586d55e55e",
        "gas": "0x124c3",
        "value": "0x0",
        "input": "0x73b07f89000000000000000000000000000000000000000000000000000000000000000d4442d021ec118fea7ce3641d3375363801af2e92adb1272f726cf20292795a6200000000000000000000000000000000000000000000000000000000000000600000000000000000000000000000000000000000000000000000000000000004392a000000000000000000000000000000000000000000000000000000000000",
        "nonce": "0x2f5",
        "chainId": "0x2105"
      },
      "additionalContracts": [],
      "isFixedGasLimit": false
    },
    {
      "hash": "0x9dd474d94c9025b02719eb96736a70ace11853b7614b6d25d223154fcf06e35c",
      "transactionType": "CALL",
      "contractName": null,
      "contractAddress": "0xad473eaa51821c915d03d9db5349a0586d55e55e",
      "function": "submitMove(uint256,bytes32,bytes)",
      "arguments": [
        "13",
        "0xc7183fc0754b5e7da3b74bf364f8affe59ffdf73627f9b8e7d4991d4453bd364",
        "0x3b2c0000"
      ],
      "transaction": {
        "from": "0xe403f79171b7050c78479f52e49e753d43e72c1a",
        "to": "0xad473eaa51821c915d03d9db5349a0586d55e55e",
        "gas": "0x124c3",
        "value": "0x0",
        "input": "0x73b07f89000000000000000000000000000000000000000000000000000000000000000dc7183fc0754b5e7da3b74bf364f8affe59ffdf73627f9b8e7d4991d4453bd364000000000000000000000000000000000000000000000000000000000000006000000000000000000000000000000000000000000000000000000000000000043b2c000000000000000000000000000000000000000000000000000000000000",
        "nonce": "0x2f6",
        "chainId": "0x2105"
      },
      "additionalContracts": [],
      "isFixedGasLimit": false
    },
    {
      "hash": "0x961325d97cf37350ea943bbc3124f964be8f33fbfa19c11483afae84c87e18e3",
      "transactionType": "CALL",
      "contractName": null,
      "contractAddress": "0xad473eaa51821c915d03d9db5349a0586d55e55e",
      "function": "submitMove(uint256,bytes32,bytes)",
      "arguments": [
        "14",
        "0x90e396633e67bfb131a9c9b400ea842e0f29f45c4bc7872a0e80af48deb78504",
        "0x30280000"
      ],
      "transaction": {
        "from": "0xe403f79171b7050c78479f52e49e753d43e72c1a",
        "to": "0xad473eaa51821c915d03d9db5349a0586d55e55e",
        "gas": "0x196a2",
        "value": "0x0",
        "input": "0x73b07f89000000000000000000000000000000000000000000000000000000000000000e90e396633e67bfb131a9c9b400ea842e0f29f45c4bc7872a0e80af48deb78504000000000000000000000000000000000000000000000000000000000000006000000000000000000000000000000000000000000000000000000000000000043028000000000000000000000000000000000000000000000000000000000000",
        "nonce": "0x2f7",
        "chainId": "0x2105"
      },
      "additionalContracts": [],
      "isFixedGasLimit": false
    },
    {
      "hash": "0x0e346b27b2d46cf5bf2d605e73b25bbf31e83583b8ab017a72240215e19ece1a",
      "transactionType": "CALL",
      "contractName": null,
      "contractAddress": "0xad473eaa51821c915d03d9db5349a0586d55e55e",
      "function": "submitMove(uint256,bytes32,bytes)",
      "arguments": [
        "14",
        "0xfc6cc8976638831fc84ceab234894f532e0338e7268a3303d4c0c1939f85dbb9",
        "0x32220000"
      ],
      "transaction": {
        "from": "0xe403f79171b7050c78479f52e49e753d43e72c1a",
        "to": "0xad473eaa51821c915d03d9db5349a0586d55e55e",
        "gas": "0x124c3",
        "value": "0x0",
        "input": "0x73b07f89000000000000000000000000000000000000000000000000000000000000000efc6cc8976638831fc84ceab234894f532e0338e7268a3303d4c0c1939f85dbb9000000000000000000000000000000000000000000000000000000000000006000000000000000000000000000000000000000000000000000000000000000043222000000000000000000000000000000000000000000000000000000000000",
        "nonce": "0x2f8",
        "chainId": "0x2105"
      },
      "additionalContracts": [],
      "isFixedGasLimit": false
    },
    {
      "hash": "0xcb28b2cd3b8113db68c31a86eea0905a5727562abaae3bc8f114d4acac3c5d43",
      "transactionType": "CALL",
      "contractName": null,
      "contractAddress": "0xad473eaa51821c915d03d9db5349a0586d55e55e",
      "function": "submitMove(uint256,bytes32,bytes)",
      "arguments": [
        "14",
        "0xbb9afb9861b8290cda948e4af3b636449a44547dca4c3acbc45e65f4e22aab40",
        "0x31290000"
      ],
      "transaction": {
        "from": "0xe403f79171b7050c78479f52e49e753d43e72c1a",
        "to": "0xad473eaa51821c915d03d9db5349a0586d55e55e",
        "gas": "0x124c3",
        "value": "0x0",
        "input": "0x73b07f89000000000000000000000000000000000000000000000000000000000000000ebb9afb9861b8290cda948e4af3b636449a44547dca4c3acbc45e65f4e22aab40000000000000000000000000000000000000000000000000000000000000006000000000000000000000000000000000000000000000000000000000000000043129000000000000000000000000000000000000000000000000000000000000",
        "nonce": "0x2f9",
        "chainId": "0x2105"
      },
      "additionalContracts": [],
      "isFixedGasLimit": false
    },
    {
      "hash": "0xce40c741a1679a784bfc879e2a1283e54fa5628ae202e57207bc32790f7850c8",
      "transactionType": "CALL",
      "contractName": null,
      "contractAddress": "0xad473eaa51821c915d03d9db5349a0586d55e55e",
      "function": "submitMove(uint256,bytes32,bytes)",
      "arguments": [
        "14",
        "0x2a4b22ea265f7017c3f5040f1eec7d58baac29eda24dc699336157972973d8e1",
        "0x3a2b0000"
      ],
      "transaction": {
        "from": "0xe403f79171b7050c78479f52e49e753d43e72c1a",
        "to": "0xad473eaa51821c915d03d9db5349a0586d55e55e",
        "gas": "0x124c3",
        "value": "0x0",
        "input": "0x73b07f89000000000000000000000000000000000000000000000000000000000000000e2a4b22ea265f7017c3f5040f1eec7d58baac29eda24dc699336157972973d8e1000000000000000000000000000000000000000000000000000000000000006000000000000000000000000000000000000000000000000000000000000000043a2b000000000000000000000000000000000000000000000000000000000000",
        "nonce": "0x2fa",
        "chainId": "0x2105"
      },
      "additionalContracts": [],
      "isFixedGasLimit": false
    },
    {
      "hash": "0x45cfca0817a28f7b87d78971e39cc65922d884327ead08072209118e48ae48c1",
      "transactionType": "CALL",
      "contractName": null,
      "contractAddress": "0xad473eaa51821c915d03d9db5349a0586d55e55e",
      "function": "submitMove(uint256,bytes32,bytes)",
      "arguments": [
        "15",
        "0xe8773807ffd17108aa2d132cec684352f2c5c8337ff4659cc010d15b0551847d",
        "0x34240000"
      ],
      "transaction": {
        "from": "0xe403f79171b7050c78479f52e49e753d43e72c1a",
        "to": "0xad473eaa51821c915d03d9db5349a0586d55e55e",
        "gas": "0x1801c",
        "value": "0x0",
        "input": "0x73b07f89000000000000000000000000000000000000000000000000000000000000000fe8773807ffd17108aa2d132cec684352f2c5c8337ff4659cc010d15b0551847d000000000000000000000000000000000000000000000000000000000000006000000000000000000000000000000000000000000000000000000000000000043424000000000000000000000000000000000000000000000000000000000000",
        "nonce": "0x2fb",
        "chainId": "0x2105"
      },
      "additionalContracts": [],
      "isFixedGasLimit": false
    },
    {
      "hash": "0xabe0f09723f13bd9209c9724c691c8a67b31c2a07d496b7524ee39919c9445cd",
      "transactionType": "CALL",
      "contractName": null,
      "contractAddress": "0xad473eaa51821c915d03d9db5349a0586d55e55e",
      "function": "submitMove(uint256,bytes32,bytes)",
      "arguments": [
        "15",
        "0x0692c63251d62c8f04eed454cc75e5bc199ba842e6b8106095e5d806a5e48cfa",
        "0x33230000"
      ],
      "transaction": {
        "from": "0xe403f79171b7050c78479f52e49e753d43e72c1a",
        "to": "0xad473eaa51821c915d03d9db5349a0586d55e55e",
        "gas": "0x124c3",
        "value": "0x0",
        "input": "0x73b07f89000000000000000000000000000000000000000000000000000000000000000f0692c63251d62c8f04eed454cc75e5bc199ba842e6b8106095e5d806a5e48cfa000000000000000000000000000000000000000000000000000000000000006000000000000000000000000000000000000000000000000000000000000000043323000000000000000000000000000000000000000000000000000000000000",
        "nonce": "0x2fc",
        "chainId": "0x2105"
      },
      "additionalContracts": [],
      "isFixedGasLimit": false
    },
    {
      "hash": "0x618fb36d1b8289803acc67d6d1c3161bf5a9229c3c4dff8536d28a0af3c34f6e",
      "transactionType": "CALL",
      "contractName": null,
      "contractAddress": "0xad473eaa51821c915d03d9db5349a0586d55e55e",
      "function": "submitMove(uint256,bytes32,bytes)",
      "arguments": [
        "15",
        "0x4442d021ec118fea7ce3641d3375363801af2e92adb1272f726cf20292795a62",
        "0x392a0000"
      ],
      "transaction": {
        "from": "0xe403f79171b7050c78479f52e49e753d43e72c1a",
        "to": "0xad473eaa51821c915d03d9db5349a0586d55e55e",
        "gas": "0x124c3",
        "value": "0x0",
        "input": "0x73b07f89000000000000000000000000000000000000000000000000000000000000000f4442d021ec118fea7ce3641d3375363801af2e92adb1272f726cf20292795a6200000000000000000000000000000000000000000000000000000000000000600000000000000000000000000000000000000000000000000000000000000004392a000000000000000000000000000000000000000000000000000000000000",
        "nonce": "0x2fd",
        "chainId": "0x2105"
      },
      "additionalContracts": [],
      "isFixedGasLimit": false
    },
    {
      "hash": "0x1ad083a3a21c1d1b6b6a2e7afa329418420406fd17d6e282b5f5b6dcf54570aa",
      "transactionType": "CALL",
      "contractName": null,
      "contractAddress": "0xad473eaa51821c915d03d9db5349a0586d55e55e",
      "function": "submitMove(uint256,bytes32,bytes)",
      "arguments": [
        "15",
        "0xc7183fc0754b5e7da3b74bf364f8affe59ffdf73627f9b8e7d4991d4453bd364",
        "0x3b2c0000"
      ],
      "transaction": {
        "from": "0xe403f79171b7050c78479f52e49e753d43e72c1a",
        "to": "0xad473eaa51821c915d03d9db5349a0586d55e55e",
        "gas": "0x124c3",
        "value": "0x0",
        "input": "0x73b07f89000000000000000000000000000000000000000000000000000000000000000fc7183fc0754b5e7da3b74bf364f8affe59ffdf73627f9b8e7d4991d4453bd364000000000000000000000000000000000000000000000000000000000000006000000000000000000000000000000000000000000000000000000000000000043b2c000000000000000000000000000000000000000000000000000000000000",
        "nonce": "0x2fe",
        "chainId": "0x2105"
      },
      "additionalContracts": [],
      "isFixedGasLimit": false
    },
    {
      "hash": "0x8d4045c3c2577f2ab6765b8ce7c0d76c4628e02cf0f4c10089cdb4aedcef0561",
      "transactionType": "CALL",
      "contractName": null,
      "contractAddress": "0xad473eaa51821c915d03d9db5349a0586d55e55e",
      "function": "submitMove(uint256,bytes32,bytes)",
      "arguments": [
        "16",
        "0x90e396633e67bfb131a9c9b400ea842e0f29f45c4bc7872a0e80af48deb78504",
        "0x30280000"
      ],
      "transaction": {
        "from": "0xe403f79171b7050c78479f52e49e753d43e72c1a",
        "to": "0xad473eaa51821c915d03d9db5349a0586d55e55e",
        "gas": "0x196a2",
        "value": "0x0",
        "input": "0x73b07f89000000000000000000000000000000000000000000000000000000000000001090e396633e67bfb131a9c9b400ea842e0f29f45c4bc7872a0e80af48deb78504000000000000000000000000000000000000000000000000000000000000006000000000000000000000000000000000000000000000000000000000000000043028000000000000000000000000000000000000000000000000000000000000",
        "nonce": "0x2ff",
        "chainId": "0x2105"
      },
      "additionalContracts": [],
      "isFixedGasLimit": false
    },
    {
      "hash": "0x1eea9f3540da01fbaedc7d53f02e204e61a3890641928b72a14e15a6fa80d61e",
      "transactionType": "CALL",
      "contractName": null,
      "contractAddress": "0xad473eaa51821c915d03d9db5349a0586d55e55e",
      "function": "submitMove(uint256,bytes32,bytes)",
      "arguments": [
        "16",
        "0xfc6cc8976638831fc84ceab234894f532e0338e7268a3303d4c0c1939f85dbb9",
        "0x32220000"
      ],
      "transaction": {
        "from": "0xe403f79171b7050c78479f52e49e753d43e72c1a",
        "to": "0xad473eaa51821c915d03d9db5349a0586d55e55e",
        "gas": "0x124c3",
        "value": "0x0",
        "input": "0x73b07f890000000000000000000000000000000000000000000000000000000000000010fc6cc8976638831fc84ceab234894f532e0338e7268a3303d4c0c1939f85dbb9000000000000000000000000000000000000000000000000000000000000006000000000000000000000000000000000000000000000000000000000000000043222000000000000000000000000000000000000000000000000000000000000",
        "nonce": "0x300",
        "chainId": "0x2105"
      },
      "additionalContracts": [],
      "isFixedGasLimit": false
    },
    {
      "hash": "0xa4cff10cca1970561e6e3af9834bcbcf7051bf81fa926502a0723c8caa93d6cc",
      "transactionType": "CALL",
      "contractName": null,
      "contractAddress": "0xad473eaa51821c915d03d9db5349a0586d55e55e",
      "function": "submitMove(uint256,bytes32,bytes)",
      "arguments": [
        "16",
        "0xbb9afb9861b8290cda948e4af3b636449a44547dca4c3acbc45e65f4e22aab40",
        "0x31290000"
      ],
      "transaction": {
        "from": "0xe403f79171b7050c78479f52e49e753d43e72c1a",
        "to": "0xad473eaa51821c915d03d9db5349a0586d55e55e",
        "gas": "0x124c3",
        "value": "0x0",
        "input": "0x73b07f890000000000000000000000000000000000000000000000000000000000000010bb9afb9861b8290cda948e4af3b636449a44547dca4c3acbc45e65f4e22aab40000000000000000000000000000000000000000000000000000000000000006000000000000000000000000000000000000000000000000000000000000000043129000000000000000000000000000000000000000000000000000000000000",
        "nonce": "0x301",
        "chainId": "0x2105"
      },
      "additionalContracts": [],
      "isFixedGasLimit": false
    },
    {
      "hash": "0xe1c67f204233da88b1ac5419deb324b11c7230563014c4501beb65bdf6e64db6",
      "transactionType": "CALL",
      "contractName": null,
      "contractAddress": "0xad473eaa51821c915d03d9db5349a0586d55e55e",
      "function": "submitMove(uint256,bytes32,bytes)",
      "arguments": [
        "16",
        "0x2a4b22ea265f7017c3f5040f1eec7d58baac29eda24dc699336157972973d8e1",
        "0x3a2b0000"
      ],
      "transaction": {
        "from": "0xe403f79171b7050c78479f52e49e753d43e72c1a",
        "to": "0xad473eaa51821c915d03d9db5349a0586d55e55e",
        "gas": "0x124c3",
        "value": "0x0",
        "input": "0x73b07f8900000000000000000000000000000000000000000000000000000000000000102a4b22ea265f7017c3f5040f1eec7d58baac29eda24dc699336157972973d8e1000000000000000000000000000000000000000000000000000000000000006000000000000000000000000000000000000000000000000000000000000000043a2b000000000000000000000000000000000000000000000000000000000000",
        "nonce": "0x302",
        "chainId": "0x2105"
      },
      "additionalContracts": [],
      "isFixedGasLimit": false
    }
  ],
  "receipts": [
    {
      "status": "0x1",
      "cumulativeGasUsed": "0x3e0847a",
      "logs": [
        {
          "address": "0xad473eaa51821c915d03d9db5349a0586d55e55e",
          "topics": [
            "0xca1357e0f94306885a9813b6797ad5acadca27e6b5bccbde2640d84f319df31e",
            "0x0000000000000000000000000000000000000000000000000000000000000009"
          ],
          "data": "0x3608f503d624b47779fba399a097e68bc35cdbd22fcf04e3d6b7a3bd8fa9b7460000000000000000000000000000000000000000000000000000000000000000",
          "blockHash": "0x452f75220cf44d59543c9a5f5734005da6ece9188638b764c04934b7f51b49dd",
          "blockNumber": "0x2619662",
          "blockTimestamp": "0x694d89a7",
          "transactionHash": "0xf2686fb603b3423d62423cd2ba806ae857bbcb207b51053eddf3eb5734ce2f7c",
          "transactionIndex": "0xde",
          "logIndex": "0x54f",
          "removed": false
        },
        {
          "address": "0xad473eaa51821c915d03d9db5349a0586d55e55e",
          "topics": [
            "0x94af2fbea15ff3140faa3f70571c806b44849899a559d3c9f306155e45de0416",
            "0x0000000000000000000000000000000000000000000000000000000000000009",
            "0x000000000000000000000000e403f79171b7050c78479f52e49e753d43e72c1a"
          ],
          "data": "0x000000000000000000000000000000000000000000000000000000000000000100000000000000000000000000000000000000000000000000000000000000000000000000000000000000000000000000000000000000000000000000000000",
          "blockHash": "0x452f75220cf44d59543c9a5f5734005da6ece9188638b764c04934b7f51b49dd",
          "blockNumber": "0x2619662",
          "blockTimestamp": "0x694d89a7",
          "transactionHash": "0xf2686fb603b3423d62423cd2ba806ae857bbcb207b51053eddf3eb5734ce2f7c",
          "transactionIndex": "0xde",
          "logIndex": "0x550",
          "removed": false
        }
      ],
      "logsBloom": "0x00000000000000000000000000000000000000000000000000000040000400000000000000000000000000000000000000000000000000000000000000200000000000000001000000000000000000000000000000000000000000000000000000000000000000000000000000000000000000000000000000200000000000000000000000000000000000000200000000003000000000040002000000000000000004000000000000000000000000000000000000000000000000000000000000000000000000000000000000000000000000000000000000000008000004000000000000000000000000000000000000000000000000800000000000800000",
      "type": "0x2",
      "transactionHash": "0xf2686fb603b3423d62423cd2ba806ae857bbcb207b51053eddf3eb5734ce2f7c",
      "transactionIndex": "0xde",
      "blockHash": "0x452f75220cf44d59543c9a5f5734005da6ece9188638b764c04934b7f51b49dd",
      "blockNumber": "0x2619662",
      "gasUsed": "0x3bd76",
      "effectiveGasPrice": "0x16e360",
      "blobGasUsed": "0x7ef4",
      "from": "0xe403f79171b7050c78479f52e49e753d43e72c1a",
      "to": "0xad473eaa51821c915d03d9db5349a0586d55e55e",
      "contractAddress": null,
      "daFootprintGasScalar": "0x145",
      "l1BaseFeeScalar": "0x8dd",
      "l1BlobBaseFee": "0x18188c",
      "l1BlobBaseFeeScalar": "0x101c12",
      "l1Fee": "0x3f6ce05f",
      "l1GasPrice": "0x193bcc9",
      "l1GasUsed": "0x640"
    },
    {
      "status": "0x1",
      "cumulativeGasUsed": "0x3e441f0",
      "logs": [
        {
          "address": "0xad473eaa51821c915d03d9db5349a0586d55e55e",
          "topics": [
            "0xca1357e0f94306885a9813b6797ad5acadca27e6b5bccbde2640d84f319df31e",
            "0x000000000000000000000000000000000000000000000000000000000000000a"
          ],
          "data": "0x3608f503d624b47779fba399a097e68bc35cdbd22fcf04e3d6b7a3bd8fa9b7460000000000000000000000000000000000000000000000000000000000000000",
          "blockHash": "0x452f75220cf44d59543c9a5f5734005da6ece9188638b764c04934b7f51b49dd",
          "blockNumber": "0x2619662",
          "blockTimestamp": "0x694d89a7",
          "transactionHash": "0x1502c5569e91a52f16d01f99f1360124aeeae704fd41df4459e76e4619e3825e",
          "transactionIndex": "0xdf",
          "logIndex": "0x551",
          "removed": false
        },
        {
          "address": "0xad473eaa51821c915d03d9db5349a0586d55e55e",
          "topics": [
            "0x94af2fbea15ff3140faa3f70571c806b44849899a559d3c9f306155e45de0416",
            "0x000000000000000000000000000000000000000000000000000000000000000a",
            "0x000000000000000000000000e403f79171b7050c78479f52e49e753d43e72c1a"
          ],
          "data": "0x000000000000000000000000000000000000000000000000000000000000000100000000000000000000000000000000000000000000000000000000000000000000000000000000000000000000000000000000000000000000000000000000",
          "blockHash": "0x452f75220cf44d59543c9a5f5734005da6ece9188638b764c04934b7f51b49dd",
          "blockNumber": "0x2619662",
          "blockTimestamp": "0x694d89a7",
          "transactionHash": "0x1502c5569e91a52f16d01f99f1360124aeeae704fd41df4459e76e4619e3825e",
          "transactionIndex": "0xdf",
          "logIndex": "0x552",
          "removed": false
        }
      ],
      "logsBloom": "0x00000000000000000000000000000000000000000000000000000040000400000000000000000000000000000000000000000000040000000020000000000000000000000001000000000000000000000000000000000000000000000000000000000000000000000000000000000000000000000000000000200000000000000000000000000000010000000200000000002000000000040002000000000000000004000000000000000000000000000000000000000000000000000000000000000000000000000000000000000000000000000000000000000008000004000000000000000000000000000000000000000000000000800000000000000000",
      "type": "0x2",
      "transactionHash": "0x1502c5569e91a52f16d01f99f1360124aeeae704fd41df4459e76e4619e3825e",
      "transactionIndex": "0xdf",
      "blockHash": "0x452f75220cf44d59543c9a5f5734005da6ece9188638b764c04934b7f51b49dd",
      "blockNumber": "0x2619662",
      "gasUsed": "0x3bd76",
      "effectiveGasPrice": "0x16e360",
      "blobGasUsed": "0x7ef4",
      "from": "0xe403f79171b7050c78479f52e49e753d43e72c1a",
      "to": "0xad473eaa51821c915d03d9db5349a0586d55e55e",
      "contractAddress": null,
      "daFootprintGasScalar": "0x145",
      "l1BaseFeeScalar": "0x8dd",
      "l1BlobBaseFee": "0x18188c",
      "l1BlobBaseFeeScalar": "0x101c12",
      "l1Fee": "0x3f6ce05f",
      "l1GasPrice": "0x193bcc9",
      "l1GasUsed": "0x640"
    },
    {
      "status": "0x1",
      "cumulativeGasUsed": "0x3e7ff66",
      "logs": [
        {
          "address": "0xad473eaa51821c915d03d9db5349a0586d55e55e",
          "topics": [
            "0xca1357e0f94306885a9813b6797ad5acadca27e6b5bccbde2640d84f319df31e",
            "0x000000000000000000000000000000000000000000000000000000000000000b"
          ],
          "data": "0x3608f503d624b47779fba399a097e68bc35cdbd22fcf04e3d6b7a3bd8fa9b7460000000000000000000000000000000000000000000000000000000000000000",
          "blockHash": "0x452f75220cf44d59543c9a5f5734005da6ece9188638b764c04934b7f51b49dd",
          "blockNumber": "0x2619662",
          "blockTimestamp": "0x694d89a7",
          "transactionHash": "0x49539abc58cffd0fde23aeec5bad0d7caa230a2091029175d97166139ee635af",
          "transactionIndex": "0xe0",
          "logIndex": "0x553",
          "removed": false
        },
        {
          "address": "0xad473eaa51821c915d03d9db5349a0586d55e55e",
          "topics": [
            "0x94af2fbea15ff3140faa3f70571c806b44849899a559d3c9f306155e45de0416",
            "0x000000000000000000000000000000000000000000000000000000000000000b",
            "0x000000000000000000000000e403f79171b7050c78479f52e49e753d43e72c1a"
          ],
          "data": "0x000000000000000000000000000000000000000000000000000000000000000100000000000000000000000000000000000000000000000000000000000000000000000000000000000000000000000000000000000000000000000000000000",
          "blockHash": "0x452f75220cf44d59543c9a5f5734005da6ece9188638b764c04934b7f51b49dd",
          "blockNumber": "0x2619662",
          "blockTimestamp": "0x694d89a7",
          "transactionHash": "0x49539abc58cffd0fde23aeec5bad0d7caa230a2091029175d97166139ee635af",
          "transactionIndex": "0xe0",
          "logIndex": "0x554",
          "removed": false
        }
      ],
      "logsBloom": "0x00000000000000000000004000000000000000000000000000000040000400000000000000000000000000000000000000000000000000000000000000000000000000000001000000000000000000000000000000000000000000000000000000000000000000000000000000000000000000000000000000200000000000000000000000000000000000000200000000002000000000040002000000000000000004000000000000000000000000000000000000000000000000000000000000000000000000000000000000000000002000000000000000000008000004000000000000000000000000000000000000000000000000840000000000000000",
      "type": "0x2",
      "transactionHash": "0x49539abc58cffd0fde23aeec5bad0d7caa230a2091029175d97166139ee635af",
      "transactionIndex": "0xe0",
      "blockHash": "0x452f75220cf44d59543c9a5f5734005da6ece9188638b764c04934b7f51b49dd",
      "blockNumber": "0x2619662",
      "gasUsed": "0x3bd76",
      "effectiveGasPrice": "0x16e360",
      "blobGasUsed": "0x7ef4",
      "from": "0xe403f79171b7050c78479f52e49e753d43e72c1a",
      "to": "0xad473eaa51821c915d03d9db5349a0586d55e55e",
      "contractAddress": null,
      "daFootprintGasScalar": "0x145",
      "l1BaseFeeScalar": "0x8dd",
      "l1BlobBaseFee": "0x18188c",
      "l1BlobBaseFeeScalar": "0x101c12",
      "l1Fee": "0x3f6ce05f",
      "l1GasPrice": "0x193bcc9",
      "l1GasUsed": "0x640"
    },
    {
      "status": "0x1",
      "cumulativeGasUsed": "0x3ebbcdc",
      "logs": [
        {
          "address": "0xad473eaa51821c915d03d9db5349a0586d55e55e",
          "topics": [
            "0xca1357e0f94306885a9813b6797ad5acadca27e6b5bccbde2640d84f319df31e",
            "0x000000000000000000000000000000000000000000000000000000000000000c"
          ],
          "data": "0x3608f503d624b47779fba399a097e68bc35cdbd22fcf04e3d6b7a3bd8fa9b7460000000000000000000000000000000000000000000000000000000000000000",
          "blockHash": "0x92b23d554935a79d1b6ac57d30b0d5abfca10e105f33dd0c77e1aae0170705cc",
          "blockNumber": "0x2619662",
          "blockTimestamp": "0x694d89a7",
          "transactionHash": "0x49d482bc4e0b669e1a03fa5b7abda3c8d32b72464770a6499d0f9563f4b37aeb",
          "transactionIndex": "0xe1",
          "logIndex": "0x555",
          "removed": false
        },
        {
          "address": "0xad473eaa51821c915d03d9db5349a0586d55e55e",
          "topics": [
            "0x94af2fbea15ff3140faa3f70571c806b44849899a559d3c9f306155e45de0416",
            "0x000000000000000000000000000000000000000000000000000000000000000c",
            "0x000000000000000000000000e403f79171b7050c78479f52e49e753d43e72c1a"
          ],
          "data": "0x000000000000000000000000000000000000000000000000000000000000000100000000000000000000000000000000000000000000000000000000000000000000000000000000000000000000000000000000000000000000000000000000",
          "blockHash": "0x92b23d554935a79d1b6ac57d30b0d5abfca10e105f33dd0c77e1aae0170705cc",
          "blockNumber": "0x2619662",
          "blockTimestamp": "0x694d89a7",
          "transactionHash": "0x49d482bc4e0b669e1a03fa5b7abda3c8d32b72464770a6499d0f9563f4b37aeb",
          "transactionIndex": "0xe1",
          "logIndex": "0x556",
          "removed": false
        }
      ],
      "logsBloom": "0x00000000000000000000000000000000000002000000000000000040000400000000000000000200000000000000000000000000000000000000000000000000000000000001000000000000000000000000000000000000000000000000000000000000000000000000000000000000000000000000000000200000000000000000000000000000000000000200000000002000000000040002000000000000000004000000000000000000000000000000000000000000000000000000000000000000000000000000000000000000000000000000000000000008000004200000000000000000000000000000000000000000000000800000000000000000",
      "type": "0x2",
      "transactionHash": "0x49d482bc4e0b669e1a03fa5b7abda3c8d32b72464770a6499d0f9563f4b37aeb",
      "transactionIndex": "0xe1",
      "blockHash": "0x92b23d554935a79d1b6ac57d30b0d5abfca10e105f33dd0c77e1aae0170705cc",
      "blockNumber": "0x2619662",
      "gasUsed": "0x3bd76",
      "effectiveGasPrice": "0x16e360",
      "blobGasUsed": "0x7ef4",
      "from": "0xe403f79171b7050c78479f52e49e753d43e72c1a",
      "to": "0xad473eaa51821c915d03d9db5349a0586d55e55e",
      "contractAddress": null,
      "daFootprintGasScalar": "0x145",
      "l1BaseFeeScalar": "0x8dd",
      "l1BlobBaseFee": "0x18188c",
      "l1BlobBaseFeeScalar": "0x101c12",
      "l1Fee": "0xfa9ae36",
      "l1GasPrice": "0x193bcc9",
      "l1GasUsed": "0x640"
    },
    {
      "status": "0x1",
      "cumulativeGasUsed": "0x3ef7a52",
      "logs": [
        {
          "address": "0xad473eaa51821c915d03d9db5349a0586d55e55e",
          "topics": [
            "0xca1357e0f94306885a9813b6797ad5acadca27e6b5bccbde2640d84f319df31e",
            "0x000000000000000000000000000000000000000000000000000000000000000d"
          ],
          "data": "0x3608f503d624b47779fba399a097e68bc35cdbd22fcf04e3d6b7a3bd8fa9b7460000000000000000000000000000000000000000000000000000000000000000",
          "blockHash": "0x452f75220cf44d59543c9a5f5734005da6ece9188638b764c04934b7f51b49dd",
          "blockNumber": "0x2619662",
          "blockTimestamp": "0x694d89a7",
          "transactionHash": "0xfe0b4c98a48191a9f1e7951496442faa746ad5c553126c1552491013aea0c73d",
          "transactionIndex": "0xe2",
          "logIndex": "0x557",
          "removed": false
        },
        {
          "address": "0xad473eaa51821c915d03d9db5349a0586d55e55e",
          "topics": [
            "0x94af2fbea15ff3140faa3f70571c806b44849899a559d3c9f306155e45de0416",
            "0x000000000000000000000000000000000000000000000000000000000000000d",
            "0x000000000000000000000000e403f79171b7050c78479f52e49e753d43e72c1a"
          ],
          "data": "0x000000000000000000000000000000000000000000000000000000000000000100000000000000000000000000000000000000000000000000000000000000000000000000000000000000000000000000000000000000000000000000000000",
          "blockHash": "0x452f75220cf44d59543c9a5f5734005da6ece9188638b764c04934b7f51b49dd",
          "blockNumber": "0x2619662",
          "blockTimestamp": "0x694d89a7",
          "transactionHash": "0xfe0b4c98a48191a9f1e7951496442faa746ad5c553126c1552491013aea0c73d",
          "transactionIndex": "0xe2",
          "logIndex": "0x558",
          "removed": false
        }
      ],
      "logsBloom": "0x00000000000000000040000000000000000000000000000000000040000400000000000000000000000000000000000000000000000000000000000000000000000000000001000000000000000000000002000000000000000000000000000000000000000000000000000000000000000000000000000000200000000000000000000000000000000000000200000000002000000000040002000000000000000004000000000000000000000000000000000000000000000000000000000000000000000000000000000000000000000000000000000000000008000004020000000000000000000000000000000000000000000000800000000000000000",
      "type": "0x2",
      "transactionHash": "0xfe0b4c98a48191a9f1e7951496442faa746ad5c553126c1552491013aea0c73d",
      "transactionIndex": "0xe2",
      "blockHash": "0x452f75220cf44d59543c9a5f5734005da6ece9188638b764c04934b7f51b49dd",
      "blockNumber": "0x2619662",
      "gasUsed": "0x3bd76",
      "effectiveGasPrice": "0x16e360",
      "blobGasUsed": "0x7ef4",
      "from": "0xe403f79171b7050c78479f52e49e753d43e72c1a",
      "to": "0xad473eaa51821c915d03d9db5349a0586d55e55e",
      "contractAddress": null,
      "daFootprintGasScalar": "0x145",
      "l1BaseFeeScalar": "0x8dd",
      "l1BlobBaseFee": "0x18188c",
      "l1BlobBaseFeeScalar": "0x101c12",
      "l1Fee": "0x3f6ce05f",
      "l1GasPrice": "0x193bcc9",
      "l1GasUsed": "0x640"
    },
    {
      "status": "0x1",
      "cumulativeGasUsed": "0x3f48848",
      "logs": [
        {
          "address": "0xad473eaa51821c915d03d9db5349a0586d55e55e",
          "topics": [
            "0xca1357e0f94306885a9813b6797ad5acadca27e6b5bccbde2640d84f319df31e",
            "0x000000000000000000000000000000000000000000000000000000000000000e"
          ],
          "data": "0x3608f503d624b47779fba399a097e68bc35cdbd22fcf04e3d6b7a3bd8fa9b7460000000000000000000000000000000000000000000000000000000000000000",
          "blockHash": "0x452f75220cf44d59543c9a5f5734005da6ece9188638b764c04934b7f51b49dd",
          "blockNumber": "0x2619662",
          "blockTimestamp": "0x694d89a7",
          "transactionHash": "0xcf6093bfce9b11222eeec4d97233d306e74667b06c49f03f3d3db287838231d7",
          "transactionIndex": "0xe4",
          "logIndex": "0x55b",
          "removed": false
        },
        {
          "address": "0xad473eaa51821c915d03d9db5349a0586d55e55e",
          "topics": [
            "0x94af2fbea15ff3140faa3f70571c806b44849899a559d3c9f306155e45de0416",
            "0x000000000000000000000000000000000000000000000000000000000000000e",
            "0x000000000000000000000000e403f79171b7050c78479f52e49e753d43e72c1a"
          ],
          "data": "0x000000000000000000000000000000000000000000000000000000000000000100000000000000000000000000000000000000000000000000000000000000000000000000000000000000000000000000000000000000000000000000000000",
          "blockHash": "0x452f75220cf44d59543c9a5f5734005da6ece9188638b764c04934b7f51b49dd",
          "blockNumber": "0x2619662",
          "blockTimestamp": "0x694d89a7",
          "transactionHash": "0xcf6093bfce9b11222eeec4d97233d306e74667b06c49f03f3d3db287838231d7",
          "transactionIndex": "0xe4",
          "logIndex": "0x55c",
          "removed": false
        }
      ],
      "logsBloom": "0x00000000000000000000000000000000000000000000000000000040000400000000000000000000000000000000000000000000000000000000000000000000000000000001000800000000000000000000000000000000000000000000000000000000000000000000000000000000000000000000000000200000000000000000000000000000000000000200000008002000000000040002000000000000000004000000000000000000000000000000000000000020000000000000000000000000000000000000000000000000000000000000000000000008000004000000000000000000000000000000000000000000000000800000000000000000",
      "type": "0x2",
      "transactionHash": "0xcf6093bfce9b11222eeec4d97233d306e74667b06c49f03f3d3db287838231d7",
      "transactionIndex": "0xe4",
      "blockHash": "0x452f75220cf44d59543c9a5f5734005da6ece9188638b764c04934b7f51b49dd",
      "blockNumber": "0x2619662",
      "gasUsed": "0x3bd76",
      "effectiveGasPrice": "0x16e360",
      "blobGasUsed": "0x7ef4",
      "from": "0xe403f79171b7050c78479f52e49e753d43e72c1a",
      "to": "0xad473eaa51821c915d03d9db5349a0586d55e55e",
      "contractAddress": null,
      "daFootprintGasScalar": "0x145",
      "l1BaseFeeScalar": "0x8dd",
      "l1BlobBaseFee": "0x18188c",
      "l1BlobBaseFeeScalar": "0x101c12",
      "l1Fee": "0x3f6ce05f",
      "l1GasPrice": "0x193bcc9",
      "l1GasUsed": "0x640"
    },
    {
      "status": "0x1",
      "cumulativeGasUsed": "0x3f845be",
      "logs": [
        {
          "address": "0xad473eaa51821c915d03d9db5349a0586d55e55e",
          "topics": [
            "0xca1357e0f94306885a9813b6797ad5acadca27e6b5bccbde2640d84f319df31e",
            "0x000000000000000000000000000000000000000000000000000000000000000f"
          ],
          "data": "0x3608f503d624b47779fba399a097e68bc35cdbd22fcf04e3d6b7a3bd8fa9b7460000000000000000000000000000000000000000000000000000000000000000",
          "blockHash": "0x452f75220cf44d59543c9a5f5734005da6ece9188638b764c04934b7f51b49dd",
          "blockNumber": "0x2619662",
          "blockTimestamp": "0x694d89a7",
          "transactionHash": "0x321a061d25269752a2b173c3be703932aae070ad6e0f6a8967646d33e06f13b8",
          "transactionIndex": "0xe5",
          "logIndex": "0x55d",
          "removed": false
        },
        {
          "address": "0xad473eaa51821c915d03d9db5349a0586d55e55e",
          "topics": [
            "0x94af2fbea15ff3140faa3f70571c806b44849899a559d3c9f306155e45de0416",
            "0x000000000000000000000000000000000000000000000000000000000000000f",
            "0x000000000000000000000000e403f79171b7050c78479f52e49e753d43e72c1a"
          ],
          "data": "0x000000000000000000000000000000000000000000000000000000000000000100000000000000000000000000000000000000000000000000000000000000000000000000000000000000000000000000000000000000000000000000000000",
          "blockHash": "0x452f75220cf44d59543c9a5f5734005da6ece9188638b764c04934b7f51b49dd",
          "blockNumber": "0x2619662",
          "blockTimestamp": "0x694d89a7",
          "transactionHash": "0x321a061d25269752a2b173c3be703932aae070ad6e0f6a8967646d33e06f13b8",
          "transactionIndex": "0xe5",
          "logIndex": "0x55e",
          "removed": false
        }
      ],
      "logsBloom": "0x00000000000000000000000000000000000000000000000000000040000400000000000000000000000000000000000000000000000000000000000000000000000000000001000000000000000000000000000000000000000000000002000000000000000000000000000000000000000000000000000000200000000000000000000000000800000000000200000000002000000000040002000000000000000004000000000000000000000000000000000000000000000000000000000000000000000000000000000000000000000000000000000000000008000004000000000200000000000000000000000000000000000000800000000000000000",
      "type": "0x2",
      "transactionHash": "0x321a061d25269752a2b173c3be703932aae070ad6e0f6a8967646d33e06f13b8",
      "transactionIndex": "0xe5",
      "blockHash": "0x452f75220cf44d59543c9a5f5734005da6ece9188638b764c04934b7f51b49dd",
      "blockNumber": "0x2619662",
      "gasUsed": "0x3bd76",
      "effectiveGasPrice": "0x16e360",
      "blobGasUsed": "0x7ef4",
      "from": "0xe403f79171b7050c78479f52e49e753d43e72c1a",
      "to": "0xad473eaa51821c915d03d9db5349a0586d55e55e",
      "contractAddress": null,
      "daFootprintGasScalar": "0x145",
      "l1BaseFeeScalar": "0x8dd",
      "l1BlobBaseFee": "0x18188c",
      "l1BlobBaseFeeScalar": "0x101c12",
      "l1Fee": "0x3f6ce05f",
      "l1GasPrice": "0x193bcc9",
      "l1GasUsed": "0x640"
    },
    {
      "status": "0x1",
      "cumulativeGasUsed": "0x4a04b0f",
      "logs": [
        {
          "address": "0xad473eaa51821c915d03d9db5349a0586d55e55e",
          "topics": [
            "0xca1357e0f94306885a9813b6797ad5acadca27e6b5bccbde2640d84f319df31e",
            "0x0000000000000000000000000000000000000000000000000000000000000010"
          ],
          "data": "0x3608f503d624b47779fba399a097e68bc35cdbd22fcf04e3d6b7a3bd8fa9b7460000000000000000000000000000000000000000000000000000000000000000",
          "blockHash": "0x2f7a0b8c768c1bdc15a0cdfbf8cfb4a006bcb087d6e6a1b47961d4acc39fe89d",
          "blockNumber": "0x2619662",
          "blockTimestamp": "0x694d89a7",
          "transactionHash": "0xbee4f957aaace06aa5492b62ae16adf51ebd6a7d6ffc920458b6bd436ddfe09c",
          "transactionIndex": "0x11b",
          "logIndex": "0x5e6",
          "removed": false
        },
        {
          "address": "0xad473eaa51821c915d03d9db5349a0586d55e55e",
          "topics": [
            "0x94af2fbea15ff3140faa3f70571c806b44849899a559d3c9f306155e45de0416",
            "0x0000000000000000000000000000000000000000000000000000000000000010",
            "0x000000000000000000000000e403f79171b7050c78479f52e49e753d43e72c1a"
          ],
          "data": "0x000000000000000000000000000000000000000000000000000000000000000100000000000000000000000000000000000000000000000000000000000000000000000000000000000000000000000000000000000000000000000000000000",
          "blockHash": "0x2f7a0b8c768c1bdc15a0cdfbf8cfb4a006bcb087d6e6a1b47961d4acc39fe89d",
          "blockNumber": "0x2619662",
          "blockTimestamp": "0x694d89a7",
          "transactionHash": "0xbee4f957aaace06aa5492b62ae16adf51ebd6a7d6ffc920458b6bd436ddfe09c",
          "transactionIndex": "0x11b",
          "logIndex": "0x5e7",
          "removed": false
        }
      ],
      "logsBloom": "0x00000000100000000000000000000000000000000000000000000040000400000000000000000000000000000000000000000000000000000000000000000000000000000001000000000000000000000000000000000000000000000000000000000000000000000000000000000000000000000000000000200000040000000000000000000000000000000200000000002100000000040002000000000000000004000000000000000000000000000000000000000000000000000000000000000000000000000000000000000000000000000000000000000008000004000000000000000000000000000000000000000000000000800000000000000000",
      "type": "0x2",
      "transactionHash": "0xbee4f957aaace06aa5492b62ae16adf51ebd6a7d6ffc920458b6bd436ddfe09c",
      "transactionIndex": "0x11b",
      "blockHash": "0x2f7a0b8c768c1bdc15a0cdfbf8cfb4a006bcb087d6e6a1b47961d4acc39fe89d",
      "blockNumber": "0x2619662",
      "gasUsed": "0x3bd76",
      "effectiveGasPrice": "0x16e360",
      "blobGasUsed": "0x7ef4",
      "from": "0xe403f79171b7050c78479f52e49e753d43e72c1a",
      "to": "0xad473eaa51821c915d03d9db5349a0586d55e55e",
      "contractAddress": null,
      "daFootprintGasScalar": "0x145",
      "l1BaseFeeScalar": "0x8dd",
      "l1BlobBaseFee": "0x18188c",
      "l1BlobBaseFeeScalar": "0x101c12",
      "l1Fee": "0x3f6ce05f",
      "l1GasPrice": "0x193bcc9",
      "l1GasUsed": "0x640"
    },
    {
      "status": "0x1",
      "cumulativeGasUsed": "0x4a16126",
      "logs": [
        {
          "address": "0xad473eaa51821c915d03d9db5349a0586d55e55e",
          "topics": [
            "0x36e13ba1e45df3ecb8f6beb6274a1f5d4abf4c0792bb56700354f0d50bf0acd7",
            "0x0000000000000000000000000000000000000000000000000000000000000009",
            "0x000000000000000000000000e403f79171b7050c78479f52e49e753d43e72c1a"
          ],
          "data": "0xe8773807ffd17108aa2d132cec684352f2c5c8337ff4659cc010d15b0551847d0000000000000000000000000000000000000000000000000000000000000001000000000000000000000000000000000000000000000000000000000000006000000000000000000000000000000000000000000000000000000000000000043424000000000000000000000000000000000000000000000000000000000000",
          "blockHash": "0x92b23d554935a79d1b6ac57d30b0d5abfca10e105f33dd0c77e1aae0170705cc",
          "blockNumber": "0x2619662",
          "blockTimestamp": "0x694d89a7",
          "transactionHash": "0x578d0ed5f7ba2b1aaf1b71d43d88a377815fbab4ce297a2ffc39c697cb41cf3a",
          "transactionIndex": "0x11c",
          "logIndex": "0x5e8",
          "removed": false
        },
        {
          "address": "0xad473eaa51821c915d03d9db5349a0586d55e55e",
          "topics": [
            "0x36e13ba1e45df3ecb8f6beb6274a1f5d4abf4c0792bb56700354f0d50bf0acd7",
            "0x0000000000000000000000000000000000000000000000000000000000000009",
            "0x000000000000000000000000ad473eaa51821c915d03d9db5349a0586d55e55e"
          ],
          "data": "0xf4bb36a023d03b095a88119a20a9000a252aea11d80408b3bd0c6bade87b4ba70000000000000000000000000000000000000000000000000000000000000002000000000000000000000000000000000000000000000000000000000000006000000000000000000000000000000000000000000000000000000000000000043424000000000000000000000000000000000000000000000000000000000000",
          "blockHash": "0x92b23d554935a79d1b6ac57d30b0d5abfca10e105f33dd0c77e1aae0170705cc",
          "blockNumber": "0x2619662",
          "blockTimestamp": "0x694d89a7",
          "transactionHash": "0x578d0ed5f7ba2b1aaf1b71d43d88a377815fbab4ce297a2ffc39c697cb41cf3a",
          "transactionIndex": "0x11c",
          "logIndex": "0x5e9",
          "removed": false
        }
      ],
      "logsBloom": "0x00000000000000000000000000000000000000000000000000000000000400000000000000000000000000000000000000000000000000000000000000200000000000000000000000000000000000000000000010000000000000000000000000000000000000000000000000000040000000000400000000000000000000000000000000000000000000000200000000001000000000040002000000000000000004000000000000000000000000000000000000000000000000004000000000000000000000000000000000400000000000000000000000000000000800000000000000000000000000000000000000000000000000800000000000800000",
      "type": "0x2",
      "transactionHash": "0x578d0ed5f7ba2b1aaf1b71d43d88a377815fbab4ce297a2ffc39c697cb41cf3a",
      "transactionIndex": "0x11c",
      "blockHash": "0x92b23d554935a79d1b6ac57d30b0d5abfca10e105f33dd0c77e1aae0170705cc",
      "blockNumber": "0x2619662",
      "gasUsed": "0x11617",
      "effectiveGasPrice": "0x16e360",
      "blobGasUsed": "0x8a61",
      "from": "0xe403f79171b7050c78479f52e49e753d43e72c1a",
      "to": "0xad473eaa51821c915d03d9db5349a0586d55e55e",
      "contractAddress": null,
      "daFootprintGasScalar": "0x145",
      "l1BaseFeeScalar": "0x8dd",
      "l1BlobBaseFee": "0x18188c",
      "l1BlobBaseFeeScalar": "0x101c12",
      "l1Fee": "0x112ce951",
      "l1GasPrice": "0x193bcc9",
      "l1GasUsed": "0x6da"
    },
    {
      "status": "0x1",
      "cumulativeGasUsed": "0x4a2351b",
      "logs": [
        {
          "address": "0xad473eaa51821c915d03d9db5349a0586d55e55e",
          "topics": [
            "0x36e13ba1e45df3ecb8f6beb6274a1f5d4abf4c0792bb56700354f0d50bf0acd7",
            "0x0000000000000000000000000000000000000000000000000000000000000009",
            "0x000000000000000000000000e403f79171b7050c78479f52e49e753d43e72c1a"
          ],
          "data": "0x0692c63251d62c8f04eed454cc75e5bc199ba842e6b8106095e5d806a5e48cfa0000000000000000000000000000000000000000000000000000000000000003000000000000000000000000000000000000000000000000000000000000006000000000000000000000000000000000000000000000000000000000000000043323000000000000000000000000000000000000000000000000000000000000",
          "blockHash": "0x2f7a0b8c768c1bdc15a0cdfbf8cfb4a006bcb087d6e6a1b47961d4acc39fe89d",
          "blockNumber": "0x2619662",
          "blockTimestamp": "0x694d89a7",
          "transactionHash": "0xceadc7bd3a4925415c4b4de9720c0921c1900fee6ea1a9aaee79b0b881a6b8a6",
          "transactionIndex": "0x11d",
          "logIndex": "0x5ea",
          "removed": false
        },
        {
          "address": "0xad473eaa51821c915d03d9db5349a0586d55e55e",
          "topics": [
            "0x36e13ba1e45df3ecb8f6beb6274a1f5d4abf4c0792bb56700354f0d50bf0acd7",
            "0x0000000000000000000000000000000000000000000000000000000000000009",
            "0x000000000000000000000000ad473eaa51821c915d03d9db5349a0586d55e55e"
          ],
          "data": "0x80db663b91d50261d3b6cf7c40f14617bc570551fdc50ae5d379aac6ea1fb5d50000000000000000000000000000000000000000000000000000000000000004000000000000000000000000000000000000000000000000000000000000006000000000000000000000000000000000000000000000000000000000000000043d0c000000000000000000000000000000000000000000000000000000000000",
          "blockHash": "0x2f7a0b8c768c1bdc15a0cdfbf8cfb4a006bcb087d6e6a1b47961d4acc39fe89d",
          "blockNumber": "0x2619662",
          "blockTimestamp": "0x694d89a7",
          "transactionHash": "0xceadc7bd3a4925415c4b4de9720c0921c1900fee6ea1a9aaee79b0b881a6b8a6",
          "transactionIndex": "0x11d",
          "logIndex": "0x5eb",
          "removed": false
        }
      ],
      "logsBloom": "0x00000000000000000000000000000000000000000000000000000000000400000000000000000000000000000000000000000000000000000000000000200000000000000000000000000000000000000000000010000000000000000000000000000000000000000000000000000040000000000400000000000000000000000000000000000000000000000200000000001000000000040002000000000000000004000000000000000000000000000000000000000000000000004000000000000000000000000000000000400000000000000000000000000000000800000000000000000000000000000000000000000000000000800000000000800000",
      "type": "0x2",
      "transactionHash": "0xceadc7bd3a4925415c4b4de9720c0921c1900fee6ea1a9aaee79b0b881a6b8a6",
      "transactionIndex": "0x11d",
      "blockHash": "0x2f7a0b8c768c1bdc15a0cdfbf8cfb4a006bcb087d6e6a1b47961d4acc39fe89d",
      "blockNumber": "0x2619662",
      "gasUsed": "0xd3f5",
      "effectiveGasPrice": "0x16e360",
      "blobGasUsed": "0x8a61",
      "from": "0xe403f79171b7050c78479f52e49e753d43e72c1a",
      "to": "0xad473eaa51821c915d03d9db5349a0586d55e55e",
      "contractAddress": null,
      "daFootprintGasScalar": "0x145",
      "l1BaseFeeScalar": "0x8dd",
      "l1BlobBaseFee": "0x18188c",
      "l1BlobBaseFeeScalar": "0x101c12",
      "l1Fee": "0x3f6ce05f",
      "l1GasPrice": "0x193bcc9",
      "l1GasUsed": "0x6da"
    },
    {
      "status": "0x1",
      "cumulativeGasUsed": "0x4a30910",
      "logs": [
        {
          "address": "0xad473eaa51821c915d03d9db5349a0586d55e55e",
          "topics": [
            "0x36e13ba1e45df3ecb8f6beb6274a1f5d4abf4c0792bb56700354f0d50bf0acd7",
            "0x0000000000000000000000000000000000000000000000000000000000000009",
            "0x000000000000000000000000e403f79171b7050c78479f52e49e753d43e72c1a"
          ],
          "data": "0x4442d021ec118fea7ce3641d3375363801af2e92adb1272f726cf20292795a62000000000000000000000000000000000000000000000000000000000000000500000000000000000000000000000000000000000000000000000000000000600000000000000000000000000000000000000000000000000000000000000004392a000000000000000000000000000000000000000000000000000000000000",
          "blockHash": "0x92b23d554935a79d1b6ac57d30b0d5abfca10e105f33dd0c77e1aae0170705cc",
          "blockNumber": "0x2619662",
          "blockTimestamp": "0x694d89a7",
          "transactionHash": "0x8b251eeb02a267c1c898142b8bdf05ab5439eec1936dfd3b09da5c20543d5c5a",
          "transactionIndex": "0x11e",
          "logIndex": "0x5ec",
          "removed": false
        },
        {
          "address": "0xad473eaa51821c915d03d9db5349a0586d55e55e",
          "topics": [
            "0x36e13ba1e45df3ecb8f6beb6274a1f5d4abf4c0792bb56700354f0d50bf0acd7",
            "0x0000000000000000000000000000000000000000000000000000000000000009",
            "0x000000000000000000000000ad473eaa51821c915d03d9db5349a0586d55e55e"
          ],
          "data": "0xe131cca08afe30756df90d03f27be0045be7f7a0d73031afbdf14f8a193cb8e6000000000000000000000000000000000000000000000000000000000000000600000000000000000000000000000000000000000000000000000000000000600000000000000000000000000000000000000000000000000000000000000004271a000000000000000000000000000000000000000000000000000000000000",
          "blockHash": "0x92b23d554935a79d1b6ac57d30b0d5abfca10e105f33dd0c77e1aae0170705cc",
          "blockNumber": "0x2619662",
          "blockTimestamp": "0x694d89a7",
          "transactionHash": "0x8b251eeb02a267c1c898142b8bdf05ab5439eec1936dfd3b09da5c20543d5c5a",
          "transactionIndex": "0x11e",
          "logIndex": "0x5ed",
          "removed": false
        }
      ],
      "logsBloom": "0x00000000000000000000000000000000000000000000000000000000000400000000000000000000000000000000000000000000000000000000000000200000000000000000000000000000000000000000000010000000000000000000000000000000000000000000000000000040000000000400000000000000000000000000000000000000000000000200000000001000000000040002000000000000000004000000000000000000000000000000000000000000000000004000000000000000000000000000000000400000000000000000000000000000000800000000000000000000000000000000000000000000000000800000000000800000",
      "type": "0x2",
      "transactionHash": "0x8b251eeb02a267c1c898142b8bdf05ab5439eec1936dfd3b09da5c20543d5c5a",
      "transactionIndex": "0x11e",
      "blockHash": "0x92b23d554935a79d1b6ac57d30b0d5abfca10e105f33dd0c77e1aae0170705cc",
      "blockNumber": "0x2619662",
      "gasUsed": "0xd3f5",
      "effectiveGasPrice": "0x16e360",
      "blobGasUsed": "0x8a61",
      "from": "0xe403f79171b7050c78479f52e49e753d43e72c1a",
      "to": "0xad473eaa51821c915d03d9db5349a0586d55e55e",
      "contractAddress": null,
      "daFootprintGasScalar": "0x145",
      "l1BaseFeeScalar": "0x8dd",
      "l1BlobBaseFee": "0x18188c",
      "l1BlobBaseFeeScalar": "0x101c12",
      "l1Fee": "0x112ce951",
      "l1GasPrice": "0x193bcc9",
      "l1GasUsed": "0x6da"
    },
    {
      "status": "0x1",
      "cumulativeGasUsed": "0x4a3dd05",
      "logs": [
        {
          "address": "0xad473eaa51821c915d03d9db5349a0586d55e55e",
          "topics": [
            "0x36e13ba1e45df3ecb8f6beb6274a1f5d4abf4c0792bb56700354f0d50bf0acd7",
            "0x0000000000000000000000000000000000000000000000000000000000000009",
            "0x000000000000000000000000e403f79171b7050c78479f52e49e753d43e72c1a"
          ],
          "data": "0xc7183fc0754b5e7da3b74bf364f8affe59ffdf73627f9b8e7d4991d4453bd3640000000000000000000000000000000000000000000000000000000000000007000000000000000000000000000000000000000000000000000000000000006000000000000000000000000000000000000000000000000000000000000000043b2c000000000000000000000000000000000000000000000000000000000000",
          "blockHash": "0x2f7a0b8c768c1bdc15a0cdfbf8cfb4a006bcb087d6e6a1b47961d4acc39fe89d",
          "blockNumber": "0x2619662",
          "blockTimestamp": "0x694d89a7",
          "transactionHash": "0x08cfb216a55ab3a5905849944ce37c985a47e125c8430695d1ec94e72daa40ce",
          "transactionIndex": "0x11f",
          "logIndex": "0x5ee",
          "removed": false
        },
        {
          "address": "0xad473eaa51821c915d03d9db5349a0586d55e55e",
          "topics": [
            "0x36e13ba1e45df3ecb8f6beb6274a1f5d4abf4c0792bb56700354f0d50bf0acd7",
            "0x0000000000000000000000000000000000000000000000000000000000000009",
            "0x000000000000000000000000ad473eaa51821c915d03d9db5349a0586d55e55e"
          ],
          "data": "0xfa672e07d673b2d218b92d8ee0e059b5d1bfc274c1d1aaf67086a3dbe5f1587f0000000000000000000000000000000000000000000000000000000000000008000000000000000000000000000000000000000000000000000000000000006000000000000000000000000000000000000000000000000000000000000000042b13000000000000000000000000000000000000000000000000000000000000",
          "blockHash": "0x2f7a0b8c768c1bdc15a0cdfbf8cfb4a006bcb087d6e6a1b47961d4acc39fe89d",
          "blockNumber": "0x2619662",
          "blockTimestamp": "0x694d89a7",
          "transactionHash": "0x08cfb216a55ab3a5905849944ce37c985a47e125c8430695d1ec94e72daa40ce",
          "transactionIndex": "0x11f",
          "logIndex": "0x5ef",
          "removed": false
        }
      ],
      "logsBloom": "0x00000000000000000000000000000000000000000000000000000000000400000000000000000000000000000000000000000000000000000000000000200000000000000000000000000000000000000000000010000000000000000000000000000000000000000000000000000040000000000400000000000000000000000000000000000000000000000200000000001000000000040002000000000000000004000000000000000000000000000000000000000000000000004000000000000000000000000000000000400000000000000000000000000000000800000000000000000000000000000000000000000000000000800000000000800000",
      "type": "0x2",
      "transactionHash": "0x08cfb216a55ab3a5905849944ce37c985a47e125c8430695d1ec94e72daa40ce",
      "transactionIndex": "0x11f",
      "blockHash": "0x2f7a0b8c768c1bdc15a0cdfbf8cfb4a006bcb087d6e6a1b47961d4acc39fe89d",
      "blockNumber": "0x2619662",
      "gasUsed": "0xd3f5",
      "effectiveGasPrice": "0x16e360",
      "blobGasUsed": "0x8a61",
      "from": "0xe403f79171b7050c78479f52e49e753d43e72c1a",
      "to": "0xad473eaa51821c915d03d9db5349a0586d55e55e",
      "contractAddress": null,
      "daFootprintGasScalar": "0x145",
      "l1BaseFeeScalar": "0x8dd",
      "l1BlobBaseFee": "0x18188c",
      "l1BlobBaseFeeScalar": "0x101c12",
      "l1Fee": "0x3f6ce05f",
      "l1GasPrice": "0x193bcc9",
      "l1GasUsed": "0x6da"
    },
    {
      "status": "0x1",
      "cumulativeGasUsed": "0x4a4f310",
      "logs": [
        {
          "address": "0xad473eaa51821c915d03d9db5349a0586d55e55e",
          "topics": [
            "0x36e13ba1e45df3ecb8f6beb6274a1f5d4abf4c0792bb56700354f0d50bf0acd7",
            "0x000000000000000000000000000000000000000000000000000000000000000a",
            "0x000000000000000000000000e403f79171b7050c78479f52e49e753d43e72c1a"
          ],
          "data": "0x90e396633e67bfb131a9c9b400ea842e0f29f45c4bc7872a0e80af48deb785040000000000000000000000000000000000000000000000000000000000000001000000000000000000000000000000000000000000000000000000000000006000000000000000000000000000000000000000000000000000000000000000043028000000000000000000000000000000000000000000000000000000000000",
          "blockHash": "0x92b23d554935a79d1b6ac57d30b0d5abfca10e105f33dd0c77e1aae0170705cc",
          "blockNumber": "0x2619662",
          "blockTimestamp": "0x694d89a7",
          "transactionHash": "0x12e8cd9f020fd62a4266392af457c9bdf78b3abb5a17ce6101352ef188a5005f",
          "transactionIndex": "0x120",
          "logIndex": "0x5f0",
          "removed": false
        },
        {
          "address": "0xad473eaa51821c915d03d9db5349a0586d55e55e",
          "topics": [
            "0x36e13ba1e45df3ecb8f6beb6274a1f5d4abf4c0792bb56700354f0d50bf0acd7",
            "0x000000000000000000000000000000000000000000000000000000000000000a",
            "0x000000000000000000000000ad473eaa51821c915d03d9db5349a0586d55e55e"
          ],
          "data": "0x60e65b9330f95689004881ceb0c70271140d7a6c66037940d345a33188c341c30000000000000000000000000000000000000000000000000000000000000002000000000000000000000000000000000000000000000000000000000000006000000000000000000000000000000000000000000000000000000000000000043424000000000000000000000000000000000000000000000000000000000000",
          "blockHash": "0x92b23d554935a79d1b6ac57d30b0d5abfca10e105f33dd0c77e1aae0170705cc",
          "blockNumber": "0x2619662",
          "blockTimestamp": "0x694d89a7",
          "transactionHash": "0x12e8cd9f020fd62a4266392af457c9bdf78b3abb5a17ce6101352ef188a5005f",
          "transactionIndex": "0x120",
          "logIndex": "0x5f1",
          "removed": false
        }
      ],
      "logsBloom": "0x00000000000000000000000000000000000000000000000000000000000400000000000000000000000000000000000000000000040000000020000000000000000000000000000000000000000000000000000010000000000000000000000000000000000000000000000000000040000000000400000000000000000000000000000000000000010000000200000000000000000000040002000000000000000004000000000000000000000000000000000000000000000000004000000000000000000000000000000000400000000000000000000000000000000800000000000000000000000000000000000000000000000000800000000000000000",
      "type": "0x2",
      "transactionHash": "0x12e8cd9f020fd62a4266392af457c9bdf78b3abb5a17ce6101352ef188a5005f",
      "transactionIndex": "0x120",
      "blockHash": "0x92b23d554935a79d1b6ac57d30b0d5abfca10e105f33dd0c77e1aae0170705cc",
      "blockNumber": "0x2619662",
      "gasUsed": "0x1160b",
      "effectiveGasPrice": "0x16e360",
      "blobGasUsed": "0x8a61",
      "from": "0xe403f79171b7050c78479f52e49e753d43e72c1a",
      "to": "0xad473eaa51821c915d03d9db5349a0586d55e55e",
      "contractAddress": null,
      "daFootprintGasScalar": "0x145",
      "l1BaseFeeScalar": "0x8dd",
      "l1BlobBaseFee": "0x18188c",
      "l1BlobBaseFeeScalar": "0x101c12",
      "l1Fee": "0x112ce951",
      "l1GasPrice": "0x193bcc9",
      "l1GasUsed": "0x6da"
    },
    {
      "status": "0x1",
      "cumulativeGasUsed": "0x4a5c705",
      "logs": [
        {
          "address": "0xad473eaa51821c915d03d9db5349a0586d55e55e",
          "topics": [
            "0x36e13ba1e45df3ecb8f6beb6274a1f5d4abf4c0792bb56700354f0d50bf0acd7",
            "0x000000000000000000000000000000000000000000000000000000000000000a",
            "0x000000000000000000000000e403f79171b7050c78479f52e49e753d43e72c1a"
          ],
          "data": "0xfc6cc8976638831fc84ceab234894f532e0338e7268a3303d4c0c1939f85dbb90000000000000000000000000000000000000000000000000000000000000003000000000000000000000000000000000000000000000000000000000000006000000000000000000000000000000000000000000000000000000000000000043222000000000000000000000000000000000000000000000000000000000000",
          "blockHash": "0x2f7a0b8c768c1bdc15a0cdfbf8cfb4a006bcb087d6e6a1b47961d4acc39fe89d",
          "blockNumber": "0x2619662",
          "blockTimestamp": "0x694d89a7",
          "transactionHash": "0xd39e4049c0249ca13f8cf73e9ad214f077d936703d9842c420e9d50448a404b2",
          "transactionIndex": "0x121",
          "logIndex": "0x5f2",
          "removed": false
        },
        {
          "address": "0xad473eaa51821c915d03d9db5349a0586d55e55e",
          "topics": [
            "0x36e13ba1e45df3ecb8f6beb6274a1f5d4abf4c0792bb56700354f0d50bf0acd7",
            "0x000000000000000000000000000000000000000000000000000000000000000a",
            "0x000000000000000000000000ad473eaa51821c915d03d9db5349a0586d55e55e"
          ],
          "data": "0x0192d1e4a25acce6e7a2d4e8900eba6030b412ccc2d92d174c541b9d6055ff390000000000000000000000000000000000000000000000000000000000000004000000000000000000000000000000000000000000000000000000000000006000000000000000000000000000000000000000000000000000000000000000043c1b000000000000000000000000000000000000000000000000000000000000",
          "blockHash": "0x2f7a0b8c768c1bdc15a0cdfbf8cfb4a006bcb087d6e6a1b47961d4acc39fe89d",
          "blockNumber": "0x2619662",
          "blockTimestamp": "0x694d89a7",
          "transactionHash": "0xd39e4049c0249ca13f8cf73e9ad214f077d936703d9842c420e9d50448a404b2",
          "transactionIndex": "0x121",
          "logIndex": "0x5f3",
          "removed": false
        }
      ],
      "logsBloom": "0x00000000000000000000000000000000000000000000000000000000000400000000000000000000000000000000000000000000040000000020000000000000000000000000000000000000000000000000000010000000000000000000000000000000000000000000000000000040000000000400000000000000000000000000000000000000010000000200000000000000000000040002000000000000000004000000000000000000000000000000000000000000000000004000000000000000000000000000000000400000000000000000000000000000000800000000000000000000000000000000000000000000000000800000000000000000",
      "type": "0x2",
      "transactionHash": "0xd39e4049c0249ca13f8cf73e9ad214f077d936703d9842c420e9d50448a404b2",
      "transactionIndex": "0x121",
      "blockHash": "0x2f7a0b8c768c1bdc15a0cdfbf8cfb4a006bcb087d6e6a1b47961d4acc39fe89d",
      "blockNumber": "0x2619662",
      "gasUsed": "0xd3f5",
      "effectiveGasPrice": "0x16e360",
      "blobGasUsed": "0x8a61",
      "from": "0xe403f79171b7050c78479f52e49e753d43e72c1a",
      "to": "0xad473eaa51821c915d03d9db5349a0586d55e55e",
      "contractAddress": null,
      "daFootprintGasScalar": "0x145",
      "l1BaseFeeScalar": "0x8dd",
      "l1BlobBaseFee": "0x18188c",
      "l1BlobBaseFeeScalar": "0x101c12",
      "l1Fee": "0x3f6ce05f",
      "l1GasPrice": "0x193bcc9",
      "l1GasUsed": "0x6da"
    },
    {
      "status": "0x1",
      "cumulativeGasUsed": "0x862f85",
      "logs": [
        {
          "address": "0xad473eaa51821c915d03d9db5349a0586d55e55e",
          "topics": [
            "0x36e13ba1e45df3ecb8f6beb6274a1f5d4abf4c0792bb56700354f0d50bf0acd7",
            "0x000000000000000000000000000000000000000000000000000000000000000a",
            "0x000000000000000000000000e403f79171b7050c78479f52e49e753d43e72c1a"
          ],
          "data": "0xbb9afb9861b8290cda948e4af3b636449a44547dca4c3acbc45e65f4e22aab400000000000000000000000000000000000000000000000000000000000000005000000000000000000000000000000000000000000000000000000000000006000000000000000000000000000000000000000000000000000000000000000043129000000000000000000000000000000000000000000000000000000000000",
          "blockHash": "0xf733181b107e8c2b39bae7e13cc3f48ebee1a25ee3441344f40287e12d6c683d",
          "blockNumber": "0x2619663",
          "blockTimestamp": "0x694d89a9",
          "transactionHash": "0x79785363444f24cd085daea7b396cd847e5d38b70bed3312c387a074ee628ae9",
          "transactionIndex": "0x3a",
          "logIndex": "0xab",
          "removed": false
        },
        {
          "address": "0xad473eaa51821c915d03d9db5349a0586d55e55e",
          "topics": [
            "0x36e13ba1e45df3ecb8f6beb6274a1f5d4abf4c0792bb56700354f0d50bf0acd7",
            "0x000000000000000000000000000000000000000000000000000000000000000a",
            "0x000000000000000000000000ad473eaa51821c915d03d9db5349a0586d55e55e"
          ],
          "data": "0x2760255e5f8c0d33599f68866f7b7bdd30ba831d73410b4548d9b6c2e2478d1c000000000000000000000000000000000000000000000000000000000000000600000000000000000000000000000000000000000000000000000000000000600000000000000000000000000000000000000000000000000000000000000004052b000000000000000000000000000000000000000000000000000000000000",
          "blockHash": "0xf733181b107e8c2b39bae7e13cc3f48ebee1a25ee3441344f40287e12d6c683d",
          "blockNumber": "0x2619663",
          "blockTimestamp": "0x694d89a9",
          "transactionHash": "0x79785363444f24cd085daea7b396cd847e5d38b70bed3312c387a074ee628ae9",
          "transactionIndex": "0x3a",
          "logIndex": "0xac",
          "removed": false
        }
      ],
      "logsBloom": "0x00000000000000000000000000000000000000000000000000000000000400000000000000000000000000000000000000000000040000000020000000000000000000000000000000000000000000000000000010000000000000000000000000000000000000000000000000000040000000000400000000000000000000000000000000000000010000000200000000000000000000040002000000000000000004000000000000000000000000000000000000000000000000004000000000000000000000000000000000400000000000000000000000000000000800000000000000000000000000000000000000000000000000800000000000000000",
      "type": "0x2",
      "transactionHash": "0x79785363444f24cd085daea7b396cd847e5d38b70bed3312c387a074ee628ae9",
      "transactionIndex": "0x3a",
      "blockHash": "0xf733181b107e8c2b39bae7e13cc3f48ebee1a25ee3441344f40287e12d6c683d",
      "blockNumber": "0x2619663",
      "gasUsed": "0xdee5",
      "effectiveGasPrice": "0x16f284",
      "blobGasUsed": "0x8a61",
      "from": "0xe403f79171b7050c78479f52e49e753d43e72c1a",
      "to": "0xad473eaa51821c915d03d9db5349a0586d55e55e",
      "contractAddress": null,
      "daFootprintGasScalar": "0x145",
      "l1BaseFeeScalar": "0x8dd",
      "l1BlobBaseFee": "0x18188c",
      "l1BlobBaseFeeScalar": "0x101c12",
      "l1Fee": "0xfa9ae36",
      "l1GasPrice": "0x193bcc9",
      "l1GasUsed": "0x6da"
    },
    {
      "status": "0x1",
      "cumulativeGasUsed": "0x87037a",
      "logs": [
        {
          "address": "0xad473eaa51821c915d03d9db5349a0586d55e55e",
          "topics": [
            "0x36e13ba1e45df3ecb8f6beb6274a1f5d4abf4c0792bb56700354f0d50bf0acd7",
            "0x000000000000000000000000000000000000000000000000000000000000000a",
            "0x000000000000000000000000e403f79171b7050c78479f52e49e753d43e72c1a"
          ],
          "data": "0x2a4b22ea265f7017c3f5040f1eec7d58baac29eda24dc699336157972973d8e10000000000000000000000000000000000000000000000000000000000000007000000000000000000000000000000000000000000000000000000000000006000000000000000000000000000000000000000000000000000000000000000043a2b000000000000000000000000000000000000000000000000000000000000",
          "blockHash": "0xf733181b107e8c2b39bae7e13cc3f48ebee1a25ee3441344f40287e12d6c683d",
          "blockNumber": "0x2619663",
          "blockTimestamp": "0x694d89a9",
          "transactionHash": "0xa576054de2b75b10eda4056646dbf72bf8b4b63b188600a86611f4b3b0474521",
          "transactionIndex": "0x3b",
          "logIndex": "0xad",
          "removed": false
        },
        {
          "address": "0xad473eaa51821c915d03d9db5349a0586d55e55e",
          "topics": [
            "0x36e13ba1e45df3ecb8f6beb6274a1f5d4abf4c0792bb56700354f0d50bf0acd7",
            "0x000000000000000000000000000000000000000000000000000000000000000a",
            "0x000000000000000000000000ad473eaa51821c915d03d9db5349a0586d55e55e"
          ],
          "data": "0x55f26890947882f1207e2a875a0d392857a077e9af9ea320f39541f65d9244dd0000000000000000000000000000000000000000000000000000000000000008000000000000000000000000000000000000000000000000000000000000006000000000000000000000000000000000000000000000000000000000000000042818000000000000000000000000000000000000000000000000000000000000",
          "blockHash": "0xf733181b107e8c2b39bae7e13cc3f48ebee1a25ee3441344f40287e12d6c683d",
          "blockNumber": "0x2619663",
          "blockTimestamp": "0x694d89a9",
          "transactionHash": "0xa576054de2b75b10eda4056646dbf72bf8b4b63b188600a86611f4b3b0474521",
          "transactionIndex": "0x3b",
          "logIndex": "0xae",
          "removed": false
        }
      ],
      "logsBloom": "0x00000000000000000000000000000000000000000000000000000000000400000000000000000000000000000000000000000000040000000020000000000000000000000000000000000000000000000000000010000000000000000000000000000000000000000000000000000040000000000400000000000000000000000000000000000000010000000200000000000000000000040002000000000000000004000000000000000000000000000000000000000000000000004000000000000000000000000000000000400000000000000000000000000000000800000000000000000000000000000000000000000000000000800000000000000000",
      "type": "0x2",
      "transactionHash": "0xa576054de2b75b10eda4056646dbf72bf8b4b63b188600a86611f4b3b0474521",
      "transactionIndex": "0x3b",
      "blockHash": "0xf733181b107e8c2b39bae7e13cc3f48ebee1a25ee3441344f40287e12d6c683d",
      "blockNumber": "0x2619663",
      "gasUsed": "0xd3f5",
      "effectiveGasPrice": "0x16f284",
      "blobGasUsed": "0x8a61",
      "from": "0xe403f79171b7050c78479f52e49e753d43e72c1a",
      "to": "0xad473eaa51821c915d03d9db5349a0586d55e55e",
      "contractAddress": null,
      "daFootprintGasScalar": "0x145",
      "l1BaseFeeScalar": "0x8dd",
      "l1BlobBaseFee": "0x18188c",
      "l1BlobBaseFeeScalar": "0x101c12",
      "l1Fee": "0xfa9ae36",
      "l1GasPrice": "0x193bcc9",
      "l1GasUsed": "0x6da"
    },
    {
      "status": "0x1",
      "cumulativeGasUsed": "0x88ee0d",
      "logs": [
        {
          "address": "0xad473eaa51821c915d03d9db5349a0586d55e55e",
          "topics": [
            "0x36e13ba1e45df3ecb8f6beb6274a1f5d4abf4c0792bb56700354f0d50bf0acd7",
            "0x000000000000000000000000000000000000000000000000000000000000000b",
            "0x000000000000000000000000e403f79171b7050c78479f52e49e753d43e72c1a"
          ],
          "data": "0xe8773807ffd17108aa2d132cec684352f2c5c8337ff4659cc010d15b0551847d0000000000000000000000000000000000000000000000000000000000000001000000000000000000000000000000000000000000000000000000000000006000000000000000000000000000000000000000000000000000000000000000043424000000000000000000000000000000000000000000000000000000000000",
          "blockHash": "0xf733181b107e8c2b39bae7e13cc3f48ebee1a25ee3441344f40287e12d6c683d",
          "blockNumber": "0x2619663",
          "blockTimestamp": "0x694d89a9",
          "transactionHash": "0xf395bc4906f0ec27ed98452caa3a2a8793fb429c5841e83c8f2daa49345d8511",
          "transactionIndex": "0x3d",
          "logIndex": "0xaf",
          "removed": false
        },
        {
          "address": "0xad473eaa51821c915d03d9db5349a0586d55e55e",
          "topics": [
            "0x36e13ba1e45df3ecb8f6beb6274a1f5d4abf4c0792bb56700354f0d50bf0acd7",
            "0x000000000000000000000000000000000000000000000000000000000000000b",
            "0x000000000000000000000000ad473eaa51821c915d03d9db5349a0586d55e55e"
          ],
          "data": "0xf4bb36a023d03b095a88119a20a9000a252aea11d80408b3bd0c6bade87b4ba70000000000000000000000000000000000000000000000000000000000000002000000000000000000000000000000000000000000000000000000000000006000000000000000000000000000000000000000000000000000000000000000043424000000000000000000000000000000000000000000000000000000000000",
          "blockHash": "0xf733181b107e8c2b39bae7e13cc3f48ebee1a25ee3441344f40287e12d6c683d",
          "blockNumber": "0x2619663",
          "blockTimestamp": "0x694d89a9",
          "transactionHash": "0xf395bc4906f0ec27ed98452caa3a2a8793fb429c5841e83c8f2daa49345d8511",
          "transactionIndex": "0x3d",
          "logIndex": "0xb0",
          "removed": false
        }
      ],
      "logsBloom": "0x00000000000000000000004000000000000000000000000000000000000400000000000000000000000000000000000000000000000000000000000000000000000000000000000000000000000000000000000010000000000000000000000000000000000000000000000000000040000000000400000000000000000000000000000000000000000000000200000000000000000000040002000000000000000004000000000000000000000000000000000000000000000000004000000000000000000000000000000000400000002000000000000000000000000800000000000000000000000000000000000000000000000000840000000000000000",
      "type": "0x2",
      "transactionHash": "0xf395bc4906f0ec27ed98452caa3a2a8793fb429c5841e83c8f2daa49345d8511",
      "transactionIndex": "0x3d",
      "blockHash": "0xf733181b107e8c2b39bae7e13cc3f48ebee1a25ee3441344f40287e12d6c683d",
      "blockNumber": "0x2619663",
      "gasUsed": "0x12107",
      "effectiveGasPrice": "0x16f284",
      "blobGasUsed": "0x8a61",
      "from": "0xe403f79171b7050c78479f52e49e753d43e72c1a",
      "to": "0xad473eaa51821c915d03d9db5349a0586d55e55e",
      "contractAddress": null,
      "daFootprintGasScalar": "0x145",
      "l1BaseFeeScalar": "0x8dd",
      "l1BlobBaseFee": "0x18188c",
      "l1BlobBaseFeeScalar": "0x101c12",
      "l1Fee": "0xfa9ae36",
      "l1GasPrice": "0x193bcc9",
      "l1GasUsed": "0x6da"
    },
    {
      "status": "0x1",
      "cumulativeGasUsed": "0x89c202",
      "logs": [
        {
          "address": "0xad473eaa51821c915d03d9db5349a0586d55e55e",
          "topics": [
            "0x36e13ba1e45df3ecb8f6beb6274a1f5d4abf4c0792bb56700354f0d50bf0acd7",
            "0x000000000000000000000000000000000000000000000000000000000000000b",
            "0x000000000000000000000000e403f79171b7050c78479f52e49e753d43e72c1a"
          ],
          "data": "0x0692c63251d62c8f04eed454cc75e5bc199ba842e6b8106095e5d806a5e48cfa0000000000000000000000000000000000000000000000000000000000000003000000000000000000000000000000000000000000000000000000000000006000000000000000000000000000000000000000000000000000000000000000043323000000000000000000000000000000000000000000000000000000000000",
          "blockHash": "0x5cfb7f7b9474cdd5ca8c5d3737b5bcb5fe208933b82a4fba65db30ba6b7841e7",
          "blockNumber": "0x2619663",
          "blockTimestamp": "0x694d89a9",
          "transactionHash": "0x24c652a942bf185ba46eb0cbe84bc75341482b366d6be6125c8b72b78b5a13d6",
          "transactionIndex": "0x3e",
          "logIndex": "0xb1",
          "removed": false
        },
        {
          "address": "0xad473eaa51821c915d03d9db5349a0586d55e55e",
          "topics": [
            "0x36e13ba1e45df3ecb8f6beb6274a1f5d4abf4c0792bb56700354f0d50bf0acd7",
            "0x000000000000000000000000000000000000000000000000000000000000000b",
            "0x000000000000000000000000ad473eaa51821c915d03d9db5349a0586d55e55e"
          ],
          "data": "0x80db663b91d50261d3b6cf7c40f14617bc570551fdc50ae5d379aac6ea1fb5d50000000000000000000000000000000000000000000000000000000000000004000000000000000000000000000000000000000000000000000000000000006000000000000000000000000000000000000000000000000000000000000000043d0c000000000000000000000000000000000000000000000000000000000000",
          "blockHash": "0x5cfb7f7b9474cdd5ca8c5d3737b5bcb5fe208933b82a4fba65db30ba6b7841e7",
          "blockNumber": "0x2619663",
          "blockTimestamp": "0x694d89a9",
          "transactionHash": "0x24c652a942bf185ba46eb0cbe84bc75341482b366d6be6125c8b72b78b5a13d6",
          "transactionIndex": "0x3e",
          "logIndex": "0xb2",
          "removed": false
        }
      ],
      "logsBloom": "0x00000000000000000000004000000000000000000000000000000000000400000000000000000000000000000000000000000000000000000000000000000000000000000000000000000000000000000000000010000000000000000000000000000000000000000000000000000040000000000400000000000000000000000000000000000000000000000200000000000000000000040002000000000000000004000000000000000000000000000000000000000000000000004000000000000000000000000000000000400000002000000000000000000000000800000000000000000000000000000000000000000000000000840000000000000000",
      "type": "0x2",
      "transactionHash": "0x24c652a942bf185ba46eb0cbe84bc75341482b366d6be6125c8b72b78b5a13d6",
      "transactionIndex": "0x3e",
      "blockHash": "0x5cfb7f7b9474cdd5ca8c5d3737b5bcb5fe208933b82a4fba65db30ba6b7841e7",
      "blockNumber": "0x2619663",
      "gasUsed": "0xd3f5",
      "effectiveGasPrice": "0x16f284",
      "blobGasUsed": "0x8a61",
      "from": "0xe403f79171b7050c78479f52e49e753d43e72c1a",
      "to": "0xad473eaa51821c915d03d9db5349a0586d55e55e",
      "contractAddress": null,
      "daFootprintGasScalar": "0x145",
      "l1BaseFeeScalar": "0x8dd",
      "l1BlobBaseFee": "0x18188c",
      "l1BlobBaseFeeScalar": "0x101c12",
      "l1Fee": "0x112ce951",
      "l1GasPrice": "0x193bcc9",
      "l1GasUsed": "0x6da"
    },
    {
      "status": "0x1",
      "cumulativeGasUsed": "0x8a95f7",
      "logs": [
        {
          "address": "0xad473eaa51821c915d03d9db5349a0586d55e55e",
          "topics": [
            "0x36e13ba1e45df3ecb8f6beb6274a1f5d4abf4c0792bb56700354f0d50bf0acd7",
            "0x000000000000000000000000000000000000000000000000000000000000000b",
            "0x000000000000000000000000e403f79171b7050c78479f52e49e753d43e72c1a"
          ],
          "data": "0x4442d021ec118fea7ce3641d3375363801af2e92adb1272f726cf20292795a62000000000000000000000000000000000000000000000000000000000000000500000000000000000000000000000000000000000000000000000000000000600000000000000000000000000000000000000000000000000000000000000004392a000000000000000000000000000000000000000000000000000000000000",
          "blockHash": "0xf733181b107e8c2b39bae7e13cc3f48ebee1a25ee3441344f40287e12d6c683d",
          "blockNumber": "0x2619663",
          "blockTimestamp": "0x694d89a9",
          "transactionHash": "0xc5c29b508cae51d0e9d91cc20dd2be1cceed3966b07e47189738fa6e1f342003",
          "transactionIndex": "0x3f",
          "logIndex": "0xb3",
          "removed": false
        },
        {
          "address": "0xad473eaa51821c915d03d9db5349a0586d55e55e",
          "topics": [
            "0x36e13ba1e45df3ecb8f6beb6274a1f5d4abf4c0792bb56700354f0d50bf0acd7",
            "0x000000000000000000000000000000000000000000000000000000000000000b",
            "0x000000000000000000000000ad473eaa51821c915d03d9db5349a0586d55e55e"
          ],
          "data": "0xe131cca08afe30756df90d03f27be0045be7f7a0d73031afbdf14f8a193cb8e6000000000000000000000000000000000000000000000000000000000000000600000000000000000000000000000000000000000000000000000000000000600000000000000000000000000000000000000000000000000000000000000004271a000000000000000000000000000000000000000000000000000000000000",
          "blockHash": "0xf733181b107e8c2b39bae7e13cc3f48ebee1a25ee3441344f40287e12d6c683d",
          "blockNumber": "0x2619663",
          "blockTimestamp": "0x694d89a9",
          "transactionHash": "0xc5c29b508cae51d0e9d91cc20dd2be1cceed3966b07e47189738fa6e1f342003",
          "transactionIndex": "0x3f",
          "logIndex": "0xb4",
          "removed": false
        }
      ],
      "logsBloom": "0x00000000000000000000004000000000000000000000000000000000000400000000000000000000000000000000000000000000000000000000000000000000000000000000000000000000000000000000000010000000000000000000000000000000000000000000000000000040000000000400000000000000000000000000000000000000000000000200000000000000000000040002000000000000000004000000000000000000000000000000000000000000000000004000000000000000000000000000000000400000002000000000000000000000000800000000000000000000000000000000000000000000000000840000000000000000",
      "type": "0x2",
      "transactionHash": "0xc5c29b508cae51d0e9d91cc20dd2be1cceed3966b07e47189738fa6e1f342003",
      "transactionIndex": "0x3f",
      "blockHash": "0xf733181b107e8c2b39bae7e13cc3f48ebee1a25ee3441344f40287e12d6c683d",
      "blockNumber": "0x2619663",
      "gasUsed": "0xd3f5",
      "effectiveGasPrice": "0x16f284",
      "blobGasUsed": "0x8a61",
      "from": "0xe403f79171b7050c78479f52e49e753d43e72c1a",
      "to": "0xad473eaa51821c915d03d9db5349a0586d55e55e",
      "contractAddress": null,
      "daFootprintGasScalar": "0x145",
      "l1BaseFeeScalar": "0x8dd",
      "l1BlobBaseFee": "0x18188c",
      "l1BlobBaseFeeScalar": "0x101c12",
      "l1Fee": "0xfa9ae36",
      "l1GasPrice": "0x193bcc9",
      "l1GasUsed": "0x6da"
    },
    {
      "status": "0x1",
      "cumulativeGasUsed": "0x8b69ec",
      "logs": [
        {
          "address": "0xad473eaa51821c915d03d9db5349a0586d55e55e",
          "topics": [
            "0x36e13ba1e45df3ecb8f6beb6274a1f5d4abf4c0792bb56700354f0d50bf0acd7",
            "0x000000000000000000000000000000000000000000000000000000000000000b",
            "0x000000000000000000000000e403f79171b7050c78479f52e49e753d43e72c1a"
          ],
          "data": "0xc7183fc0754b5e7da3b74bf364f8affe59ffdf73627f9b8e7d4991d4453bd3640000000000000000000000000000000000000000000000000000000000000007000000000000000000000000000000000000000000000000000000000000006000000000000000000000000000000000000000000000000000000000000000043b2c000000000000000000000000000000000000000000000000000000000000",
          "blockHash": "0xf733181b107e8c2b39bae7e13cc3f48ebee1a25ee3441344f40287e12d6c683d",
          "blockNumber": "0x2619663",
          "blockTimestamp": "0x694d89a9",
          "transactionHash": "0x6b50aabd0c17120ae7e89ba92253b5cfca9957c1c956696ac584d29592686587",
          "transactionIndex": "0x40",
          "logIndex": "0xb5",
          "removed": false
        },
        {
          "address": "0xad473eaa51821c915d03d9db5349a0586d55e55e",
          "topics": [
            "0x36e13ba1e45df3ecb8f6beb6274a1f5d4abf4c0792bb56700354f0d50bf0acd7",
            "0x000000000000000000000000000000000000000000000000000000000000000b",
            "0x000000000000000000000000ad473eaa51821c915d03d9db5349a0586d55e55e"
          ],
          "data": "0xfa672e07d673b2d218b92d8ee0e059b5d1bfc274c1d1aaf67086a3dbe5f1587f0000000000000000000000000000000000000000000000000000000000000008000000000000000000000000000000000000000000000000000000000000006000000000000000000000000000000000000000000000000000000000000000042b13000000000000000000000000000000000000000000000000000000000000",
          "blockHash": "0xf733181b107e8c2b39bae7e13cc3f48ebee1a25ee3441344f40287e12d6c683d",
          "blockNumber": "0x2619663",
          "blockTimestamp": "0x694d89a9",
          "transactionHash": "0x6b50aabd0c17120ae7e89ba92253b5cfca9957c1c956696ac584d29592686587",
          "transactionIndex": "0x40",
          "logIndex": "0xb6",
          "removed": false
        }
      ],
      "logsBloom": "0x00000000000000000000004000000000000000000000000000000000000400000000000000000000000000000000000000000000000000000000000000000000000000000000000000000000000000000000000010000000000000000000000000000000000000000000000000000040000000000400000000000000000000000000000000000000000000000200000000000000000000040002000000000000000004000000000000000000000000000000000000000000000000004000000000000000000000000000000000400000002000000000000000000000000800000000000000000000000000000000000000000000000000840000000000000000",
      "type": "0x2",
      "transactionHash": "0x6b50aabd0c17120ae7e89ba92253b5cfca9957c1c956696ac584d29592686587",
      "transactionIndex": "0x40",
      "blockHash": "0xf733181b107e8c2b39bae7e13cc3f48ebee1a25ee3441344f40287e12d6c683d",
      "blockNumber": "0x2619663",
      "gasUsed": "0xd3f5",
      "effectiveGasPrice": "0x16f284",
      "blobGasUsed": "0x8a61",
      "from": "0xe403f79171b7050c78479f52e49e753d43e72c1a",
      "to": "0xad473eaa51821c915d03d9db5349a0586d55e55e",
      "contractAddress": null,
      "daFootprintGasScalar": "0x145",
      "l1BaseFeeScalar": "0x8dd",
      "l1BlobBaseFee": "0x18188c",
      "l1BlobBaseFeeScalar": "0x101c12",
      "l1Fee": "0xfa9ae36",
      "l1GasPrice": "0x193bcc9",
      "l1GasUsed": "0x6da"
    },
    {
      "status": "0x1",
      "cumulativeGasUsed": "0x8c8ae7",
      "logs": [
        {
          "address": "0xad473eaa51821c915d03d9db5349a0586d55e55e",
          "topics": [
            "0x36e13ba1e45df3ecb8f6beb6274a1f5d4abf4c0792bb56700354f0d50bf0acd7",
            "0x000000000000000000000000000000000000000000000000000000000000000c",
            "0x000000000000000000000000e403f79171b7050c78479f52e49e753d43e72c1a"
          ],
          "data": "0x90e396633e67bfb131a9c9b400ea842e0f29f45c4bc7872a0e80af48deb785040000000000000000000000000000000000000000000000000000000000000001000000000000000000000000000000000000000000000000000000000000006000000000000000000000000000000000000000000000000000000000000000043028000000000000000000000000000000000000000000000000000000000000",
          "blockHash": "0xf733181b107e8c2b39bae7e13cc3f48ebee1a25ee3441344f40287e12d6c683d",
          "blockNumber": "0x2619663",
          "blockTimestamp": "0x694d89a9",
          "transactionHash": "0xd2968acaee9428f1d680e4570432ab6f55e6a11339a6d382a3fc6f0c6549d5a7",
          "transactionIndex": "0x41",
          "logIndex": "0xb7",
          "removed": false
        },
        {
          "address": "0xad473eaa51821c915d03d9db5349a0586d55e55e",
          "topics": [
            "0x36e13ba1e45df3ecb8f6beb6274a1f5d4abf4c0792bb56700354f0d50bf0acd7",
            "0x000000000000000000000000000000000000000000000000000000000000000c",
            "0x000000000000000000000000ad473eaa51821c915d03d9db5349a0586d55e55e"
          ],
          "data": "0x60e65b9330f95689004881ceb0c70271140d7a6c66037940d345a33188c341c30000000000000000000000000000000000000000000000000000000000000002000000000000000000000000000000000000000000000000000000000000006000000000000000000000000000000000000000000000000000000000000000043424000000000000000000000000000000000000000000000000000000000000",
          "blockHash": "0xf733181b107e8c2b39bae7e13cc3f48ebee1a25ee3441344f40287e12d6c683d",
          "blockNumber": "0x2619663",
          "blockTimestamp": "0x694d89a9",
          "transactionHash": "0xd2968acaee9428f1d680e4570432ab6f55e6a11339a6d382a3fc6f0c6549d5a7",
          "transactionIndex": "0x41",
          "logIndex": "0xb8",
          "removed": false
        }
      ],
      "logsBloom": "0x00000000000000000000000000000000000002000000000000000000000400000000000000000200000000000000000000000000000000000000000000000000000000000000000000000000000000000000000010000000000000000000000000000000000000000000000000000040000000000400000000000000000000000000000000000000000000000200000000000000000000040002000000000000000004000000000000000000000000000000000000000000000000004000000000000000000000000000000000400000000000000000000000000000000800200000000000000000000000000000000000000000000000800000000000000000",
      "type": "0x2",
      "transactionHash": "0xd2968acaee9428f1d680e4570432ab6f55e6a11339a6d382a3fc6f0c6549d5a7",
      "transactionIndex": "0x41",
      "blockHash": "0xf733181b107e8c2b39bae7e13cc3f48ebee1a25ee3441344f40287e12d6c683d",
      "blockNumber": "0x2619663",
      "gasUsed": "0x120fb",
      "effectiveGasPrice": "0x16f284",
      "blobGasUsed": "0x8a61",
      "from": "0xe403f79171b7050c78479f52e49e753d43e72c1a",
      "to": "0xad473eaa51821c915d03d9db5349a0586d55e55e",
      "contractAddress": null,
      "daFootprintGasScalar": "0x145",
      "l1BaseFeeScalar": "0x8dd",
      "l1BlobBaseFee": "0x18188c",
      "l1BlobBaseFeeScalar": "0x101c12",
      "l1Fee": "0xfa9ae36",
      "l1GasPrice": "0x193bcc9",
      "l1GasUsed": "0x6da"
    },
    {
      "status": "0x1",
      "cumulativeGasUsed": "0x98938a",
      "logs": [
        {
          "address": "0xad473eaa51821c915d03d9db5349a0586d55e55e",
          "topics": [
            "0x36e13ba1e45df3ecb8f6beb6274a1f5d4abf4c0792bb56700354f0d50bf0acd7",
            "0x000000000000000000000000000000000000000000000000000000000000000c",
            "0x000000000000000000000000e403f79171b7050c78479f52e49e753d43e72c1a"
          ],
          "data": "0xfc6cc8976638831fc84ceab234894f532e0338e7268a3303d4c0c1939f85dbb90000000000000000000000000000000000000000000000000000000000000003000000000000000000000000000000000000000000000000000000000000006000000000000000000000000000000000000000000000000000000000000000043222000000000000000000000000000000000000000000000000000000000000",
          "blockHash": "0x5cfb7f7b9474cdd5ca8c5d3737b5bcb5fe208933b82a4fba65db30ba6b7841e7",
          "blockNumber": "0x2619663",
          "blockTimestamp": "0x694d89a9",
          "transactionHash": "0xdec9a43be26f4bbb3fae40b657ce7b8439020e155d74aee16514550a797bdcda",
          "transactionIndex": "0x46",
          "logIndex": "0xcc",
          "removed": false
        },
        {
          "address": "0xad473eaa51821c915d03d9db5349a0586d55e55e",
          "topics": [
            "0x36e13ba1e45df3ecb8f6beb6274a1f5d4abf4c0792bb56700354f0d50bf0acd7",
            "0x000000000000000000000000000000000000000000000000000000000000000c",
            "0x000000000000000000000000ad473eaa51821c915d03d9db5349a0586d55e55e"
          ],
          "data": "0x0192d1e4a25acce6e7a2d4e8900eba6030b412ccc2d92d174c541b9d6055ff390000000000000000000000000000000000000000000000000000000000000004000000000000000000000000000000000000000000000000000000000000006000000000000000000000000000000000000000000000000000000000000000043c1b000000000000000000000000000000000000000000000000000000000000",
          "blockHash": "0x5cfb7f7b9474cdd5ca8c5d3737b5bcb5fe208933b82a4fba65db30ba6b7841e7",
          "blockNumber": "0x2619663",
          "blockTimestamp": "0x694d89a9",
          "transactionHash": "0xdec9a43be26f4bbb3fae40b657ce7b8439020e155d74aee16514550a797bdcda",
          "transactionIndex": "0x46",
          "logIndex": "0xcd",
          "removed": false
        }
      ],
      "logsBloom": "0x00000000000000000000000000000000000002000000000000000000000400000000000000000200000000000000000000000000000000000000000000000000000000000000000000000000000000000000000010000000000000000000000000000000000000000000000000000040000000000400000000000000000000000000000000000000000000000200000000000000000000040002000000000000000004000000000000000000000000000000000000000000000000004000000000000000000000000000000000400000000000000000000000000000000800200000000000000000000000000000000000000000000000800000000000000000",
      "type": "0x2",
      "transactionHash": "0xdec9a43be26f4bbb3fae40b657ce7b8439020e155d74aee16514550a797bdcda",
      "transactionIndex": "0x46",
      "blockHash": "0x5cfb7f7b9474cdd5ca8c5d3737b5bcb5fe208933b82a4fba65db30ba6b7841e7",
      "blockNumber": "0x2619663",
      "gasUsed": "0xd3f5",
      "effectiveGasPrice": "0x16f284",
      "blobGasUsed": "0x8a61",
      "from": "0xe403f79171b7050c78479f52e49e753d43e72c1a",
      "to": "0xad473eaa51821c915d03d9db5349a0586d55e55e",
      "contractAddress": null,
      "daFootprintGasScalar": "0x145",
      "l1BaseFeeScalar": "0x8dd",
      "l1BlobBaseFee": "0x18188c",
      "l1BlobBaseFeeScalar": "0x101c12",
      "l1Fee": "0x112ce951",
      "l1GasPrice": "0x193bcc9",
      "l1GasUsed": "0x6da"
    },
    {
      "status": "0x1",
      "cumulativeGasUsed": "0x99b987",
      "logs": [
        {
          "address": "0xad473eaa51821c915d03d9db5349a0586d55e55e",
          "topics": [
            "0x36e13ba1e45df3ecb8f6beb6274a1f5d4abf4c0792bb56700354f0d50bf0acd7",
            "0x000000000000000000000000000000000000000000000000000000000000000c",
            "0x000000000000000000000000e403f79171b7050c78479f52e49e753d43e72c1a"
          ],
          "data": "0xbb9afb9861b8290cda948e4af3b636449a44547dca4c3acbc45e65f4e22aab400000000000000000000000000000000000000000000000000000000000000005000000000000000000000000000000000000000000000000000000000000006000000000000000000000000000000000000000000000000000000000000000043129000000000000000000000000000000000000000000000000000000000000",
          "blockHash": "0xf733181b107e8c2b39bae7e13cc3f48ebee1a25ee3441344f40287e12d6c683d",
          "blockNumber": "0x2619663",
          "blockTimestamp": "0x694d89a9",
          "transactionHash": "0xdcebe744843b699a59af0859c87bd96fa19fabb2eabef84e12a200446e4eee74",
          "transactionIndex": "0x48",
          "logIndex": "0xce",
          "removed": false
        },
        {
          "address": "0xad473eaa51821c915d03d9db5349a0586d55e55e",
          "topics": [
            "0x36e13ba1e45df3ecb8f6beb6274a1f5d4abf4c0792bb56700354f0d50bf0acd7",
            "0x000000000000000000000000000000000000000000000000000000000000000c",
            "0x000000000000000000000000ad473eaa51821c915d03d9db5349a0586d55e55e"
          ],
          "data": "0x2760255e5f8c0d33599f68866f7b7bdd30ba831d73410b4548d9b6c2e2478d1c000000000000000000000000000000000000000000000000000000000000000600000000000000000000000000000000000000000000000000000000000000600000000000000000000000000000000000000000000000000000000000000004052b000000000000000000000000000000000000000000000000000000000000",
          "blockHash": "0xf733181b107e8c2b39bae7e13cc3f48ebee1a25ee3441344f40287e12d6c683d",
          "blockNumber": "0x2619663",
          "blockTimestamp": "0x694d89a9",
          "transactionHash": "0xdcebe744843b699a59af0859c87bd96fa19fabb2eabef84e12a200446e4eee74",
          "transactionIndex": "0x48",
          "logIndex": "0xcf",
          "removed": false
        }
      ],
      "logsBloom": "0x00000000000000000000000000000000000002000000000000000000000400000000000000000200000000000000000000000000000000000000000000000000000000000000000000000000000000000000000010000000000000000000000000000000000000000000000000000040000000000400000000000000000000000000000000000000000000000200000000000000000000040002000000000000000004000000000000000000000000000000000000000000000000004000000000000000000000000000000000400000000000000000000000000000000800200000000000000000000000000000000000000000000000800000000000000000",
      "type": "0x2",
      "transactionHash": "0xdcebe744843b699a59af0859c87bd96fa19fabb2eabef84e12a200446e4eee74",
      "transactionIndex": "0x48",
      "blockHash": "0xf733181b107e8c2b39bae7e13cc3f48ebee1a25ee3441344f40287e12d6c683d",
      "blockNumber": "0x2619663",
      "gasUsed": "0xd3f5",
      "effectiveGasPrice": "0x16f284",
      "blobGasUsed": "0x8a61",
      "from": "0xe403f79171b7050c78479f52e49e753d43e72c1a",
      "to": "0xad473eaa51821c915d03d9db5349a0586d55e55e",
      "contractAddress": null,
      "daFootprintGasScalar": "0x145",
      "l1BaseFeeScalar": "0x8dd",
      "l1BlobBaseFee": "0x18188c",
      "l1BlobBaseFeeScalar": "0x101c12",
      "l1Fee": "0xfa9ae36",
      "l1GasPrice": "0x193bcc9",
      "l1GasUsed": "0x6da"
    },
    {
      "status": "0x1",
      "cumulativeGasUsed": "0x9d59ff",
      "logs": [
        {
          "address": "0xad473eaa51821c915d03d9db5349a0586d55e55e",
          "topics": [
            "0x36e13ba1e45df3ecb8f6beb6274a1f5d4abf4c0792bb56700354f0d50bf0acd7",
            "0x000000000000000000000000000000000000000000000000000000000000000c",
            "0x000000000000000000000000e403f79171b7050c78479f52e49e753d43e72c1a"
          ],
          "data": "0x2a4b22ea265f7017c3f5040f1eec7d58baac29eda24dc699336157972973d8e10000000000000000000000000000000000000000000000000000000000000007000000000000000000000000000000000000000000000000000000000000006000000000000000000000000000000000000000000000000000000000000000043a2b000000000000000000000000000000000000000000000000000000000000",
          "blockHash": "0x5cfb7f7b9474cdd5ca8c5d3737b5bcb5fe208933b82a4fba65db30ba6b7841e7",
          "blockNumber": "0x2619663",
          "blockTimestamp": "0x694d89a9",
          "transactionHash": "0x436c6cf38dba6133fcd8c751f17cd55292665188f91aa5dee9cd14f34565d561",
          "transactionIndex": "0x4a",
          "logIndex": "0xd7",
          "removed": false
        },
        {
          "address": "0xad473eaa51821c915d03d9db5349a0586d55e55e",
          "topics": [
            "0x36e13ba1e45df3ecb8f6beb6274a1f5d4abf4c0792bb56700354f0d50bf0acd7",
            "0x000000000000000000000000000000000000000000000000000000000000000c",
            "0x000000000000000000000000ad473eaa51821c915d03d9db5349a0586d55e55e"
          ],
          "data": "0x55f26890947882f1207e2a875a0d392857a077e9af9ea320f39541f65d9244dd0000000000000000000000000000000000000000000000000000000000000008000000000000000000000000000000000000000000000000000000000000006000000000000000000000000000000000000000000000000000000000000000042818000000000000000000000000000000000000000000000000000000000000",
          "blockHash": "0x5cfb7f7b9474cdd5ca8c5d3737b5bcb5fe208933b82a4fba65db30ba6b7841e7",
          "blockNumber": "0x2619663",
          "blockTimestamp": "0x694d89a9",
          "transactionHash": "0x436c6cf38dba6133fcd8c751f17cd55292665188f91aa5dee9cd14f34565d561",
          "transactionIndex": "0x4a",
          "logIndex": "0xd8",
          "removed": false
        }
      ],
      "logsBloom": "0x00000000000000000000000000000000000002000000000000000000000400000000000000000200000000000000000000000000000000000000000000000000000000000000000000000000000000000000000010000000000000000000000000000000000000000000000000000040000000000400000000000000000000000000000000000000000000000200000000000000000000040002000000000000000004000000000000000000000000000000000000000000000000004000000000000000000000000000000000400000000000000000000000000000000800200000000000000000000000000000000000000000000000800000000000000000",
      "type": "0x2",
      "transactionHash": "0x436c6cf38dba6133fcd8c751f17cd55292665188f91aa5dee9cd14f34565d561",
      "transactionIndex": "0x4a",
      "blockHash": "0x5cfb7f7b9474cdd5ca8c5d3737b5bcb5fe208933b82a4fba65db30ba6b7841e7",
      "blockNumber": "0x2619663",
      "gasUsed": "0xd3f5",
      "effectiveGasPrice": "0x16f284",
      "blobGasUsed": "0x8a61",
      "from": "0xe403f79171b7050c78479f52e49e753d43e72c1a",
      "to": "0xad473eaa51821c915d03d9db5349a0586d55e55e",
      "contractAddress": null,
      "daFootprintGasScalar": "0x145",
      "l1BaseFeeScalar": "0x8dd",
      "l1BlobBaseFee": "0x18188c",
      "l1BlobBaseFeeScalar": "0x101c12",
      "l1Fee": "0x112ce951",
      "l1GasPrice": "0x193bcc9",
      "l1GasUsed": "0x6da"
    },
    {
      "status": "0x1",
      "cumulativeGasUsed": "0x9e7b06",
      "logs": [
        {
          "address": "0xad473eaa51821c915d03d9db5349a0586d55e55e",
          "topics": [
            "0x36e13ba1e45df3ecb8f6beb6274a1f5d4abf4c0792bb56700354f0d50bf0acd7",
            "0x000000000000000000000000000000000000000000000000000000000000000d",
            "0x000000000000000000000000e403f79171b7050c78479f52e49e753d43e72c1a"
          ],
          "data": "0xe8773807ffd17108aa2d132cec684352f2c5c8337ff4659cc010d15b0551847d0000000000000000000000000000000000000000000000000000000000000001000000000000000000000000000000000000000000000000000000000000006000000000000000000000000000000000000000000000000000000000000000043424000000000000000000000000000000000000000000000000000000000000",
          "blockHash": "0xf733181b107e8c2b39bae7e13cc3f48ebee1a25ee3441344f40287e12d6c683d",
          "blockNumber": "0x2619663",
          "blockTimestamp": "0x694d89a9",
          "transactionHash": "0x22f566a70e3944acb1c26412aa859337f07b378a0630d8881c91dc943988f7cf",
          "transactionIndex": "0x4b",
          "logIndex": "0xd9",
          "removed": false
        },
        {
          "address": "0xad473eaa51821c915d03d9db5349a0586d55e55e",
          "topics": [
            "0x36e13ba1e45df3ecb8f6beb6274a1f5d4abf4c0792bb56700354f0d50bf0acd7",
            "0x000000000000000000000000000000000000000000000000000000000000000d",
            "0x000000000000000000000000ad473eaa51821c915d03d9db5349a0586d55e55e"
          ],
          "data": "0xf4bb36a023d03b095a88119a20a9000a252aea11d80408b3bd0c6bade87b4ba70000000000000000000000000000000000000000000000000000000000000002000000000000000000000000000000000000000000000000000000000000006000000000000000000000000000000000000000000000000000000000000000043424000000000000000000000000000000000000000000000000000000000000",
          "blockHash": "0xf733181b107e8c2b39bae7e13cc3f48ebee1a25ee3441344f40287e12d6c683d",
          "blockNumber": "0x2619663",
          "blockTimestamp": "0x694d89a9",
          "transactionHash": "0x22f566a70e3944acb1c26412aa859337f07b378a0630d8881c91dc943988f7cf",
          "transactionIndex": "0x4b",
          "logIndex": "0xda",
          "removed": false
        }
      ],
      "logsBloom": "0x00000000000000000040000000000000000000000000000000000000000400000000000000000000000000000000000000000000000000000000000000000000000000000000000000000000000000000002000010000000000000000000000000000000000000000000000000000040000000000400000000000000000000000000000000000000000000000200000000000000000000040002000000000000000004000000000000000000000000000000000000000000000000004000000000000000000000000000000000400000000000000000000000000000000800020000000000000000000000000000000000000000000000800000000000000000",
      "type": "0x2",
      "transactionHash": "0x22f566a70e3944acb1c26412aa859337f07b378a0630d8881c91dc943988f7cf",
      "transactionIndex": "0x4b",
      "blockHash": "0xf733181b107e8c2b39bae7e13cc3f48ebee1a25ee3441344f40287e12d6c683d",
      "blockNumber": "0x2619663",
      "gasUsed": "0x12107",
      "effectiveGasPrice": "0x16f284",
      "blobGasUsed": "0x8a61",
      "from": "0xe403f79171b7050c78479f52e49e753d43e72c1a",
      "to": "0xad473eaa51821c915d03d9db5349a0586d55e55e",
      "contractAddress": null,
      "daFootprintGasScalar": "0x145",
      "l1BaseFeeScalar": "0x8dd",
      "l1BlobBaseFee": "0x18188c",
      "l1BlobBaseFeeScalar": "0x101c12",
      "l1Fee": "0xfa9ae36",
      "l1GasPrice": "0x193bcc9",
      "l1GasUsed": "0x6da"
    },
    {
      "status": "0x1",
      "cumulativeGasUsed": "0x9f4efb",
      "logs": [
        {
          "address": "0xad473eaa51821c915d03d9db5349a0586d55e55e",
          "topics": [
            "0x36e13ba1e45df3ecb8f6beb6274a1f5d4abf4c0792bb56700354f0d50bf0acd7",
            "0x000000000000000000000000000000000000000000000000000000000000000d",
            "0x000000000000000000000000e403f79171b7050c78479f52e49e753d43e72c1a"
          ],
          "data": "0x0692c63251d62c8f04eed454cc75e5bc199ba842e6b8106095e5d806a5e48cfa0000000000000000000000000000000000000000000000000000000000000003000000000000000000000000000000000000000000000000000000000000006000000000000000000000000000000000000000000000000000000000000000043323000000000000000000000000000000000000000000000000000000000000",
          "blockHash": "0xf733181b107e8c2b39bae7e13cc3f48ebee1a25ee3441344f40287e12d6c683d",
          "blockNumber": "0x2619663",
          "blockTimestamp": "0x694d89a9",
          "transactionHash": "0x25e7991bd6e5ca95a36d4f023c7c61bfdd4076fc89ad9f095ffdf66c2acc6442",
          "transactionIndex": "0x4c",
          "logIndex": "0xdb",
          "removed": false
        },
        {
          "address": "0xad473eaa51821c915d03d9db5349a0586d55e55e",
          "topics": [
            "0x36e13ba1e45df3ecb8f6beb6274a1f5d4abf4c0792bb56700354f0d50bf0acd7",
            "0x000000000000000000000000000000000000000000000000000000000000000d",
            "0x000000000000000000000000ad473eaa51821c915d03d9db5349a0586d55e55e"
          ],
          "data": "0x80db663b91d50261d3b6cf7c40f14617bc570551fdc50ae5d379aac6ea1fb5d50000000000000000000000000000000000000000000000000000000000000004000000000000000000000000000000000000000000000000000000000000006000000000000000000000000000000000000000000000000000000000000000043d0c000000000000000000000000000000000000000000000000000000000000",
          "blockHash": "0xf733181b107e8c2b39bae7e13cc3f48ebee1a25ee3441344f40287e12d6c683d",
          "blockNumber": "0x2619663",
          "blockTimestamp": "0x694d89a9",
          "transactionHash": "0x25e7991bd6e5ca95a36d4f023c7c61bfdd4076fc89ad9f095ffdf66c2acc6442",
          "transactionIndex": "0x4c",
          "logIndex": "0xdc",
          "removed": false
        }
      ],
      "logsBloom": "0x00000000000000000040000000000000000000000000000000000000000400000000000000000000000000000000000000000000000000000000000000000000000000000000000000000000000000000002000010000000000000000000000000000000000000000000000000000040000000000400000000000000000000000000000000000000000000000200000000000000000000040002000000000000000004000000000000000000000000000000000000000000000000004000000000000000000000000000000000400000000000000000000000000000000800020000000000000000000000000000000000000000000000800000000000000000",
      "type": "0x2",
      "transactionHash": "0x25e7991bd6e5ca95a36d4f023c7c61bfdd4076fc89ad9f095ffdf66c2acc6442",
      "transactionIndex": "0x4c",
      "blockHash": "0xf733181b107e8c2b39bae7e13cc3f48ebee1a25ee3441344f40287e12d6c683d",
      "blockNumber": "0x2619663",
      "gasUsed": "0xd3f5",
      "effectiveGasPrice": "0x16f284",
      "blobGasUsed": "0x8a61",
      "from": "0xe403f79171b7050c78479f52e49e753d43e72c1a",
      "to": "0xad473eaa51821c915d03d9db5349a0586d55e55e",
      "contractAddress": null,
      "daFootprintGasScalar": "0x145",
      "l1BaseFeeScalar": "0x8dd",
      "l1BlobBaseFee": "0x18188c",
      "l1BlobBaseFeeScalar": "0x101c12",
      "l1Fee": "0xfa9ae36",
      "l1GasPrice": "0x193bcc9",
      "l1GasUsed": "0x6da"
    },
    {
      "status": "0x1",
      "cumulativeGasUsed": "0xe316f7",
      "logs": [
        {
          "address": "0xad473eaa51821c915d03d9db5349a0586d55e55e",
          "topics": [
            "0x36e13ba1e45df3ecb8f6beb6274a1f5d4abf4c0792bb56700354f0d50bf0acd7",
            "0x000000000000000000000000000000000000000000000000000000000000000d",
            "0x000000000000000000000000e403f79171b7050c78479f52e49e753d43e72c1a"
          ],
          "data": "0x4442d021ec118fea7ce3641d3375363801af2e92adb1272f726cf20292795a62000000000000000000000000000000000000000000000000000000000000000500000000000000000000000000000000000000000000000000000000000000600000000000000000000000000000000000000000000000000000000000000004392a000000000000000000000000000000000000000000000000000000000000",
          "blockHash": "0x59cc242f72cb59c148d656a74cb5e593b7e29947f73ba4397d82e21da99ae4f4",
          "blockNumber": "0x2619663",
          "blockTimestamp": "0x694d89a9",
          "transactionHash": "0x5dcd23858958c091f857f3e2b3b2402d160137dc29da8b52b793b0f3361b5366",
          "transactionIndex": "0x6f",
          "logIndex": "0x139",
          "removed": false
        },
        {
          "address": "0xad473eaa51821c915d03d9db5349a0586d55e55e",
          "topics": [
            "0x36e13ba1e45df3ecb8f6beb6274a1f5d4abf4c0792bb56700354f0d50bf0acd7",
            "0x000000000000000000000000000000000000000000000000000000000000000d",
            "0x000000000000000000000000ad473eaa51821c915d03d9db5349a0586d55e55e"
          ],
          "data": "0xe131cca08afe30756df90d03f27be0045be7f7a0d73031afbdf14f8a193cb8e6000000000000000000000000000000000000000000000000000000000000000600000000000000000000000000000000000000000000000000000000000000600000000000000000000000000000000000000000000000000000000000000004271a000000000000000000000000000000000000000000000000000000000000",
          "blockHash": "0x59cc242f72cb59c148d656a74cb5e593b7e29947f73ba4397d82e21da99ae4f4",
          "blockNumber": "0x2619663",
          "blockTimestamp": "0x694d89a9",
          "transactionHash": "0x5dcd23858958c091f857f3e2b3b2402d160137dc29da8b52b793b0f3361b5366",
          "transactionIndex": "0x6f",
          "logIndex": "0x13a",
          "removed": false
        }
      ],
      "logsBloom": "0x00000000000000000040000000000000000000000000000000000000000400000000000000000000000000000000000000000000000000000000000000000000000000000000000000000000000000000002000010000000000000000000000000000000000000000000000000000040000000000400000000000000000000000000000000000000000000000200000000000000000000040002000000000000000004000000000000000000000000000000000000000000000000004000000000000000000000000000000000400000000000000000000000000000000800020000000000000000000000000000000000000000000000800000000000000000",
      "type": "0x2",
      "transactionHash": "0x5dcd23858958c091f857f3e2b3b2402d160137dc29da8b52b793b0f3361b5366",
      "transactionIndex": "0x6f",
      "blockHash": "0x59cc242f72cb59c148d656a74cb5e593b7e29947f73ba4397d82e21da99ae4f4",
      "blockNumber": "0x2619663",
      "gasUsed": "0xd3f5",
      "effectiveGasPrice": "0x16f284",
      "blobGasUsed": "0x8a61",
      "from": "0xe403f79171b7050c78479f52e49e753d43e72c1a",
      "to": "0xad473eaa51821c915d03d9db5349a0586d55e55e",
      "contractAddress": null,
      "daFootprintGasScalar": "0x145",
      "l1BaseFeeScalar": "0x8dd",
      "l1BlobBaseFee": "0x18188c",
      "l1BlobBaseFeeScalar": "0x101c12",
      "l1Fee": "0x25bed849",
      "l1GasPrice": "0x193bcc9",
      "l1GasUsed": "0x6da"
    },
    {
      "status": "0x1",
      "cumulativeGasUsed": "0xe3eaec",
      "logs": [
        {
          "address": "0xad473eaa51821c915d03d9db5349a0586d55e55e",
          "topics": [
            "0x36e13ba1e45df3ecb8f6beb6274a1f5d4abf4c0792bb56700354f0d50bf0acd7",
            "0x000000000000000000000000000000000000000000000000000000000000000d",
            "0x000000000000000000000000e403f79171b7050c78479f52e49e753d43e72c1a"
          ],
          "data": "0xc7183fc0754b5e7da3b74bf364f8affe59ffdf73627f9b8e7d4991d4453bd3640000000000000000000000000000000000000000000000000000000000000007000000000000000000000000000000000000000000000000000000000000006000000000000000000000000000000000000000000000000000000000000000043b2c000000000000000000000000000000000000000000000000000000000000",
          "blockHash": "0x5cfb7f7b9474cdd5ca8c5d3737b5bcb5fe208933b82a4fba65db30ba6b7841e7",
          "blockNumber": "0x2619663",
          "blockTimestamp": "0x694d89a9",
          "transactionHash": "0x9dd474d94c9025b02719eb96736a70ace11853b7614b6d25d223154fcf06e35c",
          "transactionIndex": "0x70",
          "logIndex": "0x13b",
          "removed": false
        },
        {
          "address": "0xad473eaa51821c915d03d9db5349a0586d55e55e",
          "topics": [
            "0x36e13ba1e45df3ecb8f6beb6274a1f5d4abf4c0792bb56700354f0d50bf0acd7",
            "0x000000000000000000000000000000000000000000000000000000000000000d",
            "0x000000000000000000000000ad473eaa51821c915d03d9db5349a0586d55e55e"
          ],
          "data": "0xfa672e07d673b2d218b92d8ee0e059b5d1bfc274c1d1aaf67086a3dbe5f1587f0000000000000000000000000000000000000000000000000000000000000008000000000000000000000000000000000000000000000000000000000000006000000000000000000000000000000000000000000000000000000000000000042b13000000000000000000000000000000000000000000000000000000000000",
          "blockHash": "0x5cfb7f7b9474cdd5ca8c5d3737b5bcb5fe208933b82a4fba65db30ba6b7841e7",
          "blockNumber": "0x2619663",
          "blockTimestamp": "0x694d89a9",
          "transactionHash": "0x9dd474d94c9025b02719eb96736a70ace11853b7614b6d25d223154fcf06e35c",
          "transactionIndex": "0x70",
          "logIndex": "0x13c",
          "removed": false
        }
      ],
      "logsBloom": "0x00000000000000000040000000000000000000000000000000000000000400000000000000000000000000000000000000000000000000000000000000000000000000000000000000000000000000000002000010000000000000000000000000000000000000000000000000000040000000000400000000000000000000000000000000000000000000000200000000000000000000040002000000000000000004000000000000000000000000000000000000000000000000004000000000000000000000000000000000400000000000000000000000000000000800020000000000000000000000000000000000000000000000800000000000000000",
      "type": "0x2",
      "transactionHash": "0x9dd474d94c9025b02719eb96736a70ace11853b7614b6d25d223154fcf06e35c",
      "transactionIndex": "0x70",
      "blockHash": "0x5cfb7f7b9474cdd5ca8c5d3737b5bcb5fe208933b82a4fba65db30ba6b7841e7",
      "blockNumber": "0x2619663",
      "gasUsed": "0xd3f5",
      "effectiveGasPrice": "0x16f284",
      "blobGasUsed": "0x8a61",
      "from": "0xe403f79171b7050c78479f52e49e753d43e72c1a",
      "to": "0xad473eaa51821c915d03d9db5349a0586d55e55e",
      "contractAddress": null,
      "daFootprintGasScalar": "0x145",
      "l1BaseFeeScalar": "0x8dd",
      "l1BlobBaseFee": "0x18188c",
      "l1BlobBaseFeeScalar": "0x101c12",
      "l1Fee": "0x112ce951",
      "l1GasPrice": "0x193bcc9",
      "l1GasUsed": "0x6da"
    },
    {
      "status": "0x1",
      "cumulativeGasUsed": "0x13bda82",
      "logs": [
        {
          "address": "0xad473eaa51821c915d03d9db5349a0586d55e55e",
          "topics": [
            "0x36e13ba1e45df3ecb8f6beb6274a1f5d4abf4c0792bb56700354f0d50bf0acd7",
            "0x000000000000000000000000000000000000000000000000000000000000000e",
            "0x000000000000000000000000e403f79171b7050c78479f52e49e753d43e72c1a"
          ],
          "data": "0x90e396633e67bfb131a9c9b400ea842e0f29f45c4bc7872a0e80af48deb785040000000000000000000000000000000000000000000000000000000000000001000000000000000000000000000000000000000000000000000000000000006000000000000000000000000000000000000000000000000000000000000000043028000000000000000000000000000000000000000000000000000000000000",
          "blockHash": "0xd65858f7ca01af10c9ba614aabc9def2e8af4749bdeeac48c64176cbd93cffed",
          "blockNumber": "0x2619663",
          "blockTimestamp": "0x694d89a9",
          "transactionHash": "0x961325d97cf37350ea943bbc3124f964be8f33fbfa19c11483afae84c87e18e3",
          "transactionIndex": "0x8d",
          "logIndex": "0x16f",
          "removed": false
        },
        {
          "address": "0xad473eaa51821c915d03d9db5349a0586d55e55e",
          "topics": [
            "0x36e13ba1e45df3ecb8f6beb6274a1f5d4abf4c0792bb56700354f0d50bf0acd7",
            "0x000000000000000000000000000000000000000000000000000000000000000e",
            "0x000000000000000000000000ad473eaa51821c915d03d9db5349a0586d55e55e"
          ],
          "data": "0x60e65b9330f95689004881ceb0c70271140d7a6c66037940d345a33188c341c30000000000000000000000000000000000000000000000000000000000000002000000000000000000000000000000000000000000000000000000000000006000000000000000000000000000000000000000000000000000000000000000043424000000000000000000000000000000000000000000000000000000000000",
          "blockHash": "0xd65858f7ca01af10c9ba614aabc9def2e8af4749bdeeac48c64176cbd93cffed",
          "blockNumber": "0x2619663",
          "blockTimestamp": "0x694d89a9",
          "transactionHash": "0x961325d97cf37350ea943bbc3124f964be8f33fbfa19c11483afae84c87e18e3",
          "transactionIndex": "0x8d",
          "logIndex": "0x170",
          "removed": false
        }
      ],
      "logsBloom": "0x00000000000000000000000000000000000000000000000000000000000400000000000000000000000000000000000000000000000000000000000000000000000000000000000800000000000000000000000010000000000000000000000000000000000000000000000000000040000000000400000000000000000000000000000000000000000000000200000008000000000000040002000000000000000004000000000000000000000000000000000000000020000000004000000000000000000000000000000000400000000000000000000000000000000800000000000000000000000000000000000000000000000000800000000000000000",
      "type": "0x2",
      "transactionHash": "0x961325d97cf37350ea943bbc3124f964be8f33fbfa19c11483afae84c87e18e3",
      "transactionIndex": "0x8d",
      "blockHash": "0xd65858f7ca01af10c9ba614aabc9def2e8af4749bdeeac48c64176cbd93cffed",
      "blockNumber": "0x2619663",
      "gasUsed": "0x120fb",
      "effectiveGasPrice": "0x16f284",
      "blobGasUsed": "0x8a61",
      "from": "0xe403f79171b7050c78479f52e49e753d43e72c1a",
      "to": "0xad473eaa51821c915d03d9db5349a0586d55e55e",
      "contractAddress": null,
      "daFootprintGasScalar": "0x145",
      "l1BaseFeeScalar": "0x8dd",
      "l1BlobBaseFee": "0x18188c",
      "l1BlobBaseFeeScalar": "0x101c12",
      "l1Fee": "0x3f6ce05f",
      "l1GasPrice": "0x193bcc9",
      "l1GasUsed": "0x6da"
    },
    {
      "status": "0x1",
      "cumulativeGasUsed": "0x142b534",
      "logs": [
        {
          "address": "0xad473eaa51821c915d03d9db5349a0586d55e55e",
          "topics": [
            "0x36e13ba1e45df3ecb8f6beb6274a1f5d4abf4c0792bb56700354f0d50bf0acd7",
            "0x000000000000000000000000000000000000000000000000000000000000000e",
            "0x000000000000000000000000e403f79171b7050c78479f52e49e753d43e72c1a"
          ],
          "data": "0xfc6cc8976638831fc84ceab234894f532e0338e7268a3303d4c0c1939f85dbb90000000000000000000000000000000000000000000000000000000000000003000000000000000000000000000000000000000000000000000000000000006000000000000000000000000000000000000000000000000000000000000000043222000000000000000000000000000000000000000000000000000000000000",
          "blockHash": "0x5cfb7f7b9474cdd5ca8c5d3737b5bcb5fe208933b82a4fba65db30ba6b7841e7",
          "blockNumber": "0x2619663",
          "blockTimestamp": "0x694d89a9",
          "transactionHash": "0x0e346b27b2d46cf5bf2d605e73b25bbf31e83583b8ab017a72240215e19ece1a",
          "transactionIndex": "0x92",
          "logIndex": "0x17a",
          "removed": false
        },
        {
          "address": "0xad473eaa51821c915d03d9db5349a0586d55e55e",
          "topics": [
            "0x36e13ba1e45df3ecb8f6beb6274a1f5d4abf4c0792bb56700354f0d50bf0acd7",
            "0x000000000000000000000000000000000000000000000000000000000000000e",
            "0x000000000000000000000000ad473eaa51821c915d03d9db5349a0586d55e55e"
          ],
          "data": "0x0192d1e4a25acce6e7a2d4e8900eba6030b412ccc2d92d174c541b9d6055ff390000000000000000000000000000000000000000000000000000000000000004000000000000000000000000000000000000000000000000000000000000006000000000000000000000000000000000000000000000000000000000000000043c1b000000000000000000000000000000000000000000000000000000000000",
          "blockHash": "0x5cfb7f7b9474cdd5ca8c5d3737b5bcb5fe208933b82a4fba65db30ba6b7841e7",
          "blockNumber": "0x2619663",
          "blockTimestamp": "0x694d89a9",
          "transactionHash": "0x0e346b27b2d46cf5bf2d605e73b25bbf31e83583b8ab017a72240215e19ece1a",
          "transactionIndex": "0x92",
          "logIndex": "0x17b",
          "removed": false
        }
      ],
      "logsBloom": "0x00000000000000000000000000000000000000000000000000000000000400000000000000000000000000000000000000000000000000000000000000000000000000000000000800000000000000000000000010000000000000000000000000000000000000000000000000000040000000000400000000000000000000000000000000000000000000000200000008000000000000040002000000000000000004000000000000000000000000000000000000000020000000004000000000000000000000000000000000400000000000000000000000000000000800000000000000000000000000000000000000000000000000800000000000000000",
      "type": "0x2",
      "transactionHash": "0x0e346b27b2d46cf5bf2d605e73b25bbf31e83583b8ab017a72240215e19ece1a",
      "transactionIndex": "0x92",
      "blockHash": "0x5cfb7f7b9474cdd5ca8c5d3737b5bcb5fe208933b82a4fba65db30ba6b7841e7",
      "blockNumber": "0x2619663",
      "gasUsed": "0xd3f5",
      "effectiveGasPrice": "0x16f284",
      "blobGasUsed": "0x8a61",
      "from": "0xe403f79171b7050c78479f52e49e753d43e72c1a",
      "to": "0xad473eaa51821c915d03d9db5349a0586d55e55e",
      "contractAddress": null,
      "daFootprintGasScalar": "0x145",
      "l1BaseFeeScalar": "0x8dd",
      "l1BlobBaseFee": "0x18188c",
      "l1BlobBaseFeeScalar": "0x101c12",
      "l1Fee": "0x112ce951",
      "l1GasPrice": "0x193bcc9",
      "l1GasUsed": "0x6da"
    },
    {
      "status": "0x1",
      "cumulativeGasUsed": "0x1438929",
      "logs": [
        {
          "address": "0xad473eaa51821c915d03d9db5349a0586d55e55e",
          "topics": [
            "0x36e13ba1e45df3ecb8f6beb6274a1f5d4abf4c0792bb56700354f0d50bf0acd7",
            "0x000000000000000000000000000000000000000000000000000000000000000e",
            "0x000000000000000000000000e403f79171b7050c78479f52e49e753d43e72c1a"
          ],
          "data": "0xbb9afb9861b8290cda948e4af3b636449a44547dca4c3acbc45e65f4e22aab400000000000000000000000000000000000000000000000000000000000000005000000000000000000000000000000000000000000000000000000000000006000000000000000000000000000000000000000000000000000000000000000043129000000000000000000000000000000000000000000000000000000000000",
          "blockHash": "0xd65858f7ca01af10c9ba614aabc9def2e8af4749bdeeac48c64176cbd93cffed",
          "blockNumber": "0x2619663",
          "blockTimestamp": "0x694d89a9",
          "transactionHash": "0xcb28b2cd3b8113db68c31a86eea0905a5727562abaae3bc8f114d4acac3c5d43",
          "transactionIndex": "0x93",
          "logIndex": "0x17c",
          "removed": false
        },
        {
          "address": "0xad473eaa51821c915d03d9db5349a0586d55e55e",
          "topics": [
            "0x36e13ba1e45df3ecb8f6beb6274a1f5d4abf4c0792bb56700354f0d50bf0acd7",
            "0x000000000000000000000000000000000000000000000000000000000000000e",
            "0x000000000000000000000000ad473eaa51821c915d03d9db5349a0586d55e55e"
          ],
          "data": "0x2760255e5f8c0d33599f68866f7b7bdd30ba831d73410b4548d9b6c2e2478d1c000000000000000000000000000000000000000000000000000000000000000600000000000000000000000000000000000000000000000000000000000000600000000000000000000000000000000000000000000000000000000000000004052b000000000000000000000000000000000000000000000000000000000000",
          "blockHash": "0xd65858f7ca01af10c9ba614aabc9def2e8af4749bdeeac48c64176cbd93cffed",
          "blockNumber": "0x2619663",
          "blockTimestamp": "0x694d89a9",
          "transactionHash": "0xcb28b2cd3b8113db68c31a86eea0905a5727562abaae3bc8f114d4acac3c5d43",
          "transactionIndex": "0x93",
          "logIndex": "0x17d",
          "removed": false
        }
      ],
      "logsBloom": "0x00000000000000000000000000000000000000000000000000000000000400000000000000000000000000000000000000000000000000000000000000000000000000000000000800000000000000000000000010000000000000000000000000000000000000000000000000000040000000000400000000000000000000000000000000000000000000000200000008000000000000040002000000000000000004000000000000000000000000000000000000000020000000004000000000000000000000000000000000400000000000000000000000000000000800000000000000000000000000000000000000000000000000800000000000000000",
      "type": "0x2",
      "transactionHash": "0xcb28b2cd3b8113db68c31a86eea0905a5727562abaae3bc8f114d4acac3c5d43",
      "transactionIndex": "0x93",
      "blockHash": "0xd65858f7ca01af10c9ba614aabc9def2e8af4749bdeeac48c64176cbd93cffed",
      "blockNumber": "0x2619663",
      "gasUsed": "0xd3f5",
      "effectiveGasPrice": "0x16f284",
      "blobGasUsed": "0x8a61",
      "from": "0xe403f79171b7050c78479f52e49e753d43e72c1a",
      "to": "0xad473eaa51821c915d03d9db5349a0586d55e55e",
      "contractAddress": null,
      "daFootprintGasScalar": "0x145",
      "l1BaseFeeScalar": "0x8dd",
      "l1BlobBaseFee": "0x18188c",
      "l1BlobBaseFeeScalar": "0x101c12",
      "l1Fee": "0x3f6ce05f",
      "l1GasPrice": "0x193bcc9",
      "l1GasUsed": "0x6da"
    },
    {
      "status": "0x1",
      "cumulativeGasUsed": "0x1445d1e",
      "logs": [
        {
          "address": "0xad473eaa51821c915d03d9db5349a0586d55e55e",
          "topics": [
            "0x36e13ba1e45df3ecb8f6beb6274a1f5d4abf4c0792bb56700354f0d50bf0acd7",
            "0x000000000000000000000000000000000000000000000000000000000000000e",
            "0x000000000000000000000000e403f79171b7050c78479f52e49e753d43e72c1a"
          ],
          "data": "0x2a4b22ea265f7017c3f5040f1eec7d58baac29eda24dc699336157972973d8e10000000000000000000000000000000000000000000000000000000000000007000000000000000000000000000000000000000000000000000000000000006000000000000000000000000000000000000000000000000000000000000000043a2b000000000000000000000000000000000000000000000000000000000000",
          "blockHash": "0xd65858f7ca01af10c9ba614aabc9def2e8af4749bdeeac48c64176cbd93cffed",
          "blockNumber": "0x2619663",
          "blockTimestamp": "0x694d89a9",
          "transactionHash": "0xce40c741a1679a784bfc879e2a1283e54fa5628ae202e57207bc32790f7850c8",
          "transactionIndex": "0x94",
          "logIndex": "0x17e",
          "removed": false
        },
        {
          "address": "0xad473eaa51821c915d03d9db5349a0586d55e55e",
          "topics": [
            "0x36e13ba1e45df3ecb8f6beb6274a1f5d4abf4c0792bb56700354f0d50bf0acd7",
            "0x000000000000000000000000000000000000000000000000000000000000000e",
            "0x000000000000000000000000ad473eaa51821c915d03d9db5349a0586d55e55e"
          ],
          "data": "0x55f26890947882f1207e2a875a0d392857a077e9af9ea320f39541f65d9244dd0000000000000000000000000000000000000000000000000000000000000008000000000000000000000000000000000000000000000000000000000000006000000000000000000000000000000000000000000000000000000000000000042818000000000000000000000000000000000000000000000000000000000000",
          "blockHash": "0xd65858f7ca01af10c9ba614aabc9def2e8af4749bdeeac48c64176cbd93cffed",
          "blockNumber": "0x2619663",
          "blockTimestamp": "0x694d89a9",
          "transactionHash": "0xce40c741a1679a784bfc879e2a1283e54fa5628ae202e57207bc32790f7850c8",
          "transactionIndex": "0x94",
          "logIndex": "0x17f",
          "removed": false
        }
      ],
      "logsBloom": "0x00000000000000000000000000000000000000000000000000000000000400000000000000000000000000000000000000000000000000000000000000000000000000000000000800000000000000000000000010000000000000000000000000000000000000000000000000000040000000000400000000000000000000000000000000000000000000000200000008000000000000040002000000000000000004000000000000000000000000000000000000000020000000004000000000000000000000000000000000400000000000000000000000000000000800000000000000000000000000000000000000000000000000800000000000000000",
      "type": "0x2",
      "transactionHash": "0xce40c741a1679a784bfc879e2a1283e54fa5628ae202e57207bc32790f7850c8",
      "transactionIndex": "0x94",
      "blockHash": "0xd65858f7ca01af10c9ba614aabc9def2e8af4749bdeeac48c64176cbd93cffed",
      "blockNumber": "0x2619663",
      "gasUsed": "0xd3f5",
      "effectiveGasPrice": "0x16f284",
      "blobGasUsed": "0x8a61",
      "from": "0xe403f79171b7050c78479f52e49e753d43e72c1a",
      "to": "0xad473eaa51821c915d03d9db5349a0586d55e55e",
      "contractAddress": null,
      "daFootprintGasScalar": "0x145",
      "l1BaseFeeScalar": "0x8dd",
      "l1BlobBaseFee": "0x18188c",
      "l1BlobBaseFeeScalar": "0x101c12",
      "l1Fee": "0x3f6ce05f",
      "l1GasPrice": "0x193bcc9",
      "l1GasUsed": "0x6da"
    },
    {
      "status": "0x1",
      "cumulativeGasUsed": "0x1457e25",
      "logs": [
        {
          "address": "0xad473eaa51821c915d03d9db5349a0586d55e55e",
          "topics": [
            "0x36e13ba1e45df3ecb8f6beb6274a1f5d4abf4c0792bb56700354f0d50bf0acd7",
            "0x000000000000000000000000000000000000000000000000000000000000000f",
            "0x000000000000000000000000e403f79171b7050c78479f52e49e753d43e72c1a"
          ],
          "data": "0xe8773807ffd17108aa2d132cec684352f2c5c8337ff4659cc010d15b0551847d0000000000000000000000000000000000000000000000000000000000000001000000000000000000000000000000000000000000000000000000000000006000000000000000000000000000000000000000000000000000000000000000043424000000000000000000000000000000000000000000000000000000000000",
          "blockHash": "0xd65858f7ca01af10c9ba614aabc9def2e8af4749bdeeac48c64176cbd93cffed",
          "blockNumber": "0x2619663",
          "blockTimestamp": "0x694d89a9",
          "transactionHash": "0x45cfca0817a28f7b87d78971e39cc65922d884327ead08072209118e48ae48c1",
          "transactionIndex": "0x95",
          "logIndex": "0x180",
          "removed": false
        },
        {
          "address": "0xad473eaa51821c915d03d9db5349a0586d55e55e",
          "topics": [
            "0x36e13ba1e45df3ecb8f6beb6274a1f5d4abf4c0792bb56700354f0d50bf0acd7",
            "0x000000000000000000000000000000000000000000000000000000000000000f",
            "0x000000000000000000000000ad473eaa51821c915d03d9db5349a0586d55e55e"
          ],
          "data": "0xf4bb36a023d03b095a88119a20a9000a252aea11d80408b3bd0c6bade87b4ba70000000000000000000000000000000000000000000000000000000000000002000000000000000000000000000000000000000000000000000000000000006000000000000000000000000000000000000000000000000000000000000000043424000000000000000000000000000000000000000000000000000000000000",
          "blockHash": "0xd65858f7ca01af10c9ba614aabc9def2e8af4749bdeeac48c64176cbd93cffed",
          "blockNumber": "0x2619663",
          "blockTimestamp": "0x694d89a9",
          "transactionHash": "0x45cfca0817a28f7b87d78971e39cc65922d884327ead08072209118e48ae48c1",
          "transactionIndex": "0x95",
          "logIndex": "0x181",
          "removed": false
        }
      ],
      "logsBloom": "0x00000000000000000000000000000000000000000000000000000000000400000000000000000000000000000000000000000000000000000000000000000000000000000000000000000000000000000000000010000000000000000002000000000000000000000000000000000040000000000400000000000000000000000000000000000800000000000200000000000000000000040002000000000000000004000000000000000000000000000000000000000000000000004000000000000000000000000000000000400000000000000000000000000000000800000000000200000000000000000000000000000000000000800000000000000000",
      "type": "0x2",
      "transactionHash": "0x45cfca0817a28f7b87d78971e39cc65922d884327ead08072209118e48ae48c1",
      "transactionIndex": "0x95",
      "blockHash": "0xd65858f7ca01af10c9ba614aabc9def2e8af4749bdeeac48c64176cbd93cffed",
      "blockNumber": "0x2619663",
      "gasUsed": "0x12107",
      "effectiveGasPrice": "0x16f284",
      "blobGasUsed": "0x8a61",
      "from": "0xe403f79171b7050c78479f52e49e753d43e72c1a",
      "to": "0xad473eaa51821c915d03d9db5349a0586d55e55e",
      "contractAddress": null,
      "daFootprintGasScalar": "0x145",
      "l1BaseFeeScalar": "0x8dd",
      "l1BlobBaseFee": "0x18188c",
      "l1BlobBaseFeeScalar": "0x101c12",
      "l1Fee": "0x3f6ce05f",
      "l1GasPrice": "0x193bcc9",
      "l1GasUsed": "0x6da"
    },
    {
      "status": "0x1",
      "cumulativeGasUsed": "0x1732e26",
      "logs": [
        {
          "address": "0xad473eaa51821c915d03d9db5349a0586d55e55e",
          "topics": [
            "0x36e13ba1e45df3ecb8f6beb6274a1f5d4abf4c0792bb56700354f0d50bf0acd7",
            "0x000000000000000000000000000000000000000000000000000000000000000f",
            "0x000000000000000000000000e403f79171b7050c78479f52e49e753d43e72c1a"
          ],
          "data": "0x0692c63251d62c8f04eed454cc75e5bc199ba842e6b8106095e5d806a5e48cfa0000000000000000000000000000000000000000000000000000000000000003000000000000000000000000000000000000000000000000000000000000006000000000000000000000000000000000000000000000000000000000000000043323000000000000000000000000000000000000000000000000000000000000",
          "blockHash": "0xb33ca2470ca93c0984cdfeacb1197faab3eb5b8b4242848f133af94e0ab11f5b",
          "blockNumber": "0x2619663",
          "blockTimestamp": "0x694d89a9",
          "transactionHash": "0xabe0f09723f13bd9209c9724c691c8a67b31c2a07d496b7524ee39919c9445cd",
          "transactionIndex": "0xa9",
          "logIndex": "0x1a2",
          "removed": false
        },
        {
          "address": "0xad473eaa51821c915d03d9db5349a0586d55e55e",
          "topics": [
            "0x36e13ba1e45df3ecb8f6beb6274a1f5d4abf4c0792bb56700354f0d50bf0acd7",
            "0x000000000000000000000000000000000000000000000000000000000000000f",
            "0x000000000000000000000000ad473eaa51821c915d03d9db5349a0586d55e55e"
          ],
          "data": "0x80db663b91d50261d3b6cf7c40f14617bc570551fdc50ae5d379aac6ea1fb5d50000000000000000000000000000000000000000000000000000000000000004000000000000000000000000000000000000000000000000000000000000006000000000000000000000000000000000000000000000000000000000000000043d0c000000000000000000000000000000000000000000000000000000000000",
          "blockHash": "0xb33ca2470ca93c0984cdfeacb1197faab3eb5b8b4242848f133af94e0ab11f5b",
          "blockNumber": "0x2619663",
          "blockTimestamp": "0x694d89a9",
          "transactionHash": "0xabe0f09723f13bd9209c9724c691c8a67b31c2a07d496b7524ee39919c9445cd",
          "transactionIndex": "0xa9",
          "logIndex": "0x1a3",
          "removed": false
        }
      ],
      "logsBloom": "0x00000000000000000000000000000000000000000000000000000000000400000000000000000000000000000000000000000000000000000000000000000000000000000000000000000000000000000000000010000000000000000002000000000000000000000000000000000040000000000400000000000000000000000000000000000800000000000200000000000000000000040002000000000000000004000000000000000000000000000000000000000000000000004000000000000000000000000000000000400000000000000000000000000000000800000000000200000000000000000000000000000000000000800000000000000000",
      "type": "0x2",
      "transactionHash": "0xabe0f09723f13bd9209c9724c691c8a67b31c2a07d496b7524ee39919c9445cd",
      "transactionIndex": "0xa9",
      "blockHash": "0xb33ca2470ca93c0984cdfeacb1197faab3eb5b8b4242848f133af94e0ab11f5b",
      "blockNumber": "0x2619663",
      "gasUsed": "0xd3f5",
      "effectiveGasPrice": "0x16f284",
      "blobGasUsed": "0x8a61",
      "from": "0xe403f79171b7050c78479f52e49e753d43e72c1a",
      "to": "0xad473eaa51821c915d03d9db5349a0586d55e55e",
      "contractAddress": null,
      "daFootprintGasScalar": "0x145",
      "l1BaseFeeScalar": "0x8dd",
      "l1BlobBaseFee": "0x18188c",
      "l1BlobBaseFeeScalar": "0x101c12",
      "l1Fee": "0x25bed849",
      "l1GasPrice": "0x193bcc9",
      "l1GasUsed": "0x6da"
    },
    {
      "status": "0x1",
      "cumulativeGasUsed": "0x174021b",
      "logs": [
        {
          "address": "0xad473eaa51821c915d03d9db5349a0586d55e55e",
          "topics": [
            "0x36e13ba1e45df3ecb8f6beb6274a1f5d4abf4c0792bb56700354f0d50bf0acd7",
            "0x000000000000000000000000000000000000000000000000000000000000000f",
            "0x000000000000000000000000e403f79171b7050c78479f52e49e753d43e72c1a"
          ],
          "data": "0x4442d021ec118fea7ce3641d3375363801af2e92adb1272f726cf20292795a62000000000000000000000000000000000000000000000000000000000000000500000000000000000000000000000000000000000000000000000000000000600000000000000000000000000000000000000000000000000000000000000004392a000000000000000000000000000000000000000000000000000000000000",
          "blockHash": "0xb33ca2470ca93c0984cdfeacb1197faab3eb5b8b4242848f133af94e0ab11f5b",
          "blockNumber": "0x2619663",
          "blockTimestamp": "0x694d89a9",
          "transactionHash": "0x618fb36d1b8289803acc67d6d1c3161bf5a9229c3c4dff8536d28a0af3c34f6e",
          "transactionIndex": "0xaa",
          "logIndex": "0x1a4",
          "removed": false
        },
        {
          "address": "0xad473eaa51821c915d03d9db5349a0586d55e55e",
          "topics": [
            "0x36e13ba1e45df3ecb8f6beb6274a1f5d4abf4c0792bb56700354f0d50bf0acd7",
            "0x000000000000000000000000000000000000000000000000000000000000000f",
            "0x000000000000000000000000ad473eaa51821c915d03d9db5349a0586d55e55e"
          ],
          "data": "0xe131cca08afe30756df90d03f27be0045be7f7a0d73031afbdf14f8a193cb8e6000000000000000000000000000000000000000000000000000000000000000600000000000000000000000000000000000000000000000000000000000000600000000000000000000000000000000000000000000000000000000000000004271a000000000000000000000000000000000000000000000000000000000000",
          "blockHash": "0xb33ca2470ca93c0984cdfeacb1197faab3eb5b8b4242848f133af94e0ab11f5b",
          "blockNumber": "0x2619663",
          "blockTimestamp": "0x694d89a9",
          "transactionHash": "0x618fb36d1b8289803acc67d6d1c3161bf5a9229c3c4dff8536d28a0af3c34f6e",
          "transactionIndex": "0xaa",
          "logIndex": "0x1a5",
          "removed": false
        }
      ],
      "logsBloom": "0x00000000000000000000000000000000000000000000000000000000000400000000000000000000000000000000000000000000000000000000000000000000000000000000000000000000000000000000000010000000000000000002000000000000000000000000000000000040000000000400000000000000000000000000000000000800000000000200000000000000000000040002000000000000000004000000000000000000000000000000000000000000000000004000000000000000000000000000000000400000000000000000000000000000000800000000000200000000000000000000000000000000000000800000000000000000",
      "type": "0x2",
      "transactionHash": "0x618fb36d1b8289803acc67d6d1c3161bf5a9229c3c4dff8536d28a0af3c34f6e",
      "transactionIndex": "0xaa",
      "blockHash": "0xb33ca2470ca93c0984cdfeacb1197faab3eb5b8b4242848f133af94e0ab11f5b",
      "blockNumber": "0x2619663",
      "gasUsed": "0xd3f5",
      "effectiveGasPrice": "0x16f284",
      "blobGasUsed": "0x8a61",
      "from": "0xe403f79171b7050c78479f52e49e753d43e72c1a",
      "to": "0xad473eaa51821c915d03d9db5349a0586d55e55e",
      "contractAddress": null,
      "daFootprintGasScalar": "0x145",
      "l1BaseFeeScalar": "0x8dd",
      "l1BlobBaseFee": "0x18188c",
      "l1BlobBaseFeeScalar": "0x101c12",
      "l1Fee": "0x25bed849",
      "l1GasPrice": "0x193bcc9",
      "l1GasUsed": "0x6da"
    },
    {
      "status": "0x1",
      "cumulativeGasUsed": "0x1759f9c",
      "logs": [
        {
          "address": "0xad473eaa51821c915d03d9db5349a0586d55e55e",
          "topics": [
            "0x36e13ba1e45df3ecb8f6beb6274a1f5d4abf4c0792bb56700354f0d50bf0acd7",
            "0x000000000000000000000000000000000000000000000000000000000000000f",
            "0x000000000000000000000000e403f79171b7050c78479f52e49e753d43e72c1a"
          ],
          "data": "0xc7183fc0754b5e7da3b74bf364f8affe59ffdf73627f9b8e7d4991d4453bd3640000000000000000000000000000000000000000000000000000000000000007000000000000000000000000000000000000000000000000000000000000006000000000000000000000000000000000000000000000000000000000000000043b2c000000000000000000000000000000000000000000000000000000000000",
          "blockHash": "0xb33ca2470ca93c0984cdfeacb1197faab3eb5b8b4242848f133af94e0ab11f5b",
          "blockNumber": "0x2619663",
          "blockTimestamp": "0x694d89a9",
          "transactionHash": "0x1ad083a3a21c1d1b6b6a2e7afa329418420406fd17d6e282b5f5b6dcf54570aa",
          "transactionIndex": "0xac",
          "logIndex": "0x1a6",
          "removed": false
        },
        {
          "address": "0xad473eaa51821c915d03d9db5349a0586d55e55e",
          "topics": [
            "0x36e13ba1e45df3ecb8f6beb6274a1f5d4abf4c0792bb56700354f0d50bf0acd7",
            "0x000000000000000000000000000000000000000000000000000000000000000f",
            "0x000000000000000000000000ad473eaa51821c915d03d9db5349a0586d55e55e"
          ],
          "data": "0xfa672e07d673b2d218b92d8ee0e059b5d1bfc274c1d1aaf67086a3dbe5f1587f0000000000000000000000000000000000000000000000000000000000000008000000000000000000000000000000000000000000000000000000000000006000000000000000000000000000000000000000000000000000000000000000042b13000000000000000000000000000000000000000000000000000000000000",
          "blockHash": "0xb33ca2470ca93c0984cdfeacb1197faab3eb5b8b4242848f133af94e0ab11f5b",
          "blockNumber": "0x2619663",
          "blockTimestamp": "0x694d89a9",
          "transactionHash": "0x1ad083a3a21c1d1b6b6a2e7afa329418420406fd17d6e282b5f5b6dcf54570aa",
          "transactionIndex": "0xac",
          "logIndex": "0x1a7",
          "removed": false
        }
      ],
      "logsBloom": "0x00000000000000000000000000000000000000000000000000000000000400000000000000000000000000000000000000000000000000000000000000000000000000000000000000000000000000000000000010000000000000000002000000000000000000000000000000000040000000000400000000000000000000000000000000000800000000000200000000000000000000040002000000000000000004000000000000000000000000000000000000000000000000004000000000000000000000000000000000400000000000000000000000000000000800000000000200000000000000000000000000000000000000800000000000000000",
      "type": "0x2",
      "transactionHash": "0x1ad083a3a21c1d1b6b6a2e7afa329418420406fd17d6e282b5f5b6dcf54570aa",
      "transactionIndex": "0xac",
      "blockHash": "0xb33ca2470ca93c0984cdfeacb1197faab3eb5b8b4242848f133af94e0ab11f5b",
      "blockNumber": "0x2619663",
      "gasUsed": "0xd3f5",
      "effectiveGasPrice": "0x16f284",
      "blobGasUsed": "0x8a61",
      "from": "0xe403f79171b7050c78479f52e49e753d43e72c1a",
      "to": "0xad473eaa51821c915d03d9db5349a0586d55e55e",
      "contractAddress": null,
      "daFootprintGasScalar": "0x145",
      "l1BaseFeeScalar": "0x8dd",
      "l1BlobBaseFee": "0x18188c",
      "l1BlobBaseFeeScalar": "0x101c12",
      "l1Fee": "0x25bed849",
      "l1GasPrice": "0x193bcc9",
      "l1GasUsed": "0x6da"
    },
    {
      "status": "0x1",
      "cumulativeGasUsed": "0x1a410b2",
      "logs": [
        {
          "address": "0xad473eaa51821c915d03d9db5349a0586d55e55e",
          "topics": [
            "0x36e13ba1e45df3ecb8f6beb6274a1f5d4abf4c0792bb56700354f0d50bf0acd7",
            "0x0000000000000000000000000000000000000000000000000000000000000010",
            "0x000000000000000000000000e403f79171b7050c78479f52e49e753d43e72c1a"
          ],
          "data": "0x90e396633e67bfb131a9c9b400ea842e0f29f45c4bc7872a0e80af48deb785040000000000000000000000000000000000000000000000000000000000000001000000000000000000000000000000000000000000000000000000000000006000000000000000000000000000000000000000000000000000000000000000043028000000000000000000000000000000000000000000000000000000000000",
          "blockHash": "0xa0b837be4dd0da0e8d00890b293ace6b04b70b287d862f0fa7e361958c2bda61",
          "blockNumber": "0x2619663",
          "blockTimestamp": "0x694d89a9",
          "transactionHash": "0x8d4045c3c2577f2ab6765b8ce7c0d76c4628e02cf0f4c10089cdb4aedcef0561",
          "transactionIndex": "0xc0",
          "logIndex": "0x1b7",
          "removed": false
        },
        {
          "address": "0xad473eaa51821c915d03d9db5349a0586d55e55e",
          "topics": [
            "0x36e13ba1e45df3ecb8f6beb6274a1f5d4abf4c0792bb56700354f0d50bf0acd7",
            "0x0000000000000000000000000000000000000000000000000000000000000010",
            "0x000000000000000000000000ad473eaa51821c915d03d9db5349a0586d55e55e"
          ],
          "data": "0x60e65b9330f95689004881ceb0c70271140d7a6c66037940d345a33188c341c30000000000000000000000000000000000000000000000000000000000000002000000000000000000000000000000000000000000000000000000000000006000000000000000000000000000000000000000000000000000000000000000043424000000000000000000000000000000000000000000000000000000000000",
          "blockHash": "0xa0b837be4dd0da0e8d00890b293ace6b04b70b287d862f0fa7e361958c2bda61",
          "blockNumber": "0x2619663",
          "blockTimestamp": "0x694d89a9",
          "transactionHash": "0x8d4045c3c2577f2ab6765b8ce7c0d76c4628e02cf0f4c10089cdb4aedcef0561",
          "transactionIndex": "0xc0",
          "logIndex": "0x1b8",
          "removed": false
        }
      ],
      "logsBloom": "0x00000000100000000000000000000000000000000000000000000000000400000000000000000000000000000000000000000000000000000000000000000000000000000000000000000000000000000000000010000000000000000000000000000000000000000000000000000040000000000400000000000000040000000000000000000000000000000200000000000100000000040002000000000000000004000000000000000000000000000000000000000000000000004000000000000000000000000000000000400000000000000000000000000000000800000000000000000000000000000000000000000000000000800000000000000000",
      "type": "0x2",
      "transactionHash": "0x8d4045c3c2577f2ab6765b8ce7c0d76c4628e02cf0f4c10089cdb4aedcef0561",
      "transactionIndex": "0xc0",
      "blockHash": "0xa0b837be4dd0da0e8d00890b293ace6b04b70b287d862f0fa7e361958c2bda61",
      "blockNumber": "0x2619663",
      "gasUsed": "0x120fb",
      "effectiveGasPrice": "0x16f284",
      "blobGasUsed": "0x8a61",
      "from": "0xe403f79171b7050c78479f52e49e753d43e72c1a",
      "to": "0xad473eaa51821c915d03d9db5349a0586d55e55e",
      "contractAddress": null,
      "daFootprintGasScalar": "0x145",
      "l1BaseFeeScalar": "0x8dd",
      "l1BlobBaseFee": "0x18188c",
      "l1BlobBaseFeeScalar": "0x101c12",
      "l1Fee": "0x25bed849",
      "l1GasPrice": "0x193bcc9",
      "l1GasUsed": "0x6da"
    },
    {
      "status": "0x1",
      "cumulativeGasUsed": "0x1a4e4a7",
      "logs": [
        {
          "address": "0xad473eaa51821c915d03d9db5349a0586d55e55e",
          "topics": [
            "0x36e13ba1e45df3ecb8f6beb6274a1f5d4abf4c0792bb56700354f0d50bf0acd7",
            "0x0000000000000000000000000000000000000000000000000000000000000010",
            "0x000000000000000000000000e403f79171b7050c78479f52e49e753d43e72c1a"
          ],
          "data": "0xfc6cc8976638831fc84ceab234894f532e0338e7268a3303d4c0c1939f85dbb90000000000000000000000000000000000000000000000000000000000000003000000000000000000000000000000000000000000000000000000000000006000000000000000000000000000000000000000000000000000000000000000043222000000000000000000000000000000000000000000000000000000000000",
          "blockHash": "0x5cfb7f7b9474cdd5ca8c5d3737b5bcb5fe208933b82a4fba65db30ba6b7841e7",
          "blockNumber": "0x2619663",
          "blockTimestamp": "0x694d89a9",
          "transactionHash": "0x1eea9f3540da01fbaedc7d53f02e204e61a3890641928b72a14e15a6fa80d61e",
          "transactionIndex": "0xc1",
          "logIndex": "0x1b9",
          "removed": false
        },
        {
          "address": "0xad473eaa51821c915d03d9db5349a0586d55e55e",
          "topics": [
            "0x36e13ba1e45df3ecb8f6beb6274a1f5d4abf4c0792bb56700354f0d50bf0acd7",
            "0x0000000000000000000000000000000000000000000000000000000000000010",
            "0x000000000000000000000000ad473eaa51821c915d03d9db5349a0586d55e55e"
          ],
          "data": "0x0192d1e4a25acce6e7a2d4e8900eba6030b412ccc2d92d174c541b9d6055ff390000000000000000000000000000000000000000000000000000000000000004000000000000000000000000000000000000000000000000000000000000006000000000000000000000000000000000000000000000000000000000000000043c1b000000000000000000000000000000000000000000000000000000000000",
          "blockHash": "0x5cfb7f7b9474cdd5ca8c5d3737b5bcb5fe208933b82a4fba65db30ba6b7841e7",
          "blockNumber": "0x2619663",
          "blockTimestamp": "0x694d89a9",
          "transactionHash": "0x1eea9f3540da01fbaedc7d53f02e204e61a3890641928b72a14e15a6fa80d61e",
          "transactionIndex": "0xc1",
          "logIndex": "0x1ba",
          "removed": false
        }
      ],
      "logsBloom": "0x00000000100000000000000000000000000000000000000000000000000400000000000000000000000000000000000000000000000000000000000000000000000000000000000000000000000000000000000010000000000000000000000000000000000000000000000000000040000000000400000000000000040000000000000000000000000000000200000000000100000000040002000000000000000004000000000000000000000000000000000000000000000000004000000000000000000000000000000000400000000000000000000000000000000800000000000000000000000000000000000000000000000000800000000000000000",
      "type": "0x2",
      "transactionHash": "0x1eea9f3540da01fbaedc7d53f02e204e61a3890641928b72a14e15a6fa80d61e",
      "transactionIndex": "0xc1",
      "blockHash": "0x5cfb7f7b9474cdd5ca8c5d3737b5bcb5fe208933b82a4fba65db30ba6b7841e7",
      "blockNumber": "0x2619663",
      "gasUsed": "0xd3f5",
      "effectiveGasPrice": "0x16f284",
      "blobGasUsed": "0x8a61",
      "from": "0xe403f79171b7050c78479f52e49e753d43e72c1a",
      "to": "0xad473eaa51821c915d03d9db5349a0586d55e55e",
      "contractAddress": null,
      "daFootprintGasScalar": "0x145",
      "l1BaseFeeScalar": "0x8dd",
      "l1BlobBaseFee": "0x18188c",
      "l1BlobBaseFeeScalar": "0x101c12",
      "l1Fee": "0x112ce951",
      "l1GasPrice": "0x193bcc9",
      "l1GasUsed": "0x6da"
    },
    {
      "status": "0x1",
      "cumulativeGasUsed": "0x1a5b89c",
      "logs": [
        {
          "address": "0xad473eaa51821c915d03d9db5349a0586d55e55e",
          "topics": [
            "0x36e13ba1e45df3ecb8f6beb6274a1f5d4abf4c0792bb56700354f0d50bf0acd7",
            "0x0000000000000000000000000000000000000000000000000000000000000010",
            "0x000000000000000000000000e403f79171b7050c78479f52e49e753d43e72c1a"
          ],
          "data": "0xbb9afb9861b8290cda948e4af3b636449a44547dca4c3acbc45e65f4e22aab400000000000000000000000000000000000000000000000000000000000000005000000000000000000000000000000000000000000000000000000000000006000000000000000000000000000000000000000000000000000000000000000043129000000000000000000000000000000000000000000000000000000000000",
          "blockHash": "0xa0b837be4dd0da0e8d00890b293ace6b04b70b287d862f0fa7e361958c2bda61",
          "blockNumber": "0x2619663",
          "blockTimestamp": "0x694d89a9",
          "transactionHash": "0xa4cff10cca1970561e6e3af9834bcbcf7051bf81fa926502a0723c8caa93d6cc",
          "transactionIndex": "0xc2",
          "logIndex": "0x1bb",
          "removed": false
        },
        {
          "address": "0xad473eaa51821c915d03d9db5349a0586d55e55e",
          "topics": [
            "0x36e13ba1e45df3ecb8f6beb6274a1f5d4abf4c0792bb56700354f0d50bf0acd7",
            "0x0000000000000000000000000000000000000000000000000000000000000010",
            "0x000000000000000000000000ad473eaa51821c915d03d9db5349a0586d55e55e"
          ],
          "data": "0x2760255e5f8c0d33599f68866f7b7bdd30ba831d73410b4548d9b6c2e2478d1c000000000000000000000000000000000000000000000000000000000000000600000000000000000000000000000000000000000000000000000000000000600000000000000000000000000000000000000000000000000000000000000004052b000000000000000000000000000000000000000000000000000000000000",
          "blockHash": "0xa0b837be4dd0da0e8d00890b293ace6b04b70b287d862f0fa7e361958c2bda61",
          "blockNumber": "0x2619663",
          "blockTimestamp": "0x694d89a9",
          "transactionHash": "0xa4cff10cca1970561e6e3af9834bcbcf7051bf81fa926502a0723c8caa93d6cc",
          "transactionIndex": "0xc2",
          "logIndex": "0x1bc",
          "removed": false
        }
      ],
      "logsBloom": "0x00000000100000000000000000000000000000000000000000000000000400000000000000000000000000000000000000000000000000000000000000000000000000000000000000000000000000000000000010000000000000000000000000000000000000000000000000000040000000000400000000000000040000000000000000000000000000000200000000000100000000040002000000000000000004000000000000000000000000000000000000000000000000004000000000000000000000000000000000400000000000000000000000000000000800000000000000000000000000000000000000000000000000800000000000000000",
      "type": "0x2",
      "transactionHash": "0xa4cff10cca1970561e6e3af9834bcbcf7051bf81fa926502a0723c8caa93d6cc",
      "transactionIndex": "0xc2",
      "blockHash": "0xa0b837be4dd0da0e8d00890b293ace6b04b70b287d862f0fa7e361958c2bda61",
      "blockNumber": "0x2619663",
      "gasUsed": "0xd3f5",
      "effectiveGasPrice": "0x16f284",
      "blobGasUsed": "0x891c",
      "from": "0xe403f79171b7050c78479f52e49e753d43e72c1a",
      "to": "0xad473eaa51821c915d03d9db5349a0586d55e55e",
      "contractAddress": null,
      "daFootprintGasScalar": "0x145",
      "l1BaseFeeScalar": "0x8dd",
      "l1BlobBaseFee": "0x18188c",
      "l1BlobBaseFeeScalar": "0x101c12",
      "l1Fee": "0x25bed849",
      "l1GasPrice": "0x193bcc9",
      "l1GasUsed": "0x6cd"
    },
    {
      "status": "0x1",
      "cumulativeGasUsed": "0x1a68c91",
      "logs": [
        {
          "address": "0xad473eaa51821c915d03d9db5349a0586d55e55e",
          "topics": [
            "0x36e13ba1e45df3ecb8f6beb6274a1f5d4abf4c0792bb56700354f0d50bf0acd7",
            "0x0000000000000000000000000000000000000000000000000000000000000010",
            "0x000000000000000000000000e403f79171b7050c78479f52e49e753d43e72c1a"
          ],
          "data": "0x2a4b22ea265f7017c3f5040f1eec7d58baac29eda24dc699336157972973d8e10000000000000000000000000000000000000000000000000000000000000007000000000000000000000000000000000000000000000000000000000000006000000000000000000000000000000000000000000000000000000000000000043a2b000000000000000000000000000000000000000000000000000000000000",
          "blockHash": "0xa0b837be4dd0da0e8d00890b293ace6b04b70b287d862f0fa7e361958c2bda61",
          "blockNumber": "0x2619663",
          "blockTimestamp": "0x694d89a9",
          "transactionHash": "0xe1c67f204233da88b1ac5419deb324b11c7230563014c4501beb65bdf6e64db6",
          "transactionIndex": "0xc3",
          "logIndex": "0x1bd",
          "removed": false
        },
        {
          "address": "0xad473eaa51821c915d03d9db5349a0586d55e55e",
          "topics": [
            "0x36e13ba1e45df3ecb8f6beb6274a1f5d4abf4c0792bb56700354f0d50bf0acd7",
            "0x0000000000000000000000000000000000000000000000000000000000000010",
            "0x000000000000000000000000ad473eaa51821c915d03d9db5349a0586d55e55e"
          ],
          "data": "0x55f26890947882f1207e2a875a0d392857a077e9af9ea320f39541f65d9244dd0000000000000000000000000000000000000000000000000000000000000008000000000000000000000000000000000000000000000000000000000000006000000000000000000000000000000000000000000000000000000000000000042818000000000000000000000000000000000000000000000000000000000000",
          "blockHash": "0xa0b837be4dd0da0e8d00890b293ace6b04b70b287d862f0fa7e361958c2bda61",
          "blockNumber": "0x2619663",
          "blockTimestamp": "0x694d89a9",
          "transactionHash": "0xe1c67f204233da88b1ac5419deb324b11c7230563014c4501beb65bdf6e64db6",
          "transactionIndex": "0xc3",
          "logIndex": "0x1be",
          "removed": false
        }
      ],
      "logsBloom": "0x00000000100000000000000000000000000000000000000000000000000400000000000000000000000000000000000000000000000000000000000000000000000000000000000000000000000000000000000010000000000000000000000000000000000000000000000000000040000000000400000000000000040000000000000000000000000000000200000000000100000000040002000000000000000004000000000000000000000000000000000000000000000000004000000000000000000000000000000000400000000000000000000000000000000800000000000000000000000000000000000000000000000000800000000000000000",
      "type": "0x2",
      "transactionHash": "0xe1c67f204233da88b1ac5419deb324b11c7230563014c4501beb65bdf6e64db6",
      "transactionIndex": "0xc3",
      "blockHash": "0xa0b837be4dd0da0e8d00890b293ace6b04b70b287d862f0fa7e361958c2bda61",
      "blockNumber": "0x2619663",
      "gasUsed": "0xd3f5",
      "effectiveGasPrice": "0x16f284",
      "blobGasUsed": "0x8a61",
      "from": "0xe403f79171b7050c78479f52e49e753d43e72c1a",
      "to": "0xad473eaa51821c915d03d9db5349a0586d55e55e",
      "contractAddress": null,
      "daFootprintGasScalar": "0x145",
      "l1BaseFeeScalar": "0x8dd",
      "l1BlobBaseFee": "0x18188c",
      "l1BlobBaseFeeScalar": "0x101c12",
      "l1Fee": "0x25bed849",
      "l1GasPrice": "0x193bcc9",
      "l1GasUsed": "0x6da"
    }
  ],
  "libraries": [],
  "pending": [],
  "returns": {},
  "timestamp": 1766689195048,
  "chain": 8453,
  "commit": "1b5b336"
}