{
  "transactions": [
    {
      "hash": null,
      "transactionType": "CALL",
      "contractName": null,
      "contractAddress": "0xad473eaa51821c915d03d9db5349a0586d55e55e",
      "function": "createMatch(uint8,uint8,address,uint256,bytes32)",
      "arguments": [
        "1",
        "0",
        "0x0000000000000000000000000000000000000000",
        "0",
        "0x3608f503d624b47779fba399a097e68bc35cdbd22fcf04e3d6b7a3bd8fa9b746"
      ],
      "transaction": {
        "from": "0xe403f79171b7050c78479f52e49e753d43e72c1a",
        "to": "0xad473eaa51821c915d03d9db5349a0586d55e55e",
        "gas": "0x52a7d",
        "value": "0x0",
        "input": "0xea994fab00000000000000000000000000000000000000000000000000000000000000010000000000000000000000000000000000000000000000000000000000000000000000000000000000000000000000000000000000000000000000000000000000000000000000000000000000000000000000000000000000000000000000003608f503d624b47779fba399a097e68bc35cdbd22fcf04e3d6b7a3bd8fa9b746",
        "nonce": "0x65f",
        "chainId": "0x2105"
      },
      "additionalContracts": [],
      "isFixedGasLimit": false
    },
    {
      "hash": null,
      "transactionType": "CALL",
      "contractName": null,
      "contractAddress": "0xad473eaa51821c915d03d9db5349a0586d55e55e",
      "function": "createMatch(uint8,uint8,address,uint256,bytes32)",
      "arguments": [
        "1",
        "0",
        "0x0000000000000000000000000000000000000000",
        "0",
        "0x3608f503d624b47779fba399a097e68bc35cdbd22fcf04e3d6b7a3bd8fa9b746"
      ],
      "transaction": {
        "from": "0xe403f79171b7050c78479f52e49e753d43e72c1a",
        "to": "0xad473eaa51821c915d03d9db5349a0586d55e55e",
        "gas": "0x52a7d",
        "value": "0x0",
        "input": "0xea994fab00000000000000000000000000000000000000000000000000000000000000010000000000000000000000000000000000000000000000000000000000000000000000000000000000000000000000000000000000000000000000000000000000000000000000000000000000000000000000000000000000000000000000003608f503d624b47779fba399a097e68bc35cdbd22fcf04e3d6b7a3bd8fa9b746",
        "nonce": "0x660",
        "chainId": "0x2105"
      },
      "additionalContracts": [],
      "isFixedGasLimit": false
    },
    {
      "hash": null,
      "transactionType": "CALL",
      "contractName": null,
      "contractAddress": "0xad473eaa51821c915d03d9db5349a0586d55e55e",
      "function": "createMatch(uint8,uint8,address,uint256,bytes32)",
      "arguments": [
        "1",
        "0",
        "0x0000000000000000000000000000000000000000",
        "0",
        "0x3608f503d624b47779fba399a097e68bc35cdbd22fcf04e3d6b7a3bd8fa9b746"
      ],
      "transaction": {
        "from": "0xe403f79171b7050c78479f52e49e753d43e72c1a",
        "to": "0xad473eaa51821c915d03d9db5349a0586d55e55e",
        "gas": "0x52a7d",
        "value": "0x0",
        "input": "0xea994fab00000000000000000000000000000000000000000000000000000000000000010000000000000000000000000000000000000000000000000000000000000000000000000000000000000000000000000000000000000000000000000000000000000000000000000000000000000000000000000000000000000000000000003608f503d624b47779fba399a097e68bc35cdbd22fcf04e3d6b7a3bd8fa9b746",
        "nonce": "0x661",
        "chainId": "0x2105"
      },
      "additionalContracts": [],
      "isFixedGasLimit": false
    },
    {
      "hash": null,
      "transactionType": "CALL",
      "contractName": null,
      "contractAddress": "0xad473eaa51821c915d03d9db5349a0586d55e55e",
      "function": "createMatch(uint8,uint8,address,uint256,bytes32)",
      "arguments": [
        "1",
        "0",
        "0x0000000000000000000000000000000000000000",
        "0",
        "0x3608f503d624b47779fba399a097e68bc35cdbd22fcf04e3d6b7a3bd8fa9b746"
      ],
      "transaction": {
        "from": "0xe403f79171b7050c78479f52e49e753d43e72c1a",
        "to": "0xad473eaa51821c915d03d9db5349a0586d55e55e",
        "gas": "0x52a7d",
        "value": "0x0",
        "input": "0xea994fab00000000000000000000000000000000000000000000000000000000000000010000000000000000000000000000000000000000000000000000000000000000000000000000000000000000000000000000000000000000000000000000000000000000000000000000000000000000000000000000000000000000000000003608f503d624b47779fba399a097e68bc35cdbd22fcf04e3d6b7a3bd8fa9b746",
        "nonce": "0x662",
        "chainId": "0x2105"
      },
      "additionalContracts": [],
      "isFixedGasLimit": false
    },
    {
      "hash": null,
      "transactionType": "CALL",
      "contractName": null,
      "contractAddress": "0xad473eaa51821c915d03d9db5349a0586d55e55e",
      "function": "createMatch(uint8,uint8,address,uint256,bytes32)",
      "arguments": [
        "1",
        "0",
        "0x0000000000000000000000000000000000000000",
        "0",
        "0x3608f503d624b47779fba399a097e68bc35cdbd22fcf04e3d6b7a3bd8fa9b746"
      ],
      "transaction": {
        "from": "0xe403f79171b7050c78479f52e49e753d43e72c1a",
        "to": "0xad473eaa51821c915d03d9db5349a0586d55e55e",
        "gas": "0x52a7d",
        "value": "0x0",
        "input": "0xea994fab00000000000000000000000000000000000000000000000000000000000000010000000000000000000000000000000000000000000000000000000000000000000000000000000000000000000000000000000000000000000000000000000000000000000000000000000000000000000000000000000000000000000000003608f503d624b47779fba399a097e68bc35cdbd22fcf04e3d6b7a3bd8fa9b746",
        "nonce": "0x663",
        "chainId": "0x2105"
      },
      "additionalContracts": [],
      "isFixedGasLimit": false
    },
    {
      "hash": null,
      "transactionType": "CALL",
      "contractName": null,
      "contractAddress": "0xad473eaa51821c915d03d9db5349a0586d55e55e",
      "function": "createMatch(uint8,uint8,address,uint256,bytes32)",
      "arguments": [
        "1",
        "0",
        "0x0000000000000000000000000000000000000000",
        "0",
        "0x3608f503d624b47779fba399a097e68bc35cdbd22fcf04e3d6b7a3bd8fa9b746"
      ],
      "transaction": {
        "from": "0xe403f79171b7050c78479f52e49e753d43e72c1a",
        "to": "0xad473eaa51821c915d03d9db5349a0586d55e55e",
        "gas": "0x52a7d",
        "value": "0x0",
        "input": "0xea994fab00000000000000000000000000000000000000000000000000000000000000010000000000000000000000000000000000000000000000000000000000000000000000000000000000000000000000000000000000000000000000000000000000000000000000000000000000000000000000000000000000000000000000003608f503d624b47779fba399a097e68bc35cdbd22fcf04e3d6b7a3bd8fa9b746",
        "nonce": "0x664",
        "chainId": "0x2105"
      },
      "additionalContracts": [],
      "isFixedGasLimit": false
    },
    {
      "hash": null,
      "transactionType": "CALL",
      "contractName": null,
      "contractAddress": "0xad473eaa51821c915d03d9db5349a0586d55e55e",
      "function": "createMatch(uint8,uint8,address,uint256,bytes32)",
      "arguments": [
        "1",
        "0",
        "0x0000000000000000000000000000000000000000",
        "0",
        "0x3608f503d624b47779fba399a097e68bc35cdbd22fcf04e3d6b7a3bd8fa9b746"
      ],
      "transaction": {
        "from": "0xe403f79171b7050c78479f52e49e753d43e72c1a",
        "to": "0xad473eaa51821c915d03d9db5349a0586d55e55e",
        "gas": "0x52a7d",
        "value": "0x0",
        "input": "0xea994fab00000000000000000000000000000000000000000000000000000000000000010000000000000000000000000000000000000000000000000000000000000000000000000000000000000000000000000000000000000000000000000000000000000000000000000000000000000000000000000000000000000000000000003608f503d624b47779fba399a097e68bc35cdbd22fcf04e3d6b7a3bd8fa9b746",
        "nonce": "0x665",
        "chainId": "0x2105"
      },
      "additionalContracts": [],
      "isFixedGasLimit": false
    },
    {
      "hash": null,
      "transactionType": "CALL",
      "contractName": null,
      "contractAddress": "0xad473eaa51821c915d03d9db5349a0586d55e55e",
      "function": "createMatch(uint8,uint8,address,uint256,bytes32)",
      "arguments": [
        "1",
        "0",
        "0x0000000000000000000000000000000000000000",
        "0",
        "0x3608f503d624b47779fba399a097e68bc35cdbd22fcf04e3d6b7a3bd8fa9b746"
      ],
      "transaction": {
        "from": "0xe403f79171b7050c78479f52e49e753d43e72c1a",
        "to": "0xad473eaa51821c915d03d9db5349a0586d55e55e",
        "gas": "0x52a7d",
        "value": "0x0",
        "input": "0xea994fab00000000000000000000000000000000000000000000000000000000000000010000000000000000000000000000000000000000000000000000000000000000000000000000000000000000000000000000000000000000000000000000000000000000000000000000000000000000000000000000000000000000000000003608f503d624b47779fba399a097e68bc35cdbd22fcf04e3d6b7a3bd8fa9b746",
        "nonce": "0x666",
        "chainId": "0x2105"
      },
      "additionalContracts": [],
      "isFixedGasLimit": false
    },
    {
      "hash": null,
      "transactionType": "CALL",
      "contractName": null,
      "contractAddress": "0xad473eaa51821c915d03d9db5349a0586d55e55e",
      "function": "createMatch(uint8,uint8,address,uint256,bytes32)",
      "arguments": [
        "1",
        "0",
        "0x0000000000000000000000000000000000000000",
        "0",
        "0x3608f503d624b47779fba399a097e68bc35cdbd22fcf04e3d6b7a3bd8fa9b746"
      ],
      "transaction": {
        "from": "0xe403f79171b7050c78479f52e49e753d43e72c1a",
        "to": "0xad473eaa51821c915d03d9db5349a0586d55e55e",
        "gas": "0x52a7d",
        "value": "0x0",
        "input": "0xea994fab00000000000000000000000000000000000000000000000000000000000000010000000000000000000000000000000000000000000000000000000000000000000000000000000000000000000000000000000000000000000000000000000000000000000000000000000000000000000000000000000000000000000000003608f503d624b47779fba399a097e68bc35cdbd22fcf04e3d6b7a3bd8fa9b746",
        "nonce": "0x667",
        "chainId": "0x2105"
      },
      "additionalContracts": [],
      "isFixedGasLimit": false
    },
    {
      "hash": null,
      "transactionType": "CALL",
      "contractName": null,
      "contractAddress": "0xad473eaa51821c915d03d9db5349a0586d55e55e",
      "function": "createMatch(uint8,uint8,address,uint256,bytes32)",
      "arguments": [
        "1",
        "0",
        "0x0000000000000000000000000000000000000000",
        "0",
        "0x3608f503d624b47779fba399a097e68bc35cdbd22fcf04e3d6b7a3bd8fa9b746"
      ],
      "transaction": {
        "from": "0xe403f79171b7050c78479f52e49e753d43e72c1a",
        "to": "0xad473eaa51821c915d03d9db5349a0586d55e55e",
        "gas": "0x52a7d",
        "value": "0x0",
        "input": "0xea994fab00000000000000000000000000000000000000000000000000000000000000010000000000000000000000000000000000000000000000000000000000000000000000000000000000000000000000000000000000000000000000000000000000000000000000000000000000000000000000000000000000000000000000003608f503d624b47779fba399a097e68bc35cdbd22fcf04e3d6b7a3bd8fa9b746",
        "nonce": "0x668",
        "chainId": "0x2105"
      },
      "additionalContracts": [],
      "isFixedGasLimit": false
    },
    {
      "hash": null,
      "transactionType": "CALL",
      "contractName": null,
      "contractAddress": "0xad473eaa51821c915d03d9db5349a0586d55e55e",
      "function": "createMatch(uint8,uint8,address,uint256,bytes32)",
      "arguments": [
        "1",
        "0",
        "0x0000000000000000000000000000000000000000",
        "0",
        "0x3608f503d624b47779fba399a097e68bc35cdbd22fcf04e3d6b7a3bd8fa9b746"
      ],
      "transaction": {
        "from": "0xe403f79171b7050c78479f52e49e753d43e72c1a",
        "to": "0xad473eaa51821c915d03d9db5349a0586d55e55e",
        "gas": "0x52a7d",
        "value": "0x0",
        "input": "0xea994fab00000000000000000000000000000000000000000000000000000000000000010000000000000000000000000000000000000000000000000000000000000000000000000000000000000000000000000000000000000000000000000000000000000000000000000000000000000000000000000000000000000000000000003608f503d624b47779fba399a097e68bc35cdbd22fcf04e3d6b7a3bd8fa9b746",
        "nonce": "0x669",
        "chainId": "0x2105"
      },
      "additionalContracts": [],
      "isFixedGasLimit": false
    },
    {
      "hash": null,
      "transactionType": "CALL",
      "contractName": null,
      "contractAddress": "0xad473eaa51821c915d03d9db5349a0586d55e55e",
      "function": "createMatch(uint8,uint8,address,uint256,bytes32)",
      "arguments": [
        "1",
        "0",
        "0x0000000000000000000000000000000000000000",
        "0",
        "0x3608f503d624b47779fba399a097e68bc35cdbd22fcf04e3d6b7a3bd8fa9b746"
      ],
      "transaction": {
        "from": "0xe403f79171b7050c78479f52e49e753d43e72c1a",
        "to": "0xad473eaa51821c915d03d9db5349a0586d55e55e",
        "gas": "0x52a7d",
        "value": "0x0",
        "input": "0xea994fab00000000000000000000000000000000000000000000000000000000000000010000000000000000000000000000000000000000000000000000000000000000000000000000000000000000000000000000000000000000000000000000000000000000000000000000000000000000000000000000000000000000000000003608f503d624b47779fba399a097e68bc35cdbd22fcf04e3d6b7a3bd8fa9b746",
        "nonce": "0x66a",
        "chainId": "0x2105"
      },
      "additionalContracts": [],
      "isFixedGasLimit": false
    },
    {
      "hash": null,
      "transactionType": "CALL",
      "contractName": null,
      "contractAddress": "0xad473eaa51821c915d03d9db5349a0586d55e55e",
      "function": "createMatch(uint8,uint8,address,uint256,bytes32)",
      "arguments": [
        "1",
        "0",
        "0x0000000000000000000000000000000000000000",
        "0",
        "0x3608f503d624b47779fba399a097e68bc35cdbd22fcf04e3d6b7a3bd8fa9b746"
      ],
      "transaction": {
        "from": "0xe403f79171b7050c78479f52e49e753d43e72c1a",
        "to": "0xad473eaa51821c915d03d9db5349a0586d55e55e",
        "gas": "0x52a7d",
        "value": "0x0",
        "input": "0xea994fab00000000000000000000000000000000000000000000000000000000000000010000000000000000000000000000000000000000000000000000000000000000000000000000000000000000000000000000000000000000000000000000000000000000000000000000000000000000000000000000000000000000000000003608f503d624b47779fba399a097e68bc35cdbd22fcf04e3d6b7a3bd8fa9b746",
        "nonce": "0x66b",
        "chainId": "0x2105"
      },
      "additionalContracts": [],
      "isFixedGasLimit": false
    },
    {
      "hash": null,
      "transactionType": "CALL",
      "contractName": null,
      "contractAddress": "0xad473eaa51821c915d03d9db5349a0586d55e55e",
      "function": "createMatch(uint8,uint8,address,uint256,bytes32)",
      "arguments": [
        "1",
        "0",
        "0x0000000000000000000000000000000000000000",
        "0",
        "0x3608f503d624b47779fba399a097e68bc35cdbd22fcf04e3d6b7a3bd8fa9b746"
      ],
      "transaction": {
        "from": "0xe403f79171b7050c78479f52e49e753d43e72c1a",
        "to": "0xad473eaa51821c915d03d9db5349a0586d55e55e",
        "gas": "0x52a7d",
        "value": "0x0",
        "input": "0xea994fab00000000000000000000000000000000000000000000000000000000000000010000000000000000000000000000000000000000000000000000000000000000000000000000000000000000000000000000000000000000000000000000000000000000000000000000000000000000000000000000000000000000000000003608f503d624b47779fba399a097e68bc35cdbd22fcf04e3d6b7a3bd8fa9b746",
        "nonce": "0x66c",
        "chainId": "0x2105"
      },
      "additionalContracts": [],
      "isFixedGasLimit": false
    },
    {
      "hash": null,
      "transactionType": "CALL",
      "contractName": null,
      "contractAddress": "0xad473eaa51821c915d03d9db5349a0586d55e55e",
      "function": "createMatch(uint8,uint8,address,uint256,bytes32)",
      "arguments": [
        "1",
        "0",
        "0x0000000000000000000000000000000000000000",
        "0",
        "0x3608f503d624b47779fba399a097e68bc35cdbd22fcf04e3d6b7a3bd8fa9b746"
      ],
      "transaction": {
        "from": "0xe403f79171b7050c78479f52e49e753d43e72c1a",
        "to": "0xad473eaa51821c915d03d9db5349a0586d55e55e",
        "gas": "0x52a7d",
        "value": "0x0",
        "input": "0xea994fab00000000000000000000000000000000000000000000000000000000000000010000000000000000000000000000000000000000000000000000000000000000000000000000000000000000000000000000000000000000000000000000000000000000000000000000000000000000000000000000000000000000000000003608f503d624b47779fba399a097e68bc35cdbd22fcf04e3d6b7a3bd8fa9b746",
        "nonce": "0x66d",
        "chainId": "0x2105"
      },
      "additionalContracts": [],
      "isFixedGasLimit": false
    },
    {
      "hash": null,
      "transactionType": "CALL",
      "contractName": null,
      "contractAddress": "0xad473eaa51821c915d03d9db5349a0586d55e55e",
      "function": "createMatch(uint8,uint8,address,uint256,bytes32)",
      "arguments": [
        "1",
        "0",
        "0x0000000000000000000000000000000000000000",
        "0",
        "0x3608f503d624b47779fba399a097e68bc35cdbd22fcf04e3d6b7a3bd8fa9b746"
      ],
      "transaction": {
        "from": "0xe403f79171b7050c78479f52e49e753d43e72c1a",
        "to": "0xad473eaa51821c915d03d9db5349a0586d55e55e",
        "gas": "0x52a7d",
        "value": "0x0",
        "input": "0xea994fab00000000000000000000000000000000000000000000000000000000000000010000000000000000000000000000000000000000000000000000000000000000000000000000000000000000000000000000000000000000000000000000000000000000000000000000000000000000000000000000000000000000000000003608f503d624b47779fba399a097e68bc35cdbd22fcf04e3d6b7a3bd8fa9b746",
        "nonce": "0x66e",
        "chainId": "0x2105"
      },
      "additionalContracts": [],
      "isFixedGasLimit": false
    },
    {
      "hash": null,
      "transactionType": "CALL",
      "contractName": null,
      "contractAddress": "0xad473eaa51821c915d03d9db5349a0586d55e55e",
      "function": "createMatch(uint8,uint8,address,uint256,bytes32)",
      "arguments": [
        "1",
        "0",
        "0x0000000000000000000000000000000000000000",
        "0",
        "0x3608f503d624b47779fba399a097e68bc35cdbd22fcf04e3d6b7a3bd8fa9b746"
      ],
      "transaction": {
        "from": "0xe403f79171b7050c78479f52e49e753d43e72c1a",
        "to": "0xad473eaa51821c915d03d9db5349a0586d55e55e",
        "gas": "0x52a7d",
        "value": "0x0",
        "input": "0xea994fab00000000000000000000000000000000000000000000000000000000000000010000000000000000000000000000000000000000000000000000000000000000000000000000000000000000000000000000000000000000000000000000000000000000000000000000000000000000000000000000000000000000000000003608f503d624b47779fba399a097e68bc35cdbd22fcf04e3d6b7a3bd8fa9b746",
        "nonce": "0x66f",
        "chainId": "0x2105"
      },
      "additionalContracts": [],
      "isFixedGasLimit": false
    },
    {
      "hash": null,
      "transactionType": "CALL",
      "contractName": null,
      "contractAddress": "0xad473eaa51821c915d03d9db5349a0586d55e55e",
      "function": "createMatch(uint8,uint8,address,uint256,bytes32)",
      "arguments": [
        "1",
        "0",
        "0x0000000000000000000000000000000000000000",
        "0",
        "0x3608f503d624b47779fba399a097e68bc35cdbd22fcf04e3d6b7a3bd8fa9b746"
      ],
      "transaction": {
        "from": "0xe403f79171b7050c78479f52e49e753d43e72c1a",
        "to": "0xad473eaa51821c915d03d9db5349a0586d55e55e",
        "gas": "0x52a7d",
        "value": "0x0",
        "input": "0xea994fab00000000000000000000000000000000000000000000000000000000000000010000000000000000000000000000000000000000000000000000000000000000000000000000000000000000000000000000000000000000000000000000000000000000000000000000000000000000000000000000000000000000000000003608f503d624b47779fba399a097e68bc35cdbd22fcf04e3d6b7a3bd8fa9b746",
        "nonce": "0x670",
        "chainId": "0x2105"
      },
      "additionalContracts": [],
      "isFixedGasLimit": false
    },
    {
      "hash": null,
      "transactionType": "CALL",
      "contractName": null,
      "contractAddress": "0xad473eaa51821c915d03d9db5349a0586d55e55e",
      "function": "createMatch(uint8,uint8,address,uint256,bytes32)",
      "arguments": [
        "1",
        "0",
        "0x0000000000000000000000000000000000000000",
        "0",
        "0x3608f503d624b47779fba399a097e68bc35cdbd22fcf04e3d6b7a3bd8fa9b746"
      ],
      "transaction": {
        "from": "0xe403f79171b7050c78479f52e49e753d43e72c1a",
        "to": "0xad473eaa51821c915d03d9db5349a0586d55e55e",
        "gas": "0x52a7d",
        "value": "0x0",
        "input": "0xea994fab00000000000000000000000000000000000000000000000000000000000000010000000000000000000000000000000000000000000000000000000000000000000000000000000000000000000000000000000000000000000000000000000000000000000000000000000000000000000000000000000000000000000000003608f503d624b47779fba399a097e68bc35cdbd22fcf04e3d6b7a3bd8fa9b746",
        "nonce": "0x671",
        "chainId": "0x2105"
      },
      "additionalContracts": [],
      "isFixedGasLimit": false
    },
    {
      "hash": null,
      "transactionType": "CALL",
      "contractName": null,
      "contractAddress": "0xad473eaa51821c915d03d9db5349a0586d55e55e",
      "function": "createMatch(uint8,uint8,address,uint256,bytes32)",
      "arguments": [
        "1",
        "0",
        "0x0000000000000000000000000000000000000000",
        "0",
        "0x3608f503d624b47779fba399a097e68bc35cdbd22fcf04e3d6b7a3bd8fa9b746"
      ],
      "transaction": {
        "from": "0xe403f79171b7050c78479f52e49e753d43e72c1a",
        "to": "0xad473eaa51821c915d03d9db5349a0586d55e55e",
        "gas": "0x52a7d",
        "value": "0x0",
        "input": "0xea994fab00000000000000000000000000000000000000000000000000000000000000010000000000000000000000000000000000000000000000000000000000000000000000000000000000000000000000000000000000000000000000000000000000000000000000000000000000000000000000000000000000000000000000003608f503d624b47779fba399a097e68bc35cdbd22fcf04e3d6b7a3bd8fa9b746",
        "nonce": "0x672",
        "chainId": "0x2105"
      },
      "additionalContracts": [],
      "isFixedGasLimit": false
    },
    {
      "hash": null,
      "transactionType": "CALL",
      "contractName": null,
      "contractAddress": "0xad473eaa51821c915d03d9db5349a0586d55e55e",
      "function": "submitMove(uint256,bytes32,bytes)",
      "arguments": [
        "189",
        "0xe8773807ffd17108aa2d132cec684352f2c5c8337ff4659cc010d15b0551847d",
        "0x34240000"
      ],
      "transaction": {
        "from": "0xe403f79171b7050c78479f52e49e753d43e72c1a",
        "to": "0xad473eaa51821c915d03d9db5349a0586d55e55e",
        "gas": "0x1801c",
        "value": "0x0",
        "input": "0x73b07f8900000000000000000000000000000000000000000000000000000000000000bde8773807ffd17108aa2d132cec684352f2c5c8337ff4659cc010d15b0551847d000000000000000000000000000000000000000000000000000000000000006000000000000000000000000000000000000000000000000000000000000000043424000000000000000000000000000000000000000000000000000000000000",
        "nonce": "0x673",
        "chainId": "0x2105"
      },
      "additionalContracts": [],
      "isFixedGasLimit": false
    },
    {
      "hash": null,
      "transactionType": "CALL",
      "contractName": null,
      "contractAddress": "0xad473eaa51821c915d03d9db5349a0586d55e55e",
      "function": "submitMove(uint256,bytes32,bytes)",
      "arguments": [
        "189",
        "0x0692c63251d62c8f04eed454cc75e5bc199ba842e6b8106095e5d806a5e48cfa",
        "0x33230000"
      ],
      "transaction": {
        "from": "0xe403f79171b7050c78479f52e49e753d43e72c1a",
        "to": "0xad473eaa51821c915d03d9db5349a0586d55e55e",
        "gas": "0x124c3",
        "value": "0x0",
        "input": "0x73b07f8900000000000000000000000000000000000000000000000000000000000000bd0692c63251d62c8f04eed454cc75e5bc199ba842e6b8106095e5d806a5e48cfa000000000000000000000000000000000000000000000000000000000000006000000000000000000000000000000000000000000000000000000000000000043323000000000000000000000000000000000000000000000000000000000000",
        "nonce": "0x674",
        "chainId": "0x2105"
      },
      "additionalContracts": [],
      "isFixedGasLimit": false
    },
    {
      "hash": null,
      "transactionType": "CALL",
      "contractName": null,
      "contractAddress": "0xad473eaa51821c915d03d9db5349a0586d55e55e",
      "function": "submitMove(uint256,bytes32,bytes)",
      "arguments": [
        "189",
        "0x4442d021ec118fea7ce3641d3375363801af2e92adb1272f726cf20292795a62",
        "0x392a0000"
      ],
      "transaction": {
        "from": "0xe403f79171b7050c78479f52e49e753d43e72c1a",
        "to": "0xad473eaa51821c915d03d9db5349a0586d55e55e",
        "gas": "0x124c3",
        "value": "0x0",
        "input": "0x73b07f8900000000000000000000000000000000000000000000000000000000000000bd4442d021ec118fea7ce3641d3375363801af2e92adb1272f726cf20292795a6200000000000000000000000000000000000000000000000000000000000000600000000000000000000000000000000000000000000000000000000000000004392a000000000000000000000000000000000000000000000000000000000000",
        "nonce": "0x675",
        "chainId": "0x2105"
      },
      "additionalContracts": [],
      "isFixedGasLimit": false
    },
    {
      "hash": null,
      "transactionType": "CALL",
      "contractName": null,
      "contractAddress": "0xad473eaa51821c915d03d9db5349a0586d55e55e",
      "function": "submitMove(uint256,bytes32,bytes)",
      "arguments": [
        "189",
        "0xc7183fc0754b5e7da3b74bf364f8affe59ffdf73627f9b8e7d4991d4453bd364",
        "0x3b2c0000"
      ],
      "transaction": {
        "from": "0xe403f79171b7050c78479f52e49e753d43e72c1a",
        "to": "0xad473eaa51821c915d03d9db5349a0586d55e55e",
        "gas": "0x124c3",
        "value": "0x0",
        "input": "0x73b07f8900000000000000000000000000000000000000000000000000000000000000bdc7183fc0754b5e7da3b74bf364f8affe59ffdf73627f9b8e7d4991d4453bd364000000000000000000000000000000000000000000000000000000000000006000000000000000000000000000000000000000000000000000000000000000043b2c000000000000000000000000000000000000000000000000000000000000",
        "nonce": "0x676",
        "chainId": "0x2105"
      },
      "additionalContracts": [],
      "isFixedGasLimit": false
    },
    {
      "hash": null,
      "transactionType": "CALL",
      "contractName": null,
      "contractAddress": "0xad473eaa51821c915d03d9db5349a0586d55e55e",
      "function": "submitMove(uint256,bytes32,bytes)",
      "arguments": [
        "190",
        "0x90e396633e67bfb131a9c9b400ea842e0f29f45c4bc7872a0e80af48deb78504",
        "0x30280000"
      ],
      "transaction": {
        "from": "0xe403f79171b7050c78479f52e49e753d43e72c1a",
        "to": "0xad473eaa51821c915d03d9db5349a0586d55e55e",
        "gas": "0x196a2",
        "value": "0x0",
        "input": "0x73b07f8900000000000000000000000000000000000000000000000000000000000000be90e396633e67bfb131a9c9b400ea842e0f29f45c4bc7872a0e80af48deb78504000000000000000000000000000000000000000000000000000000000000006000000000000000000000000000000000000000000000000000000000000000043028000000000000000000000000000000000000000000000000000000000000",
        "nonce": "0x677",
        "chainId": "0x2105"
      },
      "additionalContracts": [],
      "isFixedGasLimit": false
    },
    {
      "hash": null,
      "transactionType": "CALL",
      "contractName": null,
      "contractAddress": "0xad473eaa51821c915d03d9db5349a0586d55e55e",
      "function": "submitMove(uint256,bytes32,bytes)",
      "arguments": [
        "190",
        "0xfc6cc8976638831fc84ceab234894f532e0338e7268a3303d4c0c1939f85dbb9",
        "0x32220000"
      ],
      "transaction": {
        "from": "0xe403f79171b7050c78479f52e49e753d43e72c1a",
        "to": "0xad473eaa51821c915d03d9db5349a0586d55e55e",
        "gas": "0x124c3",
        "value": "0x0",
        "input": "0x73b07f8900000000000000000000000000000000000000000000000000000000000000befc6cc8976638831fc84ceab234894f532e0338e7268a3303d4c0c1939f85dbb9000000000000000000000000000000000000000000000000000000000000006000000000000000000000000000000000000000000000000000000000000000043222000000000000000000000000000000000000000000000000000000000000",
        "nonce": "0x678",
        "chainId": "0x2105"
      },
      "additionalContracts": [],
      "isFixedGasLimit": false
    },
    {
      "hash": null,
      "transactionType": "CALL",
      "contractName": null,
      "contractAddress": "0xad473eaa51821c915d03d9db5349a0586d55e55e",
      "function": "submitMove(uint256,bytes32,bytes)",
      "arguments": [
        "190",
        "0xbb9afb9861b8290cda948e4af3b636449a44547dca4c3acbc45e65f4e22aab40",
        "0x31290000"
      ],
      "transaction": {
        "from": "0xe403f79171b7050c78479f52e49e753d43e72c1a",
        "to": "0xad473eaa51821c915d03d9db5349a0586d55e55e",
        "gas": "0x124c3",
        "value": "0x0",
        "input": "0x73b07f8900000000000000000000000000000000000000000000000000000000000000bebb9afb9861b8290cda948e4af3b636449a44547dca4c3acbc45e65f4e22aab40000000000000000000000000000000000000000000000000000000000000006000000000000000000000000000000000000000000000000000000000000000043129000000000000000000000000000000000000000000000000000000000000",
        "nonce": "0x679",
        "chainId": "0x2105"
      },
      "additionalContracts": [],
      "isFixedGasLimit": false
    },
    {
      "hash": null,
      "transactionType": "CALL",
      "contractName": null,
      "contractAddress": "0xad473eaa51821c915d03d9db5349a0586d55e55e",
      "function": "submitMove(uint256,bytes32,bytes)",
      "arguments": [
        "190",
        "0x2a4b22ea265f7017c3f5040f1eec7d58baac29eda24dc699336157972973d8e1",
        "0x3a2b0000"
      ],
      "transaction": {
        "from": "0xe403f79171b7050c78479f52e49e753d43e72c1a",
        "to": "0xad473eaa51821c915d03d9db5349a0586d55e55e",
        "gas": "0x124c3",
        "value": "0x0",
        "input": "0x73b07f8900000000000000000000000000000000000000000000000000000000000000be2a4b22ea265f7017c3f5040f1eec7d58baac29eda24dc699336157972973d8e1000000000000000000000000000000000000000000000000000000000000006000000000000000000000000000000000000000000000000000000000000000043a2b000000000000000000000000000000000000000000000000000000000000",
        "nonce": "0x67a",
        "chainId": "0x2105"
      },
      "additionalContracts": [],
      "isFixedGasLimit": false
    },
    {
      "hash": null,
      "transactionType": "CALL",
      "contractName": null,
      "contractAddress": "0xad473eaa51821c915d03d9db5349a0586d55e55e",
      "function": "submitMove(uint256,bytes32,bytes)",
      "arguments": [
        "191",
        "0xe8773807ffd17108aa2d132cec684352f2c5c8337ff4659cc010d15b0551847d",
        "0x34240000"
      ],
      "transaction": {
        "from": "0xe403f79171b7050c78479f52e49e753d43e72c1a",
        "to": "0xad473eaa51821c915d03d9db5349a0586d55e55e",
        "gas": "0x1801c",
        "value": "0x0",
        "input": "0x73b07f8900000000000000000000000000000000000000000000000000000000000000bfe8773807ffd17108aa2d132cec684352f2c5c8337ff4659cc010d15b0551847d000000000000000000000000000000000000000000000000000000000000006000000000000000000000000000000000000000000000000000000000000000043424000000000000000000000000000000000000000000000000000000000000",
        "nonce": "0x67b",
        "chainId": "0x2105"
      },
      "additionalContracts": [],
      "isFixedGasLimit": false
    },
    {
      "hash": null,
      "transactionType": "CALL",
      "contractName": null,
      "contractAddress": "0xad473eaa51821c915d03d9db5349a0586d55e55e",
      "function": "submitMove(uint256,bytes32,bytes)",
      "arguments": [
        "191",
        "0x0692c63251d62c8f04eed454cc75e5bc199ba842e6b8106095e5d806a5e48cfa",
        "0x33230000"
      ],
      "transaction": {
        "from": "0xe403f79171b7050c78479f52e49e753d43e72c1a",
        "to": "0xad473eaa51821c915d03d9db5349a0586d55e55e",
        "gas": "0x124c3",
        "value": "0x0",
        "input": "0x73b07f8900000000000000000000000000000000000000000000000000000000000000bf0692c63251d62c8f04eed454cc75e5bc199ba842e6b8106095e5d806a5e48cfa000000000000000000000000000000000000000000000000000000000000006000000000000000000000000000000000000000000000000000000000000000043323000000000000000000000000000000000000000000000000000000000000",
        "nonce": "0x67c",
        "chainId": "0x2105"
      },
      "additionalContracts": [],
      "isFixedGasLimit": false
    },
    {
      "hash": null,
      "transactionType": "CALL",
      "contractName": null,
      "contractAddress": "0xad473eaa51821c915d03d9db5349a0586d55e55e",
      "function": "submitMove(uint256,bytes32,bytes)",
      "arguments": [
        "191",
        "0x4442d021ec118fea7ce3641d3375363801af2e92adb1272f726cf20292795a62",
        "0x392a0000"
      ],
      "transaction": {
        "from": "0xe403f79171b7050c78479f52e49e753d43e72c1a",
        "to": "0xad473eaa51821c915d03d9db5349a0586d55e55e",
        "gas": "0x124c3",
        "value": "0x0",
        "input": "0x73b07f8900000000000000000000000000000000000000000000000000000000000000bf4442d021ec118fea7ce3641d3375363801af2e92adb1272f726cf20292795a6200000000000000000000000000000000000000000000000000000000000000600000000000000000000000000000000000000000000000000000000000000004392a000000000000000000000000000000000000000000000000000000000000",
        "nonce": "0x67d",
        "chainId": "0x2105"
      },
      "additionalContracts": [],
      "isFixedGasLimit": false
    },
    {
      "hash": null,
      "transactionType": "CALL",
      "contractName": null,
      "contractAddress": "0xad473eaa51821c915d03d9db5349a0586d55e55e",
      "function": "submitMove(uint256,bytes32,bytes)",
      "arguments": [
        "191",
        "0xc7183fc0754b5e7da3b74bf364f8affe59ffdf73627f9b8e7d4991d4453bd364",
        "0x3b2c0000"
      ],
      "transaction": {
        "from": "0xe403f79171b7050c78479f52e49e753d43e72c1a",
        "to": "0xad473eaa51821c915d03d9db5349a0586d55e55e",
        "gas": "0x124c3",
        "value": "0x0",
        "input": "0x73b07f8900000000000000000000000000000000000000000000000000000000000000bfc7183fc0754b5e7da3b74bf364f8affe59ffdf73627f9b8e7d4991d4453bd364000000000000000000000000000000000000000000000000000000000000006000000000000000000000000000000000000000000000000000000000000000043b2c000000000000000000000000000000000000000000000000000000000000",
        "nonce": "0x67e",
        "chainId": "0x2105"
      },
      "additionalContracts": [],
      "isFixedGasLimit": false
    },
    {
      "hash": null,
      "transactionType": "CALL",
      "contractName": null,
      "contractAddress": "0xad473eaa51821c915d03d9db5349a0586d55e55e",
      "function": "submitMove(uint256,bytes32,bytes)",
      "arguments": [
        "192",
        "0x90e396633e67bfb131a9c9b400ea842e0f29f45c4bc7872a0e80af48deb78504",
        "0x30280000"
      ],
      "transaction": {
        "from": "0xe403f79171b7050c78479f52e49e753d43e72c1a",
        "to": "0xad473eaa51821c915d03d9db5349a0586d55e55e",
        "gas": "0x196a2",
        "value": "0x0",
        "input": "0x73b07f8900000000000000000000000000000000000000000000000000000000000000c090e396633e67bfb131a9c9b400ea842e0f29f45c4bc7872a0e80af48deb78504000000000000000000000000000000000000000000000000000000000000006000000000000000000000000000000000000000000000000000000000000000043028000000000000000000000000000000000000000000000000000000000000",
        "nonce": "0x67f",
        "chainId": "0x2105"
      },
      "additionalContracts": [],
      "isFixedGasLimit": false
    },
    {
      "hash": null,
      "transactionType": "CALL",
      "contractName": null,
      "contractAddress": "0xad473eaa51821c915d03d9db5349a0586d55e55e",
      "function": "submitMove(uint256,bytes32,bytes)",
      "arguments": [
        "192",
        "0xfc6cc8976638831fc84ceab234894f532e0338e7268a3303d4c0c1939f85dbb9",
        "0x32220000"
      ],
      "transaction": {
        "from": "0xe403f79171b7050c78479f52e49e753d43e72c1a",
        "to": "0xad473eaa51821c915d03d9db5349a0586d55e55e",
        "gas": "0x124c3",
        "value": "0x0",
        "input": "0x73b07f8900000000000000000000000000000000000000000000000000000000000000c0fc6cc8976638831fc84ceab234894f532e0338e7268a3303d4c0c1939f85dbb9000000000000000000000000000000000000000000000000000000000000006000000000000000000000000000000000000000000000000000000000000000043222000000000000000000000000000000000000000000000000000000000000",
        "nonce": "0x680",
        "chainId": "0x2105"
      },
      "additionalContracts": [],
      "isFixedGasLimit": false
    },
    {
      "hash": null,
      "transactionType": "CALL",
      "contractName": null,
      "contractAddress": "0xad473eaa51821c915d03d9db5349a0586d55e55e",
      "function": "submitMove(uint256,bytes32,bytes)",
      "arguments": [
        "192",
        "0xbb9afb9861b8290cda948e4af3b636449a44547dca4c3acbc45e65f4e22aab40",
        "0x31290000"
      ],
      "transaction": {
        "from": "0xe403f79171b7050c78479f52e49e753d43e72c1a",
        "to": "0xad473eaa51821c915d03d9db5349a0586d55e55e",
        "gas": "0x124c3",
        "value": "0x0",
        "input": "0x73b07f8900000000000000000000000000000000000000000000000000000000000000c0bb9afb9861b8290cda948e4af3b636449a44547dca4c3acbc45e65f4e22aab40000000000000000000000000000000000000000000000000000000000000006000000000000000000000000000000000000000000000000000000000000000043129000000000000000000000000000000000000000000000000000000000000",
        "nonce": "0x681",
        "chainId": "0x2105"
      },
      "additionalContracts": [],
      "isFixedGasLimit": false
    },
    {
      "hash": null,
      "transactionType": "CALL",
      "contractName": null,
      "contractAddress": "0xad473eaa51821c915d03d9db5349a0586d55e55e",
      "function": "submitMove(uint256,bytes32,bytes)",
      "arguments": [
        "192",
        "0x2a4b22ea265f7017c3f5040f1eec7d58baac29eda24dc699336157972973d8e1",
        "0x3a2b0000"
      ],
      "transaction": {
        "from": "0xe403f79171b7050c78479f52e49e753d43e72c1a",
        "to": "0xad473eaa51821c915d03d9db5349a0586d55e55e",
        "gas": "0x124c3",
        "value": "0x0",
        "input": "0x73b07f8900000000000000000000000000000000000000000000000000000000000000c02a4b22ea265f7017c3f5040f1eec7d58baac29eda24dc699336157972973d8e1000000000000000000000000000000000000000000000000000000000000006000000000000000000000000000000000000000000000000000000000000000043a2b000000000000000000000000000000000000000000000000000000000000",
        "nonce": "0x682",
        "chainId": "0x2105"
      },
      "additionalContracts": [],
      "isFixedGasLimit": false
    },
    {
      "hash": null,
      "transactionType": "CALL",
      "contractName": null,
      "contractAddress": "0xad473eaa51821c915d03d9db5349a0586d55e55e",
      "function": "submitMove(uint256,bytes32,bytes)",
      "arguments": [
        "193",
        "0xe8773807ffd17108aa2d132cec684352f2c5c8337ff4659cc010d15b0551847d",
        "0x34240000"
      ],
      "transaction": {
        "from": "0xe403f79171b7050c78479f52e49e753d43e72c1a",
        "to": "0xad473eaa51821c915d03d9db5349a0586d55e55e",
        "gas": "0x1801c",
        "value": "0x0",
        "input": "0x73b07f8900000000000000000000000000000000000000000000000000000000000000c1e8773807ffd17108aa2d132cec684352f2c5c8337ff4659cc010d15b0551847d000000000000000000000000000000000000000000000000000000000000006000000000000000000000000000000000000000000000000000000000000000043424000000000000000000000000000000000000000000000000000000000000",
        "nonce": "0x683",
        "chainId": "0x2105"
      },
      "additionalContracts": [],
      "isFixedGasLimit": false
    },
    {
      "hash": null,
      "transactionType": "CALL",
      "contractName": null,
      "contractAddress": "0xad473eaa51821c915d03d9db5349a0586d55e55e",
      "function": "submitMove(uint256,bytes32,bytes)",
      "arguments": [
        "193",
        "0x0692c63251d62c8f04eed454cc75e5bc199ba842e6b8106095e5d806a5e48cfa",
        "0x33230000"
      ],
      "transaction": {
        "from": "0xe403f79171b7050c78479f52e49e753d43e72c1a",
        "to": "0xad473eaa51821c915d03d9db5349a0586d55e55e",
        "gas": "0x124c3",
        "value": "0x0",
        "input": "0x73b07f8900000000000000000000000000000000000000000000000000000000000000c10692c63251d62c8f04eed454cc75e5bc199ba842e6b8106095e5d806a5e48cfa000000000000000000000000000000000000000000000000000000000000006000000000000000000000000000000000000000000000000000000000000000043323000000000000000000000000000000000000000000000000000000000000",
        "nonce": "0x684",
        "chainId": "0x2105"
      },
      "additionalContracts": [],
      "isFixedGasLimit": false
    },
    {
      "hash": null,
      "transactionType": "CALL",
      "contractName": null,
      "contractAddress": "0xad473eaa51821c915d03d9db5349a0586d55e55e",
      "function": "submitMove(uint256,bytes32,bytes)",
      "arguments": [
        "193",
        "0x4442d021ec118fea7ce3641d3375363801af2e92adb1272f726cf20292795a62",
        "0x392a0000"
      ],
      "transaction": {
        "from": "0xe403f79171b7050c78479f52e49e753d43e72c1a",
        "to": "0xad473eaa51821c915d03d9db5349a0586d55e55e",
        "gas": "0x124c3",
        "value": "0x0",
        "input": "0x73b07f8900000000000000000000000000000000000000000000000000000000000000c14442d021ec118fea7ce3641d3375363801af2e92adb1272f726cf20292795a6200000000000000000000000000000000000000000000000000000000000000600000000000000000000000000000000000000000000000000000000000000004392a000000000000000000000000000000000000000000000000000000000000",
        "nonce": "0x685",
        "chainId": "0x2105"
      },
      "additionalContracts": [],
      "isFixedGasLimit": false
    },
    {
      "hash": null,
      "transactionType": "CALL",
      "contractName": null,
      "contractAddress": "0xad473eaa51821c915d03d9db5349a0586d55e55e",
      "function": "submitMove(uint256,bytes32,bytes)",
      "arguments": [
        "193",
        "0xc7183fc0754b5e7da3b74bf364f8affe59ffdf73627f9b8e7d4991d4453bd364",
        "0x3b2c0000"
      ],
      "transaction": {
        "from": "0xe403f79171b7050c78479f52e49e753d43e72c1a",
        "to": "0xad473eaa51821c915d03d9db5349a0586d55e55e",
        "gas": "0x124c3",
        "value": "0x0",
        "input": "0x73b07f8900000000000000000000000000000000000000000000000000000000000000c1c7183fc0754b5e7da3b74bf364f8affe59ffdf73627f9b8e7d4991d4453bd364000000000000000000000000000000000000000000000000000000000000006000000000000000000000000000000000000000000000000000000000000000043b2c000000000000000000000000000000000000000000000000000000000000",
        "nonce": "0x686",
        "chainId": "0x2105"
      },
      "additionalContracts": [],
      "isFixedGasLimit": false
    },
    {
      "hash": null,
      "transactionType": "CALL",
      "contractName": null,
      "contractAddress": "0xad473eaa51821c915d03d9db5349a0586d55e55e",
      "function": "submitMove(uint256,bytes32,bytes)",
      "arguments": [
        "194",
        "0x90e396633e67bfb131a9c9b400ea842e0f29f45c4bc7872a0e80af48deb78504",
        "0x30280000"
      ],
      "transaction": {
        "from": "0xe403f79171b7050c78479f52e49e753d43e72c1a",
        "to": "0xad473eaa51821c915d03d9db5349a0586d55e55e",
        "gas": "0x196a2",
        "value": "0x0",
        "input": "0x73b07f8900000000000000000000000000000000000000000000000000000000000000c290e396633e67bfb131a9c9b400ea842e0f29f45c4bc7872a0e80af48deb78504000000000000000000000000000000000000000000000000000000000000006000000000000000000000000000000000000000000000000000000000000000043028000000000000000000000000000000000000000000000000000000000000",
        "nonce": "0x687",
        "chainId": "0x2105"
      },
      "additionalContracts": [],
      "isFixedGasLimit": false
    },
    {
      "hash": null,
      "transactionType": "CALL",
      "contractName": null,
      "contractAddress": "0xad473eaa51821c915d03d9db5349a0586d55e55e",
      "function": "submitMove(uint256,bytes32,bytes)",
      "arguments": [
        "194",
        "0xfc6cc8976638831fc84ceab234894f532e0338e7268a3303d4c0c1939f85dbb9",
        "0x32220000"
      ],
      "transaction": {
        "from": "0xe403f79171b7050c78479f52e49e753d43e72c1a",
        "to": "0xad473eaa51821c915d03d9db5349a0586d55e55e",
        "gas": "0x124c3",
        "value": "0x0",
        "input": "0x73b07f8900000000000000000000000000000000000000000000000000000000000000c2fc6cc8976638831fc84ceab234894f532e0338e7268a3303d4c0c1939f85dbb9000000000000000000000000000000000000000000000000000000000000006000000000000000000000000000000000000000000000000000000000000000043222000000000000000000000000000000000000000000000000000000000000",
        "nonce": "0x688",
        "chainId": "0x2105"
      },
      "additionalContracts": [],
      "isFixedGasLimit": false
    },
    {
      "hash": null,
      "transactionType": "CALL",
      "contractName": null,
      "contractAddress": "0xad473eaa51821c915d03d9db5349a0586d55e55e",
      "function": "submitMove(uint256,bytes32,bytes)",
      "arguments": [
        "194",
        "0xbb9afb9861b8290cda948e4af3b636449a44547dca4c3acbc45e65f4e22aab40",
        "0x31290000"
      ],
      "transaction": {
        "from": "0xe403f79171b7050c78479f52e49e753d43e72c1a",
        "to": "0xad473eaa51821c915d03d9db5349a0586d55e55e",
        "gas": "0x124c3",
        "value": "0x0",
        "input": "0x73b07f8900000000000000000000000000000000000000000000000000000000000000c2bb9afb9861b8290cda948e4af3b636449a44547dca4c3acbc45e65f4e22aab40000000000000000000000000000000000000000000000000000000000000006000000000000000000000000000000000000000000000000000000000000000043129000000000000000000000000000000000000000000000000000000000000",
        "nonce": "0x689",
        "chainId": "0x2105"
      },
      "additionalContracts": [],
      "isFixedGasLimit": false
    },
    {
      "hash": null,
      "transactionType": "CALL",
      "contractName": null,
      "contractAddress": "0xad473eaa51821c915d03d9db5349a0586d55e55e",
      "function": "submitMove(uint256,bytes32,bytes)",
      "arguments": [
        "194",
        "0x2a4b22ea265f7017c3f5040f1eec7d58baac29eda24dc699336157972973d8e1",
        "0x3a2b0000"
      ],
      "transaction": {
        "from": "0xe403f79171b7050c78479f52e49e753d43e72c1a",
        "to": "0xad473eaa51821c915d03d9db5349a0586d55e55e",
        "gas": "0x124c3",
        "value": "0x0",
        "input": "0x73b07f8900000000000000000000000000000000000000000000000000000000000000c22a4b22ea265f7017c3f5040f1eec7d58baac29eda24dc699336157972973d8e1000000000000000000000000000000000000000000000000000000000000006000000000000000000000000000000000000000000000000000000000000000043a2b000000000000000000000000000000000000000000000000000000000000",
        "nonce": "0x68a",
        "chainId": "0x2105"
      },
      "additionalContracts": [],
      "isFixedGasLimit": false
    },
    {
      "hash": null,
      "transactionType": "CALL",
      "contractName": null,
      "contractAddress": "0xad473eaa51821c915d03d9db5349a0586d55e55e",
      "function": "submitMove(uint256,bytes32,bytes)",
      "arguments": [
        "195",
        "0xe8773807ffd17108aa2d132cec684352f2c5c8337ff4659cc010d15b0551847d",
        "0x34240000"
      ],
      "transaction": {
        "from": "0xe403f79171b7050c78479f52e49e753d43e72c1a",
        "to": "0xad473eaa51821c915d03d9db5349a0586d55e55e",
        "gas": "0x1801c",
        "value": "0x0",
        "input": "0x73b07f8900000000000000000000000000000000000000000000000000000000000000c3e8773807ffd17108aa2d132cec684352f2c5c8337ff4659cc010d15b0551847d000000000000000000000000000000000000000000000000000000000000006000000000000000000000000000000000000000000000000000000000000000043424000000000000000000000000000000000000000000000000000000000000",
        "nonce": "0x68b",
        "chainId": "0x2105"
      },
      "additionalContracts": [],
      "isFixedGasLimit": false
    },
    {
      "hash": null,
      "transactionType": "CALL",
      "contractName": null,
      "contractAddress": "0xad473eaa51821c915d03d9db5349a0586d55e55e",
      "function": "submitMove(uint256,bytes32,bytes)",
      "arguments": [
        "195",
        "0x0692c63251d62c8f04eed454cc75e5bc199ba842e6b8106095e5d806a5e48cfa",
        "0x33230000"
      ],
      "transaction": {
        "from": "0xe403f79171b7050c78479f52e49e753d43e72c1a",
        "to": "0xad473eaa51821c915d03d9db5349a0586d55e55e",
        "gas": "0x124c3",
        "value": "0x0",
        "input": "0x73b07f8900000000000000000000000000000000000000000000000000000000000000c30692c63251d62c8f04eed454cc75e5bc199ba842e6b8106095e5d806a5e48cfa000000000000000000000000000000000000000000000000000000000000006000000000000000000000000000000000000000000000000000000000000000043323000000000000000000000000000000000000000000000000000000000000",
        "nonce": "0x68c",
        "chainId": "0x2105"
      },
      "additionalContracts": [],
      "isFixedGasLimit": false
    },
    {
      "hash": null,
      "transactionType": "CALL",
      "contractName": null,
      "contractAddress": "0xad473eaa51821c915d03d9db5349a0586d55e55e",
      "function": "submitMove(uint256,bytes32,bytes)",
      "arguments": [
        "195",
        "0x4442d021ec118fea7ce3641d3375363801af2e92adb1272f726cf20292795a62",
        "0x392a0000"
      ],
      "transaction": {
        "from": "0xe403f79171b7050c78479f52e49e753d43e72c1a",
        "to": "0xad473eaa51821c915d03d9db5349a0586d55e55e",
        "gas": "0x124c3",
        "value": "0x0",
        "input": "0x73b07f8900000000000000000000000000000000000000000000000000000000000000c34442d021ec118fea7ce3641d3375363801af2e92adb1272f726cf20292795a6200000000000000000000000000000000000000000000000000000000000000600000000000000000000000000000000000000000000000000000000000000004392a000000000000000000000000000000000000000000000000000000000000",
        "nonce": "0x68d",
        "chainId": "0x2105"
      },
      "additionalContracts": [],
      "isFixedGasLimit": false
    },
    {
      "hash": null,
      "transactionType": "CALL",
      "contractName": null,
      "contractAddress": "0xad473eaa51821c915d03d9db5349a0586d55e55e",
      "function": "submitMove(uint256,bytes32,bytes)",
      "arguments": [
        "195",
        "0xc7183fc0754b5e7da3b74bf364f8affe59ffdf73627f9b8e7d4991d4453bd364",
        "0x3b2c0000"
      ],
      "transaction": {
        "from": "0xe403f79171b7050c78479f52e49e753d43e72c1a",
        "to": "0xad473eaa51821c915d03d9db5349a0586d55e55e",
        "gas": "0x124c3",
        "value": "0x0",
        "input": "0x73b07f8900000000000000000000000000000000000000000000000000000000000000c3c7183fc0754b5e7da3b74bf364f8affe59ffdf73627f9b8e7d4991d4453bd364000000000000000000000000000000000000000000000000000000000000006000000000000000000000000000000000000000000000000000000000000000043b2c000000000000000000000000000000000000000000000000000000000000",
        "nonce": "0x68e",
        "chainId": "0x2105"
      },
      "additionalContracts": [],
      "isFixedGasLimit": false
    },
    {
      "hash": null,
      "transactionType": "CALL",
      "contractName": null,
      "contractAddress": "0xad473eaa51821c915d03d9db5349a0586d55e55e",
      "function": "submitMove(uint256,bytes32,bytes)",
      "arguments": [
        "196",
        "0x90e396633e67bfb131a9c9b400ea842e0f29f45c4bc7872a0e80af48deb78504",
        "0x30280000"
      ],
      "transaction": {
        "from": "0xe403f79171b7050c78479f52e49e753d43e72c1a",
        "to": "0xad473eaa51821c915d03d9db5349a0586d55e55e",
        "gas": "0x196a2",
        "value": "0x0",
        "input": "0x73b07f8900000000000000000000000000000000000000000000000000000000000000c490e396633e67bfb131a9c9b400ea842e0f29f45c4bc7872a0e80af48deb78504000000000000000000000000000000000000000000000000000000000000006000000000000000000000000000000000000000000000000000000000000000043028000000000000000000000000000000000000000000000000000000000000",
        "nonce": "0x68f",
        "chainId": "0x2105"
      },
      "additionalContracts": [],
      "isFixedGasLimit": false
    },
    {
      "hash": null,
      "transactionType": "CALL",
      "contractName": null,
      "contractAddress": "0xad473eaa51821c915d03d9db5349a0586d55e55e",
      "function": "submitMove(uint256,bytes32,bytes)",
      "arguments": [
        "196",
        "0xfc6cc8976638831fc84ceab234894f532e0338e7268a3303d4c0c1939f85dbb9",
        "0x32220000"
      ],
      "transaction": {
        "from": "0xe403f79171b7050c78479f52e49e753d43e72c1a",
        "to": "0xad473eaa51821c915d03d9db5349a0586d55e55e",
        "gas": "0x124c3",
        "value": "0x0",
        "input": "0x73b07f8900000000000000000000000000000000000000000000000000000000000000c4fc6cc8976638831fc84ceab234894f532e0338e7268a3303d4c0c1939f85dbb9000000000000000000000000000000000000000000000000000000000000006000000000000000000000000000000000000000000000000000000000000000043222000000000000000000000000000000000000000000000000000000000000",
        "nonce": "0x690",
        "chainId": "0x2105"
      },
      "additionalContracts": [],
      "isFixedGasLimit": false
    },
    {
      "hash": null,
      "transactionType": "CALL",
      "contractName": null,
      "contractAddress": "0xad473eaa51821c915d03d9db5349a0586d55e55e",
      "function": "submitMove(uint256,bytes32,bytes)",
      "arguments": [
        "196",
        "0xbb9afb9861b8290cda948e4af3b636449a44547dca4c3acbc45e65f4e22aab40",
        "0x31290000"
      ],
      "transaction": {
        "from": "0xe403f79171b7050c78479f52e49e753d43e72c1a",
        "to": "0xad473eaa51821c915d03d9db5349a0586d55e55e",
        "gas": "0x124c3",
        "value": "0x0",
        "input": "0x73b07f8900000000000000000000000000000000000000000000000000000000000000c4bb9afb9861b8290cda948e4af3b636449a44547dca4c3acbc45e65f4e22aab40000000000000000000000000000000000000000000000000000000000000006000000000000000000000000000000000000000000000000000000000000000043129000000000000000000000000000000000000000000000000000000000000",
        "nonce": "0x691",
        "chainId": "0x2105"
      },
      "additionalContracts": [],
      "isFixedGasLimit": false
    },
    {
      "hash": null,
      "transactionType": "CALL",
      "contractName": null,
      "contractAddress": "0xad473eaa51821c915d03d9db5349a0586d55e55e",
      "function": "submitMove(uint256,bytes32,bytes)",
      "arguments": [
        "196",
        "0x2a4b22ea265f7017c3f5040f1eec7d58baac29eda24dc699336157972973d8e1",
        "0x3a2b0000"
      ],
      "transaction": {
        "from": "0xe403f79171b7050c78479f52e49e753d43e72c1a",
        "to": "0xad473eaa51821c915d03d9db5349a0586d55e55e",
        "gas": "0x124c3",
        "value": "0x0",
        "input": "0x73b07f8900000000000000000000000000000000000000000000000000000000000000c42a4b22ea265f7017c3f5040f1eec7d58baac29eda24dc699336157972973d8e1000000000000000000000000000000000000000000000000000000000000006000000000000000000000000000000000000000000000000000000000000000043a2b000000000000000000000000000000000000000000000000000000000000",
        "nonce": "0x692",
        "chainId": "0x2105"
      },
      "additionalContracts": [],
      "isFixedGasLimit": false
    },
    {
      "hash": null,
      "transactionType": "CALL",
      "contractName": null,
      "contractAddress": "0xad473eaa51821c915d03d9db5349a0586d55e55e",
      "function": "submitMove(uint256,bytes32,bytes)",
      "arguments": [
        "197",
        "0xe8773807ffd17108aa2d132cec684352f2c5c8337ff4659cc010d15b0551847d",
        "0x34240000"
      ],
      "transaction": {
        "from": "0xe403f79171b7050c78479f52e49e753d43e72c1a",
        "to": "0xad473eaa51821c915d03d9db5349a0586d55e55e",
        "gas": "0x1801c",
        "value": "0x0",
        "input": "0x73b07f8900000000000000000000000000000000000000000000000000000000000000c5e8773807ffd17108aa2d132cec684352f2c5c8337ff4659cc010d15b0551847d000000000000000000000000000000000000000000000000000000000000006000000000000000000000000000000000000000000000000000000000000000043424000000000000000000000000000000000000000000000000000000000000",
        "nonce": "0x693",
        "chainId": "0x2105"
      },
      "additionalContracts": [],
      "isFixedGasLimit": false
    },
    {
      "hash": null,
      "transactionType": "CALL",
      "contractName": null,
      "contractAddress": "0xad473eaa51821c915d03d9db5349a0586d55e55e",
      "function": "submitMove(uint256,bytes32,bytes)",
      "arguments": [
        "197",
        "0x0692c63251d62c8f04eed454cc75e5bc199ba842e6b8106095e5d806a5e48cfa",
        "0x33230000"
      ],
      "transaction": {
        "from": "0xe403f79171b7050c78479f52e49e753d43e72c1a",
        "to": "0xad473eaa51821c915d03d9db5349a0586d55e55e",
        "gas": "0x124c3",
        "value": "0x0",
        "input": "0x73b07f8900000000000000000000000000000000000000000000000000000000000000c50692c63251d62c8f04eed454cc75e5bc199ba842e6b8106095e5d806a5e48cfa000000000000000000000000000000000000000000000000000000000000006000000000000000000000000000000000000000000000000000000000000000043323000000000000000000000000000000000000000000000000000000000000",
        "nonce": "0x694",
        "chainId": "0x2105"
      },
      "additionalContracts": [],
      "isFixedGasLimit": false
    },
    {
      "hash": null,
      "transactionType": "CALL",
      "contractName": null,
      "contractAddress": "0xad473eaa51821c915d03d9db5349a0586d55e55e",
      "function": "submitMove(uint256,bytes32,bytes)",
      "arguments": [
        "197",
        "0x4442d021ec118fea7ce3641d3375363801af2e92adb1272f726cf20292795a62",
        "0x392a0000"
      ],
      "transaction": {
        "from": "0xe403f79171b7050c78479f52e49e753d43e72c1a",
        "to": "0xad473eaa51821c915d03d9db5349a0586d55e55e",
        "gas": "0x124c3",
        "value": "0x0",
        "input": "0x73b07f8900000000000000000000000000000000000000000000000000000000000000c54442d021ec118fea7ce3641d3375363801af2e92adb1272f726cf20292795a6200000000000000000000000000000000000000000000000000000000000000600000000000000000000000000000000000000000000000000000000000000004392a000000000000000000000000000000000000000000000000000000000000",
        "nonce": "0x695",
        "chainId": "0x2105"
      },
      "additionalContracts": [],
      "isFixedGasLimit": false
    },
    {
      "hash": null,
      "transactionType": "CALL",
      "contractName": null,
      "contractAddress": "0xad473eaa51821c915d03d9db5349a0586d55e55e",
      "function": "submitMove(uint256,bytes32,bytes)",
      "arguments": [
        "197",
        "0xc7183fc0754b5e7da3b74bf364f8affe59ffdf73627f9b8e7d4991d4453bd364",
        "0x3b2c0000"
      ],
      "transaction": {
        "from": "0xe403f79171b7050c78479f52e49e753d43e72c1a",
        "to": "0xad473eaa51821c915d03d9db5349a0586d55e55e",
        "gas": "0x124c3",
        "value": "0x0",
        "input": "0x73b07f8900000000000000000000000000000000000000000000000000000000000000c5c7183fc0754b5e7da3b74bf364f8affe59ffdf73627f9b8e7d4991d4453bd364000000000000000000000000000000000000000000000000000000000000006000000000000000000000000000000000000000000000000000000000000000043b2c000000000000000000000000000000000000000000000000000000000000",
        "nonce": "0x696",
        "chainId": "0x2105"
      },
      "additionalContracts": [],
      "isFixedGasLimit": false
    },
    {
      "hash": null,
      "transactionType": "CALL",
      "contractName": null,
      "contractAddress": "0xad473eaa51821c915d03d9db5349a0586d55e55e",
      "function": "submitMove(uint256,bytes32,bytes)",
      "arguments": [
        "198",
        "0x90e396633e67bfb131a9c9b400ea842e0f29f45c4bc7872a0e80af48deb78504",
        "0x30280000"
      ],
      "transaction": {
        "from": "0xe403f79171b7050c78479f52e49e753d43e72c1a",
        "to": "0xad473eaa51821c915d03d9db5349a0586d55e55e",
        "gas": "0x196a2",
        "value": "0x0",
        "input": "0x73b07f8900000000000000000000000000000000000000000000000000000000000000c690e396633e67bfb131a9c9b400ea842e0f29f45c4bc7872a0e80af48deb78504000000000000000000000000000000000000000000000000000000000000006000000000000000000000000000000000000000000000000000000000000000043028000000000000000000000000000000000000000000000000000000000000",
        "nonce": "0x697",
        "chainId": "0x2105"
      },
      "additionalContracts": [],
      "isFixedGasLimit": false
    },
    {
      "hash": null,
      "transactionType": "CALL",
      "contractName": null,
      "contractAddress": "0xad473eaa51821c915d03d9db5349a0586d55e55e",
      "function": "submitMove(uint256,bytes32,bytes)",
      "arguments": [
        "198",
        "0xfc6cc8976638831fc84ceab234894f532e0338e7268a3303d4c0c1939f85dbb9",
        "0x32220000"
      ],
      "transaction": {
        "from": "0xe403f79171b7050c78479f52e49e753d43e72c1a",
        "to": "0xad473eaa51821c915d03d9db5349a0586d55e55e",
        "gas": "0x124c3",
        "value": "0x0",
        "input": "0x73b07f8900000000000000000000000000000000000000000000000000000000000000c6fc6cc8976638831fc84ceab234894f532e0338e7268a3303d4c0c1939f85dbb9000000000000000000000000000000000000000000000000000000000000006000000000000000000000000000000000000000000000000000000000000000043222000000000000000000000000000000000000000000000000000000000000",
        "nonce": "0x698",
        "chainId": "0x2105"
      },
      "additionalContracts": [],
      "isFixedGasLimit": false
    },
    {
      "hash": null,
      "transactionType": "CALL",
      "contractName": null,
      "contractAddress": "0xad473eaa51821c915d03d9db5349a0586d55e55e",
      "function": "submitMove(uint256,bytes32,bytes)",
      "arguments": [
        "198",
        "0xbb9afb9861b8290cda948e4af3b636449a44547dca4c3acbc45e65f4e22aab40",
        "0x31290000"
      ],
      "transaction": {
        "from": "0xe403f79171b7050c78479f52e49e753d43e72c1a",
        "to": "0xad473eaa51821c915d03d9db5349a0586d55e55e",
        "gas": "0x124c3",
        "value": "0x0",
        "input": "0x73b07f8900000000000000000000000000000000000000000000000000000000000000c6bb9afb9861b8290cda948e4af3b636449a44547dca4c3acbc45e65f4e22aab40000000000000000000000000000000000000000000000000000000000000006000000000000000000000000000000000000000000000000000000000000000043129000000000000000000000000000000000000000000000000000000000000",
        "nonce": "0x699",
        "chainId": "0x2105"
      },
      "additionalContracts": [],
      "isFixedGasLimit": false
    },
    {
      "hash": null,
      "transactionType": "CALL",
      "contractName": null,
      "contractAddress": "0xad473eaa51821c915d03d9db5349a0586d55e55e",
      "function": "submitMove(uint256,bytes32,bytes)",
      "arguments": [
        "198",
        "0x2a4b22ea265f7017c3f5040f1eec7d58baac29eda24dc699336157972973d8e1",
        "0x3a2b0000"
      ],
      "transaction": {
        "from": "0xe403f79171b7050c78479f52e49e753d43e72c1a",
        "to": "0xad473eaa51821c915d03d9db5349a0586d55e55e",
        "gas": "0x124c3",
        "value": "0x0",
        "input": "0x73b07f8900000000000000000000000000000000000000000000000000000000000000c62a4b22ea265f7017c3f5040f1eec7d58baac29eda24dc699336157972973d8e1000000000000000000000000000000000000000000000000000000000000006000000000000000000000000000000000000000000000000000000000000000043a2b000000000000000000000000000000000000000000000000000000000000",
        "nonce": "0x69a",
        "chainId": "0x2105"
      },
      "additionalContracts": [],
      "isFixedGasLimit": false
    },
    {
      "hash": null,
      "transactionType": "CALL",
      "contractName": null,
      "contractAddress": "0xad473eaa51821c915d03d9db5349a0586d55e55e",
      "function": "submitMove(uint256,bytes32,bytes)",
      "arguments": [
        "199",
        "0xe8773807ffd17108aa2d132cec684352f2c5c8337ff4659cc010d15b0551847d",
        "0x34240000"
      ],
      "transaction": {
        "from": "0xe403f79171b7050c78479f52e49e753d43e72c1a",
        "to": "0xad473eaa51821c915d03d9db5349a0586d55e55e",
        "gas": "0x1801c",
        "value": "0x0",
        "input": "0x73b07f8900000000000000000000000000000000000000000000000000000000000000c7e8773807ffd17108aa2d132cec684352f2c5c8337ff4659cc010d15b0551847d000000000000000000000000000000000000000000000000000000000000006000000000000000000000000000000000000000000000000000000000000000043424000000000000000000000000000000000000000000000000000000000000",
        "nonce": "0x69b",
        "chainId": "0x2105"
      },
      "additionalContracts": [],
      "isFixedGasLimit": false
    },
    {
      "hash": null,
      "transactionType": "CALL",
      "contractName": null,
      "contractAddress": "0xad473eaa51821c915d03d9db5349a0586d55e55e",
      "function": "submitMove(uint256,bytes32,bytes)",
      "arguments": [
        "199",
        "0x0692c63251d62c8f04eed454cc75e5bc199ba842e6b8106095e5d806a5e48cfa",
        "0x33230000"
      ],
      "transaction": {
        "from": "0xe403f79171b7050c78479f52e49e753d43e72c1a",
        "to": "0xad473eaa51821c915d03d9db5349a0586d55e55e",
        "gas": "0x124c3",
        "value": "0x0",
        "input": "0x73b07f8900000000000000000000000000000000000000000000000000000000000000c70692c63251d62c8f04eed454cc75e5bc199ba842e6b8106095e5d806a5e48cfa000000000000000000000000000000000000000000000000000000000000006000000000000000000000000000000000000000000000000000000000000000043323000000000000000000000000000000000000000000000000000000000000",
        "nonce": "0x69c",
        "chainId": "0x2105"
      },
      "additionalContracts": [],
      "isFixedGasLimit": false
    },
    {
      "hash": null,
      "transactionType": "CALL",
      "contractName": null,
      "contractAddress": "0xad473eaa51821c915d03d9db5349a0586d55e55e",
      "function": "submitMove(uint256,bytes32,bytes)",
      "arguments": [
        "199",
        "0x4442d021ec118fea7ce3641d3375363801af2e92adb1272f726cf20292795a62",
        "0x392a0000"
      ],
      "transaction": {
        "from": "0xe403f79171b7050c78479f52e49e753d43e72c1a",
        "to": "0xad473eaa51821c915d03d9db5349a0586d55e55e",
        "gas": "0x124c3",
        "value": "0x0",
        "input": "0x73b07f8900000000000000000000000000000000000000000000000000000000000000c74442d021ec118fea7ce3641d3375363801af2e92adb1272f726cf20292795a6200000000000000000000000000000000000000000000000000000000000000600000000000000000000000000000000000000000000000000000000000000004392a000000000000000000000000000000000000000000000000000000000000",
        "nonce": "0x69d",
        "chainId": "0x2105"
      },
      "additionalContracts": [],
      "isFixedGasLimit": false
    },
    {
      "hash": null,
      "transactionType": "CALL",
      "contractName": null,
      "contractAddress": "0xad473eaa51821c915d03d9db5349a0586d55e55e",
      "function": "submitMove(uint256,bytes32,bytes)",
      "arguments": [
        "199",
        "0xc7183fc0754b5e7da3b74bf364f8affe59ffdf73627f9b8e7d4991d4453bd364",
        "0x3b2c0000"
      ],
      "transaction": {
        "from": "0xe403f79171b7050c78479f52e49e753d43e72c1a",
        "to": "0xad473eaa51821c915d03d9db5349a0586d55e55e",
        "gas": "0x124c3",
        "value": "0x0",
        "input": "0x73b07f8900000000000000000000000000000000000000000000000000000000000000c7c7183fc0754b5e7da3b74bf364f8affe59ffdf73627f9b8e7d4991d4453bd364000000000000000000000000000000000000000000000000000000000000006000000000000000000000000000000000000000000000000000000000000000043b2c000000000000000000000000000000000000000000000000000000000000",
        "nonce": "0x69e",
        "chainId": "0x2105"
      },
      "additionalContracts": [],
      "isFixedGasLimit": false
    },
    {
      "hash": null,
      "transactionType": "CALL",
      "contractName": null,
      "contractAddress": "0xad473eaa51821c915d03d9db5349a0586d55e55e",
      "function": "submitMove(uint256,bytes32,bytes)",
      "arguments": [
        "200",
        "0x90e396633e67bfb131a9c9b400ea842e0f29f45c4bc7872a0e80af48deb78504",
        "0x30280000"
      ],
      "transaction": {
        "from": "0xe403f79171b7050c78479f52e49e753d43e72c1a",
        "to": "0xad473eaa51821c915d03d9db5349a0586d55e55e",
        "gas": "0x196a2",
        "value": "0x0",
        "input": "0x73b07f8900000000000000000000000000000000000000000000000000000000000000c890e396633e67bfb131a9c9b400ea842e0f29f45c4bc7872a0e80af48deb78504000000000000000000000000000000000000000000000000000000000000006000000000000000000000000000000000000000000000000000000000000000043028000000000000000000000000000000000000000000000000000000000000",
        "nonce": "0x69f",
        "chainId": "0x2105"
      },
      "additionalContracts": [],
      "isFixedGasLimit": false
    },
    {
      "hash": null,
      "transactionType": "CALL",
      "contractName": null,
      "contractAddress": "0xad473eaa51821c915d03d9db5349a0586d55e55e",
      "function": "submitMove(uint256,bytes32,bytes)",
      "arguments": [
        "200",
        "0xfc6cc8976638831fc84ceab234894f532e0338e7268a3303d4c0c1939f85dbb9",
        "0x32220000"
      ],
      "transaction": {
        "from": "0xe403f79171b7050c78479f52e49e753d43e72c1a",
        "to": "0xad473eaa51821c915d03d9db5349a0586d55e55e",
        "gas": "0x124c3",
        "value": "0x0",
        "input": "0x73b07f8900000000000000000000000000000000000000000000000000000000000000c8fc6cc8976638831fc84ceab234894f532e0338e7268a3303d4c0c1939f85dbb9000000000000000000000000000000000000000000000000000000000000006000000000000000000000000000000000000000000000000000000000000000043222000000000000000000000000000000000000000000000000000000000000",
        "nonce": "0x6a0",
        "chainId": "0x2105"
      },
      "additionalContracts": [],
      "isFixedGasLimit": false
    },
    {
      "hash": null,
      "transactionType": "CALL",
      "contractName": null,
      "contractAddress": "0xad473eaa51821c915d03d9db5349a0586d55e55e",
      "function": "submitMove(uint256,bytes32,bytes)",
      "arguments": [
        "200",
        "0xbb9afb9861b8290cda948e4af3b636449a44547dca4c3acbc45e65f4e22aab40",
        "0x31290000"
      ],
      "transaction": {
        "from": "0xe403f79171b7050c78479f52e49e753d43e72c1a",
        "to": "0xad473eaa51821c915d03d9db5349a0586d55e55e",
        "gas": "0x124c3",
        "value": "0x0",
        "input": "0x73b07f8900000000000000000000000000000000000000000000000000000000000000c8bb9afb9861b8290cda948e4af3b636449a44547dca4c3acbc45e65f4e22aab40000000000000000000000000000000000000000000000000000000000000006000000000000000000000000000000000000000000000000000000000000000043129000000000000000000000000000000000000000000000000000000000000",
        "nonce": "0x6a1",
        "chainId": "0x2105"
      },
      "additionalContracts": [],
      "isFixedGasLimit": false
    },
    {
      "hash": null,
      "transactionType": "CALL",
      "contractName": null,
      "contractAddress": "0xad473eaa51821c915d03d9db5349a0586d55e55e",
      "function": "submitMove(uint256,bytes32,bytes)",
      "arguments": [
        "200",
        "0x2a4b22ea265f7017c3f5040f1eec7d58baac29eda24dc699336157972973d8e1",
        "0x3a2b0000"
      ],
      "transaction": {
        "from": "0xe403f79171b7050c78479f52e49e753d43e72c1a",
        "to": "0xad473eaa51821c915d03d9db5349a0586d55e55e",
        "gas": "0x124c3",
        "value": "0x0",
        "input": "0x73b07f8900000000000000000000000000000000000000000000000000000000000000c82a4b22ea265f7017c3f5040f1eec7d58baac29eda24dc699336157972973d8e1000000000000000000000000000000000000000000000000000000000000006000000000000000000000000000000000000000000000000000000000000000043a2b000000000000000000000000000000000000000000000000000000000000",
        "nonce": "0x6a2",
        "chainId": "0x2105"
      },
      "additionalContracts": [],
      "isFixedGasLimit": false
    },
    {
      "hash": null,
      "transactionType": "CALL",
      "contractName": null,
      "contractAddress": "0xad473eaa51821c915d03d9db5349a0586d55e55e",
      "function": "submitMove(uint256,bytes32,bytes)",
      "arguments": [
        "201",
        "0xe8773807ffd17108aa2d132cec684352f2c5c8337ff4659cc010d15b0551847d",
        "0x34240000"
      ],
      "transaction": {
        "from": "0xe403f79171b7050c78479f52e49e753d43e72c1a",
        "to": "0xad473eaa51821c915d03d9db5349a0586d55e55e",
        "gas": "0x1801c",
        "value": "0x0",
        "input": "0x73b07f8900000000000000000000000000000000000000000000000000000000000000c9e8773807ffd17108aa2d132cec684352f2c5c8337ff4659cc010d15b0551847d000000000000000000000000000000000000000000000000000000000000006000000000000000000000000000000000000000000000000000000000000000043424000000000000000000000000000000000000000000000000000000000000",
        "nonce": "0x6a3",
        "chainId": "0x2105"
      },
      "additionalContracts": [],
      "isFixedGasLimit": false
    },
    {
      "hash": null,
      "transactionType": "CALL",
      "contractName": null,
      "contractAddress": "0xad473eaa51821c915d03d9db5349a0586d55e55e",
      "function": "submitMove(uint256,bytes32,bytes)",
      "arguments": [
        "201",
        "0x0692c63251d62c8f04eed454cc75e5bc199ba842e6b8106095e5d806a5e48cfa",
        "0x33230000"
      ],
      "transaction": {
        "from": "0xe403f79171b7050c78479f52e49e753d43e72c1a",
        "to": "0xad473eaa51821c915d03d9db5349a0586d55e55e",
        "gas": "0x124c3",
        "value": "0x0",
        "input": "0x73b07f8900000000000000000000000000000000000000000000000000000000000000c90692c63251d62c8f04eed454cc75e5bc199ba842e6b8106095e5d806a5e48cfa000000000000000000000000000000000000000000000000000000000000006000000000000000000000000000000000000000000000000000000000000000043323000000000000000000000000000000000000000000000000000000000000",
        "nonce": "0x6a4",
        "chainId": "0x2105"
      },
      "additionalContracts": [],
      "isFixedGasLimit": false
    },
    {
      "hash": null,
      "transactionType": "CALL",
      "contractName": null,
      "contractAddress": "0xad473eaa51821c915d03d9db5349a0586d55e55e",
      "function": "submitMove(uint256,bytes32,bytes)",
      "arguments": [
        "201",
        "0x4442d021ec118fea7ce3641d3375363801af2e92adb1272f726cf20292795a62",
        "0x392a0000"
      ],
      "transaction": {
        "from": "0xe403f79171b7050c78479f52e49e753d43e72c1a",
        "to": "0xad473eaa51821c915d03d9db5349a0586d55e55e",
        "gas": "0x124c3",
        "value": "0x0",
        "input": "0x73b07f8900000000000000000000000000000000000000000000000000000000000000c94442d021ec118fea7ce3641d3375363801af2e92adb1272f726cf20292795a6200000000000000000000000000000000000000000000000000000000000000600000000000000000000000000000000000000000000000000000000000000004392a000000000000000000000000000000000000000000000000000000000000",
        "nonce": "0x6a5",
        "chainId": "0x2105"
      },
      "additionalContracts": [],
      "isFixedGasLimit": false
    },
    {
      "hash": null,
      "transactionType": "CALL",
      "contractName": null,
      "contractAddress": "0xad473eaa51821c915d03d9db5349a0586d55e55e",
      "function": "submitMove(uint256,bytes32,bytes)",
      "arguments": [
        "201",
        "0xc7183fc0754b5e7da3b74bf364f8affe59ffdf73627f9b8e7d4991d4453bd364",
        "0x3b2c0000"
      ],
      "transaction": {
        "from": "0xe403f79171b7050c78479f52e49e753d43e72c1a",
        "to": "0xad473eaa51821c915d03d9db5349a0586d55e55e",
        "gas": "0x124c3",
        "value": "0x0",
        "input": "0x73b07f8900000000000000000000000000000000000000000000000000000000000000c9c7183fc0754b5e7da3b74bf364f8affe59ffdf73627f9b8e7d4991d4453bd364000000000000000000000000000000000000000000000000000000000000006000000000000000000000000000000000000000000000000000000000000000043b2c000000000000000000000000000000000000000000000000000000000000",
        "nonce": "0x6a6",
        "chainId": "0x2105"
      },
      "additionalContracts": [],
      "isFixedGasLimit": false
    },
    {
      "hash": null,
      "transactionType": "CALL",
      "contractName": null,
      "contractAddress": "0xad473eaa51821c915d03d9db5349a0586d55e55e",
      "function": "submitMove(uint256,bytes32,bytes)",
      "arguments": [
        "202",
        "0x90e396633e67bfb131a9c9b400ea842e0f29f45c4bc7872a0e80af48deb78504",
        "0x30280000"
      ],
      "transaction": {
        "from": "0xe403f79171b7050c78479f52e49e753d43e72c1a",
        "to": "0xad473eaa51821c915d03d9db5349a0586d55e55e",
        "gas": "0x196a2",
        "value": "0x0",
        "input": "0x73b07f8900000000000000000000000000000000000000000000000000000000000000ca90e396633e67bfb131a9c9b400ea842e0f29f45c4bc7872a0e80af48deb78504000000000000000000000000000000000000000000000000000000000000006000000000000000000000000000000000000000000000000000000000000000043028000000000000000000000000000000000000000000000000000000000000",
        "nonce": "0x6a7",
        "chainId": "0x2105"
      },
      "additionalContracts": [],
      "isFixedGasLimit": false
    },
    {
      "hash": null,
      "transactionType": "CALL",
      "contractName": null,
      "contractAddress": "0xad473eaa51821c915d03d9db5349a0586d55e55e",
      "function": "submitMove(uint256,bytes32,bytes)",
      "arguments": [
        "202",
        "0xfc6cc8976638831fc84ceab234894f532e0338e7268a3303d4c0c1939f85dbb9",
        "0x32220000"
      ],
      "transaction": {
        "from": "0xe403f79171b7050c78479f52e49e753d43e72c1a",
        "to": "0xad473eaa51821c915d03d9db5349a0586d55e55e",
        "gas": "0x124c3",
        "value": "0x0",
        "input": "0x73b07f8900000000000000000000000000000000000000000000000000000000000000cafc6cc8976638831fc84ceab234894f532e0338e7268a3303d4c0c1939f85dbb9000000000000000000000000000000000000000000000000000000000000006000000000000000000000000000000000000000000000000000000000000000043222000000000000000000000000000000000000000000000000000000000000",
        "nonce": "0x6a8",
        "chainId": "0x2105"
      },
      "additionalContracts": [],
      "isFixedGasLimit": false
    },
    {
      "hash": null,
      "transactionType": "CALL",
      "contractName": null,
      "contractAddress": "0xad473eaa51821c915d03d9db5349a0586d55e55e",
      "function": "submitMove(uint256,bytes32,bytes)",
      "arguments": [
        "202",
        "0xbb9afb9861b8290cda948e4af3b636449a44547dca4c3acbc45e65f4e22aab40",
        "0x31290000"
      ],
      "transaction": {
        "from": "0xe403f79171b7050c78479f52e49e753d43e72c1a",
        "to": "0xad473eaa51821c915d03d9db5349a0586d55e55e",
        "gas": "0x124c3",
        "value": "0x0",
        "input": "0x73b07f8900000000000000000000000000000000000000000000000000000000000000cabb9afb9861b8290cda948e4af3b636449a44547dca4c3acbc45e65f4e22aab40000000000000000000000000000000000000000000000000000000000000006000000000000000000000000000000000000000000000000000000000000000043129000000000000000000000000000000000000000000000000000000000000",
        "nonce": "0x6a9",
        "chainId": "0x2105"
      },
      "additionalContracts": [],
      "isFixedGasLimit": false
    },
    {
      "hash": null,
      "transactionType": "CALL",
      "contractName": null,
      "contractAddress": "0xad473eaa51821c915d03d9db5349a0586d55e55e",
      "function": "submitMove(uint256,bytes32,bytes)",
      "arguments": [
        "202",
        "0x2a4b22ea265f7017c3f5040f1eec7d58baac29eda24dc699336157972973d8e1",
        "0x3a2b0000"
      ],
      "transaction": {
        "from": "0xe403f79171b7050c78479f52e49e753d43e72c1a",
        "to": "0xad473eaa51821c915d03d9db5349a0586d55e55e",
        "gas": "0x124c3",
        "value": "0x0",
        "input": "0x73b07f8900000000000000000000000000000000000000000000000000000000000000ca2a4b22ea265f7017c3f5040f1eec7d58baac29eda24dc699336157972973d8e1000000000000000000000000000000000000000000000000000000000000006000000000000000000000000000000000000000000000000000000000000000043a2b000000000000000000000000000000000000000000000000000000000000",
        "nonce": "0x6aa",
        "chainId": "0x2105"
      },
      "additionalContracts": [],
      "isFixedGasLimit": false
    },
    {
      "hash": null,
      "transactionType": "CALL",
      "contractName": null,
      "contractAddress": "0xad473eaa51821c915d03d9db5349a0586d55e55e",
      "function": "submitMove(uint256,bytes32,bytes)",
      "arguments": [
        "203",
        "0xe8773807ffd17108aa2d132cec684352f2c5c8337ff4659cc010d15b0551847d",
        "0x34240000"
      ],
      "transaction": {
        "from": "0xe403f79171b7050c78479f52e49e753d43e72c1a",
        "to": "0xad473eaa51821c915d03d9db5349a0586d55e55e",
        "gas": "0x1801c",
        "value": "0x0",
        "input": "0x73b07f8900000000000000000000000000000000000000000000000000000000000000cbe8773807ffd17108aa2d132cec684352f2c5c8337ff4659cc010d15b0551847d000000000000000000000000000000000000000000000000000000000000006000000000000000000000000000000000000000000000000000000000000000043424000000000000000000000000000000000000000000000000000000000000",
        "nonce": "0x6ab",
        "chainId": "0x2105"
      },
      "additionalContracts": [],
      "isFixedGasLimit": false
    },
    {
      "hash": null,
      "transactionType": "CALL",
      "contractName": null,
      "contractAddress": "0xad473eaa51821c915d03d9db5349a0586d55e55e",
      "function": "submitMove(uint256,bytes32,bytes)",
      "arguments": [
        "203",
        "0x0692c63251d62c8f04eed454cc75e5bc199ba842e6b8106095e5d806a5e48cfa",
        "0x33230000"
      ],
      "transaction": {
        "from": "0xe403f79171b7050c78479f52e49e753d43e72c1a",
        "to": "0xad473eaa51821c915d03d9db5349a0586d55e55e",
        "gas": "0x124c3",
        "value": "0x0",
        "input": "0x73b07f8900000000000000000000000000000000000000000000000000000000000000cb0692c63251d62c8f04eed454cc75e5bc199ba842e6b8106095e5d806a5e48cfa000000000000000000000000000000000000000000000000000000000000006000000000000000000000000000000000000000000000000000000000000000043323000000000000000000000000000000000000000000000000000000000000",
        "nonce": "0x6ac",
        "chainId": "0x2105"
      },
      "additionalContracts": [],
      "isFixedGasLimit": false
    },
    {
      "hash": null,
      "transactionType": "CALL",
      "contractName": null,
      "contractAddress": "0xad473eaa51821c915d03d9db5349a0586d55e55e",
      "function": "submitMove(uint256,bytes32,bytes)",
      "arguments": [
        "203",
        "0x4442d021ec118fea7ce3641d3375363801af2e92adb1272f726cf20292795a62",
        "0x392a0000"
      ],
      "transaction": {
        "from": "0xe403f79171b7050c78479f52e49e753d43e72c1a",
        "to": "0xad473eaa51821c915d03d9db5349a0586d55e55e",
        "gas": "0x124c3",
        "value": "0x0",
        "input": "0x73b07f8900000000000000000000000000000000000000000000000000000000000000cb4442d021ec118fea7ce3641d3375363801af2e92adb1272f726cf20292795a6200000000000000000000000000000000000000000000000000000000000000600000000000000000000000000000000000000000000000000000000000000004392a000000000000000000000000000000000000000000000000000000000000",
        "nonce": "0x6ad",
        "chainId": "0x2105"
      },
      "additionalContracts": [],
      "isFixedGasLimit": false
    },
    {
      "hash": null,
      "transactionType": "CALL",
      "contractName": null,
      "contractAddress": "0xad473eaa51821c915d03d9db5349a0586d55e55e",
      "function": "submitMove(uint256,bytes32,bytes)",
      "arguments": [
        "203",
        "0xc7183fc0754b5e7da3b74bf364f8affe59ffdf73627f9b8e7d4991d4453bd364",
        "0x3b2c0000"
      ],
      "transaction": {
        "from": "0xe403f79171b7050c78479f52e49e753d43e72c1a",
        "to": "0xad473eaa51821c915d03d9db5349a0586d55e55e",
        "gas": "0x124c3",
        "value": "0x0",
        "input": "0x73b07f8900000000000000000000000000000000000000000000000000000000000000cbc7183fc0754b5e7da3b74bf364f8affe59ffdf73627f9b8e7d4991d4453bd364000000000000000000000000000000000000000000000000000000000000006000000000000000000000000000000000000000000000000000000000000000043b2c000000000000000000000000000000000000000000000000000000000000",
        "nonce": "0x6ae",
        "chainId": "0x2105"
      },
      "additionalContracts": [],
      "isFixedGasLimit": false
    },
    {
      "hash": null,
      "transactionType": "CALL",
      "contractName": null,
      "contractAddress": "0xad473eaa51821c915d03d9db5349a0586d55e55e",
      "function": "submitMove(uint256,bytes32,bytes)",
      "arguments": [
        "204",
        "0x90e396633e67bfb131a9c9b400ea842e0f29f45c4bc7872a0e80af48deb78504",
        "0x30280000"
      ],
      "transaction": {
        "from": "0xe403f79171b7050c78479f52e49e753d43e72c1a",
        "to": "0xad473eaa51821c915d03d9db5349a0586d55e55e",
        "gas": "0x196a2",
        "value": "0x0",
        "input": "0x73b07f8900000000000000000000000000000000000000000000000000000000000000cc90e396633e67bfb131a9c9b400ea842e0f29f45c4bc7872a0e80af48deb78504000000000000000000000000000000000000000000000000000000000000006000000000000000000000000000000000000000000000000000000000000000043028000000000000000000000000000000000000000000000000000000000000",
        "nonce": "0x6af",
        "chainId": "0x2105"
      },
      "additionalContracts": [],
      "isFixedGasLimit": false
    },
    {
      "hash": null,
      "transactionType": "CALL",
      "contractName": null,
      "contractAddress": "0xad473eaa51821c915d03d9db5349a0586d55e55e",
      "function": "submitMove(uint256,bytes32,bytes)",
      "arguments": [
        "204",
        "0xfc6cc8976638831fc84ceab234894f532e0338e7268a3303d4c0c1939f85dbb9",
        "0x32220000"
      ],
      "transaction": {
        "from": "0xe403f79171b7050c78479f52e49e753d43e72c1a",
        "to": "0xad473eaa51821c915d03d9db5349a0586d55e55e",
        "gas": "0x124c3",
        "value": "0x0",
        "input": "0x73b07f8900000000000000000000000000000000000000000000000000000000000000ccfc6cc8976638831fc84ceab234894f532e0338e7268a3303d4c0c1939f85dbb9000000000000000000000000000000000000000000000000000000000000006000000000000000000000000000000000000000000000000000000000000000043222000000000000000000000000000000000000000000000000000000000000",
        "nonce": "0x6b0",
        "chainId": "0x2105"
      },
      "additionalContracts": [],
      "isFixedGasLimit": false
    },
    {
      "hash": null,
      "transactionType": "CALL",
      "contractName": null,
      "contractAddress": "0xad473eaa51821c915d03d9db5349a0586d55e55e",
      "function": "submitMove(uint256,bytes32,bytes)",
      "arguments": [
        "204",
        "0xbb9afb9861b8290cda948e4af3b636449a44547dca4c3acbc45e65f4e22aab40",
        "0x31290000"
      ],
      "transaction": {
        "from": "0xe403f79171b7050c78479f52e49e753d43e72c1a",
        "to": "0xad473eaa51821c915d03d9db5349a0586d55e55e",
        "gas": "0x124c3",
        "value": "0x0",
        "input": "0x73b07f8900000000000000000000000000000000000000000000000000000000000000ccbb9afb9861b8290cda948e4af3b636449a44547dca4c3acbc45e65f4e22aab40000000000000000000000000000000000000000000000000000000000000006000000000000000000000000000000000000000000000000000000000000000043129000000000000000000000000000000000000000000000000000000000000",
        "nonce": "0x6b1",
        "chainId": "0x2105"
      },
      "additionalContracts": [],
      "isFixedGasLimit": false
    },
    {
      "hash": null,
      "transactionType": "CALL",
      "contractName": null,
      "contractAddress": "0xad473eaa51821c915d03d9db5349a0586d55e55e",
      "function": "submitMove(uint256,bytes32,bytes)",
      "arguments": [
        "204",
        "0x2a4b22ea265f7017c3f5040f1eec7d58baac29eda24dc699336157972973d8e1",
        "0x3a2b0000"
      ],
      "transaction": {
        "from": "0xe403f79171b7050c78479f52e49e753d43e72c1a",
        "to": "0xad473eaa51821c915d03d9db5349a0586d55e55e",
        "gas": "0x124c3",
        "value": "0x0",
        "input": "0x73b07f8900000000000000000000000000000000000000000000000000000000000000cc2a4b22ea265f7017c3f5040f1eec7d58baac29eda24dc699336157972973d8e1000000000000000000000000000000000000000000000000000000000000006000000000000000000000000000000000000000000000000000000000000000043a2b000000000000000000000000000000000000000000000000000000000000",
        "nonce": "0x6b2",
        "chainId": "0x2105"
      },
      "additionalContracts": [],
      "isFixedGasLimit": false
    },
    {
      "hash": null,
      "transactionType": "CALL",
      "contractName": null,
      "contractAddress": "0xad473eaa51821c915d03d9db5349a0586d55e55e",
      "function": "submitMove(uint256,bytes32,bytes)",
      "arguments": [
        "205",
        "0xe8773807ffd17108aa2d132cec684352f2c5c8337ff4659cc010d15b0551847d",
        "0x34240000"
      ],
      "transaction": {
        "from": "0xe403f79171b7050c78479f52e49e753d43e72c1a",
        "to": "0xad473eaa51821c915d03d9db5349a0586d55e55e",
        "gas": "0x1801c",
        "value": "0x0",
        "input": "0x73b07f8900000000000000000000000000000000000000000000000000000000000000cde8773807ffd17108aa2d132cec684352f2c5c8337ff4659cc010d15b0551847d000000000000000000000000000000000000000000000000000000000000006000000000000000000000000000000000000000000000000000000000000000043424000000000000000000000000000000000000000000000000000000000000",
        "nonce": "0x6b3",
        "chainId": "0x2105"
      },
      "additionalContracts": [],
      "isFixedGasLimit": false
    },
    {
      "hash": null,
      "transactionType": "CALL",
      "contractName": null,
      "contractAddress": "0xad473eaa51821c915d03d9db5349a0586d55e55e",
      "function": "submitMove(uint256,bytes32,bytes)",
      "arguments": [
        "205",
        "0x0692c63251d62c8f04eed454cc75e5bc199ba842e6b8106095e5d806a5e48cfa",
        "0x33230000"
      ],
      "transaction": {
        "from": "0xe403f79171b7050c78479f52e49e753d43e72c1a",
        "to": "0xad473eaa51821c915d03d9db5349a0586d55e55e",
        "gas": "0x124c3",
        "value": "0x0",
        "input": "0x73b07f8900000000000000000000000000000000000000000000000000000000000000cd0692c63251d62c8f04eed454cc75e5bc199ba842e6b8106095e5d806a5e48cfa000000000000000000000000000000000000000000000000000000000000006000000000000000000000000000000000000000000000000000000000000000043323000000000000000000000000000000000000000000000000000000000000",
        "nonce": "0x6b4",
        "chainId": "0x2105"
      },
      "additionalContracts": [],
      "isFixedGasLimit": false
    },
    {
      "hash": null,
      "transactionType": "CALL",
      "contractName": null,
      "contractAddress": "0xad473eaa51821c915d03d9db5349a0586d55e55e",
      "function": "submitMove(uint256,bytes32,bytes)",
      "arguments": [
        "205",
        "0x4442d021ec118fea7ce3641d3375363801af2e92adb1272f726cf20292795a62",
        "0x392a0000"
      ],
      "transaction": {
        "from": "0xe403f79171b7050c78479f52e49e753d43e72c1a",
        "to": "0xad473eaa51821c915d03d9db5349a0586d55e55e",
        "gas": "0x124c3",
        "value": "0x0",
        "input": "0x73b07f8900000000000000000000000000000000000000000000000000000000000000cd4442d021ec118fea7ce3641d3375363801af2e92adb1272f726cf20292795a6200000000000000000000000000000000000000000000000000000000000000600000000000000000000000000000000000000000000000000000000000000004392a000000000000000000000000000000000000000000000000000000000000",
        "nonce": "0x6b5",
        "chainId": "0x2105"
      },
      "additionalContracts": [],
      "isFixedGasLimit": false
    },
    {
      "hash": null,
      "transactionType": "CALL",
      "contractName": null,
      "contractAddress": "0xad473eaa51821c915d03d9db5349a0586d55e55e",
      "function": "submitMove(uint256,bytes32,bytes)",
      "arguments": [
        "205",
        "0xc7183fc0754b5e7da3b74bf364f8affe59ffdf73627f9b8e7d4991d4453bd364",
        "0x3b2c0000"
      ],
      "transaction": {
        "from": "0xe403f79171b7050c78479f52e49e753d43e72c1a",
        "to": "0xad473eaa51821c915d03d9db5349a0586d55e55e",
        "gas": "0x124c3",
        "value": "0x0",
        "input": "0x73b07f8900000000000000000000000000000000000000000000000000000000000000cdc7183fc0754b5e7da3b74bf364f8affe59ffdf73627f9b8e7d4991d4453bd364000000000000000000000000000000000000000000000000000000000000006000000000000000000000000000000000000000000000000000000000000000043b2c000000000000000000000000000000000000000000000000000000000000",
        "nonce": "0x6b6",
        "chainId": "0x2105"
      },
      "additionalContracts": [],
      "isFixedGasLimit": false
    },
    {
      "hash": null,
      "transactionType": "CALL",
      "contractName": null,
      "contractAddress": "0xad473eaa51821c915d03d9db5349a0586d55e55e",
      "function": "submitMove(uint256,bytes32,bytes)",
      "arguments": [
        "206",
        "0x90e396633e67bfb131a9c9b400ea842e0f29f45c4bc7872a0e80af48deb78504",
        "0x30280000"
      ],
      "transaction": {
        "from": "0xe403f79171b7050c78479f52e49e753d43e72c1a",
        "to": "0xad473eaa51821c915d03d9db5349a0586d55e55e",
        "gas": "0x196a2",
        "value": "0x0",
        "input": "0x73b07f8900000000000000000000000000000000000000000000000000000000000000ce90e396633e67bfb131a9c9b400ea842e0f29f45c4bc7872a0e80af48deb78504000000000000000000000000000000000000000000000000000000000000006000000000000000000000000000000000000000000000000000000000000000043028000000000000000000000000000000000000000000000000000000000000",
        "nonce": "0x6b7",
        "chainId": "0x2105"
      },
      "additionalContracts": [],
      "isFixedGasLimit": false
    },
    {
      "hash": null,
      "transactionType": "CALL",
      "contractName": null,
      "contractAddress": "0xad473eaa51821c915d03d9db5349a0586d55e55e",
      "function": "submitMove(uint256,bytes32,bytes)",
      "arguments": [
        "206",
        "0xfc6cc8976638831fc84ceab234894f532e0338e7268a3303d4c0c1939f85dbb9",
        "0x32220000"
      ],
      "transaction": {
        "from": "0xe403f79171b7050c78479f52e49e753d43e72c1a",
        "to": "0xad473eaa51821c915d03d9db5349a0586d55e55e",
        "gas": "0x124c3",
        "value": "0x0",
        "input": "0x73b07f8900000000000000000000000000000000000000000000000000000000000000cefc6cc8976638831fc84ceab234894f532e0338e7268a3303d4c0c1939f85dbb9000000000000000000000000000000000000000000000000000000000000006000000000000000000000000000000000000000000000000000000000000000043222000000000000000000000000000000000000000000000000000000000000",
        "nonce": "0x6b8",
        "chainId": "0x2105"
      },
      "additionalContracts": [],
      "isFixedGasLimit": false
    },
    {
      "hash": null,
      "transactionType": "CALL",
      "contractName": null,
      "contractAddress": "0xad473eaa51821c915d03d9db5349a0586d55e55e",
      "function": "submitMove(uint256,bytes32,bytes)",
      "arguments": [
        "206",
        "0xbb9afb9861b8290cda948e4af3b636449a44547dca4c3acbc45e65f4e22aab40",
        "0x31290000"
      ],
      "transaction": {
        "from": "0xe403f79171b7050c78479f52e49e753d43e72c1a",
        "to": "0xad473eaa51821c915d03d9db5349a0586d55e55e",
        "gas": "0x124c3",
        "value": "0x0",
        "input": "0x73b07f8900000000000000000000000000000000000000000000000000000000000000cebb9afb9861b8290cda948e4af3b636449a44547dca4c3acbc45e65f4e22aab40000000000000000000000000000000000000000000000000000000000000006000000000000000000000000000000000000000000000000000000000000000043129000000000000000000000000000000000000000000000000000000000000",
        "nonce": "0x6b9",
        "chainId": "0x2105"
      },
      "additionalContracts": [],
      "isFixedGasLimit": false
    },
    {
      "hash": null,
      "transactionType": "CALL",
      "contractName": null,
      "contractAddress": "0xad473eaa51821c915d03d9db5349a0586d55e55e",
      "function": "submitMove(uint256,bytes32,bytes)",
      "arguments": [
        "206",
        "0x2a4b22ea265f7017c3f5040f1eec7d58baac29eda24dc699336157972973d8e1",
        "0x3a2b0000"
      ],
      "transaction": {
        "from": "0xe403f79171b7050c78479f52e49e753d43e72c1a",
        "to": "0xad473eaa51821c915d03d9db5349a0586d55e55e",
        "gas": "0x124c3",
        "value": "0x0",
        "input": "0x73b07f8900000000000000000000000000000000000000000000000000000000000000ce2a4b22ea265f7017c3f5040f1eec7d58baac29eda24dc699336157972973d8e1000000000000000000000000000000000000000000000000000000000000006000000000000000000000000000000000000000000000000000000000000000043a2b000000000000000000000000000000000000000000000000000000000000",
        "nonce": "0x6ba",
        "chainId": "0x2105"
      },
      "additionalContracts": [],
      "isFixedGasLimit": false
    },
    {
      "hash": null,
      "transactionType": "CALL",
      "contractName": null,
      "contractAddress": "0xad473eaa51821c915d03d9db5349a0586d55e55e",
      "function": "submitMove(uint256,bytes32,bytes)",
      "arguments": [
        "207",
        "0xe8773807ffd17108aa2d132cec684352f2c5c8337ff4659cc010d15b0551847d",
        "0x34240000"
      ],
      "transaction": {
        "from": "0xe403f79171b7050c78479f52e49e753d43e72c1a",
        "to": "0xad473eaa51821c915d03d9db5349a0586d55e55e",
        "gas": "0x1801c",
        "value": "0x0",
        "input": "0x73b07f8900000000000000000000000000000000000000000000000000000000000000cfe8773807ffd17108aa2d132cec684352f2c5c8337ff4659cc010d15b0551847d000000000000000000000000000000000000000000000000000000000000006000000000000000000000000000000000000000000000000000000000000000043424000000000000000000000000000000000000000000000000000000000000",
        "nonce": "0x6bb",
        "chainId": "0x2105"
      },
      "additionalContracts": [],
      "isFixedGasLimit": false
    },
    {
      "hash": null,
      "transactionType": "CALL",
      "contractName": null,
      "contractAddress": "0xad473eaa51821c915d03d9db5349a0586d55e55e",
      "function": "submitMove(uint256,bytes32,bytes)",
      "arguments": [
        "207",
        "0x0692c63251d62c8f04eed454cc75e5bc199ba842e6b8106095e5d806a5e48cfa",
        "0x33230000"
      ],
      "transaction": {
        "from": "0xe403f79171b7050c78479f52e49e753d43e72c1a",
        "to": "0xad473eaa51821c915d03d9db5349a0586d55e55e",
        "gas": "0x124c3",
        "value": "0x0",
        "input": "0x73b07f8900000000000000000000000000000000000000000000000000000000000000cf0692c63251d62c8f04eed454cc75e5bc199ba842e6b8106095e5d806a5e48cfa000000000000000000000000000000000000000000000000000000000000006000000000000000000000000000000000000000000000000000000000000000043323000000000000000000000000000000000000000000000000000000000000",
        "nonce": "0x6bc",
        "chainId": "0x2105"
      },
      "additionalContracts": [],
      "isFixedGasLimit": false
    },
    {
      "hash": null,
      "transactionType": "CALL",
      "contractName": null,
      "contractAddress": "0xad473eaa51821c915d03d9db5349a0586d55e55e",
      "function": "submitMove(uint256,bytes32,bytes)",
      "arguments": [
        "207",
        "0x4442d021ec118fea7ce3641d3375363801af2e92adb1272f726cf20292795a62",
        "0x392a0000"
      ],
      "transaction": {
        "from": "0xe403f79171b7050c78479f52e49e753d43e72c1a",
        "to": "0xad473eaa51821c915d03d9db5349a0586d55e55e",
        "gas": "0x124c3",
        "value": "0x0",
        "input": "0x73b07f8900000000000000000000000000000000000000000000000000000000000000cf4442d021ec118fea7ce3641d3375363801af2e92adb1272f726cf20292795a6200000000000000000000000000000000000000000000000000000000000000600000000000000000000000000000000000000000000000000000000000000004392a000000000000000000000000000000000000000000000000000000000000",
        "nonce": "0x6bd",
        "chainId": "0x2105"
      },
      "additionalContracts": [],
      "isFixedGasLimit": false
    },
    {
      "hash": null,
      "transactionType": "CALL",
      "contractName": null,
      "contractAddress": "0xad473eaa51821c915d03d9db5349a0586d55e55e",
      "function": "submitMove(uint256,bytes32,bytes)",
      "arguments": [
        "207",
        "0xc7183fc0754b5e7da3b74bf364f8affe59ffdf73627f9b8e7d4991d4453bd364",
        "0x3b2c0000"
      ],
      "transaction": {
        "from": "0xe403f79171b7050c78479f52e49e753d43e72c1a",
        "to": "0xad473eaa51821c915d03d9db5349a0586d55e55e",
        "gas": "0x124c3",
        "value": "0x0",
        "input": "0x73b07f8900000000000000000000000000000000000000000000000000000000000000cfc7183fc0754b5e7da3b74bf364f8affe59ffdf73627f9b8e7d4991d4453bd364000000000000000000000000000000000000000000000000000000000000006000000000000000000000000000000000000000000000000000000000000000043b2c000000000000000000000000000000000000000000000000000000000000",
        "nonce": "0x6be",
        "chainId": "0x2105"
      },
      "additionalContracts": [],
      "isFixedGasLimit": false
    },
    {
      "hash": null,
      "transactionType": "CALL",
      "contractName": null,
      "contractAddress": "0xad473eaa51821c915d03d9db5349a0586d55e55e",
      "function": "submitMove(uint256,bytes32,bytes)",
      "arguments": [
        "208",
        "0x90e396633e67bfb131a9c9b400ea842e0f29f45c4bc7872a0e80af48deb78504",
        "0x30280000"
      ],
      "transaction": {
        "from": "0xe403f79171b7050c78479f52e49e753d43e72c1a",
        "to": "0xad473eaa51821c915d03d9db5349a0586d55e55e",
        "gas": "0x196a2",
        "value": "0x0",
        "input": "0x73b07f8900000000000000000000000000000000000000000000000000000000000000d090e396633e67bfb131a9c9b400ea842e0f29f45c4bc7872a0e80af48deb78504000000000000000000000000000000000000000000000000000000000000006000000000000000000000000000000000000000000000000000000000000000043028000000000000000000000000000000000000000000000000000000000000",
        "nonce": "0x6bf",
        "chainId": "0x2105"
      },
      "additionalContracts": [],
      "isFixedGasLimit": false
    },
    {
      "hash": null,
      "transactionType": "CALL",
      "contractName": null,
      "contractAddress": "0xad473eaa51821c915d03d9db5349a0586d55e55e",
      "function": "submitMove(uint256,bytes32,bytes)",
      "arguments": [
        "208",
        "0xfc6cc8976638831fc84ceab234894f532e0338e7268a3303d4c0c1939f85dbb9",
        "0x32220000"
      ],
      "transaction": {
        "from": "0xe403f79171b7050c78479f52e49e753d43e72c1a",
        "to": "0xad473eaa51821c915d03d9db5349a0586d55e55e",
        "gas": "0x124c3",
        "value": "0x0",
        "input": "0x73b07f8900000000000000000000000000000000000000000000000000000000000000d0fc6cc8976638831fc84ceab234894f532e0338e7268a3303d4c0c1939f85dbb9000000000000000000000000000000000000000000000000000000000000006000000000000000000000000000000000000000000000000000000000000000043222000000000000000000000000000000000000000000000000000000000000",
        "nonce": "0x6c0",
        "chainId": "0x2105"
      },
      "additionalContracts": [],
      "isFixedGasLimit": false
    },
    {
      "hash": null,
      "transactionType": "CALL",
      "contractName": null,
      "contractAddress": "0xad473eaa51821c915d03d9db5349a0586d55e55e",
      "function": "submitMove(uint256,bytes32,bytes)",
      "arguments": [
        "208",
        "0xbb9afb9861b8290cda948e4af3b636449a44547dca4c3acbc45e65f4e22aab40",
        "0x31290000"
      ],
      "transaction": {
        "from": "0xe403f79171b7050c78479f52e49e753d43e72c1a",
        "to": "0xad473eaa51821c915d03d9db5349a0586d55e55e",
        "gas": "0x124c3",
        "value": "0x0",
        "input": "0x73b07f8900000000000000000000000000000000000000000000000000000000000000d0bb9afb9861b8290cda948e4af3b636449a44547dca4c3acbc45e65f4e22aab40000000000000000000000000000000000000000000000000000000000000006000000000000000000000000000000000000000000000000000000000000000043129000000000000000000000000000000000000000000000000000000000000",
        "nonce": "0x6c1",
        "chainId": "0x2105"
      },
      "additionalContracts": [],
      "isFixedGasLimit": false
    },
    {
      "hash": null,
      "transactionType": "CALL",
      "contractName": null,
      "contractAddress": "0xad473eaa51821c915d03d9db5349a0586d55e55e",
      "function": "submitMove(uint256,bytes32,bytes)",
      "arguments": [
        "208",
        "0x2a4b22ea265f7017c3f5040f1eec7d58baac29eda24dc699336157972973d8e1",
        "0x3a2b0000"
      ],
      "transaction": {
        "from": "0xe403f79171b7050c78479f52e49e753d43e72c1a",
        "to": "0xad473eaa51821c915d03d9db5349a0586d55e55e",
        "gas": "0x124c3",
        "value": "0x0",
        "input": "0x73b07f8900000000000000000000000000000000000000000000000000000000000000d02a4b22ea265f7017c3f5040f1eec7d58baac29eda24dc699336157972973d8e1000000000000000000000000000000000000000000000000000000000000006000000000000000000000000000000000000000000000000000000000000000043a2b000000000000000000000000000000000000000000000000000000000000",
        "nonce": "0x6c2",
        "chainId": "0x2105"
      },
      "additionalContracts": [],
      "isFixedGasLimit": false
    }
  ],
  "receipts": [],
  "libraries": [],
  "pending": [],
  "returns": {},
  "timestamp": 1766779453937,
  "chain": 8453,
  "commit": "1b5b336"
}