{
  "transactions": [
    {
      "hash": "0x2d026fd684771cd720f168d3d25374a9bf6effa40d01f34a8502920a3f99d239",
      "transactionType": "CALL",
      "contractName": null,
      "contractAddress": "0xad473eaa51821c915d03d9db5349a0586d55e55e",
      "function": "createMatch(uint8,uint8,address,uint256,bytes32)",
      "arguments": [
        "1",
        "0",
        "0x0000000000000000000000000000000000000000",
        "0",
        "0x3608f503d624b47779fba399a097e68bc35cdbd22fcf04e3d6b7a3bd8fa9b746"
      ],
      "transaction": {
        "from": "0xe403f79171b7050c78479f52e49e753d43e72c1a",
        "to": "0xad473eaa51821c915d03d9db5349a0586d55e55e",
        "gas": "0x52a7d",
        "value": "0x0",
        "input": "0xea994fab00000000000000000000000000000000000000000000000000000000000000010000000000000000000000000000000000000000000000000000000000000000000000000000000000000000000000000000000000000000000000000000000000000000000000000000000000000000000000000000000000000000000000003608f503d624b47779fba399a097e68bc35cdbd22fcf04e3d6b7a3bd8fa9b746",
        "nonce": "0x32b",
        "chainId": "0x2105"
      },
      "additionalContracts": [],
      "isFixedGasLimit": false
    },
    {
      "hash": "0x1af655b434a1804b1d154dbd61a67c28eb2ac0ee9490b50e548ead282177eea2",
      "transactionType": "CALL",
      "contractName": null,
      "contractAddress": "0xad473eaa51821c915d03d9db5349a0586d55e55e",
      "function": "createMatch(uint8,uint8,address,uint256,bytes32)",
      "arguments": [
        "1",
        "0",
        "0x0000000000000000000000000000000000000000",
        "0",
        "0x3608f503d624b47779fba399a097e68bc35cdbd22fcf04e3d6b7a3bd8fa9b746"
      ],
      "transaction": {
        "from": "0xe403f79171b7050c78479f52e49e753d43e72c1a",
        "to": "0xad473eaa51821c915d03d9db5349a0586d55e55e",
        "gas": "0x52a7d",
        "value": "0x0",
        "input": "0xea994fab00000000000000000000000000000000000000000000000000000000000000010000000000000000000000000000000000000000000000000000000000000000000000000000000000000000000000000000000000000000000000000000000000000000000000000000000000000000000000000000000000000000000000003608f503d624b47779fba399a097e68bc35cdbd22fcf04e3d6b7a3bd8fa9b746",
        "nonce": "0x32c",
        "chainId": "0x2105"
      },
      "additionalContracts": [],
      "isFixedGasLimit": false
    },
    {
      "hash": "0x52b28dbcb92a364e16442eec707d51cee6f0b83264f1ecf230577228f602bc9e",
      "transactionType": "CALL",
      "contractName": null,
      "contractAddress": "0xad473eaa51821c915d03d9db5349a0586d55e55e",
      "function": "createMatch(uint8,uint8,address,uint256,bytes32)",
      "arguments": [
        "1",
        "0",
        "0x0000000000000000000000000000000000000000",
        "0",
        "0x3608f503d624b47779fba399a097e68bc35cdbd22fcf04e3d6b7a3bd8fa9b746"
      ],
      "transaction": {
        "from": "0xe403f79171b7050c78479f52e49e753d43e72c1a",
        "to": "0xad473eaa51821c915d03d9db5349a0586d55e55e",
        "gas": "0x52a7d",
        "value": "0x0",
        "input": "0xea994fab00000000000000000000000000000000000000000000000000000000000000010000000000000000000000000000000000000000000000000000000000000000000000000000000000000000000000000000000000000000000000000000000000000000000000000000000000000000000000000000000000000000000000003608f503d624b47779fba399a097e68bc35cdbd22fcf04e3d6b7a3bd8fa9b746",
        "nonce": "0x32d",
        "chainId": "0x2105"
      },
      "additionalContracts": [],
      "isFixedGasLimit": false
    },
    {
      "hash": "0xe17aad7a3ee09e50ec85cf1212b7cf35ed2289be9e4e14c3ececa3334d7adc9a",
      "transactionType": "CALL",
      "contractName": null,
      "contractAddress": "0xad473eaa51821c915d03d9db5349a0586d55e55e",
      "function": "createMatch(uint8,uint8,address,uint256,bytes32)",
      "arguments": [
        "1",
        "0",
        "0x0000000000000000000000000000000000000000",
        "0",
        "0x3608f503d624b47779fba399a097e68bc35cdbd22fcf04e3d6b7a3bd8fa9b746"
      ],
      "transaction": {
        "from": "0xe403f79171b7050c78479f52e49e753d43e72c1a",
        "to": "0xad473eaa51821c915d03d9db5349a0586d55e55e",
        "gas": "0x52a7d",
        "value": "0x0",
        "input": "0xea994fab00000000000000000000000000000000000000000000000000000000000000010000000000000000000000000000000000000000000000000000000000000000000000000000000000000000000000000000000000000000000000000000000000000000000000000000000000000000000000000000000000000000000000003608f503d624b47779fba399a097e68bc35cdbd22fcf04e3d6b7a3bd8fa9b746",
        "nonce": "0x32e",
        "chainId": "0x2105"
      },
      "additionalContracts": [],
      "isFixedGasLimit": false
    },
    {
      "hash": "0x575a0faec65cc59d9886eaa07e92ca1380dc4e29b2b3c344e913212635747f6c",
      "transactionType": "CALL",
      "contractName": null,
      "contractAddress": "0xad473eaa51821c915d03d9db5349a0586d55e55e",
      "function": "createMatch(uint8,uint8,address,uint256,bytes32)",
      "arguments": [
        "1",
        "0",
        "0x0000000000000000000000000000000000000000",
        "0",
        "0x3608f503d624b47779fba399a097e68bc35cdbd22fcf04e3d6b7a3bd8fa9b746"
      ],
      "transaction": {
        "from": "0xe403f79171b7050c78479f52e49e753d43e72c1a",
        "to": "0xad473eaa51821c915d03d9db5349a0586d55e55e",
        "gas": "0x52a7d",
        "value": "0x0",
        "input": "0xea994fab00000000000000000000000000000000000000000000000000000000000000010000000000000000000000000000000000000000000000000000000000000000000000000000000000000000000000000000000000000000000000000000000000000000000000000000000000000000000000000000000000000000000000003608f503d624b47779fba399a097e68bc35cdbd22fcf04e3d6b7a3bd8fa9b746",
        "nonce": "0x32f",
        "chainId": "0x2105"
      },
      "additionalContracts": [],
      "isFixedGasLimit": false
    },
    {
      "hash": "0x5d755e0cf83facb6a4fa217111e26e1390abfec7f8569021079708210b04b89f",
      "transactionType": "CALL",
      "contractName": null,
      "contractAddress": "0xad473eaa51821c915d03d9db5349a0586d55e55e",
      "function": "createMatch(uint8,uint8,address,uint256,bytes32)",
      "arguments": [
        "1",
        "0",
        "0x0000000000000000000000000000000000000000",
        "0",
        "0x3608f503d624b47779fba399a097e68bc35cdbd22fcf04e3d6b7a3bd8fa9b746"
      ],
      "transaction": {
        "from": "0xe403f79171b7050c78479f52e49e753d43e72c1a",
        "to": "0xad473eaa51821c915d03d9db5349a0586d55e55e",
        "gas": "0x52a7d",
        "value": "0x0",
        "input": "0xea994fab00000000000000000000000000000000000000000000000000000000000000010000000000000000000000000000000000000000000000000000000000000000000000000000000000000000000000000000000000000000000000000000000000000000000000000000000000000000000000000000000000000000000000003608f503d624b47779fba399a097e68bc35cdbd22fcf04e3d6b7a3bd8fa9b746",
        "nonce": "0x330",
        "chainId": "0x2105"
      },
      "additionalContracts": [],
      "isFixedGasLimit": false
    },
    {
      "hash": "0x5fd2d6d78ce89f77f9683728dd3d0b477ae4fb4fad723296972df9e16eca3a5f",
      "transactionType": "CALL",
      "contractName": null,
      "contractAddress": "0xad473eaa51821c915d03d9db5349a0586d55e55e",
      "function": "createMatch(uint8,uint8,address,uint256,bytes32)",
      "arguments": [
        "1",
        "0",
        "0x0000000000000000000000000000000000000000",
        "0",
        "0x3608f503d624b47779fba399a097e68bc35cdbd22fcf04e3d6b7a3bd8fa9b746"
      ],
      "transaction": {
        "from": "0xe403f79171b7050c78479f52e49e753d43e72c1a",
        "to": "0xad473eaa51821c915d03d9db5349a0586d55e55e",
        "gas": "0x52a7d",
        "value": "0x0",
        "input": "0xea994fab00000000000000000000000000000000000000000000000000000000000000010000000000000000000000000000000000000000000000000000000000000000000000000000000000000000000000000000000000000000000000000000000000000000000000000000000000000000000000000000000000000000000000003608f503d624b47779fba399a097e68bc35cdbd22fcf04e3d6b7a3bd8fa9b746",
        "nonce": "0x331",
        "chainId": "0x2105"
      },
      "additionalContracts": [],
      "isFixedGasLimit": false
    },
    {
      "hash": "0x3483cc39d673164c2f716aa13c57c8125c3aef1733034b8b4a099e7e6db1a4c6",
      "transactionType": "CALL",
      "contractName": null,
      "contractAddress": "0xad473eaa51821c915d03d9db5349a0586d55e55e",
      "function": "createMatch(uint8,uint8,address,uint256,bytes32)",
      "arguments": [
        "1",
        "0",
        "0x0000000000000000000000000000000000000000",
        "0",
        "0x3608f503d624b47779fba399a097e68bc35cdbd22fcf04e3d6b7a3bd8fa9b746"
      ],
      "transaction": {
        "from": "0xe403f79171b7050c78479f52e49e753d43e72c1a",
        "to": "0xad473eaa51821c915d03d9db5349a0586d55e55e",
        "gas": "0x52a7d",
        "value": "0x0",
        "input": "0xea994fab00000000000000000000000000000000000000000000000000000000000000010000000000000000000000000000000000000000000000000000000000000000000000000000000000000000000000000000000000000000000000000000000000000000000000000000000000000000000000000000000000000000000000003608f503d624b47779fba399a097e68bc35cdbd22fcf04e3d6b7a3bd8fa9b746",
        "nonce": "0x332",
        "chainId": "0x2105"
      },
      "additionalContracts": [],
      "isFixedGasLimit": false
    },
    {
      "hash": "0x8eb4a94b18bc61fda75e5db14e17f86bb28d4cc2de992b7733e55a6dc2d992a8",
      "transactionType": "CALL",
      "contractName": null,
      "contractAddress": "0xad473eaa51821c915d03d9db5349a0586d55e55e",
      "function": "submitMove(uint256,bytes32,bytes)",
      "arguments": [
        "25",
        "0xe8773807ffd17108aa2d132cec684352f2c5c8337ff4659cc010d15b0551847d",
        "0x34240000"
      ],
      "transaction": {
        "from": "0xe403f79171b7050c78479f52e49e753d43e72c1a",
        "to": "0xad473eaa51821c915d03d9db5349a0586d55e55e",
        "gas": "0x1801c",
        "value": "0x0",
        "input": "0x73b07f890000000000000000000000000000000000000000000000000000000000000019e8773807ffd17108aa2d132cec684352f2c5c8337ff4659cc010d15b0551847d000000000000000000000000000000000000000000000000000000000000006000000000000000000000000000000000000000000000000000000000000000043424000000000000000000000000000000000000000000000000000000000000",
        "nonce": "0x333",
        "chainId": "0x2105"
      },
      "additionalContracts": [],
      "isFixedGasLimit": false
    },
    {
      "hash": "0x6f492ef46f461e99b099292c69e8ec236e9875319aa7b3f7a358ab61269f0786",
      "transactionType": "CALL",
      "contractName": null,
      "contractAddress": "0xad473eaa51821c915d03d9db5349a0586d55e55e",
      "function": "submitMove(uint256,bytes32,bytes)",
      "arguments": [
        "25",
        "0x0692c63251d62c8f04eed454cc75e5bc199ba842e6b8106095e5d806a5e48cfa",
        "0x33230000"
      ],
      "transaction": {
        "from": "0xe403f79171b7050c78479f52e49e753d43e72c1a",
        "to": "0xad473eaa51821c915d03d9db5349a0586d55e55e",
        "gas": "0x124c3",
        "value": "0x0",
        "input": "0x73b07f8900000000000000000000000000000000000000000000000000000000000000190692c63251d62c8f04eed454cc75e5bc199ba842e6b8106095e5d806a5e48cfa000000000000000000000000000000000000000000000000000000000000006000000000000000000000000000000000000000000000000000000000000000043323000000000000000000000000000000000000000000000000000000000000",
        "nonce": "0x334",
        "chainId": "0x2105"
      },
      "additionalContracts": [],
      "isFixedGasLimit": false
    },
    {
      "hash": "0x7de4fc5007eeca9cab67f86247568c66898b51da379883d985ec4ecd3da8fc27",
      "transactionType": "CALL",
      "contractName": null,
      "contractAddress": "0xad473eaa51821c915d03d9db5349a0586d55e55e",
      "function": "submitMove(uint256,bytes32,bytes)",
      "arguments": [
        "25",
        "0x4442d021ec118fea7ce3641d3375363801af2e92adb1272f726cf20292795a62",
        "0x392a0000"
      ],
      "transaction": {
        "from": "0xe403f79171b7050c78479f52e49e753d43e72c1a",
        "to": "0xad473eaa51821c915d03d9db5349a0586d55e55e",
        "gas": "0x124c3",
        "value": "0x0",
        "input": "0x73b07f8900000000000000000000000000000000000000000000000000000000000000194442d021ec118fea7ce3641d3375363801af2e92adb1272f726cf20292795a6200000000000000000000000000000000000000000000000000000000000000600000000000000000000000000000000000000000000000000000000000000004392a000000000000000000000000000000000000000000000000000000000000",
        "nonce": "0x335",
        "chainId": "0x2105"
      },
      "additionalContracts": [],
      "isFixedGasLimit": false
    },
    {
      "hash": "0x76fb96d9dd00525138dd8f9054bf6603b7e5c95d94ce9293e0587906276cb8c7",
      "transactionType": "CALL",
      "contractName": null,
      "contractAddress": "0xad473eaa51821c915d03d9db5349a0586d55e55e",
      "function": "submitMove(uint256,bytes32,bytes)",
      "arguments": [
        "25",
        "0xc7183fc0754b5e7da3b74bf364f8affe59ffdf73627f9b8e7d4991d4453bd364",
        "0x3b2c0000"
      ],
      "transaction": {
        "from": "0xe403f79171b7050c78479f52e49e753d43e72c1a",
        "to": "0xad473eaa51821c915d03d9db5349a0586d55e55e",
        "gas": "0x124c3",
        "value": "0x0",
        "input": "0x73b07f890000000000000000000000000000000000000000000000000000000000000019c7183fc0754b5e7da3b74bf364f8affe59ffdf73627f9b8e7d4991d4453bd364000000000000000000000000000000000000000000000000000000000000006000000000000000000000000000000000000000000000000000000000000000043b2c000000000000000000000000000000000000000000000000000000000000",
        "nonce": "0x336",
        "chainId": "0x2105"
      },
      "additionalContracts": [],
      "isFixedGasLimit": false
    },
    {
      "hash": "0xf4cd82bd12fe6d160d9fa0f90ef725c5f63849e92453b513b824fba4603bb0db",
      "transactionType": "CALL",
      "contractName": null,
      "contractAddress": "0xad473eaa51821c915d03d9db5349a0586d55e55e",
      "function": "submitMove(uint256,bytes32,bytes)",
      "arguments": [
        "26",
        "0x90e396633e67bfb131a9c9b400ea842e0f29f45c4bc7872a0e80af48deb78504",
        "0x30280000"
      ],
      "transaction": {
        "from": "0xe403f79171b7050c78479f52e49e753d43e72c1a",
        "to": "0xad473eaa51821c915d03d9db5349a0586d55e55e",
        "gas": "0x196a2",
        "value": "0x0",
        "input": "0x73b07f89000000000000000000000000000000000000000000000000000000000000001a90e396633e67bfb131a9c9b400ea842e0f29f45c4bc7872a0e80af48deb78504000000000000000000000000000000000000000000000000000000000000006000000000000000000000000000000000000000000000000000000000000000043028000000000000000000000000000000000000000000000000000000000000",
        "nonce": "0x337",
        "chainId": "0x2105"
      },
      "additionalContracts": [],
      "isFixedGasLimit": false
    },
    {
      "hash": "0xd76485cc2982dd402f2c5a3131039599ad05ebbcffb5c4fbc4a8626f53d5f31e",
      "transactionType": "CALL",
      "contractName": null,
      "contractAddress": "0xad473eaa51821c915d03d9db5349a0586d55e55e",
      "function": "submitMove(uint256,bytes32,bytes)",
      "arguments": [
        "26",
        "0xfc6cc8976638831fc84ceab234894f532e0338e7268a3303d4c0c1939f85dbb9",
        "0x32220000"
      ],
      "transaction": {
        "from": "0xe403f79171b7050c78479f52e49e753d43e72c1a",
        "to": "0xad473eaa51821c915d03d9db5349a0586d55e55e",
        "gas": "0x124c3",
        "value": "0x0",
        "input": "0x73b07f89000000000000000000000000000000000000000000000000000000000000001afc6cc8976638831fc84ceab234894f532e0338e7268a3303d4c0c1939f85dbb9000000000000000000000000000000000000000000000000000000000000006000000000000000000000000000000000000000000000000000000000000000043222000000000000000000000000000000000000000000000000000000000000",
        "nonce": "0x338",
        "chainId": "0x2105"
      },
      "additionalContracts": [],
      "isFixedGasLimit": false
    },
    {
      "hash": "0x06affac574fd0d26d4424feca64b8f62eb1c089b7a363c698937bcc41c5c6101",
      "transactionType": "CALL",
      "contractName": null,
      "contractAddress": "0xad473eaa51821c915d03d9db5349a0586d55e55e",
      "function": "submitMove(uint256,bytes32,bytes)",
      "arguments": [
        "26",
        "0xbb9afb9861b8290cda948e4af3b636449a44547dca4c3acbc45e65f4e22aab40",
        "0x31290000"
      ],
      "transaction": {
        "from": "0xe403f79171b7050c78479f52e49e753d43e72c1a",
        "to": "0xad473eaa51821c915d03d9db5349a0586d55e55e",
        "gas": "0x124c3",
        "value": "0x0",
        "input": "0x73b07f89000000000000000000000000000000000000000000000000000000000000001abb9afb9861b8290cda948e4af3b636449a44547dca4c3acbc45e65f4e22aab40000000000000000000000000000000000000000000000000000000000000006000000000000000000000000000000000000000000000000000000000000000043129000000000000000000000000000000000000000000000000000000000000",
        "nonce": "0x339",
        "chainId": "0x2105"
      },
      "additionalContracts": [],
      "isFixedGasLimit": false
    },
    {
      "hash": "0xba9ec3f4cc3ae0ffe9dd19200d924217a144e0c24eb3ed03d8f3ebeeba95d3d7",
      "transactionType": "CALL",
      "contractName": null,
      "contractAddress": "0xad473eaa51821c915d03d9db5349a0586d55e55e",
      "function": "submitMove(uint256,bytes32,bytes)",
      "arguments": [
        "26",
        "0x2a4b22ea265f7017c3f5040f1eec7d58baac29eda24dc699336157972973d8e1",
        "0x3a2b0000"
      ],
      "transaction": {
        "from": "0xe403f79171b7050c78479f52e49e753d43e72c1a",
        "to": "0xad473eaa51821c915d03d9db5349a0586d55e55e",
        "gas": "0x124c3",
        "value": "0x0",
        "input": "0x73b07f89000000000000000000000000000000000000000000000000000000000000001a2a4b22ea265f7017c3f5040f1eec7d58baac29eda24dc699336157972973d8e1000000000000000000000000000000000000000000000000000000000000006000000000000000000000000000000000000000000000000000000000000000043a2b000000000000000000000000000000000000000000000000000000000000",
        "nonce": "0x33a",
        "chainId": "0x2105"
      },
      "additionalContracts": [],
      "isFixedGasLimit": false
    },
    {
      "hash": "0x8e5fceaf59ef26ee331341dcc5790563fac6916ebac6a55a44c887ab63b6e137",
      "transactionType": "CALL",
      "contractName": null,
      "contractAddress": "0xad473eaa51821c915d03d9db5349a0586d55e55e",
      "function": "submitMove(uint256,bytes32,bytes)",
      "arguments": [
        "27",
        "0xe8773807ffd17108aa2d132cec684352f2c5c8337ff4659cc010d15b0551847d",
        "0x34240000"
      ],
      "transaction": {
        "from": "0xe403f79171b7050c78479f52e49e753d43e72c1a",
        "to": "0xad473eaa51821c915d03d9db5349a0586d55e55e",
        "gas": "0x1801c",
        "value": "0x0",
        "input": "0x73b07f89000000000000000000000000000000000000000000000000000000000000001be8773807ffd17108aa2d132cec684352f2c5c8337ff4659cc010d15b0551847d000000000000000000000000000000000000000000000000000000000000006000000000000000000000000000000000000000000000000000000000000000043424000000000000000000000000000000000000000000000000000000000000",
        "nonce": "0x33b",
        "chainId": "0x2105"
      },
      "additionalContracts": [],
      "isFixedGasLimit": false
    },
    {
      "hash": "0x2fa5c66d4b5ec9db7aad09433faf15259bfae9ba9e579556c4c108a2020d78c0",
      "transactionType": "CALL",
      "contractName": null,
      "contractAddress": "0xad473eaa51821c915d03d9db5349a0586d55e55e",
      "function": "submitMove(uint256,bytes32,bytes)",
      "arguments": [
        "27",
        "0x0692c63251d62c8f04eed454cc75e5bc199ba842e6b8106095e5d806a5e48cfa",
        "0x33230000"
      ],
      "transaction": {
        "from": "0xe403f79171b7050c78479f52e49e753d43e72c1a",
        "to": "0xad473eaa51821c915d03d9db5349a0586d55e55e",
        "gas": "0x124c3",
        "value": "0x0",
        "input": "0x73b07f89000000000000000000000000000000000000000000000000000000000000001b0692c63251d62c8f04eed454cc75e5bc199ba842e6b8106095e5d806a5e48cfa000000000000000000000000000000000000000000000000000000000000006000000000000000000000000000000000000000000000000000000000000000043323000000000000000000000000000000000000000000000000000000000000",
        "nonce": "0x33c",
        "chainId": "0x2105"
      },
      "additionalContracts": [],
      "isFixedGasLimit": false
    },
    {
      "hash": "0xd54e8663486889b4a453587d1e5ceca399b98f375ca0c36fe222049233331d1c",
      "transactionType": "CALL",
      "contractName": null,
      "contractAddress": "0xad473eaa51821c915d03d9db5349a0586d55e55e",
      "function": "submitMove(uint256,bytes32,bytes)",
      "arguments": [
        "27",
        "0x4442d021ec118fea7ce3641d3375363801af2e92adb1272f726cf20292795a62",
        "0x392a0000"
      ],
      "transaction": {
        "from": "0xe403f79171b7050c78479f52e49e753d43e72c1a",
        "to": "0xad473eaa51821c915d03d9db5349a0586d55e55e",
        "gas": "0x124c3",
        "value": "0x0",
        "input": "0x73b07f89000000000000000000000000000000000000000000000000000000000000001b4442d021ec118fea7ce3641d3375363801af2e92adb1272f726cf20292795a6200000000000000000000000000000000000000000000000000000000000000600000000000000000000000000000000000000000000000000000000000000004392a000000000000000000000000000000000000000000000000000000000000",
        "nonce": "0x33d",
        "chainId": "0x2105"
      },
      "additionalContracts": [],
      "isFixedGasLimit": false
    },
    {
      "hash": "0x0c385c68fdb9820670439fb20ab7570ed80f7a7e75a0530ab78143f63b38d3be",
      "transactionType": "CALL",
      "contractName": null,
      "contractAddress": "0xad473eaa51821c915d03d9db5349a0586d55e55e",
      "function": "submitMove(uint256,bytes32,bytes)",
      "arguments": [
        "27",
        "0xc7183fc0754b5e7da3b74bf364f8affe59ffdf73627f9b8e7d4991d4453bd364",
        "0x3b2c0000"
      ],
      "transaction": {
        "from": "0xe403f79171b7050c78479f52e49e753d43e72c1a",
        "to": "0xad473eaa51821c915d03d9db5349a0586d55e55e",
        "gas": "0x124c3",
        "value": "0x0",
        "input": "0x73b07f89000000000000000000000000000000000000000000000000000000000000001bc7183fc0754b5e7da3b74bf364f8affe59ffdf73627f9b8e7d4991d4453bd364000000000000000000000000000000000000000000000000000000000000006000000000000000000000000000000000000000000000000000000000000000043b2c000000000000000000000000000000000000000000000000000000000000",
        "nonce": "0x33e",
        "chainId": "0x2105"
      },
      "additionalContracts": [],
      "isFixedGasLimit": false
    },
    {
      "hash": "0x22d5e9139def2c6e19a32f43430ea57acb1cd8959a6bf23e79b7fc0e614ac48a",
      "transactionType": "CALL",
      "contractName": null,
      "contractAddress": "0xad473eaa51821c915d03d9db5349a0586d55e55e",
      "function": "submitMove(uint256,bytes32,bytes)",
      "arguments": [
        "28",
        "0x90e396633e67bfb131a9c9b400ea842e0f29f45c4bc7872a0e80af48deb78504",
        "0x30280000"
      ],
      "transaction": {
        "from": "0xe403f79171b7050c78479f52e49e753d43e72c1a",
        "to": "0xad473eaa51821c915d03d9db5349a0586d55e55e",
        "gas": "0x196a2",
        "value": "0x0",
        "input": "0x73b07f89000000000000000000000000000000000000000000000000000000000000001c90e396633e67bfb131a9c9b400ea842e0f29f45c4bc7872a0e80af48deb78504000000000000000000000000000000000000000000000000000000000000006000000000000000000000000000000000000000000000000000000000000000043028000000000000000000000000000000000000000000000000000000000000",
        "nonce": "0x33f",
        "chainId": "0x2105"
      },
      "additionalContracts": [],
      "isFixedGasLimit": false
    },
    {
      "hash": "0x3ac0ebe5eedfc156406ac450538803d9056f3a6e518d44019d12c14d178dc69c",
      "transactionType": "CALL",
      "contractName": null,
      "contractAddress": "0xad473eaa51821c915d03d9db5349a0586d55e55e",
      "function": "submitMove(uint256,bytes32,bytes)",
      "arguments": [
        "28",
        "0xfc6cc8976638831fc84ceab234894f532e0338e7268a3303d4c0c1939f85dbb9",
        "0x32220000"
      ],
      "transaction": {
        "from": "0xe403f79171b7050c78479f52e49e753d43e72c1a",
        "to": "0xad473eaa51821c915d03d9db5349a0586d55e55e",
        "gas": "0x124c3",
        "value": "0x0",
        "input": "0x73b07f89000000000000000000000000000000000000000000000000000000000000001cfc6cc8976638831fc84ceab234894f532e0338e7268a3303d4c0c1939f85dbb9000000000000000000000000000000000000000000000000000000000000006000000000000000000000000000000000000000000000000000000000000000043222000000000000000000000000000000000000000000000000000000000000",
        "nonce": "0x340",
        "chainId": "0x2105"
      },
      "additionalContracts": [],
      "isFixedGasLimit": false
    },
    {
      "hash": "0x7cf04bf8c2f7ba44ddb0e925fffe3604567cf718fe5ca66b64542fc2412e0f8a",
      "transactionType": "CALL",
      "contractName": null,
      "contractAddress": "0xad473eaa51821c915d03d9db5349a0586d55e55e",
      "function": "submitMove(uint256,bytes32,bytes)",
      "arguments": [
        "28",
        "0xbb9afb9861b8290cda948e4af3b636449a44547dca4c3acbc45e65f4e22aab40",
        "0x31290000"
      ],
      "transaction": {
        "from": "0xe403f79171b7050c78479f52e49e753d43e72c1a",
        "to": "0xad473eaa51821c915d03d9db5349a0586d55e55e",
        "gas": "0x124c3",
        "value": "0x0",
        "input": "0x73b07f89000000000000000000000000000000000000000000000000000000000000001cbb9afb9861b8290cda948e4af3b636449a44547dca4c3acbc45e65f4e22aab40000000000000000000000000000000000000000000000000000000000000006000000000000000000000000000000000000000000000000000000000000000043129000000000000000000000000000000000000000000000000000000000000",
        "nonce": "0x341",
        "chainId": "0x2105"
      },
      "additionalContracts": [],
      "isFixedGasLimit": false
    },
    {
      "hash": "0xe747e2d640de3f5926dfc8ac274d65178bf3ec4009a70e57049ceda0c0164374",
      "transactionType": "CALL",
      "contractName": null,
      "contractAddress": "0xad473eaa51821c915d03d9db5349a0586d55e55e",
      "function": "submitMove(uint256,bytes32,bytes)",
      "arguments": [
        "28",
        "0x2a4b22ea265f7017c3f5040f1eec7d58baac29eda24dc699336157972973d8e1",
        "0x3a2b0000"
      ],
      "transaction": {
        "from": "0xe403f79171b7050c78479f52e49e753d43e72c1a",
        "to": "0xad473eaa51821c915d03d9db5349a0586d55e55e",
        "gas": "0x124c3",
        "value": "0x0",
        "input": "0x73b07f89000000000000000000000000000000000000000000000000000000000000001c2a4b22ea265f7017c3f5040f1eec7d58baac29eda24dc699336157972973d8e1000000000000000000000000000000000000000000000000000000000000006000000000000000000000000000000000000000000000000000000000000000043a2b000000000000000000000000000000000000000000000000000000000000",
        "nonce": "0x342",
        "chainId": "0x2105"
      },
      "additionalContracts": [],
      "isFixedGasLimit": false
    },
    {
      "hash": "0x6780dad477e2a626e190637bc82cad22df0a6dda76811b20a724d3159e77fb6b",
      "transactionType": "CALL",
      "contractName": null,
      "contractAddress": "0xad473eaa51821c915d03d9db5349a0586d55e55e",
      "function": "submitMove(uint256,bytes32,bytes)",
      "arguments": [
        "29",
        "0xe8773807ffd17108aa2d132cec684352f2c5c8337ff4659cc010d15b0551847d",
        "0x34240000"
      ],
      "transaction": {
        "from": "0xe403f79171b7050c78479f52e49e753d43e72c1a",
        "to": "0xad473eaa51821c915d03d9db5349a0586d55e55e",
        "gas": "0x1801c",
        "value": "0x0",
        "input": "0x73b07f89000000000000000000000000000000000000000000000000000000000000001de8773807ffd17108aa2d132cec684352f2c5c8337ff4659cc010d15b0551847d000000000000000000000000000000000000000000000000000000000000006000000000000000000000000000000000000000000000000000000000000000043424000000000000000000000000000000000000000000000000000000000000",
        "nonce": "0x343",
        "chainId": "0x2105"
      },
      "additionalContracts": [],
      "isFixedGasLimit": false
    },
    {
      "hash": "0xed6f63f414091ecdd86793f1dccfcc57321a766b0813546c894e66117a77ab2a",
      "transactionType": "CALL",
      "contractName": null,
      "contractAddress": "0xad473eaa51821c915d03d9db5349a0586d55e55e",
      "function": "submitMove(uint256,bytes32,bytes)",
      "arguments": [
        "29",
        "0x0692c63251d62c8f04eed454cc75e5bc199ba842e6b8106095e5d806a5e48cfa",
        "0x33230000"
      ],
      "transaction": {
        "from": "0xe403f79171b7050c78479f52e49e753d43e72c1a",
        "to": "0xad473eaa51821c915d03d9db5349a0586d55e55e",
        "gas": "0x124c3",
        "value": "0x0",
        "input": "0x73b07f89000000000000000000000000000000000000000000000000000000000000001d0692c63251d62c8f04eed454cc75e5bc199ba842e6b8106095e5d806a5e48cfa000000000000000000000000000000000000000000000000000000000000006000000000000000000000000000000000000000000000000000000000000000043323000000000000000000000000000000000000000000000000000000000000",
        "nonce": "0x344",
        "chainId": "0x2105"
      },
      "additionalContracts": [],
      "isFixedGasLimit": false
    },
    {
      "hash": "0x129a8f281786fbbebda783bf4fa3b81a743f298e5f00b648413d2fa0aee56afc",
      "transactionType": "CALL",
      "contractName": null,
      "contractAddress": "0xad473eaa51821c915d03d9db5349a0586d55e55e",
      "function": "submitMove(uint256,bytes32,bytes)",
      "arguments": [
        "29",
        "0x4442d021ec118fea7ce3641d3375363801af2e92adb1272f726cf20292795a62",
        "0x392a0000"
      ],
      "transaction": {
        "from": "0xe403f79171b7050c78479f52e49e753d43e72c1a",
        "to": "0xad473eaa51821c915d03d9db5349a0586d55e55e",
        "gas": "0x124c3",
        "value": "0x0",
        "input": "0x73b07f89000000000000000000000000000000000000000000000000000000000000001d4442d021ec118fea7ce3641d3375363801af2e92adb1272f726cf20292795a6200000000000000000000000000000000000000000000000000000000000000600000000000000000000000000000000000000000000000000000000000000004392a000000000000000000000000000000000000000000000000000000000000",
        "nonce": "0x345",
        "chainId": "0x2105"
      },
      "additionalContracts": [],
      "isFixedGasLimit": false
    },
    {
      "hash": "0xd2987b4e3664bb9468e73fd36975f9253d03ddf118f16ee1b5f4cd18a4a8cb93",
      "transactionType": "CALL",
      "contractName": null,
      "contractAddress": "0xad473eaa51821c915d03d9db5349a0586d55e55e",
      "function": "submitMove(uint256,bytes32,bytes)",
      "arguments": [
        "29",
        "0xc7183fc0754b5e7da3b74bf364f8affe59ffdf73627f9b8e7d4991d4453bd364",
        "0x3b2c0000"
      ],
      "transaction": {
        "from": "0xe403f79171b7050c78479f52e49e753d43e72c1a",
        "to": "0xad473eaa51821c915d03d9db5349a0586d55e55e",
        "gas": "0x124c3",
        "value": "0x0",
        "input": "0x73b07f89000000000000000000000000000000000000000000000000000000000000001dc7183fc0754b5e7da3b74bf364f8affe59ffdf73627f9b8e7d4991d4453bd364000000000000000000000000000000000000000000000000000000000000006000000000000000000000000000000000000000000000000000000000000000043b2c000000000000000000000000000000000000000000000000000000000000",
        "nonce": "0x346",
        "chainId": "0x2105"
      },
      "additionalContracts": [],
      "isFixedGasLimit": false
    },
    {
      "hash": "0xf8904261e71a280765a16d8c5d47383fcae73e0be2bc69fe344663103d9df9b9",
      "transactionType": "CALL",
      "contractName": null,
      "contractAddress": "0xad473eaa51821c915d03d9db5349a0586d55e55e",
      "function": "submitMove(uint256,bytes32,bytes)",
      "arguments": [
        "30",
        "0x90e396633e67bfb131a9c9b400ea842e0f29f45c4bc7872a0e80af48deb78504",
        "0x30280000"
      ],
      "transaction": {
        "from": "0xe403f79171b7050c78479f52e49e753d43e72c1a",
        "to": "0xad473eaa51821c915d03d9db5349a0586d55e55e",
        "gas": "0x196a2",
        "value": "0x0",
        "input": "0x73b07f89000000000000000000000000000000000000000000000000000000000000001e90e396633e67bfb131a9c9b400ea842e0f29f45c4bc7872a0e80af48deb78504000000000000000000000000000000000000000000000000000000000000006000000000000000000000000000000000000000000000000000000000000000043028000000000000000000000000000000000000000000000000000000000000",
        "nonce": "0x347",
        "chainId": "0x2105"
      },
      "additionalContracts": [],
      "isFixedGasLimit": false
    },
    {
      "hash": "0x7bd27054a2c931273158ce79f9622f19ba748602a880b1948e3c6dd0376617b0",
      "transactionType": "CALL",
      "contractName": null,
      "contractAddress": "0xad473eaa51821c915d03d9db5349a0586d55e55e",
      "function": "submitMove(uint256,bytes32,bytes)",
      "arguments": [
        "30",
        "0xfc6cc8976638831fc84ceab234894f532e0338e7268a3303d4c0c1939f85dbb9",
        "0x32220000"
      ],
      "transaction": {
        "from": "0xe403f79171b7050c78479f52e49e753d43e72c1a",
        "to": "0xad473eaa51821c915d03d9db5349a0586d55e55e",
        "gas": "0x124c3",
        "value": "0x0",
        "input": "0x73b07f89000000000000000000000000000000000000000000000000000000000000001efc6cc8976638831fc84ceab234894f532e0338e7268a3303d4c0c1939f85dbb9000000000000000000000000000000000000000000000000000000000000006000000000000000000000000000000000000000000000000000000000000000043222000000000000000000000000000000000000000000000000000000000000",
        "nonce": "0x348",
        "chainId": "0x2105"
      },
      "additionalContracts": [],
      "isFixedGasLimit": false
    },
    {
      "hash": "0x3427feb99e4a22d8b1210bb714a3b63c25ffa30987828922655fd7d6eec0afcd",
      "transactionType": "CALL",
      "contractName": null,
      "contractAddress": "0xad473eaa51821c915d03d9db5349a0586d55e55e",
      "function": "submitMove(uint256,bytes32,bytes)",
      "arguments": [
        "30",
        "0xbb9afb9861b8290cda948e4af3b636449a44547dca4c3acbc45e65f4e22aab40",
        "0x31290000"
      ],
      "transaction": {
        "from": "0xe403f79171b7050c78479f52e49e753d43e72c1a",
        "to": "0xad473eaa51821c915d03d9db5349a0586d55e55e",
        "gas": "0x124c3",
        "value": "0x0",
        "input": "0x73b07f89000000000000000000000000000000000000000000000000000000000000001ebb9afb9861b8290cda948e4af3b636449a44547dca4c3acbc45e65f4e22aab40000000000000000000000000000000000000000000000000000000000000006000000000000000000000000000000000000000000000000000000000000000043129000000000000000000000000000000000000000000000000000000000000",
        "nonce": "0x349",
        "chainId": "0x2105"
      },
      "additionalContracts": [],
      "isFixedGasLimit": false
    },
    {
      "hash": "0xfc797201ecf31a1c91b26d49fd4018bcca18653357f2c5d62ef385defe864ecd",
      "transactionType": "CALL",
      "contractName": null,
      "contractAddress": "0xad473eaa51821c915d03d9db5349a0586d55e55e",
      "function": "submitMove(uint256,bytes32,bytes)",
      "arguments": [
        "30",
        "0x2a4b22ea265f7017c3f5040f1eec7d58baac29eda24dc699336157972973d8e1",
        "0x3a2b0000"
      ],
      "transaction": {
        "from": "0xe403f79171b7050c78479f52e49e753d43e72c1a",
        "to": "0xad473eaa51821c915d03d9db5349a0586d55e55e",
        "gas": "0x124c3",
        "value": "0x0",
        "input": "0x73b07f89000000000000000000000000000000000000000000000000000000000000001e2a4b22ea265f7017c3f5040f1eec7d58baac29eda24dc699336157972973d8e1000000000000000000000000000000000000000000000000000000000000006000000000000000000000000000000000000000000000000000000000000000043a2b000000000000000000000000000000000000000000000000000000000000",
        "nonce": "0x34a",
        "chainId": "0x2105"
      },
      "additionalContracts": [],
      "isFixedGasLimit": false
    },
    {
      "hash": "0xd5e89b86fe7cab666b52c3a163af77121e97a5b74a369e1399d02d89a5ba9ece",
      "transactionType": "CALL",
      "contractName": null,
      "contractAddress": "0xad473eaa51821c915d03d9db5349a0586d55e55e",
      "function": "submitMove(uint256,bytes32,bytes)",
      "arguments": [
        "31",
        "0xe8773807ffd17108aa2d132cec684352f2c5c8337ff4659cc010d15b0551847d",
        "0x34240000"
      ],
      "transaction": {
        "from": "0xe403f79171b7050c78479f52e49e753d43e72c1a",
        "to": "0xad473eaa51821c915d03d9db5349a0586d55e55e",
        "gas": "0x1801c",
        "value": "0x0",
        "input": "0x73b07f89000000000000000000000000000000000000000000000000000000000000001fe8773807ffd17108aa2d132cec684352f2c5c8337ff4659cc010d15b0551847d000000000000000000000000000000000000000000000000000000000000006000000000000000000000000000000000000000000000000000000000000000043424000000000000000000000000000000000000000000000000000000000000",
        "nonce": "0x34b",
        "chainId": "0x2105"
      },
      "additionalContracts": [],
      "isFixedGasLimit": false
    },
    {
      "hash": "0x5894671310114584f888fc257fbd8380898b4d2e34798bd1a52816af42cff797",
      "transactionType": "CALL",
      "contractName": null,
      "contractAddress": "0xad473eaa51821c915d03d9db5349a0586d55e55e",
      "function": "submitMove(uint256,bytes32,bytes)",
      "arguments": [
        "31",
        "0x0692c63251d62c8f04eed454cc75e5bc199ba842e6b8106095e5d806a5e48cfa",
        "0x33230000"
      ],
      "transaction": {
        "from": "0xe403f79171b7050c78479f52e49e753d43e72c1a",
        "to": "0xad473eaa51821c915d03d9db5349a0586d55e55e",
        "gas": "0x124c3",
        "value": "0x0",
        "input": "0x73b07f89000000000000000000000000000000000000000000000000000000000000001f0692c63251d62c8f04eed454cc75e5bc199ba842e6b8106095e5d806a5e48cfa000000000000000000000000000000000000000000000000000000000000006000000000000000000000000000000000000000000000000000000000000000043323000000000000000000000000000000000000000000000000000000000000",
        "nonce": "0x34c",
        "chainId": "0x2105"
      },
      "additionalContracts": [],
      "isFixedGasLimit": false
    },
    {
      "hash": "0x1a184d6c21f4c508133e11d7ebf6c020e5da9ac01f6d912fa20ae72ebb4ff057",
      "transactionType": "CALL",
      "contractName": null,
      "contractAddress": "0xad473eaa51821c915d03d9db5349a0586d55e55e",
      "function": "submitMove(uint256,bytes32,bytes)",
      "arguments": [
        "31",
        "0x4442d021ec118fea7ce3641d3375363801af2e92adb1272f726cf20292795a62",
        "0x392a0000"
      ],
      "transaction": {
        "from": "0xe403f79171b7050c78479f52e49e753d43e72c1a",
        "to": "0xad473eaa51821c915d03d9db5349a0586d55e55e",
        "gas": "0x124c3",
        "value": "0x0",
        "input": "0x73b07f89000000000000000000000000000000000000000000000000000000000000001f4442d021ec118fea7ce3641d3375363801af2e92adb1272f726cf20292795a6200000000000000000000000000000000000000000000000000000000000000600000000000000000000000000000000000000000000000000000000000000004392a000000000000000000000000000000000000000000000000000000000000",
        "nonce": "0x34d",
        "chainId": "0x2105"
      },
      "additionalContracts": [],
      "isFixedGasLimit": false
    },
    {
      "hash": "0x6afecdbe6a0dab052934f90f91a43fa39fe43d7e0deb8601e7fba8e214a653b2",
      "transactionType": "CALL",
      "contractName": null,
      "contractAddress": "0xad473eaa51821c915d03d9db5349a0586d55e55e",
      "function": "submitMove(uint256,bytes32,bytes)",
      "arguments": [
        "31",
        "0xc7183fc0754b5e7da3b74bf364f8affe59ffdf73627f9b8e7d4991d4453bd364",
        "0x3b2c0000"
      ],
      "transaction": {
        "from": "0xe403f79171b7050c78479f52e49e753d43e72c1a",
        "to": "0xad473eaa51821c915d03d9db5349a0586d55e55e",
        "gas": "0x124c3",
        "value": "0x0",
        "input": "0x73b07f89000000000000000000000000000000000000000000000000000000000000001fc7183fc0754b5e7da3b74bf364f8affe59ffdf73627f9b8e7d4991d4453bd364000000000000000000000000000000000000000000000000000000000000006000000000000000000000000000000000000000000000000000000000000000043b2c000000000000000000000000000000000000000000000000000000000000",
        "nonce": "0x34e",
        "chainId": "0x2105"
      },
      "additionalContracts": [],
      "isFixedGasLimit": false
    },
    {
      "hash": "0x4ddceb211f83f2d0290ae8b3c06193a45c8812f2d83c4ffbd1668fb8a4ffbd4e",
      "transactionType": "CALL",
      "contractName": null,
      "contractAddress": "0xad473eaa51821c915d03d9db5349a0586d55e55e",
      "function": "submitMove(uint256,bytes32,bytes)",
      "arguments": [
        "32",
        "0x90e396633e67bfb131a9c9b400ea842e0f29f45c4bc7872a0e80af48deb78504",
        "0x30280000"
      ],
      "transaction": {
        "from": "0xe403f79171b7050c78479f52e49e753d43e72c1a",
        "to": "0xad473eaa51821c915d03d9db5349a0586d55e55e",
        "gas": "0x196a2",
        "value": "0x0",
        "input": "0x73b07f89000000000000000000000000000000000000000000000000000000000000002090e396633e67bfb131a9c9b400ea842e0f29f45c4bc7872a0e80af48deb78504000000000000000000000000000000000000000000000000000000000000006000000000000000000000000000000000000000000000000000000000000000043028000000000000000000000000000000000000000000000000000000000000",
        "nonce": "0x34f",
        "chainId": "0x2105"
      },
      "additionalContracts": [],
      "isFixedGasLimit": false
    },
    {
      "hash": "0x7cbc51e8b441d16cfe6c04a725cc8313a3d3e6aa2ffe45dbc6ec980dda91d634",
      "transactionType": "CALL",
      "contractName": null,
      "contractAddress": "0xad473eaa51821c915d03d9db5349a0586d55e55e",
      "function": "submitMove(uint256,bytes32,bytes)",
      "arguments": [
        "32",
        "0xfc6cc8976638831fc84ceab234894f532e0338e7268a3303d4c0c1939f85dbb9",
        "0x32220000"
      ],
      "transaction": {
        "from": "0xe403f79171b7050c78479f52e49e753d43e72c1a",
        "to": "0xad473eaa51821c915d03d9db5349a0586d55e55e",
        "gas": "0x124c3",
        "value": "0x0",
        "input": "0x73b07f890000000000000000000000000000000000000000000000000000000000000020fc6cc8976638831fc84ceab234894f532e0338e7268a3303d4c0c1939f85dbb9000000000000000000000000000000000000000000000000000000000000006000000000000000000000000000000000000000000000000000000000000000043222000000000000000000000000000000000000000000000000000000000000",
        "nonce": "0x350",
        "chainId": "0x2105"
      },
      "additionalContracts": [],
      "isFixedGasLimit": false
    },
    {
      "hash": "0x960e61d2222263e3d8055af4009a3591f7eae2adca7ee1c07bc0c5914540ff80",
      "transactionType": "CALL",
      "contractName": null,
      "contractAddress": "0xad473eaa51821c915d03d9db5349a0586d55e55e",
      "function": "submitMove(uint256,bytes32,bytes)",
      "arguments": [
        "32",
        "0xbb9afb9861b8290cda948e4af3b636449a44547dca4c3acbc45e65f4e22aab40",
        "0x31290000"
      ],
      "transaction": {
        "from": "0xe403f79171b7050c78479f52e49e753d43e72c1a",
        "to": "0xad473eaa51821c915d03d9db5349a0586d55e55e",
        "gas": "0x124c3",
        "value": "0x0",
        "input": "0x73b07f890000000000000000000000000000000000000000000000000000000000000020bb9afb9861b8290cda948e4af3b636449a44547dca4c3acbc45e65f4e22aab40000000000000000000000000000000000000000000000000000000000000006000000000000000000000000000000000000000000000000000000000000000043129000000000000000000000000000000000000000000000000000000000000",
        "nonce": "0x351",
        "chainId": "0x2105"
      },
      "additionalContracts": [],
      "isFixedGasLimit": false
    },
    {
      "hash": "0xcf5d3b63e4616eb8cebdee691a8da9a20cef09cab3ddaaf70d1d05dab3d093aa",
      "transactionType": "CALL",
      "contractName": null,
      "contractAddress": "0xad473eaa51821c915d03d9db5349a0586d55e55e",
      "function": "submitMove(uint256,bytes32,bytes)",
      "arguments": [
        "32",
        "0x2a4b22ea265f7017c3f5040f1eec7d58baac29eda24dc699336157972973d8e1",
        "0x3a2b0000"
      ],
      "transaction": {
        "from": "0xe403f79171b7050c78479f52e49e753d43e72c1a",
        "to": "0xad473eaa51821c915d03d9db5349a0586d55e55e",
        "gas": "0x124c3",
        "value": "0x0",
        "input": "0x73b07f8900000000000000000000000000000000000000000000000000000000000000202a4b22ea265f7017c3f5040f1eec7d58baac29eda24dc699336157972973d8e1000000000000000000000000000000000000000000000000000000000000006000000000000000000000000000000000000000000000000000000000000000043a2b000000000000000000000000000000000000000000000000000000000000",
        "nonce": "0x352",
        "chainId": "0x2105"
      },
      "additionalContracts": [],
      "isFixedGasLimit": false
    }
  ],
  "receipts": [
    {
      "status": "0x1",
      "cumulativeGasUsed": "0xc68c83",
      "logs": [
        {
          "address": "0xad473eaa51821c915d03d9db5349a0586d55e55e",
          "topics": [
            "0xca1357e0f94306885a9813b6797ad5acadca27e6b5bccbde2640d84f319df31e",
            "0x0000000000000000000000000000000000000000000000000000000000000019"
          ],
          "data": "0x3608f503d624b47779fba399a097e68bc35cdbd22fcf04e3d6b7a3bd8fa9b7460000000000000000000000000000000000000000000000000000000000000000",
          "blockHash": "0x2c86ba83d15e6e2d7ab77341c7b67ad5a140a14808bfdbe273256a171e1aaef5",
          "blockNumber": "0x26196ab",
          "blockTimestamp": "0x694d8a39",
          "transactionHash": "0x2d026fd684771cd720f168d3d25374a9bf6effa40d01f34a8502920a3f99d239",
          "transactionIndex": "0x6b",
          "logIndex": "0xe7",
          "removed": false
        },
        {
          "address": "0xad473eaa51821c915d03d9db5349a0586d55e55e",
          "topics": [
            "0x94af2fbea15ff3140faa3f70571c806b44849899a559d3c9f306155e45de0416",
            "0x0000000000000000000000000000000000000000000000000000000000000019",
            "0x000000000000000000000000e403f79171b7050c78479f52e49e753d43e72c1a"
          ],
          "data": "0x000000000000000000000000000000000000000000000000000000000000000100000000000000000000000000000000000000000000000000000000000000000000000000000000000000000000000000000000000000000000000000000000",
          "blockHash": "0x2c86ba83d15e6e2d7ab77341c7b67ad5a140a14808bfdbe273256a171e1aaef5",
          "blockNumber": "0x26196ab",
          "blockTimestamp": "0x694d8a39",
          "transactionHash": "0x2d026fd684771cd720f168d3d25374a9bf6effa40d01f34a8502920a3f99d239",
          "transactionIndex": "0x6b",
          "logIndex": "0xe8",
          "removed": false
        }
      ],
      "logsBloom": "0x00000000000000000000000000000000000000000000000000000040000400000000000000000000000000000000000000000000000000800000000000000000000000000001000000000000000000000000000000000000000000000000000000000000000000000000000000000000000000000000020000200000000000000000000000000000000000000200000000002000000000040002000000000000000004000000000000000000000000000000000000000000000000000000000000000000000000000000000000000000000000000000000000000008000004000000000000000000000000000000000000000000000000800000008000000000",
      "type": "0x2",
      "transactionHash": "0x2d026fd684771cd720f168d3d25374a9bf6effa40d01f34a8502920a3f99d239",
      "transactionIndex": "0x6b",
      "blockHash": "0x2c86ba83d15e6e2d7ab77341c7b67ad5a140a14808bfdbe273256a171e1aaef5",
      "blockNumber": "0x26196ab",
      "gasUsed": "0x3bd76",
      "effectiveGasPrice": "0xd89b5",
      "blobGasUsed": "0x7ef4",
      "from": "0xe403f79171b7050c78479f52e49e753d43e72c1a",
      "to": "0xad473eaa51821c915d03d9db5349a0586d55e55e",
      "contractAddress": null,
      "daFootprintGasScalar": "0x145",
      "l1BaseFeeScalar": "0x8dd",
      "l1BlobBaseFee": "0x1798b9",
      "l1BlobBaseFeeScalar": "0x101c12",
      "l1Fee": "0xf87bdc7",
      "l1GasPrice": "0x198e8d1",
      "l1GasUsed": "0x640"
    },
    {
      "status": "0x1",
      "cumulativeGasUsed": "0xca49f9",
      "logs": [
        {
          "address": "0xad473eaa51821c915d03d9db5349a0586d55e55e",
          "topics": [
            "0xca1357e0f94306885a9813b6797ad5acadca27e6b5bccbde2640d84f319df31e",
            "0x000000000000000000000000000000000000000000000000000000000000001a"
          ],
          "data": "0x3608f503d624b47779fba399a097e68bc35cdbd22fcf04e3d6b7a3bd8fa9b7460000000000000000000000000000000000000000000000000000000000000000",
          "blockHash": "0x2c86ba83d15e6e2d7ab77341c7b67ad5a140a14808bfdbe273256a171e1aaef5",
          "blockNumber": "0x26196ab",
          "blockTimestamp": "0x694d8a39",
          "transactionHash": "0x1af655b434a1804b1d154dbd61a67c28eb2ac0ee9490b50e548ead282177eea2",
          "transactionIndex": "0x6c",
          "logIndex": "0xe9",
          "removed": false
        },
        {
          "address": "0xad473eaa51821c915d03d9db5349a0586d55e55e",
          "topics": [
            "0x94af2fbea15ff3140faa3f70571c806b44849899a559d3c9f306155e45de0416",
            "0x000000000000000000000000000000000000000000000000000000000000001a",
            "0x000000000000000000000000e403f79171b7050c78479f52e49e753d43e72c1a"
          ],
          "data": "0x000000000000000000000000000000000000000000000000000000000000000100000000000000000000000000000000000000000000000000000000000000000000000000000000000000000000000000000000000000000000000000000000",
          "blockHash": "0x2c86ba83d15e6e2d7ab77341c7b67ad5a140a14808bfdbe273256a171e1aaef5",
          "blockNumber": "0x26196ab",
          "blockTimestamp": "0x694d8a39",
          "transactionHash": "0x1af655b434a1804b1d154dbd61a67c28eb2ac0ee9490b50e548ead282177eea2",
          "transactionIndex": "0x6c",
          "logIndex": "0xea",
          "removed": false
        }
      ],
      "logsBloom": "0x00000000000000000000000000000000000000000000000000000040000400000000000000000000000000000000000000000000000000000000000000000000000000000001000000000000000000001000000000000000000000001000000000000000000000000000000000000000000000000000000000200000000000000000000000000000000000000200000000002000000000040002000000000000000004000000000000000000000000000000000000000000000000000000000000000000000000000000000000000000000000000000000000000008000004000000000000000000000000000000000000000000000004800000000000000000",
      "type": "0x2",
      "transactionHash": "0x1af655b434a1804b1d154dbd61a67c28eb2ac0ee9490b50e548ead282177eea2",
      "transactionIndex": "0x6c",
      "blockHash": "0x2c86ba83d15e6e2d7ab77341c7b67ad5a140a14808bfdbe273256a171e1aaef5",
      "blockNumber": "0x26196ab",
      "gasUsed": "0x3bd76",
      "effectiveGasPrice": "0xd89b5",
      "blobGasUsed": "0x7ef4",
      "from": "0xe403f79171b7050c78479f52e49e753d43e72c1a",
      "to": "0xad473eaa51821c915d03d9db5349a0586d55e55e",
      "contractAddress": null,
      "daFootprintGasScalar": "0x145",
      "l1BaseFeeScalar": "0x8dd",
      "l1BlobBaseFee": "0x1798b9",
      "l1BlobBaseFeeScalar": "0x101c12",
      "l1Fee": "0xf87bdc7",
      "l1GasPrice": "0x198e8d1",
      "l1GasUsed": "0x640"
    },
    {
      "status": "0x1",
      "cumulativeGasUsed": "0x101f8e4",
      "logs": [
        {
          "address": "0xad473eaa51821c915d03d9db5349a0586d55e55e",
          "topics": [
            "0xca1357e0f94306885a9813b6797ad5acadca27e6b5bccbde2640d84f319df31e",
            "0x000000000000000000000000000000000000000000000000000000000000001b"
          ],
          "data": "0x3608f503d624b47779fba399a097e68bc35cdbd22fcf04e3d6b7a3bd8fa9b7460000000000000000000000000000000000000000000000000000000000000000",
          "blockHash": "0x2c86ba83d15e6e2d7ab77341c7b67ad5a140a14808bfdbe273256a171e1aaef5",
          "blockNumber": "0x26196ab",
          "blockTimestamp": "0x694d8a39",
          "transactionHash": "0x52b28dbcb92a364e16442eec707d51cee6f0b83264f1ecf230577228f602bc9e",
          "transactionIndex": "0x87",
          "logIndex": "0x118",
          "removed": false
        },
        {
          "address": "0xad473eaa51821c915d03d9db5349a0586d55e55e",
          "topics": [
            "0x94af2fbea15ff3140faa3f70571c806b44849899a559d3c9f306155e45de0416",
            "0x000000000000000000000000000000000000000000000000000000000000001b",
            "0x000000000000000000000000e403f79171b7050c78479f52e49e753d43e72c1a"
          ],
          "data": "0x000000000000000000000000000000000000000000000000000000000000000100000000000000000000000000000000000000000000000000000000000000000000000000000000000000000000000000000000000000000000000000000000",
          "blockHash": "0x2c86ba83d15e6e2d7ab77341c7b67ad5a140a14808bfdbe273256a171e1aaef5",
          "blockNumber": "0x26196ab",
          "blockTimestamp": "0x694d8a39",
          "transactionHash": "0x52b28dbcb92a364e16442eec707d51cee6f0b83264f1ecf230577228f602bc9e",
          "transactionIndex": "0x87",
          "logIndex": "0x119",
          "removed": false
        }
      ],
      "logsBloom": "0x00000000000000000000000000000000000000000010000000000040000400000000000000000000000000000000000000000000000000000000000000000000000000000001000000000000000000000000000000000000000000000000000000000000000000000000000000000000000000000000000000200000000000000000000000000000000000000200000000002000000000040002000000000000000004000100000000000000000000000000000000008000000000000000000000000000000000000000000000000000000000000000000000000008000004000000000000000000000000000000000000000000000000800000000000000000",
      "type": "0x2",
      "transactionHash": "0x52b28dbcb92a364e16442eec707d51cee6f0b83264f1ecf230577228f602bc9e",
      "transactionIndex": "0x87",
      "blockHash": "0x2c86ba83d15e6e2d7ab77341c7b67ad5a140a14808bfdbe273256a171e1aaef5",
      "blockNumber": "0x26196ab",
      "gasUsed": "0x3bd76",
      "effectiveGasPrice": "0xd89b5",
      "blobGasUsed": "0x7ef4",
      "from": "0xe403f79171b7050c78479f52e49e753d43e72c1a",
      "to": "0xad473eaa51821c915d03d9db5349a0586d55e55e",
      "contractAddress": null,
      "daFootprintGasScalar": "0x145",
      "l1BaseFeeScalar": "0x8dd",
      "l1BlobBaseFee": "0x1798b9",
      "l1BlobBaseFeeScalar": "0x101c12",
      "l1Fee": "0xf87bdc7",
      "l1GasPrice": "0x198e8d1",
      "l1GasUsed": "0x640"
    },
    {
      "status": "0x1",
      "cumulativeGasUsed": "0x105b65a",
      "logs": [
        {
          "address": "0xad473eaa51821c915d03d9db5349a0586d55e55e",
          "topics": [
            "0xca1357e0f94306885a9813b6797ad5acadca27e6b5bccbde2640d84f319df31e",
            "0x000000000000000000000000000000000000000000000000000000000000001c"
          ],
          "data": "0x3608f503d624b47779fba399a097e68bc35cdbd22fcf04e3d6b7a3bd8fa9b7460000000000000000000000000000000000000000000000000000000000000000",
          "blockHash": "0x2c86ba83d15e6e2d7ab77341c7b67ad5a140a14808bfdbe273256a171e1aaef5",
          "blockNumber": "0x26196ab",
          "blockTimestamp": "0x694d8a39",
          "transactionHash": "0xe17aad7a3ee09e50ec85cf1212b7cf35ed2289be9e4e14c3ececa3334d7adc9a",
          "transactionIndex": "0x88",
          "logIndex": "0x11a",
          "removed": false
        },
        {
          "address": "0xad473eaa51821c915d03d9db5349a0586d55e55e",
          "topics": [
            "0x94af2fbea15ff3140faa3f70571c806b44849899a559d3c9f306155e45de0416",
            "0x000000000000000000000000000000000000000000000000000000000000001c",
            "0x000000000000000000000000e403f79171b7050c78479f52e49e753d43e72c1a"
          ],
          "data": "0x000000000000000000000000000000000000000000000000000000000000000100000000000000000000000000000000000000000000000000000000000000000000000000000000000000000000000000000000000000000000000000000000",
          "blockHash": "0x2c86ba83d15e6e2d7ab77341c7b67ad5a140a14808bfdbe273256a171e1aaef5",
          "blockNumber": "0x26196ab",
          "blockTimestamp": "0x694d8a39",
          "transactionHash": "0xe17aad7a3ee09e50ec85cf1212b7cf35ed2289be9e4e14c3ececa3334d7adc9a",
          "transactionIndex": "0x88",
          "logIndex": "0x11b",
          "removed": false
        }
      ],
      "logsBloom": "0x00000000000000000000000000000000000000000000000000000040000400000000000000000000000000000000000000000000000000200000000000000000000000000001000000000000000000000000000000000000000000000000000000000000000000000000000000000000000000000000000000200000000000000000000000000000000000000200000200002000000000040002000000000000000004000000000000000002000000000000000000000000000000000000000000000000000000000000000000000000000000000000000000000008000004000000000000000000000000000000000000000000000000800000000000000000",
      "type": "0x2",
      "transactionHash": "0xe17aad7a3ee09e50ec85cf1212b7cf35ed2289be9e4e14c3ececa3334d7adc9a",
      "transactionIndex": "0x88",
      "blockHash": "0x2c86ba83d15e6e2d7ab77341c7b67ad5a140a14808bfdbe273256a171e1aaef5",
      "blockNumber": "0x26196ab",
      "gasUsed": "0x3bd76",
      "effectiveGasPrice": "0xd89b5",
      "blobGasUsed": "0x7ef4",
      "from": "0xe403f79171b7050c78479f52e49e753d43e72c1a",
      "to": "0xad473eaa51821c915d03d9db5349a0586d55e55e",
      "contractAddress": null,
      "daFootprintGasScalar": "0x145",
      "l1BaseFeeScalar": "0x8dd",
      "l1BlobBaseFee": "0x1798b9",
      "l1BlobBaseFeeScalar": "0x101c12",
      "l1Fee": "0xf87bdc7",
      "l1GasPrice": "0x198e8d1",
      "l1GasUsed": "0x640"
    },
    {
      "status": "0x1",
      "cumulativeGasUsed": "0x10973d0",
      "logs": [
        {
          "address": "0xad473eaa51821c915d03d9db5349a0586d55e55e",
          "topics": [
            "0xca1357e0f94306885a9813b6797ad5acadca27e6b5bccbde2640d84f319df31e",
            "0x000000000000000000000000000000000000000000000000000000000000001d"
          ],
          "data": "0x3608f503d624b47779fba399a097e68bc35cdbd22fcf04e3d6b7a3bd8fa9b7460000000000000000000000000000000000000000000000000000000000000000",
          "blockHash": "0x2c86ba83d15e6e2d7ab77341c7b67ad5a140a14808bfdbe273256a171e1aaef5",
          "blockNumber": "0x26196ab",
          "blockTimestamp": "0x694d8a39",
          "transactionHash": "0x575a0faec65cc59d9886eaa07e92ca1380dc4e29b2b3c344e913212635747f6c",
          "transactionIndex": "0x89",
          "logIndex": "0x11c",
          "removed": false
        },
        {
          "address": "0xad473eaa51821c915d03d9db5349a0586d55e55e",
          "topics": [
            "0x94af2fbea15ff3140faa3f70571c806b44849899a559d3c9f306155e45de0416",
            "0x000000000000000000000000000000000000000000000000000000000000001d",
            "0x000000000000000000000000e403f79171b7050c78479f52e49e753d43e72c1a"
          ],
          "data": "0x000000000000000000000000000000000000000000000000000000000000000100000000000000000000000000000000000000000000000000000000000000000000000000000000000000000000000000000000000000000000000000000000",
          "blockHash": "0x2c86ba83d15e6e2d7ab77341c7b67ad5a140a14808bfdbe273256a171e1aaef5",
          "blockNumber": "0x26196ab",
          "blockTimestamp": "0x694d8a39",
          "transactionHash": "0x575a0faec65cc59d9886eaa07e92ca1380dc4e29b2b3c344e913212635747f6c",
          "transactionIndex": "0x89",
          "logIndex": "0x11d",
          "removed": false
        }
      ],
      "logsBloom": "0x00000080000000000000000000000000000000000000000000000040000400000000000000000000000000000000000000000000000000000000000200000000000000000001000000000000000000000000000000000010000000000000000000000000000000000000000000000000000000000000000000200000000000000000000000000000000000000200000000002000000000040002000000000000000004000000000000000000000000000000000000000000000000000000000000000000000000000000000000000000000000000000000000000008000004000000000000000000000000000000000000000000000000800000000000000000",
      "type": "0x2",
      "transactionHash": "0x575a0faec65cc59d9886eaa07e92ca1380dc4e29b2b3c344e913212635747f6c",
      "transactionIndex": "0x89",
      "blockHash": "0x2c86ba83d15e6e2d7ab77341c7b67ad5a140a14808bfdbe273256a171e1aaef5",
      "blockNumber": "0x26196ab",
      "gasUsed": "0x3bd76",
      "effectiveGasPrice": "0xd89b5",
      "blobGasUsed": "0x7ef4",
      "from": "0xe403f79171b7050c78479f52e49e753d43e72c1a",
      "to": "0xad473eaa51821c915d03d9db5349a0586d55e55e",
      "contractAddress": null,
      "daFootprintGasScalar": "0x145",
      "l1BaseFeeScalar": "0x8dd",
      "l1BlobBaseFee": "0x1798b9",
      "l1BlobBaseFeeScalar": "0x101c12",
      "l1Fee": "0xf87bdc7",
      "l1GasPrice": "0x198e8d1",
      "l1GasUsed": "0x640"
    },
    {
      "status": "0x1",
      "cumulativeGasUsed": "0x10d3146",
      "logs": [
        {
          "address": "0xad473eaa51821c915d03d9db5349a0586d55e55e",
          "topics": [
            "0xca1357e0f94306885a9813b6797ad5acadca27e6b5bccbde2640d84f319df31e",
            "0x000000000000000000000000000000000000000000000000000000000000001e"
          ],
          "data": "0x3608f503d624b47779fba399a097e68bc35cdbd22fcf04e3d6b7a3bd8fa9b7460000000000000000000000000000000000000000000000000000000000000000",
          "blockHash": "0x8d9957a3d50519a91a0c199f2b60cc4dc0d809b914bbd7aa312285c259f02581",
          "blockNumber": "0x26196ab",
          "blockTimestamp": "0x694d8a39",
          "transactionHash": "0x5d755e0cf83facb6a4fa217111e26e1390abfec7f8569021079708210b04b89f",
          "transactionIndex": "0x8a",
          "logIndex": "0x11e",
          "removed": false
        },
        {
          "address": "0xad473eaa51821c915d03d9db5349a0586d55e55e",
          "topics": [
            "0x94af2fbea15ff3140faa3f70571c806b44849899a559d3c9f306155e45de0416",
            "0x000000000000000000000000000000000000000000000000000000000000001e",
            "0x000000000000000000000000e403f79171b7050c78479f52e49e753d43e72c1a"
          ],
          "data": "0x000000000000000000000000000000000000000000000000000000000000000100000000000000000000000000000000000000000000000000000000000000000000000000000000000000000000000000000000000000000000000000000000",
          "blockHash": "0x8d9957a3d50519a91a0c199f2b60cc4dc0d809b914bbd7aa312285c259f02581",
          "blockNumber": "0x26196ab",
          "blockTimestamp": "0x694d8a39",
          "transactionHash": "0x5d755e0cf83facb6a4fa217111e26e1390abfec7f8569021079708210b04b89f",
          "transactionIndex": "0x8a",
          "logIndex": "0x11f",
          "removed": false
        }
      ],
      "logsBloom": "0x00000000000000000000000000000000000000000000000000000040000400000000000000000000000000000400000000000000000000000000000000000000000000000001008000000000000000000000000000000000000000000000000000000000000000000000000000000000000000000000000000200000000000000000000000000000000000000200000000002000000000040002000000000000000004000000000000000000000000000000000000000000000000000000000000000000000000000000000000000000000000000000000000000008000004000000000000000000080000000000000000000000000000800000000000000000",
      "type": "0x2",
      "transactionHash": "0x5d755e0cf83facb6a4fa217111e26e1390abfec7f8569021079708210b04b89f",
      "transactionIndex": "0x8a",
      "blockHash": "0x8d9957a3d50519a91a0c199f2b60cc4dc0d809b914bbd7aa312285c259f02581",
      "blockNumber": "0x26196ab",
      "gasUsed": "0x3bd76",
      "effectiveGasPrice": "0xd89b5",
      "blobGasUsed": "0x7ef4",
      "from": "0xe403f79171b7050c78479f52e49e753d43e72c1a",
      "to": "0xad473eaa51821c915d03d9db5349a0586d55e55e",
      "contractAddress": null,
      "daFootprintGasScalar": "0x145",
      "l1BaseFeeScalar": "0x8dd",
      "l1BlobBaseFee": "0x1798b9",
      "l1BlobBaseFeeScalar": "0x101c12",
      "l1Fee": "0x2ddec3f6",
      "l1GasPrice": "0x198e8d1",
      "l1GasUsed": "0x640"
    },
    {
      "status": "0x1",
      "cumulativeGasUsed": "0x110eebc",
      "logs": [
        {
          "address": "0xad473eaa51821c915d03d9db5349a0586d55e55e",
          "topics": [
            "0xca1357e0f94306885a9813b6797ad5acadca27e6b5bccbde2640d84f319df31e",
            "0x000000000000000000000000000000000000000000000000000000000000001f"
          ],
          "data": "0x3608f503d624b47779fba399a097e68bc35cdbd22fcf04e3d6b7a3bd8fa9b7460000000000000000000000000000000000000000000000000000000000000000",
          "blockHash": "0x2c86ba83d15e6e2d7ab77341c7b67ad5a140a14808bfdbe273256a171e1aaef5",
          "blockNumber": "0x26196ab",
          "blockTimestamp": "0x694d8a39",
          "transactionHash": "0x5fd2d6d78ce89f77f9683728dd3d0b477ae4fb4fad723296972df9e16eca3a5f",
          "transactionIndex": "0x8b",
          "logIndex": "0x120",
          "removed": false
        },
        {
          "address": "0xad473eaa51821c915d03d9db5349a0586d55e55e",
          "topics": [
            "0x94af2fbea15ff3140faa3f70571c806b44849899a559d3c9f306155e45de0416",
            "0x000000000000000000000000000000000000000000000000000000000000001f",
            "0x000000000000000000000000e403f79171b7050c78479f52e49e753d43e72c1a"
          ],
          "data": "0x000000000000000000000000000000000000000000000000000000000000000100000000000000000000000000000000000000000000000000000000000000000000000000000000000000000000000000000000000000000000000000000000",
          "blockHash": "0x2c86ba83d15e6e2d7ab77341c7b67ad5a140a14808bfdbe273256a171e1aaef5",
          "blockNumber": "0x26196ab",
          "blockTimestamp": "0x694d8a39",
          "transactionHash": "0x5fd2d6d78ce89f77f9683728dd3d0b477ae4fb4fad723296972df9e16eca3a5f",
          "transactionIndex": "0x8b",
          "logIndex": "0x121",
          "removed": false
        }
      ],
      "logsBloom": "0x00000000000000000000000400000000000000000000000000000040000400000000000000000000000000000000000000000000000000000000000000000000000000000001000000000000000000000000000000000000000000000000000000000000000000000000000000000000000000000000000000200000000000000000000000000000000000000200000000002000000000040002000000000000000004000000000000000000000000000000000000000000000000000001000000000000000000000000000000000000000000000000000000000008000004000000000000000000000000000000000000000000000000800100000000000000",
      "type": "0x2",
      "transactionHash": "0x5fd2d6d78ce89f77f9683728dd3d0b477ae4fb4fad723296972df9e16eca3a5f",
      "transactionIndex": "0x8b",
      "blockHash": "0x2c86ba83d15e6e2d7ab77341c7b67ad5a140a14808bfdbe273256a171e1aaef5",
      "blockNumber": "0x26196ab",
      "gasUsed": "0x3bd76",
      "effectiveGasPrice": "0xd89b5",
      "blobGasUsed": "0x7ef4",
      "from": "0xe403f79171b7050c78479f52e49e753d43e72c1a",
      "to": "0xad473eaa51821c915d03d9db5349a0586d55e55e",
      "contractAddress": null,
      "daFootprintGasScalar": "0x145",
      "l1BaseFeeScalar": "0x8dd",
      "l1BlobBaseFee": "0x1798b9",
      "l1BlobBaseFeeScalar": "0x101c12",
      "l1Fee": "0xf87bdc7",
      "l1GasPrice": "0x198e8d1",
      "l1GasUsed": "0x640"
    },
    {
      "status": "0x1",
      "cumulativeGasUsed": "0x15d1e5f",
      "logs": [
        {
          "address": "0xad473eaa51821c915d03d9db5349a0586d55e55e",
          "topics": [
            "0xca1357e0f94306885a9813b6797ad5acadca27e6b5bccbde2640d84f319df31e",
            "0x0000000000000000000000000000000000000000000000000000000000000020"
          ],
          "data": "0x3608f503d624b47779fba399a097e68bc35cdbd22fcf04e3d6b7a3bd8fa9b7460000000000000000000000000000000000000000000000000000000000000000",
          "blockHash": "0x2c86ba83d15e6e2d7ab77341c7b67ad5a140a14808bfdbe273256a171e1aaef5",
          "blockNumber": "0x26196ab",
          "blockTimestamp": "0x694d8a39",
          "transactionHash": "0x3483cc39d673164c2f716aa13c57c8125c3aef1733034b8b4a099e7e6db1a4c6",
          "transactionIndex": "0xa8",
          "logIndex": "0x174",
          "removed": false
        },
        {
          "address": "0xad473eaa51821c915d03d9db5349a0586d55e55e",
          "topics": [
            "0x94af2fbea15ff3140faa3f70571c806b44849899a559d3c9f306155e45de0416",
            "0x0000000000000000000000000000000000000000000000000000000000000020",
            "0x000000000000000000000000e403f79171b7050c78479f52e49e753d43e72c1a"
          ],
          "data": "0x000000000000000000000000000000000000000000000000000000000000000100000000000000000000000000000000000000000000000000000000000000000000000000000000000000000000000000000000000000000000000000000000",
          "blockHash": "0x2c86ba83d15e6e2d7ab77341c7b67ad5a140a14808bfdbe273256a171e1aaef5",
          "blockNumber": "0x26196ab",
          "blockTimestamp": "0x694d8a39",
          "transactionHash": "0x3483cc39d673164c2f716aa13c57c8125c3aef1733034b8b4a099e7e6db1a4c6",
          "transactionIndex": "0xa8",
          "logIndex": "0x175",
          "removed": false
        }
      ],
      "logsBloom": "0x00000000000000000000000000000000000000000000000000000040000400000000000000000000000000000000000000000000000000000000000000000000000000000001000000000000000000000000000000000000000000000000000000000000000000000000000000000000000000000000000000200000000000000000000000000000000000000200000000002000000000040002000000000000000404000000000000000000000000000000000000000000000000000000000000000000000000000000000000000000080000000000000000000008000004000000400000000000000000000000000000000000000000800000000000000000",
      "type": "0x2",
      "transactionHash": "0x3483cc39d673164c2f716aa13c57c8125c3aef1733034b8b4a099e7e6db1a4c6",
      "transactionIndex": "0xa8",
      "blockHash": "0x2c86ba83d15e6e2d7ab77341c7b67ad5a140a14808bfdbe273256a171e1aaef5",
      "blockNumber": "0x26196ab",
      "gasUsed": "0x3bd76",
      "effectiveGasPrice": "0xd89b5",
      "blobGasUsed": "0x7ef4",
      "from": "0xe403f79171b7050c78479f52e49e753d43e72c1a",
      "to": "0xad473eaa51821c915d03d9db5349a0586d55e55e",
      "contractAddress": null,
      "daFootprintGasScalar": "0x145",
      "l1BaseFeeScalar": "0x8dd",
      "l1BlobBaseFee": "0x1798b9",
      "l1BlobBaseFeeScalar": "0x101c12",
      "l1Fee": "0xf87bdc7",
      "l1GasPrice": "0x198e8d1",
      "l1GasUsed": "0x640"
    },
    {
      "status": "0x1",
      "cumulativeGasUsed": "0x15e3476",
      "logs": [
        {
          "address": "0xad473eaa51821c915d03d9db5349a0586d55e55e",
          "topics": [
            "0x36e13ba1e45df3ecb8f6beb6274a1f5d4abf4c0792bb56700354f0d50bf0acd7",
            "0x0000000000000000000000000000000000000000000000000000000000000019",
            "0x000000000000000000000000e403f79171b7050c78479f52e49e753d43e72c1a"
          ],
          "data": "0xe8773807ffd17108aa2d132cec684352f2c5c8337ff4659cc010d15b0551847d0000000000000000000000000000000000000000000000000000000000000001000000000000000000000000000000000000000000000000000000000000006000000000000000000000000000000000000000000000000000000000000000043424000000000000000000000000000000000000000000000000000000000000",
          "blockHash": "0x2c86ba83d15e6e2d7ab77341c7b67ad5a140a14808bfdbe273256a171e1aaef5",
          "blockNumber": "0x26196ab",
          "blockTimestamp": "0x694d8a39",
          "transactionHash": "0x8eb4a94b18bc61fda75e5db14e17f86bb28d4cc2de992b7733e55a6dc2d992a8",
          "transactionIndex": "0xa9",
          "logIndex": "0x176",
          "removed": false
        },
        {
          "address": "0xad473eaa51821c915d03d9db5349a0586d55e55e",
          "topics": [
            "0x36e13ba1e45df3ecb8f6beb6274a1f5d4abf4c0792bb56700354f0d50bf0acd7",
            "0x0000000000000000000000000000000000000000000000000000000000000019",
            "0x000000000000000000000000ad473eaa51821c915d03d9db5349a0586d55e55e"
          ],
          "data": "0xf4bb36a023d03b095a88119a20a9000a252aea11d80408b3bd0c6bade87b4ba70000000000000000000000000000000000000000000000000000000000000002000000000000000000000000000000000000000000000000000000000000006000000000000000000000000000000000000000000000000000000000000000043424000000000000000000000000000000000000000000000000000000000000",
          "blockHash": "0x2c86ba83d15e6e2d7ab77341c7b67ad5a140a14808bfdbe273256a171e1aaef5",
          "blockNumber": "0x26196ab",
          "blockTimestamp": "0x694d8a39",
          "transactionHash": "0x8eb4a94b18bc61fda75e5db14e17f86bb28d4cc2de992b7733e55a6dc2d992a8",
          "transactionIndex": "0xa9",
          "logIndex": "0x177",
          "removed": false
        }
      ],
      "logsBloom": "0x00000000000000000000000000000000000000000000000000000000000400000000000000000000000000000000000000000000000000800000000000000000000000000000000000000000000000000000000010000000000000000000000000000000000000000000000000000040000000000400020000000000000000000000000000000000000000000200000000000000000000040002000000000000000004000000000000000000000000000000000000000000000000004000000000000000000000000000000000400000000000000000000000000000000800000000000000000000000000000000000000000000000000800000008000000000",
      "type": "0x2",
      "transactionHash": "0x8eb4a94b18bc61fda75e5db14e17f86bb28d4cc2de992b7733e55a6dc2d992a8",
      "transactionIndex": "0xa9",
      "blockHash": "0x2c86ba83d15e6e2d7ab77341c7b67ad5a140a14808bfdbe273256a171e1aaef5",
      "blockNumber": "0x26196ab",
      "gasUsed": "0x11617",
      "effectiveGasPrice": "0xd89b5",
      "blobGasUsed": "0x8a61",
      "from": "0xe403f79171b7050c78479f52e49e753d43e72c1a",
      "to": "0xad473eaa51821c915d03d9db5349a0586d55e55e",
      "contractAddress": null,
      "daFootprintGasScalar": "0x145",
      "l1BaseFeeScalar": "0x8dd",
      "l1BlobBaseFee": "0x1798b9",
      "l1BlobBaseFeeScalar": "0x101c12",
      "l1Fee": "0x1107b1cf",
      "l1GasPrice": "0x198e8d1",
      "l1GasUsed": "0x6da"
    },
    {
      "status": "0x1",
      "cumulativeGasUsed": "0x15f086b",
      "logs": [
        {
          "address": "0xad473eaa51821c915d03d9db5349a0586d55e55e",
          "topics": [
            "0x36e13ba1e45df3ecb8f6beb6274a1f5d4abf4c0792bb56700354f0d50bf0acd7",
            "0x0000000000000000000000000000000000000000000000000000000000000019",
            "0x000000000000000000000000e403f79171b7050c78479f52e49e753d43e72c1a"
          ],
          "data": "0x0692c63251d62c8f04eed454cc75e5bc199ba842e6b8106095e5d806a5e48cfa0000000000000000000000000000000000000000000000000000000000000003000000000000000000000000000000000000000000000000000000000000006000000000000000000000000000000000000000000000000000000000000000043323000000000000000000000000000000000000000000000000000000000000",
          "blockHash": "0x2c86ba83d15e6e2d7ab77341c7b67ad5a140a14808bfdbe273256a171e1aaef5",
          "blockNumber": "0x26196ab",
          "blockTimestamp": "0x694d8a39",
          "transactionHash": "0x6f492ef46f461e99b099292c69e8ec236e9875319aa7b3f7a358ab61269f0786",
          "transactionIndex": "0xaa",
          "logIndex": "0x178",
          "removed": false
        },
        {
          "address": "0xad473eaa51821c915d03d9db5349a0586d55e55e",
          "topics": [
            "0x36e13ba1e45df3ecb8f6beb6274a1f5d4abf4c0792bb56700354f0d50bf0acd7",
            "0x0000000000000000000000000000000000000000000000000000000000000019",
            "0x000000000000000000000000ad473eaa51821c915d03d9db5349a0586d55e55e"
          ],
          "data": "0x80db663b91d50261d3b6cf7c40f14617bc570551fdc50ae5d379aac6ea1fb5d50000000000000000000000000000000000000000000000000000000000000004000000000000000000000000000000000000000000000000000000000000006000000000000000000000000000000000000000000000000000000000000000043d0c000000000000000000000000000000000000000000000000000000000000",
          "blockHash": "0x2c86ba83d15e6e2d7ab77341c7b67ad5a140a14808bfdbe273256a171e1aaef5",
          "blockNumber": "0x26196ab",
          "blockTimestamp": "0x694d8a39",
          "transactionHash": "0x6f492ef46f461e99b099292c69e8ec236e9875319aa7b3f7a358ab61269f0786",
          "transactionIndex": "0xaa",
          "logIndex": "0x179",
          "removed": false
        }
      ],
      "logsBloom": "0x00000000000000000000000000000000000000000000000000000000000400000000000000000000000000000000000000000000000000800000000000000000000000000000000000000000000000000000000010000000000000000000000000000000000000000000000000000040000000000400020000000000000000000000000000000000000000000200000000000000000000040002000000000000000004000000000000000000000000000000000000000000000000004000000000000000000000000000000000400000000000000000000000000000000800000000000000000000000000000000000000000000000000800000008000000000",
      "type": "0x2",
      "transactionHash": "0x6f492ef46f461e99b099292c69e8ec236e9875319aa7b3f7a358ab61269f0786",
      "transactionIndex": "0xaa",
      "blockHash": "0x2c86ba83d15e6e2d7ab77341c7b67ad5a140a14808bfdbe273256a171e1aaef5",
      "blockNumber": "0x26196ab",
      "gasUsed": "0xd3f5",
      "effectiveGasPrice": "0xd89b5",
      "blobGasUsed": "0x8a61",
      "from": "0xe403f79171b7050c78479f52e49e753d43e72c1a",
      "to": "0xad473eaa51821c915d03d9db5349a0586d55e55e",
      "contractAddress": null,
      "daFootprintGasScalar": "0x145",
      "l1BaseFeeScalar": "0x8dd",
      "l1BlobBaseFee": "0x1798b9",
      "l1BlobBaseFeeScalar": "0x101c12",
      "l1Fee": "0x1107b1cf",
      "l1GasPrice": "0x198e8d1",
      "l1GasUsed": "0x6da"
    },
    {
      "status": "0x1",
      "cumulativeGasUsed": "0x15fdc60",
      "logs": [
        {
          "address": "0xad473eaa51821c915d03d9db5349a0586d55e55e",
          "topics": [
            "0x36e13ba1e45df3ecb8f6beb6274a1f5d4abf4c0792bb56700354f0d50bf0acd7",
            "0x0000000000000000000000000000000000000000000000000000000000000019",
            "0x000000000000000000000000e403f79171b7050c78479f52e49e753d43e72c1a"
          ],
          "data": "0x4442d021ec118fea7ce3641d3375363801af2e92adb1272f726cf20292795a62000000000000000000000000000000000000000000000000000000000000000500000000000000000000000000000000000000000000000000000000000000600000000000000000000000000000000000000000000000000000000000000004392a000000000000000000000000000000000000000000000000000000000000",
          "blockHash": "0x2c86ba83d15e6e2d7ab77341c7b67ad5a140a14808bfdbe273256a171e1aaef5",
          "blockNumber": "0x26196ab",
          "blockTimestamp": "0x694d8a39",
          "transactionHash": "0x7de4fc5007eeca9cab67f86247568c66898b51da379883d985ec4ecd3da8fc27",
          "transactionIndex": "0xab",
          "logIndex": "0x17a",
          "removed": false
        },
        {
          "address": "0xad473eaa51821c915d03d9db5349a0586d55e55e",
          "topics": [
            "0x36e13ba1e45df3ecb8f6beb6274a1f5d4abf4c0792bb56700354f0d50bf0acd7",
            "0x0000000000000000000000000000000000000000000000000000000000000019",
            "0x000000000000000000000000ad473eaa51821c915d03d9db5349a0586d55e55e"
          ],
          "data": "0xe131cca08afe30756df90d03f27be0045be7f7a0d73031afbdf14f8a193cb8e6000000000000000000000000000000000000000000000000000000000000000600000000000000000000000000000000000000000000000000000000000000600000000000000000000000000000000000000000000000000000000000000004271a000000000000000000000000000000000000000000000000000000000000",
          "blockHash": "0x2c86ba83d15e6e2d7ab77341c7b67ad5a140a14808bfdbe273256a171e1aaef5",
          "blockNumber": "0x26196ab",
          "blockTimestamp": "0x694d8a39",
          "transactionHash": "0x7de4fc5007eeca9cab67f86247568c66898b51da379883d985ec4ecd3da8fc27",
          "transactionIndex": "0xab",
          "logIndex": "0x17b",
          "removed": false
        }
      ],
      "logsBloom": "0x00000000000000000000000000000000000000000000000000000000000400000000000000000000000000000000000000000000000000800000000000000000000000000000000000000000000000000000000010000000000000000000000000000000000000000000000000000040000000000400020000000000000000000000000000000000000000000200000000000000000000040002000000000000000004000000000000000000000000000000000000000000000000004000000000000000000000000000000000400000000000000000000000000000000800000000000000000000000000000000000000000000000000800000008000000000",
      "type": "0x2",
      "transactionHash": "0x7de4fc5007eeca9cab67f86247568c66898b51da379883d985ec4ecd3da8fc27",
      "transactionIndex": "0xab",
      "blockHash": "0x2c86ba83d15e6e2d7ab77341c7b67ad5a140a14808bfdbe273256a171e1aaef5",
      "blockNumber": "0x26196ab",
      "gasUsed": "0xd3f5",
      "effectiveGasPrice": "0xd89b5",
      "blobGasUsed": "0x8a61",
      "from": "0xe403f79171b7050c78479f52e49e753d43e72c1a",
      "to": "0xad473eaa51821c915d03d9db5349a0586d55e55e",
      "contractAddress": null,
      "daFootprintGasScalar": "0x145",
      "l1BaseFeeScalar": "0x8dd",
      "l1BlobBaseFee": "0x1798b9",
      "l1BlobBaseFeeScalar": "0x101c12",
      "l1Fee": "0x1107b1cf",
      "l1GasPrice": "0x198e8d1",
      "l1GasUsed": "0x6da"
    },
    {
      "status": "0x1",
      "cumulativeGasUsed": "0x160b055",
      "logs": [
        {
          "address": "0xad473eaa51821c915d03d9db5349a0586d55e55e",
          "topics": [
            "0x36e13ba1e45df3ecb8f6beb6274a1f5d4abf4c0792bb56700354f0d50bf0acd7",
            "0x0000000000000000000000000000000000000000000000000000000000000019",
            "0x000000000000000000000000e403f79171b7050c78479f52e49e753d43e72c1a"
          ],
          "data": "0xc7183fc0754b5e7da3b74bf364f8affe59ffdf73627f9b8e7d4991d4453bd3640000000000000000000000000000000000000000000000000000000000000007000000000000000000000000000000000000000000000000000000000000006000000000000000000000000000000000000000000000000000000000000000043b2c000000000000000000000000000000000000000000000000000000000000",
          "blockHash": "0x2c86ba83d15e6e2d7ab77341c7b67ad5a140a14808bfdbe273256a171e1aaef5",
          "blockNumber": "0x26196ab",
          "blockTimestamp": "0x694d8a39",
          "transactionHash": "0x76fb96d9dd00525138dd8f9054bf6603b7e5c95d94ce9293e0587906276cb8c7",
          "transactionIndex": "0xac",
          "logIndex": "0x17c",
          "removed": false
        },
        {
          "address": "0xad473eaa51821c915d03d9db5349a0586d55e55e",
          "topics": [
            "0x36e13ba1e45df3ecb8f6beb6274a1f5d4abf4c0792bb56700354f0d50bf0acd7",
            "0x0000000000000000000000000000000000000000000000000000000000000019",
            "0x000000000000000000000000ad473eaa51821c915d03d9db5349a0586d55e55e"
          ],
          "data": "0xfa672e07d673b2d218b92d8ee0e059b5d1bfc274c1d1aaf67086a3dbe5f1587f0000000000000000000000000000000000000000000000000000000000000008000000000000000000000000000000000000000000000000000000000000006000000000000000000000000000000000000000000000000000000000000000042b13000000000000000000000000000000000000000000000000000000000000",
          "blockHash": "0x2c86ba83d15e6e2d7ab77341c7b67ad5a140a14808bfdbe273256a171e1aaef5",
          "blockNumber": "0x26196ab",
          "blockTimestamp": "0x694d8a39",
          "transactionHash": "0x76fb96d9dd00525138dd8f9054bf6603b7e5c95d94ce9293e0587906276cb8c7",
          "transactionIndex": "0xac",
          "logIndex": "0x17d",
          "removed": false
        }
      ],
      "logsBloom": "0x00000000000000000000000000000000000000000000000000000000000400000000000000000000000000000000000000000000000000800000000000000000000000000000000000000000000000000000000010000000000000000000000000000000000000000000000000000040000000000400020000000000000000000000000000000000000000000200000000000000000000040002000000000000000004000000000000000000000000000000000000000000000000004000000000000000000000000000000000400000000000000000000000000000000800000000000000000000000000000000000000000000000000800000008000000000",
      "type": "0x2",
      "transactionHash": "0x76fb96d9dd00525138dd8f9054bf6603b7e5c95d94ce9293e0587906276cb8c7",
      "transactionIndex": "0xac",
      "blockHash": "0x2c86ba83d15e6e2d7ab77341c7b67ad5a140a14808bfdbe273256a171e1aaef5",
      "blockNumber": "0x26196ab",
      "gasUsed": "0xd3f5",
      "effectiveGasPrice": "0xd89b5",
      "blobGasUsed": "0x8a61",
      "from": "0xe403f79171b7050c78479f52e49e753d43e72c1a",
      "to": "0xad473eaa51821c915d03d9db5349a0586d55e55e",
      "contractAddress": null,
      "daFootprintGasScalar": "0x145",
      "l1BaseFeeScalar": "0x8dd",
      "l1BlobBaseFee": "0x1798b9",
      "l1BlobBaseFeeScalar": "0x101c12",
      "l1Fee": "0x1107b1cf",
      "l1GasPrice": "0x198e8d1",
      "l1GasUsed": "0x6da"
    },
    {
      "status": "0x1",
      "cumulativeGasUsed": "0x161c660",
      "logs": [
        {
          "address": "0xad473eaa51821c915d03d9db5349a0586d55e55e",
          "topics": [
            "0x36e13ba1e45df3ecb8f6beb6274a1f5d4abf4c0792bb56700354f0d50bf0acd7",
            "0x000000000000000000000000000000000000000000000000000000000000001a",
            "0x000000000000000000000000e403f79171b7050c78479f52e49e753d43e72c1a"
          ],
          "data": "0x90e396633e67bfb131a9c9b400ea842e0f29f45c4bc7872a0e80af48deb785040000000000000000000000000000000000000000000000000000000000000001000000000000000000000000000000000000000000000000000000000000006000000000000000000000000000000000000000000000000000000000000000043028000000000000000000000000000000000000000000000000000000000000",
          "blockHash": "0x2c86ba83d15e6e2d7ab77341c7b67ad5a140a14808bfdbe273256a171e1aaef5",
          "blockNumber": "0x26196ab",
          "blockTimestamp": "0x694d8a39",
          "transactionHash": "0xf4cd82bd12fe6d160d9fa0f90ef725c5f63849e92453b513b824fba4603bb0db",
          "transactionIndex": "0xad",
          "logIndex": "0x17e",
          "removed": false
        },
        {
          "address": "0xad473eaa51821c915d03d9db5349a0586d55e55e",
          "topics": [
            "0x36e13ba1e45df3ecb8f6beb6274a1f5d4abf4c0792bb56700354f0d50bf0acd7",
            "0x000000000000000000000000000000000000000000000000000000000000001a",
            "0x000000000000000000000000ad473eaa51821c915d03d9db5349a0586d55e55e"
          ],
          "data": "0x60e65b9330f95689004881ceb0c70271140d7a6c66037940d345a33188c341c30000000000000000000000000000000000000000000000000000000000000002000000000000000000000000000000000000000000000000000000000000006000000000000000000000000000000000000000000000000000000000000000043424000000000000000000000000000000000000000000000000000000000000",
          "blockHash": "0x2c86ba83d15e6e2d7ab77341c7b67ad5a140a14808bfdbe273256a171e1aaef5",
          "blockNumber": "0x26196ab",
          "blockTimestamp": "0x694d8a39",
          "transactionHash": "0xf4cd82bd12fe6d160d9fa0f90ef725c5f63849e92453b513b824fba4603bb0db",
          "transactionIndex": "0xad",
          "logIndex": "0x17f",
          "removed": false
        }
      ],
      "logsBloom": "0x00000000000000000000000000000000000000000000000000000000000400000000000000000000000000000000000000000000000000000000000000000000000000000000000000000000000000001000000010000000000000001000000000000000000000000000000000000040000000000400000000000000000000000000000000000000000000000200000000000000000000040002000000000000000004000000000000000000000000000000000000000000000000004000000000000000000000000000000000400000000000000000000000000000000800000000000000000000000000000000000000000000000004800000000000000000",
      "type": "0x2",
      "transactionHash": "0xf4cd82bd12fe6d160d9fa0f90ef725c5f63849e92453b513b824fba4603bb0db",
      "transactionIndex": "0xad",
      "blockHash": "0x2c86ba83d15e6e2d7ab77341c7b67ad5a140a14808bfdbe273256a171e1aaef5",
      "blockNumber": "0x26196ab",
      "gasUsed": "0x1160b",
      "effectiveGasPrice": "0xd89b5",
      "blobGasUsed": "0x8a61",
      "from": "0xe403f79171b7050c78479f52e49e753d43e72c1a",
      "to": "0xad473eaa51821c915d03d9db5349a0586d55e55e",
      "contractAddress": null,
      "daFootprintGasScalar": "0x145",
      "l1BaseFeeScalar": "0x8dd",
      "l1BlobBaseFee": "0x1798b9",
      "l1BlobBaseFeeScalar": "0x101c12",
      "l1Fee": "0x1107b1cf",
      "l1GasPrice": "0x198e8d1",
      "l1GasUsed": "0x6da"
    },
    {
      "status": "0x1",
      "cumulativeGasUsed": "0x1629a55",
      "logs": [
        {
          "address": "0xad473eaa51821c915d03d9db5349a0586d55e55e",
          "topics": [
            "0x36e13ba1e45df3ecb8f6beb6274a1f5d4abf4c0792bb56700354f0d50bf0acd7",
            "0x000000000000000000000000000000000000000000000000000000000000001a",
            "0x000000000000000000000000e403f79171b7050c78479f52e49e753d43e72c1a"
          ],
          "data": "0xfc6cc8976638831fc84ceab234894f532e0338e7268a3303d4c0c1939f85dbb90000000000000000000000000000000000000000000000000000000000000003000000000000000000000000000000000000000000000000000000000000006000000000000000000000000000000000000000000000000000000000000000043222000000000000000000000000000000000000000000000000000000000000",
          "blockHash": "0x2c86ba83d15e6e2d7ab77341c7b67ad5a140a14808bfdbe273256a171e1aaef5",
          "blockNumber": "0x26196ab",
          "blockTimestamp": "0x694d8a39",
          "transactionHash": "0xd76485cc2982dd402f2c5a3131039599ad05ebbcffb5c4fbc4a8626f53d5f31e",
          "transactionIndex": "0xae",
          "logIndex": "0x180",
          "removed": false
        },
        {
          "address": "0xad473eaa51821c915d03d9db5349a0586d55e55e",
          "topics": [
            "0x36e13ba1e45df3ecb8f6beb6274a1f5d4abf4c0792bb56700354f0d50bf0acd7",
            "0x000000000000000000000000000000000000000000000000000000000000001a",
            "0x000000000000000000000000ad473eaa51821c915d03d9db5349a0586d55e55e"
          ],
          "data": "0x0192d1e4a25acce6e7a2d4e8900eba6030b412ccc2d92d174c541b9d6055ff390000000000000000000000000000000000000000000000000000000000000004000000000000000000000000000000000000000000000000000000000000006000000000000000000000000000000000000000000000000000000000000000043c1b000000000000000000000000000000000000000000000000000000000000",
          "blockHash": "0x2c86ba83d15e6e2d7ab77341c7b67ad5a140a14808bfdbe273256a171e1aaef5",
          "blockNumber": "0x26196ab",
          "blockTimestamp": "0x694d8a39",
          "transactionHash": "0xd76485cc2982dd402f2c5a3131039599ad05ebbcffb5c4fbc4a8626f53d5f31e",
          "transactionIndex": "0xae",
          "logIndex": "0x181",
          "removed": false
        }
      ],
      "logsBloom": "0x00000000000000000000000000000000000000000000000000000000000400000000000000000000000000000000000000000000000000000000000000000000000000000000000000000000000000001000000010000000000000001000000000000000000000000000000000000040000000000400000000000000000000000000000000000000000000000200000000000000000000040002000000000000000004000000000000000000000000000000000000000000000000004000000000000000000000000000000000400000000000000000000000000000000800000000000000000000000000000000000000000000000004800000000000000000",
      "type": "0x2",
      "transactionHash": "0xd76485cc2982dd402f2c5a3131039599ad05ebbcffb5c4fbc4a8626f53d5f31e",
      "transactionIndex": "0xae",
      "blockHash": "0x2c86ba83d15e6e2d7ab77341c7b67ad5a140a14808bfdbe273256a171e1aaef5",
      "blockNumber": "0x26196ab",
      "gasUsed": "0xd3f5",
      "effectiveGasPrice": "0xd89b5",
      "blobGasUsed": "0x8a61",
      "from": "0xe403f79171b7050c78479f52e49e753d43e72c1a",
      "to": "0xad473eaa51821c915d03d9db5349a0586d55e55e",
      "contractAddress": null,
      "daFootprintGasScalar": "0x145",
      "l1BaseFeeScalar": "0x8dd",
      "l1BlobBaseFee": "0x1798b9",
      "l1BlobBaseFeeScalar": "0x101c12",
      "l1Fee": "0x1107b1cf",
      "l1GasPrice": "0x198e8d1",
      "l1GasUsed": "0x6da"
    },
    {
      "status": "0x1",
      "cumulativeGasUsed": "0x1cf019d",
      "logs": [
        {
          "address": "0xad473eaa51821c915d03d9db5349a0586d55e55e",
          "topics": [
            "0x36e13ba1e45df3ecb8f6beb6274a1f5d4abf4c0792bb56700354f0d50bf0acd7",
            "0x000000000000000000000000000000000000000000000000000000000000001a",
            "0x000000000000000000000000e403f79171b7050c78479f52e49e753d43e72c1a"
          ],
          "data": "0xbb9afb9861b8290cda948e4af3b636449a44547dca4c3acbc45e65f4e22aab400000000000000000000000000000000000000000000000000000000000000005000000000000000000000000000000000000000000000000000000000000006000000000000000000000000000000000000000000000000000000000000000043129000000000000000000000000000000000000000000000000000000000000",
          "blockHash": "0x2c86ba83d15e6e2d7ab77341c7b67ad5a140a14808bfdbe273256a171e1aaef5",
          "blockNumber": "0x26196ab",
          "blockTimestamp": "0x694d8a39",
          "transactionHash": "0x06affac574fd0d26d4424feca64b8f62eb1c089b7a363c698937bcc41c5c6101",
          "transactionIndex": "0xe5",
          "logIndex": "0x1f4",
          "removed": false
        },
        {
          "address": "0xad473eaa51821c915d03d9db5349a0586d55e55e",
          "topics": [
            "0x36e13ba1e45df3ecb8f6beb6274a1f5d4abf4c0792bb56700354f0d50bf0acd7",
            "0x000000000000000000000000000000000000000000000000000000000000001a",
            "0x000000000000000000000000ad473eaa51821c915d03d9db5349a0586d55e55e"
          ],
          "data": "0x2760255e5f8c0d33599f68866f7b7bdd30ba831d73410b4548d9b6c2e2478d1c000000000000000000000000000000000000000000000000000000000000000600000000000000000000000000000000000000000000000000000000000000600000000000000000000000000000000000000000000000000000000000000004052b000000000000000000000000000000000000000000000000000000000000",
          "blockHash": "0x2c86ba83d15e6e2d7ab77341c7b67ad5a140a14808bfdbe273256a171e1aaef5",
          "blockNumber": "0x26196ab",
          "blockTimestamp": "0x694d8a39",
          "transactionHash": "0x06affac574fd0d26d4424feca64b8f62eb1c089b7a363c698937bcc41c5c6101",
          "transactionIndex": "0xe5",
          "logIndex": "0x1f5",
          "removed": false
        }
      ],
      "logsBloom": "0x00000000000000000000000000000000000000000000000000000000000400000000000000000000000000000000000000000000000000000000000000000000000000000000000000000000000000001000000010000000000000001000000000000000000000000000000000000040000000000400000000000000000000000000000000000000000000000200000000000000000000040002000000000000000004000000000000000000000000000000000000000000000000004000000000000000000000000000000000400000000000000000000000000000000800000000000000000000000000000000000000000000000004800000000000000000",
      "type": "0x2",
      "transactionHash": "0x06affac574fd0d26d4424feca64b8f62eb1c089b7a363c698937bcc41c5c6101",
      "transactionIndex": "0xe5",
      "blockHash": "0x2c86ba83d15e6e2d7ab77341c7b67ad5a140a14808bfdbe273256a171e1aaef5",
      "blockNumber": "0x26196ab",
      "gasUsed": "0xd3f5",
      "effectiveGasPrice": "0xd89b5",
      "blobGasUsed": "0x8a61",
      "from": "0xe403f79171b7050c78479f52e49e753d43e72c1a",
      "to": "0xad473eaa51821c915d03d9db5349a0586d55e55e",
      "contractAddress": null,
      "daFootprintGasScalar": "0x145",
      "l1BaseFeeScalar": "0x8dd",
      "l1BlobBaseFee": "0x1798b9",
      "l1BlobBaseFeeScalar": "0x101c12",
      "l1Fee": "0x1107b1cf",
      "l1GasPrice": "0x198e8d1",
      "l1GasUsed": "0x6da"
    },
    {
      "status": "0x1",
      "cumulativeGasUsed": "0x1cfd592",
      "logs": [
        {
          "address": "0xad473eaa51821c915d03d9db5349a0586d55e55e",
          "topics": [
            "0x36e13ba1e45df3ecb8f6beb6274a1f5d4abf4c0792bb56700354f0d50bf0acd7",
            "0x000000000000000000000000000000000000000000000000000000000000001a",
            "0x000000000000000000000000e403f79171b7050c78479f52e49e753d43e72c1a"
          ],
          "data": "0x2a4b22ea265f7017c3f5040f1eec7d58baac29eda24dc699336157972973d8e10000000000000000000000000000000000000000000000000000000000000007000000000000000000000000000000000000000000000000000000000000006000000000000000000000000000000000000000000000000000000000000000043a2b000000000000000000000000000000000000000000000000000000000000",
          "blockHash": "0x2c86ba83d15e6e2d7ab77341c7b67ad5a140a14808bfdbe273256a171e1aaef5",
          "blockNumber": "0x26196ab",
          "blockTimestamp": "0x694d8a39",
          "transactionHash": "0xba9ec3f4cc3ae0ffe9dd19200d924217a144e0c24eb3ed03d8f3ebeeba95d3d7",
          "transactionIndex": "0xe6",
          "logIndex": "0x1f6",
          "removed": false
        },
        {
          "address": "0xad473eaa51821c915d03d9db5349a0586d55e55e",
          "topics": [
            "0x36e13ba1e45df3ecb8f6beb6274a1f5d4abf4c0792bb56700354f0d50bf0acd7",
            "0x000000000000000000000000000000000000000000000000000000000000001a",
            "0x000000000000000000000000ad473eaa51821c915d03d9db5349a0586d55e55e"
          ],
          "data": "0x55f26890947882f1207e2a875a0d392857a077e9af9ea320f39541f65d9244dd0000000000000000000000000000000000000000000000000000000000000008000000000000000000000000000000000000000000000000000000000000006000000000000000000000000000000000000000000000000000000000000000042818000000000000000000000000000000000000000000000000000000000000",
          "blockHash": "0x2c86ba83d15e6e2d7ab77341c7b67ad5a140a14808bfdbe273256a171e1aaef5",
          "blockNumber": "0x26196ab",
          "blockTimestamp": "0x694d8a39",
          "transactionHash": "0xba9ec3f4cc3ae0ffe9dd19200d924217a144e0c24eb3ed03d8f3ebeeba95d3d7",
          "transactionIndex": "0xe6",
          "logIndex": "0x1f7",
          "removed": false
        }
      ],
      "logsBloom": "0x00000000000000000000000000000000000000000000000000000000000400000000000000000000000000000000000000000000000000000000000000000000000000000000000000000000000000001000000010000000000000001000000000000000000000000000000000000040000000000400000000000000000000000000000000000000000000000200000000000000000000040002000000000000000004000000000000000000000000000000000000000000000000004000000000000000000000000000000000400000000000000000000000000000000800000000000000000000000000000000000000000000000004800000000000000000",
      "type": "0x2",
      "transactionHash": "0xba9ec3f4cc3ae0ffe9dd19200d924217a144e0c24eb3ed03d8f3ebeeba95d3d7",
      "transactionIndex": "0xe6",
      "blockHash": "0x2c86ba83d15e6e2d7ab77341c7b67ad5a140a14808bfdbe273256a171e1aaef5",
      "blockNumber": "0x26196ab",
      "gasUsed": "0xd3f5",
      "effectiveGasPrice": "0xd89b5",
      "blobGasUsed": "0x8a61",
      "from": "0xe403f79171b7050c78479f52e49e753d43e72c1a",
      "to": "0xad473eaa51821c915d03d9db5349a0586d55e55e",
      "contractAddress": null,
      "daFootprintGasScalar": "0x145",
      "l1BaseFeeScalar": "0x8dd",
      "l1BlobBaseFee": "0x1798b9",
      "l1BlobBaseFeeScalar": "0x101c12",
      "l1Fee": "0x1107b1cf",
      "l1GasPrice": "0x198e8d1",
      "l1GasUsed": "0x6da"
    },
    {
      "status": "0x1",
      "cumulativeGasUsed": "0x1d0eba9",
      "logs": [
        {
          "address": "0xad473eaa51821c915d03d9db5349a0586d55e55e",
          "topics": [
            "0x36e13ba1e45df3ecb8f6beb6274a1f5d4abf4c0792bb56700354f0d50bf0acd7",
            "0x000000000000000000000000000000000000000000000000000000000000001b",
            "0x000000000000000000000000e403f79171b7050c78479f52e49e753d43e72c1a"
          ],
          "data": "0xe8773807ffd17108aa2d132cec684352f2c5c8337ff4659cc010d15b0551847d0000000000000000000000000000000000000000000000000000000000000001000000000000000000000000000000000000000000000000000000000000006000000000000000000000000000000000000000000000000000000000000000043424000000000000000000000000000000000000000000000000000000000000",
          "blockHash": "0x2c86ba83d15e6e2d7ab77341c7b67ad5a140a14808bfdbe273256a171e1aaef5",
          "blockNumber": "0x26196ab",
          "blockTimestamp": "0x694d8a39",
          "transactionHash": "0x8e5fceaf59ef26ee331341dcc5790563fac6916ebac6a55a44c887ab63b6e137",
          "transactionIndex": "0xe7",
          "logIndex": "0x1f8",
          "removed": false
        },
        {
          "address": "0xad473eaa51821c915d03d9db5349a0586d55e55e",
          "topics": [
            "0x36e13ba1e45df3ecb8f6beb6274a1f5d4abf4c0792bb56700354f0d50bf0acd7",
            "0x000000000000000000000000000000000000000000000000000000000000001b",
            "0x000000000000000000000000ad473eaa51821c915d03d9db5349a0586d55e55e"
          ],
          "data": "0xf4bb36a023d03b095a88119a20a9000a252aea11d80408b3bd0c6bade87b4ba70000000000000000000000000000000000000000000000000000000000000002000000000000000000000000000000000000000000000000000000000000006000000000000000000000000000000000000000000000000000000000000000043424000000000000000000000000000000000000000000000000000000000000",
          "blockHash": "0x2c86ba83d15e6e2d7ab77341c7b67ad5a140a14808bfdbe273256a171e1aaef5",
          "blockNumber": "0x26196ab",
          "blockTimestamp": "0x694d8a39",
          "transactionHash": "0x8e5fceaf59ef26ee331341dcc5790563fac6916ebac6a55a44c887ab63b6e137",
          "transactionIndex": "0xe7",
          "logIndex": "0x1f9",
          "removed": false
        }
      ],
      "logsBloom": "0x00000000000000000000000000000000000000000010000000000000000400000000000000000000000000000000000000000000000000000000000000000000000000000000000000000000000000000000000010000000000000000000000000000000000000000000000000000040000000000400000000000000000000000000000000000000000000000200000000000000000000040002000000000000000004000100000000000000000000000000000000008000000000004000000000000000000000000000000000400000000000000000000000000000000800000000000000000000000000000000000000000000000000800000000000000000",
      "type": "0x2",
      "transactionHash": "0x8e5fceaf59ef26ee331341dcc5790563fac6916ebac6a55a44c887ab63b6e137",
      "transactionIndex": "0xe7",
      "blockHash": "0x2c86ba83d15e6e2d7ab77341c7b67ad5a140a14808bfdbe273256a171e1aaef5",
      "blockNumber": "0x26196ab",
      "gasUsed": "0x11617",
      "effectiveGasPrice": "0xd89b5",
      "blobGasUsed": "0x8a61",
      "from": "0xe403f79171b7050c78479f52e49e753d43e72c1a",
      "to": "0xad473eaa51821c915d03d9db5349a0586d55e55e",
      "contractAddress": null,
      "daFootprintGasScalar": "0x145",
      "l1BaseFeeScalar": "0x8dd",
      "l1BlobBaseFee": "0x1798b9",
      "l1BlobBaseFeeScalar": "0x101c12",
      "l1Fee": "0x1107b1cf",
      "l1GasPrice": "0x198e8d1",
      "l1GasUsed": "0x6da"
    },
    {
      "status": "0x1",
      "cumulativeGasUsed": "0x1d1bf9e",
      "logs": [
        {
          "address": "0xad473eaa51821c915d03d9db5349a0586d55e55e",
          "topics": [
            "0x36e13ba1e45df3ecb8f6beb6274a1f5d4abf4c0792bb56700354f0d50bf0acd7",
            "0x000000000000000000000000000000000000000000000000000000000000001b",
            "0x000000000000000000000000e403f79171b7050c78479f52e49e753d43e72c1a"
          ],
          "data": "0x0692c63251d62c8f04eed454cc75e5bc199ba842e6b8106095e5d806a5e48cfa0000000000000000000000000000000000000000000000000000000000000003000000000000000000000000000000000000000000000000000000000000006000000000000000000000000000000000000000000000000000000000000000043323000000000000000000000000000000000000000000000000000000000000",
          "blockHash": "0x2c86ba83d15e6e2d7ab77341c7b67ad5a140a14808bfdbe273256a171e1aaef5",
          "blockNumber": "0x26196ab",
          "blockTimestamp": "0x694d8a39",
          "transactionHash": "0x2fa5c66d4b5ec9db7aad09433faf15259bfae9ba9e579556c4c108a2020d78c0",
          "transactionIndex": "0xe8",
          "logIndex": "0x1fa",
          "removed": false
        },
        {
          "address": "0xad473eaa51821c915d03d9db5349a0586d55e55e",
          "topics": [
            "0x36e13ba1e45df3ecb8f6beb6274a1f5d4abf4c0792bb56700354f0d50bf0acd7",
            "0x000000000000000000000000000000000000000000000000000000000000001b",
            "0x000000000000000000000000ad473eaa51821c915d03d9db5349a0586d55e55e"
          ],
          "data": "0x80db663b91d50261d3b6cf7c40f14617bc570551fdc50ae5d379aac6ea1fb5d50000000000000000000000000000000000000000000000000000000000000004000000000000000000000000000000000000000000000000000000000000006000000000000000000000000000000000000000000000000000000000000000043d0c000000000000000000000000000000000000000000000000000000000000",
          "blockHash": "0x2c86ba83d15e6e2d7ab77341c7b67ad5a140a14808bfdbe273256a171e1aaef5",
          "blockNumber": "0x26196ab",
          "blockTimestamp": "0x694d8a39",
          "transactionHash": "0x2fa5c66d4b5ec9db7aad09433faf15259bfae9ba9e579556c4c108a2020d78c0",
          "transactionIndex": "0xe8",
          "logIndex": "0x1fb",
          "removed": false
        }
      ],
      "logsBloom": "0x00000000000000000000000000000000000000000010000000000000000400000000000000000000000000000000000000000000000000000000000000000000000000000000000000000000000000000000000010000000000000000000000000000000000000000000000000000040000000000400000000000000000000000000000000000000000000000200000000000000000000040002000000000000000004000100000000000000000000000000000000008000000000004000000000000000000000000000000000400000000000000000000000000000000800000000000000000000000000000000000000000000000000800000000000000000",
      "type": "0x2",
      "transactionHash": "0x2fa5c66d4b5ec9db7aad09433faf15259bfae9ba9e579556c4c108a2020d78c0",
      "transactionIndex": "0xe8",
      "blockHash": "0x2c86ba83d15e6e2d7ab77341c7b67ad5a140a14808bfdbe273256a171e1aaef5",
      "blockNumber": "0x26196ab",
      "gasUsed": "0xd3f5",
      "effectiveGasPrice": "0xd89b5",
      "blobGasUsed": "0x8a61",
      "from": "0xe403f79171b7050c78479f52e49e753d43e72c1a",
      "to": "0xad473eaa51821c915d03d9db5349a0586d55e55e",
      "contractAddress": null,
      "daFootprintGasScalar": "0x145",
      "l1BaseFeeScalar": "0x8dd",
      "l1BlobBaseFee": "0x1798b9",
      "l1BlobBaseFeeScalar": "0x101c12",
      "l1Fee": "0x1107b1cf",
      "l1GasPrice": "0x198e8d1",
      "l1GasUsed": "0x6da"
    },
    {
      "status": "0x1",
      "cumulativeGasUsed": "0x1d29393",
      "logs": [
        {
          "address": "0xad473eaa51821c915d03d9db5349a0586d55e55e",
          "topics": [
            "0x36e13ba1e45df3ecb8f6beb6274a1f5d4abf4c0792bb56700354f0d50bf0acd7",
            "0x000000000000000000000000000000000000000000000000000000000000001b",
            "0x000000000000000000000000e403f79171b7050c78479f52e49e753d43e72c1a"
          ],
          "data": "0x4442d021ec118fea7ce3641d3375363801af2e92adb1272f726cf20292795a62000000000000000000000000000000000000000000000000000000000000000500000000000000000000000000000000000000000000000000000000000000600000000000000000000000000000000000000000000000000000000000000004392a000000000000000000000000000000000000000000000000000000000000",
          "blockHash": "0x2c86ba83d15e6e2d7ab77341c7b67ad5a140a14808bfdbe273256a171e1aaef5",
          "blockNumber": "0x26196ab",
          "blockTimestamp": "0x694d8a39",
          "transactionHash": "0xd54e8663486889b4a453587d1e5ceca399b98f375ca0c36fe222049233331d1c",
          "transactionIndex": "0xe9",
          "logIndex": "0x1fc",
          "removed": false
        },
        {
          "address": "0xad473eaa51821c915d03d9db5349a0586d55e55e",
          "topics": [
            "0x36e13ba1e45df3ecb8f6beb6274a1f5d4abf4c0792bb56700354f0d50bf0acd7",
            "0x000000000000000000000000000000000000000000000000000000000000001b",
            "0x000000000000000000000000ad473eaa51821c915d03d9db5349a0586d55e55e"
          ],
          "data": "0xe131cca08afe30756df90d03f27be0045be7f7a0d73031afbdf14f8a193cb8e6000000000000000000000000000000000000000000000000000000000000000600000000000000000000000000000000000000000000000000000000000000600000000000000000000000000000000000000000000000000000000000000004271a000000000000000000000000000000000000000000000000000000000000",
          "blockHash": "0x2c86ba83d15e6e2d7ab77341c7b67ad5a140a14808bfdbe273256a171e1aaef5",
          "blockNumber": "0x26196ab",
          "blockTimestamp": "0x694d8a39",
          "transactionHash": "0xd54e8663486889b4a453587d1e5ceca399b98f375ca0c36fe222049233331d1c",
          "transactionIndex": "0xe9",
          "logIndex": "0x1fd",
          "removed": false
        }
      ],
      "logsBloom": "0x00000000000000000000000000000000000000000010000000000000000400000000000000000000000000000000000000000000000000000000000000000000000000000000000000000000000000000000000010000000000000000000000000000000000000000000000000000040000000000400000000000000000000000000000000000000000000000200000000000000000000040002000000000000000004000100000000000000000000000000000000008000000000004000000000000000000000000000000000400000000000000000000000000000000800000000000000000000000000000000000000000000000000800000000000000000",
      "type": "0x2",
      "transactionHash": "0xd54e8663486889b4a453587d1e5ceca399b98f375ca0c36fe222049233331d1c",
      "transactionIndex": "0xe9",
      "blockHash": "0x2c86ba83d15e6e2d7ab77341c7b67ad5a140a14808bfdbe273256a171e1aaef5",
      "blockNumber": "0x26196ab",
      "gasUsed": "0xd3f5",
      "effectiveGasPrice": "0xd89b5",
      "blobGasUsed": "0x8a61",
      "from": "0xe403f79171b7050c78479f52e49e753d43e72c1a",
      "to": "0xad473eaa51821c915d03d9db5349a0586d55e55e",
      "contractAddress": null,
      "daFootprintGasScalar": "0x145",
      "l1BaseFeeScalar": "0x8dd",
      "l1BlobBaseFee": "0x1798b9",
      "l1BlobBaseFeeScalar": "0x101c12",
      "l1Fee": "0x1107b1cf",
      "l1GasPrice": "0x198e8d1",
      "l1GasUsed": "0x6da"
    },
    {
      "status": "0x1",
      "cumulativeGasUsed": "0x1d36788",
      "logs": [
        {
          "address": "0xad473eaa51821c915d03d9db5349a0586d55e55e",
          "topics": [
            "0x36e13ba1e45df3ecb8f6beb6274a1f5d4abf4c0792bb56700354f0d50bf0acd7",
            "0x000000000000000000000000000000000000000000000000000000000000001b",
            "0x000000000000000000000000e403f79171b7050c78479f52e49e753d43e72c1a"
          ],
          "data": "0xc7183fc0754b5e7da3b74bf364f8affe59ffdf73627f9b8e7d4991d4453bd3640000000000000000000000000000000000000000000000000000000000000007000000000000000000000000000000000000000000000000000000000000006000000000000000000000000000000000000000000000000000000000000000043b2c000000000000000000000000000000000000000000000000000000000000",
          "blockHash": "0x2c86ba83d15e6e2d7ab77341c7b67ad5a140a14808bfdbe273256a171e1aaef5",
          "blockNumber": "0x26196ab",
          "blockTimestamp": "0x694d8a39",
          "transactionHash": "0x0c385c68fdb9820670439fb20ab7570ed80f7a7e75a0530ab78143f63b38d3be",
          "transactionIndex": "0xea",
          "logIndex": "0x1fe",
          "removed": false
        },
        {
          "address": "0xad473eaa51821c915d03d9db5349a0586d55e55e",
          "topics": [
            "0x36e13ba1e45df3ecb8f6beb6274a1f5d4abf4c0792bb56700354f0d50bf0acd7",
            "0x000000000000000000000000000000000000000000000000000000000000001b",
            "0x000000000000000000000000ad473eaa51821c915d03d9db5349a0586d55e55e"
          ],
          "data": "0xfa672e07d673b2d218b92d8ee0e059b5d1bfc274c1d1aaf67086a3dbe5f1587f0000000000000000000000000000000000000000000000000000000000000008000000000000000000000000000000000000000000000000000000000000006000000000000000000000000000000000000000000000000000000000000000042b13000000000000000000000000000000000000000000000000000000000000",
          "blockHash": "0x2c86ba83d15e6e2d7ab77341c7b67ad5a140a14808bfdbe273256a171e1aaef5",
          "blockNumber": "0x26196ab",
          "blockTimestamp": "0x694d8a39",
          "transactionHash": "0x0c385c68fdb9820670439fb20ab7570ed80f7a7e75a0530ab78143f63b38d3be",
          "transactionIndex": "0xea",
          "logIndex": "0x1ff",
          "removed": false
        }
      ],
      "logsBloom": "0x00000000000000000000000000000000000000000010000000000000000400000000000000000000000000000000000000000000000000000000000000000000000000000000000000000000000000000000000010000000000000000000000000000000000000000000000000000040000000000400000000000000000000000000000000000000000000000200000000000000000000040002000000000000000004000100000000000000000000000000000000008000000000004000000000000000000000000000000000400000000000000000000000000000000800000000000000000000000000000000000000000000000000800000000000000000",
      "type": "0x2",
      "transactionHash": "0x0c385c68fdb9820670439fb20ab7570ed80f7a7e75a0530ab78143f63b38d3be",
      "transactionIndex": "0xea",
      "blockHash": "0x2c86ba83d15e6e2d7ab77341c7b67ad5a140a14808bfdbe273256a171e1aaef5",
      "blockNumber": "0x26196ab",
      "gasUsed": "0xd3f5",
      "effectiveGasPrice": "0xd89b5",
      "blobGasUsed": "0x8a61",
      "from": "0xe403f79171b7050c78479f52e49e753d43e72c1a",
      "to": "0xad473eaa51821c915d03d9db5349a0586d55e55e",
      "contractAddress": null,
      "daFootprintGasScalar": "0x145",
      "l1BaseFeeScalar": "0x8dd",
      "l1BlobBaseFee": "0x1798b9",
      "l1BlobBaseFeeScalar": "0x101c12",
      "l1Fee": "0x1107b1cf",
      "l1GasPrice": "0x198e8d1",
      "l1GasUsed": "0x6da"
    },
    {
      "status": "0x1",
      "cumulativeGasUsed": "0x1d47d93",
      "logs": [
        {
          "address": "0xad473eaa51821c915d03d9db5349a0586d55e55e",
          "topics": [
            "0x36e13ba1e45df3ecb8f6beb6274a1f5d4abf4c0792bb56700354f0d50bf0acd7",
            "0x000000000000000000000000000000000000000000000000000000000000001c",
            "0x000000000000000000000000e403f79171b7050c78479f52e49e753d43e72c1a"
          ],
          "data": "0x90e396633e67bfb131a9c9b400ea842e0f29f45c4bc7872a0e80af48deb785040000000000000000000000000000000000000000000000000000000000000001000000000000000000000000000000000000000000000000000000000000006000000000000000000000000000000000000000000000000000000000000000043028000000000000000000000000000000000000000000000000000000000000",
          "blockHash": "0x2c86ba83d15e6e2d7ab77341c7b67ad5a140a14808bfdbe273256a171e1aaef5",
          "blockNumber": "0x26196ab",
          "blockTimestamp": "0x694d8a39",
          "transactionHash": "0x22d5e9139def2c6e19a32f43430ea57acb1cd8959a6bf23e79b7fc0e614ac48a",
          "transactionIndex": "0xeb",
          "logIndex": "0x200",
          "removed": false
        },
        {
          "address": "0xad473eaa51821c915d03d9db5349a0586d55e55e",
          "topics": [
            "0x36e13ba1e45df3ecb8f6beb6274a1f5d4abf4c0792bb56700354f0d50bf0acd7",
            "0x000000000000000000000000000000000000000000000000000000000000001c",
            "0x000000000000000000000000ad473eaa51821c915d03d9db5349a0586d55e55e"
          ],
          "data": "0x60e65b9330f95689004881ceb0c70271140d7a6c66037940d345a33188c341c30000000000000000000000000000000000000000000000000000000000000002000000000000000000000000000000000000000000000000000000000000006000000000000000000000000000000000000000000000000000000000000000043424000000000000000000000000000000000000000000000000000000000000",
          "blockHash": "0x2c86ba83d15e6e2d7ab77341c7b67ad5a140a14808bfdbe273256a171e1aaef5",
          "blockNumber": "0x26196ab",
          "blockTimestamp": "0x694d8a39",
          "transactionHash": "0x22d5e9139def2c6e19a32f43430ea57acb1cd8959a6bf23e79b7fc0e614ac48a",
          "transactionIndex": "0xeb",
          "logIndex": "0x201",
          "removed": false
        }
      ],
      "logsBloom": "0x00000000000000000000000000000000000000000000000000000000000400000000000000000000000000000000000000000000000000200000000000000000000000000000000000000000000000000000000010000000000000000000000000000000000000000000000000000040000000000400000000000000000000000000000000000000000000000200000200000000000000040002000000000000000004000000000000000002000000000000000000000000000000004000000000000000000000000000000000400000000000000000000000000000000800000000000000000000000000000000000000000000000000800000000000000000",
      "type": "0x2",
      "transactionHash": "0x22d5e9139def2c6e19a32f43430ea57acb1cd8959a6bf23e79b7fc0e614ac48a",
      "transactionIndex": "0xeb",
      "blockHash": "0x2c86ba83d15e6e2d7ab77341c7b67ad5a140a14808bfdbe273256a171e1aaef5",
      "blockNumber": "0x26196ab",
      "gasUsed": "0x1160b",
      "effectiveGasPrice": "0xd89b5",
      "blobGasUsed": "0x8a61",
      "from": "0xe403f79171b7050c78479f52e49e753d43e72c1a",
      "to": "0xad473eaa51821c915d03d9db5349a0586d55e55e",
      "contractAddress": null,
      "daFootprintGasScalar": "0x145",
      "l1BaseFeeScalar": "0x8dd",
      "l1BlobBaseFee": "0x1798b9",
      "l1BlobBaseFeeScalar": "0x101c12",
      "l1Fee": "0x1107b1cf",
      "l1GasPrice": "0x198e8d1",
      "l1GasUsed": "0x6da"
    },
    {
      "status": "0x1",
      "cumulativeGasUsed": "0x21a8743",
      "logs": [
        {
          "address": "0xad473eaa51821c915d03d9db5349a0586d55e55e",
          "topics": [
            "0x36e13ba1e45df3ecb8f6beb6274a1f5d4abf4c0792bb56700354f0d50bf0acd7",
            "0x000000000000000000000000000000000000000000000000000000000000001c",
            "0x000000000000000000000000e403f79171b7050c78479f52e49e753d43e72c1a"
          ],
          "data": "0xfc6cc8976638831fc84ceab234894f532e0338e7268a3303d4c0c1939f85dbb90000000000000000000000000000000000000000000000000000000000000003000000000000000000000000000000000000000000000000000000000000006000000000000000000000000000000000000000000000000000000000000000043222000000000000000000000000000000000000000000000000000000000000",
          "blockHash": "0x2c86ba83d15e6e2d7ab77341c7b67ad5a140a14808bfdbe273256a171e1aaef5",
          "blockNumber": "0x26196ab",
          "blockTimestamp": "0x694d8a39",
          "transactionHash": "0x3ac0ebe5eedfc156406ac450538803d9056f3a6e518d44019d12c14d178dc69c",
          "transactionIndex": "0x103",
          "logIndex": "0x236",
          "removed": false
        },
        {
          "address": "0xad473eaa51821c915d03d9db5349a0586d55e55e",
          "topics": [
            "0x36e13ba1e45df3ecb8f6beb6274a1f5d4abf4c0792bb56700354f0d50bf0acd7",
            "0x000000000000000000000000000000000000000000000000000000000000001c",
            "0x000000000000000000000000ad473eaa51821c915d03d9db5349a0586d55e55e"
          ],
          "data": "0x0192d1e4a25acce6e7a2d4e8900eba6030b412ccc2d92d174c541b9d6055ff390000000000000000000000000000000000000000000000000000000000000004000000000000000000000000000000000000000000000000000000000000006000000000000000000000000000000000000000000000000000000000000000043c1b000000000000000000000000000000000000000000000000000000000000",
          "blockHash": "0x2c86ba83d15e6e2d7ab77341c7b67ad5a140a14808bfdbe273256a171e1aaef5",
          "blockNumber": "0x26196ab",
          "blockTimestamp": "0x694d8a39",
          "transactionHash": "0x3ac0ebe5eedfc156406ac450538803d9056f3a6e518d44019d12c14d178dc69c",
          "transactionIndex": "0x103",
          "logIndex": "0x237",
          "removed": false
        }
      ],
      "logsBloom": "0x00000000000000000000000000000000000000000000000000000000000400000000000000000000000000000000000000000000000000200000000000000000000000000000000000000000000000000000000010000000000000000000000000000000000000000000000000000040000000000400000000000000000000000000000000000000000000000200000200000000000000040002000000000000000004000000000000000002000000000000000000000000000000004000000000000000000000000000000000400000000000000000000000000000000800000000000000000000000000000000000000000000000000800000000000000000",
      "type": "0x2",
      "transactionHash": "0x3ac0ebe5eedfc156406ac450538803d9056f3a6e518d44019d12c14d178dc69c",
      "transactionIndex": "0x103",
      "blockHash": "0x2c86ba83d15e6e2d7ab77341c7b67ad5a140a14808bfdbe273256a171e1aaef5",
      "blockNumber": "0x26196ab",
      "gasUsed": "0xd3f5",
      "effectiveGasPrice": "0xd89b5",
      "blobGasUsed": "0x8a61",
      "from": "0xe403f79171b7050c78479f52e49e753d43e72c1a",
      "to": "0xad473eaa51821c915d03d9db5349a0586d55e55e",
      "contractAddress": null,
      "daFootprintGasScalar": "0x145",
      "l1BaseFeeScalar": "0x8dd",
      "l1BlobBaseFee": "0x1798b9",
      "l1BlobBaseFeeScalar": "0x101c12",
      "l1Fee": "0x1107b1cf",
      "l1GasPrice": "0x198e8d1",
      "l1GasUsed": "0x6da"
    },
    {
      "status": "0x1",
      "cumulativeGasUsed": "0x21b5b38",
      "logs": [
        {
          "address": "0xad473eaa51821c915d03d9db5349a0586d55e55e",
          "topics": [
            "0x36e13ba1e45df3ecb8f6beb6274a1f5d4abf4c0792bb56700354f0d50bf0acd7",
            "0x000000000000000000000000000000000000000000000000000000000000001c",
            "0x000000000000000000000000e403f79171b7050c78479f52e49e753d43e72c1a"
          ],
          "data": "0xbb9afb9861b8290cda948e4af3b636449a44547dca4c3acbc45e65f4e22aab400000000000000000000000000000000000000000000000000000000000000005000000000000000000000000000000000000000000000000000000000000006000000000000000000000000000000000000000000000000000000000000000043129000000000000000000000000000000000000000000000000000000000000",
          "blockHash": "0x2c86ba83d15e6e2d7ab77341c7b67ad5a140a14808bfdbe273256a171e1aaef5",
          "blockNumber": "0x26196ab",
          "blockTimestamp": "0x694d8a39",
          "transactionHash": "0x7cf04bf8c2f7ba44ddb0e925fffe3604567cf718fe5ca66b64542fc2412e0f8a",
          "transactionIndex": "0x104",
          "logIndex": "0x238",
          "removed": false
        },
        {
          "address": "0xad473eaa51821c915d03d9db5349a0586d55e55e",
          "topics": [
            "0x36e13ba1e45df3ecb8f6beb6274a1f5d4abf4c0792bb56700354f0d50bf0acd7",
            "0x000000000000000000000000000000000000000000000000000000000000001c",
            "0x000000000000000000000000ad473eaa51821c915d03d9db5349a0586d55e55e"
          ],
          "data": "0x2760255e5f8c0d33599f68866f7b7bdd30ba831d73410b4548d9b6c2e2478d1c000000000000000000000000000000000000000000000000000000000000000600000000000000000000000000000000000000000000000000000000000000600000000000000000000000000000000000000000000000000000000000000004052b000000000000000000000000000000000000000000000000000000000000",
          "blockHash": "0x2c86ba83d15e6e2d7ab77341c7b67ad5a140a14808bfdbe273256a171e1aaef5",
          "blockNumber": "0x26196ab",
          "blockTimestamp": "0x694d8a39",
          "transactionHash": "0x7cf04bf8c2f7ba44ddb0e925fffe3604567cf718fe5ca66b64542fc2412e0f8a",
          "transactionIndex": "0x104",
          "logIndex": "0x239",
          "removed": false
        }
      ],
      "logsBloom": "0x00000000000000000000000000000000000000000000000000000000000400000000000000000000000000000000000000000000000000200000000000000000000000000000000000000000000000000000000010000000000000000000000000000000000000000000000000000040000000000400000000000000000000000000000000000000000000000200000200000000000000040002000000000000000004000000000000000002000000000000000000000000000000004000000000000000000000000000000000400000000000000000000000000000000800000000000000000000000000000000000000000000000000800000000000000000",
      "type": "0x2",
      "transactionHash": "0x7cf04bf8c2f7ba44ddb0e925fffe3604567cf718fe5ca66b64542fc2412e0f8a",
      "transactionIndex": "0x104",
      "blockHash": "0x2c86ba83d15e6e2d7ab77341c7b67ad5a140a14808bfdbe273256a171e1aaef5",
      "blockNumber": "0x26196ab",
      "gasUsed": "0xd3f5",
      "effectiveGasPrice": "0xd89b5",
      "blobGasUsed": "0x8a61",
      "from": "0xe403f79171b7050c78479f52e49e753d43e72c1a",
      "to": "0xad473eaa51821c915d03d9db5349a0586d55e55e",
      "contractAddress": null,
      "daFootprintGasScalar": "0x145",
      "l1BaseFeeScalar": "0x8dd",
      "l1BlobBaseFee": "0x1798b9",
      "l1BlobBaseFeeScalar": "0x101c12",
      "l1Fee": "0x1107b1cf",
      "l1GasPrice": "0x198e8d1",
      "l1GasUsed": "0x6da"
    },
    {
      "status": "0x1",
      "cumulativeGasUsed": "0x21c2f2d",
      "logs": [
        {
          "address": "0xad473eaa51821c915d03d9db5349a0586d55e55e",
          "topics": [
            "0x36e13ba1e45df3ecb8f6beb6274a1f5d4abf4c0792bb56700354f0d50bf0acd7",
            "0x000000000000000000000000000000000000000000000000000000000000001c",
            "0x000000000000000000000000e403f79171b7050c78479f52e49e753d43e72c1a"
          ],
          "data": "0x2a4b22ea265f7017c3f5040f1eec7d58baac29eda24dc699336157972973d8e10000000000000000000000000000000000000000000000000000000000000007000000000000000000000000000000000000000000000000000000000000006000000000000000000000000000000000000000000000000000000000000000043a2b000000000000000000000000000000000000000000000000000000000000",
          "blockHash": "0x2c86ba83d15e6e2d7ab77341c7b67ad5a140a14808bfdbe273256a171e1aaef5",
          "blockNumber": "0x26196ab",
          "blockTimestamp": "0x694d8a39",
          "transactionHash": "0xe747e2d640de3f5926dfc8ac274d65178bf3ec4009a70e57049ceda0c0164374",
          "transactionIndex": "0x105",
          "logIndex": "0x23a",
          "removed": false
        },
        {
          "address": "0xad473eaa51821c915d03d9db5349a0586d55e55e",
          "topics": [
            "0x36e13ba1e45df3ecb8f6beb6274a1f5d4abf4c0792bb56700354f0d50bf0acd7",
            "0x000000000000000000000000000000000000000000000000000000000000001c",
            "0x000000000000000000000000ad473eaa51821c915d03d9db5349a0586d55e55e"
          ],
          "data": "0x55f26890947882f1207e2a875a0d392857a077e9af9ea320f39541f65d9244dd0000000000000000000000000000000000000000000000000000000000000008000000000000000000000000000000000000000000000000000000000000006000000000000000000000000000000000000000000000000000000000000000042818000000000000000000000000000000000000000000000000000000000000",
          "blockHash": "0x2c86ba83d15e6e2d7ab77341c7b67ad5a140a14808bfdbe273256a171e1aaef5",
          "blockNumber": "0x26196ab",
          "blockTimestamp": "0x694d8a39",
          "transactionHash": "0xe747e2d640de3f5926dfc8ac274d65178bf3ec4009a70e57049ceda0c0164374",
          "transactionIndex": "0x105",
          "logIndex": "0x23b",
          "removed": false
        }
      ],
      "logsBloom": "0x00000000000000000000000000000000000000000000000000000000000400000000000000000000000000000000000000000000000000200000000000000000000000000000000000000000000000000000000010000000000000000000000000000000000000000000000000000040000000000400000000000000000000000000000000000000000000000200000200000000000000040002000000000000000004000000000000000002000000000000000000000000000000004000000000000000000000000000000000400000000000000000000000000000000800000000000000000000000000000000000000000000000000800000000000000000",
      "type": "0x2",
      "transactionHash": "0xe747e2d640de3f5926dfc8ac274d65178bf3ec4009a70e57049ceda0c0164374",
      "transactionIndex": "0x105",
      "blockHash": "0x2c86ba83d15e6e2d7ab77341c7b67ad5a140a14808bfdbe273256a171e1aaef5",
      "blockNumber": "0x26196ab",
      "gasUsed": "0xd3f5",
      "effectiveGasPrice": "0xd89b5",
      "blobGasUsed": "0x8a61",
      "from": "0xe403f79171b7050c78479f52e49e753d43e72c1a",
      "to": "0xad473eaa51821c915d03d9db5349a0586d55e55e",
      "contractAddress": null,
      "daFootprintGasScalar": "0x145",
      "l1BaseFeeScalar": "0x8dd",
      "l1BlobBaseFee": "0x1798b9",
      "l1BlobBaseFeeScalar": "0x101c12",
      "l1Fee": "0x1107b1cf",
      "l1GasPrice": "0x198e8d1",
      "l1GasUsed": "0x6da"
    },
    {
      "status": "0x1",
      "cumulativeGasUsed": "0x2b87f00",
      "logs": [
        {
          "address": "0xad473eaa51821c915d03d9db5349a0586d55e55e",
          "topics": [
            "0x36e13ba1e45df3ecb8f6beb6274a1f5d4abf4c0792bb56700354f0d50bf0acd7",
            "0x000000000000000000000000000000000000000000000000000000000000001d",
            "0x000000000000000000000000e403f79171b7050c78479f52e49e753d43e72c1a"
          ],
          "data": "0xe8773807ffd17108aa2d132cec684352f2c5c8337ff4659cc010d15b0551847d0000000000000000000000000000000000000000000000000000000000000001000000000000000000000000000000000000000000000000000000000000006000000000000000000000000000000000000000000000000000000000000000043424000000000000000000000000000000000000000000000000000000000000",
          "blockHash": "0x2c86ba83d15e6e2d7ab77341c7b67ad5a140a14808bfdbe273256a171e1aaef5",
          "blockNumber": "0x26196ab",
          "blockTimestamp": "0x694d8a39",
          "transactionHash": "0x6780dad477e2a626e190637bc82cad22df0a6dda76811b20a724d3159e77fb6b",
          "transactionIndex": "0x11d",
          "logIndex": "0x2dc",
          "removed": false
        },
        {
          "address": "0xad473eaa51821c915d03d9db5349a0586d55e55e",
          "topics": [
            "0x36e13ba1e45df3ecb8f6beb6274a1f5d4abf4c0792bb56700354f0d50bf0acd7",
            "0x000000000000000000000000000000000000000000000000000000000000001d",
            "0x000000000000000000000000ad473eaa51821c915d03d9db5349a0586d55e55e"
          ],
          "data": "0xf4bb36a023d03b095a88119a20a9000a252aea11d80408b3bd0c6bade87b4ba70000000000000000000000000000000000000000000000000000000000000002000000000000000000000000000000000000000000000000000000000000006000000000000000000000000000000000000000000000000000000000000000043424000000000000000000000000000000000000000000000000000000000000",
          "blockHash": "0x2c86ba83d15e6e2d7ab77341c7b67ad5a140a14808bfdbe273256a171e1aaef5",
          "blockNumber": "0x26196ab",
          "blockTimestamp": "0x694d8a39",
          "transactionHash": "0x6780dad477e2a626e190637bc82cad22df0a6dda76811b20a724d3159e77fb6b",
          "transactionIndex": "0x11d",
          "logIndex": "0x2dd",
          "removed": false
        }
      ],
      "logsBloom": "0x00000080000000000000000000000000000000000000000000000000000400000000000000000000000000000000000000000000000000000000000200000000000000000000000000000000000000000000000010000010000000000000000000000000000000000000000000000040000000000400000000000000000000000000000000000000000000000200000000000000000000040002000000000000000004000000000000000000000000000000000000000000000000004000000000000000000000000000000000400000000000000000000000000000000800000000000000000000000000000000000000000000000000800000000000000000",
      "type": "0x2",
      "transactionHash": "0x6780dad477e2a626e190637bc82cad22df0a6dda76811b20a724d3159e77fb6b",
      "transactionIndex": "0x11d",
      "blockHash": "0x2c86ba83d15e6e2d7ab77341c7b67ad5a140a14808bfdbe273256a171e1aaef5",
      "blockNumber": "0x26196ab",
      "gasUsed": "0x11617",
      "effectiveGasPrice": "0xd89b5",
      "blobGasUsed": "0x8a61",
      "from": "0xe403f79171b7050c78479f52e49e753d43e72c1a",
      "to": "0xad473eaa51821c915d03d9db5349a0586d55e55e",
      "contractAddress": null,
      "daFootprintGasScalar": "0x145",
      "l1BaseFeeScalar": "0x8dd",
      "l1BlobBaseFee": "0x1798b9",
      "l1BlobBaseFeeScalar": "0x101c12",
      "l1Fee": "0x1107b1cf",
      "l1GasPrice": "0x198e8d1",
      "l1GasUsed": "0x6da"
    },
    {
      "status": "0x1",
      "cumulativeGasUsed": "0x2b952f5",
      "logs": [
        {
          "address": "0xad473eaa51821c915d03d9db5349a0586d55e55e",
          "topics": [
            "0x36e13ba1e45df3ecb8f6beb6274a1f5d4abf4c0792bb56700354f0d50bf0acd7",
            "0x000000000000000000000000000000000000000000000000000000000000001d",
            "0x000000000000000000000000e403f79171b7050c78479f52e49e753d43e72c1a"
          ],
          "data": "0x0692c63251d62c8f04eed454cc75e5bc199ba842e6b8106095e5d806a5e48cfa0000000000000000000000000000000000000000000000000000000000000003000000000000000000000000000000000000000000000000000000000000006000000000000000000000000000000000000000000000000000000000000000043323000000000000000000000000000000000000000000000000000000000000",
          "blockHash": "0x2c86ba83d15e6e2d7ab77341c7b67ad5a140a14808bfdbe273256a171e1aaef5",
          "blockNumber": "0x26196ab",
          "blockTimestamp": "0x694d8a39",
          "transactionHash": "0xed6f63f414091ecdd86793f1dccfcc57321a766b0813546c894e66117a77ab2a",
          "transactionIndex": "0x11e",
          "logIndex": "0x2de",
          "removed": false
        },
        {
          "address": "0xad473eaa51821c915d03d9db5349a0586d55e55e",
          "topics": [
            "0x36e13ba1e45df3ecb8f6beb6274a1f5d4abf4c0792bb56700354f0d50bf0acd7",
            "0x000000000000000000000000000000000000000000000000000000000000001d",
            "0x000000000000000000000000ad473eaa51821c915d03d9db5349a0586d55e55e"
          ],
          "data": "0x80db663b91d50261d3b6cf7c40f14617bc570551fdc50ae5d379aac6ea1fb5d50000000000000000000000000000000000000000000000000000000000000004000000000000000000000000000000000000000000000000000000000000006000000000000000000000000000000000000000000000000000000000000000043d0c000000000000000000000000000000000000000000000000000000000000",
          "blockHash": "0x2c86ba83d15e6e2d7ab77341c7b67ad5a140a14808bfdbe273256a171e1aaef5",
          "blockNumber": "0x26196ab",
          "blockTimestamp": "0x694d8a39",
          "transactionHash": "0xed6f63f414091ecdd86793f1dccfcc57321a766b0813546c894e66117a77ab2a",
          "transactionIndex": "0x11e",
          "logIndex": "0x2df",
          "removed": false
        }
      ],
      "logsBloom": "0x00000080000000000000000000000000000000000000000000000000000400000000000000000000000000000000000000000000000000000000000200000000000000000000000000000000000000000000000010000010000000000000000000000000000000000000000000000040000000000400000000000000000000000000000000000000000000000200000000000000000000040002000000000000000004000000000000000000000000000000000000000000000000004000000000000000000000000000000000400000000000000000000000000000000800000000000000000000000000000000000000000000000000800000000000000000",
      "type": "0x2",
      "transactionHash": "0xed6f63f414091ecdd86793f1dccfcc57321a766b0813546c894e66117a77ab2a",
      "transactionIndex": "0x11e",
      "blockHash": "0x2c86ba83d15e6e2d7ab77341c7b67ad5a140a14808bfdbe273256a171e1aaef5",
      "blockNumber": "0x26196ab",
      "gasUsed": "0xd3f5",
      "effectiveGasPrice": "0xd89b5",
      "blobGasUsed": "0x8a61",
      "from": "0xe403f79171b7050c78479f52e49e753d43e72c1a",
      "to": "0xad473eaa51821c915d03d9db5349a0586d55e55e",
      "contractAddress": null,
      "daFootprintGasScalar": "0x145",
      "l1BaseFeeScalar": "0x8dd",
      "l1BlobBaseFee": "0x1798b9",
      "l1BlobBaseFeeScalar": "0x101c12",
      "l1Fee": "0x1107b1cf",
      "l1GasPrice": "0x198e8d1",
      "l1GasUsed": "0x6da"
    },
    {
      "status": "0x1",
      "cumulativeGasUsed": "0x2ba26ea",
      "logs": [
        {
          "address": "0xad473eaa51821c915d03d9db5349a0586d55e55e",
          "topics": [
            "0x36e13ba1e45df3ecb8f6beb6274a1f5d4abf4c0792bb56700354f0d50bf0acd7",
            "0x000000000000000000000000000000000000000000000000000000000000001d",
            "0x000000000000000000000000e403f79171b7050c78479f52e49e753d43e72c1a"
          ],
          "data": "0x4442d021ec118fea7ce3641d3375363801af2e92adb1272f726cf20292795a62000000000000000000000000000000000000000000000000000000000000000500000000000000000000000000000000000000000000000000000000000000600000000000000000000000000000000000000000000000000000000000000004392a000000000000000000000000000000000000000000000000000000000000",
          "blockHash": "0x2c86ba83d15e6e2d7ab77341c7b67ad5a140a14808bfdbe273256a171e1aaef5",
          "blockNumber": "0x26196ab",
          "blockTimestamp": "0x694d8a39",
          "transactionHash": "0x129a8f281786fbbebda783bf4fa3b81a743f298e5f00b648413d2fa0aee56afc",
          "transactionIndex": "0x11f",
          "logIndex": "0x2e0",
          "removed": false
        },
        {
          "address": "0xad473eaa51821c915d03d9db5349a0586d55e55e",
          "topics": [
            "0x36e13ba1e45df3ecb8f6beb6274a1f5d4abf4c0792bb56700354f0d50bf0acd7",
            "0x000000000000000000000000000000000000000000000000000000000000001d",
            "0x000000000000000000000000ad473eaa51821c915d03d9db5349a0586d55e55e"
          ],
          "data": "0xe131cca08afe30756df90d03f27be0045be7f7a0d73031afbdf14f8a193cb8e6000000000000000000000000000000000000000000000000000000000000000600000000000000000000000000000000000000000000000000000000000000600000000000000000000000000000000000000000000000000000000000000004271a000000000000000000000000000000000000000000000000000000000000",
          "blockHash": "0x2c86ba83d15e6e2d7ab77341c7b67ad5a140a14808bfdbe273256a171e1aaef5",
          "blockNumber": "0x26196ab",
          "blockTimestamp": "0x694d8a39",
          "transactionHash": "0x129a8f281786fbbebda783bf4fa3b81a743f298e5f00b648413d2fa0aee56afc",
          "transactionIndex": "0x11f",
          "logIndex": "0x2e1",
          "removed": false
        }
      ],
      "logsBloom": "0x00000080000000000000000000000000000000000000000000000000000400000000000000000000000000000000000000000000000000000000000200000000000000000000000000000000000000000000000010000010000000000000000000000000000000000000000000000040000000000400000000000000000000000000000000000000000000000200000000000000000000040002000000000000000004000000000000000000000000000000000000000000000000004000000000000000000000000000000000400000000000000000000000000000000800000000000000000000000000000000000000000000000000800000000000000000",
      "type": "0x2",
      "transactionHash": "0x129a8f281786fbbebda783bf4fa3b81a743f298e5f00b648413d2fa0aee56afc",
      "transactionIndex": "0x11f",
      "blockHash": "0x2c86ba83d15e6e2d7ab77341c7b67ad5a140a14808bfdbe273256a171e1aaef5",
      "blockNumber": "0x26196ab",
      "gasUsed": "0xd3f5",
      "effectiveGasPrice": "0xd89b5",
      "blobGasUsed": "0x8a61",
      "from": "0xe403f79171b7050c78479f52e49e753d43e72c1a",
      "to": "0xad473eaa51821c915d03d9db5349a0586d55e55e",
      "contractAddress": null,
      "daFootprintGasScalar": "0x145",
      "l1BaseFeeScalar": "0x8dd",
      "l1BlobBaseFee": "0x1798b9",
      "l1BlobBaseFeeScalar": "0x101c12",
      "l1Fee": "0x1107b1cf",
      "l1GasPrice": "0x198e8d1",
      "l1GasUsed": "0x6da"
    },
    {
      "status": "0x1",
      "cumulativeGasUsed": "0x2bafadf",
      "logs": [
        {
          "address": "0xad473eaa51821c915d03d9db5349a0586d55e55e",
          "topics": [
            "0x36e13ba1e45df3ecb8f6beb6274a1f5d4abf4c0792bb56700354f0d50bf0acd7",
            "0x000000000000000000000000000000000000000000000000000000000000001d",
            "0x000000000000000000000000e403f79171b7050c78479f52e49e753d43e72c1a"
          ],
          "data": "0xc7183fc0754b5e7da3b74bf364f8affe59ffdf73627f9b8e7d4991d4453bd3640000000000000000000000000000000000000000000000000000000000000007000000000000000000000000000000000000000000000000000000000000006000000000000000000000000000000000000000000000000000000000000000043b2c000000000000000000000000000000000000000000000000000000000000",
          "blockHash": "0x2c86ba83d15e6e2d7ab77341c7b67ad5a140a14808bfdbe273256a171e1aaef5",
          "blockNumber": "0x26196ab",
          "blockTimestamp": "0x694d8a39",
          "transactionHash": "0xd2987b4e3664bb9468e73fd36975f9253d03ddf118f16ee1b5f4cd18a4a8cb93",
          "transactionIndex": "0x120",
          "logIndex": "0x2e2",
          "removed": false
        },
        {
          "address": "0xad473eaa51821c915d03d9db5349a0586d55e55e",
          "topics": [
            "0x36e13ba1e45df3ecb8f6beb6274a1f5d4abf4c0792bb56700354f0d50bf0acd7",
            "0x000000000000000000000000000000000000000000000000000000000000001d",
            "0x000000000000000000000000ad473eaa51821c915d03d9db5349a0586d55e55e"
          ],
          "data": "0xfa672e07d673b2d218b92d8ee0e059b5d1bfc274c1d1aaf67086a3dbe5f1587f0000000000000000000000000000000000000000000000000000000000000008000000000000000000000000000000000000000000000000000000000000006000000000000000000000000000000000000000000000000000000000000000042b13000000000000000000000000000000000000000000000000000000000000",
          "blockHash": "0x2c86ba83d15e6e2d7ab77341c7b67ad5a140a14808bfdbe273256a171e1aaef5",
          "blockNumber": "0x26196ab",
          "blockTimestamp": "0x694d8a39",
          "transactionHash": "0xd2987b4e3664bb9468e73fd36975f9253d03ddf118f16ee1b5f4cd18a4a8cb93",
          "transactionIndex": "0x120",
          "logIndex": "0x2e3",
          "removed": false
        }
      ],
      "logsBloom": "0x00000080000000000000000000000000000000000000000000000000000400000000000000000000000000000000000000000000000000000000000200000000000000000000000000000000000000000000000010000010000000000000000000000000000000000000000000000040000000000400000000000000000000000000000000000000000000000200000000000000000000040002000000000000000004000000000000000000000000000000000000000000000000004000000000000000000000000000000000400000000000000000000000000000000800000000000000000000000000000000000000000000000000800000000000000000",
      "type": "0x2",
      "transactionHash": "0xd2987b4e3664bb9468e73fd36975f9253d03ddf118f16ee1b5f4cd18a4a8cb93",
      "transactionIndex": "0x120",
      "blockHash": "0x2c86ba83d15e6e2d7ab77341c7b67ad5a140a14808bfdbe273256a171e1aaef5",
      "blockNumber": "0x26196ab",
      "gasUsed": "0xd3f5",
      "effectiveGasPrice": "0xd89b5",
      "blobGasUsed": "0x8a61",
      "from": "0xe403f79171b7050c78479f52e49e753d43e72c1a",
      "to": "0xad473eaa51821c915d03d9db5349a0586d55e55e",
      "contractAddress": null,
      "daFootprintGasScalar": "0x145",
      "l1BaseFeeScalar": "0x8dd",
      "l1BlobBaseFee": "0x1798b9",
      "l1BlobBaseFeeScalar": "0x101c12",
      "l1Fee": "0x1107b1cf",
      "l1GasPrice": "0x198e8d1",
      "l1GasUsed": "0x6da"
    },
    {
      "status": "0x1",
      "cumulativeGasUsed": "0x393a03a",
      "logs": [
        {
          "address": "0xad473eaa51821c915d03d9db5349a0586d55e55e",
          "topics": [
            "0x36e13ba1e45df3ecb8f6beb6274a1f5d4abf4c0792bb56700354f0d50bf0acd7",
            "0x000000000000000000000000000000000000000000000000000000000000001e",
            "0x000000000000000000000000e403f79171b7050c78479f52e49e753d43e72c1a"
          ],
          "data": "0x90e396633e67bfb131a9c9b400ea842e0f29f45c4bc7872a0e80af48deb785040000000000000000000000000000000000000000000000000000000000000001000000000000000000000000000000000000000000000000000000000000006000000000000000000000000000000000000000000000000000000000000000043028000000000000000000000000000000000000000000000000000000000000",
          "blockHash": "0x2c86ba83d15e6e2d7ab77341c7b67ad5a140a14808bfdbe273256a171e1aaef5",
          "blockNumber": "0x26196ab",
          "blockTimestamp": "0x694d8a39",
          "transactionHash": "0xf8904261e71a280765a16d8c5d47383fcae73e0be2bc69fe344663103d9df9b9",
          "transactionIndex": "0x144",
          "logIndex": "0x3fe",
          "removed": false
        },
        {
          "address": "0xad473eaa51821c915d03d9db5349a0586d55e55e",
          "topics": [
            "0x36e13ba1e45df3ecb8f6beb6274a1f5d4abf4c0792bb56700354f0d50bf0acd7",
            "0x000000000000000000000000000000000000000000000000000000000000001e",
            "0x000000000000000000000000ad473eaa51821c915d03d9db5349a0586d55e55e"
          ],
          "data": "0x60e65b9330f95689004881ceb0c70271140d7a6c66037940d345a33188c341c30000000000000000000000000000000000000000000000000000000000000002000000000000000000000000000000000000000000000000000000000000006000000000000000000000000000000000000000000000000000000000000000043424000000000000000000000000000000000000000000000000000000000000",
          "blockHash": "0x2c86ba83d15e6e2d7ab77341c7b67ad5a140a14808bfdbe273256a171e1aaef5",
          "blockNumber": "0x26196ab",
          "blockTimestamp": "0x694d8a39",
          "transactionHash": "0xf8904261e71a280765a16d8c5d47383fcae73e0be2bc69fe344663103d9df9b9",
          "transactionIndex": "0x144",
          "logIndex": "0x3ff",
          "removed": false
        }
      ],
      "logsBloom": "0x00000000000000000000000000000000000000000000000000000000000400000000000000000000000000000400000000000000000000000000000000000000000000000000008000000000000000000000000010000000000000000000000000000000000000000000000000000040000000000400000000000000000000000000000000000000000000000200000000000000000000040002000000000000000004000000000000000000000000000000000000000000000000004000000000000000000000000000000000400000000000000000000000000000000800000000000000000000080000000000000000000000000000800000000000000000",
      "type": "0x2",
      "transactionHash": "0xf8904261e71a280765a16d8c5d47383fcae73e0be2bc69fe344663103d9df9b9",
      "transactionIndex": "0x144",
      "blockHash": "0x2c86ba83d15e6e2d7ab77341c7b67ad5a140a14808bfdbe273256a171e1aaef5",
      "blockNumber": "0x26196ab",
      "gasUsed": "0x1160b",
      "effectiveGasPrice": "0xd89b5",
      "blobGasUsed": "0x8a61",
      "from": "0xe403f79171b7050c78479f52e49e753d43e72c1a",
      "to": "0xad473eaa51821c915d03d9db5349a0586d55e55e",
      "contractAddress": null,
      "daFootprintGasScalar": "0x145",
      "l1BaseFeeScalar": "0x8dd",
      "l1BlobBaseFee": "0x1798b9",
      "l1BlobBaseFeeScalar": "0x101c12",
      "l1Fee": "0x1107b1cf",
      "l1GasPrice": "0x198e8d1",
      "l1GasUsed": "0x6da"
    },
    {
      "status": "0x1",
      "cumulativeGasUsed": "0x394742f",
      "logs": [
        {
          "address": "0xad473eaa51821c915d03d9db5349a0586d55e55e",
          "topics": [
            "0x36e13ba1e45df3ecb8f6beb6274a1f5d4abf4c0792bb56700354f0d50bf0acd7",
            "0x000000000000000000000000000000000000000000000000000000000000001e",
            "0x000000000000000000000000e403f79171b7050c78479f52e49e753d43e72c1a"
          ],
          "data": "0xfc6cc8976638831fc84ceab234894f532e0338e7268a3303d4c0c1939f85dbb90000000000000000000000000000000000000000000000000000000000000003000000000000000000000000000000000000000000000000000000000000006000000000000000000000000000000000000000000000000000000000000000043222000000000000000000000000000000000000000000000000000000000000",
          "blockHash": "0x2c86ba83d15e6e2d7ab77341c7b67ad5a140a14808bfdbe273256a171e1aaef5",
          "blockNumber": "0x26196ab",
          "blockTimestamp": "0x694d8a39",
          "transactionHash": "0x7bd27054a2c931273158ce79f9622f19ba748602a880b1948e3c6dd0376617b0",
          "transactionIndex": "0x145",
          "logIndex": "0x400",
          "removed": false
        },
        {
          "address": "0xad473eaa51821c915d03d9db5349a0586d55e55e",
          "topics": [
            "0x36e13ba1e45df3ecb8f6beb6274a1f5d4abf4c0792bb56700354f0d50bf0acd7",
            "0x000000000000000000000000000000000000000000000000000000000000001e",
            "0x000000000000000000000000ad473eaa51821c915d03d9db5349a0586d55e55e"
          ],
          "data": "0x0192d1e4a25acce6e7a2d4e8900eba6030b412ccc2d92d174c541b9d6055ff390000000000000000000000000000000000000000000000000000000000000004000000000000000000000000000000000000000000000000000000000000006000000000000000000000000000000000000000000000000000000000000000043c1b000000000000000000000000000000000000000000000000000000000000",
          "blockHash": "0x2c86ba83d15e6e2d7ab77341c7b67ad5a140a14808bfdbe273256a171e1aaef5",
          "blockNumber": "0x26196ab",
          "blockTimestamp": "0x694d8a39",
          "transactionHash": "0x7bd27054a2c931273158ce79f9622f19ba748602a880b1948e3c6dd0376617b0",
          "transactionIndex": "0x145",
          "logIndex": "0x401",
          "removed": false
        }
      ],
      "logsBloom": "0x00000000000000000000000000000000000000000000000000000000000400000000000000000000000000000400000000000000000000000000000000000000000000000000008000000000000000000000000010000000000000000000000000000000000000000000000000000040000000000400000000000000000000000000000000000000000000000200000000000000000000040002000000000000000004000000000000000000000000000000000000000000000000004000000000000000000000000000000000400000000000000000000000000000000800000000000000000000080000000000000000000000000000800000000000000000",
      "type": "0x2",
      "transactionHash": "0x7bd27054a2c931273158ce79f9622f19ba748602a880b1948e3c6dd0376617b0",
      "transactionIndex": "0x145",
      "blockHash": "0x2c86ba83d15e6e2d7ab77341c7b67ad5a140a14808bfdbe273256a171e1aaef5",
      "blockNumber": "0x26196ab",
      "gasUsed": "0xd3f5",
      "effectiveGasPrice": "0xd89b5",
      "blobGasUsed": "0x8a61",
      "from": "0xe403f79171b7050c78479f52e49e753d43e72c1a",
      "to": "0xad473eaa51821c915d03d9db5349a0586d55e55e",
      "contractAddress": null,
      "daFootprintGasScalar": "0x145",
      "l1BaseFeeScalar": "0x8dd",
      "l1BlobBaseFee": "0x1798b9",
      "l1BlobBaseFeeScalar": "0x101c12",
      "l1Fee": "0x1107b1cf",
      "l1GasPrice": "0x198e8d1",
      "l1GasUsed": "0x6da"
    },
    {
      "status": "0x1",
      "cumulativeGasUsed": "0x3954824",
      "logs": [
        {
          "address": "0xad473eaa51821c915d03d9db5349a0586d55e55e",
          "topics": [
            "0x36e13ba1e45df3ecb8f6beb6274a1f5d4abf4c0792bb56700354f0d50bf0acd7",
            "0x000000000000000000000000000000000000000000000000000000000000001e",
            "0x000000000000000000000000e403f79171b7050c78479f52e49e753d43e72c1a"
          ],
          "data": "0xbb9afb9861b8290cda948e4af3b636449a44547dca4c3acbc45e65f4e22aab400000000000000000000000000000000000000000000000000000000000000005000000000000000000000000000000000000000000000000000000000000006000000000000000000000000000000000000000000000000000000000000000043129000000000000000000000000000000000000000000000000000000000000",
          "blockHash": "0x2c86ba83d15e6e2d7ab77341c7b67ad5a140a14808bfdbe273256a171e1aaef5",
          "blockNumber": "0x26196ab",
          "blockTimestamp": "0x694d8a39",
          "transactionHash": "0x3427feb99e4a22d8b1210bb714a3b63c25ffa30987828922655fd7d6eec0afcd",
          "transactionIndex": "0x146",
          "logIndex": "0x402",
          "removed": false
        },
        {
          "address": "0xad473eaa51821c915d03d9db5349a0586d55e55e",
          "topics": [
            "0x36e13ba1e45df3ecb8f6beb6274a1f5d4abf4c0792bb56700354f0d50bf0acd7",
            "0x000000000000000000000000000000000000000000000000000000000000001e",
            "0x000000000000000000000000ad473eaa51821c915d03d9db5349a0586d55e55e"
          ],
          "data": "0x2760255e5f8c0d33599f68866f7b7bdd30ba831d73410b4548d9b6c2e2478d1c000000000000000000000000000000000000000000000000000000000000000600000000000000000000000000000000000000000000000000000000000000600000000000000000000000000000000000000000000000000000000000000004052b000000000000000000000000000000000000000000000000000000000000",
          "blockHash": "0x2c86ba83d15e6e2d7ab77341c7b67ad5a140a14808bfdbe273256a171e1aaef5",
          "blockNumber": "0x26196ab",
          "blockTimestamp": "0x694d8a39",
          "transactionHash": "0x3427feb99e4a22d8b1210bb714a3b63c25ffa30987828922655fd7d6eec0afcd",
          "transactionIndex": "0x146",
          "logIndex": "0x403",
          "removed": false
        }
      ],
      "logsBloom": "0x00000000000000000000000000000000000000000000000000000000000400000000000000000000000000000400000000000000000000000000000000000000000000000000008000000000000000000000000010000000000000000000000000000000000000000000000000000040000000000400000000000000000000000000000000000000000000000200000000000000000000040002000000000000000004000000000000000000000000000000000000000000000000004000000000000000000000000000000000400000000000000000000000000000000800000000000000000000080000000000000000000000000000800000000000000000",
      "type": "0x2",
      "transactionHash": "0x3427feb99e4a22d8b1210bb714a3b63c25ffa30987828922655fd7d6eec0afcd",
      "transactionIndex": "0x146",
      "blockHash": "0x2c86ba83d15e6e2d7ab77341c7b67ad5a140a14808bfdbe273256a171e1aaef5",
      "blockNumber": "0x26196ab",
      "gasUsed": "0xd3f5",
      "effectiveGasPrice": "0xd89b5",
      "blobGasUsed": "0x8a61",
      "from": "0xe403f79171b7050c78479f52e49e753d43e72c1a",
      "to": "0xad473eaa51821c915d03d9db5349a0586d55e55e",
      "contractAddress": null,
      "daFootprintGasScalar": "0x145",
      "l1BaseFeeScalar": "0x8dd",
      "l1BlobBaseFee": "0x1798b9",
      "l1BlobBaseFeeScalar": "0x101c12",
      "l1Fee": "0x1107b1cf",
      "l1GasPrice": "0x198e8d1",
      "l1GasUsed": "0x6da"
    },
    {
      "status": "0x1",
      "cumulativeGasUsed": "0x3961c19",
      "logs": [
        {
          "address": "0xad473eaa51821c915d03d9db5349a0586d55e55e",
          "topics": [
            "0x36e13ba1e45df3ecb8f6beb6274a1f5d4abf4c0792bb56700354f0d50bf0acd7",
            "0x000000000000000000000000000000000000000000000000000000000000001e",
            "0x000000000000000000000000e403f79171b7050c78479f52e49e753d43e72c1a"
          ],
          "data": "0x2a4b22ea265f7017c3f5040f1eec7d58baac29eda24dc699336157972973d8e10000000000000000000000000000000000000000000000000000000000000007000000000000000000000000000000000000000000000000000000000000006000000000000000000000000000000000000000000000000000000000000000043a2b000000000000000000000000000000000000000000000000000000000000",
          "blockHash": "0x2c86ba83d15e6e2d7ab77341c7b67ad5a140a14808bfdbe273256a171e1aaef5",
          "blockNumber": "0x26196ab",
          "blockTimestamp": "0x694d8a39",
          "transactionHash": "0xfc797201ecf31a1c91b26d49fd4018bcca18653357f2c5d62ef385defe864ecd",
          "transactionIndex": "0x147",
          "logIndex": "0x404",
          "removed": false
        },
        {
          "address": "0xad473eaa51821c915d03d9db5349a0586d55e55e",
          "topics": [
            "0x36e13ba1e45df3ecb8f6beb6274a1f5d4abf4c0792bb56700354f0d50bf0acd7",
            "0x000000000000000000000000000000000000000000000000000000000000001e",
            "0x000000000000000000000000ad473eaa51821c915d03d9db5349a0586d55e55e"
          ],
          "data": "0x55f26890947882f1207e2a875a0d392857a077e9af9ea320f39541f65d9244dd0000000000000000000000000000000000000000000000000000000000000008000000000000000000000000000000000000000000000000000000000000006000000000000000000000000000000000000000000000000000000000000000042818000000000000000000000000000000000000000000000000000000000000",
          "blockHash": "0x2c86ba83d15e6e2d7ab77341c7b67ad5a140a14808bfdbe273256a171e1aaef5",
          "blockNumber": "0x26196ab",
          "blockTimestamp": "0x694d8a39",
          "transactionHash": "0xfc797201ecf31a1c91b26d49fd4018bcca18653357f2c5d62ef385defe864ecd",
          "transactionIndex": "0x147",
          "logIndex": "0x405",
          "removed": false
        }
      ],
      "logsBloom": "0x00000000000000000000000000000000000000000000000000000000000400000000000000000000000000000400000000000000000000000000000000000000000000000000008000000000000000000000000010000000000000000000000000000000000000000000000000000040000000000400000000000000000000000000000000000000000000000200000000000000000000040002000000000000000004000000000000000000000000000000000000000000000000004000000000000000000000000000000000400000000000000000000000000000000800000000000000000000080000000000000000000000000000800000000000000000",
      "type": "0x2",
      "transactionHash": "0xfc797201ecf31a1c91b26d49fd4018bcca18653357f2c5d62ef385defe864ecd",
      "transactionIndex": "0x147",
      "blockHash": "0x2c86ba83d15e6e2d7ab77341c7b67ad5a140a14808bfdbe273256a171e1aaef5",
      "blockNumber": "0x26196ab",
      "gasUsed": "0xd3f5",
      "effectiveGasPrice": "0xd89b5",
      "blobGasUsed": "0x8a61",
      "from": "0xe403f79171b7050c78479f52e49e753d43e72c1a",
      "to": "0xad473eaa51821c915d03d9db5349a0586d55e55e",
      "contractAddress": null,
      "daFootprintGasScalar": "0x145",
      "l1BaseFeeScalar": "0x8dd",
      "l1BlobBaseFee": "0x1798b9",
      "l1BlobBaseFeeScalar": "0x101c12",
      "l1Fee": "0x1107b1cf",
      "l1GasPrice": "0x198e8d1",
      "l1GasUsed": "0x6da"
    },
    {
      "status": "0x1",
      "cumulativeGasUsed": "0x3973230",
      "logs": [
        {
          "address": "0xad473eaa51821c915d03d9db5349a0586d55e55e",
          "topics": [
            "0x36e13ba1e45df3ecb8f6beb6274a1f5d4abf4c0792bb56700354f0d50bf0acd7",
            "0x000000000000000000000000000000000000000000000000000000000000001f",
            "0x000000000000000000000000e403f79171b7050c78479f52e49e753d43e72c1a"
          ],
          "data": "0xe8773807ffd17108aa2d132cec684352f2c5c8337ff4659cc010d15b0551847d0000000000000000000000000000000000000000000000000000000000000001000000000000000000000000000000000000000000000000000000000000006000000000000000000000000000000000000000000000000000000000000000043424000000000000000000000000000000000000000000000000000000000000",
          "blockHash": "0x2c86ba83d15e6e2d7ab77341c7b67ad5a140a14808bfdbe273256a171e1aaef5",
          "blockNumber": "0x26196ab",
          "blockTimestamp": "0x694d8a39",
          "transactionHash": "0xd5e89b86fe7cab666b52c3a163af77121e97a5b74a369e1399d02d89a5ba9ece",
          "transactionIndex": "0x148",
          "logIndex": "0x406",
          "removed": false
        },
        {
          "address": "0xad473eaa51821c915d03d9db5349a0586d55e55e",
          "topics": [
            "0x36e13ba1e45df3ecb8f6beb6274a1f5d4abf4c0792bb56700354f0d50bf0acd7",
            "0x000000000000000000000000000000000000000000000000000000000000001f",
            "0x000000000000000000000000ad473eaa51821c915d03d9db5349a0586d55e55e"
          ],
          "data": "0xf4bb36a023d03b095a88119a20a9000a252aea11d80408b3bd0c6bade87b4ba70000000000000000000000000000000000000000000000000000000000000002000000000000000000000000000000000000000000000000000000000000006000000000000000000000000000000000000000000000000000000000000000043424000000000000000000000000000000000000000000000000000000000000",
          "blockHash": "0x2c86ba83d15e6e2d7ab77341c7b67ad5a140a14808bfdbe273256a171e1aaef5",
          "blockNumber": "0x26196ab",
          "blockTimestamp": "0x694d8a39",
          "transactionHash": "0xd5e89b86fe7cab666b52c3a163af77121e97a5b74a369e1399d02d89a5ba9ece",
          "transactionIndex": "0x148",
          "logIndex": "0x407",
          "removed": false
        }
      ],
      "logsBloom": "0x00000000000000000000000400000000000000000000000000000000000400000000000000000000000000000000000000000000000000000000000000000000000000000000000000000000000000000000000010000000000000000000000000000000000000000000000000000040000000000400000000000000000000000000000000000000000000000200000000000000000000040002000000000000000004000000000000000000000000000000000000000000000000004001000000000000000000000000000000400000000000000000000000000000000800000000000000000000000000000000000000000000000000800100000000000000",
      "type": "0x2",
      "transactionHash": "0xd5e89b86fe7cab666b52c3a163af77121e97a5b74a369e1399d02d89a5ba9ece",
      "transactionIndex": "0x148",
      "blockHash": "0x2c86ba83d15e6e2d7ab77341c7b67ad5a140a14808bfdbe273256a171e1aaef5",
      "blockNumber": "0x26196ab",
      "gasUsed": "0x11617",
      "effectiveGasPrice": "0xd89b5",
      "blobGasUsed": "0x8a61",
      "from": "0xe403f79171b7050c78479f52e49e753d43e72c1a",
      "to": "0xad473eaa51821c915d03d9db5349a0586d55e55e",
      "contractAddress": null,
      "daFootprintGasScalar": "0x145",
      "l1BaseFeeScalar": "0x8dd",
      "l1BlobBaseFee": "0x1798b9",
      "l1BlobBaseFeeScalar": "0x101c12",
      "l1Fee": "0x1107b1cf",
      "l1GasPrice": "0x198e8d1",
      "l1GasUsed": "0x6da"
    },
    {
      "status": "0x1",
      "cumulativeGasUsed": "0xab001d",
      "logs": [
        {
          "address": "0xad473eaa51821c915d03d9db5349a0586d55e55e",
          "topics": [
            "0x36e13ba1e45df3ecb8f6beb6274a1f5d4abf4c0792bb56700354f0d50bf0acd7",
            "0x000000000000000000000000000000000000000000000000000000000000001f",
            "0x000000000000000000000000e403f79171b7050c78479f52e49e753d43e72c1a"
          ],
          "data": "0x0692c63251d62c8f04eed454cc75e5bc199ba842e6b8106095e5d806a5e48cfa0000000000000000000000000000000000000000000000000000000000000003000000000000000000000000000000000000000000000000000000000000006000000000000000000000000000000000000000000000000000000000000000043323000000000000000000000000000000000000000000000000000000000000",
          "blockHash": "0xb6612017106e67d6b2c10dddeeb6cd4b6444d105cbfbab1b13fbc9b407c67aec",
          "blockNumber": "0x26196ac",
          "blockTimestamp": "0x694d8a3b",
          "transactionHash": "0x5894671310114584f888fc257fbd8380898b4d2e34798bd1a52816af42cff797",
          "transactionIndex": "0x4e",
          "logIndex": "0xff",
          "removed": false
        },
        {
          "address": "0xad473eaa51821c915d03d9db5349a0586d55e55e",
          "topics": [
            "0x36e13ba1e45df3ecb8f6beb6274a1f5d4abf4c0792bb56700354f0d50bf0acd7",
            "0x000000000000000000000000000000000000000000000000000000000000001f",
            "0x000000000000000000000000ad473eaa51821c915d03d9db5349a0586d55e55e"
          ],
          "data": "0x80db663b91d50261d3b6cf7c40f14617bc570551fdc50ae5d379aac6ea1fb5d50000000000000000000000000000000000000000000000000000000000000004000000000000000000000000000000000000000000000000000000000000006000000000000000000000000000000000000000000000000000000000000000043d0c000000000000000000000000000000000000000000000000000000000000",
          "blockHash": "0xb6612017106e67d6b2c10dddeeb6cd4b6444d105cbfbab1b13fbc9b407c67aec",
          "blockNumber": "0x26196ac",
          "blockTimestamp": "0x694d8a3b",
          "transactionHash": "0x5894671310114584f888fc257fbd8380898b4d2e34798bd1a52816af42cff797",
          "transactionIndex": "0x4e",
          "logIndex": "0x100",
          "removed": false
        }
      ],
      "logsBloom": "0x00000000000000000000000400000000000000000000000000000000000400000000000000000000000000000000000000000000000000000000000000000000000000000000000000000000000000000000000010000000000000000000000000000000000000000000000000000040000000000400000000000000000000000000000000000000000000000200000000000000000000040002000000000000000004000000000000000000000000000000000000000000000000004001000000000000000000000000000000400000000000000000000000000000000800000000000000000000000000000000000000000000000000800100000000000000",
      "type": "0x2",
      "transactionHash": "0x5894671310114584f888fc257fbd8380898b4d2e34798bd1a52816af42cff797",
      "transactionIndex": "0x4e",
      "blockHash": "0xb6612017106e67d6b2c10dddeeb6cd4b6444d105cbfbab1b13fbc9b407c67aec",
      "blockNumber": "0x26196ac",
      "gasUsed": "0xdee5",
      "effectiveGasPrice": "0xd8bad",
      "blobGasUsed": "0x8a61",
      "from": "0xe403f79171b7050c78479f52e49e753d43e72c1a",
      "to": "0xad473eaa51821c915d03d9db5349a0586d55e55e",
      "contractAddress": null,
      "daFootprintGasScalar": "0x145",
      "l1BaseFeeScalar": "0x8dd",
      "l1BlobBaseFee": "0x1798b9",
      "l1BlobBaseFeeScalar": "0x101c12",
      "l1Fee": "0x2ddec3f6",
      "l1GasPrice": "0x198e8d1",
      "l1GasUsed": "0x6da"
    },
    {
      "status": "0x1",
      "cumulativeGasUsed": "0xabd412",
      "logs": [
        {
          "address": "0xad473eaa51821c915d03d9db5349a0586d55e55e",
          "topics": [
            "0x36e13ba1e45df3ecb8f6beb6274a1f5d4abf4c0792bb56700354f0d50bf0acd7",
            "0x000000000000000000000000000000000000000000000000000000000000001f",
            "0x000000000000000000000000e403f79171b7050c78479f52e49e753d43e72c1a"
          ],
          "data": "0x4442d021ec118fea7ce3641d3375363801af2e92adb1272f726cf20292795a62000000000000000000000000000000000000000000000000000000000000000500000000000000000000000000000000000000000000000000000000000000600000000000000000000000000000000000000000000000000000000000000004392a000000000000000000000000000000000000000000000000000000000000",
          "blockHash": "0xb6612017106e67d6b2c10dddeeb6cd4b6444d105cbfbab1b13fbc9b407c67aec",
          "blockNumber": "0x26196ac",
          "blockTimestamp": "0x694d8a3b",
          "transactionHash": "0x1a184d6c21f4c508133e11d7ebf6c020e5da9ac01f6d912fa20ae72ebb4ff057",
          "transactionIndex": "0x4f",
          "logIndex": "0x101",
          "removed": false
        },
        {
          "address": "0xad473eaa51821c915d03d9db5349a0586d55e55e",
          "topics": [
            "0x36e13ba1e45df3ecb8f6beb6274a1f5d4abf4c0792bb56700354f0d50bf0acd7",
            "0x000000000000000000000000000000000000000000000000000000000000001f",
            "0x000000000000000000000000ad473eaa51821c915d03d9db5349a0586d55e55e"
          ],
          "data": "0xe131cca08afe30756df90d03f27be0045be7f7a0d73031afbdf14f8a193cb8e6000000000000000000000000000000000000000000000000000000000000000600000000000000000000000000000000000000000000000000000000000000600000000000000000000000000000000000000000000000000000000000000004271a000000000000000000000000000000000000000000000000000000000000",
          "blockHash": "0xb6612017106e67d6b2c10dddeeb6cd4b6444d105cbfbab1b13fbc9b407c67aec",
          "blockNumber": "0x26196ac",
          "blockTimestamp": "0x694d8a3b",
          "transactionHash": "0x1a184d6c21f4c508133e11d7ebf6c020e5da9ac01f6d912fa20ae72ebb4ff057",
          "transactionIndex": "0x4f",
          "logIndex": "0x102",
          "removed": false
        }
      ],
      "logsBloom": "0x00000000000000000000000400000000000000000000000000000000000400000000000000000000000000000000000000000000000000000000000000000000000000000000000000000000000000000000000010000000000000000000000000000000000000000000000000000040000000000400000000000000000000000000000000000000000000000200000000000000000000040002000000000000000004000000000000000000000000000000000000000000000000004001000000000000000000000000000000400000000000000000000000000000000800000000000000000000000000000000000000000000000000800100000000000000",
      "type": "0x2",
      "transactionHash": "0x1a184d6c21f4c508133e11d7ebf6c020e5da9ac01f6d912fa20ae72ebb4ff057",
      "transactionIndex": "0x4f",
      "blockHash": "0xb6612017106e67d6b2c10dddeeb6cd4b6444d105cbfbab1b13fbc9b407c67aec",
      "blockNumber": "0x26196ac",
      "gasUsed": "0xd3f5",
      "effectiveGasPrice": "0xd8bad",
      "blobGasUsed": "0x8a61",
      "from": "0xe403f79171b7050c78479f52e49e753d43e72c1a",
      "to": "0xad473eaa51821c915d03d9db5349a0586d55e55e",
      "contractAddress": null,
      "daFootprintGasScalar": "0x145",
      "l1BaseFeeScalar": "0x8dd",
      "l1BlobBaseFee": "0x1798b9",
      "l1BlobBaseFeeScalar": "0x101c12",
      "l1Fee": "0x2ddec3f6",
      "l1GasPrice": "0x198e8d1",
      "l1GasUsed": "0x6da"
    },
    {
      "status": "0x1",
      "cumulativeGasUsed": "0xaca807",
      "logs": [
        {
          "address": "0xad473eaa51821c915d03d9db5349a0586d55e55e",
          "topics": [
            "0x36e13ba1e45df3ecb8f6beb6274a1f5d4abf4c0792bb56700354f0d50bf0acd7",
            "0x000000000000000000000000000000000000000000000000000000000000001f",
            "0x000000000000000000000000e403f79171b7050c78479f52e49e753d43e72c1a"
          ],
          "data": "0xc7183fc0754b5e7da3b74bf364f8affe59ffdf73627f9b8e7d4991d4453bd3640000000000000000000000000000000000000000000000000000000000000007000000000000000000000000000000000000000000000000000000000000006000000000000000000000000000000000000000000000000000000000000000043b2c000000000000000000000000000000000000000000000000000000000000",
          "blockHash": "0xb6612017106e67d6b2c10dddeeb6cd4b6444d105cbfbab1b13fbc9b407c67aec",
          "blockNumber": "0x26196ac",
          "blockTimestamp": "0x694d8a3b",
          "transactionHash": "0x6afecdbe6a0dab052934f90f91a43fa39fe43d7e0deb8601e7fba8e214a653b2",
          "transactionIndex": "0x50",
          "logIndex": "0x103",
          "removed": false
        },
        {
          "address": "0xad473eaa51821c915d03d9db5349a0586d55e55e",
          "topics": [
            "0x36e13ba1e45df3ecb8f6beb6274a1f5d4abf4c0792bb56700354f0d50bf0acd7",
            "0x000000000000000000000000000000000000000000000000000000000000001f",
            "0x000000000000000000000000ad473eaa51821c915d03d9db5349a0586d55e55e"
          ],
          "data": "0xfa672e07d673b2d218b92d8ee0e059b5d1bfc274c1d1aaf67086a3dbe5f1587f0000000000000000000000000000000000000000000000000000000000000008000000000000000000000000000000000000000000000000000000000000006000000000000000000000000000000000000000000000000000000000000000042b13000000000000000000000000000000000000000000000000000000000000",
          "blockHash": "0xb6612017106e67d6b2c10dddeeb6cd4b6444d105cbfbab1b13fbc9b407c67aec",
          "blockNumber": "0x26196ac",
          "blockTimestamp": "0x694d8a3b",
          "transactionHash": "0x6afecdbe6a0dab052934f90f91a43fa39fe43d7e0deb8601e7fba8e214a653b2",
          "transactionIndex": "0x50",
          "logIndex": "0x104",
          "removed": false
        }
      ],
      "logsBloom": "0x00000000000000000000000400000000000000000000000000000000000400000000000000000000000000000000000000000000000000000000000000000000000000000000000000000000000000000000000010000000000000000000000000000000000000000000000000000040000000000400000000000000000000000000000000000000000000000200000000000000000000040002000000000000000004000000000000000000000000000000000000000000000000004001000000000000000000000000000000400000000000000000000000000000000800000000000000000000000000000000000000000000000000800100000000000000",
      "type": "0x2",
      "transactionHash": "0x6afecdbe6a0dab052934f90f91a43fa39fe43d7e0deb8601e7fba8e214a653b2",
      "transactionIndex": "0x50",
      "blockHash": "0xb6612017106e67d6b2c10dddeeb6cd4b6444d105cbfbab1b13fbc9b407c67aec",
      "blockNumber": "0x26196ac",
      "gasUsed": "0xd3f5",
      "effectiveGasPrice": "0xd8bad",
      "blobGasUsed": "0x8a61",
      "from": "0xe403f79171b7050c78479f52e49e753d43e72c1a",
      "to": "0xad473eaa51821c915d03d9db5349a0586d55e55e",
      "contractAddress": null,
      "daFootprintGasScalar": "0x145",
      "l1BaseFeeScalar": "0x8dd",
      "l1BlobBaseFee": "0x1798b9",
      "l1BlobBaseFeeScalar": "0x101c12",
      "l1Fee": "0x2ddec3f6",
      "l1GasPrice": "0x198e8d1",
      "l1GasUsed": "0x6da"
    },
    {
      "status": "0x1",
      "cumulativeGasUsed": "0xadc902",
      "logs": [
        {
          "address": "0xad473eaa51821c915d03d9db5349a0586d55e55e",
          "topics": [
            "0x36e13ba1e45df3ecb8f6beb6274a1f5d4abf4c0792bb56700354f0d50bf0acd7",
            "0x0000000000000000000000000000000000000000000000000000000000000020",
            "0x000000000000000000000000e403f79171b7050c78479f52e49e753d43e72c1a"
          ],
          "data": "0x90e396633e67bfb131a9c9b400ea842e0f29f45c4bc7872a0e80af48deb785040000000000000000000000000000000000000000000000000000000000000001000000000000000000000000000000000000000000000000000000000000006000000000000000000000000000000000000000000000000000000000000000043028000000000000000000000000000000000000000000000000000000000000",
          "blockHash": "0xb6612017106e67d6b2c10dddeeb6cd4b6444d105cbfbab1b13fbc9b407c67aec",
          "blockNumber": "0x26196ac",
          "blockTimestamp": "0x694d8a3b",
          "transactionHash": "0x4ddceb211f83f2d0290ae8b3c06193a45c8812f2d83c4ffbd1668fb8a4ffbd4e",
          "transactionIndex": "0x51",
          "logIndex": "0x105",
          "removed": false
        },
        {
          "address": "0xad473eaa51821c915d03d9db5349a0586d55e55e",
          "topics": [
            "0x36e13ba1e45df3ecb8f6beb6274a1f5d4abf4c0792bb56700354f0d50bf0acd7",
            "0x0000000000000000000000000000000000000000000000000000000000000020",
            "0x000000000000000000000000ad473eaa51821c915d03d9db5349a0586d55e55e"
          ],
          "data": "0x60e65b9330f95689004881ceb0c70271140d7a6c66037940d345a33188c341c30000000000000000000000000000000000000000000000000000000000000002000000000000000000000000000000000000000000000000000000000000006000000000000000000000000000000000000000000000000000000000000000043424000000000000000000000000000000000000000000000000000000000000",
          "blockHash": "0xb6612017106e67d6b2c10dddeeb6cd4b6444d105cbfbab1b13fbc9b407c67aec",
          "blockNumber": "0x26196ac",
          "blockTimestamp": "0x694d8a3b",
          "transactionHash": "0x4ddceb211f83f2d0290ae8b3c06193a45c8812f2d83c4ffbd1668fb8a4ffbd4e",
          "transactionIndex": "0x51",
          "logIndex": "0x106",
          "removed": false
        }
      ],
      "logsBloom": "0x00000000000000000000000000000000000000000000000000000000000400000000000000000000000000000000000000000000000000000000000000000000000000000000000000000000000000000000000010000000000000000000000000000000000000000000000000000040000000000400000000000000000000000000000000000000000000000200000000000000000000040002000000000000000404000000000000000000000000000000000000000000000000004000000000000000000000000000000000400000080000000000000000000000000800000000400000000000000000000000000000000000000000800000000000000000",
      "type": "0x2",
      "transactionHash": "0x4ddceb211f83f2d0290ae8b3c06193a45c8812f2d83c4ffbd1668fb8a4ffbd4e",
      "transactionIndex": "0x51",
      "blockHash": "0xb6612017106e67d6b2c10dddeeb6cd4b6444d105cbfbab1b13fbc9b407c67aec",
      "blockNumber": "0x26196ac",
      "gasUsed": "0x120fb",
      "effectiveGasPrice": "0xd8bad",
      "blobGasUsed": "0x8a61",
      "from": "0xe403f79171b7050c78479f52e49e753d43e72c1a",
      "to": "0xad473eaa51821c915d03d9db5349a0586d55e55e",
      "contractAddress": null,
      "daFootprintGasScalar": "0x145",
      "l1BaseFeeScalar": "0x8dd",
      "l1BlobBaseFee": "0x1798b9",
      "l1BlobBaseFeeScalar": "0x101c12",
      "l1Fee": "0x2ddec3f6",
      "l1GasPrice": "0x198e8d1",
      "l1GasUsed": "0x6da"
    },
    {
      "status": "0x1",
      "cumulativeGasUsed": "0xae9cf7",
      "logs": [
        {
          "address": "0xad473eaa51821c915d03d9db5349a0586d55e55e",
          "topics": [
            "0x36e13ba1e45df3ecb8f6beb6274a1f5d4abf4c0792bb56700354f0d50bf0acd7",
            "0x0000000000000000000000000000000000000000000000000000000000000020",
            "0x000000000000000000000000e403f79171b7050c78479f52e49e753d43e72c1a"
          ],
          "data": "0xfc6cc8976638831fc84ceab234894f532e0338e7268a3303d4c0c1939f85dbb90000000000000000000000000000000000000000000000000000000000000003000000000000000000000000000000000000000000000000000000000000006000000000000000000000000000000000000000000000000000000000000000043222000000000000000000000000000000000000000000000000000000000000",
          "blockHash": "0xb6612017106e67d6b2c10dddeeb6cd4b6444d105cbfbab1b13fbc9b407c67aec",
          "blockNumber": "0x26196ac",
          "blockTimestamp": "0x694d8a3b",
          "transactionHash": "0x7cbc51e8b441d16cfe6c04a725cc8313a3d3e6aa2ffe45dbc6ec980dda91d634",
          "transactionIndex": "0x52",
          "logIndex": "0x107",
          "removed": false
        },
        {
          "address": "0xad473eaa51821c915d03d9db5349a0586d55e55e",
          "topics": [
            "0x36e13ba1e45df3ecb8f6beb6274a1f5d4abf4c0792bb56700354f0d50bf0acd7",
            "0x0000000000000000000000000000000000000000000000000000000000000020",
            "0x000000000000000000000000ad473eaa51821c915d03d9db5349a0586d55e55e"
          ],
          "data": "0x0192d1e4a25acce6e7a2d4e8900eba6030b412ccc2d92d174c541b9d6055ff390000000000000000000000000000000000000000000000000000000000000004000000000000000000000000000000000000000000000000000000000000006000000000000000000000000000000000000000000000000000000000000000043c1b000000000000000000000000000000000000000000000000000000000000",
          "blockHash": "0xb6612017106e67d6b2c10dddeeb6cd4b6444d105cbfbab1b13fbc9b407c67aec",
          "blockNumber": "0x26196ac",
          "blockTimestamp": "0x694d8a3b",
          "transactionHash": "0x7cbc51e8b441d16cfe6c04a725cc8313a3d3e6aa2ffe45dbc6ec980dda91d634",
          "transactionIndex": "0x52",
          "logIndex": "0x108",
          "removed": false
        }
      ],
      "logsBloom": "0x00000000000000000000000000000000000000000000000000000000000400000000000000000000000000000000000000000000000000000000000000000000000000000000000000000000000000000000000010000000000000000000000000000000000000000000000000000040000000000400000000000000000000000000000000000000000000000200000000000000000000040002000000000000000404000000000000000000000000000000000000000000000000004000000000000000000000000000000000400000080000000000000000000000000800000000400000000000000000000000000000000000000000800000000000000000",
      "type": "0x2",
      "transactionHash": "0x7cbc51e8b441d16cfe6c04a725cc8313a3d3e6aa2ffe45dbc6ec980dda91d634",
      "transactionIndex": "0x52",
      "blockHash": "0xb6612017106e67d6b2c10dddeeb6cd4b6444d105cbfbab1b13fbc9b407c67aec",
      "blockNumber": "0x26196ac",
      "gasUsed": "0xd3f5",
      "effectiveGasPrice": "0xd8bad",
      "blobGasUsed": "0x8a61",
      "from": "0xe403f79171b7050c78479f52e49e753d43e72c1a",
      "to": "0xad473eaa51821c915d03d9db5349a0586d55e55e",
      "contractAddress": null,
      "daFootprintGasScalar": "0x145",
      "l1BaseFeeScalar": "0x8dd",
      "l1BlobBaseFee": "0x1798b9",
      "l1BlobBaseFeeScalar": "0x101c12",
      "l1Fee": "0x2ddec3f6",
      "l1GasPrice": "0x198e8d1",
      "l1GasUsed": "0x6da"
    },
    {
      "status": "0x1",
      "cumulativeGasUsed": "0xaf70ec",
      "logs": [
        {
          "address": "0xad473eaa51821c915d03d9db5349a0586d55e55e",
          "topics": [
            "0x36e13ba1e45df3ecb8f6beb6274a1f5d4abf4c0792bb56700354f0d50bf0acd7",
            "0x0000000000000000000000000000000000000000000000000000000000000020",
            "0x000000000000000000000000e403f79171b7050c78479f52e49e753d43e72c1a"
          ],
          "data": "0xbb9afb9861b8290cda948e4af3b636449a44547dca4c3acbc45e65f4e22aab400000000000000000000000000000000000000000000000000000000000000005000000000000000000000000000000000000000000000000000000000000006000000000000000000000000000000000000000000000000000000000000000043129000000000000000000000000000000000000000000000000000000000000",
          "blockHash": "0xb6612017106e67d6b2c10dddeeb6cd4b6444d105cbfbab1b13fbc9b407c67aec",
          "blockNumber": "0x26196ac",
          "blockTimestamp": "0x694d8a3b",
          "transactionHash": "0x960e61d2222263e3d8055af4009a3591f7eae2adca7ee1c07bc0c5914540ff80",
          "transactionIndex": "0x53",
          "logIndex": "0x109",
          "removed": false
        },
        {
          "address": "0xad473eaa51821c915d03d9db5349a0586d55e55e",
          "topics": [
            "0x36e13ba1e45df3ecb8f6beb6274a1f5d4abf4c0792bb56700354f0d50bf0acd7",
            "0x0000000000000000000000000000000000000000000000000000000000000020",
            "0x000000000000000000000000ad473eaa51821c915d03d9db5349a0586d55e55e"
          ],
          "data": "0x2760255e5f8c0d33599f68866f7b7bdd30ba831d73410b4548d9b6c2e2478d1c000000000000000000000000000000000000000000000000000000000000000600000000000000000000000000000000000000000000000000000000000000600000000000000000000000000000000000000000000000000000000000000004052b000000000000000000000000000000000000000000000000000000000000",
          "blockHash": "0xb6612017106e67d6b2c10dddeeb6cd4b6444d105cbfbab1b13fbc9b407c67aec",
          "blockNumber": "0x26196ac",
          "blockTimestamp": "0x694d8a3b",
          "transactionHash": "0x960e61d2222263e3d8055af4009a3591f7eae2adca7ee1c07bc0c5914540ff80",
          "transactionIndex": "0x53",
          "logIndex": "0x10a",
          "removed": false
        }
      ],
      "logsBloom": "0x00000000000000000000000000000000000000000000000000000000000400000000000000000000000000000000000000000000000000000000000000000000000000000000000000000000000000000000000010000000000000000000000000000000000000000000000000000040000000000400000000000000000000000000000000000000000000000200000000000000000000040002000000000000000404000000000000000000000000000000000000000000000000004000000000000000000000000000000000400000080000000000000000000000000800000000400000000000000000000000000000000000000000800000000000000000",
      "type": "0x2",
      "transactionHash": "0x960e61d2222263e3d8055af4009a3591f7eae2adca7ee1c07bc0c5914540ff80",
      "transactionIndex": "0x53",
      "blockHash": "0xb6612017106e67d6b2c10dddeeb6cd4b6444d105cbfbab1b13fbc9b407c67aec",
      "blockNumber": "0x26196ac",
      "gasUsed": "0xd3f5",
      "effectiveGasPrice": "0xd8bad",
      "blobGasUsed": "0x8a61",
      "from": "0xe403f79171b7050c78479f52e49e753d43e72c1a",
      "to": "0xad473eaa51821c915d03d9db5349a0586d55e55e",
      "contractAddress": null,
      "daFootprintGasScalar": "0x145",
      "l1BaseFeeScalar": "0x8dd",
      "l1BlobBaseFee": "0x1798b9",
      "l1BlobBaseFeeScalar": "0x101c12",
      "l1Fee": "0x2ddec3f6",
      "l1GasPrice": "0x198e8d1",
      "l1GasUsed": "0x6da"
    },
    {
      "status": "0x1",
      "cumulativeGasUsed": "0xb044e1",
      "logs": [
        {
          "address": "0xad473eaa51821c915d03d9db5349a0586d55e55e",
          "topics": [
            "0x36e13ba1e45df3ecb8f6beb6274a1f5d4abf4c0792bb56700354f0d50bf0acd7",
            "0x0000000000000000000000000000000000000000000000000000000000000020",
            "0x000000000000000000000000e403f79171b7050c78479f52e49e753d43e72c1a"
          ],
          "data": "0x2a4b22ea265f7017c3f5040f1eec7d58baac29eda24dc699336157972973d8e10000000000000000000000000000000000000000000000000000000000000007000000000000000000000000000000000000000000000000000000000000006000000000000000000000000000000000000000000000000000000000000000043a2b000000000000000000000000000000000000000000000000000000000000",
          "blockHash": "0xb6612017106e67d6b2c10dddeeb6cd4b6444d105cbfbab1b13fbc9b407c67aec",
          "blockNumber": "0x26196ac",
          "blockTimestamp": "0x694d8a3b",
          "transactionHash": "0xcf5d3b63e4616eb8cebdee691a8da9a20cef09cab3ddaaf70d1d05dab3d093aa",
          "transactionIndex": "0x54",
          "logIndex": "0x10b",
          "removed": false
        },
        {
          "address": "0xad473eaa51821c915d03d9db5349a0586d55e55e",
          "topics": [
            "0x36e13ba1e45df3ecb8f6beb6274a1f5d4abf4c0792bb56700354f0d50bf0acd7",
            "0x0000000000000000000000000000000000000000000000000000000000000020",
            "0x000000000000000000000000ad473eaa51821c915d03d9db5349a0586d55e55e"
          ],
          "data": "0x55f26890947882f1207e2a875a0d392857a077e9af9ea320f39541f65d9244dd0000000000000000000000000000000000000000000000000000000000000008000000000000000000000000000000000000000000000000000000000000006000000000000000000000000000000000000000000000000000000000000000042818000000000000000000000000000000000000000000000000000000000000",
          "blockHash": "0xb6612017106e67d6b2c10dddeeb6cd4b6444d105cbfbab1b13fbc9b407c67aec",
          "blockNumber": "0x26196ac",
          "blockTimestamp": "0x694d8a3b",
          "transactionHash": "0xcf5d3b63e4616eb8cebdee691a8da9a20cef09cab3ddaaf70d1d05dab3d093aa",
          "transactionIndex": "0x54",
          "logIndex": "0x10c",
          "removed": false
        }
      ],
      "logsBloom": "0x00000000000000000000000000000000000000000000000000000000000400000000000000000000000000000000000000000000000000000000000000000000000000000000000000000000000000000000000010000000000000000000000000000000000000000000000000000040000000000400000000000000000000000000000000000000000000000200000000000000000000040002000000000000000404000000000000000000000000000000000000000000000000004000000000000000000000000000000000400000080000000000000000000000000800000000400000000000000000000000000000000000000000800000000000000000",
      "type": "0x2",
      "transactionHash": "0xcf5d3b63e4616eb8cebdee691a8da9a20cef09cab3ddaaf70d1d05dab3d093aa",
      "transactionIndex": "0x54",
      "blockHash": "0xb6612017106e67d6b2c10dddeeb6cd4b6444d105cbfbab1b13fbc9b407c67aec",
      "blockNumber": "0x26196ac",
      "gasUsed": "0xd3f5",
      "effectiveGasPrice": "0xd8bad",
      "blobGasUsed": "0x8a61",
      "from": "0xe403f79171b7050c78479f52e49e753d43e72c1a",
      "to": "0xad473eaa51821c915d03d9db5349a0586d55e55e",
      "contractAddress": null,
      "daFootprintGasScalar": "0x145",
      "l1BaseFeeScalar": "0x8dd",
      "l1BlobBaseFee": "0x1798b9",
      "l1BlobBaseFeeScalar": "0x101c12",
      "l1Fee": "0x2ddec3f6",
      "l1GasPrice": "0x198e8d1",
      "l1GasUsed": "0x6da"
    }
  ],
  "libraries": [],
  "pending": [],
  "returns": {},
  "timestamp": 1766689339712,
  "chain": 8453,
  "commit": "1b5b336"
}