{
  "transactions": [
    {
      "hash": "0xa621f0617fa8c2dc5f264ea457606e34a18ed4abb457b1b6df1cb0edbf86ab89",
      "transactionType": "CALL",
      "contractName": null,
      "contractAddress": "0xad473eaa51821c915d03d9db5349a0586d55e55e",
      "function": "createMatch(uint8,uint8,address,uint256,bytes32)",
      "arguments": [
        "1",
        "0",
        "0x0000000000000000000000000000000000000000",
        "0",
        "0x3608f503d624b47779fba399a097e68bc35cdbd22fcf04e3d6b7a3bd8fa9b746"
      ],
      "transaction": {
        "from": "0xe403f79171b7050c78479f52e49e753d43e72c1a",
        "to": "0xad473eaa51821c915d03d9db5349a0586d55e55e",
        "gas": "0x52a7d",
        "value": "0x0",
        "input": "0xea994fab00000000000000000000000000000000000000000000000000000000000000010000000000000000000000000000000000000000000000000000000000000000000000000000000000000000000000000000000000000000000000000000000000000000000000000000000000000000000000000000000000000000000000003608f503d624b47779fba399a097e68bc35cdbd22fcf04e3d6b7a3bd8fa9b746",
        "nonce": "0x303",
        "chainId": "0x2105"
      },
      "additionalContracts": [],
      "isFixedGasLimit": false
    },
    {
      "hash": "0x922d649928ba151a0bcc5c3a4836d61a0ad25cfd4d862cc1e6684837fef675bc",
      "transactionType": "CALL",
      "contractName": null,
      "contractAddress": "0xad473eaa51821c915d03d9db5349a0586d55e55e",
      "function": "createMatch(uint8,uint8,address,uint256,bytes32)",
      "arguments": [
        "1",
        "0",
        "0x0000000000000000000000000000000000000000",
        "0",
        "0x3608f503d624b47779fba399a097e68bc35cdbd22fcf04e3d6b7a3bd8fa9b746"
      ],
      "transaction": {
        "from": "0xe403f79171b7050c78479f52e49e753d43e72c1a",
        "to": "0xad473eaa51821c915d03d9db5349a0586d55e55e",
        "gas": "0x52a7d",
        "value": "0x0",
        "input": "0xea994fab00000000000000000000000000000000000000000000000000000000000000010000000000000000000000000000000000000000000000000000000000000000000000000000000000000000000000000000000000000000000000000000000000000000000000000000000000000000000000000000000000000000000000003608f503d624b47779fba399a097e68bc35cdbd22fcf04e3d6b7a3bd8fa9b746",
        "nonce": "0x304",
        "chainId": "0x2105"
      },
      "additionalContracts": [],
      "isFixedGasLimit": false
    },
    {
      "hash": "0x996fce0972d3c48eb911d5440274e90474129c233cf5d56e14b356f1e631cedf",
      "transactionType": "CALL",
      "contractName": null,
      "contractAddress": "0xad473eaa51821c915d03d9db5349a0586d55e55e",
      "function": "createMatch(uint8,uint8,address,uint256,bytes32)",
      "arguments": [
        "1",
        "0",
        "0x0000000000000000000000000000000000000000",
        "0",
        "0x3608f503d624b47779fba399a097e68bc35cdbd22fcf04e3d6b7a3bd8fa9b746"
      ],
      "transaction": {
        "from": "0xe403f79171b7050c78479f52e49e753d43e72c1a",
        "to": "0xad473eaa51821c915d03d9db5349a0586d55e55e",
        "gas": "0x52a7d",
        "value": "0x0",
        "input": "0xea994fab00000000000000000000000000000000000000000000000000000000000000010000000000000000000000000000000000000000000000000000000000000000000000000000000000000000000000000000000000000000000000000000000000000000000000000000000000000000000000000000000000000000000000003608f503d624b47779fba399a097e68bc35cdbd22fcf04e3d6b7a3bd8fa9b746",
        "nonce": "0x305",
        "chainId": "0x2105"
      },
      "additionalContracts": [],
      "isFixedGasLimit": false
    },
    {
      "hash": "0x5c80df6583cc4f998d47d433e513d1a1ac86c50ca1c1ecb7ee8417f2912cf8fc",
      "transactionType": "CALL",
      "contractName": null,
      "contractAddress": "0xad473eaa51821c915d03d9db5349a0586d55e55e",
      "function": "createMatch(uint8,uint8,address,uint256,bytes32)",
      "arguments": [
        "1",
        "0",
        "0x0000000000000000000000000000000000000000",
        "0",
        "0x3608f503d624b47779fba399a097e68bc35cdbd22fcf04e3d6b7a3bd8fa9b746"
      ],
      "transaction": {
        "from": "0xe403f79171b7050c78479f52e49e753d43e72c1a",
        "to": "0xad473eaa51821c915d03d9db5349a0586d55e55e",
        "gas": "0x52a7d",
        "value": "0x0",
        "input": "0xea994fab00000000000000000000000000000000000000000000000000000000000000010000000000000000000000000000000000000000000000000000000000000000000000000000000000000000000000000000000000000000000000000000000000000000000000000000000000000000000000000000000000000000000000003608f503d624b47779fba399a097e68bc35cdbd22fcf04e3d6b7a3bd8fa9b746",
        "nonce": "0x306",
        "chainId": "0x2105"
      },
      "additionalContracts": [],
      "isFixedGasLimit": false
    },
    {
      "hash": "0x13a02b95cd9a09a618d65142ff5feb02d1c558a71b0ea65c6e000146b529413f",
      "transactionType": "CALL",
      "contractName": null,
      "contractAddress": "0xad473eaa51821c915d03d9db5349a0586d55e55e",
      "function": "createMatch(uint8,uint8,address,uint256,bytes32)",
      "arguments": [
        "1",
        "0",
        "0x0000000000000000000000000000000000000000",
        "0",
        "0x3608f503d624b47779fba399a097e68bc35cdbd22fcf04e3d6b7a3bd8fa9b746"
      ],
      "transaction": {
        "from": "0xe403f79171b7050c78479f52e49e753d43e72c1a",
        "to": "0xad473eaa51821c915d03d9db5349a0586d55e55e",
        "gas": "0x52a7d",
        "value": "0x0",
        "input": "0xea994fab00000000000000000000000000000000000000000000000000000000000000010000000000000000000000000000000000000000000000000000000000000000000000000000000000000000000000000000000000000000000000000000000000000000000000000000000000000000000000000000000000000000000000003608f503d624b47779fba399a097e68bc35cdbd22fcf04e3d6b7a3bd8fa9b746",
        "nonce": "0x307",
        "chainId": "0x2105"
      },
      "additionalContracts": [],
      "isFixedGasLimit": false
    },
    {
      "hash": "0x5df7d306268df451bc4ab38c6f8b62d09113b92e9e5415130f0050b8b19fdba2",
      "transactionType": "CALL",
      "contractName": null,
      "contractAddress": "0xad473eaa51821c915d03d9db5349a0586d55e55e",
      "function": "createMatch(uint8,uint8,address,uint256,bytes32)",
      "arguments": [
        "1",
        "0",
        "0x0000000000000000000000000000000000000000",
        "0",
        "0x3608f503d624b47779fba399a097e68bc35cdbd22fcf04e3d6b7a3bd8fa9b746"
      ],
      "transaction": {
        "from": "0xe403f79171b7050c78479f52e49e753d43e72c1a",
        "to": "0xad473eaa51821c915d03d9db5349a0586d55e55e",
        "gas": "0x52a7d",
        "value": "0x0",
        "input": "0xea994fab00000000000000000000000000000000000000000000000000000000000000010000000000000000000000000000000000000000000000000000000000000000000000000000000000000000000000000000000000000000000000000000000000000000000000000000000000000000000000000000000000000000000000003608f503d624b47779fba399a097e68bc35cdbd22fcf04e3d6b7a3bd8fa9b746",
        "nonce": "0x308",
        "chainId": "0x2105"
      },
      "additionalContracts": [],
      "isFixedGasLimit": false
    },
    {
      "hash": "0xd8162a7104dce17421c89d12b7d10815e17343fe286d3a0847cbafa3774b1fae",
      "transactionType": "CALL",
      "contractName": null,
      "contractAddress": "0xad473eaa51821c915d03d9db5349a0586d55e55e",
      "function": "createMatch(uint8,uint8,address,uint256,bytes32)",
      "arguments": [
        "1",
        "0",
        "0x0000000000000000000000000000000000000000",
        "0",
        "0x3608f503d624b47779fba399a097e68bc35cdbd22fcf04e3d6b7a3bd8fa9b746"
      ],
      "transaction": {
        "from": "0xe403f79171b7050c78479f52e49e753d43e72c1a",
        "to": "0xad473eaa51821c915d03d9db5349a0586d55e55e",
        "gas": "0x52a7d",
        "value": "0x0",
        "input": "0xea994fab00000000000000000000000000000000000000000000000000000000000000010000000000000000000000000000000000000000000000000000000000000000000000000000000000000000000000000000000000000000000000000000000000000000000000000000000000000000000000000000000000000000000000003608f503d624b47779fba399a097e68bc35cdbd22fcf04e3d6b7a3bd8fa9b746",
        "nonce": "0x309",
        "chainId": "0x2105"
      },
      "additionalContracts": [],
      "isFixedGasLimit": false
    },
    {
      "hash": "0xb4c1f26a5e8d68ea218c0787334a4338719c456c730e61671797d9f2007e4aad",
      "transactionType": "CALL",
      "contractName": null,
      "contractAddress": "0xad473eaa51821c915d03d9db5349a0586d55e55e",
      "function": "createMatch(uint8,uint8,address,uint256,bytes32)",
      "arguments": [
        "1",
        "0",
        "0x0000000000000000000000000000000000000000",
        "0",
        "0x3608f503d624b47779fba399a097e68bc35cdbd22fcf04e3d6b7a3bd8fa9b746"
      ],
      "transaction": {
        "from": "0xe403f79171b7050c78479f52e49e753d43e72c1a",
        "to": "0xad473eaa51821c915d03d9db5349a0586d55e55e",
        "gas": "0x52a7d",
        "value": "0x0",
        "input": "0xea994fab00000000000000000000000000000000000000000000000000000000000000010000000000000000000000000000000000000000000000000000000000000000000000000000000000000000000000000000000000000000000000000000000000000000000000000000000000000000000000000000000000000000000000003608f503d624b47779fba399a097e68bc35cdbd22fcf04e3d6b7a3bd8fa9b746",
        "nonce": "0x30a",
        "chainId": "0x2105"
      },
      "additionalContracts": [],
      "isFixedGasLimit": false
    },
    {
      "hash": "0x6b9505813aea6218e4b02cfe9f2f254814f80fdd7fa04e25484fbef5c72f7784",
      "transactionType": "CALL",
      "contractName": null,
      "contractAddress": "0xad473eaa51821c915d03d9db5349a0586d55e55e",
      "function": "submitMove(uint256,bytes32,bytes)",
      "arguments": [
        "17",
        "0xe8773807ffd17108aa2d132cec684352f2c5c8337ff4659cc010d15b0551847d",
        "0x34240000"
      ],
      "transaction": {
        "from": "0xe403f79171b7050c78479f52e49e753d43e72c1a",
        "to": "0xad473eaa51821c915d03d9db5349a0586d55e55e",
        "gas": "0x1801c",
        "value": "0x0",
        "input": "0x73b07f890000000000000000000000000000000000000000000000000000000000000011e8773807ffd17108aa2d132cec684352f2c5c8337ff4659cc010d15b0551847d000000000000000000000000000000000000000000000000000000000000006000000000000000000000000000000000000000000000000000000000000000043424000000000000000000000000000000000000000000000000000000000000",
        "nonce": "0x30b",
        "chainId": "0x2105"
      },
      "additionalContracts": [],
      "isFixedGasLimit": false
    },
    {
      "hash": "0xdf2a4eb01ba247633c65d46ad5acd49e2c58ce3d64f69d92bb149f53e73368b4",
      "transactionType": "CALL",
      "contractName": null,
      "contractAddress": "0xad473eaa51821c915d03d9db5349a0586d55e55e",
      "function": "submitMove(uint256,bytes32,bytes)",
      "arguments": [
        "17",
        "0x0692c63251d62c8f04eed454cc75e5bc199ba842e6b8106095e5d806a5e48cfa",
        "0x33230000"
      ],
      "transaction": {
        "from": "0xe403f79171b7050c78479f52e49e753d43e72c1a",
        "to": "0xad473eaa51821c915d03d9db5349a0586d55e55e",
        "gas": "0x124c3",
        "value": "0x0",
        "input": "0x73b07f8900000000000000000000000000000000000000000000000000000000000000110692c63251d62c8f04eed454cc75e5bc199ba842e6b8106095e5d806a5e48cfa000000000000000000000000000000000000000000000000000000000000006000000000000000000000000000000000000000000000000000000000000000043323000000000000000000000000000000000000000000000000000000000000",
        "nonce": "0x30c",
        "chainId": "0x2105"
      },
      "additionalContracts": [],
      "isFixedGasLimit": false
    },
    {
      "hash": "0x92db79c07aef6c9d6860887baabfefbb277c515643d22f0e58b9ac241944fdc5",
      "transactionType": "CALL",
      "contractName": null,
      "contractAddress": "0xad473eaa51821c915d03d9db5349a0586d55e55e",
      "function": "submitMove(uint256,bytes32,bytes)",
      "arguments": [
        "17",
        "0x4442d021ec118fea7ce3641d3375363801af2e92adb1272f726cf20292795a62",
        "0x392a0000"
      ],
      "transaction": {
        "from": "0xe403f79171b7050c78479f52e49e753d43e72c1a",
        "to": "0xad473eaa51821c915d03d9db5349a0586d55e55e",
        "gas": "0x124c3",
        "value": "0x0",
        "input": "0x73b07f8900000000000000000000000000000000000000000000000000000000000000114442d021ec118fea7ce3641d3375363801af2e92adb1272f726cf20292795a6200000000000000000000000000000000000000000000000000000000000000600000000000000000000000000000000000000000000000000000000000000004392a000000000000000000000000000000000000000000000000000000000000",
        "nonce": "0x30d",
        "chainId": "0x2105"
      },
      "additionalContracts": [],
      "isFixedGasLimit": false
    },
    {
      "hash": "0x0498afc9ee499cf6614d018b5d8fb30791cbf74144857b50d171bcf20744809e",
      "transactionType": "CALL",
      "contractName": null,
      "contractAddress": "0xad473eaa51821c915d03d9db5349a0586d55e55e",
      "function": "submitMove(uint256,bytes32,bytes)",
      "arguments": [
        "17",
        "0xc7183fc0754b5e7da3b74bf364f8affe59ffdf73627f9b8e7d4991d4453bd364",
        "0x3b2c0000"
      ],
      "transaction": {
        "from": "0xe403f79171b7050c78479f52e49e753d43e72c1a",
        "to": "0xad473eaa51821c915d03d9db5349a0586d55e55e",
        "gas": "0x124c3",
        "value": "0x0",
        "input": "0x73b07f890000000000000000000000000000000000000000000000000000000000000011c7183fc0754b5e7da3b74bf364f8affe59ffdf73627f9b8e7d4991d4453bd364000000000000000000000000000000000000000000000000000000000000006000000000000000000000000000000000000000000000000000000000000000043b2c000000000000000000000000000000000000000000000000000000000000",
        "nonce": "0x30e",
        "chainId": "0x2105"
      },
      "additionalContracts": [],
      "isFixedGasLimit": false
    },
    {
      "hash": "0x60e6bb517ff83f26d981df2f9496b5c614ea05b44e85a5cd7620ec717f3f3a85",
      "transactionType": "CALL",
      "contractName": null,
      "contractAddress": "0xad473eaa51821c915d03d9db5349a0586d55e55e",
      "function": "submitMove(uint256,bytes32,bytes)",
      "arguments": [
        "18",
        "0x90e396633e67bfb131a9c9b400ea842e0f29f45c4bc7872a0e80af48deb78504",
        "0x30280000"
      ],
      "transaction": {
        "from": "0xe403f79171b7050c78479f52e49e753d43e72c1a",
        "to": "0xad473eaa51821c915d03d9db5349a0586d55e55e",
        "gas": "0x196a2",
        "value": "0x0",
        "input": "0x73b07f89000000000000000000000000000000000000000000000000000000000000001290e396633e67bfb131a9c9b400ea842e0f29f45c4bc7872a0e80af48deb78504000000000000000000000000000000000000000000000000000000000000006000000000000000000000000000000000000000000000000000000000000000043028000000000000000000000000000000000000000000000000000000000000",
        "nonce": "0x30f",
        "chainId": "0x2105"
      },
      "additionalContracts": [],
      "isFixedGasLimit": false
    },
    {
      "hash": "0x852789dd9643f76c2e62594f04ed818c2e31de419cfda46989a564fb89cdfba5",
      "transactionType": "CALL",
      "contractName": null,
      "contractAddress": "0xad473eaa51821c915d03d9db5349a0586d55e55e",
      "function": "submitMove(uint256,bytes32,bytes)",
      "arguments": [
        "18",
        "0xfc6cc8976638831fc84ceab234894f532e0338e7268a3303d4c0c1939f85dbb9",
        "0x32220000"
      ],
      "transaction": {
        "from": "0xe403f79171b7050c78479f52e49e753d43e72c1a",
        "to": "0xad473eaa51821c915d03d9db5349a0586d55e55e",
        "gas": "0x124c3",
        "value": "0x0",
        "input": "0x73b07f890000000000000000000000000000000000000000000000000000000000000012fc6cc8976638831fc84ceab234894f532e0338e7268a3303d4c0c1939f85dbb9000000000000000000000000000000000000000000000000000000000000006000000000000000000000000000000000000000000000000000000000000000043222000000000000000000000000000000000000000000000000000000000000",
        "nonce": "0x310",
        "chainId": "0x2105"
      },
      "additionalContracts": [],
      "isFixedGasLimit": false
    },
    {
      "hash": "0x7f5f92a77da1a5ef685a28cfb073c40e72c7f4dc880f1fa0b687f2ec1117835b",
      "transactionType": "CALL",
      "contractName": null,
      "contractAddress": "0xad473eaa51821c915d03d9db5349a0586d55e55e",
      "function": "submitMove(uint256,bytes32,bytes)",
      "arguments": [
        "18",
        "0xbb9afb9861b8290cda948e4af3b636449a44547dca4c3acbc45e65f4e22aab40",
        "0x31290000"
      ],
      "transaction": {
        "from": "0xe403f79171b7050c78479f52e49e753d43e72c1a",
        "to": "0xad473eaa51821c915d03d9db5349a0586d55e55e",
        "gas": "0x124c3",
        "value": "0x0",
        "input": "0x73b07f890000000000000000000000000000000000000000000000000000000000000012bb9afb9861b8290cda948e4af3b636449a44547dca4c3acbc45e65f4e22aab40000000000000000000000000000000000000000000000000000000000000006000000000000000000000000000000000000000000000000000000000000000043129000000000000000000000000000000000000000000000000000000000000",
        "nonce": "0x311",
        "chainId": "0x2105"
      },
      "additionalContracts": [],
      "isFixedGasLimit": false
    },
    {
      "hash": "0x0eee03ae05e8dd4dd3d9c5bb74ab155579856ed9fb677b42adf619c3db64c367",
      "transactionType": "CALL",
      "contractName": null,
      "contractAddress": "0xad473eaa51821c915d03d9db5349a0586d55e55e",
      "function": "submitMove(uint256,bytes32,bytes)",
      "arguments": [
        "18",
        "0x2a4b22ea265f7017c3f5040f1eec7d58baac29eda24dc699336157972973d8e1",
        "0x3a2b0000"
      ],
      "transaction": {
        "from": "0xe403f79171b7050c78479f52e49e753d43e72c1a",
        "to": "0xad473eaa51821c915d03d9db5349a0586d55e55e",
        "gas": "0x124c3",
        "value": "0x0",
        "input": "0x73b07f8900000000000000000000000000000000000000000000000000000000000000122a4b22ea265f7017c3f5040f1eec7d58baac29eda24dc699336157972973d8e1000000000000000000000000000000000000000000000000000000000000006000000000000000000000000000000000000000000000000000000000000000043a2b000000000000000000000000000000000000000000000000000000000000",
        "nonce": "0x312",
        "chainId": "0x2105"
      },
      "additionalContracts": [],
      "isFixedGasLimit": false
    },
    {
      "hash": "0xf978878fb8a15a819cecd48622207bf07393994412f1632fd99e2a7e850fdfae",
      "transactionType": "CALL",
      "contractName": null,
      "contractAddress": "0xad473eaa51821c915d03d9db5349a0586d55e55e",
      "function": "submitMove(uint256,bytes32,bytes)",
      "arguments": [
        "19",
        "0xe8773807ffd17108aa2d132cec684352f2c5c8337ff4659cc010d15b0551847d",
        "0x34240000"
      ],
      "transaction": {
        "from": "0xe403f79171b7050c78479f52e49e753d43e72c1a",
        "to": "0xad473eaa51821c915d03d9db5349a0586d55e55e",
        "gas": "0x1801c",
        "value": "0x0",
        "input": "0x73b07f890000000000000000000000000000000000000000000000000000000000000013e8773807ffd17108aa2d132cec684352f2c5c8337ff4659cc010d15b0551847d000000000000000000000000000000000000000000000000000000000000006000000000000000000000000000000000000000000000000000000000000000043424000000000000000000000000000000000000000000000000000000000000",
        "nonce": "0x313",
        "chainId": "0x2105"
      },
      "additionalContracts": [],
      "isFixedGasLimit": false
    },
    {
      "hash": "0x9a39b5ee54dd7afa9970339dba88f862bd9502585421fa184611d8a9d8519196",
      "transactionType": "CALL",
      "contractName": null,
      "contractAddress": "0xad473eaa51821c915d03d9db5349a0586d55e55e",
      "function": "submitMove(uint256,bytes32,bytes)",
      "arguments": [
        "19",
        "0x0692c63251d62c8f04eed454cc75e5bc199ba842e6b8106095e5d806a5e48cfa",
        "0x33230000"
      ],
      "transaction": {
        "from": "0xe403f79171b7050c78479f52e49e753d43e72c1a",
        "to": "0xad473eaa51821c915d03d9db5349a0586d55e55e",
        "gas": "0x124c3",
        "value": "0x0",
        "input": "0x73b07f8900000000000000000000000000000000000000000000000000000000000000130692c63251d62c8f04eed454cc75e5bc199ba842e6b8106095e5d806a5e48cfa000000000000000000000000000000000000000000000000000000000000006000000000000000000000000000000000000000000000000000000000000000043323000000000000000000000000000000000000000000000000000000000000",
        "nonce": "0x314",
        "chainId": "0x2105"
      },
      "additionalContracts": [],
      "isFixedGasLimit": false
    },
    {
      "hash": "0x6725f10d8e0c9e466bd96bddc22e45bf9e6e98bcee906f9bbab198ea73f2ba24",
      "transactionType": "CALL",
      "contractName": null,
      "contractAddress": "0xad473eaa51821c915d03d9db5349a0586d55e55e",
      "function": "submitMove(uint256,bytes32,bytes)",
      "arguments": [
        "19",
        "0x4442d021ec118fea7ce3641d3375363801af2e92adb1272f726cf20292795a62",
        "0x392a0000"
      ],
      "transaction": {
        "from": "0xe403f79171b7050c78479f52e49e753d43e72c1a",
        "to": "0xad473eaa51821c915d03d9db5349a0586d55e55e",
        "gas": "0x124c3",
        "value": "0x0",
        "input": "0x73b07f8900000000000000000000000000000000000000000000000000000000000000134442d021ec118fea7ce3641d3375363801af2e92adb1272f726cf20292795a6200000000000000000000000000000000000000000000000000000000000000600000000000000000000000000000000000000000000000000000000000000004392a000000000000000000000000000000000000000000000000000000000000",
        "nonce": "0x315",
        "chainId": "0x2105"
      },
      "additionalContracts": [],
      "isFixedGasLimit": false
    },
    {
      "hash": "0x96d9dbee61763556e4af6c417a32a26785b1918187065bff2f861139929dbb54",
      "transactionType": "CALL",
      "contractName": null,
      "contractAddress": "0xad473eaa51821c915d03d9db5349a0586d55e55e",
      "function": "submitMove(uint256,bytes32,bytes)",
      "arguments": [
        "19",
        "0xc7183fc0754b5e7da3b74bf364f8affe59ffdf73627f9b8e7d4991d4453bd364",
        "0x3b2c0000"
      ],
      "transaction": {
        "from": "0xe403f79171b7050c78479f52e49e753d43e72c1a",
        "to": "0xad473eaa51821c915d03d9db5349a0586d55e55e",
        "gas": "0x124c3",
        "value": "0x0",
        "input": "0x73b07f890000000000000000000000000000000000000000000000000000000000000013c7183fc0754b5e7da3b74bf364f8affe59ffdf73627f9b8e7d4991d4453bd364000000000000000000000000000000000000000000000000000000000000006000000000000000000000000000000000000000000000000000000000000000043b2c000000000000000000000000000000000000000000000000000000000000",
        "nonce": "0x316",
        "chainId": "0x2105"
      },
      "additionalContracts": [],
      "isFixedGasLimit": false
    },
    {
      "hash": "0x7d140833866f19466715553af6d440021ef4528dcabf6e1db8e46f7f1e96a227",
      "transactionType": "CALL",
      "contractName": null,
      "contractAddress": "0xad473eaa51821c915d03d9db5349a0586d55e55e",
      "function": "submitMove(uint256,bytes32,bytes)",
      "arguments": [
        "20",
        "0x90e396633e67bfb131a9c9b400ea842e0f29f45c4bc7872a0e80af48deb78504",
        "0x30280000"
      ],
      "transaction": {
        "from": "0xe403f79171b7050c78479f52e49e753d43e72c1a",
        "to": "0xad473eaa51821c915d03d9db5349a0586d55e55e",
        "gas": "0x196a2",
        "value": "0x0",
        "input": "0x73b07f89000000000000000000000000000000000000000000000000000000000000001490e396633e67bfb131a9c9b400ea842e0f29f45c4bc7872a0e80af48deb78504000000000000000000000000000000000000000000000000000000000000006000000000000000000000000000000000000000000000000000000000000000043028000000000000000000000000000000000000000000000000000000000000",
        "nonce": "0x317",
        "chainId": "0x2105"
      },
      "additionalContracts": [],
      "isFixedGasLimit": false
    },
    {
      "hash": "0xc2907d8eae98fcfa6ab9b856d608d136e66d0b0bcb75d67583d5732f60abddc5",
      "transactionType": "CALL",
      "contractName": null,
      "contractAddress": "0xad473eaa51821c915d03d9db5349a0586d55e55e",
      "function": "submitMove(uint256,bytes32,bytes)",
      "arguments": [
        "20",
        "0xfc6cc8976638831fc84ceab234894f532e0338e7268a3303d4c0c1939f85dbb9",
        "0x32220000"
      ],
      "transaction": {
        "from": "0xe403f79171b7050c78479f52e49e753d43e72c1a",
        "to": "0xad473eaa51821c915d03d9db5349a0586d55e55e",
        "gas": "0x124c3",
        "value": "0x0",
        "input": "0x73b07f890000000000000000000000000000000000000000000000000000000000000014fc6cc8976638831fc84ceab234894f532e0338e7268a3303d4c0c1939f85dbb9000000000000000000000000000000000000000000000000000000000000006000000000000000000000000000000000000000000000000000000000000000043222000000000000000000000000000000000000000000000000000000000000",
        "nonce": "0x318",
        "chainId": "0x2105"
      },
      "additionalContracts": [],
      "isFixedGasLimit": false
    },
    {
      "hash": "0xbea8ffc49c0b91b3430ea3fef18ce67f85d831d9661db21c50513a8bb3cef4bd",
      "transactionType": "CALL",
      "contractName": null,
      "contractAddress": "0xad473eaa51821c915d03d9db5349a0586d55e55e",
      "function": "submitMove(uint256,bytes32,bytes)",
      "arguments": [
        "20",
        "0xbb9afb9861b8290cda948e4af3b636449a44547dca4c3acbc45e65f4e22aab40",
        "0x31290000"
      ],
      "transaction": {
        "from": "0xe403f79171b7050c78479f52e49e753d43e72c1a",
        "to": "0xad473eaa51821c915d03d9db5349a0586d55e55e",
        "gas": "0x124c3",
        "value": "0x0",
        "input": "0x73b07f890000000000000000000000000000000000000000000000000000000000000014bb9afb9861b8290cda948e4af3b636449a44547dca4c3acbc45e65f4e22aab40000000000000000000000000000000000000000000000000000000000000006000000000000000000000000000000000000000000000000000000000000000043129000000000000000000000000000000000000000000000000000000000000",
        "nonce": "0x319",
        "chainId": "0x2105"
      },
      "additionalContracts": [],
      "isFixedGasLimit": false
    },
    {
      "hash": "0x28d841aea4ae4b47575084ccb21b09579b849c77f89fec85a961e287643a988e",
      "transactionType": "CALL",
      "contractName": null,
      "contractAddress": "0xad473eaa51821c915d03d9db5349a0586d55e55e",
      "function": "submitMove(uint256,bytes32,bytes)",
      "arguments": [
        "20",
        "0x2a4b22ea265f7017c3f5040f1eec7d58baac29eda24dc699336157972973d8e1",
        "0x3a2b0000"
      ],
      "transaction": {
        "from": "0xe403f79171b7050c78479f52e49e753d43e72c1a",
        "to": "0xad473eaa51821c915d03d9db5349a0586d55e55e",
        "gas": "0x124c3",
        "value": "0x0",
        "input": "0x73b07f8900000000000000000000000000000000000000000000000000000000000000142a4b22ea265f7017c3f5040f1eec7d58baac29eda24dc699336157972973d8e1000000000000000000000000000000000000000000000000000000000000006000000000000000000000000000000000000000000000000000000000000000043a2b000000000000000000000000000000000000000000000000000000000000",
        "nonce": "0x31a",
        "chainId": "0x2105"
      },
      "additionalContracts": [],
      "isFixedGasLimit": false
    },
    {
      "hash": "0x5cba04cc077c83d77331061408533d4bc9f81b94bb9611ffe809789055ddd717",
      "transactionType": "CALL",
      "contractName": null,
      "contractAddress": "0xad473eaa51821c915d03d9db5349a0586d55e55e",
      "function": "submitMove(uint256,bytes32,bytes)",
      "arguments": [
        "21",
        "0xe8773807ffd17108aa2d132cec684352f2c5c8337ff4659cc010d15b0551847d",
        "0x34240000"
      ],
      "transaction": {
        "from": "0xe403f79171b7050c78479f52e49e753d43e72c1a",
        "to": "0xad473eaa51821c915d03d9db5349a0586d55e55e",
        "gas": "0x1801c",
        "value": "0x0",
        "input": "0x73b07f890000000000000000000000000000000000000000000000000000000000000015e8773807ffd17108aa2d132cec684352f2c5c8337ff4659cc010d15b0551847d000000000000000000000000000000000000000000000000000000000000006000000000000000000000000000000000000000000000000000000000000000043424000000000000000000000000000000000000000000000000000000000000",
        "nonce": "0x31b",
        "chainId": "0x2105"
      },
      "additionalContracts": [],
      "isFixedGasLimit": false
    },
    {
      "hash": "0xd4c03f7356458675b3456cf05258c164ec049e18fd10c24f4d3abf764e3fec41",
      "transactionType": "CALL",
      "contractName": null,
      "contractAddress": "0xad473eaa51821c915d03d9db5349a0586d55e55e",
      "function": "submitMove(uint256,bytes32,bytes)",
      "arguments": [
        "21",
        "0x0692c63251d62c8f04eed454cc75e5bc199ba842e6b8106095e5d806a5e48cfa",
        "0x33230000"
      ],
      "transaction": {
        "from": "0xe403f79171b7050c78479f52e49e753d43e72c1a",
        "to": "0xad473eaa51821c915d03d9db5349a0586d55e55e",
        "gas": "0x124c3",
        "value": "0x0",
        "input": "0x73b07f8900000000000000000000000000000000000000000000000000000000000000150692c63251d62c8f04eed454cc75e5bc199ba842e6b8106095e5d806a5e48cfa000000000000000000000000000000000000000000000000000000000000006000000000000000000000000000000000000000000000000000000000000000043323000000000000000000000000000000000000000000000000000000000000",
        "nonce": "0x31c",
        "chainId": "0x2105"
      },
      "additionalContracts": [],
      "isFixedGasLimit": false
    },
    {
      "hash": "0xd021c7a00c48ddf7d95ab6ccc7fdf06edef2df3bf453479452c0b02cab5e1717",
      "transactionType": "CALL",
      "contractName": null,
      "contractAddress": "0xad473eaa51821c915d03d9db5349a0586d55e55e",
      "function": "submitMove(uint256,bytes32,bytes)",
      "arguments": [
        "21",
        "0x4442d021ec118fea7ce3641d3375363801af2e92adb1272f726cf20292795a62",
        "0x392a0000"
      ],
      "transaction": {
        "from": "0xe403f79171b7050c78479f52e49e753d43e72c1a",
        "to": "0xad473eaa51821c915d03d9db5349a0586d55e55e",
        "gas": "0x124c3",
        "value": "0x0",
        "input": "0x73b07f8900000000000000000000000000000000000000000000000000000000000000154442d021ec118fea7ce3641d3375363801af2e92adb1272f726cf20292795a6200000000000000000000000000000000000000000000000000000000000000600000000000000000000000000000000000000000000000000000000000000004392a000000000000000000000000000000000000000000000000000000000000",
        "nonce": "0x31d",
        "chainId": "0x2105"
      },
      "additionalContracts": [],
      "isFixedGasLimit": false
    },
    {
      "hash": "0xde3e5bd53649dc0282cb7782ee44106f28b455f11c9c3572196df30a8b19102b",
      "transactionType": "CALL",
      "contractName": null,
      "contractAddress": "0xad473eaa51821c915d03d9db5349a0586d55e55e",
      "function": "submitMove(uint256,bytes32,bytes)",
      "arguments": [
        "21",
        "0xc7183fc0754b5e7da3b74bf364f8affe59ffdf73627f9b8e7d4991d4453bd364",
        "0x3b2c0000"
      ],
      "transaction": {
        "from": "0xe403f79171b7050c78479f52e49e753d43e72c1a",
        "to": "0xad473eaa51821c915d03d9db5349a0586d55e55e",
        "gas": "0x124c3",
        "value": "0x0",
        "input": "0x73b07f890000000000000000000000000000000000000000000000000000000000000015c7183fc0754b5e7da3b74bf364f8affe59ffdf73627f9b8e7d4991d4453bd364000000000000000000000000000000000000000000000000000000000000006000000000000000000000000000000000000000000000000000000000000000043b2c000000000000000000000000000000000000000000000000000000000000",
        "nonce": "0x31e",
        "chainId": "0x2105"
      },
      "additionalContracts": [],
      "isFixedGasLimit": false
    },
    {
      "hash": "0x854bbdaece34da5074ae8f6dd70180f401f2e7d6656bd7a1e1f14ce8e54b1f19",
      "transactionType": "CALL",
      "contractName": null,
      "contractAddress": "0xad473eaa51821c915d03d9db5349a0586d55e55e",
      "function": "submitMove(uint256,bytes32,bytes)",
      "arguments": [
        "22",
        "0x90e396633e67bfb131a9c9b400ea842e0f29f45c4bc7872a0e80af48deb78504",
        "0x30280000"
      ],
      "transaction": {
        "from": "0xe403f79171b7050c78479f52e49e753d43e72c1a",
        "to": "0xad473eaa51821c915d03d9db5349a0586d55e55e",
        "gas": "0x196a2",
        "value": "0x0",
        "input": "0x73b07f89000000000000000000000000000000000000000000000000000000000000001690e396633e67bfb131a9c9b400ea842e0f29f45c4bc7872a0e80af48deb78504000000000000000000000000000000000000000000000000000000000000006000000000000000000000000000000000000000000000000000000000000000043028000000000000000000000000000000000000000000000000000000000000",
        "nonce": "0x31f",
        "chainId": "0x2105"
      },
      "additionalContracts": [],
      "isFixedGasLimit": false
    },
    {
      "hash": "0xaedde5eb0e6b29747da38d04fa04eaa64e178106cc7c2d1d8ae453f29fe01f91",
      "transactionType": "CALL",
      "contractName": null,
      "contractAddress": "0xad473eaa51821c915d03d9db5349a0586d55e55e",
      "function": "submitMove(uint256,bytes32,bytes)",
      "arguments": [
        "22",
        "0xfc6cc8976638831fc84ceab234894f532e0338e7268a3303d4c0c1939f85dbb9",
        "0x32220000"
      ],
      "transaction": {
        "from": "0xe403f79171b7050c78479f52e49e753d43e72c1a",
        "to": "0xad473eaa51821c915d03d9db5349a0586d55e55e",
        "gas": "0x124c3",
        "value": "0x0",
        "input": "0x73b07f890000000000000000000000000000000000000000000000000000000000000016fc6cc8976638831fc84ceab234894f532e0338e7268a3303d4c0c1939f85dbb9000000000000000000000000000000000000000000000000000000000000006000000000000000000000000000000000000000000000000000000000000000043222000000000000000000000000000000000000000000000000000000000000",
        "nonce": "0x320",
        "chainId": "0x2105"
      },
      "additionalContracts": [],
      "isFixedGasLimit": false
    },
    {
      "hash": "0x6ba2442ff319a84ad8e45fc3a303083155a4205c40685b50e7aa6fdce555bcdb",
      "transactionType": "CALL",
      "contractName": null,
      "contractAddress": "0xad473eaa51821c915d03d9db5349a0586d55e55e",
      "function": "submitMove(uint256,bytes32,bytes)",
      "arguments": [
        "22",
        "0xbb9afb9861b8290cda948e4af3b636449a44547dca4c3acbc45e65f4e22aab40",
        "0x31290000"
      ],
      "transaction": {
        "from": "0xe403f79171b7050c78479f52e49e753d43e72c1a",
        "to": "0xad473eaa51821c915d03d9db5349a0586d55e55e",
        "gas": "0x124c3",
        "value": "0x0",
        "input": "0x73b07f890000000000000000000000000000000000000000000000000000000000000016bb9afb9861b8290cda948e4af3b636449a44547dca4c3acbc45e65f4e22aab40000000000000000000000000000000000000000000000000000000000000006000000000000000000000000000000000000000000000000000000000000000043129000000000000000000000000000000000000000000000000000000000000",
        "nonce": "0x321",
        "chainId": "0x2105"
      },
      "additionalContracts": [],
      "isFixedGasLimit": false
    },
    {
      "hash": "0x2283c1fb35d52a9be4c9c1be873d9ab0d80e33e7fa1f108ad544d3408c5ac188",
      "transactionType": "CALL",
      "contractName": null,
      "contractAddress": "0xad473eaa51821c915d03d9db5349a0586d55e55e",
      "function": "submitMove(uint256,bytes32,bytes)",
      "arguments": [
        "22",
        "0x2a4b22ea265f7017c3f5040f1eec7d58baac29eda24dc699336157972973d8e1",
        "0x3a2b0000"
      ],
      "transaction": {
        "from": "0xe403f79171b7050c78479f52e49e753d43e72c1a",
        "to": "0xad473eaa51821c915d03d9db5349a0586d55e55e",
        "gas": "0x124c3",
        "value": "0x0",
        "input": "0x73b07f8900000000000000000000000000000000000000000000000000000000000000162a4b22ea265f7017c3f5040f1eec7d58baac29eda24dc699336157972973d8e1000000000000000000000000000000000000000000000000000000000000006000000000000000000000000000000000000000000000000000000000000000043a2b000000000000000000000000000000000000000000000000000000000000",
        "nonce": "0x322",
        "chainId": "0x2105"
      },
      "additionalContracts": [],
      "isFixedGasLimit": false
    },
    {
      "hash": "0xfb99e8b7d2e8cc1dee36c67eb17f6c4dd0174600bd255885d6c471f3b541973e",
      "transactionType": "CALL",
      "contractName": null,
      "contractAddress": "0xad473eaa51821c915d03d9db5349a0586d55e55e",
      "function": "submitMove(uint256,bytes32,bytes)",
      "arguments": [
        "23",
        "0xe8773807ffd17108aa2d132cec684352f2c5c8337ff4659cc010d15b0551847d",
        "0x34240000"
      ],
      "transaction": {
        "from": "0xe403f79171b7050c78479f52e49e753d43e72c1a",
        "to": "0xad473eaa51821c915d03d9db5349a0586d55e55e",
        "gas": "0x1801c",
        "value": "0x0",
        "input": "0x73b07f890000000000000000000000000000000000000000000000000000000000000017e8773807ffd17108aa2d132cec684352f2c5c8337ff4659cc010d15b0551847d000000000000000000000000000000000000000000000000000000000000006000000000000000000000000000000000000000000000000000000000000000043424000000000000000000000000000000000000000000000000000000000000",
        "nonce": "0x323",
        "chainId": "0x2105"
      },
      "additionalContracts": [],
      "isFixedGasLimit": false
    },
    {
      "hash": "0x29435d7b9a8cf3cd09d656e0ce9ebc7fac65c248f0e34dfb4673237fd13f033b",
      "transactionType": "CALL",
      "contractName": null,
      "contractAddress": "0xad473eaa51821c915d03d9db5349a0586d55e55e",
      "function": "submitMove(uint256,bytes32,bytes)",
      "arguments": [
        "23",
        "0x0692c63251d62c8f04eed454cc75e5bc199ba842e6b8106095e5d806a5e48cfa",
        "0x33230000"
      ],
      "transaction": {
        "from": "0xe403f79171b7050c78479f52e49e753d43e72c1a",
        "to": "0xad473eaa51821c915d03d9db5349a0586d55e55e",
        "gas": "0x124c3",
        "value": "0x0",
        "input": "0x73b07f8900000000000000000000000000000000000000000000000000000000000000170692c63251d62c8f04eed454cc75e5bc199ba842e6b8106095e5d806a5e48cfa000000000000000000000000000000000000000000000000000000000000006000000000000000000000000000000000000000000000000000000000000000043323000000000000000000000000000000000000000000000000000000000000",
        "nonce": "0x324",
        "chainId": "0x2105"
      },
      "additionalContracts": [],
      "isFixedGasLimit": false
    },
    {
      "hash": "0x854738830f6ec0ce1566161c000321d141bf1a20ecbe1ea9dcd1e6d22029f667",
      "transactionType": "CALL",
      "contractName": null,
      "contractAddress": "0xad473eaa51821c915d03d9db5349a0586d55e55e",
      "function": "submitMove(uint256,bytes32,bytes)",
      "arguments": [
        "23",
        "0x4442d021ec118fea7ce3641d3375363801af2e92adb1272f726cf20292795a62",
        "0x392a0000"
      ],
      "transaction": {
        "from": "0xe403f79171b7050c78479f52e49e753d43e72c1a",
        "to": "0xad473eaa51821c915d03d9db5349a0586d55e55e",
        "gas": "0x124c3",
        "value": "0x0",
        "input": "0x73b07f8900000000000000000000000000000000000000000000000000000000000000174442d021ec118fea7ce3641d3375363801af2e92adb1272f726cf20292795a6200000000000000000000000000000000000000000000000000000000000000600000000000000000000000000000000000000000000000000000000000000004392a000000000000000000000000000000000000000000000000000000000000",
        "nonce": "0x325",
        "chainId": "0x2105"
      },
      "additionalContracts": [],
      "isFixedGasLimit": false
    },
    {
      "hash": "0xbf1c4d42494cb57951c2c16594a4f9474f2536541835207dcb2c81f88d4cf70d",
      "transactionType": "CALL",
      "contractName": null,
      "contractAddress": "0xad473eaa51821c915d03d9db5349a0586d55e55e",
      "function": "submitMove(uint256,bytes32,bytes)",
      "arguments": [
        "23",
        "0xc7183fc0754b5e7da3b74bf364f8affe59ffdf73627f9b8e7d4991d4453bd364",
        "0x3b2c0000"
      ],
      "transaction": {
        "from": "0xe403f79171b7050c78479f52e49e753d43e72c1a",
        "to": "0xad473eaa51821c915d03d9db5349a0586d55e55e",
        "gas": "0x124c3",
        "value": "0x0",
        "input": "0x73b07f890000000000000000000000000000000000000000000000000000000000000017c7183fc0754b5e7da3b74bf364f8affe59ffdf73627f9b8e7d4991d4453bd364000000000000000000000000000000000000000000000000000000000000006000000000000000000000000000000000000000000000000000000000000000043b2c000000000000000000000000000000000000000000000000000000000000",
        "nonce": "0x326",
        "chainId": "0x2105"
      },
      "additionalContracts": [],
      "isFixedGasLimit": false
    },
    {
      "hash": "0xd38a835eb6fec8737922cf9ba35274ac97a60d04a9953afe991365e75f4ad23d",
      "transactionType": "CALL",
      "contractName": null,
      "contractAddress": "0xad473eaa51821c915d03d9db5349a0586d55e55e",
      "function": "submitMove(uint256,bytes32,bytes)",
      "arguments": [
        "24",
        "0x90e396633e67bfb131a9c9b400ea842e0f29f45c4bc7872a0e80af48deb78504",
        "0x30280000"
      ],
      "transaction": {
        "from": "0xe403f79171b7050c78479f52e49e753d43e72c1a",
        "to": "0xad473eaa51821c915d03d9db5349a0586d55e55e",
        "gas": "0x196a2",
        "value": "0x0",
        "input": "0x73b07f89000000000000000000000000000000000000000000000000000000000000001890e396633e67bfb131a9c9b400ea842e0f29f45c4bc7872a0e80af48deb78504000000000000000000000000000000000000000000000000000000000000006000000000000000000000000000000000000000000000000000000000000000043028000000000000000000000000000000000000000000000000000000000000",
        "nonce": "0x327",
        "chainId": "0x2105"
      },
      "additionalContracts": [],
      "isFixedGasLimit": false
    },
    {
      "hash": "0xad2c970c52bb79fc933d4267fbd230385ca59c27ca1392bdd4e761a2155f5929",
      "transactionType": "CALL",
      "contractName": null,
      "contractAddress": "0xad473eaa51821c915d03d9db5349a0586d55e55e",
      "function": "submitMove(uint256,bytes32,bytes)",
      "arguments": [
        "24",
        "0xfc6cc8976638831fc84ceab234894f532e0338e7268a3303d4c0c1939f85dbb9",
        "0x32220000"
      ],
      "transaction": {
        "from": "0xe403f79171b7050c78479f52e49e753d43e72c1a",
        "to": "0xad473eaa51821c915d03d9db5349a0586d55e55e",
        "gas": "0x124c3",
        "value": "0x0",
        "input": "0x73b07f890000000000000000000000000000000000000000000000000000000000000018fc6cc8976638831fc84ceab234894f532e0338e7268a3303d4c0c1939f85dbb9000000000000000000000000000000000000000000000000000000000000006000000000000000000000000000000000000000000000000000000000000000043222000000000000000000000000000000000000000000000000000000000000",
        "nonce": "0x328",
        "chainId": "0x2105"
      },
      "additionalContracts": [],
      "isFixedGasLimit": false
    },
    {
      "hash": "0x89208f116bb85d894370c5028bca9b957039f80961b87c0cf8eaf8decc2687f9",
      "transactionType": "CALL",
      "contractName": null,
      "contractAddress": "0xad473eaa51821c915d03d9db5349a0586d55e55e",
      "function": "submitMove(uint256,bytes32,bytes)",
      "arguments": [
        "24",
        "0xbb9afb9861b8290cda948e4af3b636449a44547dca4c3acbc45e65f4e22aab40",
        "0x31290000"
      ],
      "transaction": {
        "from": "0xe403f79171b7050c78479f52e49e753d43e72c1a",
        "to": "0xad473eaa51821c915d03d9db5349a0586d55e55e",
        "gas": "0x124c3",
        "value": "0x0",
        "input": "0x73b07f890000000000000000000000000000000000000000000000000000000000000018bb9afb9861b8290cda948e4af3b636449a44547dca4c3acbc45e65f4e22aab40000000000000000000000000000000000000000000000000000000000000006000000000000000000000000000000000000000000000000000000000000000043129000000000000000000000000000000000000000000000000000000000000",
        "nonce": "0x329",
        "chainId": "0x2105"
      },
      "additionalContracts": [],
      "isFixedGasLimit": false
    },
    {
      "hash": "0x1bf555910563797974434d355e94725110bdb7e4a091bf17a337c8de0a5915f6",
      "transactionType": "CALL",
      "contractName": null,
      "contractAddress": "0xad473eaa51821c915d03d9db5349a0586d55e55e",
      "function": "submitMove(uint256,bytes32,bytes)",
      "arguments": [
        "24",
        "0x2a4b22ea265f7017c3f5040f1eec7d58baac29eda24dc699336157972973d8e1",
        "0x3a2b0000"
      ],
      "transaction": {
        "from": "0xe403f79171b7050c78479f52e49e753d43e72c1a",
        "to": "0xad473eaa51821c915d03d9db5349a0586d55e55e",
        "gas": "0x124c3",
        "value": "0x0",
        "input": "0x73b07f8900000000000000000000000000000000000000000000000000000000000000182a4b22ea265f7017c3f5040f1eec7d58baac29eda24dc699336157972973d8e1000000000000000000000000000000000000000000000000000000000000006000000000000000000000000000000000000000000000000000000000000000043a2b000000000000000000000000000000000000000000000000000000000000",
        "nonce": "0x32a",
        "chainId": "0x2105"
      },
      "additionalContracts": [],
      "isFixedGasLimit": false
    }
  ],
  "receipts": [
    {
      "status": "0x1",
      "cumulativeGasUsed": "0x981126",
      "logs": [
        {
          "address": "0xad473eaa51821c915d03d9db5349a0586d55e55e",
          "topics": [
            "0xca1357e0f94306885a9813b6797ad5acadca27e6b5bccbde2640d84f319df31e",
            "0x0000000000000000000000000000000000000000000000000000000000000011"
          ],
          "data": "0x3608f503d624b47779fba399a097e68bc35cdbd22fcf04e3d6b7a3bd8fa9b7460000000000000000000000000000000000000000000000000000000000000000",
          "blockHash": "0xe059b8fd5fae402de99a8292bdd161f868bb341305729d8a7bac6752d9f12117",
          "blockNumber": "0x2619682",
          "blockTimestamp": "0x694d89e7",
          "transactionHash": "0xa621f0617fa8c2dc5f264ea457606e34a18ed4abb457b1b6df1cb0edbf86ab89",
          "transactionIndex": "0x47",
          "logIndex": "0xc8",
          "removed": false
        },
        {
          "address": "0xad473eaa51821c915d03d9db5349a0586d55e55e",
          "topics": [
            "0x94af2fbea15ff3140faa3f70571c806b44849899a559d3c9f306155e45de0416",
            "0x0000000000000000000000000000000000000000000000000000000000000011",
            "0x000000000000000000000000e403f79171b7050c78479f52e49e753d43e72c1a"
          ],
          "data": "0x000000000000000000000000000000000000000000000000000000000000000100000000000000000000000000000000000000000000000000000000000000000000000000000000000000000000000000000000000000000000000000000000",
          "blockHash": "0xe059b8fd5fae402de99a8292bdd161f868bb341305729d8a7bac6752d9f12117",
          "blockNumber": "0x2619682",
          "blockTimestamp": "0x694d89e7",
          "transactionHash": "0xa621f0617fa8c2dc5f264ea457606e34a18ed4abb457b1b6df1cb0edbf86ab89",
          "transactionIndex": "0x47",
          "logIndex": "0xc9",
          "removed": false
        }
      ],
      "logsBloom": "0x00000000000000000000000000000000000000000000000000000040000400000000000000000000000000000000000000000000000000000000000000000000000000000001000000000000000000000000000000000000000000000000000000000000000000000000000000000000000000004000000000200000000000000000000000000000000000000200000000002000000000040002000000000000000004000000000000000000000000000000000000000000000000000400000000001000000000000000000000000000000000000000000000000008000004000000000000000000000000000000000000000000000000800000000000000000",
      "type": "0x2",
      "transactionHash": "0xa621f0617fa8c2dc5f264ea457606e34a18ed4abb457b1b6df1cb0edbf86ab89",
      "transactionIndex": "0x47",
      "blockHash": "0xe059b8fd5fae402de99a8292bdd161f868bb341305729d8a7bac6752d9f12117",
      "blockNumber": "0x2619682",
      "gasUsed": "0x3bd76",
      "effectiveGasPrice": "0x13ec8d",
      "blobGasUsed": "0x7ef4",
      "from": "0xe403f79171b7050c78479f52e49e753d43e72c1a",
      "to": "0xad473eaa51821c915d03d9db5349a0586d55e55e",
      "contractAddress": null,
      "daFootprintGasScalar": "0x145",
      "l1BaseFeeScalar": "0x8dd",
      "l1BlobBaseFee": "0x185978",
      "l1BlobBaseFeeScalar": "0x101c12",
      "l1Fee": "0x4169c966",
      "l1GasPrice": "0x1aefad4",
      "l1GasUsed": "0x640"
    },
    {
      "status": "0x1",
      "cumulativeGasUsed": "0x1138fb9",
      "logs": [
        {
          "address": "0xad473eaa51821c915d03d9db5349a0586d55e55e",
          "topics": [
            "0xca1357e0f94306885a9813b6797ad5acadca27e6b5bccbde2640d84f319df31e",
            "0x0000000000000000000000000000000000000000000000000000000000000012"
          ],
          "data": "0x3608f503d624b47779fba399a097e68bc35cdbd22fcf04e3d6b7a3bd8fa9b7460000000000000000000000000000000000000000000000000000000000000000",
          "blockHash": "0x3e655df96a9f62c778c3a6f99425cb11998c23ad6f1f2cd07136f985f75b67be",
          "blockNumber": "0x2619682",
          "blockTimestamp": "0x694d89e7",
          "transactionHash": "0x922d649928ba151a0bcc5c3a4836d61a0ad25cfd4d862cc1e6684837fef675bc",
          "transactionIndex": "0x72",
          "logIndex": "0x16b",
          "removed": false
        },
        {
          "address": "0xad473eaa51821c915d03d9db5349a0586d55e55e",
          "topics": [
            "0x94af2fbea15ff3140faa3f70571c806b44849899a559d3c9f306155e45de0416",
            "0x0000000000000000000000000000000000000000000000000000000000000012",
            "0x000000000000000000000000e403f79171b7050c78479f52e49e753d43e72c1a"
          ],
          "data": "0x000000000000000000000000000000000000000000000000000000000000000100000000000000000000000000000000000000000000000000000000000000000000000000000000000000000000000000000000000000000000000000000000",
          "blockHash": "0x3e655df96a9f62c778c3a6f99425cb11998c23ad6f1f2cd07136f985f75b67be",
          "blockNumber": "0x2619682",
          "blockTimestamp": "0x694d89e7",
          "transactionHash": "0x922d649928ba151a0bcc5c3a4836d61a0ad25cfd4d862cc1e6684837fef675bc",
          "transactionIndex": "0x72",
          "logIndex": "0x16c",
          "removed": false
        }
      ],
      "logsBloom": "0x00000000000000000000000000000000000000000000000000000040000400000000000000000000000000000000000000000000000000000000000000000000000000000001000000000000000000000000000000000000000000000000000000000000000000000000000000000000000000000000000000200000000000000000000000000000000000000200040000002000000000040002000000000000000004000000000000000000000000000000000000000040000000000000000000000000000000000400000000000000000000000000000000000008000004000000000000000000000000000000000000000000000000800000000000000000",
      "type": "0x2",
      "transactionHash": "0x922d649928ba151a0bcc5c3a4836d61a0ad25cfd4d862cc1e6684837fef675bc",
      "transactionIndex": "0x72",
      "blockHash": "0x3e655df96a9f62c778c3a6f99425cb11998c23ad6f1f2cd07136f985f75b67be",
      "blockNumber": "0x2619682",
      "gasUsed": "0x3bd76",
      "effectiveGasPrice": "0x13ec8d",
      "blobGasUsed": "0x7ef4",
      "from": "0xe403f79171b7050c78479f52e49e753d43e72c1a",
      "to": "0xad473eaa51821c915d03d9db5349a0586d55e55e",
      "contractAddress": null,
      "daFootprintGasScalar": "0x145",
      "l1BaseFeeScalar": "0x8dd",
      "l1BlobBaseFee": "0x185978",
      "l1BlobBaseFeeScalar": "0x101c12",
      "l1Fee": "0x4169c966",
      "l1GasPrice": "0x1aefad4",
      "l1GasUsed": "0x640"
    },
    {
      "status": "0x1",
      "cumulativeGasUsed": "0x1174d2f",
      "logs": [
        {
          "address": "0xad473eaa51821c915d03d9db5349a0586d55e55e",
          "topics": [
            "0xca1357e0f94306885a9813b6797ad5acadca27e6b5bccbde2640d84f319df31e",
            "0x0000000000000000000000000000000000000000000000000000000000000013"
          ],
          "data": "0x3608f503d624b47779fba399a097e68bc35cdbd22fcf04e3d6b7a3bd8fa9b7460000000000000000000000000000000000000000000000000000000000000000",
          "blockHash": "0x3e655df96a9f62c778c3a6f99425cb11998c23ad6f1f2cd07136f985f75b67be",
          "blockNumber": "0x2619682",
          "blockTimestamp": "0x694d89e7",
          "transactionHash": "0x996fce0972d3c48eb911d5440274e90474129c233cf5d56e14b356f1e631cedf",
          "transactionIndex": "0x73",
          "logIndex": "0x16d",
          "removed": false
        },
        {
          "address": "0xad473eaa51821c915d03d9db5349a0586d55e55e",
          "topics": [
            "0x94af2fbea15ff3140faa3f70571c806b44849899a559d3c9f306155e45de0416",
            "0x0000000000000000000000000000000000000000000000000000000000000013",
            "0x000000000000000000000000e403f79171b7050c78479f52e49e753d43e72c1a"
          ],
          "data": "0x000000000000000000000000000000000000000000000000000000000000000100000000000000000000000000000000000000000000000000000000000000000000000000000000000000000000000000000000000000000000000000000000",
          "blockHash": "0x3e655df96a9f62c778c3a6f99425cb11998c23ad6f1f2cd07136f985f75b67be",
          "blockNumber": "0x2619682",
          "blockTimestamp": "0x694d89e7",
          "transactionHash": "0x996fce0972d3c48eb911d5440274e90474129c233cf5d56e14b356f1e631cedf",
          "transactionIndex": "0x73",
          "logIndex": "0x16e",
          "removed": false
        }
      ],
      "logsBloom": "0x20000000000000000000000000800000000000000000000000000040000400000000000040000000000000000000000000000000000000000000000000000000000000000001000000000000000000000000000000000000000000000000000000000000000000000000000000000000000000000000000000200000000000000000000000000000000000000200000000002000000000040002000000000000000004000000000000000000000000000000000000000000000000000000000000000000000000000000000000000000000000000000000000000008000004000000000000000000000000000000000000000000000000800000000000000000",
      "type": "0x2",
      "transactionHash": "0x996fce0972d3c48eb911d5440274e90474129c233cf5d56e14b356f1e631cedf",
      "transactionIndex": "0x73",
      "blockHash": "0x3e655df96a9f62c778c3a6f99425cb11998c23ad6f1f2cd07136f985f75b67be",
      "blockNumber": "0x2619682",
      "gasUsed": "0x3bd76",
      "effectiveGasPrice": "0x13ec8d",
      "blobGasUsed": "0x7ef4",
      "from": "0xe403f79171b7050c78479f52e49e753d43e72c1a",
      "to": "0xad473eaa51821c915d03d9db5349a0586d55e55e",
      "contractAddress": null,
      "daFootprintGasScalar": "0x145",
      "l1BaseFeeScalar": "0x8dd",
      "l1BlobBaseFee": "0x185978",
      "l1BlobBaseFeeScalar": "0x101c12",
      "l1Fee": "0x4169c966",
      "l1GasPrice": "0x1aefad4",
      "l1GasUsed": "0x640"
    },
    {
      "status": "0x1",
      "cumulativeGasUsed": "0x11b0aa5",
      "logs": [
        {
          "address": "0xad473eaa51821c915d03d9db5349a0586d55e55e",
          "topics": [
            "0xca1357e0f94306885a9813b6797ad5acadca27e6b5bccbde2640d84f319df31e",
            "0x0000000000000000000000000000000000000000000000000000000000000014"
          ],
          "data": "0x3608f503d624b47779fba399a097e68bc35cdbd22fcf04e3d6b7a3bd8fa9b7460000000000000000000000000000000000000000000000000000000000000000",
          "blockHash": "0x3e655df96a9f62c778c3a6f99425cb11998c23ad6f1f2cd07136f985f75b67be",
          "blockNumber": "0x2619682",
          "blockTimestamp": "0x694d89e7",
          "transactionHash": "0x5c80df6583cc4f998d47d433e513d1a1ac86c50ca1c1ecb7ee8417f2912cf8fc",
          "transactionIndex": "0x74",
          "logIndex": "0x16f",
          "removed": false
        },
        {
          "address": "0xad473eaa51821c915d03d9db5349a0586d55e55e",
          "topics": [
            "0x94af2fbea15ff3140faa3f70571c806b44849899a559d3c9f306155e45de0416",
            "0x0000000000000000000000000000000000000000000000000000000000000014",
            "0x000000000000000000000000e403f79171b7050c78479f52e49e753d43e72c1a"
          ],
          "data": "0x000000000000000000000000000000000000000000000000000000000000000100000000000000000000000000000000000000000000000000000000000000000000000000000000000000000000000000000000000000000000000000000000",
          "blockHash": "0x3e655df96a9f62c778c3a6f99425cb11998c23ad6f1f2cd07136f985f75b67be",
          "blockNumber": "0x2619682",
          "blockTimestamp": "0x694d89e7",
          "transactionHash": "0x5c80df6583cc4f998d47d433e513d1a1ac86c50ca1c1ecb7ee8417f2912cf8fc",
          "transactionIndex": "0x74",
          "logIndex": "0x170",
          "removed": false
        }
      ],
      "logsBloom": "0x00000000000000000000000000000000000000000000000000000040000400000000000000000000000000000000000000002000000000000000000000000000000000000001000000000000000000000000000000000000000000000000000000000000000000000000000000000000000000000000000000200000000000000000000000000000000000000200000000002000000400040002000000000000000004000000000020000000000000000000000000000000000000000000000000000000000000000000000000000000000000000000000000000008000004000000000000000000000000000000000000000000000000800000000000000000",
      "type": "0x2",
      "transactionHash": "0x5c80df6583cc4f998d47d433e513d1a1ac86c50ca1c1ecb7ee8417f2912cf8fc",
      "transactionIndex": "0x74",
      "blockHash": "0x3e655df96a9f62c778c3a6f99425cb11998c23ad6f1f2cd07136f985f75b67be",
      "blockNumber": "0x2619682",
      "gasUsed": "0x3bd76",
      "effectiveGasPrice": "0x13ec8d",
      "blobGasUsed": "0x7ef4",
      "from": "0xe403f79171b7050c78479f52e49e753d43e72c1a",
      "to": "0xad473eaa51821c915d03d9db5349a0586d55e55e",
      "contractAddress": null,
      "daFootprintGasScalar": "0x145",
      "l1BaseFeeScalar": "0x8dd",
      "l1BlobBaseFee": "0x185978",
      "l1BlobBaseFeeScalar": "0x101c12",
      "l1Fee": "0x4169c966",
      "l1GasPrice": "0x1aefad4",
      "l1GasUsed": "0x640"
    },
    {
      "status": "0x1",
      "cumulativeGasUsed": "0x11ec81b",
      "logs": [
        {
          "address": "0xad473eaa51821c915d03d9db5349a0586d55e55e",
          "topics": [
            "0xca1357e0f94306885a9813b6797ad5acadca27e6b5bccbde2640d84f319df31e",
            "0x0000000000000000000000000000000000000000000000000000000000000015"
          ],
          "data": "0x3608f503d624b47779fba399a097e68bc35cdbd22fcf04e3d6b7a3bd8fa9b7460000000000000000000000000000000000000000000000000000000000000000",
          "blockHash": "0x6b05fe68f41cb699e26cab447fe09b17a754ca10c72e8befb4d430300d14e42c",
          "blockNumber": "0x2619682",
          "blockTimestamp": "0x694d89e7",
          "transactionHash": "0x13a02b95cd9a09a618d65142ff5feb02d1c558a71b0ea65c6e000146b529413f",
          "transactionIndex": "0x75",
          "logIndex": "0x171",
          "removed": false
        },
        {
          "address": "0xad473eaa51821c915d03d9db5349a0586d55e55e",
          "topics": [
            "0x94af2fbea15ff3140faa3f70571c806b44849899a559d3c9f306155e45de0416",
            "0x0000000000000000000000000000000000000000000000000000000000000015",
            "0x000000000000000000000000e403f79171b7050c78479f52e49e753d43e72c1a"
          ],
          "data": "0x000000000000000000000000000000000000000000000000000000000000000100000000000000000000000000000000000000000000000000000000000000000000000000000000000000000000000000000000000000000000000000000000",
          "blockHash": "0x6b05fe68f41cb699e26cab447fe09b17a754ca10c72e8befb4d430300d14e42c",
          "blockNumber": "0x2619682",
          "blockTimestamp": "0x694d89e7",
          "transactionHash": "0x13a02b95cd9a09a618d65142ff5feb02d1c558a71b0ea65c6e000146b529413f",
          "transactionIndex": "0x75",
          "logIndex": "0x172",
          "removed": false
        }
      ],
      "logsBloom": "0x00000000000000000000000000000000000000000000000000000040000400000000000000000000000000000000000000000000000000000000000000000000001000000001000000000000000000000000000000000000000000000000000000000000000000000000000000000000000000000000000000200000000000000000000000000000000000000200000000002000000000040002000000000000000004000000000000000000010000000000000000000000000000000000000000000000000000000000000000000000000000000000000000000008000004002000000000000000000000000000000000000000000000800000000000000000",
      "type": "0x2",
      "transactionHash": "0x13a02b95cd9a09a618d65142ff5feb02d1c558a71b0ea65c6e000146b529413f",
      "transactionIndex": "0x75",
      "blockHash": "0x6b05fe68f41cb699e26cab447fe09b17a754ca10c72e8befb4d430300d14e42c",
      "blockNumber": "0x2619682",
      "gasUsed": "0x3bd76",
      "effectiveGasPrice": "0x13ec8d",
      "blobGasUsed": "0x7ef4",
      "from": "0xe403f79171b7050c78479f52e49e753d43e72c1a",
      "to": "0xad473eaa51821c915d03d9db5349a0586d55e55e",
      "contractAddress": null,
      "daFootprintGasScalar": "0x145",
      "l1BaseFeeScalar": "0x8dd",
      "l1BlobBaseFee": "0x185978",
      "l1BlobBaseFeeScalar": "0x101c12",
      "l1Fee": "0x10275afb",
      "l1GasPrice": "0x1aefad4",
      "l1GasUsed": "0x640"
    },
    {
      "status": "0x1",
      "cumulativeGasUsed": "0x1228591",
      "logs": [
        {
          "address": "0xad473eaa51821c915d03d9db5349a0586d55e55e",
          "topics": [
            "0xca1357e0f94306885a9813b6797ad5acadca27e6b5bccbde2640d84f319df31e",
            "0x0000000000000000000000000000000000000000000000000000000000000016"
          ],
          "data": "0x3608f503d624b47779fba399a097e68bc35cdbd22fcf04e3d6b7a3bd8fa9b7460000000000000000000000000000000000000000000000000000000000000000",
          "blockHash": "0x3e655df96a9f62c778c3a6f99425cb11998c23ad6f1f2cd07136f985f75b67be",
          "blockNumber": "0x2619682",
          "blockTimestamp": "0x694d89e7",
          "transactionHash": "0x5df7d306268df451bc4ab38c6f8b62d09113b92e9e5415130f0050b8b19fdba2",
          "transactionIndex": "0x76",
          "logIndex": "0x173",
          "removed": false
        },
        {
          "address": "0xad473eaa51821c915d03d9db5349a0586d55e55e",
          "topics": [
            "0x94af2fbea15ff3140faa3f70571c806b44849899a559d3c9f306155e45de0416",
            "0x0000000000000000000000000000000000000000000000000000000000000016",
            "0x000000000000000000000000e403f79171b7050c78479f52e49e753d43e72c1a"
          ],
          "data": "0x000000000000000000000000000000000000000000000000000000000000000100000000000000000000000000000000000000000000000000000000000000000000000000000000000000000000000000000000000000000000000000000000",
          "blockHash": "0x3e655df96a9f62c778c3a6f99425cb11998c23ad6f1f2cd07136f985f75b67be",
          "blockNumber": "0x2619682",
          "blockTimestamp": "0x694d89e7",
          "transactionHash": "0x5df7d306268df451bc4ab38c6f8b62d09113b92e9e5415130f0050b8b19fdba2",
          "transactionIndex": "0x76",
          "logIndex": "0x174",
          "removed": false
        }
      ],
      "logsBloom": "0x00000000000000000000000000000000000000000000000000000040000400000000000000000000000000000000000000000000000000000000000000000000000000000001000800000000000000000000000000000000000000000000000000000000000000000000000000000000200000000000000000200000000000000000000000000000000000000200000000002000000000040002000000000000000004000000000000000000000000000000000000000000000000000000000000000000000000000000000000000000000000000000000000000008000004000000000000000000000000000000000000000000000000800008000000000000",
      "type": "0x2",
      "transactionHash": "0x5df7d306268df451bc4ab38c6f8b62d09113b92e9e5415130f0050b8b19fdba2",
      "transactionIndex": "0x76",
      "blockHash": "0x3e655df96a9f62c778c3a6f99425cb11998c23ad6f1f2cd07136f985f75b67be",
      "blockNumber": "0x2619682",
      "gasUsed": "0x3bd76",
      "effectiveGasPrice": "0x13ec8d",
      "blobGasUsed": "0x7ef4",
      "from": "0xe403f79171b7050c78479f52e49e753d43e72c1a",
      "to": "0xad473eaa51821c915d03d9db5349a0586d55e55e",
      "contractAddress": null,
      "daFootprintGasScalar": "0x145",
      "l1BaseFeeScalar": "0x8dd",
      "l1BlobBaseFee": "0x185978",
      "l1BlobBaseFeeScalar": "0x101c12",
      "l1Fee": "0x4169c966",
      "l1GasPrice": "0x1aefad4",
      "l1GasUsed": "0x640"
    },
    {
      "status": "0x1",
      "cumulativeGasUsed": "0x1264307",
      "logs": [
        {
          "address": "0xad473eaa51821c915d03d9db5349a0586d55e55e",
          "topics": [
            "0xca1357e0f94306885a9813b6797ad5acadca27e6b5bccbde2640d84f319df31e",
            "0x0000000000000000000000000000000000000000000000000000000000000017"
          ],
          "data": "0x3608f503d624b47779fba399a097e68bc35cdbd22fcf04e3d6b7a3bd8fa9b7460000000000000000000000000000000000000000000000000000000000000000",
          "blockHash": "0x3e655df96a9f62c778c3a6f99425cb11998c23ad6f1f2cd07136f985f75b67be",
          "blockNumber": "0x2619682",
          "blockTimestamp": "0x694d89e7",
          "transactionHash": "0xd8162a7104dce17421c89d12b7d10815e17343fe286d3a0847cbafa3774b1fae",
          "transactionIndex": "0x77",
          "logIndex": "0x175",
          "removed": false
        },
        {
          "address": "0xad473eaa51821c915d03d9db5349a0586d55e55e",
          "topics": [
            "0x94af2fbea15ff3140faa3f70571c806b44849899a559d3c9f306155e45de0416",
            "0x0000000000000000000000000000000000000000000000000000000000000017",
            "0x000000000000000000000000e403f79171b7050c78479f52e49e753d43e72c1a"
          ],
          "data": "0x000000000000000000000000000000000000000000000000000000000000000100000000000000000000000000000000000000000000000000000000000000000000000000000000000000000000000000000000000000000000000000000000",
          "blockHash": "0x3e655df96a9f62c778c3a6f99425cb11998c23ad6f1f2cd07136f985f75b67be",
          "blockNumber": "0x2619682",
          "blockTimestamp": "0x694d89e7",
          "transactionHash": "0xd8162a7104dce17421c89d12b7d10815e17343fe286d3a0847cbafa3774b1fae",
          "transactionIndex": "0x77",
          "logIndex": "0x176",
          "removed": false
        }
      ],
      "logsBloom": "0x00000000000000000000000000000000000000000000000000000040000400000000000000000000000000000000000000001000000000000000001000000000000000000001000000000000000000000000000000000000000000000000000000000000000000000000000000000000000000000000000000200000000000000000000000000000000000000200000000002000000000040002000000000000000004000000000000000000000000000000000000000000000000000000000000000000000000000000000000000000000000000000000000000008000004000000000000000000000000000000000000000000000000800000000000080000",
      "type": "0x2",
      "transactionHash": "0xd8162a7104dce17421c89d12b7d10815e17343fe286d3a0847cbafa3774b1fae",
      "transactionIndex": "0x77",
      "blockHash": "0x3e655df96a9f62c778c3a6f99425cb11998c23ad6f1f2cd07136f985f75b67be",
      "blockNumber": "0x2619682",
      "gasUsed": "0x3bd76",
      "effectiveGasPrice": "0x13ec8d",
      "blobGasUsed": "0x7ef4",
      "from": "0xe403f79171b7050c78479f52e49e753d43e72c1a",
      "to": "0xad473eaa51821c915d03d9db5349a0586d55e55e",
      "contractAddress": null,
      "daFootprintGasScalar": "0x145",
      "l1BaseFeeScalar": "0x8dd",
      "l1BlobBaseFee": "0x185978",
      "l1BlobBaseFeeScalar": "0x101c12",
      "l1Fee": "0x4169c966",
      "l1GasPrice": "0x1aefad4",
      "l1GasUsed": "0x640"
    },
    {
      "status": "0x1",
      "cumulativeGasUsed": "0x16bc992",
      "logs": [
        {
          "address": "0xad473eaa51821c915d03d9db5349a0586d55e55e",
          "topics": [
            "0xca1357e0f94306885a9813b6797ad5acadca27e6b5bccbde2640d84f319df31e",
            "0x0000000000000000000000000000000000000000000000000000000000000018"
          ],
          "data": "0x3608f503d624b47779fba399a097e68bc35cdbd22fcf04e3d6b7a3bd8fa9b7460000000000000000000000000000000000000000000000000000000000000000",
          "blockHash": "0x2ae6fe4e7da82075eb6f24814ab90a52062dda5e8ec6d738b68ad6e7dfa5105c",
          "blockNumber": "0x2619682",
          "blockTimestamp": "0x694d89e7",
          "transactionHash": "0xb4c1f26a5e8d68ea218c0787334a4338719c456c730e61671797d9f2007e4aad",
          "transactionIndex": "0x9b",
          "logIndex": "0x1d2",
          "removed": false
        },
        {
          "address": "0xad473eaa51821c915d03d9db5349a0586d55e55e",
          "topics": [
            "0x94af2fbea15ff3140faa3f70571c806b44849899a559d3c9f306155e45de0416",
            "0x0000000000000000000000000000000000000000000000000000000000000018",
            "0x000000000000000000000000e403f79171b7050c78479f52e49e753d43e72c1a"
          ],
          "data": "0x000000000000000000000000000000000000000000000000000000000000000100000000000000000000000000000000000000000000000000000000000000000000000000000000000000000000000000000000000000000000000000000000",
          "blockHash": "0x2ae6fe4e7da82075eb6f24814ab90a52062dda5e8ec6d738b68ad6e7dfa5105c",
          "blockNumber": "0x2619682",
          "blockTimestamp": "0x694d89e7",
          "transactionHash": "0xb4c1f26a5e8d68ea218c0787334a4338719c456c730e61671797d9f2007e4aad",
          "transactionIndex": "0x9b",
          "logIndex": "0x1d3",
          "removed": false
        }
      ],
      "logsBloom": "0x00000000000000000000000000000000000000000000000000000040000400000000000000000000000000000000000000000000000000000000000000000000000000000001000000000000000000000040000000000000000000000000000000000000000000000000000000000000000000000000000000200000000000000000000000000000000000000200000000002000000000040002000000000000000004000000000000000000000000000000000000000000000000000000000000100000000000000000000000000000000000000000000020000008000004000000000000000000000000000000000000000000000000800000000000000000",
      "type": "0x2",
      "transactionHash": "0xb4c1f26a5e8d68ea218c0787334a4338719c456c730e61671797d9f2007e4aad",
      "transactionIndex": "0x9b",
      "blockHash": "0x2ae6fe4e7da82075eb6f24814ab90a52062dda5e8ec6d738b68ad6e7dfa5105c",
      "blockNumber": "0x2619682",
      "gasUsed": "0x3bd76",
      "effectiveGasPrice": "0x13ec8d",
      "blobGasUsed": "0x7ef4",
      "from": "0xe403f79171b7050c78479f52e49e753d43e72c1a",
      "to": "0xad473eaa51821c915d03d9db5349a0586d55e55e",
      "contractAddress": null,
      "daFootprintGasScalar": "0x145",
      "l1BaseFeeScalar": "0x8dd",
      "l1BlobBaseFee": "0x185978",
      "l1BlobBaseFeeScalar": "0x101c12",
      "l1Fee": "0x4169c966",
      "l1GasPrice": "0x1aefad4",
      "l1GasUsed": "0x640"
    },
    {
      "status": "0x1",
      "cumulativeGasUsed": "0x16cdfa9",
      "logs": [
        {
          "address": "0xad473eaa51821c915d03d9db5349a0586d55e55e",
          "topics": [
            "0x36e13ba1e45df3ecb8f6beb6274a1f5d4abf4c0792bb56700354f0d50bf0acd7",
            "0x0000000000000000000000000000000000000000000000000000000000000011",
            "0x000000000000000000000000e403f79171b7050c78479f52e49e753d43e72c1a"
          ],
          "data": "0xe8773807ffd17108aa2d132cec684352f2c5c8337ff4659cc010d15b0551847d0000000000000000000000000000000000000000000000000000000000000001000000000000000000000000000000000000000000000000000000000000006000000000000000000000000000000000000000000000000000000000000000043424000000000000000000000000000000000000000000000000000000000000",
          "blockHash": "0x2ae6fe4e7da82075eb6f24814ab90a52062dda5e8ec6d738b68ad6e7dfa5105c",
          "blockNumber": "0x2619682",
          "blockTimestamp": "0x694d89e7",
          "transactionHash": "0x6b9505813aea6218e4b02cfe9f2f254814f80fdd7fa04e25484fbef5c72f7784",
          "transactionIndex": "0x9c",
          "logIndex": "0x1d4",
          "removed": false
        },
        {
          "address": "0xad473eaa51821c915d03d9db5349a0586d55e55e",
          "topics": [
            "0x36e13ba1e45df3ecb8f6beb6274a1f5d4abf4c0792bb56700354f0d50bf0acd7",
            "0x0000000000000000000000000000000000000000000000000000000000000011",
            "0x000000000000000000000000ad473eaa51821c915d03d9db5349a0586d55e55e"
          ],
          "data": "0xf4bb36a023d03b095a88119a20a9000a252aea11d80408b3bd0c6bade87b4ba70000000000000000000000000000000000000000000000000000000000000002000000000000000000000000000000000000000000000000000000000000006000000000000000000000000000000000000000000000000000000000000000043424000000000000000000000000000000000000000000000000000000000000",
          "blockHash": "0x2ae6fe4e7da82075eb6f24814ab90a52062dda5e8ec6d738b68ad6e7dfa5105c",
          "blockNumber": "0x2619682",
          "blockTimestamp": "0x694d89e7",
          "transactionHash": "0x6b9505813aea6218e4b02cfe9f2f254814f80fdd7fa04e25484fbef5c72f7784",
          "transactionIndex": "0x9c",
          "logIndex": "0x1d5",
          "removed": false
        }
      ],
      "logsBloom": "0x00000000000000000000000000000000000000000000000000000000000400000000000000000000000000000000000000000000000000000000000000000000000000000000000000000000000000000000000010000000000000000000000000000000000000000000000000000040000000004400000000000000000000000000000000000000000000000200000000000000000000040002000000000000000004000000000000000000000000000000000000000000000000004400000000001000000000000000000000400000000000000000000000000000000800000000000000000000000000000000000000000000000000800000000000000000",
      "type": "0x2",
      "transactionHash": "0x6b9505813aea6218e4b02cfe9f2f254814f80fdd7fa04e25484fbef5c72f7784",
      "transactionIndex": "0x9c",
      "blockHash": "0x2ae6fe4e7da82075eb6f24814ab90a52062dda5e8ec6d738b68ad6e7dfa5105c",
      "blockNumber": "0x2619682",
      "gasUsed": "0x11617",
      "effectiveGasPrice": "0x13ec8d",
      "blobGasUsed": "0x8a61",
      "from": "0xe403f79171b7050c78479f52e49e753d43e72c1a",
      "to": "0xad473eaa51821c915d03d9db5349a0586d55e55e",
      "contractAddress": null,
      "daFootprintGasScalar": "0x145",
      "l1BaseFeeScalar": "0x8dd",
      "l1BlobBaseFee": "0x185978",
      "l1BlobBaseFeeScalar": "0x101c12",
      "l1Fee": "0x4169c966",
      "l1GasPrice": "0x1aefad4",
      "l1GasUsed": "0x6da"
    },
    {
      "status": "0x1",
      "cumulativeGasUsed": "0x16db39e",
      "logs": [
        {
          "address": "0xad473eaa51821c915d03d9db5349a0586d55e55e",
          "topics": [
            "0x36e13ba1e45df3ecb8f6beb6274a1f5d4abf4c0792bb56700354f0d50bf0acd7",
            "0x0000000000000000000000000000000000000000000000000000000000000011",
            "0x000000000000000000000000e403f79171b7050c78479f52e49e753d43e72c1a"
          ],
          "data": "0x0692c63251d62c8f04eed454cc75e5bc199ba842e6b8106095e5d806a5e48cfa0000000000000000000000000000000000000000000000000000000000000003000000000000000000000000000000000000000000000000000000000000006000000000000000000000000000000000000000000000000000000000000000043323000000000000000000000000000000000000000000000000000000000000",
          "blockHash": "0x2ae6fe4e7da82075eb6f24814ab90a52062dda5e8ec6d738b68ad6e7dfa5105c",
          "blockNumber": "0x2619682",
          "blockTimestamp": "0x694d89e7",
          "transactionHash": "0xdf2a4eb01ba247633c65d46ad5acd49e2c58ce3d64f69d92bb149f53e73368b4",
          "transactionIndex": "0x9d",
          "logIndex": "0x1d6",
          "removed": false
        },
        {
          "address": "0xad473eaa51821c915d03d9db5349a0586d55e55e",
          "topics": [
            "0x36e13ba1e45df3ecb8f6beb6274a1f5d4abf4c0792bb56700354f0d50bf0acd7",
            "0x0000000000000000000000000000000000000000000000000000000000000011",
            "0x000000000000000000000000ad473eaa51821c915d03d9db5349a0586d55e55e"
          ],
          "data": "0x80db663b91d50261d3b6cf7c40f14617bc570551fdc50ae5d379aac6ea1fb5d50000000000000000000000000000000000000000000000000000000000000004000000000000000000000000000000000000000000000000000000000000006000000000000000000000000000000000000000000000000000000000000000043d0c000000000000000000000000000000000000000000000000000000000000",
          "blockHash": "0x2ae6fe4e7da82075eb6f24814ab90a52062dda5e8ec6d738b68ad6e7dfa5105c",
          "blockNumber": "0x2619682",
          "blockTimestamp": "0x694d89e7",
          "transactionHash": "0xdf2a4eb01ba247633c65d46ad5acd49e2c58ce3d64f69d92bb149f53e73368b4",
          "transactionIndex": "0x9d",
          "logIndex": "0x1d7",
          "removed": false
        }
      ],
      "logsBloom": "0x00000000000000000000000000000000000000000000000000000000000400000000000000000000000000000000000000000000000000000000000000000000000000000000000000000000000000000000000010000000000000000000000000000000000000000000000000000040000000004400000000000000000000000000000000000000000000000200000000000000000000040002000000000000000004000000000000000000000000000000000000000000000000004400000000001000000000000000000000400000000000000000000000000000000800000000000000000000000000000000000000000000000000800000000000000000",
      "type": "0x2",
      "transactionHash": "0xdf2a4eb01ba247633c65d46ad5acd49e2c58ce3d64f69d92bb149f53e73368b4",
      "transactionIndex": "0x9d",
      "blockHash": "0x2ae6fe4e7da82075eb6f24814ab90a52062dda5e8ec6d738b68ad6e7dfa5105c",
      "blockNumber": "0x2619682",
      "gasUsed": "0xd3f5",
      "effectiveGasPrice": "0x13ec8d",
      "blobGasUsed": "0x8a61",
      "from": "0xe403f79171b7050c78479f52e49e753d43e72c1a",
      "to": "0xad473eaa51821c915d03d9db5349a0586d55e55e",
      "contractAddress": null,
      "daFootprintGasScalar": "0x145",
      "l1BaseFeeScalar": "0x8dd",
      "l1BlobBaseFee": "0x185978",
      "l1BlobBaseFeeScalar": "0x101c12",
      "l1Fee": "0x4169c966",
      "l1GasPrice": "0x1aefad4",
      "l1GasUsed": "0x6da"
    },
    {
      "status": "0x1",
      "cumulativeGasUsed": "0x16e8793",
      "logs": [
        {
          "address": "0xad473eaa51821c915d03d9db5349a0586d55e55e",
          "topics": [
            "0x36e13ba1e45df3ecb8f6beb6274a1f5d4abf4c0792bb56700354f0d50bf0acd7",
            "0x0000000000000000000000000000000000000000000000000000000000000011",
            "0x000000000000000000000000e403f79171b7050c78479f52e49e753d43e72c1a"
          ],
          "data": "0x4442d021ec118fea7ce3641d3375363801af2e92adb1272f726cf20292795a62000000000000000000000000000000000000000000000000000000000000000500000000000000000000000000000000000000000000000000000000000000600000000000000000000000000000000000000000000000000000000000000004392a000000000000000000000000000000000000000000000000000000000000",
          "blockHash": "0x6b05fe68f41cb699e26cab447fe09b17a754ca10c72e8befb4d430300d14e42c",
          "blockNumber": "0x2619682",
          "blockTimestamp": "0x694d89e7",
          "transactionHash": "0x92db79c07aef6c9d6860887baabfefbb277c515643d22f0e58b9ac241944fdc5",
          "transactionIndex": "0x9e",
          "logIndex": "0x1d8",
          "removed": false
        },
        {
          "address": "0xad473eaa51821c915d03d9db5349a0586d55e55e",
          "topics": [
            "0x36e13ba1e45df3ecb8f6beb6274a1f5d4abf4c0792bb56700354f0d50bf0acd7",
            "0x0000000000000000000000000000000000000000000000000000000000000011",
            "0x000000000000000000000000ad473eaa51821c915d03d9db5349a0586d55e55e"
          ],
          "data": "0xe131cca08afe30756df90d03f27be0045be7f7a0d73031afbdf14f8a193cb8e6000000000000000000000000000000000000000000000000000000000000000600000000000000000000000000000000000000000000000000000000000000600000000000000000000000000000000000000000000000000000000000000004271a000000000000000000000000000000000000000000000000000000000000",
          "blockHash": "0x6b05fe68f41cb699e26cab447fe09b17a754ca10c72e8befb4d430300d14e42c",
          "blockNumber": "0x2619682",
          "blockTimestamp": "0x694d89e7",
          "transactionHash": "0x92db79c07aef6c9d6860887baabfefbb277c515643d22f0e58b9ac241944fdc5",
          "transactionIndex": "0x9e",
          "logIndex": "0x1d9",
          "removed": false
        }
      ],
      "logsBloom": "0x00000000000000000000000000000000000000000000000000000000000400000000000000000000000000000000000000000000000000000000000000000000000000000000000000000000000000000000000010000000000000000000000000000000000000000000000000000040000000004400000000000000000000000000000000000000000000000200000000000000000000040002000000000000000004000000000000000000000000000000000000000000000000004400000000001000000000000000000000400000000000000000000000000000000800000000000000000000000000000000000000000000000000800000000000000000",
      "type": "0x2",
      "transactionHash": "0x92db79c07aef6c9d6860887baabfefbb277c515643d22f0e58b9ac241944fdc5",
      "transactionIndex": "0x9e",
      "blockHash": "0x6b05fe68f41cb699e26cab447fe09b17a754ca10c72e8befb4d430300d14e42c",
      "blockNumber": "0x2619682",
      "gasUsed": "0xd3f5",
      "effectiveGasPrice": "0x13ec8d",
      "blobGasUsed": "0x8a61",
      "from": "0xe403f79171b7050c78479f52e49e753d43e72c1a",
      "to": "0xad473eaa51821c915d03d9db5349a0586d55e55e",
      "contractAddress": null,
      "daFootprintGasScalar": "0x145",
      "l1BaseFeeScalar": "0x8dd",
      "l1BlobBaseFee": "0x185978",
      "l1BlobBaseFeeScalar": "0x101c12",
      "l1Fee": "0x11b6b924",
      "l1GasPrice": "0x1aefad4",
      "l1GasUsed": "0x6da"
    },
    {
      "status": "0x1",
      "cumulativeGasUsed": "0x16f5b88",
      "logs": [
        {
          "address": "0xad473eaa51821c915d03d9db5349a0586d55e55e",
          "topics": [
            "0x36e13ba1e45df3ecb8f6beb6274a1f5d4abf4c0792bb56700354f0d50bf0acd7",
            "0x0000000000000000000000000000000000000000000000000000000000000011",
            "0x000000000000000000000000e403f79171b7050c78479f52e49e753d43e72c1a"
          ],
          "data": "0xc7183fc0754b5e7da3b74bf364f8affe59ffdf73627f9b8e7d4991d4453bd3640000000000000000000000000000000000000000000000000000000000000007000000000000000000000000000000000000000000000000000000000000006000000000000000000000000000000000000000000000000000000000000000043b2c000000000000000000000000000000000000000000000000000000000000",
          "blockHash": "0x2ae6fe4e7da82075eb6f24814ab90a52062dda5e8ec6d738b68ad6e7dfa5105c",
          "blockNumber": "0x2619682",
          "blockTimestamp": "0x694d89e7",
          "transactionHash": "0x0498afc9ee499cf6614d018b5d8fb30791cbf74144857b50d171bcf20744809e",
          "transactionIndex": "0x9f",
          "logIndex": "0x1da",
          "removed": false
        },
        {
          "address": "0xad473eaa51821c915d03d9db5349a0586d55e55e",
          "topics": [
            "0x36e13ba1e45df3ecb8f6beb6274a1f5d4abf4c0792bb56700354f0d50bf0acd7",
            "0x0000000000000000000000000000000000000000000000000000000000000011",
            "0x000000000000000000000000ad473eaa51821c915d03d9db5349a0586d55e55e"
          ],
          "data": "0xfa672e07d673b2d218b92d8ee0e059b5d1bfc274c1d1aaf67086a3dbe5f1587f0000000000000000000000000000000000000000000000000000000000000008000000000000000000000000000000000000000000000000000000000000006000000000000000000000000000000000000000000000000000000000000000042b13000000000000000000000000000000000000000000000000000000000000",
          "blockHash": "0x2ae6fe4e7da82075eb6f24814ab90a52062dda5e8ec6d738b68ad6e7dfa5105c",
          "blockNumber": "0x2619682",
          "blockTimestamp": "0x694d89e7",
          "transactionHash": "0x0498afc9ee499cf6614d018b5d8fb30791cbf74144857b50d171bcf20744809e",
          "transactionIndex": "0x9f",
          "logIndex": "0x1db",
          "removed": false
        }
      ],
      "logsBloom": "0x00000000000000000000000000000000000000000000000000000000000400000000000000000000000000000000000000000000000000000000000000000000000000000000000000000000000000000000000010000000000000000000000000000000000000000000000000000040000000004400000000000000000000000000000000000000000000000200000000000000000000040002000000000000000004000000000000000000000000000000000000000000000000004400000000001000000000000000000000400000000000000000000000000000000800000000000000000000000000000000000000000000000000800000000000000000",
      "type": "0x2",
      "transactionHash": "0x0498afc9ee499cf6614d018b5d8fb30791cbf74144857b50d171bcf20744809e",
      "transactionIndex": "0x9f",
      "blockHash": "0x2ae6fe4e7da82075eb6f24814ab90a52062dda5e8ec6d738b68ad6e7dfa5105c",
      "blockNumber": "0x2619682",
      "gasUsed": "0xd3f5",
      "effectiveGasPrice": "0x13ec8d",
      "blobGasUsed": "0x8a61",
      "from": "0xe403f79171b7050c78479f52e49e753d43e72c1a",
      "to": "0xad473eaa51821c915d03d9db5349a0586d55e55e",
      "contractAddress": null,
      "daFootprintGasScalar": "0x145",
      "l1BaseFeeScalar": "0x8dd",
      "l1BlobBaseFee": "0x185978",
      "l1BlobBaseFeeScalar": "0x101c12",
      "l1Fee": "0x4169c966",
      "l1GasPrice": "0x1aefad4",
      "l1GasUsed": "0x6da"
    },
    {
      "status": "0x1",
      "cumulativeGasUsed": "0x1707193",
      "logs": [
        {
          "address": "0xad473eaa51821c915d03d9db5349a0586d55e55e",
          "topics": [
            "0x36e13ba1e45df3ecb8f6beb6274a1f5d4abf4c0792bb56700354f0d50bf0acd7",
            "0x0000000000000000000000000000000000000000000000000000000000000012",
            "0x000000000000000000000000e403f79171b7050c78479f52e49e753d43e72c1a"
          ],
          "data": "0x90e396633e67bfb131a9c9b400ea842e0f29f45c4bc7872a0e80af48deb785040000000000000000000000000000000000000000000000000000000000000001000000000000000000000000000000000000000000000000000000000000006000000000000000000000000000000000000000000000000000000000000000043028000000000000000000000000000000000000000000000000000000000000",
          "blockHash": "0x2ae6fe4e7da82075eb6f24814ab90a52062dda5e8ec6d738b68ad6e7dfa5105c",
          "blockNumber": "0x2619682",
          "blockTimestamp": "0x694d89e7",
          "transactionHash": "0x60e6bb517ff83f26d981df2f9496b5c614ea05b44e85a5cd7620ec717f3f3a85",
          "transactionIndex": "0xa0",
          "logIndex": "0x1dc",
          "removed": false
        },
        {
          "address": "0xad473eaa51821c915d03d9db5349a0586d55e55e",
          "topics": [
            "0x36e13ba1e45df3ecb8f6beb6274a1f5d4abf4c0792bb56700354f0d50bf0acd7",
            "0x0000000000000000000000000000000000000000000000000000000000000012",
            "0x000000000000000000000000ad473eaa51821c915d03d9db5349a0586d55e55e"
          ],
          "data": "0x60e65b9330f95689004881ceb0c70271140d7a6c66037940d345a33188c341c30000000000000000000000000000000000000000000000000000000000000002000000000000000000000000000000000000000000000000000000000000006000000000000000000000000000000000000000000000000000000000000000043424000000000000000000000000000000000000000000000000000000000000",
          "blockHash": "0x2ae6fe4e7da82075eb6f24814ab90a52062dda5e8ec6d738b68ad6e7dfa5105c",
          "blockNumber": "0x2619682",
          "blockTimestamp": "0x694d89e7",
          "transactionHash": "0x60e6bb517ff83f26d981df2f9496b5c614ea05b44e85a5cd7620ec717f3f3a85",
          "transactionIndex": "0xa0",
          "logIndex": "0x1dd",
          "removed": false
        }
      ],
      "logsBloom": "0x00000000000000000000000000000000000000000000000000000000000400000000000000000000000000000000000000000000000000000000000000000000000000000000000000000000000000000000000010000000000000000000000000000000000000000000000000000040000000000400000000000000000000000000000000000000000000000200040000000000000000040002000000000000000004000000000000000000000000000000000000000040000000004000000000000000000000000400000000400000000000000000000000000000000800000000000000000000000000000000000000000000000000800000000000000000",
      "type": "0x2",
      "transactionHash": "0x60e6bb517ff83f26d981df2f9496b5c614ea05b44e85a5cd7620ec717f3f3a85",
      "transactionIndex": "0xa0",
      "blockHash": "0x2ae6fe4e7da82075eb6f24814ab90a52062dda5e8ec6d738b68ad6e7dfa5105c",
      "blockNumber": "0x2619682",
      "gasUsed": "0x1160b",
      "effectiveGasPrice": "0x13ec8d",
      "blobGasUsed": "0x8a61",
      "from": "0xe403f79171b7050c78479f52e49e753d43e72c1a",
      "to": "0xad473eaa51821c915d03d9db5349a0586d55e55e",
      "contractAddress": null,
      "daFootprintGasScalar": "0x145",
      "l1BaseFeeScalar": "0x8dd",
      "l1BlobBaseFee": "0x185978",
      "l1BlobBaseFeeScalar": "0x101c12",
      "l1Fee": "0x4169c966",
      "l1GasPrice": "0x1aefad4",
      "l1GasUsed": "0x6da"
    },
    {
      "status": "0x1",
      "cumulativeGasUsed": "0x1714588",
      "logs": [
        {
          "address": "0xad473eaa51821c915d03d9db5349a0586d55e55e",
          "topics": [
            "0x36e13ba1e45df3ecb8f6beb6274a1f5d4abf4c0792bb56700354f0d50bf0acd7",
            "0x0000000000000000000000000000000000000000000000000000000000000012",
            "0x000000000000000000000000e403f79171b7050c78479f52e49e753d43e72c1a"
          ],
          "data": "0xfc6cc8976638831fc84ceab234894f532e0338e7268a3303d4c0c1939f85dbb90000000000000000000000000000000000000000000000000000000000000003000000000000000000000000000000000000000000000000000000000000006000000000000000000000000000000000000000000000000000000000000000043222000000000000000000000000000000000000000000000000000000000000",
          "blockHash": "0x2ae6fe4e7da82075eb6f24814ab90a52062dda5e8ec6d738b68ad6e7dfa5105c",
          "blockNumber": "0x2619682",
          "blockTimestamp": "0x694d89e7",
          "transactionHash": "0x852789dd9643f76c2e62594f04ed818c2e31de419cfda46989a564fb89cdfba5",
          "transactionIndex": "0xa1",
          "logIndex": "0x1de",
          "removed": false
        },
        {
          "address": "0xad473eaa51821c915d03d9db5349a0586d55e55e",
          "topics": [
            "0x36e13ba1e45df3ecb8f6beb6274a1f5d4abf4c0792bb56700354f0d50bf0acd7",
            "0x0000000000000000000000000000000000000000000000000000000000000012",
            "0x000000000000000000000000ad473eaa51821c915d03d9db5349a0586d55e55e"
          ],
          "data": "0x0192d1e4a25acce6e7a2d4e8900eba6030b412ccc2d92d174c541b9d6055ff390000000000000000000000000000000000000000000000000000000000000004000000000000000000000000000000000000000000000000000000000000006000000000000000000000000000000000000000000000000000000000000000043c1b000000000000000000000000000000000000000000000000000000000000",
          "blockHash": "0x2ae6fe4e7da82075eb6f24814ab90a52062dda5e8ec6d738b68ad6e7dfa5105c",
          "blockNumber": "0x2619682",
          "blockTimestamp": "0x694d89e7",
          "transactionHash": "0x852789dd9643f76c2e62594f04ed818c2e31de419cfda46989a564fb89cdfba5",
          "transactionIndex": "0xa1",
          "logIndex": "0x1df",
          "removed": false
        }
      ],
      "logsBloom": "0x00000000000000000000000000000000000000000000000000000000000400000000000000000000000000000000000000000000000000000000000000000000000000000000000000000000000000000000000010000000000000000000000000000000000000000000000000000040000000000400000000000000000000000000000000000000000000000200040000000000000000040002000000000000000004000000000000000000000000000000000000000040000000004000000000000000000000000400000000400000000000000000000000000000000800000000000000000000000000000000000000000000000000800000000000000000",
      "type": "0x2",
      "transactionHash": "0x852789dd9643f76c2e62594f04ed818c2e31de419cfda46989a564fb89cdfba5",
      "transactionIndex": "0xa1",
      "blockHash": "0x2ae6fe4e7da82075eb6f24814ab90a52062dda5e8ec6d738b68ad6e7dfa5105c",
      "blockNumber": "0x2619682",
      "gasUsed": "0xd3f5",
      "effectiveGasPrice": "0x13ec8d",
      "blobGasUsed": "0x8a61",
      "from": "0xe403f79171b7050c78479f52e49e753d43e72c1a",
      "to": "0xad473eaa51821c915d03d9db5349a0586d55e55e",
      "contractAddress": null,
      "daFootprintGasScalar": "0x145",
      "l1BaseFeeScalar": "0x8dd",
      "l1BlobBaseFee": "0x185978",
      "l1BlobBaseFeeScalar": "0x101c12",
      "l1Fee": "0x4169c966",
      "l1GasPrice": "0x1aefad4",
      "l1GasUsed": "0x6da"
    },
    {
      "status": "0x1",
      "cumulativeGasUsed": "0x19c68fb",
      "logs": [
        {
          "address": "0xad473eaa51821c915d03d9db5349a0586d55e55e",
          "topics": [
            "0x36e13ba1e45df3ecb8f6beb6274a1f5d4abf4c0792bb56700354f0d50bf0acd7",
            "0x0000000000000000000000000000000000000000000000000000000000000012",
            "0x000000000000000000000000e403f79171b7050c78479f52e49e753d43e72c1a"
          ],
          "data": "0xbb9afb9861b8290cda948e4af3b636449a44547dca4c3acbc45e65f4e22aab400000000000000000000000000000000000000000000000000000000000000005000000000000000000000000000000000000000000000000000000000000006000000000000000000000000000000000000000000000000000000000000000043129000000000000000000000000000000000000000000000000000000000000",
          "blockHash": "0x39568b37f4eb7e1008d44fdda8f98fc11e88abf1d2f34705c061f03b77dbfc31",
          "blockNumber": "0x2619682",
          "blockTimestamp": "0x694d89e7",
          "transactionHash": "0x7f5f92a77da1a5ef685a28cfb073c40e72c7f4dc880f1fa0b687f2ec1117835b",
          "transactionIndex": "0xbd",
          "logIndex": "0x20a",
          "removed": false
        },
        {
          "address": "0xad473eaa51821c915d03d9db5349a0586d55e55e",
          "topics": [
            "0x36e13ba1e45df3ecb8f6beb6274a1f5d4abf4c0792bb56700354f0d50bf0acd7",
            "0x0000000000000000000000000000000000000000000000000000000000000012",
            "0x000000000000000000000000ad473eaa51821c915d03d9db5349a0586d55e55e"
          ],
          "data": "0x2760255e5f8c0d33599f68866f7b7bdd30ba831d73410b4548d9b6c2e2478d1c000000000000000000000000000000000000000000000000000000000000000600000000000000000000000000000000000000000000000000000000000000600000000000000000000000000000000000000000000000000000000000000004052b000000000000000000000000000000000000000000000000000000000000",
          "blockHash": "0x39568b37f4eb7e1008d44fdda8f98fc11e88abf1d2f34705c061f03b77dbfc31",
          "blockNumber": "0x2619682",
          "blockTimestamp": "0x694d89e7",
          "transactionHash": "0x7f5f92a77da1a5ef685a28cfb073c40e72c7f4dc880f1fa0b687f2ec1117835b",
          "transactionIndex": "0xbd",
          "logIndex": "0x20b",
          "removed": false
        }
      ],
      "logsBloom": "0x00000000000000000000000000000000000000000000000000000000000400000000000000000000000000000000000000000000000000000000000000000000000000000000000000000000000000000000000010000000000000000000000000000000000000000000000000000040000000000400000000000000000000000000000000000000000000000200040000000000000000040002000000000000000004000000000000000000000000000000000000000040000000004000000000000000000000000400000000400000000000000000000000000000000800000000000000000000000000000000000000000000000000800000000000000000",
      "type": "0x2",
      "transactionHash": "0x7f5f92a77da1a5ef685a28cfb073c40e72c7f4dc880f1fa0b687f2ec1117835b",
      "transactionIndex": "0xbd",
      "blockHash": "0x39568b37f4eb7e1008d44fdda8f98fc11e88abf1d2f34705c061f03b77dbfc31",
      "blockNumber": "0x2619682",
      "gasUsed": "0xd3f5",
      "effectiveGasPrice": "0x13ec8d",
      "blobGasUsed": "0x8a61",
      "from": "0xe403f79171b7050c78479f52e49e753d43e72c1a",
      "to": "0xad473eaa51821c915d03d9db5349a0586d55e55e",
      "contractAddress": null,
      "daFootprintGasScalar": "0x145",
      "l1BaseFeeScalar": "0x8dd",
      "l1BlobBaseFee": "0x185978",
      "l1BlobBaseFeeScalar": "0x101c12",
      "l1Fee": "0x4169c966",
      "l1GasPrice": "0x1aefad4",
      "l1GasUsed": "0x6da"
    },
    {
      "status": "0x1",
      "cumulativeGasUsed": "0x1beff84",
      "logs": [
        {
          "address": "0xad473eaa51821c915d03d9db5349a0586d55e55e",
          "topics": [
            "0x36e13ba1e45df3ecb8f6beb6274a1f5d4abf4c0792bb56700354f0d50bf0acd7",
            "0x0000000000000000000000000000000000000000000000000000000000000012",
            "0x000000000000000000000000e403f79171b7050c78479f52e49e753d43e72c1a"
          ],
          "data": "0x2a4b22ea265f7017c3f5040f1eec7d58baac29eda24dc699336157972973d8e10000000000000000000000000000000000000000000000000000000000000007000000000000000000000000000000000000000000000000000000000000006000000000000000000000000000000000000000000000000000000000000000043a2b000000000000000000000000000000000000000000000000000000000000",
          "blockHash": "0x4244cdcffc045e7d5c609ae735cf5589938c36ca563099f54ea3b6e106ff4a7d",
          "blockNumber": "0x2619682",
          "blockTimestamp": "0x694d89e7",
          "transactionHash": "0x0eee03ae05e8dd4dd3d9c5bb74ab155579856ed9fb677b42adf619c3db64c367",
          "transactionIndex": "0xd4",
          "logIndex": "0x220",
          "removed": false
        },
        {
          "address": "0xad473eaa51821c915d03d9db5349a0586d55e55e",
          "topics": [
            "0x36e13ba1e45df3ecb8f6beb6274a1f5d4abf4c0792bb56700354f0d50bf0acd7",
            "0x0000000000000000000000000000000000000000000000000000000000000012",
            "0x000000000000000000000000ad473eaa51821c915d03d9db5349a0586d55e55e"
          ],
          "data": "0x55f26890947882f1207e2a875a0d392857a077e9af9ea320f39541f65d9244dd0000000000000000000000000000000000000000000000000000000000000008000000000000000000000000000000000000000000000000000000000000006000000000000000000000000000000000000000000000000000000000000000042818000000000000000000000000000000000000000000000000000000000000",
          "blockHash": "0x4244cdcffc045e7d5c609ae735cf5589938c36ca563099f54ea3b6e106ff4a7d",
          "blockNumber": "0x2619682",
          "blockTimestamp": "0x694d89e7",
          "transactionHash": "0x0eee03ae05e8dd4dd3d9c5bb74ab155579856ed9fb677b42adf619c3db64c367",
          "transactionIndex": "0xd4",
          "logIndex": "0x221",
          "removed": false
        }
      ],
      "logsBloom": "0x00000000000000000000000000000000000000000000000000000000000400000000000000000000000000000000000000000000000000000000000000000000000000000000000000000000000000000000000010000000000000000000000000000000000000000000000000000040000000000400000000000000000000000000000000000000000000000200040000000000000000040002000000000000000004000000000000000000000000000000000000000040000000004000000000000000000000000400000000400000000000000000000000000000000800000000000000000000000000000000000000000000000000800000000000000000",
      "type": "0x2",
      "transactionHash": "0x0eee03ae05e8dd4dd3d9c5bb74ab155579856ed9fb677b42adf619c3db64c367",
      "transactionIndex": "0xd4",
      "blockHash": "0x4244cdcffc045e7d5c609ae735cf5589938c36ca563099f54ea3b6e106ff4a7d",
      "blockNumber": "0x2619682",
      "gasUsed": "0xd3f5",
      "effectiveGasPrice": "0x13ec8d",
      "blobGasUsed": "0x8a61",
      "from": "0xe403f79171b7050c78479f52e49e753d43e72c1a",
      "to": "0xad473eaa51821c915d03d9db5349a0586d55e55e",
      "contractAddress": null,
      "daFootprintGasScalar": "0x145",
      "l1BaseFeeScalar": "0x8dd",
      "l1BlobBaseFee": "0x185978",
      "l1BlobBaseFeeScalar": "0x101c12",
      "l1Fee": "0x4169c966",
      "l1GasPrice": "0x1aefad4",
      "l1GasUsed": "0x6da"
    },
    {
      "status": "0x1",
      "cumulativeGasUsed": "0x1c0159b",
      "logs": [
        {
          "address": "0xad473eaa51821c915d03d9db5349a0586d55e55e",
          "topics": [
            "0x36e13ba1e45df3ecb8f6beb6274a1f5d4abf4c0792bb56700354f0d50bf0acd7",
            "0x0000000000000000000000000000000000000000000000000000000000000013",
            "0x000000000000000000000000e403f79171b7050c78479f52e49e753d43e72c1a"
          ],
          "data": "0xe8773807ffd17108aa2d132cec684352f2c5c8337ff4659cc010d15b0551847d0000000000000000000000000000000000000000000000000000000000000001000000000000000000000000000000000000000000000000000000000000006000000000000000000000000000000000000000000000000000000000000000043424000000000000000000000000000000000000000000000000000000000000",
          "blockHash": "0x4244cdcffc045e7d5c609ae735cf5589938c36ca563099f54ea3b6e106ff4a7d",
          "blockNumber": "0x2619682",
          "blockTimestamp": "0x694d89e7",
          "transactionHash": "0xf978878fb8a15a819cecd48622207bf07393994412f1632fd99e2a7e850fdfae",
          "transactionIndex": "0xd5",
          "logIndex": "0x222",
          "removed": false
        },
        {
          "address": "0xad473eaa51821c915d03d9db5349a0586d55e55e",
          "topics": [
            "0x36e13ba1e45df3ecb8f6beb6274a1f5d4abf4c0792bb56700354f0d50bf0acd7",
            "0x0000000000000000000000000000000000000000000000000000000000000013",
            "0x000000000000000000000000ad473eaa51821c915d03d9db5349a0586d55e55e"
          ],
          "data": "0xf4bb36a023d03b095a88119a20a9000a252aea11d80408b3bd0c6bade87b4ba70000000000000000000000000000000000000000000000000000000000000002000000000000000000000000000000000000000000000000000000000000006000000000000000000000000000000000000000000000000000000000000000043424000000000000000000000000000000000000000000000000000000000000",
          "blockHash": "0x4244cdcffc045e7d5c609ae735cf5589938c36ca563099f54ea3b6e106ff4a7d",
          "blockNumber": "0x2619682",
          "blockTimestamp": "0x694d89e7",
          "transactionHash": "0xf978878fb8a15a819cecd48622207bf07393994412f1632fd99e2a7e850fdfae",
          "transactionIndex": "0xd5",
          "logIndex": "0x223",
          "removed": false
        }
      ],
      "logsBloom": "0x20000000000000000000000000800000000000000000000000000000000400000000000040000000000000000000000000000000000000000000000000000000000000000000000000000000000000000000000010000000000000000000000000000000000000000000000000000040000000000400000000000000000000000000000000000000000000000200000000000000000000040002000000000000000004000000000000000000000000000000000000000000000000004000000000000000000000000000000000400000000000000000000000000000000800000000000000000000000000000000000000000000000000800000000000000000",
      "type": "0x2",
      "transactionHash": "0xf978878fb8a15a819cecd48622207bf07393994412f1632fd99e2a7e850fdfae",
      "transactionIndex": "0xd5",
      "blockHash": "0x4244cdcffc045e7d5c609ae735cf5589938c36ca563099f54ea3b6e106ff4a7d",
      "blockNumber": "0x2619682",
      "gasUsed": "0x11617",
      "effectiveGasPrice": "0x13ec8d",
      "blobGasUsed": "0x8a61",
      "from": "0xe403f79171b7050c78479f52e49e753d43e72c1a",
      "to": "0xad473eaa51821c915d03d9db5349a0586d55e55e",
      "contractAddress": null,
      "daFootprintGasScalar": "0x145",
      "l1BaseFeeScalar": "0x8dd",
      "l1BlobBaseFee": "0x185978",
      "l1BlobBaseFeeScalar": "0x101c12",
      "l1Fee": "0x4169c966",
      "l1GasPrice": "0x1aefad4",
      "l1GasUsed": "0x6da"
    },
    {
      "status": "0x1",
      "cumulativeGasUsed": "0x1c0e990",
      "logs": [
        {
          "address": "0xad473eaa51821c915d03d9db5349a0586d55e55e",
          "topics": [
            "0x36e13ba1e45df3ecb8f6beb6274a1f5d4abf4c0792bb56700354f0d50bf0acd7",
            "0x0000000000000000000000000000000000000000000000000000000000000013",
            "0x000000000000000000000000e403f79171b7050c78479f52e49e753d43e72c1a"
          ],
          "data": "0x0692c63251d62c8f04eed454cc75e5bc199ba842e6b8106095e5d806a5e48cfa0000000000000000000000000000000000000000000000000000000000000003000000000000000000000000000000000000000000000000000000000000006000000000000000000000000000000000000000000000000000000000000000043323000000000000000000000000000000000000000000000000000000000000",
          "blockHash": "0x4244cdcffc045e7d5c609ae735cf5589938c36ca563099f54ea3b6e106ff4a7d",
          "blockNumber": "0x2619682",
          "blockTimestamp": "0x694d89e7",
          "transactionHash": "0x9a39b5ee54dd7afa9970339dba88f862bd9502585421fa184611d8a9d8519196",
          "transactionIndex": "0xd6",
          "logIndex": "0x224",
          "removed": false
        },
        {
          "address": "0xad473eaa51821c915d03d9db5349a0586d55e55e",
          "topics": [
            "0x36e13ba1e45df3ecb8f6beb6274a1f5d4abf4c0792bb56700354f0d50bf0acd7",
            "0x0000000000000000000000000000000000000000000000000000000000000013",
            "0x000000000000000000000000ad473eaa51821c915d03d9db5349a0586d55e55e"
          ],
          "data": "0x80db663b91d50261d3b6cf7c40f14617bc570551fdc50ae5d379aac6ea1fb5d50000000000000000000000000000000000000000000000000000000000000004000000000000000000000000000000000000000000000000000000000000006000000000000000000000000000000000000000000000000000000000000000043d0c000000000000000000000000000000000000000000000000000000000000",
          "blockHash": "0x4244cdcffc045e7d5c609ae735cf5589938c36ca563099f54ea3b6e106ff4a7d",
          "blockNumber": "0x2619682",
          "blockTimestamp": "0x694d89e7",
          "transactionHash": "0x9a39b5ee54dd7afa9970339dba88f862bd9502585421fa184611d8a9d8519196",
          "transactionIndex": "0xd6",
          "logIndex": "0x225",
          "removed": false
        }
      ],
      "logsBloom": "0x20000000000000000000000000800000000000000000000000000000000400000000000040000000000000000000000000000000000000000000000000000000000000000000000000000000000000000000000010000000000000000000000000000000000000000000000000000040000000000400000000000000000000000000000000000000000000000200000000000000000000040002000000000000000004000000000000000000000000000000000000000000000000004000000000000000000000000000000000400000000000000000000000000000000800000000000000000000000000000000000000000000000000800000000000000000",
      "type": "0x2",
      "transactionHash": "0x9a39b5ee54dd7afa9970339dba88f862bd9502585421fa184611d8a9d8519196",
      "transactionIndex": "0xd6",
      "blockHash": "0x4244cdcffc045e7d5c609ae735cf5589938c36ca563099f54ea3b6e106ff4a7d",
      "blockNumber": "0x2619682",
      "gasUsed": "0xd3f5",
      "effectiveGasPrice": "0x13ec8d",
      "blobGasUsed": "0x8a61",
      "from": "0xe403f79171b7050c78479f52e49e753d43e72c1a",
      "to": "0xad473eaa51821c915d03d9db5349a0586d55e55e",
      "contractAddress": null,
      "daFootprintGasScalar": "0x145",
      "l1BaseFeeScalar": "0x8dd",
      "l1BlobBaseFee": "0x185978",
      "l1BlobBaseFeeScalar": "0x101c12",
      "l1Fee": "0x4169c966",
      "l1GasPrice": "0x1aefad4",
      "l1GasUsed": "0x6da"
    },
    {
      "status": "0x1",
      "cumulativeGasUsed": "0x1c1bd85",
      "logs": [
        {
          "address": "0xad473eaa51821c915d03d9db5349a0586d55e55e",
          "topics": [
            "0x36e13ba1e45df3ecb8f6beb6274a1f5d4abf4c0792bb56700354f0d50bf0acd7",
            "0x0000000000000000000000000000000000000000000000000000000000000013",
            "0x000000000000000000000000e403f79171b7050c78479f52e49e753d43e72c1a"
          ],
          "data": "0x4442d021ec118fea7ce3641d3375363801af2e92adb1272f726cf20292795a62000000000000000000000000000000000000000000000000000000000000000500000000000000000000000000000000000000000000000000000000000000600000000000000000000000000000000000000000000000000000000000000004392a000000000000000000000000000000000000000000000000000000000000",
          "blockHash": "0x4244cdcffc045e7d5c609ae735cf5589938c36ca563099f54ea3b6e106ff4a7d",
          "blockNumber": "0x2619682",
          "blockTimestamp": "0x694d89e7",
          "transactionHash": "0x6725f10d8e0c9e466bd96bddc22e45bf9e6e98bcee906f9bbab198ea73f2ba24",
          "transactionIndex": "0xd7",
          "logIndex": "0x226",
          "removed": false
        },
        {
          "address": "0xad473eaa51821c915d03d9db5349a0586d55e55e",
          "topics": [
            "0x36e13ba1e45df3ecb8f6beb6274a1f5d4abf4c0792bb56700354f0d50bf0acd7",
            "0x0000000000000000000000000000000000000000000000000000000000000013",
            "0x000000000000000000000000ad473eaa51821c915d03d9db5349a0586d55e55e"
          ],
          "data": "0xe131cca08afe30756df90d03f27be0045be7f7a0d73031afbdf14f8a193cb8e6000000000000000000000000000000000000000000000000000000000000000600000000000000000000000000000000000000000000000000000000000000600000000000000000000000000000000000000000000000000000000000000004271a000000000000000000000000000000000000000000000000000000000000",
          "blockHash": "0x4244cdcffc045e7d5c609ae735cf5589938c36ca563099f54ea3b6e106ff4a7d",
          "blockNumber": "0x2619682",
          "blockTimestamp": "0x694d89e7",
          "transactionHash": "0x6725f10d8e0c9e466bd96bddc22e45bf9e6e98bcee906f9bbab198ea73f2ba24",
          "transactionIndex": "0xd7",
          "logIndex": "0x227",
          "removed": false
        }
      ],
      "logsBloom": "0x20000000000000000000000000800000000000000000000000000000000400000000000040000000000000000000000000000000000000000000000000000000000000000000000000000000000000000000000010000000000000000000000000000000000000000000000000000040000000000400000000000000000000000000000000000000000000000200000000000000000000040002000000000000000004000000000000000000000000000000000000000000000000004000000000000000000000000000000000400000000000000000000000000000000800000000000000000000000000000000000000000000000000800000000000000000",
      "type": "0x2",
      "transactionHash": "0x6725f10d8e0c9e466bd96bddc22e45bf9e6e98bcee906f9bbab198ea73f2ba24",
      "transactionIndex": "0xd7",
      "blockHash": "0x4244cdcffc045e7d5c609ae735cf5589938c36ca563099f54ea3b6e106ff4a7d",
      "blockNumber": "0x2619682",
      "gasUsed": "0xd3f5",
      "effectiveGasPrice": "0x13ec8d",
      "blobGasUsed": "0x8a61",
      "from": "0xe403f79171b7050c78479f52e49e753d43e72c1a",
      "to": "0xad473eaa51821c915d03d9db5349a0586d55e55e",
      "contractAddress": null,
      "daFootprintGasScalar": "0x145",
      "l1BaseFeeScalar": "0x8dd",
      "l1BlobBaseFee": "0x185978",
      "l1BlobBaseFeeScalar": "0x101c12",
      "l1Fee": "0x4169c966",
      "l1GasPrice": "0x1aefad4",
      "l1GasUsed": "0x6da"
    },
    {
      "status": "0x1",
      "cumulativeGasUsed": "0x1c2917a",
      "logs": [
        {
          "address": "0xad473eaa51821c915d03d9db5349a0586d55e55e",
          "topics": [
            "0x36e13ba1e45df3ecb8f6beb6274a1f5d4abf4c0792bb56700354f0d50bf0acd7",
            "0x0000000000000000000000000000000000000000000000000000000000000013",
            "0x000000000000000000000000e403f79171b7050c78479f52e49e753d43e72c1a"
          ],
          "data": "0xc7183fc0754b5e7da3b74bf364f8affe59ffdf73627f9b8e7d4991d4453bd3640000000000000000000000000000000000000000000000000000000000000007000000000000000000000000000000000000000000000000000000000000006000000000000000000000000000000000000000000000000000000000000000043b2c000000000000000000000000000000000000000000000000000000000000",
          "blockHash": "0x4244cdcffc045e7d5c609ae735cf5589938c36ca563099f54ea3b6e106ff4a7d",
          "blockNumber": "0x2619682",
          "blockTimestamp": "0x694d89e7",
          "transactionHash": "0x96d9dbee61763556e4af6c417a32a26785b1918187065bff2f861139929dbb54",
          "transactionIndex": "0xd8",
          "logIndex": "0x228",
          "removed": false
        },
        {
          "address": "0xad473eaa51821c915d03d9db5349a0586d55e55e",
          "topics": [
            "0x36e13ba1e45df3ecb8f6beb6274a1f5d4abf4c0792bb56700354f0d50bf0acd7",
            "0x0000000000000000000000000000000000000000000000000000000000000013",
            "0x000000000000000000000000ad473eaa51821c915d03d9db5349a0586d55e55e"
          ],
          "data": "0xfa672e07d673b2d218b92d8ee0e059b5d1bfc274c1d1aaf67086a3dbe5f1587f0000000000000000000000000000000000000000000000000000000000000008000000000000000000000000000000000000000000000000000000000000006000000000000000000000000000000000000000000000000000000000000000042b13000000000000000000000000000000000000000000000000000000000000",
          "blockHash": "0x4244cdcffc045e7d5c609ae735cf5589938c36ca563099f54ea3b6e106ff4a7d",
          "blockNumber": "0x2619682",
          "blockTimestamp": "0x694d89e7",
          "transactionHash": "0x96d9dbee61763556e4af6c417a32a26785b1918187065bff2f861139929dbb54",
          "transactionIndex": "0xd8",
          "logIndex": "0x229",
          "removed": false
        }
      ],
      "logsBloom": "0x20000000000000000000000000800000000000000000000000000000000400000000000040000000000000000000000000000000000000000000000000000000000000000000000000000000000000000000000010000000000000000000000000000000000000000000000000000040000000000400000000000000000000000000000000000000000000000200000000000000000000040002000000000000000004000000000000000000000000000000000000000000000000004000000000000000000000000000000000400000000000000000000000000000000800000000000000000000000000000000000000000000000000800000000000000000",
      "type": "0x2",
      "transactionHash": "0x96d9dbee61763556e4af6c417a32a26785b1918187065bff2f861139929dbb54",
      "transactionIndex": "0xd8",
      "blockHash": "0x4244cdcffc045e7d5c609ae735cf5589938c36ca563099f54ea3b6e106ff4a7d",
      "blockNumber": "0x2619682",
      "gasUsed": "0xd3f5",
      "effectiveGasPrice": "0x13ec8d",
      "blobGasUsed": "0x8a61",
      "from": "0xe403f79171b7050c78479f52e49e753d43e72c1a",
      "to": "0xad473eaa51821c915d03d9db5349a0586d55e55e",
      "contractAddress": null,
      "daFootprintGasScalar": "0x145",
      "l1BaseFeeScalar": "0x8dd",
      "l1BlobBaseFee": "0x185978",
      "l1BlobBaseFeeScalar": "0x101c12",
      "l1Fee": "0x4169c966",
      "l1GasPrice": "0x1aefad4",
      "l1GasUsed": "0x6da"
    },
    {
      "status": "0x1",
      "cumulativeGasUsed": "0x1c3a785",
      "logs": [
        {
          "address": "0xad473eaa51821c915d03d9db5349a0586d55e55e",
          "topics": [
            "0x36e13ba1e45df3ecb8f6beb6274a1f5d4abf4c0792bb56700354f0d50bf0acd7",
            "0x0000000000000000000000000000000000000000000000000000000000000014",
            "0x000000000000000000000000e403f79171b7050c78479f52e49e753d43e72c1a"
          ],
          "data": "0x90e396633e67bfb131a9c9b400ea842e0f29f45c4bc7872a0e80af48deb785040000000000000000000000000000000000000000000000000000000000000001000000000000000000000000000000000000000000000000000000000000006000000000000000000000000000000000000000000000000000000000000000043028000000000000000000000000000000000000000000000000000000000000",
          "blockHash": "0x4244cdcffc045e7d5c609ae735cf5589938c36ca563099f54ea3b6e106ff4a7d",
          "blockNumber": "0x2619682",
          "blockTimestamp": "0x694d89e7",
          "transactionHash": "0x7d140833866f19466715553af6d440021ef4528dcabf6e1db8e46f7f1e96a227",
          "transactionIndex": "0xd9",
          "logIndex": "0x22a",
          "removed": false
        },
        {
          "address": "0xad473eaa51821c915d03d9db5349a0586d55e55e",
          "topics": [
            "0x36e13ba1e45df3ecb8f6beb6274a1f5d4abf4c0792bb56700354f0d50bf0acd7",
            "0x0000000000000000000000000000000000000000000000000000000000000014",
            "0x000000000000000000000000ad473eaa51821c915d03d9db5349a0586d55e55e"
          ],
          "data": "0x60e65b9330f95689004881ceb0c70271140d7a6c66037940d345a33188c341c30000000000000000000000000000000000000000000000000000000000000002000000000000000000000000000000000000000000000000000000000000006000000000000000000000000000000000000000000000000000000000000000043424000000000000000000000000000000000000000000000000000000000000",
          "blockHash": "0x4244cdcffc045e7d5c609ae735cf5589938c36ca563099f54ea3b6e106ff4a7d",
          "blockNumber": "0x2619682",
          "blockTimestamp": "0x694d89e7",
          "transactionHash": "0x7d140833866f19466715553af6d440021ef4528dcabf6e1db8e46f7f1e96a227",
          "transactionIndex": "0xd9",
          "logIndex": "0x22b",
          "removed": false
        }
      ],
      "logsBloom": "0x00000000000000000000000000000000000000000000000000000000000400000000000000000000000000000000000000002000000000000000000000000000000000000000000000000000000000000000000010000000000000000000000000000000000000000000000000000040000000000400000000000000000000000000000000000000000000000200000000000000000400040002000000000000000004000000000020000000000000000000000000000000000000004000000000000000000000000000000000400000000000000000000000000000000800000000000000000000000000000000000000000000000000800000000000000000",
      "type": "0x2",
      "transactionHash": "0x7d140833866f19466715553af6d440021ef4528dcabf6e1db8e46f7f1e96a227",
      "transactionIndex": "0xd9",
      "blockHash": "0x4244cdcffc045e7d5c609ae735cf5589938c36ca563099f54ea3b6e106ff4a7d",
      "blockNumber": "0x2619682",
      "gasUsed": "0x1160b",
      "effectiveGasPrice": "0x13ec8d",
      "blobGasUsed": "0x8a61",
      "from": "0xe403f79171b7050c78479f52e49e753d43e72c1a",
      "to": "0xad473eaa51821c915d03d9db5349a0586d55e55e",
      "contractAddress": null,
      "daFootprintGasScalar": "0x145",
      "l1BaseFeeScalar": "0x8dd",
      "l1BlobBaseFee": "0x185978",
      "l1BlobBaseFeeScalar": "0x101c12",
      "l1Fee": "0x4169c966",
      "l1GasPrice": "0x1aefad4",
      "l1GasUsed": "0x6da"
    },
    {
      "status": "0x1",
      "cumulativeGasUsed": "0x1ececfe",
      "logs": [
        {
          "address": "0xad473eaa51821c915d03d9db5349a0586d55e55e",
          "topics": [
            "0x36e13ba1e45df3ecb8f6beb6274a1f5d4abf4c0792bb56700354f0d50bf0acd7",
            "0x0000000000000000000000000000000000000000000000000000000000000014",
            "0x000000000000000000000000e403f79171b7050c78479f52e49e753d43e72c1a"
          ],
          "data": "0xfc6cc8976638831fc84ceab234894f532e0338e7268a3303d4c0c1939f85dbb90000000000000000000000000000000000000000000000000000000000000003000000000000000000000000000000000000000000000000000000000000006000000000000000000000000000000000000000000000000000000000000000043222000000000000000000000000000000000000000000000000000000000000",
          "blockHash": "0x20c06d59420b7b2f925a617fbf49645fef1dea45430f4c6226a20193956bcf3b",
          "blockNumber": "0x2619682",
          "blockTimestamp": "0x694d89e7",
          "transactionHash": "0xc2907d8eae98fcfa6ab9b856d608d136e66d0b0bcb75d67583d5732f60abddc5",
          "transactionIndex": "0xf1",
          "logIndex": "0x245",
          "removed": false
        },
        {
          "address": "0xad473eaa51821c915d03d9db5349a0586d55e55e",
          "topics": [
            "0x36e13ba1e45df3ecb8f6beb6274a1f5d4abf4c0792bb56700354f0d50bf0acd7",
            "0x0000000000000000000000000000000000000000000000000000000000000014",
            "0x000000000000000000000000ad473eaa51821c915d03d9db5349a0586d55e55e"
          ],
          "data": "0x0192d1e4a25acce6e7a2d4e8900eba6030b412ccc2d92d174c541b9d6055ff390000000000000000000000000000000000000000000000000000000000000004000000000000000000000000000000000000000000000000000000000000006000000000000000000000000000000000000000000000000000000000000000043c1b000000000000000000000000000000000000000000000000000000000000",
          "blockHash": "0x20c06d59420b7b2f925a617fbf49645fef1dea45430f4c6226a20193956bcf3b",
          "blockNumber": "0x2619682",
          "blockTimestamp": "0x694d89e7",
          "transactionHash": "0xc2907d8eae98fcfa6ab9b856d608d136e66d0b0bcb75d67583d5732f60abddc5",
          "transactionIndex": "0xf1",
          "logIndex": "0x246",
          "removed": false
        }
      ],
      "logsBloom": "0x00000000000000000000000000000000000000000000000000000000000400000000000000000000000000000000000000002000000000000000000000000000000000000000000000000000000000000000000010000000000000000000000000000000000000000000000000000040000000000400000000000000000000000000000000000000000000000200000000000000000400040002000000000000000004000000000020000000000000000000000000000000000000004000000000000000000000000000000000400000000000000000000000000000000800000000000000000000000000000000000000000000000000800000000000000000",
      "type": "0x2",
      "transactionHash": "0xc2907d8eae98fcfa6ab9b856d608d136e66d0b0bcb75d67583d5732f60abddc5",
      "transactionIndex": "0xf1",
      "blockHash": "0x20c06d59420b7b2f925a617fbf49645fef1dea45430f4c6226a20193956bcf3b",
      "blockNumber": "0x2619682",
      "gasUsed": "0xd3f5",
      "effectiveGasPrice": "0x13ec8d",
      "blobGasUsed": "0x8a61",
      "from": "0xe403f79171b7050c78479f52e49e753d43e72c1a",
      "to": "0xad473eaa51821c915d03d9db5349a0586d55e55e",
      "contractAddress": null,
      "daFootprintGasScalar": "0x145",
      "l1BaseFeeScalar": "0x8dd",
      "l1BlobBaseFee": "0x185978",
      "l1BlobBaseFeeScalar": "0x101c12",
      "l1Fee": "0x414731c8",
      "l1GasPrice": "0x1aefad4",
      "l1GasUsed": "0x6da"
    },
    {
      "status": "0x1",
      "cumulativeGasUsed": "0x1edc0f3",
      "logs": [
        {
          "address": "0xad473eaa51821c915d03d9db5349a0586d55e55e",
          "topics": [
            "0x36e13ba1e45df3ecb8f6beb6274a1f5d4abf4c0792bb56700354f0d50bf0acd7",
            "0x0000000000000000000000000000000000000000000000000000000000000014",
            "0x000000000000000000000000e403f79171b7050c78479f52e49e753d43e72c1a"
          ],
          "data": "0xbb9afb9861b8290cda948e4af3b636449a44547dca4c3acbc45e65f4e22aab400000000000000000000000000000000000000000000000000000000000000005000000000000000000000000000000000000000000000000000000000000006000000000000000000000000000000000000000000000000000000000000000043129000000000000000000000000000000000000000000000000000000000000",
          "blockHash": "0x20c06d59420b7b2f925a617fbf49645fef1dea45430f4c6226a20193956bcf3b",
          "blockNumber": "0x2619682",
          "blockTimestamp": "0x694d89e7",
          "transactionHash": "0xbea8ffc49c0b91b3430ea3fef18ce67f85d831d9661db21c50513a8bb3cef4bd",
          "transactionIndex": "0xf2",
          "logIndex": "0x247",
          "removed": false
        },
        {
          "address": "0xad473eaa51821c915d03d9db5349a0586d55e55e",
          "topics": [
            "0x36e13ba1e45df3ecb8f6beb6274a1f5d4abf4c0792bb56700354f0d50bf0acd7",
            "0x0000000000000000000000000000000000000000000000000000000000000014",
            "0x000000000000000000000000ad473eaa51821c915d03d9db5349a0586d55e55e"
          ],
          "data": "0x2760255e5f8c0d33599f68866f7b7bdd30ba831d73410b4548d9b6c2e2478d1c000000000000000000000000000000000000000000000000000000000000000600000000000000000000000000000000000000000000000000000000000000600000000000000000000000000000000000000000000000000000000000000004052b000000000000000000000000000000000000000000000000000000000000",
          "blockHash": "0x20c06d59420b7b2f925a617fbf49645fef1dea45430f4c6226a20193956bcf3b",
          "blockNumber": "0x2619682",
          "blockTimestamp": "0x694d89e7",
          "transactionHash": "0xbea8ffc49c0b91b3430ea3fef18ce67f85d831d9661db21c50513a8bb3cef4bd",
          "transactionIndex": "0xf2",
          "logIndex": "0x248",
          "removed": false
        }
      ],
      "logsBloom": "0x00000000000000000000000000000000000000000000000000000000000400000000000000000000000000000000000000002000000000000000000000000000000000000000000000000000000000000000000010000000000000000000000000000000000000000000000000000040000000000400000000000000000000000000000000000000000000000200000000000000000400040002000000000000000004000000000020000000000000000000000000000000000000004000000000000000000000000000000000400000000000000000000000000000000800000000000000000000000000000000000000000000000000800000000000000000",
      "type": "0x2",
      "transactionHash": "0xbea8ffc49c0b91b3430ea3fef18ce67f85d831d9661db21c50513a8bb3cef4bd",
      "transactionIndex": "0xf2",
      "blockHash": "0x20c06d59420b7b2f925a617fbf49645fef1dea45430f4c6226a20193956bcf3b",
      "blockNumber": "0x2619682",
      "gasUsed": "0xd3f5",
      "effectiveGasPrice": "0x13ec8d",
      "blobGasUsed": "0x8a61",
      "from": "0xe403f79171b7050c78479f52e49e753d43e72c1a",
      "to": "0xad473eaa51821c915d03d9db5349a0586d55e55e",
      "contractAddress": null,
      "daFootprintGasScalar": "0x145",
      "l1BaseFeeScalar": "0x8dd",
      "l1BlobBaseFee": "0x185978",
      "l1BlobBaseFeeScalar": "0x101c12",
      "l1Fee": "0x414731c8",
      "l1GasPrice": "0x1aefad4",
      "l1GasUsed": "0x6da"
    },
    {
      "status": "0x1",
      "cumulativeGasUsed": "0x1ee94e8",
      "logs": [
        {
          "address": "0xad473eaa51821c915d03d9db5349a0586d55e55e",
          "topics": [
            "0x36e13ba1e45df3ecb8f6beb6274a1f5d4abf4c0792bb56700354f0d50bf0acd7",
            "0x0000000000000000000000000000000000000000000000000000000000000014",
            "0x000000000000000000000000e403f79171b7050c78479f52e49e753d43e72c1a"
          ],
          "data": "0x2a4b22ea265f7017c3f5040f1eec7d58baac29eda24dc699336157972973d8e10000000000000000000000000000000000000000000000000000000000000007000000000000000000000000000000000000000000000000000000000000006000000000000000000000000000000000000000000000000000000000000000043a2b000000000000000000000000000000000000000000000000000000000000",
          "blockHash": "0x20c06d59420b7b2f925a617fbf49645fef1dea45430f4c6226a20193956bcf3b",
          "blockNumber": "0x2619682",
          "blockTimestamp": "0x694d89e7",
          "transactionHash": "0x28d841aea4ae4b47575084ccb21b09579b849c77f89fec85a961e287643a988e",
          "transactionIndex": "0xf3",
          "logIndex": "0x249",
          "removed": false
        },
        {
          "address": "0xad473eaa51821c915d03d9db5349a0586d55e55e",
          "topics": [
            "0x36e13ba1e45df3ecb8f6beb6274a1f5d4abf4c0792bb56700354f0d50bf0acd7",
            "0x0000000000000000000000000000000000000000000000000000000000000014",
            "0x000000000000000000000000ad473eaa51821c915d03d9db5349a0586d55e55e"
          ],
          "data": "0x55f26890947882f1207e2a875a0d392857a077e9af9ea320f39541f65d9244dd0000000000000000000000000000000000000000000000000000000000000008000000000000000000000000000000000000000000000000000000000000006000000000000000000000000000000000000000000000000000000000000000042818000000000000000000000000000000000000000000000000000000000000",
          "blockHash": "0x20c06d59420b7b2f925a617fbf49645fef1dea45430f4c6226a20193956bcf3b",
          "blockNumber": "0x2619682",
          "blockTimestamp": "0x694d89e7",
          "transactionHash": "0x28d841aea4ae4b47575084ccb21b09579b849c77f89fec85a961e287643a988e",
          "transactionIndex": "0xf3",
          "logIndex": "0x24a",
          "removed": false
        }
      ],
      "logsBloom": "0x00000000000000000000000000000000000000000000000000000000000400000000000000000000000000000000000000002000000000000000000000000000000000000000000000000000000000000000000010000000000000000000000000000000000000000000000000000040000000000400000000000000000000000000000000000000000000000200000000000000000400040002000000000000000004000000000020000000000000000000000000000000000000004000000000000000000000000000000000400000000000000000000000000000000800000000000000000000000000000000000000000000000000800000000000000000",
      "type": "0x2",
      "transactionHash": "0x28d841aea4ae4b47575084ccb21b09579b849c77f89fec85a961e287643a988e",
      "transactionIndex": "0xf3",
      "blockHash": "0x20c06d59420b7b2f925a617fbf49645fef1dea45430f4c6226a20193956bcf3b",
      "blockNumber": "0x2619682",
      "gasUsed": "0xd3f5",
      "effectiveGasPrice": "0x13ec8d",
      "blobGasUsed": "0x8a61",
      "from": "0xe403f79171b7050c78479f52e49e753d43e72c1a",
      "to": "0xad473eaa51821c915d03d9db5349a0586d55e55e",
      "contractAddress": null,
      "daFootprintGasScalar": "0x145",
      "l1BaseFeeScalar": "0x8dd",
      "l1BlobBaseFee": "0x185978",
      "l1BlobBaseFeeScalar": "0x101c12",
      "l1Fee": "0x414731c8",
      "l1GasPrice": "0x1aefad4",
      "l1GasUsed": "0x6da"
    },
    {
      "status": "0x1",
      "cumulativeGasUsed": "0x20da9ee",
      "logs": [
        {
          "address": "0xad473eaa51821c915d03d9db5349a0586d55e55e",
          "topics": [
            "0x36e13ba1e45df3ecb8f6beb6274a1f5d4abf4c0792bb56700354f0d50bf0acd7",
            "0x0000000000000000000000000000000000000000000000000000000000000015",
            "0x000000000000000000000000e403f79171b7050c78479f52e49e753d43e72c1a"
          ],
          "data": "0xe8773807ffd17108aa2d132cec684352f2c5c8337ff4659cc010d15b0551847d0000000000000000000000000000000000000000000000000000000000000001000000000000000000000000000000000000000000000000000000000000006000000000000000000000000000000000000000000000000000000000000000043424000000000000000000000000000000000000000000000000000000000000",
          "blockHash": "0x7351417afbccebfb9bfcadd59e910eb0d66f02d181383e845be55b35c9465aac",
          "blockNumber": "0x2619682",
          "blockTimestamp": "0x694d89e7",
          "transactionHash": "0x5cba04cc077c83d77331061408533d4bc9f81b94bb9611ffe809789055ddd717",
          "transactionIndex": "0x10a",
          "logIndex": "0x258",
          "removed": false
        },
        {
          "address": "0xad473eaa51821c915d03d9db5349a0586d55e55e",
          "topics": [
            "0x36e13ba1e45df3ecb8f6beb6274a1f5d4abf4c0792bb56700354f0d50bf0acd7",
            "0x0000000000000000000000000000000000000000000000000000000000000015",
            "0x000000000000000000000000ad473eaa51821c915d03d9db5349a0586d55e55e"
          ],
          "data": "0xf4bb36a023d03b095a88119a20a9000a252aea11d80408b3bd0c6bade87b4ba70000000000000000000000000000000000000000000000000000000000000002000000000000000000000000000000000000000000000000000000000000006000000000000000000000000000000000000000000000000000000000000000043424000000000000000000000000000000000000000000000000000000000000",
          "blockHash": "0x7351417afbccebfb9bfcadd59e910eb0d66f02d181383e845be55b35c9465aac",
          "blockNumber": "0x2619682",
          "blockTimestamp": "0x694d89e7",
          "transactionHash": "0x5cba04cc077c83d77331061408533d4bc9f81b94bb9611ffe809789055ddd717",
          "transactionIndex": "0x10a",
          "logIndex": "0x259",
          "removed": false
        }
      ],
      "logsBloom": "0x00000000000000000000000000000000000000000000000000000000000400000000000000000000000000000000000000000000000000000000000000000000001000000000000000000000000000000000000010000000000000000000000000000000000000000000000000000040000000000400000000000000000000000000000000000000000000000200000000000000000000040002000000000000000004000000000000000000010000000000000000000000000000004000000000000000000000000000000000400000000000000000000000000000000800002000000000000000000000000000000000000000000000800000000000000000",
      "type": "0x2",
      "transactionHash": "0x5cba04cc077c83d77331061408533d4bc9f81b94bb9611ffe809789055ddd717",
      "transactionIndex": "0x10a",
      "blockHash": "0x7351417afbccebfb9bfcadd59e910eb0d66f02d181383e845be55b35c9465aac",
      "blockNumber": "0x2619682",
      "gasUsed": "0x11617",
      "effectiveGasPrice": "0x13ec8d",
      "blobGasUsed": "0x8a61",
      "from": "0xe403f79171b7050c78479f52e49e753d43e72c1a",
      "to": "0xad473eaa51821c915d03d9db5349a0586d55e55e",
      "contractAddress": null,
      "daFootprintGasScalar": "0x145",
      "l1BaseFeeScalar": "0x8dd",
      "l1BlobBaseFee": "0x185978",
      "l1BlobBaseFeeScalar": "0x101c12",
      "l1Fee": "0x414731c8",
      "l1GasPrice": "0x1aefad4",
      "l1GasUsed": "0x6da"
    },
    {
      "status": "0x1",
      "cumulativeGasUsed": "0x20e7de3",
      "logs": [
        {
          "address": "0xad473eaa51821c915d03d9db5349a0586d55e55e",
          "topics": [
            "0x36e13ba1e45df3ecb8f6beb6274a1f5d4abf4c0792bb56700354f0d50bf0acd7",
            "0x0000000000000000000000000000000000000000000000000000000000000015",
            "0x000000000000000000000000e403f79171b7050c78479f52e49e753d43e72c1a"
          ],
          "data": "0x0692c63251d62c8f04eed454cc75e5bc199ba842e6b8106095e5d806a5e48cfa0000000000000000000000000000000000000000000000000000000000000003000000000000000000000000000000000000000000000000000000000000006000000000000000000000000000000000000000000000000000000000000000043323000000000000000000000000000000000000000000000000000000000000",
          "blockHash": "0x7351417afbccebfb9bfcadd59e910eb0d66f02d181383e845be55b35c9465aac",
          "blockNumber": "0x2619682",
          "blockTimestamp": "0x694d89e7",
          "transactionHash": "0xd4c03f7356458675b3456cf05258c164ec049e18fd10c24f4d3abf764e3fec41",
          "transactionIndex": "0x10b",
          "logIndex": "0x25a",
          "removed": false
        },
        {
          "address": "0xad473eaa51821c915d03d9db5349a0586d55e55e",
          "topics": [
            "0x36e13ba1e45df3ecb8f6beb6274a1f5d4abf4c0792bb56700354f0d50bf0acd7",
            "0x0000000000000000000000000000000000000000000000000000000000000015",
            "0x000000000000000000000000ad473eaa51821c915d03d9db5349a0586d55e55e"
          ],
          "data": "0x80db663b91d50261d3b6cf7c40f14617bc570551fdc50ae5d379aac6ea1fb5d50000000000000000000000000000000000000000000000000000000000000004000000000000000000000000000000000000000000000000000000000000006000000000000000000000000000000000000000000000000000000000000000043d0c000000000000000000000000000000000000000000000000000000000000",
          "blockHash": "0x7351417afbccebfb9bfcadd59e910eb0d66f02d181383e845be55b35c9465aac",
          "blockNumber": "0x2619682",
          "blockTimestamp": "0x694d89e7",
          "transactionHash": "0xd4c03f7356458675b3456cf05258c164ec049e18fd10c24f4d3abf764e3fec41",
          "transactionIndex": "0x10b",
          "logIndex": "0x25b",
          "removed": false
        }
      ],
      "logsBloom": "0x00000000000000000000000000000000000000000000000000000000000400000000000000000000000000000000000000000000000000000000000000000000001000000000000000000000000000000000000010000000000000000000000000000000000000000000000000000040000000000400000000000000000000000000000000000000000000000200000000000000000000040002000000000000000004000000000000000000010000000000000000000000000000004000000000000000000000000000000000400000000000000000000000000000000800002000000000000000000000000000000000000000000000800000000000000000",
      "type": "0x2",
      "transactionHash": "0xd4c03f7356458675b3456cf05258c164ec049e18fd10c24f4d3abf764e3fec41",
      "transactionIndex": "0x10b",
      "blockHash": "0x7351417afbccebfb9bfcadd59e910eb0d66f02d181383e845be55b35c9465aac",
      "blockNumber": "0x2619682",
      "gasUsed": "0xd3f5",
      "effectiveGasPrice": "0x13ec8d",
      "blobGasUsed": "0x8a61",
      "from": "0xe403f79171b7050c78479f52e49e753d43e72c1a",
      "to": "0xad473eaa51821c915d03d9db5349a0586d55e55e",
      "contractAddress": null,
      "daFootprintGasScalar": "0x145",
      "l1BaseFeeScalar": "0x8dd",
      "l1BlobBaseFee": "0x185978",
      "l1BlobBaseFeeScalar": "0x101c12",
      "l1Fee": "0x414731c8",
      "l1GasPrice": "0x1aefad4",
      "l1GasUsed": "0x6da"
    },
    {
      "status": "0x1",
      "cumulativeGasUsed": "0x20f51d8",
      "logs": [
        {
          "address": "0xad473eaa51821c915d03d9db5349a0586d55e55e",
          "topics": [
            "0x36e13ba1e45df3ecb8f6beb6274a1f5d4abf4c0792bb56700354f0d50bf0acd7",
            "0x0000000000000000000000000000000000000000000000000000000000000015",
            "0x000000000000000000000000e403f79171b7050c78479f52e49e753d43e72c1a"
          ],
          "data": "0x4442d021ec118fea7ce3641d3375363801af2e92adb1272f726cf20292795a62000000000000000000000000000000000000000000000000000000000000000500000000000000000000000000000000000000000000000000000000000000600000000000000000000000000000000000000000000000000000000000000004392a000000000000000000000000000000000000000000000000000000000000",
          "blockHash": "0x7351417afbccebfb9bfcadd59e910eb0d66f02d181383e845be55b35c9465aac",
          "blockNumber": "0x2619682",
          "blockTimestamp": "0x694d89e7",
          "transactionHash": "0xd021c7a00c48ddf7d95ab6ccc7fdf06edef2df3bf453479452c0b02cab5e1717",
          "transactionIndex": "0x10c",
          "logIndex": "0x25c",
          "removed": false
        },
        {
          "address": "0xad473eaa51821c915d03d9db5349a0586d55e55e",
          "topics": [
            "0x36e13ba1e45df3ecb8f6beb6274a1f5d4abf4c0792bb56700354f0d50bf0acd7",
            "0x0000000000000000000000000000000000000000000000000000000000000015",
            "0x000000000000000000000000ad473eaa51821c915d03d9db5349a0586d55e55e"
          ],
          "data": "0xe131cca08afe30756df90d03f27be0045be7f7a0d73031afbdf14f8a193cb8e6000000000000000000000000000000000000000000000000000000000000000600000000000000000000000000000000000000000000000000000000000000600000000000000000000000000000000000000000000000000000000000000004271a000000000000000000000000000000000000000000000000000000000000",
          "blockHash": "0x7351417afbccebfb9bfcadd59e910eb0d66f02d181383e845be55b35c9465aac",
          "blockNumber": "0x2619682",
          "blockTimestamp": "0x694d89e7",
          "transactionHash": "0xd021c7a00c48ddf7d95ab6ccc7fdf06edef2df3bf453479452c0b02cab5e1717",
          "transactionIndex": "0x10c",
          "logIndex": "0x25d",
          "removed": false
        }
      ],
      "logsBloom": "0x00000000000000000000000000000000000000000000000000000000000400000000000000000000000000000000000000000000000000000000000000000000001000000000000000000000000000000000000010000000000000000000000000000000000000000000000000000040000000000400000000000000000000000000000000000000000000000200000000000000000000040002000000000000000004000000000000000000010000000000000000000000000000004000000000000000000000000000000000400000000000000000000000000000000800002000000000000000000000000000000000000000000000800000000000000000",
      "type": "0x2",
      "transactionHash": "0xd021c7a00c48ddf7d95ab6ccc7fdf06edef2df3bf453479452c0b02cab5e1717",
      "transactionIndex": "0x10c",
      "blockHash": "0x7351417afbccebfb9bfcadd59e910eb0d66f02d181383e845be55b35c9465aac",
      "blockNumber": "0x2619682",
      "gasUsed": "0xd3f5",
      "effectiveGasPrice": "0x13ec8d",
      "blobGasUsed": "0x8a61",
      "from": "0xe403f79171b7050c78479f52e49e753d43e72c1a",
      "to": "0xad473eaa51821c915d03d9db5349a0586d55e55e",
      "contractAddress": null,
      "daFootprintGasScalar": "0x145",
      "l1BaseFeeScalar": "0x8dd",
      "l1BlobBaseFee": "0x185978",
      "l1BlobBaseFeeScalar": "0x101c12",
      "l1Fee": "0x414731c8",
      "l1GasPrice": "0x1aefad4",
      "l1GasUsed": "0x6da"
    },
    {
      "status": "0x1",
      "cumulativeGasUsed": "0x21025cd",
      "logs": [
        {
          "address": "0xad473eaa51821c915d03d9db5349a0586d55e55e",
          "topics": [
            "0x36e13ba1e45df3ecb8f6beb6274a1f5d4abf4c0792bb56700354f0d50bf0acd7",
            "0x0000000000000000000000000000000000000000000000000000000000000015",
            "0x000000000000000000000000e403f79171b7050c78479f52e49e753d43e72c1a"
          ],
          "data": "0xc7183fc0754b5e7da3b74bf364f8affe59ffdf73627f9b8e7d4991d4453bd3640000000000000000000000000000000000000000000000000000000000000007000000000000000000000000000000000000000000000000000000000000006000000000000000000000000000000000000000000000000000000000000000043b2c000000000000000000000000000000000000000000000000000000000000",
          "blockHash": "0x7351417afbccebfb9bfcadd59e910eb0d66f02d181383e845be55b35c9465aac",
          "blockNumber": "0x2619682",
          "blockTimestamp": "0x694d89e7",
          "transactionHash": "0xde3e5bd53649dc0282cb7782ee44106f28b455f11c9c3572196df30a8b19102b",
          "transactionIndex": "0x10d",
          "logIndex": "0x25e",
          "removed": false
        },
        {
          "address": "0xad473eaa51821c915d03d9db5349a0586d55e55e",
          "topics": [
            "0x36e13ba1e45df3ecb8f6beb6274a1f5d4abf4c0792bb56700354f0d50bf0acd7",
            "0x0000000000000000000000000000000000000000000000000000000000000015",
            "0x000000000000000000000000ad473eaa51821c915d03d9db5349a0586d55e55e"
          ],
          "data": "0xfa672e07d673b2d218b92d8ee0e059b5d1bfc274c1d1aaf67086a3dbe5f1587f0000000000000000000000000000000000000000000000000000000000000008000000000000000000000000000000000000000000000000000000000000006000000000000000000000000000000000000000000000000000000000000000042b13000000000000000000000000000000000000000000000000000000000000",
          "blockHash": "0x7351417afbccebfb9bfcadd59e910eb0d66f02d181383e845be55b35c9465aac",
          "blockNumber": "0x2619682",
          "blockTimestamp": "0x694d89e7",
          "transactionHash": "0xde3e5bd53649dc0282cb7782ee44106f28b455f11c9c3572196df30a8b19102b",
          "transactionIndex": "0x10d",
          "logIndex": "0x25f",
          "removed": false
        }
      ],
      "logsBloom": "0x00000000000000000000000000000000000000000000000000000000000400000000000000000000000000000000000000000000000000000000000000000000001000000000000000000000000000000000000010000000000000000000000000000000000000000000000000000040000000000400000000000000000000000000000000000000000000000200000000000000000000040002000000000000000004000000000000000000010000000000000000000000000000004000000000000000000000000000000000400000000000000000000000000000000800002000000000000000000000000000000000000000000000800000000000000000",
      "type": "0x2",
      "transactionHash": "0xde3e5bd53649dc0282cb7782ee44106f28b455f11c9c3572196df30a8b19102b",
      "transactionIndex": "0x10d",
      "blockHash": "0x7351417afbccebfb9bfcadd59e910eb0d66f02d181383e845be55b35c9465aac",
      "blockNumber": "0x2619682",
      "gasUsed": "0xd3f5",
      "effectiveGasPrice": "0x13ec8d",
      "blobGasUsed": "0x8a61",
      "from": "0xe403f79171b7050c78479f52e49e753d43e72c1a",
      "to": "0xad473eaa51821c915d03d9db5349a0586d55e55e",
      "contractAddress": null,
      "daFootprintGasScalar": "0x145",
      "l1BaseFeeScalar": "0x8dd",
      "l1BlobBaseFee": "0x185978",
      "l1BlobBaseFeeScalar": "0x101c12",
      "l1Fee": "0x414731c8",
      "l1GasPrice": "0x1aefad4",
      "l1GasUsed": "0x6da"
    },
    {
      "status": "0x1",
      "cumulativeGasUsed": "0x2113bd8",
      "logs": [
        {
          "address": "0xad473eaa51821c915d03d9db5349a0586d55e55e",
          "topics": [
            "0x36e13ba1e45df3ecb8f6beb6274a1f5d4abf4c0792bb56700354f0d50bf0acd7",
            "0x0000000000000000000000000000000000000000000000000000000000000016",
            "0x000000000000000000000000e403f79171b7050c78479f52e49e753d43e72c1a"
          ],
          "data": "0x90e396633e67bfb131a9c9b400ea842e0f29f45c4bc7872a0e80af48deb785040000000000000000000000000000000000000000000000000000000000000001000000000000000000000000000000000000000000000000000000000000006000000000000000000000000000000000000000000000000000000000000000043028000000000000000000000000000000000000000000000000000000000000",
          "blockHash": "0x7351417afbccebfb9bfcadd59e910eb0d66f02d181383e845be55b35c9465aac",
          "blockNumber": "0x2619682",
          "blockTimestamp": "0x694d89e7",
          "transactionHash": "0x854bbdaece34da5074ae8f6dd70180f401f2e7d6656bd7a1e1f14ce8e54b1f19",
          "transactionIndex": "0x10e",
          "logIndex": "0x260",
          "removed": false
        },
        {
          "address": "0xad473eaa51821c915d03d9db5349a0586d55e55e",
          "topics": [
            "0x36e13ba1e45df3ecb8f6beb6274a1f5d4abf4c0792bb56700354f0d50bf0acd7",
            "0x0000000000000000000000000000000000000000000000000000000000000016",
            "0x000000000000000000000000ad473eaa51821c915d03d9db5349a0586d55e55e"
          ],
          "data": "0x60e65b9330f95689004881ceb0c70271140d7a6c66037940d345a33188c341c30000000000000000000000000000000000000000000000000000000000000002000000000000000000000000000000000000000000000000000000000000006000000000000000000000000000000000000000000000000000000000000000043424000000000000000000000000000000000000000000000000000000000000",
          "blockHash": "0x7351417afbccebfb9bfcadd59e910eb0d66f02d181383e845be55b35c9465aac",
          "blockNumber": "0x2619682",
          "blockTimestamp": "0x694d89e7",
          "transactionHash": "0x854bbdaece34da5074ae8f6dd70180f401f2e7d6656bd7a1e1f14ce8e54b1f19",
          "transactionIndex": "0x10e",
          "logIndex": "0x261",
          "removed": false
        }
      ],
      "logsBloom": "0x00000000000000000000000000000000000000000000000000000000000400000000000000000000000000000000000000000000000000000000000000000000000000000000000800000000000000000000000010000000000000000000000000000000000000000000000000000040200000000400000000000000000000000000000000000000000000000200000000000000000000040002000000000000000004000000000000000000000000000000000000000000000000004000000000000000000000000000000000400000000000000000000000000000000800000000000000000000000000000000000000000000000000800008000000000000",
      "type": "0x2",
      "transactionHash": "0x854bbdaece34da5074ae8f6dd70180f401f2e7d6656bd7a1e1f14ce8e54b1f19",
      "transactionIndex": "0x10e",
      "blockHash": "0x7351417afbccebfb9bfcadd59e910eb0d66f02d181383e845be55b35c9465aac",
      "blockNumber": "0x2619682",
      "gasUsed": "0x1160b",
      "effectiveGasPrice": "0x13ec8d",
      "blobGasUsed": "0x8a61",
      "from": "0xe403f79171b7050c78479f52e49e753d43e72c1a",
      "to": "0xad473eaa51821c915d03d9db5349a0586d55e55e",
      "contractAddress": null,
      "daFootprintGasScalar": "0x145",
      "l1BaseFeeScalar": "0x8dd",
      "l1BlobBaseFee": "0x185978",
      "l1BlobBaseFeeScalar": "0x101c12",
      "l1Fee": "0x414731c8",
      "l1GasPrice": "0x1aefad4",
      "l1GasUsed": "0x6da"
    },
    {
      "status": "0x1",
      "cumulativeGasUsed": "0x287b1f7",
      "logs": [
        {
          "address": "0xad473eaa51821c915d03d9db5349a0586d55e55e",
          "topics": [
            "0x36e13ba1e45df3ecb8f6beb6274a1f5d4abf4c0792bb56700354f0d50bf0acd7",
            "0x0000000000000000000000000000000000000000000000000000000000000016",
            "0x000000000000000000000000e403f79171b7050c78479f52e49e753d43e72c1a"
          ],
          "data": "0xfc6cc8976638831fc84ceab234894f532e0338e7268a3303d4c0c1939f85dbb90000000000000000000000000000000000000000000000000000000000000003000000000000000000000000000000000000000000000000000000000000006000000000000000000000000000000000000000000000000000000000000000043222000000000000000000000000000000000000000000000000000000000000",
          "blockHash": "0x70d02e2d21587a6ede9a03e92a3291553e184a63713e68a8092d62bea131984e",
          "blockNumber": "0x2619682",
          "blockTimestamp": "0x694d89e7",
          "transactionHash": "0xaedde5eb0e6b29747da38d04fa04eaa64e178106cc7c2d1d8ae453f29fe01f91",
          "transactionIndex": "0x128",
          "logIndex": "0x321",
          "removed": false
        },
        {
          "address": "0xad473eaa51821c915d03d9db5349a0586d55e55e",
          "topics": [
            "0x36e13ba1e45df3ecb8f6beb6274a1f5d4abf4c0792bb56700354f0d50bf0acd7",
            "0x0000000000000000000000000000000000000000000000000000000000000016",
            "0x000000000000000000000000ad473eaa51821c915d03d9db5349a0586d55e55e"
          ],
          "data": "0x0192d1e4a25acce6e7a2d4e8900eba6030b412ccc2d92d174c541b9d6055ff390000000000000000000000000000000000000000000000000000000000000004000000000000000000000000000000000000000000000000000000000000006000000000000000000000000000000000000000000000000000000000000000043c1b000000000000000000000000000000000000000000000000000000000000",
          "blockHash": "0x70d02e2d21587a6ede9a03e92a3291553e184a63713e68a8092d62bea131984e",
          "blockNumber": "0x2619682",
          "blockTimestamp": "0x694d89e7",
          "transactionHash": "0xaedde5eb0e6b29747da38d04fa04eaa64e178106cc7c2d1d8ae453f29fe01f91",
          "transactionIndex": "0x128",
          "logIndex": "0x322",
          "removed": false
        }
      ],
      "logsBloom": "0x00000000000000000000000000000000000000000000000000000000000400000000000000000000000000000000000000000000000000000000000000000000000000000000000800000000000000000000000010000000000000000000000000000000000000000000000000000040200000000400000000000000000000000000000000000000000000000200000000000000000000040002000000000000000004000000000000000000000000000000000000000000000000004000000000000000000000000000000000400000000000000000000000000000000800000000000000000000000000000000000000000000000000800008000000000000",
      "type": "0x2",
      "transactionHash": "0xaedde5eb0e6b29747da38d04fa04eaa64e178106cc7c2d1d8ae453f29fe01f91",
      "transactionIndex": "0x128",
      "blockHash": "0x70d02e2d21587a6ede9a03e92a3291553e184a63713e68a8092d62bea131984e",
      "blockNumber": "0x2619682",
      "gasUsed": "0xd3f5",
      "effectiveGasPrice": "0x13ec8d",
      "blobGasUsed": "0x8a61",
      "from": "0xe403f79171b7050c78479f52e49e753d43e72c1a",
      "to": "0xad473eaa51821c915d03d9db5349a0586d55e55e",
      "contractAddress": null,
      "daFootprintGasScalar": "0x145",
      "l1BaseFeeScalar": "0x8dd",
      "l1BlobBaseFee": "0x185978",
      "l1BlobBaseFeeScalar": "0x101c12",
      "l1Fee": "0x2afb793b",
      "l1GasPrice": "0x1aefad4",
      "l1GasUsed": "0x6da"
    },
    {
      "status": "0x1",
      "cumulativeGasUsed": "0x28885ec",
      "logs": [
        {
          "address": "0xad473eaa51821c915d03d9db5349a0586d55e55e",
          "topics": [
            "0x36e13ba1e45df3ecb8f6beb6274a1f5d4abf4c0792bb56700354f0d50bf0acd7",
            "0x0000000000000000000000000000000000000000000000000000000000000016",
            "0x000000000000000000000000e403f79171b7050c78479f52e49e753d43e72c1a"
          ],
          "data": "0xbb9afb9861b8290cda948e4af3b636449a44547dca4c3acbc45e65f4e22aab400000000000000000000000000000000000000000000000000000000000000005000000000000000000000000000000000000000000000000000000000000006000000000000000000000000000000000000000000000000000000000000000043129000000000000000000000000000000000000000000000000000000000000",
          "blockHash": "0x70d02e2d21587a6ede9a03e92a3291553e184a63713e68a8092d62bea131984e",
          "blockNumber": "0x2619682",
          "blockTimestamp": "0x694d89e7",
          "transactionHash": "0x6ba2442ff319a84ad8e45fc3a303083155a4205c40685b50e7aa6fdce555bcdb",
          "transactionIndex": "0x129",
          "logIndex": "0x323",
          "removed": false
        },
        {
          "address": "0xad473eaa51821c915d03d9db5349a0586d55e55e",
          "topics": [
            "0x36e13ba1e45df3ecb8f6beb6274a1f5d4abf4c0792bb56700354f0d50bf0acd7",
            "0x0000000000000000000000000000000000000000000000000000000000000016",
            "0x000000000000000000000000ad473eaa51821c915d03d9db5349a0586d55e55e"
          ],
          "data": "0x2760255e5f8c0d33599f68866f7b7bdd30ba831d73410b4548d9b6c2e2478d1c000000000000000000000000000000000000000000000000000000000000000600000000000000000000000000000000000000000000000000000000000000600000000000000000000000000000000000000000000000000000000000000004052b000000000000000000000000000000000000000000000000000000000000",
          "blockHash": "0x70d02e2d21587a6ede9a03e92a3291553e184a63713e68a8092d62bea131984e",
          "blockNumber": "0x2619682",
          "blockTimestamp": "0x694d89e7",
          "transactionHash": "0x6ba2442ff319a84ad8e45fc3a303083155a4205c40685b50e7aa6fdce555bcdb",
          "transactionIndex": "0x129",
          "logIndex": "0x324",
          "removed": false
        }
      ],
      "logsBloom": "0x00000000000000000000000000000000000000000000000000000000000400000000000000000000000000000000000000000000000000000000000000000000000000000000000800000000000000000000000010000000000000000000000000000000000000000000000000000040200000000400000000000000000000000000000000000000000000000200000000000000000000040002000000000000000004000000000000000000000000000000000000000000000000004000000000000000000000000000000000400000000000000000000000000000000800000000000000000000000000000000000000000000000000800008000000000000",
      "type": "0x2",
      "transactionHash": "0x6ba2442ff319a84ad8e45fc3a303083155a4205c40685b50e7aa6fdce555bcdb",
      "transactionIndex": "0x129",
      "blockHash": "0x70d02e2d21587a6ede9a03e92a3291553e184a63713e68a8092d62bea131984e",
      "blockNumber": "0x2619682",
      "gasUsed": "0xd3f5",
      "effectiveGasPrice": "0x13ec8d",
      "blobGasUsed": "0x8a61",
      "from": "0xe403f79171b7050c78479f52e49e753d43e72c1a",
      "to": "0xad473eaa51821c915d03d9db5349a0586d55e55e",
      "contractAddress": null,
      "daFootprintGasScalar": "0x145",
      "l1BaseFeeScalar": "0x8dd",
      "l1BlobBaseFee": "0x185978",
      "l1BlobBaseFeeScalar": "0x101c12",
      "l1Fee": "0x2afb793b",
      "l1GasPrice": "0x1aefad4",
      "l1GasUsed": "0x6da"
    },
    {
      "status": "0x1",
      "cumulativeGasUsed": "0x28959e1",
      "logs": [
        {
          "address": "0xad473eaa51821c915d03d9db5349a0586d55e55e",
          "topics": [
            "0x36e13ba1e45df3ecb8f6beb6274a1f5d4abf4c0792bb56700354f0d50bf0acd7",
            "0x0000000000000000000000000000000000000000000000000000000000000016",
            "0x000000000000000000000000e403f79171b7050c78479f52e49e753d43e72c1a"
          ],
          "data": "0x2a4b22ea265f7017c3f5040f1eec7d58baac29eda24dc699336157972973d8e10000000000000000000000000000000000000000000000000000000000000007000000000000000000000000000000000000000000000000000000000000006000000000000000000000000000000000000000000000000000000000000000043a2b000000000000000000000000000000000000000000000000000000000000",
          "blockHash": "0x6b05fe68f41cb699e26cab447fe09b17a754ca10c72e8befb4d430300d14e42c",
          "blockNumber": "0x2619682",
          "blockTimestamp": "0x694d89e7",
          "transactionHash": "0x2283c1fb35d52a9be4c9c1be873d9ab0d80e33e7fa1f108ad544d3408c5ac188",
          "transactionIndex": "0x12a",
          "logIndex": "0x325",
          "removed": false
        },
        {
          "address": "0xad473eaa51821c915d03d9db5349a0586d55e55e",
          "topics": [
            "0x36e13ba1e45df3ecb8f6beb6274a1f5d4abf4c0792bb56700354f0d50bf0acd7",
            "0x0000000000000000000000000000000000000000000000000000000000000016",
            "0x000000000000000000000000ad473eaa51821c915d03d9db5349a0586d55e55e"
          ],
          "data": "0x55f26890947882f1207e2a875a0d392857a077e9af9ea320f39541f65d9244dd0000000000000000000000000000000000000000000000000000000000000008000000000000000000000000000000000000000000000000000000000000006000000000000000000000000000000000000000000000000000000000000000042818000000000000000000000000000000000000000000000000000000000000",
          "blockHash": "0x6b05fe68f41cb699e26cab447fe09b17a754ca10c72e8befb4d430300d14e42c",
          "blockNumber": "0x2619682",
          "blockTimestamp": "0x694d89e7",
          "transactionHash": "0x2283c1fb35d52a9be4c9c1be873d9ab0d80e33e7fa1f108ad544d3408c5ac188",
          "transactionIndex": "0x12a",
          "logIndex": "0x326",
          "removed": false
        }
      ],
      "logsBloom": "0x00000000000000000000000000000000000000000000000000000000000400000000000000000000000000000000000000000000000000000000000000000000000000000000000800000000000000000000000010000000000000000000000000000000000000000000000000000040200000000400000000000000000000000000000000000000000000000200000000000000000000040002000000000000000004000000000000000000000000000000000000000000000000004000000000000000000000000000000000400000000000000000000000000000000800000000000000000000000000000000000000000000000000800008000000000000",
      "type": "0x2",
      "transactionHash": "0x2283c1fb35d52a9be4c9c1be873d9ab0d80e33e7fa1f108ad544d3408c5ac188",
      "transactionIndex": "0x12a",
      "blockHash": "0x6b05fe68f41cb699e26cab447fe09b17a754ca10c72e8befb4d430300d14e42c",
      "blockNumber": "0x2619682",
      "gasUsed": "0xd3f5",
      "effectiveGasPrice": "0x13ec8d",
      "blobGasUsed": "0x8a61",
      "from": "0xe403f79171b7050c78479f52e49e753d43e72c1a",
      "to": "0xad473eaa51821c915d03d9db5349a0586d55e55e",
      "contractAddress": null,
      "daFootprintGasScalar": "0x145",
      "l1BaseFeeScalar": "0x8dd",
      "l1BlobBaseFee": "0x185978",
      "l1BlobBaseFeeScalar": "0x101c12",
      "l1Fee": "0x11b6b924",
      "l1GasPrice": "0x1aefad4",
      "l1GasUsed": "0x6da"
    },
    {
      "status": "0x1",
      "cumulativeGasUsed": "0x28a6ff8",
      "logs": [
        {
          "address": "0xad473eaa51821c915d03d9db5349a0586d55e55e",
          "topics": [
            "0x36e13ba1e45df3ecb8f6beb6274a1f5d4abf4c0792bb56700354f0d50bf0acd7",
            "0x0000000000000000000000000000000000000000000000000000000000000017",
            "0x000000000000000000000000e403f79171b7050c78479f52e49e753d43e72c1a"
          ],
          "data": "0xe8773807ffd17108aa2d132cec684352f2c5c8337ff4659cc010d15b0551847d0000000000000000000000000000000000000000000000000000000000000001000000000000000000000000000000000000000000000000000000000000006000000000000000000000000000000000000000000000000000000000000000043424000000000000000000000000000000000000000000000000000000000000",
          "blockHash": "0x70d02e2d21587a6ede9a03e92a3291553e184a63713e68a8092d62bea131984e",
          "blockNumber": "0x2619682",
          "blockTimestamp": "0x694d89e7",
          "transactionHash": "0xfb99e8b7d2e8cc1dee36c67eb17f6c4dd0174600bd255885d6c471f3b541973e",
          "transactionIndex": "0x12b",
          "logIndex": "0x327",
          "removed": false
        },
        {
          "address": "0xad473eaa51821c915d03d9db5349a0586d55e55e",
          "topics": [
            "0x36e13ba1e45df3ecb8f6beb6274a1f5d4abf4c0792bb56700354f0d50bf0acd7",
            "0x0000000000000000000000000000000000000000000000000000000000000017",
            "0x000000000000000000000000ad473eaa51821c915d03d9db5349a0586d55e55e"
          ],
          "data": "0xf4bb36a023d03b095a88119a20a9000a252aea11d80408b3bd0c6bade87b4ba70000000000000000000000000000000000000000000000000000000000000002000000000000000000000000000000000000000000000000000000000000006000000000000000000000000000000000000000000000000000000000000000043424000000000000000000000000000000000000000000000000000000000000",
          "blockHash": "0x70d02e2d21587a6ede9a03e92a3291553e184a63713e68a8092d62bea131984e",
          "blockNumber": "0x2619682",
          "blockTimestamp": "0x694d89e7",
          "transactionHash": "0xfb99e8b7d2e8cc1dee36c67eb17f6c4dd0174600bd255885d6c471f3b541973e",
          "transactionIndex": "0x12b",
          "logIndex": "0x328",
          "removed": false
        }
      ],
      "logsBloom": "0x00000000000000000000000000000000000000000000000000000000000400000000000000000000000000000000000000001000000000000000001000000000000000000000000000000000000000000000000010000000000000000000000000000000000000000000000000000040000000000400000000000000000000000000000000000000000000000200000000000000000000040002000000000000000004000000000000000000000000000000000000000000000000004000000000000000000000000000000000400000000000000000000000000000000800000000000000000000000000000000000000000000000000800000000000080000",
      "type": "0x2",
      "transactionHash": "0xfb99e8b7d2e8cc1dee36c67eb17f6c4dd0174600bd255885d6c471f3b541973e",
      "transactionIndex": "0x12b",
      "blockHash": "0x70d02e2d21587a6ede9a03e92a3291553e184a63713e68a8092d62bea131984e",
      "blockNumber": "0x2619682",
      "gasUsed": "0x11617",
      "effectiveGasPrice": "0x13ec8d",
      "blobGasUsed": "0x8a61",
      "from": "0xe403f79171b7050c78479f52e49e753d43e72c1a",
      "to": "0xad473eaa51821c915d03d9db5349a0586d55e55e",
      "contractAddress": null,
      "daFootprintGasScalar": "0x145",
      "l1BaseFeeScalar": "0x8dd",
      "l1BlobBaseFee": "0x185978",
      "l1BlobBaseFeeScalar": "0x101c12",
      "l1Fee": "0x2afb793b",
      "l1GasPrice": "0x1aefad4",
      "l1GasUsed": "0x6da"
    },
    {
      "status": "0x1",
      "cumulativeGasUsed": "0x28b43ed",
      "logs": [
        {
          "address": "0xad473eaa51821c915d03d9db5349a0586d55e55e",
          "topics": [
            "0x36e13ba1e45df3ecb8f6beb6274a1f5d4abf4c0792bb56700354f0d50bf0acd7",
            "0x0000000000000000000000000000000000000000000000000000000000000017",
            "0x000000000000000000000000e403f79171b7050c78479f52e49e753d43e72c1a"
          ],
          "data": "0x0692c63251d62c8f04eed454cc75e5bc199ba842e6b8106095e5d806a5e48cfa0000000000000000000000000000000000000000000000000000000000000003000000000000000000000000000000000000000000000000000000000000006000000000000000000000000000000000000000000000000000000000000000043323000000000000000000000000000000000000000000000000000000000000",
          "blockHash": "0x70d02e2d21587a6ede9a03e92a3291553e184a63713e68a8092d62bea131984e",
          "blockNumber": "0x2619682",
          "blockTimestamp": "0x694d89e7",
          "transactionHash": "0x29435d7b9a8cf3cd09d656e0ce9ebc7fac65c248f0e34dfb4673237fd13f033b",
          "transactionIndex": "0x12c",
          "logIndex": "0x329",
          "removed": false
        },
        {
          "address": "0xad473eaa51821c915d03d9db5349a0586d55e55e",
          "topics": [
            "0x36e13ba1e45df3ecb8f6beb6274a1f5d4abf4c0792bb56700354f0d50bf0acd7",
            "0x0000000000000000000000000000000000000000000000000000000000000017",
            "0x000000000000000000000000ad473eaa51821c915d03d9db5349a0586d55e55e"
          ],
          "data": "0x80db663b91d50261d3b6cf7c40f14617bc570551fdc50ae5d379aac6ea1fb5d50000000000000000000000000000000000000000000000000000000000000004000000000000000000000000000000000000000000000000000000000000006000000000000000000000000000000000000000000000000000000000000000043d0c000000000000000000000000000000000000000000000000000000000000",
          "blockHash": "0x70d02e2d21587a6ede9a03e92a3291553e184a63713e68a8092d62bea131984e",
          "blockNumber": "0x2619682",
          "blockTimestamp": "0x694d89e7",
          "transactionHash": "0x29435d7b9a8cf3cd09d656e0ce9ebc7fac65c248f0e34dfb4673237fd13f033b",
          "transactionIndex": "0x12c",
          "logIndex": "0x32a",
          "removed": false
        }
      ],
      "logsBloom": "0x00000000000000000000000000000000000000000000000000000000000400000000000000000000000000000000000000001000000000000000001000000000000000000000000000000000000000000000000010000000000000000000000000000000000000000000000000000040000000000400000000000000000000000000000000000000000000000200000000000000000000040002000000000000000004000000000000000000000000000000000000000000000000004000000000000000000000000000000000400000000000000000000000000000000800000000000000000000000000000000000000000000000000800000000000080000",
      "type": "0x2",
      "transactionHash": "0x29435d7b9a8cf3cd09d656e0ce9ebc7fac65c248f0e34dfb4673237fd13f033b",
      "transactionIndex": "0x12c",
      "blockHash": "0x70d02e2d21587a6ede9a03e92a3291553e184a63713e68a8092d62bea131984e",
      "blockNumber": "0x2619682",
      "gasUsed": "0xd3f5",
      "effectiveGasPrice": "0x13ec8d",
      "blobGasUsed": "0x8a61",
      "from": "0xe403f79171b7050c78479f52e49e753d43e72c1a",
      "to": "0xad473eaa51821c915d03d9db5349a0586d55e55e",
      "contractAddress": null,
      "daFootprintGasScalar": "0x145",
      "l1BaseFeeScalar": "0x8dd",
      "l1BlobBaseFee": "0x185978",
      "l1BlobBaseFeeScalar": "0x101c12",
      "l1Fee": "0x2afb793b",
      "l1GasPrice": "0x1aefad4",
      "l1GasUsed": "0x6da"
    },
    {
      "status": "0x1",
      "cumulativeGasUsed": "0x28c17e2",
      "logs": [
        {
          "address": "0xad473eaa51821c915d03d9db5349a0586d55e55e",
          "topics": [
            "0x36e13ba1e45df3ecb8f6beb6274a1f5d4abf4c0792bb56700354f0d50bf0acd7",
            "0x0000000000000000000000000000000000000000000000000000000000000017",
            "0x000000000000000000000000e403f79171b7050c78479f52e49e753d43e72c1a"
          ],
          "data": "0x4442d021ec118fea7ce3641d3375363801af2e92adb1272f726cf20292795a62000000000000000000000000000000000000000000000000000000000000000500000000000000000000000000000000000000000000000000000000000000600000000000000000000000000000000000000000000000000000000000000004392a000000000000000000000000000000000000000000000000000000000000",
          "blockHash": "0x70d02e2d21587a6ede9a03e92a3291553e184a63713e68a8092d62bea131984e",
          "blockNumber": "0x2619682",
          "blockTimestamp": "0x694d89e7",
          "transactionHash": "0x854738830f6ec0ce1566161c000321d141bf1a20ecbe1ea9dcd1e6d22029f667",
          "transactionIndex": "0x12d",
          "logIndex": "0x32b",
          "removed": false
        },
        {
          "address": "0xad473eaa51821c915d03d9db5349a0586d55e55e",
          "topics": [
            "0x36e13ba1e45df3ecb8f6beb6274a1f5d4abf4c0792bb56700354f0d50bf0acd7",
            "0x0000000000000000000000000000000000000000000000000000000000000017",
            "0x000000000000000000000000ad473eaa51821c915d03d9db5349a0586d55e55e"
          ],
          "data": "0xe131cca08afe30756df90d03f27be0045be7f7a0d73031afbdf14f8a193cb8e6000000000000000000000000000000000000000000000000000000000000000600000000000000000000000000000000000000000000000000000000000000600000000000000000000000000000000000000000000000000000000000000004271a000000000000000000000000000000000000000000000000000000000000",
          "blockHash": "0x70d02e2d21587a6ede9a03e92a3291553e184a63713e68a8092d62bea131984e",
          "blockNumber": "0x2619682",
          "blockTimestamp": "0x694d89e7",
          "transactionHash": "0x854738830f6ec0ce1566161c000321d141bf1a20ecbe1ea9dcd1e6d22029f667",
          "transactionIndex": "0x12d",
          "logIndex": "0x32c",
          "removed": false
        }
      ],
      "logsBloom": "0x00000000000000000000000000000000000000000000000000000000000400000000000000000000000000000000000000001000000000000000001000000000000000000000000000000000000000000000000010000000000000000000000000000000000000000000000000000040000000000400000000000000000000000000000000000000000000000200000000000000000000040002000000000000000004000000000000000000000000000000000000000000000000004000000000000000000000000000000000400000000000000000000000000000000800000000000000000000000000000000000000000000000000800000000000080000",
      "type": "0x2",
      "transactionHash": "0x854738830f6ec0ce1566161c000321d141bf1a20ecbe1ea9dcd1e6d22029f667",
      "transactionIndex": "0x12d",
      "blockHash": "0x70d02e2d21587a6ede9a03e92a3291553e184a63713e68a8092d62bea131984e",
      "blockNumber": "0x2619682",
      "gasUsed": "0xd3f5",
      "effectiveGasPrice": "0x13ec8d",
      "blobGasUsed": "0x8a61",
      "from": "0xe403f79171b7050c78479f52e49e753d43e72c1a",
      "to": "0xad473eaa51821c915d03d9db5349a0586d55e55e",
      "contractAddress": null,
      "daFootprintGasScalar": "0x145",
      "l1BaseFeeScalar": "0x8dd",
      "l1BlobBaseFee": "0x185978",
      "l1BlobBaseFeeScalar": "0x101c12",
      "l1Fee": "0x2afb793b",
      "l1GasPrice": "0x1aefad4",
      "l1GasUsed": "0x6da"
    },
    {
      "status": "0x1",
      "cumulativeGasUsed": "0x2c8ef0c",
      "logs": [
        {
          "address": "0xad473eaa51821c915d03d9db5349a0586d55e55e",
          "topics": [
            "0x36e13ba1e45df3ecb8f6beb6274a1f5d4abf4c0792bb56700354f0d50bf0acd7",
            "0x0000000000000000000000000000000000000000000000000000000000000017",
            "0x000000000000000000000000e403f79171b7050c78479f52e49e753d43e72c1a"
          ],
          "data": "0xc7183fc0754b5e7da3b74bf364f8affe59ffdf73627f9b8e7d4991d4453bd3640000000000000000000000000000000000000000000000000000000000000007000000000000000000000000000000000000000000000000000000000000006000000000000000000000000000000000000000000000000000000000000000043b2c000000000000000000000000000000000000000000000000000000000000",
          "blockHash": "0x9a4822bb115e21faa9c5b43cb589fe06aad80016d51c32655bad7c4ebb78a416",
          "blockNumber": "0x2619682",
          "blockTimestamp": "0x694d89e7",
          "transactionHash": "0xbf1c4d42494cb57951c2c16594a4f9474f2536541835207dcb2c81f88d4cf70d",
          "transactionIndex": "0x148",
          "logIndex": "0x371",
          "removed": false
        },
        {
          "address": "0xad473eaa51821c915d03d9db5349a0586d55e55e",
          "topics": [
            "0x36e13ba1e45df3ecb8f6beb6274a1f5d4abf4c0792bb56700354f0d50bf0acd7",
            "0x0000000000000000000000000000000000000000000000000000000000000017",
            "0x000000000000000000000000ad473eaa51821c915d03d9db5349a0586d55e55e"
          ],
          "data": "0xfa672e07d673b2d218b92d8ee0e059b5d1bfc274c1d1aaf67086a3dbe5f1587f0000000000000000000000000000000000000000000000000000000000000008000000000000000000000000000000000000000000000000000000000000006000000000000000000000000000000000000000000000000000000000000000042b13000000000000000000000000000000000000000000000000000000000000",
          "blockHash": "0x9a4822bb115e21faa9c5b43cb589fe06aad80016d51c32655bad7c4ebb78a416",
          "blockNumber": "0x2619682",
          "blockTimestamp": "0x694d89e7",
          "transactionHash": "0xbf1c4d42494cb57951c2c16594a4f9474f2536541835207dcb2c81f88d4cf70d",
          "transactionIndex": "0x148",
          "logIndex": "0x372",
          "removed": false
        }
      ],
      "logsBloom": "0x00000000000000000000000000000000000000000000000000000000000400000000000000000000000000000000000000001000000000000000001000000000000000000000000000000000000000000000000010000000000000000000000000000000000000000000000000000040000000000400000000000000000000000000000000000000000000000200000000000000000000040002000000000000000004000000000000000000000000000000000000000000000000004000000000000000000000000000000000400000000000000000000000000000000800000000000000000000000000000000000000000000000000800000000000080000",
      "type": "0x2",
      "transactionHash": "0xbf1c4d42494cb57951c2c16594a4f9474f2536541835207dcb2c81f88d4cf70d",
      "transactionIndex": "0x148",
      "blockHash": "0x9a4822bb115e21faa9c5b43cb589fe06aad80016d51c32655bad7c4ebb78a416",
      "blockNumber": "0x2619682",
      "gasUsed": "0xd3f5",
      "effectiveGasPrice": "0x13ec8d",
      "blobGasUsed": "0x8a61",
      "from": "0xe403f79171b7050c78479f52e49e753d43e72c1a",
      "to": "0xad473eaa51821c915d03d9db5349a0586d55e55e",
      "contractAddress": null,
      "daFootprintGasScalar": "0x145",
      "l1BaseFeeScalar": "0x8dd",
      "l1BlobBaseFee": "0x185978",
      "l1BlobBaseFeeScalar": "0x101c12",
      "l1Fee": "0x4169c966",
      "l1GasPrice": "0x1aefad4",
      "l1GasUsed": "0x6da"
    },
    {
      "status": "0x1",
      "cumulativeGasUsed": "0x2ca0517",
      "logs": [
        {
          "address": "0xad473eaa51821c915d03d9db5349a0586d55e55e",
          "topics": [
            "0x36e13ba1e45df3ecb8f6beb6274a1f5d4abf4c0792bb56700354f0d50bf0acd7",
            "0x0000000000000000000000000000000000000000000000000000000000000018",
            "0x000000000000000000000000e403f79171b7050c78479f52e49e753d43e72c1a"
          ],
          "data": "0x90e396633e67bfb131a9c9b400ea842e0f29f45c4bc7872a0e80af48deb785040000000000000000000000000000000000000000000000000000000000000001000000000000000000000000000000000000000000000000000000000000006000000000000000000000000000000000000000000000000000000000000000043028000000000000000000000000000000000000000000000000000000000000",
          "blockHash": "0x9a4822bb115e21faa9c5b43cb589fe06aad80016d51c32655bad7c4ebb78a416",
          "blockNumber": "0x2619682",
          "blockTimestamp": "0x694d89e7",
          "transactionHash": "0xd38a835eb6fec8737922cf9ba35274ac97a60d04a9953afe991365e75f4ad23d",
          "transactionIndex": "0x149",
          "logIndex": "0x373",
          "removed": false
        },
        {
          "address": "0xad473eaa51821c915d03d9db5349a0586d55e55e",
          "topics": [
            "0x36e13ba1e45df3ecb8f6beb6274a1f5d4abf4c0792bb56700354f0d50bf0acd7",
            "0x0000000000000000000000000000000000000000000000000000000000000018",
            "0x000000000000000000000000ad473eaa51821c915d03d9db5349a0586d55e55e"
          ],
          "data": "0x60e65b9330f95689004881ceb0c70271140d7a6c66037940d345a33188c341c30000000000000000000000000000000000000000000000000000000000000002000000000000000000000000000000000000000000000000000000000000006000000000000000000000000000000000000000000000000000000000000000043424000000000000000000000000000000000000000000000000000000000000",
          "blockHash": "0x9a4822bb115e21faa9c5b43cb589fe06aad80016d51c32655bad7c4ebb78a416",
          "blockNumber": "0x2619682",
          "blockTimestamp": "0x694d89e7",
          "transactionHash": "0xd38a835eb6fec8737922cf9ba35274ac97a60d04a9953afe991365e75f4ad23d",
          "transactionIndex": "0x149",
          "logIndex": "0x374",
          "removed": false
        }
      ],
      "logsBloom": "0x00000000000000000000000000000000000000000000000000000000000400000000000000000000000000000000000000000000000000000000000000000000000000000000000000000000000000000040000010000000000000000000000000000000000000000000000000000040000000000400000000000000000000000000000000000000000000000200000000000000000000040002000000000000000004000000000000000000000000000000000000000000000000004000000000100000000000000000000000400000000000000000000020000000000800000000000000000000000000000000000000000000000000800000000000000000",
      "type": "0x2",
      "transactionHash": "0xd38a835eb6fec8737922cf9ba35274ac97a60d04a9953afe991365e75f4ad23d",
      "transactionIndex": "0x149",
      "blockHash": "0x9a4822bb115e21faa9c5b43cb589fe06aad80016d51c32655bad7c4ebb78a416",
      "blockNumber": "0x2619682",
      "gasUsed": "0x1160b",
      "effectiveGasPrice": "0x13ec8d",
      "blobGasUsed": "0x8a61",
      "from": "0xe403f79171b7050c78479f52e49e753d43e72c1a",
      "to": "0xad473eaa51821c915d03d9db5349a0586d55e55e",
      "contractAddress": null,
      "daFootprintGasScalar": "0x145",
      "l1BaseFeeScalar": "0x8dd",
      "l1BlobBaseFee": "0x185978",
      "l1BlobBaseFeeScalar": "0x101c12",
      "l1Fee": "0x4169c966",
      "l1GasPrice": "0x1aefad4",
      "l1GasUsed": "0x6da"
    },
    {
      "status": "0x1",
      "cumulativeGasUsed": "0x7d0a59",
      "logs": [
        {
          "address": "0xad473eaa51821c915d03d9db5349a0586d55e55e",
          "topics": [
            "0x36e13ba1e45df3ecb8f6beb6274a1f5d4abf4c0792bb56700354f0d50bf0acd7",
            "0x0000000000000000000000000000000000000000000000000000000000000018",
            "0x000000000000000000000000e403f79171b7050c78479f52e49e753d43e72c1a"
          ],
          "data": "0xfc6cc8976638831fc84ceab234894f532e0338e7268a3303d4c0c1939f85dbb90000000000000000000000000000000000000000000000000000000000000003000000000000000000000000000000000000000000000000000000000000006000000000000000000000000000000000000000000000000000000000000000043222000000000000000000000000000000000000000000000000000000000000",
          "blockHash": "0x30981ba4a3e0be2155bcf0bb713cb2582117b0f38e42b987cc57e6649dfa1bf4",
          "blockNumber": "0x2619683",
          "blockTimestamp": "0x694d89e9",
          "transactionHash": "0xad2c970c52bb79fc933d4267fbd230385ca59c27ca1392bdd4e761a2155f5929",
          "transactionIndex": "0x44",
          "logIndex": "0xb6",
          "removed": false
        },
        {
          "address": "0xad473eaa51821c915d03d9db5349a0586d55e55e",
          "topics": [
            "0x36e13ba1e45df3ecb8f6beb6274a1f5d4abf4c0792bb56700354f0d50bf0acd7",
            "0x0000000000000000000000000000000000000000000000000000000000000018",
            "0x000000000000000000000000ad473eaa51821c915d03d9db5349a0586d55e55e"
          ],
          "data": "0x0192d1e4a25acce6e7a2d4e8900eba6030b412ccc2d92d174c541b9d6055ff390000000000000000000000000000000000000000000000000000000000000004000000000000000000000000000000000000000000000000000000000000006000000000000000000000000000000000000000000000000000000000000000043c1b000000000000000000000000000000000000000000000000000000000000",
          "blockHash": "0x30981ba4a3e0be2155bcf0bb713cb2582117b0f38e42b987cc57e6649dfa1bf4",
          "blockNumber": "0x2619683",
          "blockTimestamp": "0x694d89e9",
          "transactionHash": "0xad2c970c52bb79fc933d4267fbd230385ca59c27ca1392bdd4e761a2155f5929",
          "transactionIndex": "0x44",
          "logIndex": "0xb7",
          "removed": false
        }
      ],
      "logsBloom": "0x00000000000000000000000000000000000000000000000000000000000400000000000000000000000000000000000000000000000000000000000000000000000000000000000000000000000000000040000010000000000000000000000000000000000000000000000000000040000000000400000000000000000000000000000000000000000000000200000000000000000000040002000000000000000004000000000000000000000000000000000000000000000000004000000000100000000000000000000000400000000000000000000020000000000800000000000000000000000000000000000000000000000000800000000000000000",
      "type": "0x2",
      "transactionHash": "0xad2c970c52bb79fc933d4267fbd230385ca59c27ca1392bdd4e761a2155f5929",
      "transactionIndex": "0x44",
      "blockHash": "0x30981ba4a3e0be2155bcf0bb713cb2582117b0f38e42b987cc57e6649dfa1bf4",
      "blockNumber": "0x2619683",
      "gasUsed": "0xdee5",
      "effectiveGasPrice": "0x13e9a8",
      "blobGasUsed": "0x8a61",
      "from": "0xe403f79171b7050c78479f52e49e753d43e72c1a",
      "to": "0xad473eaa51821c915d03d9db5349a0586d55e55e",
      "contractAddress": null,
      "daFootprintGasScalar": "0x145",
      "l1BaseFeeScalar": "0x8dd",
      "l1BlobBaseFee": "0x185978",
      "l1BlobBaseFeeScalar": "0x101c12",
      "l1Fee": "0x4169c966",
      "l1GasPrice": "0x1aefad4",
      "l1GasUsed": "0x6da"
    },
    {
      "status": "0x1",
      "cumulativeGasUsed": "0x7dde4e",
      "logs": [
        {
          "address": "0xad473eaa51821c915d03d9db5349a0586d55e55e",
          "topics": [
            "0x36e13ba1e45df3ecb8f6beb6274a1f5d4abf4c0792bb56700354f0d50bf0acd7",
            "0x0000000000000000000000000000000000000000000000000000000000000018",
            "0x000000000000000000000000e403f79171b7050c78479f52e49e753d43e72c1a"
          ],
          "data": "0xbb9afb9861b8290cda948e4af3b636449a44547dca4c3acbc45e65f4e22aab400000000000000000000000000000000000000000000000000000000000000005000000000000000000000000000000000000000000000000000000000000006000000000000000000000000000000000000000000000000000000000000000043129000000000000000000000000000000000000000000000000000000000000",
          "blockHash": "0x30981ba4a3e0be2155bcf0bb713cb2582117b0f38e42b987cc57e6649dfa1bf4",
          "blockNumber": "0x2619683",
          "blockTimestamp": "0x694d89e9",
          "transactionHash": "0x89208f116bb85d894370c5028bca9b957039f80961b87c0cf8eaf8decc2687f9",
          "transactionIndex": "0x45",
          "logIndex": "0xb8",
          "removed": false
        },
        {
          "address": "0xad473eaa51821c915d03d9db5349a0586d55e55e",
          "topics": [
            "0x36e13ba1e45df3ecb8f6beb6274a1f5d4abf4c0792bb56700354f0d50bf0acd7",
            "0x0000000000000000000000000000000000000000000000000000000000000018",
            "0x000000000000000000000000ad473eaa51821c915d03d9db5349a0586d55e55e"
          ],
          "data": "0x2760255e5f8c0d33599f68866f7b7bdd30ba831d73410b4548d9b6c2e2478d1c000000000000000000000000000000000000000000000000000000000000000600000000000000000000000000000000000000000000000000000000000000600000000000000000000000000000000000000000000000000000000000000004052b000000000000000000000000000000000000000000000000000000000000",
          "blockHash": "0x30981ba4a3e0be2155bcf0bb713cb2582117b0f38e42b987cc57e6649dfa1bf4",
          "blockNumber": "0x2619683",
          "blockTimestamp": "0x694d89e9",
          "transactionHash": "0x89208f116bb85d894370c5028bca9b957039f80961b87c0cf8eaf8decc2687f9",
          "transactionIndex": "0x45",
          "logIndex": "0xb9",
          "removed": false
        }
      ],
      "logsBloom": "0x00000000000000000000000000000000000000000000000000000000000400000000000000000000000000000000000000000000000000000000000000000000000000000000000000000000000000000040000010000000000000000000000000000000000000000000000000000040000000000400000000000000000000000000000000000000000000000200000000000000000000040002000000000000000004000000000000000000000000000000000000000000000000004000000000100000000000000000000000400000000000000000000020000000000800000000000000000000000000000000000000000000000000800000000000000000",
      "type": "0x2",
      "transactionHash": "0x89208f116bb85d894370c5028bca9b957039f80961b87c0cf8eaf8decc2687f9",
      "transactionIndex": "0x45",
      "blockHash": "0x30981ba4a3e0be2155bcf0bb713cb2582117b0f38e42b987cc57e6649dfa1bf4",
      "blockNumber": "0x2619683",
      "gasUsed": "0xd3f5",
      "effectiveGasPrice": "0x13e9a8",
      "blobGasUsed": "0x8a61",
      "from": "0xe403f79171b7050c78479f52e49e753d43e72c1a",
      "to": "0xad473eaa51821c915d03d9db5349a0586d55e55e",
      "contractAddress": null,
      "daFootprintGasScalar": "0x145",
      "l1BaseFeeScalar": "0x8dd",
      "l1BlobBaseFee": "0x185978",
      "l1BlobBaseFeeScalar": "0x101c12",
      "l1Fee": "0x4169c966",
      "l1GasPrice": "0x1aefad4",
      "l1GasUsed": "0x6da"
    },
    {
      "status": "0x1",
      "cumulativeGasUsed": "0x7eb243",
      "logs": [
        {
          "address": "0xad473eaa51821c915d03d9db5349a0586d55e55e",
          "topics": [
            "0x36e13ba1e45df3ecb8f6beb6274a1f5d4abf4c0792bb56700354f0d50bf0acd7",
            "0x0000000000000000000000000000000000000000000000000000000000000018",
            "0x000000000000000000000000e403f79171b7050c78479f52e49e753d43e72c1a"
          ],
          "data": "0x2a4b22ea265f7017c3f5040f1eec7d58baac29eda24dc699336157972973d8e10000000000000000000000000000000000000000000000000000000000000007000000000000000000000000000000000000000000000000000000000000006000000000000000000000000000000000000000000000000000000000000000043a2b000000000000000000000000000000000000000000000000000000000000",
          "blockHash": "0x30981ba4a3e0be2155bcf0bb713cb2582117b0f38e42b987cc57e6649dfa1bf4",
          "blockNumber": "0x2619683",
          "blockTimestamp": "0x694d89e9",
          "transactionHash": "0x1bf555910563797974434d355e94725110bdb7e4a091bf17a337c8de0a5915f6",
          "transactionIndex": "0x46",
          "logIndex": "0xba",
          "removed": false
        },
        {
          "address": "0xad473eaa51821c915d03d9db5349a0586d55e55e",
          "topics": [
            "0x36e13ba1e45df3ecb8f6beb6274a1f5d4abf4c0792bb56700354f0d50bf0acd7",
            "0x0000000000000000000000000000000000000000000000000000000000000018",
            "0x000000000000000000000000ad473eaa51821c915d03d9db5349a0586d55e55e"
          ],
          "data": "0x55f26890947882f1207e2a875a0d392857a077e9af9ea320f39541f65d9244dd0000000000000000000000000000000000000000000000000000000000000008000000000000000000000000000000000000000000000000000000000000006000000000000000000000000000000000000000000000000000000000000000042818000000000000000000000000000000000000000000000000000000000000",
          "blockHash": "0x30981ba4a3e0be2155bcf0bb713cb2582117b0f38e42b987cc57e6649dfa1bf4",
          "blockNumber": "0x2619683",
          "blockTimestamp": "0x694d89e9",
          "transactionHash": "0x1bf555910563797974434d355e94725110bdb7e4a091bf17a337c8de0a5915f6",
          "transactionIndex": "0x46",
          "logIndex": "0xbb",
          "removed": false
        }
      ],
      "logsBloom": "0x00000000000000000000000000000000000000000000000000000000000400000000000000000000000000000000000000000000000000000000000000000000000000000000000000000000000000000040000010000000000000000000000000000000000000000000000000000040000000000400000000000000000000000000000000000000000000000200000000000000000000040002000000000000000004000000000000000000000000000000000000000000000000004000000000100000000000000000000000400000000000000000000020000000000800000000000000000000000000000000000000000000000000800000000000000000",
      "type": "0x2",
      "transactionHash": "0x1bf555910563797974434d355e94725110bdb7e4a091bf17a337c8de0a5915f6",
      "transactionIndex": "0x46",
      "blockHash": "0x30981ba4a3e0be2155bcf0bb713cb2582117b0f38e42b987cc57e6649dfa1bf4",
      "blockNumber": "0x2619683",
      "gasUsed": "0xd3f5",
      "effectiveGasPrice": "0x13e9a8",
      "blobGasUsed": "0x8a61",
      "from": "0xe403f79171b7050c78479f52e49e753d43e72c1a",
      "to": "0xad473eaa51821c915d03d9db5349a0586d55e55e",
      "contractAddress": null,
      "daFootprintGasScalar": "0x145",
      "l1BaseFeeScalar": "0x8dd",
      "l1BlobBaseFee": "0x185978",
      "l1BlobBaseFeeScalar": "0x101c12",
      "l1Fee": "0x4169c966",
      "l1GasPrice": "0x1aefad4",
      "l1GasUsed": "0x6da"
    }
  ],
  "libraries": [],
  "pending": [],
  "returns": {},
  "timestamp": 1766689257540,
  "chain": 8453,
  "commit": "1b5b336"
}