{
  "transactions": [
    {
      "hash": "0x334a78996fa70fe9b22d961c20ee3bd93cbf38c7c6048a4ab17f76ee5b8f2f38",
      "transactionType": "CALL",
      "contractName": null,
      "contractAddress": "0xad473eaa51821c915d03d9db5349a0586d55e55e",
      "function": "createMatch(uint8,uint8,address,uint256,bytes32)",
      "arguments": [
        "1",
        "0",
        "0x0000000000000000000000000000000000000000",
        "0",
        "0x3608f503d624b47779fba399a097e68bc35cdbd22fcf04e3d6b7a3bd8fa9b746"
      ],
      "transaction": {
        "from": "0xe403f79171b7050c78479f52e49e753d43e72c1a",
        "to": "0xad473eaa51821c915d03d9db5349a0586d55e55e",
        "gas": "0x52a7d",
        "value": "0x0",
        "input": "0xea994fab00000000000000000000000000000000000000000000000000000000000000010000000000000000000000000000000000000000000000000000000000000000000000000000000000000000000000000000000000000000000000000000000000000000000000000000000000000000000000000000000000000000000000003608f503d624b47779fba399a097e68bc35cdbd22fcf04e3d6b7a3bd8fa9b746",
        "nonce": "0x2b3",
        "chainId": "0x2105"
      },
      "additionalContracts": [],
      "isFixedGasLimit": false
    },
    {
      "hash": "0x7d61f8b9da4af7a066ee95db03217f372afe0a3e4233b9c2d66c8fb97e30f2b6",
      "transactionType": "CALL",
      "contractName": null,
      "contractAddress": "0xad473eaa51821c915d03d9db5349a0586d55e55e",
      "function": "createMatch(uint8,uint8,address,uint256,bytes32)",
      "arguments": [
        "1",
        "0",
        "0x0000000000000000000000000000000000000000",
        "0",
        "0x3608f503d624b47779fba399a097e68bc35cdbd22fcf04e3d6b7a3bd8fa9b746"
      ],
      "transaction": {
        "from": "0xe403f79171b7050c78479f52e49e753d43e72c1a",
        "to": "0xad473eaa51821c915d03d9db5349a0586d55e55e",
        "gas": "0x52a7d",
        "value": "0x0",
        "input": "0xea994fab00000000000000000000000000000000000000000000000000000000000000010000000000000000000000000000000000000000000000000000000000000000000000000000000000000000000000000000000000000000000000000000000000000000000000000000000000000000000000000000000000000000000000003608f503d624b47779fba399a097e68bc35cdbd22fcf04e3d6b7a3bd8fa9b746",
        "nonce": "0x2b4",
        "chainId": "0x2105"
      },
      "additionalContracts": [],
      "isFixedGasLimit": false
    },
    {
      "hash": "0x5dcf3d43b45f6be257fa0b9791c5d535fafa6fa5dc70aa6c0c90dabeeb3312a0",
      "transactionType": "CALL",
      "contractName": null,
      "contractAddress": "0xad473eaa51821c915d03d9db5349a0586d55e55e",
      "function": "createMatch(uint8,uint8,address,uint256,bytes32)",
      "arguments": [
        "1",
        "0",
        "0x0000000000000000000000000000000000000000",
        "0",
        "0x3608f503d624b47779fba399a097e68bc35cdbd22fcf04e3d6b7a3bd8fa9b746"
      ],
      "transaction": {
        "from": "0xe403f79171b7050c78479f52e49e753d43e72c1a",
        "to": "0xad473eaa51821c915d03d9db5349a0586d55e55e",
        "gas": "0x52a7d",
        "value": "0x0",
        "input": "0xea994fab00000000000000000000000000000000000000000000000000000000000000010000000000000000000000000000000000000000000000000000000000000000000000000000000000000000000000000000000000000000000000000000000000000000000000000000000000000000000000000000000000000000000000003608f503d624b47779fba399a097e68bc35cdbd22fcf04e3d6b7a3bd8fa9b746",
        "nonce": "0x2b5",
        "chainId": "0x2105"
      },
      "additionalContracts": [],
      "isFixedGasLimit": false
    },
    {
      "hash": "0xc7a97f039b068429c6f708ac546203625504d589633d4a043480f9742e03ded1",
      "transactionType": "CALL",
      "contractName": null,
      "contractAddress": "0xad473eaa51821c915d03d9db5349a0586d55e55e",
      "function": "createMatch(uint8,uint8,address,uint256,bytes32)",
      "arguments": [
        "1",
        "0",
        "0x0000000000000000000000000000000000000000",
        "0",
        "0x3608f503d624b47779fba399a097e68bc35cdbd22fcf04e3d6b7a3bd8fa9b746"
      ],
      "transaction": {
        "from": "0xe403f79171b7050c78479f52e49e753d43e72c1a",
        "to": "0xad473eaa51821c915d03d9db5349a0586d55e55e",
        "gas": "0x52a7d",
        "value": "0x0",
        "input": "0xea994fab00000000000000000000000000000000000000000000000000000000000000010000000000000000000000000000000000000000000000000000000000000000000000000000000000000000000000000000000000000000000000000000000000000000000000000000000000000000000000000000000000000000000000003608f503d624b47779fba399a097e68bc35cdbd22fcf04e3d6b7a3bd8fa9b746",
        "nonce": "0x2b6",
        "chainId": "0x2105"
      },
      "additionalContracts": [],
      "isFixedGasLimit": false
    },
    {
      "hash": "0xf34ded6a946e62309ebe344a445a735074e43dd5d1d2b9718d88b05e7dc6b278",
      "transactionType": "CALL",
      "contractName": null,
      "contractAddress": "0xad473eaa51821c915d03d9db5349a0586d55e55e",
      "function": "createMatch(uint8,uint8,address,uint256,bytes32)",
      "arguments": [
        "1",
        "0",
        "0x0000000000000000000000000000000000000000",
        "0",
        "0x3608f503d624b47779fba399a097e68bc35cdbd22fcf04e3d6b7a3bd8fa9b746"
      ],
      "transaction": {
        "from": "0xe403f79171b7050c78479f52e49e753d43e72c1a",
        "to": "0xad473eaa51821c915d03d9db5349a0586d55e55e",
        "gas": "0x52a7d",
        "value": "0x0",
        "input": "0xea994fab00000000000000000000000000000000000000000000000000000000000000010000000000000000000000000000000000000000000000000000000000000000000000000000000000000000000000000000000000000000000000000000000000000000000000000000000000000000000000000000000000000000000000003608f503d624b47779fba399a097e68bc35cdbd22fcf04e3d6b7a3bd8fa9b746",
        "nonce": "0x2b7",
        "chainId": "0x2105"
      },
      "additionalContracts": [],
      "isFixedGasLimit": false
    },
    {
      "hash": "0xe29429c8fbcbf8acfb5a8fa42f411285d5497950f78c012161822fdfd3770c58",
      "transactionType": "CALL",
      "contractName": null,
      "contractAddress": "0xad473eaa51821c915d03d9db5349a0586d55e55e",
      "function": "createMatch(uint8,uint8,address,uint256,bytes32)",
      "arguments": [
        "1",
        "0",
        "0x0000000000000000000000000000000000000000",
        "0",
        "0x3608f503d624b47779fba399a097e68bc35cdbd22fcf04e3d6b7a3bd8fa9b746"
      ],
      "transaction": {
        "from": "0xe403f79171b7050c78479f52e49e753d43e72c1a",
        "to": "0xad473eaa51821c915d03d9db5349a0586d55e55e",
        "gas": "0x52a7d",
        "value": "0x0",
        "input": "0xea994fab00000000000000000000000000000000000000000000000000000000000000010000000000000000000000000000000000000000000000000000000000000000000000000000000000000000000000000000000000000000000000000000000000000000000000000000000000000000000000000000000000000000000000003608f503d624b47779fba399a097e68bc35cdbd22fcf04e3d6b7a3bd8fa9b746",
        "nonce": "0x2b8",
        "chainId": "0x2105"
      },
      "additionalContracts": [],
      "isFixedGasLimit": false
    },
    {
      "hash": "0x6af0b12f76488dbfe4ff6d3b63249f114a697c799a745c851227422c0e054e2e",
      "transactionType": "CALL",
      "contractName": null,
      "contractAddress": "0xad473eaa51821c915d03d9db5349a0586d55e55e",
      "function": "createMatch(uint8,uint8,address,uint256,bytes32)",
      "arguments": [
        "1",
        "0",
        "0x0000000000000000000000000000000000000000",
        "0",
        "0x3608f503d624b47779fba399a097e68bc35cdbd22fcf04e3d6b7a3bd8fa9b746"
      ],
      "transaction": {
        "from": "0xe403f79171b7050c78479f52e49e753d43e72c1a",
        "to": "0xad473eaa51821c915d03d9db5349a0586d55e55e",
        "gas": "0x52a7d",
        "value": "0x0",
        "input": "0xea994fab00000000000000000000000000000000000000000000000000000000000000010000000000000000000000000000000000000000000000000000000000000000000000000000000000000000000000000000000000000000000000000000000000000000000000000000000000000000000000000000000000000000000000003608f503d624b47779fba399a097e68bc35cdbd22fcf04e3d6b7a3bd8fa9b746",
        "nonce": "0x2b9",
        "chainId": "0x2105"
      },
      "additionalContracts": [],
      "isFixedGasLimit": false
    },
    {
      "hash": "0xd9f71480f50348afcf5ad67bc6efe653c7386ef6e728291758dfd79314463b60",
      "transactionType": "CALL",
      "contractName": null,
      "contractAddress": "0xad473eaa51821c915d03d9db5349a0586d55e55e",
      "function": "createMatch(uint8,uint8,address,uint256,bytes32)",
      "arguments": [
        "1",
        "0",
        "0x0000000000000000000000000000000000000000",
        "0",
        "0x3608f503d624b47779fba399a097e68bc35cdbd22fcf04e3d6b7a3bd8fa9b746"
      ],
      "transaction": {
        "from": "0xe403f79171b7050c78479f52e49e753d43e72c1a",
        "to": "0xad473eaa51821c915d03d9db5349a0586d55e55e",
        "gas": "0x52a7d",
        "value": "0x0",
        "input": "0xea994fab00000000000000000000000000000000000000000000000000000000000000010000000000000000000000000000000000000000000000000000000000000000000000000000000000000000000000000000000000000000000000000000000000000000000000000000000000000000000000000000000000000000000000003608f503d624b47779fba399a097e68bc35cdbd22fcf04e3d6b7a3bd8fa9b746",
        "nonce": "0x2ba",
        "chainId": "0x2105"
      },
      "additionalContracts": [],
      "isFixedGasLimit": false
    },
    {
      "hash": "0x502a4c932d961c8350e8a133d8de3da1bca9640c0546c099b2e30b91bdcf0f28",
      "transactionType": "CALL",
      "contractName": null,
      "contractAddress": "0xad473eaa51821c915d03d9db5349a0586d55e55e",
      "function": "submitMove(uint256,bytes32,bytes)",
      "arguments": [
        "1",
        "0xe8773807ffd17108aa2d132cec684352f2c5c8337ff4659cc010d15b0551847d",
        "0x34240000"
      ],
      "transaction": {
        "from": "0xe403f79171b7050c78479f52e49e753d43e72c1a",
        "to": "0xad473eaa51821c915d03d9db5349a0586d55e55e",
        "gas": "0x1801c",
        "value": "0x0",
        "input": "0x73b07f890000000000000000000000000000000000000000000000000000000000000001e8773807ffd17108aa2d132cec684352f2c5c8337ff4659cc010d15b0551847d000000000000000000000000000000000000000000000000000000000000006000000000000000000000000000000000000000000000000000000000000000043424000000000000000000000000000000000000000000000000000000000000",
        "nonce": "0x2bb",
        "chainId": "0x2105"
      },
      "additionalContracts": [],
      "isFixedGasLimit": false
    },
    {
      "hash": "0xba3daee90e9a8fdbb61dd36e57b977e0b2a758643019b8df2918b7ddd3c77fae",
      "transactionType": "CALL",
      "contractName": null,
      "contractAddress": "0xad473eaa51821c915d03d9db5349a0586d55e55e",
      "function": "submitMove(uint256,bytes32,bytes)",
      "arguments": [
        "1",
        "0x0692c63251d62c8f04eed454cc75e5bc199ba842e6b8106095e5d806a5e48cfa",
        "0x33230000"
      ],
      "transaction": {
        "from": "0xe403f79171b7050c78479f52e49e753d43e72c1a",
        "to": "0xad473eaa51821c915d03d9db5349a0586d55e55e",
        "gas": "0x124c3",
        "value": "0x0",
        "input": "0x73b07f8900000000000000000000000000000000000000000000000000000000000000010692c63251d62c8f04eed454cc75e5bc199ba842e6b8106095e5d806a5e48cfa000000000000000000000000000000000000000000000000000000000000006000000000000000000000000000000000000000000000000000000000000000043323000000000000000000000000000000000000000000000000000000000000",
        "nonce": "0x2bc",
        "chainId": "0x2105"
      },
      "additionalContracts": [],
      "isFixedGasLimit": false
    },
    {
      "hash": "0xf18dfd0ce586c55b95364988ffb8d40f65a4bb4377cd779a022e4543cedf1cf9",
      "transactionType": "CALL",
      "contractName": null,
      "contractAddress": "0xad473eaa51821c915d03d9db5349a0586d55e55e",
      "function": "submitMove(uint256,bytes32,bytes)",
      "arguments": [
        "1",
        "0x4442d021ec118fea7ce3641d3375363801af2e92adb1272f726cf20292795a62",
        "0x392a0000"
      ],
      "transaction": {
        "from": "0xe403f79171b7050c78479f52e49e753d43e72c1a",
        "to": "0xad473eaa51821c915d03d9db5349a0586d55e55e",
        "gas": "0x124c3",
        "value": "0x0",
        "input": "0x73b07f8900000000000000000000000000000000000000000000000000000000000000014442d021ec118fea7ce3641d3375363801af2e92adb1272f726cf20292795a6200000000000000000000000000000000000000000000000000000000000000600000000000000000000000000000000000000000000000000000000000000004392a000000000000000000000000000000000000000000000000000000000000",
        "nonce": "0x2bd",
        "chainId": "0x2105"
      },
      "additionalContracts": [],
      "isFixedGasLimit": false
    },
    {
      "hash": "0x94b6bd59b50e30f98ad776a91e2041e7941a5812071b333695c958a9565be553",
      "transactionType": "CALL",
      "contractName": null,
      "contractAddress": "0xad473eaa51821c915d03d9db5349a0586d55e55e",
      "function": "submitMove(uint256,bytes32,bytes)",
      "arguments": [
        "1",
        "0xc7183fc0754b5e7da3b74bf364f8affe59ffdf73627f9b8e7d4991d4453bd364",
        "0x3b2c0000"
      ],
      "transaction": {
        "from": "0xe403f79171b7050c78479f52e49e753d43e72c1a",
        "to": "0xad473eaa51821c915d03d9db5349a0586d55e55e",
        "gas": "0x124c3",
        "value": "0x0",
        "input": "0x73b07f890000000000000000000000000000000000000000000000000000000000000001c7183fc0754b5e7da3b74bf364f8affe59ffdf73627f9b8e7d4991d4453bd364000000000000000000000000000000000000000000000000000000000000006000000000000000000000000000000000000000000000000000000000000000043b2c000000000000000000000000000000000000000000000000000000000000",
        "nonce": "0x2be",
        "chainId": "0x2105"
      },
      "additionalContracts": [],
      "isFixedGasLimit": false
    },
    {
      "hash": "0xfa3e13e0bb9d81a90aa13c4215e4016587543573d417dfff249570d7928ec9e4",
      "transactionType": "CALL",
      "contractName": null,
      "contractAddress": "0xad473eaa51821c915d03d9db5349a0586d55e55e",
      "function": "submitMove(uint256,bytes32,bytes)",
      "arguments": [
        "2",
        "0x90e396633e67bfb131a9c9b400ea842e0f29f45c4bc7872a0e80af48deb78504",
        "0x30280000"
      ],
      "transaction": {
        "from": "0xe403f79171b7050c78479f52e49e753d43e72c1a",
        "to": "0xad473eaa51821c915d03d9db5349a0586d55e55e",
        "gas": "0x196a2",
        "value": "0x0",
        "input": "0x73b07f89000000000000000000000000000000000000000000000000000000000000000290e396633e67bfb131a9c9b400ea842e0f29f45c4bc7872a0e80af48deb78504000000000000000000000000000000000000000000000000000000000000006000000000000000000000000000000000000000000000000000000000000000043028000000000000000000000000000000000000000000000000000000000000",
        "nonce": "0x2bf",
        "chainId": "0x2105"
      },
      "additionalContracts": [],
      "isFixedGasLimit": false
    },
    {
      "hash": "0x7781bc54bdc430af5535ff019b02f0f0edff46909e9277b2cbe9cc875556fd2e",
      "transactionType": "CALL",
      "contractName": null,
      "contractAddress": "0xad473eaa51821c915d03d9db5349a0586d55e55e",
      "function": "submitMove(uint256,bytes32,bytes)",
      "arguments": [
        "2",
        "0xfc6cc8976638831fc84ceab234894f532e0338e7268a3303d4c0c1939f85dbb9",
        "0x32220000"
      ],
      "transaction": {
        "from": "0xe403f79171b7050c78479f52e49e753d43e72c1a",
        "to": "0xad473eaa51821c915d03d9db5349a0586d55e55e",
        "gas": "0x124c3",
        "value": "0x0",
        "input": "0x73b07f890000000000000000000000000000000000000000000000000000000000000002fc6cc8976638831fc84ceab234894f532e0338e7268a3303d4c0c1939f85dbb9000000000000000000000000000000000000000000000000000000000000006000000000000000000000000000000000000000000000000000000000000000043222000000000000000000000000000000000000000000000000000000000000",
        "nonce": "0x2c0",
        "chainId": "0x2105"
      },
      "additionalContracts": [],
      "isFixedGasLimit": false
    },
    {
      "hash": "0x868c3e6e26a9bb72e62751002d7bea7bf4ce7922a3b343acf0a0572d0e4b5cd1",
      "transactionType": "CALL",
      "contractName": null,
      "contractAddress": "0xad473eaa51821c915d03d9db5349a0586d55e55e",
      "function": "submitMove(uint256,bytes32,bytes)",
      "arguments": [
        "2",
        "0xbb9afb9861b8290cda948e4af3b636449a44547dca4c3acbc45e65f4e22aab40",
        "0x31290000"
      ],
      "transaction": {
        "from": "0xe403f79171b7050c78479f52e49e753d43e72c1a",
        "to": "0xad473eaa51821c915d03d9db5349a0586d55e55e",
        "gas": "0x124c3",
        "value": "0x0",
        "input": "0x73b07f890000000000000000000000000000000000000000000000000000000000000002bb9afb9861b8290cda948e4af3b636449a44547dca4c3acbc45e65f4e22aab40000000000000000000000000000000000000000000000000000000000000006000000000000000000000000000000000000000000000000000000000000000043129000000000000000000000000000000000000000000000000000000000000",
        "nonce": "0x2c1",
        "chainId": "0x2105"
      },
      "additionalContracts": [],
      "isFixedGasLimit": false
    },
    {
      "hash": "0x9327ce20ab20b4f114a8f79c7e0155cb4ef5af74ef1b9cd26acdccedf7e274ae",
      "transactionType": "CALL",
      "contractName": null,
      "contractAddress": "0xad473eaa51821c915d03d9db5349a0586d55e55e",
      "function": "submitMove(uint256,bytes32,bytes)",
      "arguments": [
        "2",
        "0x2a4b22ea265f7017c3f5040f1eec7d58baac29eda24dc699336157972973d8e1",
        "0x3a2b0000"
      ],
      "transaction": {
        "from": "0xe403f79171b7050c78479f52e49e753d43e72c1a",
        "to": "0xad473eaa51821c915d03d9db5349a0586d55e55e",
        "gas": "0x124c3",
        "value": "0x0",
        "input": "0x73b07f8900000000000000000000000000000000000000000000000000000000000000022a4b22ea265f7017c3f5040f1eec7d58baac29eda24dc699336157972973d8e1000000000000000000000000000000000000000000000000000000000000006000000000000000000000000000000000000000000000000000000000000000043a2b000000000000000000000000000000000000000000000000000000000000",
        "nonce": "0x2c2",
        "chainId": "0x2105"
      },
      "additionalContracts": [],
      "isFixedGasLimit": false
    },
    {
      "hash": "0x25c4d89a47ff2b20fa907e6c81cf22561bf33e95ee830a013897f6630a8fd0fd",
      "transactionType": "CALL",
      "contractName": null,
      "contractAddress": "0xad473eaa51821c915d03d9db5349a0586d55e55e",
      "function": "submitMove(uint256,bytes32,bytes)",
      "arguments": [
        "3",
        "0xe8773807ffd17108aa2d132cec684352f2c5c8337ff4659cc010d15b0551847d",
        "0x34240000"
      ],
      "transaction": {
        "from": "0xe403f79171b7050c78479f52e49e753d43e72c1a",
        "to": "0xad473eaa51821c915d03d9db5349a0586d55e55e",
        "gas": "0x1801c",
        "value": "0x0",
        "input": "0x73b07f890000000000000000000000000000000000000000000000000000000000000003e8773807ffd17108aa2d132cec684352f2c5c8337ff4659cc010d15b0551847d000000000000000000000000000000000000000000000000000000000000006000000000000000000000000000000000000000000000000000000000000000043424000000000000000000000000000000000000000000000000000000000000",
        "nonce": "0x2c3",
        "chainId": "0x2105"
      },
      "additionalContracts": [],
      "isFixedGasLimit": false
    },
    {
      "hash": "0xaaf80e7155e4230ecb18f22caa262f74110a804911ab475793fa50a77638a51d",
      "transactionType": "CALL",
      "contractName": null,
      "contractAddress": "0xad473eaa51821c915d03d9db5349a0586d55e55e",
      "function": "submitMove(uint256,bytes32,bytes)",
      "arguments": [
        "3",
        "0x0692c63251d62c8f04eed454cc75e5bc199ba842e6b8106095e5d806a5e48cfa",
        "0x33230000"
      ],
      "transaction": {
        "from": "0xe403f79171b7050c78479f52e49e753d43e72c1a",
        "to": "0xad473eaa51821c915d03d9db5349a0586d55e55e",
        "gas": "0x124c3",
        "value": "0x0",
        "input": "0x73b07f8900000000000000000000000000000000000000000000000000000000000000030692c63251d62c8f04eed454cc75e5bc199ba842e6b8106095e5d806a5e48cfa000000000000000000000000000000000000000000000000000000000000006000000000000000000000000000000000000000000000000000000000000000043323000000000000000000000000000000000000000000000000000000000000",
        "nonce": "0x2c4",
        "chainId": "0x2105"
      },
      "additionalContracts": [],
      "isFixedGasLimit": false
    },
    {
      "hash": "0x8f1c7f6d5f660b4281672fbd012f524e607ccb8199044ab4c16c38ca4be24a30",
      "transactionType": "CALL",
      "contractName": null,
      "contractAddress": "0xad473eaa51821c915d03d9db5349a0586d55e55e",
      "function": "submitMove(uint256,bytes32,bytes)",
      "arguments": [
        "3",
        "0x4442d021ec118fea7ce3641d3375363801af2e92adb1272f726cf20292795a62",
        "0x392a0000"
      ],
      "transaction": {
        "from": "0xe403f79171b7050c78479f52e49e753d43e72c1a",
        "to": "0xad473eaa51821c915d03d9db5349a0586d55e55e",
        "gas": "0x124c3",
        "value": "0x0",
        "input": "0x73b07f8900000000000000000000000000000000000000000000000000000000000000034442d021ec118fea7ce3641d3375363801af2e92adb1272f726cf20292795a6200000000000000000000000000000000000000000000000000000000000000600000000000000000000000000000000000000000000000000000000000000004392a000000000000000000000000000000000000000000000000000000000000",
        "nonce": "0x2c5",
        "chainId": "0x2105"
      },
      "additionalContracts": [],
      "isFixedGasLimit": false
    },
    {
      "hash": "0x865840e8d3d220b1dddc7c2eb3ba64a8c1be2e29237ada4a51b0e18ed7f75db7",
      "transactionType": "CALL",
      "contractName": null,
      "contractAddress": "0xad473eaa51821c915d03d9db5349a0586d55e55e",
      "function": "submitMove(uint256,bytes32,bytes)",
      "arguments": [
        "3",
        "0xc7183fc0754b5e7da3b74bf364f8affe59ffdf73627f9b8e7d4991d4453bd364",
        "0x3b2c0000"
      ],
      "transaction": {
        "from": "0xe403f79171b7050c78479f52e49e753d43e72c1a",
        "to": "0xad473eaa51821c915d03d9db5349a0586d55e55e",
        "gas": "0x124c3",
        "value": "0x0",
        "input": "0x73b07f890000000000000000000000000000000000000000000000000000000000000003c7183fc0754b5e7da3b74bf364f8affe59ffdf73627f9b8e7d4991d4453bd364000000000000000000000000000000000000000000000000000000000000006000000000000000000000000000000000000000000000000000000000000000043b2c000000000000000000000000000000000000000000000000000000000000",
        "nonce": "0x2c6",
        "chainId": "0x2105"
      },
      "additionalContracts": [],
      "isFixedGasLimit": false
    },
    {
      "hash": "0xa60f7f56ccb7207e143a2f3574964022513e5235422341f8e61d1995612f0168",
      "transactionType": "CALL",
      "contractName": null,
      "contractAddress": "0xad473eaa51821c915d03d9db5349a0586d55e55e",
      "function": "submitMove(uint256,bytes32,bytes)",
      "arguments": [
        "4",
        "0x90e396633e67bfb131a9c9b400ea842e0f29f45c4bc7872a0e80af48deb78504",
        "0x30280000"
      ],
      "transaction": {
        "from": "0xe403f79171b7050c78479f52e49e753d43e72c1a",
        "to": "0xad473eaa51821c915d03d9db5349a0586d55e55e",
        "gas": "0x196a2",
        "value": "0x0",
        "input": "0x73b07f89000000000000000000000000000000000000000000000000000000000000000490e396633e67bfb131a9c9b400ea842e0f29f45c4bc7872a0e80af48deb78504000000000000000000000000000000000000000000000000000000000000006000000000000000000000000000000000000000000000000000000000000000043028000000000000000000000000000000000000000000000000000000000000",
        "nonce": "0x2c7",
        "chainId": "0x2105"
      },
      "additionalContracts": [],
      "isFixedGasLimit": false
    },
    {
      "hash": "0xfa1d921612cedfbaa5b5b81616d5e88d1edb4a332ba3ec8e38efbf264a5cabbf",
      "transactionType": "CALL",
      "contractName": null,
      "contractAddress": "0xad473eaa51821c915d03d9db5349a0586d55e55e",
      "function": "submitMove(uint256,bytes32,bytes)",
      "arguments": [
        "4",
        "0xfc6cc8976638831fc84ceab234894f532e0338e7268a3303d4c0c1939f85dbb9",
        "0x32220000"
      ],
      "transaction": {
        "from": "0xe403f79171b7050c78479f52e49e753d43e72c1a",
        "to": "0xad473eaa51821c915d03d9db5349a0586d55e55e",
        "gas": "0x124c3",
        "value": "0x0",
        "input": "0x73b07f890000000000000000000000000000000000000000000000000000000000000004fc6cc8976638831fc84ceab234894f532e0338e7268a3303d4c0c1939f85dbb9000000000000000000000000000000000000000000000000000000000000006000000000000000000000000000000000000000000000000000000000000000043222000000000000000000000000000000000000000000000000000000000000",
        "nonce": "0x2c8",
        "chainId": "0x2105"
      },
      "additionalContracts": [],
      "isFixedGasLimit": false
    },
    {
      "hash": "0x2ffae954efc7f0f0e550294a08a358747139e1935e5cf82ca3c644dd9d924f90",
      "transactionType": "CALL",
      "contractName": null,
      "contractAddress": "0xad473eaa51821c915d03d9db5349a0586d55e55e",
      "function": "submitMove(uint256,bytes32,bytes)",
      "arguments": [
        "4",
        "0xbb9afb9861b8290cda948e4af3b636449a44547dca4c3acbc45e65f4e22aab40",
        "0x31290000"
      ],
      "transaction": {
        "from": "0xe403f79171b7050c78479f52e49e753d43e72c1a",
        "to": "0xad473eaa51821c915d03d9db5349a0586d55e55e",
        "gas": "0x124c3",
        "value": "0x0",
        "input": "0x73b07f890000000000000000000000000000000000000000000000000000000000000004bb9afb9861b8290cda948e4af3b636449a44547dca4c3acbc45e65f4e22aab40000000000000000000000000000000000000000000000000000000000000006000000000000000000000000000000000000000000000000000000000000000043129000000000000000000000000000000000000000000000000000000000000",
        "nonce": "0x2c9",
        "chainId": "0x2105"
      },
      "additionalContracts": [],
      "isFixedGasLimit": false
    },
    {
      "hash": "0x5c2d0e26e1bc36754122b6a9e905e585e5e68a2ad58b85ee71e01a307e5740ed",
      "transactionType": "CALL",
      "contractName": null,
      "contractAddress": "0xad473eaa51821c915d03d9db5349a0586d55e55e",
      "function": "submitMove(uint256,bytes32,bytes)",
      "arguments": [
        "4",
        "0x2a4b22ea265f7017c3f5040f1eec7d58baac29eda24dc699336157972973d8e1",
        "0x3a2b0000"
      ],
      "transaction": {
        "from": "0xe403f79171b7050c78479f52e49e753d43e72c1a",
        "to": "0xad473eaa51821c915d03d9db5349a0586d55e55e",
        "gas": "0x124c3",
        "value": "0x0",
        "input": "0x73b07f8900000000000000000000000000000000000000000000000000000000000000042a4b22ea265f7017c3f5040f1eec7d58baac29eda24dc699336157972973d8e1000000000000000000000000000000000000000000000000000000000000006000000000000000000000000000000000000000000000000000000000000000043a2b000000000000000000000000000000000000000000000000000000000000",
        "nonce": "0x2ca",
        "chainId": "0x2105"
      },
      "additionalContracts": [],
      "isFixedGasLimit": false
    },
    {
      "hash": "0xc26e57a4c5c9c3b99b6ffaea3210e7e5b04b567d292390fd7bce9b93b99cf4c2",
      "transactionType": "CALL",
      "contractName": null,
      "contractAddress": "0xad473eaa51821c915d03d9db5349a0586d55e55e",
      "function": "submitMove(uint256,bytes32,bytes)",
      "arguments": [
        "5",
        "0xe8773807ffd17108aa2d132cec684352f2c5c8337ff4659cc010d15b0551847d",
        "0x34240000"
      ],
      "transaction": {
        "from": "0xe403f79171b7050c78479f52e49e753d43e72c1a",
        "to": "0xad473eaa51821c915d03d9db5349a0586d55e55e",
        "gas": "0x1801c",
        "value": "0x0",
        "input": "0x73b07f890000000000000000000000000000000000000000000000000000000000000005e8773807ffd17108aa2d132cec684352f2c5c8337ff4659cc010d15b0551847d000000000000000000000000000000000000000000000000000000000000006000000000000000000000000000000000000000000000000000000000000000043424000000000000000000000000000000000000000000000000000000000000",
        "nonce": "0x2cb",
        "chainId": "0x2105"
      },
      "additionalContracts": [],
      "isFixedGasLimit": false
    },
    {
      "hash": "0xd7da22d1d0c41ff36dca76ee150b3a2f96cb107f4453b54e6b7cccf4602541b9",
      "transactionType": "CALL",
      "contractName": null,
      "contractAddress": "0xad473eaa51821c915d03d9db5349a0586d55e55e",
      "function": "submitMove(uint256,bytes32,bytes)",
      "arguments": [
        "5",
        "0x0692c63251d62c8f04eed454cc75e5bc199ba842e6b8106095e5d806a5e48cfa",
        "0x33230000"
      ],
      "transaction": {
        "from": "0xe403f79171b7050c78479f52e49e753d43e72c1a",
        "to": "0xad473eaa51821c915d03d9db5349a0586d55e55e",
        "gas": "0x124c3",
        "value": "0x0",
        "input": "0x73b07f8900000000000000000000000000000000000000000000000000000000000000050692c63251d62c8f04eed454cc75e5bc199ba842e6b8106095e5d806a5e48cfa000000000000000000000000000000000000000000000000000000000000006000000000000000000000000000000000000000000000000000000000000000043323000000000000000000000000000000000000000000000000000000000000",
        "nonce": "0x2cc",
        "chainId": "0x2105"
      },
      "additionalContracts": [],
      "isFixedGasLimit": false
    },
    {
      "hash": "0x01b81abbf3a221eff233010401901636889878311f105acb6dbc72ddd7cd6f30",
      "transactionType": "CALL",
      "contractName": null,
      "contractAddress": "0xad473eaa51821c915d03d9db5349a0586d55e55e",
      "function": "submitMove(uint256,bytes32,bytes)",
      "arguments": [
        "5",
        "0x4442d021ec118fea7ce3641d3375363801af2e92adb1272f726cf20292795a62",
        "0x392a0000"
      ],
      "transaction": {
        "from": "0xe403f79171b7050c78479f52e49e753d43e72c1a",
        "to": "0xad473eaa51821c915d03d9db5349a0586d55e55e",
        "gas": "0x124c3",
        "value": "0x0",
        "input": "0x73b07f8900000000000000000000000000000000000000000000000000000000000000054442d021ec118fea7ce3641d3375363801af2e92adb1272f726cf20292795a6200000000000000000000000000000000000000000000000000000000000000600000000000000000000000000000000000000000000000000000000000000004392a000000000000000000000000000000000000000000000000000000000000",
        "nonce": "0x2cd",
        "chainId": "0x2105"
      },
      "additionalContracts": [],
      "isFixedGasLimit": false
    },
    {
      "hash": "0x07553c62ebe6b2e9fae5860291dc09451d9f378638fef7820ff809583aedb6ff",
      "transactionType": "CALL",
      "contractName": null,
      "contractAddress": "0xad473eaa51821c915d03d9db5349a0586d55e55e",
      "function": "submitMove(uint256,bytes32,bytes)",
      "arguments": [
        "5",
        "0xc7183fc0754b5e7da3b74bf364f8affe59ffdf73627f9b8e7d4991d4453bd364",
        "0x3b2c0000"
      ],
      "transaction": {
        "from": "0xe403f79171b7050c78479f52e49e753d43e72c1a",
        "to": "0xad473eaa51821c915d03d9db5349a0586d55e55e",
        "gas": "0x124c3",
        "value": "0x0",
        "input": "0x73b07f890000000000000000000000000000000000000000000000000000000000000005c7183fc0754b5e7da3b74bf364f8affe59ffdf73627f9b8e7d4991d4453bd364000000000000000000000000000000000000000000000000000000000000006000000000000000000000000000000000000000000000000000000000000000043b2c000000000000000000000000000000000000000000000000000000000000",
        "nonce": "0x2ce",
        "chainId": "0x2105"
      },
      "additionalContracts": [],
      "isFixedGasLimit": false
    },
    {
      "hash": "0x6444ef03008bfd836062ca05b3d5d9fe99e6caf76b39f31544ff8fe7362d771a",
      "transactionType": "CALL",
      "contractName": null,
      "contractAddress": "0xad473eaa51821c915d03d9db5349a0586d55e55e",
      "function": "submitMove(uint256,bytes32,bytes)",
      "arguments": [
        "6",
        "0x90e396633e67bfb131a9c9b400ea842e0f29f45c4bc7872a0e80af48deb78504",
        "0x30280000"
      ],
      "transaction": {
        "from": "0xe403f79171b7050c78479f52e49e753d43e72c1a",
        "to": "0xad473eaa51821c915d03d9db5349a0586d55e55e",
        "gas": "0x196a2",
        "value": "0x0",
        "input": "0x73b07f89000000000000000000000000000000000000000000000000000000000000000690e396633e67bfb131a9c9b400ea842e0f29f45c4bc7872a0e80af48deb78504000000000000000000000000000000000000000000000000000000000000006000000000000000000000000000000000000000000000000000000000000000043028000000000000000000000000000000000000000000000000000000000000",
        "nonce": "0x2cf",
        "chainId": "0x2105"
      },
      "additionalContracts": [],
      "isFixedGasLimit": false
    },
    {
      "hash": "0x774cfd0f67490cdd6afa901c1b201d275bb56066d926bd4b733d9709692df7ce",
      "transactionType": "CALL",
      "contractName": null,
      "contractAddress": "0xad473eaa51821c915d03d9db5349a0586d55e55e",
      "function": "submitMove(uint256,bytes32,bytes)",
      "arguments": [
        "6",
        "0xfc6cc8976638831fc84ceab234894f532e0338e7268a3303d4c0c1939f85dbb9",
        "0x32220000"
      ],
      "transaction": {
        "from": "0xe403f79171b7050c78479f52e49e753d43e72c1a",
        "to": "0xad473eaa51821c915d03d9db5349a0586d55e55e",
        "gas": "0x124c3",
        "value": "0x0",
        "input": "0x73b07f890000000000000000000000000000000000000000000000000000000000000006fc6cc8976638831fc84ceab234894f532e0338e7268a3303d4c0c1939f85dbb9000000000000000000000000000000000000000000000000000000000000006000000000000000000000000000000000000000000000000000000000000000043222000000000000000000000000000000000000000000000000000000000000",
        "nonce": "0x2d0",
        "chainId": "0x2105"
      },
      "additionalContracts": [],
      "isFixedGasLimit": false
    },
    {
      "hash": "0x9b4c461c55ed3c6603111e6cf5a2ee9f26273c607fcec923d1a882aed31379cd",
      "transactionType": "CALL",
      "contractName": null,
      "contractAddress": "0xad473eaa51821c915d03d9db5349a0586d55e55e",
      "function": "submitMove(uint256,bytes32,bytes)",
      "arguments": [
        "6",
        "0xbb9afb9861b8290cda948e4af3b636449a44547dca4c3acbc45e65f4e22aab40",
        "0x31290000"
      ],
      "transaction": {
        "from": "0xe403f79171b7050c78479f52e49e753d43e72c1a",
        "to": "0xad473eaa51821c915d03d9db5349a0586d55e55e",
        "gas": "0x124c3",
        "value": "0x0",
        "input": "0x73b07f890000000000000000000000000000000000000000000000000000000000000006bb9afb9861b8290cda948e4af3b636449a44547dca4c3acbc45e65f4e22aab40000000000000000000000000000000000000000000000000000000000000006000000000000000000000000000000000000000000000000000000000000000043129000000000000000000000000000000000000000000000000000000000000",
        "nonce": "0x2d1",
        "chainId": "0x2105"
      },
      "additionalContracts": [],
      "isFixedGasLimit": false
    },
    {
      "hash": "0xa78918156d0c5b8c33b270f9e639e6ec9ba71cb9e8dd991c289b422fc6e741c1",
      "transactionType": "CALL",
      "contractName": null,
      "contractAddress": "0xad473eaa51821c915d03d9db5349a0586d55e55e",
      "function": "submitMove(uint256,bytes32,bytes)",
      "arguments": [
        "6",
        "0x2a4b22ea265f7017c3f5040f1eec7d58baac29eda24dc699336157972973d8e1",
        "0x3a2b0000"
      ],
      "transaction": {
        "from": "0xe403f79171b7050c78479f52e49e753d43e72c1a",
        "to": "0xad473eaa51821c915d03d9db5349a0586d55e55e",
        "gas": "0x124c3",
        "value": "0x0",
        "input": "0x73b07f8900000000000000000000000000000000000000000000000000000000000000062a4b22ea265f7017c3f5040f1eec7d58baac29eda24dc699336157972973d8e1000000000000000000000000000000000000000000000000000000000000006000000000000000000000000000000000000000000000000000000000000000043a2b000000000000000000000000000000000000000000000000000000000000",
        "nonce": "0x2d2",
        "chainId": "0x2105"
      },
      "additionalContracts": [],
      "isFixedGasLimit": false
    },
    {
      "hash": "0xc7b11603ad9368311b91d1373d68f147e60cc3d909ea4b82c8c02b8606f7f9cb",
      "transactionType": "CALL",
      "contractName": null,
      "contractAddress": "0xad473eaa51821c915d03d9db5349a0586d55e55e",
      "function": "submitMove(uint256,bytes32,bytes)",
      "arguments": [
        "7",
        "0xe8773807ffd17108aa2d132cec684352f2c5c8337ff4659cc010d15b0551847d",
        "0x34240000"
      ],
      "transaction": {
        "from": "0xe403f79171b7050c78479f52e49e753d43e72c1a",
        "to": "0xad473eaa51821c915d03d9db5349a0586d55e55e",
        "gas": "0x1801c",
        "value": "0x0",
        "input": "0x73b07f890000000000000000000000000000000000000000000000000000000000000007e8773807ffd17108aa2d132cec684352f2c5c8337ff4659cc010d15b0551847d000000000000000000000000000000000000000000000000000000000000006000000000000000000000000000000000000000000000000000000000000000043424000000000000000000000000000000000000000000000000000000000000",
        "nonce": "0x2d3",
        "chainId": "0x2105"
      },
      "additionalContracts": [],
      "isFixedGasLimit": false
    },
    {
      "hash": "0xaa1d0bdf376e72e702811989db8ed5b1129ab82204ca73d4db2acea2cecbcb40",
      "transactionType": "CALL",
      "contractName": null,
      "contractAddress": "0xad473eaa51821c915d03d9db5349a0586d55e55e",
      "function": "submitMove(uint256,bytes32,bytes)",
      "arguments": [
        "7",
        "0x0692c63251d62c8f04eed454cc75e5bc199ba842e6b8106095e5d806a5e48cfa",
        "0x33230000"
      ],
      "transaction": {
        "from": "0xe403f79171b7050c78479f52e49e753d43e72c1a",
        "to": "0xad473eaa51821c915d03d9db5349a0586d55e55e",
        "gas": "0x124c3",
        "value": "0x0",
        "input": "0x73b07f8900000000000000000000000000000000000000000000000000000000000000070692c63251d62c8f04eed454cc75e5bc199ba842e6b8106095e5d806a5e48cfa000000000000000000000000000000000000000000000000000000000000006000000000000000000000000000000000000000000000000000000000000000043323000000000000000000000000000000000000000000000000000000000000",
        "nonce": "0x2d4",
        "chainId": "0x2105"
      },
      "additionalContracts": [],
      "isFixedGasLimit": false
    },
    {
      "hash": "0x6f87b87b6a271b69c9f810e465c33d0229b0bb21e9430e70fc4b8be49bbb3835",
      "transactionType": "CALL",
      "contractName": null,
      "contractAddress": "0xad473eaa51821c915d03d9db5349a0586d55e55e",
      "function": "submitMove(uint256,bytes32,bytes)",
      "arguments": [
        "7",
        "0x4442d021ec118fea7ce3641d3375363801af2e92adb1272f726cf20292795a62",
        "0x392a0000"
      ],
      "transaction": {
        "from": "0xe403f79171b7050c78479f52e49e753d43e72c1a",
        "to": "0xad473eaa51821c915d03d9db5349a0586d55e55e",
        "gas": "0x124c3",
        "value": "0x0",
        "input": "0x73b07f8900000000000000000000000000000000000000000000000000000000000000074442d021ec118fea7ce3641d3375363801af2e92adb1272f726cf20292795a6200000000000000000000000000000000000000000000000000000000000000600000000000000000000000000000000000000000000000000000000000000004392a000000000000000000000000000000000000000000000000000000000000",
        "nonce": "0x2d5",
        "chainId": "0x2105"
      },
      "additionalContracts": [],
      "isFixedGasLimit": false
    },
    {
      "hash": "0x3c8657d134a23f34a06fbb74da17461f553f96097dc135a9b44cec3838fa9df9",
      "transactionType": "CALL",
      "contractName": null,
      "contractAddress": "0xad473eaa51821c915d03d9db5349a0586d55e55e",
      "function": "submitMove(uint256,bytes32,bytes)",
      "arguments": [
        "7",
        "0xc7183fc0754b5e7da3b74bf364f8affe59ffdf73627f9b8e7d4991d4453bd364",
        "0x3b2c0000"
      ],
      "transaction": {
        "from": "0xe403f79171b7050c78479f52e49e753d43e72c1a",
        "to": "0xad473eaa51821c915d03d9db5349a0586d55e55e",
        "gas": "0x124c3",
        "value": "0x0",
        "input": "0x73b07f890000000000000000000000000000000000000000000000000000000000000007c7183fc0754b5e7da3b74bf364f8affe59ffdf73627f9b8e7d4991d4453bd364000000000000000000000000000000000000000000000000000000000000006000000000000000000000000000000000000000000000000000000000000000043b2c000000000000000000000000000000000000000000000000000000000000",
        "nonce": "0x2d6",
        "chainId": "0x2105"
      },
      "additionalContracts": [],
      "isFixedGasLimit": false
    },
    {
      "hash": "0x624700677150d407d0687032fcd1ff011ddb7938d23f2798ae3d996a9386b7d0",
      "transactionType": "CALL",
      "contractName": null,
      "contractAddress": "0xad473eaa51821c915d03d9db5349a0586d55e55e",
      "function": "submitMove(uint256,bytes32,bytes)",
      "arguments": [
        "8",
        "0x90e396633e67bfb131a9c9b400ea842e0f29f45c4bc7872a0e80af48deb78504",
        "0x30280000"
      ],
      "transaction": {
        "from": "0xe403f79171b7050c78479f52e49e753d43e72c1a",
        "to": "0xad473eaa51821c915d03d9db5349a0586d55e55e",
        "gas": "0x196a2",
        "value": "0x0",
        "input": "0x73b07f89000000000000000000000000000000000000000000000000000000000000000890e396633e67bfb131a9c9b400ea842e0f29f45c4bc7872a0e80af48deb78504000000000000000000000000000000000000000000000000000000000000006000000000000000000000000000000000000000000000000000000000000000043028000000000000000000000000000000000000000000000000000000000000",
        "nonce": "0x2d7",
        "chainId": "0x2105"
      },
      "additionalContracts": [],
      "isFixedGasLimit": false
    },
    {
      "hash": "0x63d1a124488906a6b7904dabb39a9de7c36dee2da2a035bd000de65811690bd9",
      "transactionType": "CALL",
      "contractName": null,
      "contractAddress": "0xad473eaa51821c915d03d9db5349a0586d55e55e",
      "function": "submitMove(uint256,bytes32,bytes)",
      "arguments": [
        "8",
        "0xfc6cc8976638831fc84ceab234894f532e0338e7268a3303d4c0c1939f85dbb9",
        "0x32220000"
      ],
      "transaction": {
        "from": "0xe403f79171b7050c78479f52e49e753d43e72c1a",
        "to": "0xad473eaa51821c915d03d9db5349a0586d55e55e",
        "gas": "0x124c3",
        "value": "0x0",
        "input": "0x73b07f890000000000000000000000000000000000000000000000000000000000000008fc6cc8976638831fc84ceab234894f532e0338e7268a3303d4c0c1939f85dbb9000000000000000000000000000000000000000000000000000000000000006000000000000000000000000000000000000000000000000000000000000000043222000000000000000000000000000000000000000000000000000000000000",
        "nonce": "0x2d8",
        "chainId": "0x2105"
      },
      "additionalContracts": [],
      "isFixedGasLimit": false
    },
    {
      "hash": "0xc2c66a9b1bcd4db8016cff674ca5265229750ab07404ba73c018a4c54b2ca437",
      "transactionType": "CALL",
      "contractName": null,
      "contractAddress": "0xad473eaa51821c915d03d9db5349a0586d55e55e",
      "function": "submitMove(uint256,bytes32,bytes)",
      "arguments": [
        "8",
        "0xbb9afb9861b8290cda948e4af3b636449a44547dca4c3acbc45e65f4e22aab40",
        "0x31290000"
      ],
      "transaction": {
        "from": "0xe403f79171b7050c78479f52e49e753d43e72c1a",
        "to": "0xad473eaa51821c915d03d9db5349a0586d55e55e",
        "gas": "0x124c3",
        "value": "0x0",
        "input": "0x73b07f890000000000000000000000000000000000000000000000000000000000000008bb9afb9861b8290cda948e4af3b636449a44547dca4c3acbc45e65f4e22aab40000000000000000000000000000000000000000000000000000000000000006000000000000000000000000000000000000000000000000000000000000000043129000000000000000000000000000000000000000000000000000000000000",
        "nonce": "0x2d9",
        "chainId": "0x2105"
      },
      "additionalContracts": [],
      "isFixedGasLimit": false
    },
    {
      "hash": "0x098a873c4499195b9c39c554cdb3368916b56f1d786319251da5afc1e0bab640",
      "transactionType": "CALL",
      "contractName": null,
      "contractAddress": "0xad473eaa51821c915d03d9db5349a0586d55e55e",
      "function": "submitMove(uint256,bytes32,bytes)",
      "arguments": [
        "8",
        "0x2a4b22ea265f7017c3f5040f1eec7d58baac29eda24dc699336157972973d8e1",
        "0x3a2b0000"
      ],
      "transaction": {
        "from": "0xe403f79171b7050c78479f52e49e753d43e72c1a",
        "to": "0xad473eaa51821c915d03d9db5349a0586d55e55e",
        "gas": "0x124c3",
        "value": "0x0",
        "input": "0x73b07f8900000000000000000000000000000000000000000000000000000000000000082a4b22ea265f7017c3f5040f1eec7d58baac29eda24dc699336157972973d8e1000000000000000000000000000000000000000000000000000000000000006000000000000000000000000000000000000000000000000000000000000000043a2b000000000000000000000000000000000000000000000000000000000000",
        "nonce": "0x2da",
        "chainId": "0x2105"
      },
      "additionalContracts": [],
      "isFixedGasLimit": false
    }
  ],
  "receipts": [
    {
      "status": "0x1",
      "cumulativeGasUsed": "0x7e8732",
      "logs": [
        {
          "address": "0xad473eaa51821c915d03d9db5349a0586d55e55e",
          "topics": [
            "0xca1357e0f94306885a9813b6797ad5acadca27e6b5bccbde2640d84f319df31e",
            "0x0000000000000000000000000000000000000000000000000000000000000001"
          ],
          "data": "0x3608f503d624b47779fba399a097e68bc35cdbd22fcf04e3d6b7a3bd8fa9b7460000000000000000000000000000000000000000000000000000000000000000",
          "blockHash": "0x68a0368adafb30b6891e2bb84b2283519bc7292f1c8a95b6711c94dbfe369713",
          "blockNumber": "0x2619606",
          "blockTimestamp": "0x694d88ef",
          "transactionHash": "0x334a78996fa70fe9b22d961c20ee3bd93cbf38c7c6048a4ab17f76ee5b8f2f38",
          "transactionIndex": "0x44",
          "logIndex": "0xcd",
          "removed": false
        },
        {
          "address": "0xad473eaa51821c915d03d9db5349a0586d55e55e",
          "topics": [
            "0x94af2fbea15ff3140faa3f70571c806b44849899a559d3c9f306155e45de0416",
            "0x0000000000000000000000000000000000000000000000000000000000000001",
            "0x000000000000000000000000e403f79171b7050c78479f52e49e753d43e72c1a"
          ],
          "data": "0x000000000000000000000000000000000000000000000000000000000000000100000000000000000000000000000000000000000000000000000000000000000000000000000000000000000000000000000000000000000000000000000000",
          "blockHash": "0x68a0368adafb30b6891e2bb84b2283519bc7292f1c8a95b6711c94dbfe369713",
          "blockNumber": "0x2619606",
          "blockTimestamp": "0x694d88ef",
          "transactionHash": "0x334a78996fa70fe9b22d961c20ee3bd93cbf38c7c6048a4ab17f76ee5b8f2f38",
          "transactionIndex": "0x44",
          "logIndex": "0xce",
          "removed": false
        }
      ],
      "logsBloom": "0x00000000000000000000000000000000000000000000000000000040000400000000000000000000000000000000000000000000000000000000000000040000000000000001000000000000000000000000000000040000000000000000000000000000000000000000000000000000000000000000000000200000000000000000000000000000000000000200000000002000000000040002000000000000000004000000000000000000000000000000000000000000000000000000000000000000000000000000000000000000000000000000000000000008000044000000000000000000000000000000000000000000000000800000000000000000",
      "type": "0x2",
      "transactionHash": "0x334a78996fa70fe9b22d961c20ee3bd93cbf38c7c6048a4ab17f76ee5b8f2f38",
      "transactionIndex": "0x44",
      "blockHash": "0x68a0368adafb30b6891e2bb84b2283519bc7292f1c8a95b6711c94dbfe369713",
      "blockNumber": "0x2619606",
      "gasUsed": "0x3bd76",
      "effectiveGasPrice": "0x16e2d2",
      "blobGasUsed": "0x7ef4",
      "from": "0xe403f79171b7050c78479f52e49e753d43e72c1a",
      "to": "0xad473eaa51821c915d03d9db5349a0586d55e55e",
      "contractAddress": null,
      "daFootprintGasScalar": "0x145",
      "l1BaseFeeScalar": "0x8dd",
      "l1BlobBaseFee": "0x1cf0e7",
      "l1BlobBaseFeeScalar": "0x101c12",
      "l1Fee": "0x16a195e7",
      "l1GasPrice": "0x1d93ed3",
      "l1GasUsed": "0x640"
    },
    {
      "status": "0x1",
      "cumulativeGasUsed": "0x8244a8",
      "logs": [
        {
          "address": "0xad473eaa51821c915d03d9db5349a0586d55e55e",
          "topics": [
            "0xca1357e0f94306885a9813b6797ad5acadca27e6b5bccbde2640d84f319df31e",
            "0x0000000000000000000000000000000000000000000000000000000000000002"
          ],
          "data": "0x3608f503d624b47779fba399a097e68bc35cdbd22fcf04e3d6b7a3bd8fa9b7460000000000000000000000000000000000000000000000000000000000000000",
          "blockHash": "0x68a0368adafb30b6891e2bb84b2283519bc7292f1c8a95b6711c94dbfe369713",
          "blockNumber": "0x2619606",
          "blockTimestamp": "0x694d88ef",
          "transactionHash": "0x7d61f8b9da4af7a066ee95db03217f372afe0a3e4233b9c2d66c8fb97e30f2b6",
          "transactionIndex": "0x45",
          "logIndex": "0xcf",
          "removed": false
        },
        {
          "address": "0xad473eaa51821c915d03d9db5349a0586d55e55e",
          "topics": [
            "0x94af2fbea15ff3140faa3f70571c806b44849899a559d3c9f306155e45de0416",
            "0x0000000000000000000000000000000000000000000000000000000000000002",
            "0x000000000000000000000000e403f79171b7050c78479f52e49e753d43e72c1a"
          ],
          "data": "0x000000000000000000000000000000000000000000000000000000000000000100000000000000000000000000000000000000000000000000000000000000000000000000000000000000000000000000000000000000000000000000000000",
          "blockHash": "0x68a0368adafb30b6891e2bb84b2283519bc7292f1c8a95b6711c94dbfe369713",
          "blockNumber": "0x2619606",
          "blockTimestamp": "0x694d88ef",
          "transactionHash": "0x7d61f8b9da4af7a066ee95db03217f372afe0a3e4233b9c2d66c8fb97e30f2b6",
          "transactionIndex": "0x45",
          "logIndex": "0xd0",
          "removed": false
        }
      ],
      "logsBloom": "0x04000000000000000000000000000000000000000000000000000040000400000000000000000000000000000000000000000000000000000000000000000000000000000001000000000000000000000000000000000000000000000000000000000000000000000000000000000000000000000000000000200000000000000000000000000000000000000200000000002000000000040002000000000000000004000000000000000100000000000000000000000000000000000000000000000000000000000000000000000000000000000000000000000008000004000000000000000000000000000000000000000000008000800000000000000000",
      "type": "0x2",
      "transactionHash": "0x7d61f8b9da4af7a066ee95db03217f372afe0a3e4233b9c2d66c8fb97e30f2b6",
      "transactionIndex": "0x45",
      "blockHash": "0x68a0368adafb30b6891e2bb84b2283519bc7292f1c8a95b6711c94dbfe369713",
      "blockNumber": "0x2619606",
      "gasUsed": "0x3bd76",
      "effectiveGasPrice": "0x16e2d2",
      "blobGasUsed": "0x7ef4",
      "from": "0xe403f79171b7050c78479f52e49e753d43e72c1a",
      "to": "0xad473eaa51821c915d03d9db5349a0586d55e55e",
      "contractAddress": null,
      "daFootprintGasScalar": "0x145",
      "l1BaseFeeScalar": "0x8dd",
      "l1BlobBaseFee": "0x1cf0e7",
      "l1BlobBaseFeeScalar": "0x101c12",
      "l1Fee": "0x16a195e7",
      "l1GasPrice": "0x1d93ed3",
      "l1GasUsed": "0x640"
    },
    {
      "status": "0x1",
      "cumulativeGasUsed": "0x86021e",
      "logs": [
        {
          "address": "0xad473eaa51821c915d03d9db5349a0586d55e55e",
          "topics": [
            "0xca1357e0f94306885a9813b6797ad5acadca27e6b5bccbde2640d84f319df31e",
            "0x0000000000000000000000000000000000000000000000000000000000000003"
          ],
          "data": "0x3608f503d624b47779fba399a097e68bc35cdbd22fcf04e3d6b7a3bd8fa9b7460000000000000000000000000000000000000000000000000000000000000000",
          "blockHash": "0x61bc4e52994e7a7899d5f556b152859b95a3f45ce85c3b8a9770547458657012",
          "blockNumber": "0x2619606",
          "blockTimestamp": "0x694d88ef",
          "transactionHash": "0x5dcf3d43b45f6be257fa0b9791c5d535fafa6fa5dc70aa6c0c90dabeeb3312a0",
          "transactionIndex": "0x46",
          "logIndex": "0xd1",
          "removed": false
        },
        {
          "address": "0xad473eaa51821c915d03d9db5349a0586d55e55e",
          "topics": [
            "0x94af2fbea15ff3140faa3f70571c806b44849899a559d3c9f306155e45de0416",
            "0x0000000000000000000000000000000000000000000000000000000000000003",
            "0x000000000000000000000000e403f79171b7050c78479f52e49e753d43e72c1a"
          ],
          "data": "0x000000000000000000000000000000000000000000000000000000000000000100000000000000000000000000000000000000000000000000000000000000000000000000000000000000000000000000000000000000000000000000000000",
          "blockHash": "0x61bc4e52994e7a7899d5f556b152859b95a3f45ce85c3b8a9770547458657012",
          "blockNumber": "0x2619606",
          "blockTimestamp": "0x694d88ef",
          "transactionHash": "0x5dcf3d43b45f6be257fa0b9791c5d535fafa6fa5dc70aa6c0c90dabeeb3312a0",
          "transactionIndex": "0x46",
          "logIndex": "0xd2",
          "removed": false
        }
      ],
      "logsBloom": "0x00000000000000000000000000000000000000000000000000000040000400000000000000000000000000000000000000000000020000000000000000000000000000000001000000000000000000000000000000000000000000000000000000000000000000000000000000000000000000000000000000200000000000000000000000000000000000000200000000002000000000040002000000000000000004000000000000000000000000000000000000800000000000000000400000000000000000000000000000000000000000000000000000000008000004000000000000000000000000000000000000000000000000800000000000000000",
      "type": "0x2",
      "transactionHash": "0x5dcf3d43b45f6be257fa0b9791c5d535fafa6fa5dc70aa6c0c90dabeeb3312a0",
      "transactionIndex": "0x46",
      "blockHash": "0x61bc4e52994e7a7899d5f556b152859b95a3f45ce85c3b8a9770547458657012",
      "blockNumber": "0x2619606",
      "gasUsed": "0x3bd76",
      "effectiveGasPrice": "0x16e2d2",
      "blobGasUsed": "0x7ef4",
      "from": "0xe403f79171b7050c78479f52e49e753d43e72c1a",
      "to": "0xad473eaa51821c915d03d9db5349a0586d55e55e",
      "contractAddress": null,
      "daFootprintGasScalar": "0x145",
      "l1BaseFeeScalar": "0x8dd",
      "l1BlobBaseFee": "0x1cf0e7",
      "l1BlobBaseFeeScalar": "0x101c12",
      "l1Fee": "0x12a58db5",
      "l1GasPrice": "0x1d93ed3",
      "l1GasUsed": "0x640"
    },
    {
      "status": "0x1",
      "cumulativeGasUsed": "0x89bf94",
      "logs": [
        {
          "address": "0xad473eaa51821c915d03d9db5349a0586d55e55e",
          "topics": [
            "0xca1357e0f94306885a9813b6797ad5acadca27e6b5bccbde2640d84f319df31e",
            "0x0000000000000000000000000000000000000000000000000000000000000004"
          ],
          "data": "0x3608f503d624b47779fba399a097e68bc35cdbd22fcf04e3d6b7a3bd8fa9b7460000000000000000000000000000000000000000000000000000000000000000",
          "blockHash": "0x68a0368adafb30b6891e2bb84b2283519bc7292f1c8a95b6711c94dbfe369713",
          "blockNumber": "0x2619606",
          "blockTimestamp": "0x694d88ef",
          "transactionHash": "0xc7a97f039b068429c6f708ac546203625504d589633d4a043480f9742e03ded1",
          "transactionIndex": "0x47",
          "logIndex": "0xd3",
          "removed": false
        },
        {
          "address": "0xad473eaa51821c915d03d9db5349a0586d55e55e",
          "topics": [
            "0x94af2fbea15ff3140faa3f70571c806b44849899a559d3c9f306155e45de0416",
            "0x0000000000000000000000000000000000000000000000000000000000000004",
            "0x000000000000000000000000e403f79171b7050c78479f52e49e753d43e72c1a"
          ],
          "data": "0x000000000000000000000000000000000000000000000000000000000000000100000000000000000000000000000000000000000000000000000000000000000000000000000000000000000000000000000000000000000000000000000000",
          "blockHash": "0x68a0368adafb30b6891e2bb84b2283519bc7292f1c8a95b6711c94dbfe369713",
          "blockNumber": "0x2619606",
          "blockTimestamp": "0x694d88ef",
          "transactionHash": "0xc7a97f039b068429c6f708ac546203625504d589633d4a043480f9742e03ded1",
          "transactionIndex": "0x47",
          "logIndex": "0xd4",
          "removed": false
        }
      ],
      "logsBloom": "0x00000000000000000000000000000000000000000000000000000040000400000000000000000000000000000000000000000000000000000000000000000000000000000001000000000000000000000000000000000000000000000000000008000000000000000000000000000000000000000000000000200000000000000000000000000000000000000200000000002000000000040002000000000000000004000000000000000000000000000000000000000000002000000000000000000000000000000000000000000000000000008000000000000008000004000000000000000000000000000000000000000000000000800000000000000000",
      "type": "0x2",
      "transactionHash": "0xc7a97f039b068429c6f708ac546203625504d589633d4a043480f9742e03ded1",
      "transactionIndex": "0x47",
      "blockHash": "0x68a0368adafb30b6891e2bb84b2283519bc7292f1c8a95b6711c94dbfe369713",
      "blockNumber": "0x2619606",
      "gasUsed": "0x3bd76",
      "effectiveGasPrice": "0x16e2d2",
      "blobGasUsed": "0x7ef4",
      "from": "0xe403f79171b7050c78479f52e49e753d43e72c1a",
      "to": "0xad473eaa51821c915d03d9db5349a0586d55e55e",
      "contractAddress": null,
      "daFootprintGasScalar": "0x145",
      "l1BaseFeeScalar": "0x8dd",
      "l1BlobBaseFee": "0x1cf0e7",
      "l1BlobBaseFeeScalar": "0x101c12",
      "l1Fee": "0x16a195e7",
      "l1GasPrice": "0x1d93ed3",
      "l1GasUsed": "0x640"
    },
    {
      "status": "0x1",
      "cumulativeGasUsed": "0x8d7d0a",
      "logs": [
        {
          "address": "0xad473eaa51821c915d03d9db5349a0586d55e55e",
          "topics": [
            "0xca1357e0f94306885a9813b6797ad5acadca27e6b5bccbde2640d84f319df31e",
            "0x0000000000000000000000000000000000000000000000000000000000000005"
          ],
          "data": "0x3608f503d624b47779fba399a097e68bc35cdbd22fcf04e3d6b7a3bd8fa9b7460000000000000000000000000000000000000000000000000000000000000000",
          "blockHash": "0x61bc4e52994e7a7899d5f556b152859b95a3f45ce85c3b8a9770547458657012",
          "blockNumber": "0x2619606",
          "blockTimestamp": "0x694d88ef",
          "transactionHash": "0xf34ded6a946e62309ebe344a445a735074e43dd5d1d2b9718d88b05e7dc6b278",
          "transactionIndex": "0x48",
          "logIndex": "0xd5",
          "removed": false
        },
        {
          "address": "0xad473eaa51821c915d03d9db5349a0586d55e55e",
          "topics": [
            "0x94af2fbea15ff3140faa3f70571c806b44849899a559d3c9f306155e45de0416",
            "0x0000000000000000000000000000000000000000000000000000000000000005",
            "0x000000000000000000000000e403f79171b7050c78479f52e49e753d43e72c1a"
          ],
          "data": "0x000000000000000000000000000000000000000000000000000000000000000100000000000000000000000000000000000000000000000000000000000000000000000000000000000000000000000000000000000000000000000000000000",
          "blockHash": "0x61bc4e52994e7a7899d5f556b152859b95a3f45ce85c3b8a9770547458657012",
          "blockNumber": "0x2619606",
          "blockTimestamp": "0x694d88ef",
          "transactionHash": "0xf34ded6a946e62309ebe344a445a735074e43dd5d1d2b9718d88b05e7dc6b278",
          "transactionIndex": "0x48",
          "logIndex": "0xd6",
          "removed": false
        }
      ],
      "logsBloom": "0x00000000000000000000000000000000000000000000000000000040000400000000000000000000000000000000000000000000000000000000000000000000000010000001000000000000000000000000000000000000000000000000000000000000000000000000000000000000000000000000000000200000000000000000000000000000000000000200001000002800000000040002000000000000000004000000000000000000000000000000000000000000000000000000000000000000000000000000000000000000000000000000000000000008000004000000000000000000000000000000000000000000000000800000000000000000",
      "type": "0x2",
      "transactionHash": "0xf34ded6a946e62309ebe344a445a735074e43dd5d1d2b9718d88b05e7dc6b278",
      "transactionIndex": "0x48",
      "blockHash": "0x61bc4e52994e7a7899d5f556b152859b95a3f45ce85c3b8a9770547458657012",
      "blockNumber": "0x2619606",
      "gasUsed": "0x3bd76",
      "effectiveGasPrice": "0x16e2d2",
      "blobGasUsed": "0x7ef4",
      "from": "0xe403f79171b7050c78479f52e49e753d43e72c1a",
      "to": "0xad473eaa51821c915d03d9db5349a0586d55e55e",
      "contractAddress": null,
      "daFootprintGasScalar": "0x145",
      "l1BaseFeeScalar": "0x8dd",
      "l1BlobBaseFee": "0x1cf0e7",
      "l1BlobBaseFeeScalar": "0x101c12",
      "l1Fee": "0x12a58db5",
      "l1GasPrice": "0x1d93ed3",
      "l1GasUsed": "0x640"
    },
    {
      "status": "0x1",
      "cumulativeGasUsed": "0x913a80",
      "logs": [
        {
          "address": "0xad473eaa51821c915d03d9db5349a0586d55e55e",
          "topics": [
            "0xca1357e0f94306885a9813b6797ad5acadca27e6b5bccbde2640d84f319df31e",
            "0x0000000000000000000000000000000000000000000000000000000000000006"
          ],
          "data": "0x3608f503d624b47779fba399a097e68bc35cdbd22fcf04e3d6b7a3bd8fa9b7460000000000000000000000000000000000000000000000000000000000000000",
          "blockHash": "0x68a0368adafb30b6891e2bb84b2283519bc7292f1c8a95b6711c94dbfe369713",
          "blockNumber": "0x2619606",
          "blockTimestamp": "0x694d88ef",
          "transactionHash": "0xe29429c8fbcbf8acfb5a8fa42f411285d5497950f78c012161822fdfd3770c58",
          "transactionIndex": "0x49",
          "logIndex": "0xd7",
          "removed": false
        },
        {
          "address": "0xad473eaa51821c915d03d9db5349a0586d55e55e",
          "topics": [
            "0x94af2fbea15ff3140faa3f70571c806b44849899a559d3c9f306155e45de0416",
            "0x0000000000000000000000000000000000000000000000000000000000000006",
            "0x000000000000000000000000e403f79171b7050c78479f52e49e753d43e72c1a"
          ],
          "data": "0x000000000000000000000000000000000000000000000000000000000000000100000000000000000000000000000000000000000000000000000000000000000000000000000000000000000000000000000000000000000000000000000000",
          "blockHash": "0x68a0368adafb30b6891e2bb84b2283519bc7292f1c8a95b6711c94dbfe369713",
          "blockNumber": "0x2619606",
          "blockTimestamp": "0x694d88ef",
          "transactionHash": "0xe29429c8fbcbf8acfb5a8fa42f411285d5497950f78c012161822fdfd3770c58",
          "transactionIndex": "0x49",
          "logIndex": "0xd8",
          "removed": false
        }
      ],
      "logsBloom": "0x00000000000000000000000000000000000000000000000000000040000400000000000000000000000000000000000000000000000400000000000000000000000000000001000000000000000000000000000000000000000000000000000000000000000000000000000000000000000000000000000000200000000000000000000400000000000000000200000000002000000000040002000000000000000004000000000000000000000000000000000000000000000000080000000000000000000000000000000000000000000000000000000000000008000004000000000000000000000000000000000000000000000000800000000000000000",
      "type": "0x2",
      "transactionHash": "0xe29429c8fbcbf8acfb5a8fa42f411285d5497950f78c012161822fdfd3770c58",
      "transactionIndex": "0x49",
      "blockHash": "0x68a0368adafb30b6891e2bb84b2283519bc7292f1c8a95b6711c94dbfe369713",
      "blockNumber": "0x2619606",
      "gasUsed": "0x3bd76",
      "effectiveGasPrice": "0x16e2d2",
      "blobGasUsed": "0x7ef4",
      "from": "0xe403f79171b7050c78479f52e49e753d43e72c1a",
      "to": "0xad473eaa51821c915d03d9db5349a0586d55e55e",
      "contractAddress": null,
      "daFootprintGasScalar": "0x145",
      "l1BaseFeeScalar": "0x8dd",
      "l1BlobBaseFee": "0x1cf0e7",
      "l1BlobBaseFeeScalar": "0x101c12",
      "l1Fee": "0x16a195e7",
      "l1GasPrice": "0x1d93ed3",
      "l1GasUsed": "0x640"
    },
    {
      "status": "0x1",
      "cumulativeGasUsed": "0x94f7f6",
      "logs": [
        {
          "address": "0xad473eaa51821c915d03d9db5349a0586d55e55e",
          "topics": [
            "0xca1357e0f94306885a9813b6797ad5acadca27e6b5bccbde2640d84f319df31e",
            "0x0000000000000000000000000000000000000000000000000000000000000007"
          ],
          "data": "0x3608f503d624b47779fba399a097e68bc35cdbd22fcf04e3d6b7a3bd8fa9b7460000000000000000000000000000000000000000000000000000000000000000",
          "blockHash": "0x68a0368adafb30b6891e2bb84b2283519bc7292f1c8a95b6711c94dbfe369713",
          "blockNumber": "0x2619606",
          "blockTimestamp": "0x694d88ef",
          "transactionHash": "0x6af0b12f76488dbfe4ff6d3b63249f114a697c799a745c851227422c0e054e2e",
          "transactionIndex": "0x4a",
          "logIndex": "0xd9",
          "removed": false
        },
        {
          "address": "0xad473eaa51821c915d03d9db5349a0586d55e55e",
          "topics": [
            "0x94af2fbea15ff3140faa3f70571c806b44849899a559d3c9f306155e45de0416",
            "0x0000000000000000000000000000000000000000000000000000000000000007",
            "0x000000000000000000000000e403f79171b7050c78479f52e49e753d43e72c1a"
          ],
          "data": "0x000000000000000000000000000000000000000000000000000000000000000100000000000000000000000000000000000000000000000000000000000000000000000000000000000000000000000000000000000000000000000000000000",
          "blockHash": "0x68a0368adafb30b6891e2bb84b2283519bc7292f1c8a95b6711c94dbfe369713",
          "blockNumber": "0x2619606",
          "blockTimestamp": "0x694d88ef",
          "transactionHash": "0x6af0b12f76488dbfe4ff6d3b63249f114a697c799a745c851227422c0e054e2e",
          "transactionIndex": "0x4a",
          "logIndex": "0xda",
          "removed": false
        }
      ],
      "logsBloom": "0x00000000000000000000000000000000000000000000000000000040000400000000000000000000000000000000000000001000000000000000000000000000000020000001000000000000000000000000000000000000000000000000000000000000000000000000000000000000000000000000000000200000000000000000000000000000000000000200000000002000000000040002000000000000000004000000000000000000000000000000000000000000000000000000000000000000000000000000000000000000000000000000000000000108000004000000000000000000000000000000000000000000000000800000000000000000",
      "type": "0x2",
      "transactionHash": "0x6af0b12f76488dbfe4ff6d3b63249f114a697c799a745c851227422c0e054e2e",
      "transactionIndex": "0x4a",
      "blockHash": "0x68a0368adafb30b6891e2bb84b2283519bc7292f1c8a95b6711c94dbfe369713",
      "blockNumber": "0x2619606",
      "gasUsed": "0x3bd76",
      "effectiveGasPrice": "0x16e2d2",
      "blobGasUsed": "0x7ef4",
      "from": "0xe403f79171b7050c78479f52e49e753d43e72c1a",
      "to": "0xad473eaa51821c915d03d9db5349a0586d55e55e",
      "contractAddress": null,
      "daFootprintGasScalar": "0x145",
      "l1BaseFeeScalar": "0x8dd",
      "l1BlobBaseFee": "0x1cf0e7",
      "l1BlobBaseFeeScalar": "0x101c12",
      "l1Fee": "0x16a195e7",
      "l1GasPrice": "0x1d93ed3",
      "l1GasUsed": "0x640"
    },
    {
      "status": "0x1",
      "cumulativeGasUsed": "0x98b56c",
      "logs": [
        {
          "address": "0xad473eaa51821c915d03d9db5349a0586d55e55e",
          "topics": [
            "0xca1357e0f94306885a9813b6797ad5acadca27e6b5bccbde2640d84f319df31e",
            "0x0000000000000000000000000000000000000000000000000000000000000008"
          ],
          "data": "0x3608f503d624b47779fba399a097e68bc35cdbd22fcf04e3d6b7a3bd8fa9b7460000000000000000000000000000000000000000000000000000000000000000",
          "blockHash": "0x68a0368adafb30b6891e2bb84b2283519bc7292f1c8a95b6711c94dbfe369713",
          "blockNumber": "0x2619606",
          "blockTimestamp": "0x694d88ef",
          "transactionHash": "0xd9f71480f50348afcf5ad67bc6efe653c7386ef6e728291758dfd79314463b60",
          "transactionIndex": "0x4b",
          "logIndex": "0xdb",
          "removed": false
        },
        {
          "address": "0xad473eaa51821c915d03d9db5349a0586d55e55e",
          "topics": [
            "0x94af2fbea15ff3140faa3f70571c806b44849899a559d3c9f306155e45de0416",
            "0x0000000000000000000000000000000000000000000000000000000000000008",
            "0x000000000000000000000000e403f79171b7050c78479f52e49e753d43e72c1a"
          ],
          "data": "0x000000000000000000000000000000000000000000000000000000000000000100000000000000000000000000000000000000000000000000000000000000000000000000000000000000000000000000000000000000000000000000000000",
          "blockHash": "0x68a0368adafb30b6891e2bb84b2283519bc7292f1c8a95b6711c94dbfe369713",
          "blockNumber": "0x2619606",
          "blockTimestamp": "0x694d88ef",
          "transactionHash": "0xd9f71480f50348afcf5ad67bc6efe653c7386ef6e728291758dfd79314463b60",
          "transactionIndex": "0x4b",
          "logIndex": "0xdc",
          "removed": false
        }
      ],
      "logsBloom": "0x00000000000000000000000000000000000000000000000000000040000400000000000000000000000000000000000000000000000080000000000000000000000000000001000000000000000000000000000000000000000000000000000000000000000000000000000000000000000000000000000000200000000000000080000000000000000000000200000000002000000000040002000000000000000004000000000000000000000000000000000000000000000000000000000040000000000000000000000000000000000000000000000000000008000004000000000000000000000000000000000000000000000000800000000000000000",
      "type": "0x2",
      "transactionHash": "0xd9f71480f50348afcf5ad67bc6efe653c7386ef6e728291758dfd79314463b60",
      "transactionIndex": "0x4b",
      "blockHash": "0x68a0368adafb30b6891e2bb84b2283519bc7292f1c8a95b6711c94dbfe369713",
      "blockNumber": "0x2619606",
      "gasUsed": "0x3bd76",
      "effectiveGasPrice": "0x16e2d2",
      "blobGasUsed": "0x7ef4",
      "from": "0xe403f79171b7050c78479f52e49e753d43e72c1a",
      "to": "0xad473eaa51821c915d03d9db5349a0586d55e55e",
      "contractAddress": null,
      "daFootprintGasScalar": "0x145",
      "l1BaseFeeScalar": "0x8dd",
      "l1BlobBaseFee": "0x1cf0e7",
      "l1BlobBaseFeeScalar": "0x101c12",
      "l1Fee": "0x16a195e7",
      "l1GasPrice": "0x1d93ed3",
      "l1GasUsed": "0x640"
    },
    {
      "status": "0x1",
      "cumulativeGasUsed": "0x99cb83",
      "logs": [
        {
          "address": "0xad473eaa51821c915d03d9db5349a0586d55e55e",
          "topics": [
            "0x36e13ba1e45df3ecb8f6beb6274a1f5d4abf4c0792bb56700354f0d50bf0acd7",
            "0x0000000000000000000000000000000000000000000000000000000000000001",
            "0x000000000000000000000000e403f79171b7050c78479f52e49e753d43e72c1a"
          ],
          "data": "0xe8773807ffd17108aa2d132cec684352f2c5c8337ff4659cc010d15b0551847d0000000000000000000000000000000000000000000000000000000000000001000000000000000000000000000000000000000000000000000000000000006000000000000000000000000000000000000000000000000000000000000000043424000000000000000000000000000000000000000000000000000000000000",
          "blockHash": "0x68a0368adafb30b6891e2bb84b2283519bc7292f1c8a95b6711c94dbfe369713",
          "blockNumber": "0x2619606",
          "blockTimestamp": "0x694d88ef",
          "transactionHash": "0x502a4c932d961c8350e8a133d8de3da1bca9640c0546c099b2e30b91bdcf0f28",
          "transactionIndex": "0x4c",
          "logIndex": "0xdd",
          "removed": false
        },
        {
          "address": "0xad473eaa51821c915d03d9db5349a0586d55e55e",
          "topics": [
            "0x36e13ba1e45df3ecb8f6beb6274a1f5d4abf4c0792bb56700354f0d50bf0acd7",
            "0x0000000000000000000000000000000000000000000000000000000000000001",
            "0x000000000000000000000000ad473eaa51821c915d03d9db5349a0586d55e55e"
          ],
          "data": "0xf4bb36a023d03b095a88119a20a9000a252aea11d80408b3bd0c6bade87b4ba70000000000000000000000000000000000000000000000000000000000000002000000000000000000000000000000000000000000000000000000000000006000000000000000000000000000000000000000000000000000000000000000043424000000000000000000000000000000000000000000000000000000000000",
          "blockHash": "0x68a0368adafb30b6891e2bb84b2283519bc7292f1c8a95b6711c94dbfe369713",
          "blockNumber": "0x2619606",
          "blockTimestamp": "0x694d88ef",
          "transactionHash": "0x502a4c932d961c8350e8a133d8de3da1bca9640c0546c099b2e30b91bdcf0f28",
          "transactionIndex": "0x4c",
          "logIndex": "0xde",
          "removed": false
        }
      ],
      "logsBloom": "0x00000000000000000000000000000000000000000000000000000000000400000000000000000000000000000000000000000000000000000000000000040000000000000000000000000000000000000000000010040000000000000000000000000000000000000000000000000040000000000400000000000000000000000000000000000000000000000200000000000000000000040002000000000000000004000000000000000000000000000000000000000000000000004000000000000000000000000000000000400000000000000000000000000000000840000000000000000000000000000000000000000000000000800000000000000000",
      "type": "0x2",
      "transactionHash": "0x502a4c932d961c8350e8a133d8de3da1bca9640c0546c099b2e30b91bdcf0f28",
      "transactionIndex": "0x4c",
      "blockHash": "0x68a0368adafb30b6891e2bb84b2283519bc7292f1c8a95b6711c94dbfe369713",
      "blockNumber": "0x2619606",
      "gasUsed": "0x11617",
      "effectiveGasPrice": "0x16e2d2",
      "blobGasUsed": "0x8a61",
      "from": "0xe403f79171b7050c78479f52e49e753d43e72c1a",
      "to": "0xad473eaa51821c915d03d9db5349a0586d55e55e",
      "contractAddress": null,
      "daFootprintGasScalar": "0x145",
      "l1BaseFeeScalar": "0x8dd",
      "l1BlobBaseFee": "0x1cf0e7",
      "l1BlobBaseFeeScalar": "0x101c12",
      "l1Fee": "0x16a195e7",
      "l1GasPrice": "0x1d93ed3",
      "l1GasUsed": "0x6da"
    },
    {
      "status": "0x1",
      "cumulativeGasUsed": "0x9a9f78",
      "logs": [
        {
          "address": "0xad473eaa51821c915d03d9db5349a0586d55e55e",
          "topics": [
            "0x36e13ba1e45df3ecb8f6beb6274a1f5d4abf4c0792bb56700354f0d50bf0acd7",
            "0x0000000000000000000000000000000000000000000000000000000000000001",
            "0x000000000000000000000000e403f79171b7050c78479f52e49e753d43e72c1a"
          ],
          "data": "0x0692c63251d62c8f04eed454cc75e5bc199ba842e6b8106095e5d806a5e48cfa0000000000000000000000000000000000000000000000000000000000000003000000000000000000000000000000000000000000000000000000000000006000000000000000000000000000000000000000000000000000000000000000043323000000000000000000000000000000000000000000000000000000000000",
          "blockHash": "0x68a0368adafb30b6891e2bb84b2283519bc7292f1c8a95b6711c94dbfe369713",
          "blockNumber": "0x2619606",
          "blockTimestamp": "0x694d88ef",
          "transactionHash": "0xba3daee90e9a8fdbb61dd36e57b977e0b2a758643019b8df2918b7ddd3c77fae",
          "transactionIndex": "0x4d",
          "logIndex": "0xdf",
          "removed": false
        },
        {
          "address": "0xad473eaa51821c915d03d9db5349a0586d55e55e",
          "topics": [
            "0x36e13ba1e45df3ecb8f6beb6274a1f5d4abf4c0792bb56700354f0d50bf0acd7",
            "0x0000000000000000000000000000000000000000000000000000000000000001",
            "0x000000000000000000000000ad473eaa51821c915d03d9db5349a0586d55e55e"
          ],
          "data": "0x80db663b91d50261d3b6cf7c40f14617bc570551fdc50ae5d379aac6ea1fb5d50000000000000000000000000000000000000000000000000000000000000004000000000000000000000000000000000000000000000000000000000000006000000000000000000000000000000000000000000000000000000000000000043d0c000000000000000000000000000000000000000000000000000000000000",
          "blockHash": "0x68a0368adafb30b6891e2bb84b2283519bc7292f1c8a95b6711c94dbfe369713",
          "blockNumber": "0x2619606",
          "blockTimestamp": "0x694d88ef",
          "transactionHash": "0xba3daee90e9a8fdbb61dd36e57b977e0b2a758643019b8df2918b7ddd3c77fae",
          "transactionIndex": "0x4d",
          "logIndex": "0xe0",
          "removed": false
        }
      ],
      "logsBloom": "0x00000000000000000000000000000000000000000000000000000000000400000000000000000000000000000000000000000000000000000000000000040000000000000000000000000000000000000000000010040000000000000000000000000000000000000000000000000040000000000400000000000000000000000000000000000000000000000200000000000000000000040002000000000000000004000000000000000000000000000000000000000000000000004000000000000000000000000000000000400000000000000000000000000000000840000000000000000000000000000000000000000000000000800000000000000000",
      "type": "0x2",
      "transactionHash": "0xba3daee90e9a8fdbb61dd36e57b977e0b2a758643019b8df2918b7ddd3c77fae",
      "transactionIndex": "0x4d",
      "blockHash": "0x68a0368adafb30b6891e2bb84b2283519bc7292f1c8a95b6711c94dbfe369713",
      "blockNumber": "0x2619606",
      "gasUsed": "0xd3f5",
      "effectiveGasPrice": "0x16e2d2",
      "blobGasUsed": "0x8a61",
      "from": "0xe403f79171b7050c78479f52e49e753d43e72c1a",
      "to": "0xad473eaa51821c915d03d9db5349a0586d55e55e",
      "contractAddress": null,
      "daFootprintGasScalar": "0x145",
      "l1BaseFeeScalar": "0x8dd",
      "l1BlobBaseFee": "0x1cf0e7",
      "l1BlobBaseFeeScalar": "0x101c12",
      "l1Fee": "0x16a195e7",
      "l1GasPrice": "0x1d93ed3",
      "l1GasUsed": "0x6da"
    },
    {
      "status": "0x1",
      "cumulativeGasUsed": "0x9b736d",
      "logs": [
        {
          "address": "0xad473eaa51821c915d03d9db5349a0586d55e55e",
          "topics": [
            "0x36e13ba1e45df3ecb8f6beb6274a1f5d4abf4c0792bb56700354f0d50bf0acd7",
            "0x0000000000000000000000000000000000000000000000000000000000000001",
            "0x000000000000000000000000e403f79171b7050c78479f52e49e753d43e72c1a"
          ],
          "data": "0x4442d021ec118fea7ce3641d3375363801af2e92adb1272f726cf20292795a62000000000000000000000000000000000000000000000000000000000000000500000000000000000000000000000000000000000000000000000000000000600000000000000000000000000000000000000000000000000000000000000004392a000000000000000000000000000000000000000000000000000000000000",
          "blockHash": "0x61bc4e52994e7a7899d5f556b152859b95a3f45ce85c3b8a9770547458657012",
          "blockNumber": "0x2619606",
          "blockTimestamp": "0x694d88ef",
          "transactionHash": "0xf18dfd0ce586c55b95364988ffb8d40f65a4bb4377cd779a022e4543cedf1cf9",
          "transactionIndex": "0x4e",
          "logIndex": "0xe1",
          "removed": false
        },
        {
          "address": "0xad473eaa51821c915d03d9db5349a0586d55e55e",
          "topics": [
            "0x36e13ba1e45df3ecb8f6beb6274a1f5d4abf4c0792bb56700354f0d50bf0acd7",
            "0x0000000000000000000000000000000000000000000000000000000000000001",
            "0x000000000000000000000000ad473eaa51821c915d03d9db5349a0586d55e55e"
          ],
          "data": "0xe131cca08afe30756df90d03f27be0045be7f7a0d73031afbdf14f8a193cb8e6000000000000000000000000000000000000000000000000000000000000000600000000000000000000000000000000000000000000000000000000000000600000000000000000000000000000000000000000000000000000000000000004271a000000000000000000000000000000000000000000000000000000000000",
          "blockHash": "0x61bc4e52994e7a7899d5f556b152859b95a3f45ce85c3b8a9770547458657012",
          "blockNumber": "0x2619606",
          "blockTimestamp": "0x694d88ef",
          "transactionHash": "0xf18dfd0ce586c55b95364988ffb8d40f65a4bb4377cd779a022e4543cedf1cf9",
          "transactionIndex": "0x4e",
          "logIndex": "0xe2",
          "removed": false
        }
      ],
      "logsBloom": "0x00000000000000000000000000000000000000000000000000000000000400000000000000000000000000000000000000000000000000000000000000040000000000000000000000000000000000000000000010040000000000000000000000000000000000000000000000000040000000000400000000000000000000000000000000000000000000000200000000000000000000040002000000000000000004000000000000000000000000000000000000000000000000004000000000000000000000000000000000400000000000000000000000000000000840000000000000000000000000000000000000000000000000800000000000000000",
      "type": "0x2",
      "transactionHash": "0xf18dfd0ce586c55b95364988ffb8d40f65a4bb4377cd779a022e4543cedf1cf9",
      "transactionIndex": "0x4e",
      "blockHash": "0x61bc4e52994e7a7899d5f556b152859b95a3f45ce85c3b8a9770547458657012",
      "blockNumber": "0x2619606",
      "gasUsed": "0xd3f5",
      "effectiveGasPrice": "0x16e2d2",
      "blobGasUsed": "0x8a61",
      "from": "0xe403f79171b7050c78479f52e49e753d43e72c1a",
      "to": "0xad473eaa51821c915d03d9db5349a0586d55e55e",
      "contractAddress": null,
      "daFootprintGasScalar": "0x145",
      "l1BaseFeeScalar": "0x8dd",
      "l1BlobBaseFee": "0x1cf0e7",
      "l1BlobBaseFeeScalar": "0x101c12",
      "l1Fee": "0x14728e01",
      "l1GasPrice": "0x1d93ed3",
      "l1GasUsed": "0x6da"
    },
    {
      "status": "0x1",
      "cumulativeGasUsed": "0x9c4762",
      "logs": [
        {
          "address": "0xad473eaa51821c915d03d9db5349a0586d55e55e",
          "topics": [
            "0x36e13ba1e45df3ecb8f6beb6274a1f5d4abf4c0792bb56700354f0d50bf0acd7",
            "0x0000000000000000000000000000000000000000000000000000000000000001",
            "0x000000000000000000000000e403f79171b7050c78479f52e49e753d43e72c1a"
          ],
          "data": "0xc7183fc0754b5e7da3b74bf364f8affe59ffdf73627f9b8e7d4991d4453bd3640000000000000000000000000000000000000000000000000000000000000007000000000000000000000000000000000000000000000000000000000000006000000000000000000000000000000000000000000000000000000000000000043b2c000000000000000000000000000000000000000000000000000000000000",
          "blockHash": "0x68a0368adafb30b6891e2bb84b2283519bc7292f1c8a95b6711c94dbfe369713",
          "blockNumber": "0x2619606",
          "blockTimestamp": "0x694d88ef",
          "transactionHash": "0x94b6bd59b50e30f98ad776a91e2041e7941a5812071b333695c958a9565be553",
          "transactionIndex": "0x4f",
          "logIndex": "0xe3",
          "removed": false
        },
        {
          "address": "0xad473eaa51821c915d03d9db5349a0586d55e55e",
          "topics": [
            "0x36e13ba1e45df3ecb8f6beb6274a1f5d4abf4c0792bb56700354f0d50bf0acd7",
            "0x0000000000000000000000000000000000000000000000000000000000000001",
            "0x000000000000000000000000ad473eaa51821c915d03d9db5349a0586d55e55e"
          ],
          "data": "0xfa672e07d673b2d218b92d8ee0e059b5d1bfc274c1d1aaf67086a3dbe5f1587f0000000000000000000000000000000000000000000000000000000000000008000000000000000000000000000000000000000000000000000000000000006000000000000000000000000000000000000000000000000000000000000000042b13000000000000000000000000000000000000000000000000000000000000",
          "blockHash": "0x68a0368adafb30b6891e2bb84b2283519bc7292f1c8a95b6711c94dbfe369713",
          "blockNumber": "0x2619606",
          "blockTimestamp": "0x694d88ef",
          "transactionHash": "0x94b6bd59b50e30f98ad776a91e2041e7941a5812071b333695c958a9565be553",
          "transactionIndex": "0x4f",
          "logIndex": "0xe4",
          "removed": false
        }
      ],
      "logsBloom": "0x00000000000000000000000000000000000000000000000000000000000400000000000000000000000000000000000000000000000000000000000000040000000000000000000000000000000000000000000010040000000000000000000000000000000000000000000000000040000000000400000000000000000000000000000000000000000000000200000000000000000000040002000000000000000004000000000000000000000000000000000000000000000000004000000000000000000000000000000000400000000000000000000000000000000840000000000000000000000000000000000000000000000000800000000000000000",
      "type": "0x2",
      "transactionHash": "0x94b6bd59b50e30f98ad776a91e2041e7941a5812071b333695c958a9565be553",
      "transactionIndex": "0x4f",
      "blockHash": "0x68a0368adafb30b6891e2bb84b2283519bc7292f1c8a95b6711c94dbfe369713",
      "blockNumber": "0x2619606",
      "gasUsed": "0xd3f5",
      "effectiveGasPrice": "0x16e2d2",
      "blobGasUsed": "0x8a61",
      "from": "0xe403f79171b7050c78479f52e49e753d43e72c1a",
      "to": "0xad473eaa51821c915d03d9db5349a0586d55e55e",
      "contractAddress": null,
      "daFootprintGasScalar": "0x145",
      "l1BaseFeeScalar": "0x8dd",
      "l1BlobBaseFee": "0x1cf0e7",
      "l1BlobBaseFeeScalar": "0x101c12",
      "l1Fee": "0x16a195e7",
      "l1GasPrice": "0x1d93ed3",
      "l1GasUsed": "0x6da"
    },
    {
      "status": "0x1",
      "cumulativeGasUsed": "0x9d5d6d",
      "logs": [
        {
          "address": "0xad473eaa51821c915d03d9db5349a0586d55e55e",
          "topics": [
            "0x36e13ba1e45df3ecb8f6beb6274a1f5d4abf4c0792bb56700354f0d50bf0acd7",
            "0x0000000000000000000000000000000000000000000000000000000000000002",
            "0x000000000000000000000000e403f79171b7050c78479f52e49e753d43e72c1a"
          ],
          "data": "0x90e396633e67bfb131a9c9b400ea842e0f29f45c4bc7872a0e80af48deb785040000000000000000000000000000000000000000000000000000000000000001000000000000000000000000000000000000000000000000000000000000006000000000000000000000000000000000000000000000000000000000000000043028000000000000000000000000000000000000000000000000000000000000",
          "blockHash": "0x61bc4e52994e7a7899d5f556b152859b95a3f45ce85c3b8a9770547458657012",
          "blockNumber": "0x2619606",
          "blockTimestamp": "0x694d88ef",
          "transactionHash": "0xfa3e13e0bb9d81a90aa13c4215e4016587543573d417dfff249570d7928ec9e4",
          "transactionIndex": "0x50",
          "logIndex": "0xe5",
          "removed": false
        },
        {
          "address": "0xad473eaa51821c915d03d9db5349a0586d55e55e",
          "topics": [
            "0x36e13ba1e45df3ecb8f6beb6274a1f5d4abf4c0792bb56700354f0d50bf0acd7",
            "0x0000000000000000000000000000000000000000000000000000000000000002",
            "0x000000000000000000000000ad473eaa51821c915d03d9db5349a0586d55e55e"
          ],
          "data": "0x60e65b9330f95689004881ceb0c70271140d7a6c66037940d345a33188c341c30000000000000000000000000000000000000000000000000000000000000002000000000000000000000000000000000000000000000000000000000000006000000000000000000000000000000000000000000000000000000000000000043424000000000000000000000000000000000000000000000000000000000000",
          "blockHash": "0x61bc4e52994e7a7899d5f556b152859b95a3f45ce85c3b8a9770547458657012",
          "blockNumber": "0x2619606",
          "blockTimestamp": "0x694d88ef",
          "transactionHash": "0xfa3e13e0bb9d81a90aa13c4215e4016587543573d417dfff249570d7928ec9e4",
          "transactionIndex": "0x50",
          "logIndex": "0xe6",
          "removed": false
        }
      ],
      "logsBloom": "0x04000000000000000000000000000000000000000000000000000000000400000000000000000000000000000000000000000000000000000000000000000000000000000000000000000000000000000000000010000000000000000000000000000000000000000000000000000040000000000400000000000000000000000000000000000000000000000200000000000000000000040002000000000000000004000000000000000100000000000000000000000000000000004000000000000000000000000000000000400000000000000000000000000000000800000000000000000000000000000000000000000000008000800000000000000000",
      "type": "0x2",
      "transactionHash": "0xfa3e13e0bb9d81a90aa13c4215e4016587543573d417dfff249570d7928ec9e4",
      "transactionIndex": "0x50",
      "blockHash": "0x61bc4e52994e7a7899d5f556b152859b95a3f45ce85c3b8a9770547458657012",
      "blockNumber": "0x2619606",
      "gasUsed": "0x1160b",
      "effectiveGasPrice": "0x16e2d2",
      "blobGasUsed": "0x8a61",
      "from": "0xe403f79171b7050c78479f52e49e753d43e72c1a",
      "to": "0xad473eaa51821c915d03d9db5349a0586d55e55e",
      "contractAddress": null,
      "daFootprintGasScalar": "0x145",
      "l1BaseFeeScalar": "0x8dd",
      "l1BlobBaseFee": "0x1cf0e7",
      "l1BlobBaseFeeScalar": "0x101c12",
      "l1Fee": "0x14728e01",
      "l1GasPrice": "0x1d93ed3",
      "l1GasUsed": "0x6da"
    },
    {
      "status": "0x1",
      "cumulativeGasUsed": "0x9e3162",
      "logs": [
        {
          "address": "0xad473eaa51821c915d03d9db5349a0586d55e55e",
          "topics": [
            "0x36e13ba1e45df3ecb8f6beb6274a1f5d4abf4c0792bb56700354f0d50bf0acd7",
            "0x0000000000000000000000000000000000000000000000000000000000000002",
            "0x000000000000000000000000e403f79171b7050c78479f52e49e753d43e72c1a"
          ],
          "data": "0xfc6cc8976638831fc84ceab234894f532e0338e7268a3303d4c0c1939f85dbb90000000000000000000000000000000000000000000000000000000000000003000000000000000000000000000000000000000000000000000000000000006000000000000000000000000000000000000000000000000000000000000000043222000000000000000000000000000000000000000000000000000000000000",
          "blockHash": "0x68a0368adafb30b6891e2bb84b2283519bc7292f1c8a95b6711c94dbfe369713",
          "blockNumber": "0x2619606",
          "blockTimestamp": "0x694d88ef",
          "transactionHash": "0x7781bc54bdc430af5535ff019b02f0f0edff46909e9277b2cbe9cc875556fd2e",
          "transactionIndex": "0x51",
          "logIndex": "0xe7",
          "removed": false
        },
        {
          "address": "0xad473eaa51821c915d03d9db5349a0586d55e55e",
          "topics": [
            "0x36e13ba1e45df3ecb8f6beb6274a1f5d4abf4c0792bb56700354f0d50bf0acd7",
            "0x0000000000000000000000000000000000000000000000000000000000000002",
            "0x000000000000000000000000ad473eaa51821c915d03d9db5349a0586d55e55e"
          ],
          "data": "0x0192d1e4a25acce6e7a2d4e8900eba6030b412ccc2d92d174c541b9d6055ff390000000000000000000000000000000000000000000000000000000000000004000000000000000000000000000000000000000000000000000000000000006000000000000000000000000000000000000000000000000000000000000000043c1b000000000000000000000000000000000000000000000000000000000000",
          "blockHash": "0x68a0368adafb30b6891e2bb84b2283519bc7292f1c8a95b6711c94dbfe369713",
          "blockNumber": "0x2619606",
          "blockTimestamp": "0x694d88ef",
          "transactionHash": "0x7781bc54bdc430af5535ff019b02f0f0edff46909e9277b2cbe9cc875556fd2e",
          "transactionIndex": "0x51",
          "logIndex": "0xe8",
          "removed": false
        }
      ],
      "logsBloom": "0x04000000000000000000000000000000000000000000000000000000000400000000000000000000000000000000000000000000000000000000000000000000000000000000000000000000000000000000000010000000000000000000000000000000000000000000000000000040000000000400000000000000000000000000000000000000000000000200000000000000000000040002000000000000000004000000000000000100000000000000000000000000000000004000000000000000000000000000000000400000000000000000000000000000000800000000000000000000000000000000000000000000008000800000000000000000",
      "type": "0x2",
      "transactionHash": "0x7781bc54bdc430af5535ff019b02f0f0edff46909e9277b2cbe9cc875556fd2e",
      "transactionIndex": "0x51",
      "blockHash": "0x68a0368adafb30b6891e2bb84b2283519bc7292f1c8a95b6711c94dbfe369713",
      "blockNumber": "0x2619606",
      "gasUsed": "0xd3f5",
      "effectiveGasPrice": "0x16e2d2",
      "blobGasUsed": "0x8a61",
      "from": "0xe403f79171b7050c78479f52e49e753d43e72c1a",
      "to": "0xad473eaa51821c915d03d9db5349a0586d55e55e",
      "contractAddress": null,
      "daFootprintGasScalar": "0x145",
      "l1BaseFeeScalar": "0x8dd",
      "l1BlobBaseFee": "0x1cf0e7",
      "l1BlobBaseFeeScalar": "0x101c12",
      "l1Fee": "0x16a195e7",
      "l1GasPrice": "0x1d93ed3",
      "l1GasUsed": "0x6da"
    },
    {
      "status": "0x1",
      "cumulativeGasUsed": "0x1361433",
      "logs": [
        {
          "address": "0xad473eaa51821c915d03d9db5349a0586d55e55e",
          "topics": [
            "0x36e13ba1e45df3ecb8f6beb6274a1f5d4abf4c0792bb56700354f0d50bf0acd7",
            "0x0000000000000000000000000000000000000000000000000000000000000002",
            "0x000000000000000000000000e403f79171b7050c78479f52e49e753d43e72c1a"
          ],
          "data": "0xbb9afb9861b8290cda948e4af3b636449a44547dca4c3acbc45e65f4e22aab400000000000000000000000000000000000000000000000000000000000000005000000000000000000000000000000000000000000000000000000000000006000000000000000000000000000000000000000000000000000000000000000043129000000000000000000000000000000000000000000000000000000000000",
          "blockHash": "0x61bc4e52994e7a7899d5f556b152859b95a3f45ce85c3b8a9770547458657012",
          "blockNumber": "0x2619606",
          "blockTimestamp": "0x694d88ef",
          "transactionHash": "0x868c3e6e26a9bb72e62751002d7bea7bf4ce7922a3b343acf0a0572d0e4b5cd1",
          "transactionIndex": "0xa5",
          "logIndex": "0x168",
          "removed": false
        },
        {
          "address": "0xad473eaa51821c915d03d9db5349a0586d55e55e",
          "topics": [
            "0x36e13ba1e45df3ecb8f6beb6274a1f5d4abf4c0792bb56700354f0d50bf0acd7",
            "0x0000000000000000000000000000000000000000000000000000000000000002",
            "0x000000000000000000000000ad473eaa51821c915d03d9db5349a0586d55e55e"
          ],
          "data": "0x2760255e5f8c0d33599f68866f7b7bdd30ba831d73410b4548d9b6c2e2478d1c000000000000000000000000000000000000000000000000000000000000000600000000000000000000000000000000000000000000000000000000000000600000000000000000000000000000000000000000000000000000000000000004052b000000000000000000000000000000000000000000000000000000000000",
          "blockHash": "0x61bc4e52994e7a7899d5f556b152859b95a3f45ce85c3b8a9770547458657012",
          "blockNumber": "0x2619606",
          "blockTimestamp": "0x694d88ef",
          "transactionHash": "0x868c3e6e26a9bb72e62751002d7bea7bf4ce7922a3b343acf0a0572d0e4b5cd1",
          "transactionIndex": "0xa5",
          "logIndex": "0x169",
          "removed": false
        }
      ],
      "logsBloom": "0x04000000000000000000000000000000000000000000000000000000000400000000000000000000000000000000000000000000000000000000000000000000000000000000000000000000000000000000000010000000000000000000000000000000000000000000000000000040000000000400000000000000000000000000000000000000000000000200000000000000000000040002000000000000000004000000000000000100000000000000000000000000000000004000000000000000000000000000000000400000000000000000000000000000000800000000000000000000000000000000000000000000008000800000000000000000",
      "type": "0x2",
      "transactionHash": "0x868c3e6e26a9bb72e62751002d7bea7bf4ce7922a3b343acf0a0572d0e4b5cd1",
      "transactionIndex": "0xa5",
      "blockHash": "0x61bc4e52994e7a7899d5f556b152859b95a3f45ce85c3b8a9770547458657012",
      "blockNumber": "0x2619606",
      "gasUsed": "0xd3f5",
      "effectiveGasPrice": "0x16e2d2",
      "blobGasUsed": "0x8a61",
      "from": "0xe403f79171b7050c78479f52e49e753d43e72c1a",
      "to": "0xad473eaa51821c915d03d9db5349a0586d55e55e",
      "contractAddress": null,
      "daFootprintGasScalar": "0x145",
      "l1BaseFeeScalar": "0x8dd",
      "l1BlobBaseFee": "0x1cf0e7",
      "l1BlobBaseFeeScalar": "0x101c12",
      "l1Fee": "0x14728e01",
      "l1GasPrice": "0x1d93ed3",
      "l1GasUsed": "0x6da"
    },
    {
      "status": "0x1",
      "cumulativeGasUsed": "0x136e828",
      "logs": [
        {
          "address": "0xad473eaa51821c915d03d9db5349a0586d55e55e",
          "topics": [
            "0x36e13ba1e45df3ecb8f6beb6274a1f5d4abf4c0792bb56700354f0d50bf0acd7",
            "0x0000000000000000000000000000000000000000000000000000000000000002",
            "0x000000000000000000000000e403f79171b7050c78479f52e49e753d43e72c1a"
          ],
          "data": "0x2a4b22ea265f7017c3f5040f1eec7d58baac29eda24dc699336157972973d8e10000000000000000000000000000000000000000000000000000000000000007000000000000000000000000000000000000000000000000000000000000006000000000000000000000000000000000000000000000000000000000000000043a2b000000000000000000000000000000000000000000000000000000000000",
          "blockHash": "0x61bc4e52994e7a7899d5f556b152859b95a3f45ce85c3b8a9770547458657012",
          "blockNumber": "0x2619606",
          "blockTimestamp": "0x694d88ef",
          "transactionHash": "0x9327ce20ab20b4f114a8f79c7e0155cb4ef5af74ef1b9cd26acdccedf7e274ae",
          "transactionIndex": "0xa6",
          "logIndex": "0x16a",
          "removed": false
        },
        {
          "address": "0xad473eaa51821c915d03d9db5349a0586d55e55e",
          "topics": [
            "0x36e13ba1e45df3ecb8f6beb6274a1f5d4abf4c0792bb56700354f0d50bf0acd7",
            "0x0000000000000000000000000000000000000000000000000000000000000002",
            "0x000000000000000000000000ad473eaa51821c915d03d9db5349a0586d55e55e"
          ],
          "data": "0x55f26890947882f1207e2a875a0d392857a077e9af9ea320f39541f65d9244dd0000000000000000000000000000000000000000000000000000000000000008000000000000000000000000000000000000000000000000000000000000006000000000000000000000000000000000000000000000000000000000000000042818000000000000000000000000000000000000000000000000000000000000",
          "blockHash": "0x61bc4e52994e7a7899d5f556b152859b95a3f45ce85c3b8a9770547458657012",
          "blockNumber": "0x2619606",
          "blockTimestamp": "0x694d88ef",
          "transactionHash": "0x9327ce20ab20b4f114a8f79c7e0155cb4ef5af74ef1b9cd26acdccedf7e274ae",
          "transactionIndex": "0xa6",
          "logIndex": "0x16b",
          "removed": false
        }
      ],
      "logsBloom": "0x04000000000000000000000000000000000000000000000000000000000400000000000000000000000000000000000000000000000000000000000000000000000000000000000000000000000000000000000010000000000000000000000000000000000000000000000000000040000000000400000000000000000000000000000000000000000000000200000000000000000000040002000000000000000004000000000000000100000000000000000000000000000000004000000000000000000000000000000000400000000000000000000000000000000800000000000000000000000000000000000000000000008000800000000000000000",
      "type": "0x2",
      "transactionHash": "0x9327ce20ab20b4f114a8f79c7e0155cb4ef5af74ef1b9cd26acdccedf7e274ae",
      "transactionIndex": "0xa6",
      "blockHash": "0x61bc4e52994e7a7899d5f556b152859b95a3f45ce85c3b8a9770547458657012",
      "blockNumber": "0x2619606",
      "gasUsed": "0xd3f5",
      "effectiveGasPrice": "0x16e2d2",
      "blobGasUsed": "0x8a61",
      "from": "0xe403f79171b7050c78479f52e49e753d43e72c1a",
      "to": "0xad473eaa51821c915d03d9db5349a0586d55e55e",
      "contractAddress": null,
      "daFootprintGasScalar": "0x145",
      "l1BaseFeeScalar": "0x8dd",
      "l1BlobBaseFee": "0x1cf0e7",
      "l1BlobBaseFeeScalar": "0x101c12",
      "l1Fee": "0x14728e01",
      "l1GasPrice": "0x1d93ed3",
      "l1GasUsed": "0x6da"
    },
    {
      "status": "0x1",
      "cumulativeGasUsed": "0x137fe3f",
      "logs": [
        {
          "address": "0xad473eaa51821c915d03d9db5349a0586d55e55e",
          "topics": [
            "0x36e13ba1e45df3ecb8f6beb6274a1f5d4abf4c0792bb56700354f0d50bf0acd7",
            "0x0000000000000000000000000000000000000000000000000000000000000003",
            "0x000000000000000000000000e403f79171b7050c78479f52e49e753d43e72c1a"
          ],
          "data": "0xe8773807ffd17108aa2d132cec684352f2c5c8337ff4659cc010d15b0551847d0000000000000000000000000000000000000000000000000000000000000001000000000000000000000000000000000000000000000000000000000000006000000000000000000000000000000000000000000000000000000000000000043424000000000000000000000000000000000000000000000000000000000000",
          "blockHash": "0xcff3c92447afadf9a63647d61ad2e26cc2ca9f6833f457c0d3df7ff0bb9ecaf8",
          "blockNumber": "0x2619606",
          "blockTimestamp": "0x694d88ef",
          "transactionHash": "0x25c4d89a47ff2b20fa907e6c81cf22561bf33e95ee830a013897f6630a8fd0fd",
          "transactionIndex": "0xa7",
          "logIndex": "0x16c",
          "removed": false
        },
        {
          "address": "0xad473eaa51821c915d03d9db5349a0586d55e55e",
          "topics": [
            "0x36e13ba1e45df3ecb8f6beb6274a1f5d4abf4c0792bb56700354f0d50bf0acd7",
            "0x0000000000000000000000000000000000000000000000000000000000000003",
            "0x000000000000000000000000ad473eaa51821c915d03d9db5349a0586d55e55e"
          ],
          "data": "0xf4bb36a023d03b095a88119a20a9000a252aea11d80408b3bd0c6bade87b4ba70000000000000000000000000000000000000000000000000000000000000002000000000000000000000000000000000000000000000000000000000000006000000000000000000000000000000000000000000000000000000000000000043424000000000000000000000000000000000000000000000000000000000000",
          "blockHash": "0xcff3c92447afadf9a63647d61ad2e26cc2ca9f6833f457c0d3df7ff0bb9ecaf8",
          "blockNumber": "0x2619606",
          "blockTimestamp": "0x694d88ef",
          "transactionHash": "0x25c4d89a47ff2b20fa907e6c81cf22561bf33e95ee830a013897f6630a8fd0fd",
          "transactionIndex": "0xa7",
          "logIndex": "0x16d",
          "removed": false
        }
      ],
      "logsBloom": "0x00000000000000000000000000000000000000000000000000000000000400000000000000000000000000000000000000000000020000000000000000000000000000000000000000000000000000000000000010000000000000000000000000000000000000000000000000000040000000000400000000000000000000000000000000000000000000000200000000000000000000040002000000000000000004000000000000000000000000000000000000800000000000004000400000000000000000000000000000400000000000000000000000000000000800000000000000000000000000000000000000000000000000800000000000000000",
      "type": "0x2",
      "transactionHash": "0x25c4d89a47ff2b20fa907e6c81cf22561bf33e95ee830a013897f6630a8fd0fd",
      "transactionIndex": "0xa7",
      "blockHash": "0xcff3c92447afadf9a63647d61ad2e26cc2ca9f6833f457c0d3df7ff0bb9ecaf8",
      "blockNumber": "0x2619606",
      "gasUsed": "0x11617",
      "effectiveGasPrice": "0x16e2d2",
      "blobGasUsed": "0x8a61",
      "from": "0xe403f79171b7050c78479f52e49e753d43e72c1a",
      "to": "0xad473eaa51821c915d03d9db5349a0586d55e55e",
      "contractAddress": null,
      "daFootprintGasScalar": "0x145",
      "l1BaseFeeScalar": "0x8dd",
      "l1BlobBaseFee": "0x1cf0e7",
      "l1BlobBaseFeeScalar": "0x101c12",
      "l1Fee": "0x1d569be1",
      "l1GasPrice": "0x1d93ed3",
      "l1GasUsed": "0x6da"
    },
    {
      "status": "0x1",
      "cumulativeGasUsed": "0x138d234",
      "logs": [
        {
          "address": "0xad473eaa51821c915d03d9db5349a0586d55e55e",
          "topics": [
            "0x36e13ba1e45df3ecb8f6beb6274a1f5d4abf4c0792bb56700354f0d50bf0acd7",
            "0x0000000000000000000000000000000000000000000000000000000000000003",
            "0x000000000000000000000000e403f79171b7050c78479f52e49e753d43e72c1a"
          ],
          "data": "0x0692c63251d62c8f04eed454cc75e5bc199ba842e6b8106095e5d806a5e48cfa0000000000000000000000000000000000000000000000000000000000000003000000000000000000000000000000000000000000000000000000000000006000000000000000000000000000000000000000000000000000000000000000043323000000000000000000000000000000000000000000000000000000000000",
          "blockHash": "0xcff3c92447afadf9a63647d61ad2e26cc2ca9f6833f457c0d3df7ff0bb9ecaf8",
          "blockNumber": "0x2619606",
          "blockTimestamp": "0x694d88ef",
          "transactionHash": "0xaaf80e7155e4230ecb18f22caa262f74110a804911ab475793fa50a77638a51d",
          "transactionIndex": "0xa8",
          "logIndex": "0x16e",
          "removed": false
        },
        {
          "address": "0xad473eaa51821c915d03d9db5349a0586d55e55e",
          "topics": [
            "0x36e13ba1e45df3ecb8f6beb6274a1f5d4abf4c0792bb56700354f0d50bf0acd7",
            "0x0000000000000000000000000000000000000000000000000000000000000003",
            "0x000000000000000000000000ad473eaa51821c915d03d9db5349a0586d55e55e"
          ],
          "data": "0x80db663b91d50261d3b6cf7c40f14617bc570551fdc50ae5d379aac6ea1fb5d50000000000000000000000000000000000000000000000000000000000000004000000000000000000000000000000000000000000000000000000000000006000000000000000000000000000000000000000000000000000000000000000043d0c000000000000000000000000000000000000000000000000000000000000",
          "blockHash": "0xcff3c92447afadf9a63647d61ad2e26cc2ca9f6833f457c0d3df7ff0bb9ecaf8",
          "blockNumber": "0x2619606",
          "blockTimestamp": "0x694d88ef",
          "transactionHash": "0xaaf80e7155e4230ecb18f22caa262f74110a804911ab475793fa50a77638a51d",
          "transactionIndex": "0xa8",
          "logIndex": "0x16f",
          "removed": false
        }
      ],
      "logsBloom": "0x00000000000000000000000000000000000000000000000000000000000400000000000000000000000000000000000000000000020000000000000000000000000000000000000000000000000000000000000010000000000000000000000000000000000000000000000000000040000000000400000000000000000000000000000000000000000000000200000000000000000000040002000000000000000004000000000000000000000000000000000000800000000000004000400000000000000000000000000000400000000000000000000000000000000800000000000000000000000000000000000000000000000000800000000000000000",
      "type": "0x2",
      "transactionHash": "0xaaf80e7155e4230ecb18f22caa262f74110a804911ab475793fa50a77638a51d",
      "transactionIndex": "0xa8",
      "blockHash": "0xcff3c92447afadf9a63647d61ad2e26cc2ca9f6833f457c0d3df7ff0bb9ecaf8",
      "blockNumber": "0x2619606",
      "gasUsed": "0xd3f5",
      "effectiveGasPrice": "0x16e2d2",
      "blobGasUsed": "0x8a61",
      "from": "0xe403f79171b7050c78479f52e49e753d43e72c1a",
      "to": "0xad473eaa51821c915d03d9db5349a0586d55e55e",
      "contractAddress": null,
      "daFootprintGasScalar": "0x145",
      "l1BaseFeeScalar": "0x8dd",
      "l1BlobBaseFee": "0x1cf0e7",
      "l1BlobBaseFeeScalar": "0x101c12",
      "l1Fee": "0x1d569be1",
      "l1GasPrice": "0x1d93ed3",
      "l1GasUsed": "0x6da"
    },
    {
      "status": "0x1",
      "cumulativeGasUsed": "0x139a629",
      "logs": [
        {
          "address": "0xad473eaa51821c915d03d9db5349a0586d55e55e",
          "topics": [
            "0x36e13ba1e45df3ecb8f6beb6274a1f5d4abf4c0792bb56700354f0d50bf0acd7",
            "0x0000000000000000000000000000000000000000000000000000000000000003",
            "0x000000000000000000000000e403f79171b7050c78479f52e49e753d43e72c1a"
          ],
          "data": "0x4442d021ec118fea7ce3641d3375363801af2e92adb1272f726cf20292795a62000000000000000000000000000000000000000000000000000000000000000500000000000000000000000000000000000000000000000000000000000000600000000000000000000000000000000000000000000000000000000000000004392a000000000000000000000000000000000000000000000000000000000000",
          "blockHash": "0x61bc4e52994e7a7899d5f556b152859b95a3f45ce85c3b8a9770547458657012",
          "blockNumber": "0x2619606",
          "blockTimestamp": "0x694d88ef",
          "transactionHash": "0x8f1c7f6d5f660b4281672fbd012f524e607ccb8199044ab4c16c38ca4be24a30",
          "transactionIndex": "0xa9",
          "logIndex": "0x170",
          "removed": false
        },
        {
          "address": "0xad473eaa51821c915d03d9db5349a0586d55e55e",
          "topics": [
            "0x36e13ba1e45df3ecb8f6beb6274a1f5d4abf4c0792bb56700354f0d50bf0acd7",
            "0x0000000000000000000000000000000000000000000000000000000000000003",
            "0x000000000000000000000000ad473eaa51821c915d03d9db5349a0586d55e55e"
          ],
          "data": "0xe131cca08afe30756df90d03f27be0045be7f7a0d73031afbdf14f8a193cb8e6000000000000000000000000000000000000000000000000000000000000000600000000000000000000000000000000000000000000000000000000000000600000000000000000000000000000000000000000000000000000000000000004271a000000000000000000000000000000000000000000000000000000000000",
          "blockHash": "0x61bc4e52994e7a7899d5f556b152859b95a3f45ce85c3b8a9770547458657012",
          "blockNumber": "0x2619606",
          "blockTimestamp": "0x694d88ef",
          "transactionHash": "0x8f1c7f6d5f660b4281672fbd012f524e607ccb8199044ab4c16c38ca4be24a30",
          "transactionIndex": "0xa9",
          "logIndex": "0x171",
          "removed": false
        }
      ],
      "logsBloom": "0x00000000000000000000000000000000000000000000000000000000000400000000000000000000000000000000000000000000020000000000000000000000000000000000000000000000000000000000000010000000000000000000000000000000000000000000000000000040000000000400000000000000000000000000000000000000000000000200000000000000000000040002000000000000000004000000000000000000000000000000000000800000000000004000400000000000000000000000000000400000000000000000000000000000000800000000000000000000000000000000000000000000000000800000000000000000",
      "type": "0x2",
      "transactionHash": "0x8f1c7f6d5f660b4281672fbd012f524e607ccb8199044ab4c16c38ca4be24a30",
      "transactionIndex": "0xa9",
      "blockHash": "0x61bc4e52994e7a7899d5f556b152859b95a3f45ce85c3b8a9770547458657012",
      "blockNumber": "0x2619606",
      "gasUsed": "0xd3f5",
      "effectiveGasPrice": "0x16e2d2",
      "blobGasUsed": "0x8a61",
      "from": "0xe403f79171b7050c78479f52e49e753d43e72c1a",
      "to": "0xad473eaa51821c915d03d9db5349a0586d55e55e",
      "contractAddress": null,
      "daFootprintGasScalar": "0x145",
      "l1BaseFeeScalar": "0x8dd",
      "l1BlobBaseFee": "0x1cf0e7",
      "l1BlobBaseFeeScalar": "0x101c12",
      "l1Fee": "0x14728e01",
      "l1GasPrice": "0x1d93ed3",
      "l1GasUsed": "0x6da"
    },
    {
      "status": "0x1",
      "cumulativeGasUsed": "0x13a7a1e",
      "logs": [
        {
          "address": "0xad473eaa51821c915d03d9db5349a0586d55e55e",
          "topics": [
            "0x36e13ba1e45df3ecb8f6beb6274a1f5d4abf4c0792bb56700354f0d50bf0acd7",
            "0x0000000000000000000000000000000000000000000000000000000000000003",
            "0x000000000000000000000000e403f79171b7050c78479f52e49e753d43e72c1a"
          ],
          "data": "0xc7183fc0754b5e7da3b74bf364f8affe59ffdf73627f9b8e7d4991d4453bd3640000000000000000000000000000000000000000000000000000000000000007000000000000000000000000000000000000000000000000000000000000006000000000000000000000000000000000000000000000000000000000000000043b2c000000000000000000000000000000000000000000000000000000000000",
          "blockHash": "0xcff3c92447afadf9a63647d61ad2e26cc2ca9f6833f457c0d3df7ff0bb9ecaf8",
          "blockNumber": "0x2619606",
          "blockTimestamp": "0x694d88ef",
          "transactionHash": "0x865840e8d3d220b1dddc7c2eb3ba64a8c1be2e29237ada4a51b0e18ed7f75db7",
          "transactionIndex": "0xaa",
          "logIndex": "0x172",
          "removed": false
        },
        {
          "address": "0xad473eaa51821c915d03d9db5349a0586d55e55e",
          "topics": [
            "0x36e13ba1e45df3ecb8f6beb6274a1f5d4abf4c0792bb56700354f0d50bf0acd7",
            "0x0000000000000000000000000000000000000000000000000000000000000003",
            "0x000000000000000000000000ad473eaa51821c915d03d9db5349a0586d55e55e"
          ],
          "data": "0xfa672e07d673b2d218b92d8ee0e059b5d1bfc274c1d1aaf67086a3dbe5f1587f0000000000000000000000000000000000000000000000000000000000000008000000000000000000000000000000000000000000000000000000000000006000000000000000000000000000000000000000000000000000000000000000042b13000000000000000000000000000000000000000000000000000000000000",
          "blockHash": "0xcff3c92447afadf9a63647d61ad2e26cc2ca9f6833f457c0d3df7ff0bb9ecaf8",
          "blockNumber": "0x2619606",
          "blockTimestamp": "0x694d88ef",
          "transactionHash": "0x865840e8d3d220b1dddc7c2eb3ba64a8c1be2e29237ada4a51b0e18ed7f75db7",
          "transactionIndex": "0xaa",
          "logIndex": "0x173",
          "removed": false
        }
      ],
      "logsBloom": "0x00000000000000000000000000000000000000000000000000000000000400000000000000000000000000000000000000000000020000000000000000000000000000000000000000000000000000000000000010000000000000000000000000000000000000000000000000000040000000000400000000000000000000000000000000000000000000000200000000000000000000040002000000000000000004000000000000000000000000000000000000800000000000004000400000000000000000000000000000400000000000000000000000000000000800000000000000000000000000000000000000000000000000800000000000000000",
      "type": "0x2",
      "transactionHash": "0x865840e8d3d220b1dddc7c2eb3ba64a8c1be2e29237ada4a51b0e18ed7f75db7",
      "transactionIndex": "0xaa",
      "blockHash": "0xcff3c92447afadf9a63647d61ad2e26cc2ca9f6833f457c0d3df7ff0bb9ecaf8",
      "blockNumber": "0x2619606",
      "gasUsed": "0xd3f5",
      "effectiveGasPrice": "0x16e2d2",
      "blobGasUsed": "0x8a61",
      "from": "0xe403f79171b7050c78479f52e49e753d43e72c1a",
      "to": "0xad473eaa51821c915d03d9db5349a0586d55e55e",
      "contractAddress": null,
      "daFootprintGasScalar": "0x145",
      "l1BaseFeeScalar": "0x8dd",
      "l1BlobBaseFee": "0x1cf0e7",
      "l1BlobBaseFeeScalar": "0x101c12",
      "l1Fee": "0x1d569be1",
      "l1GasPrice": "0x1d93ed3",
      "l1GasUsed": "0x6da"
    },
    {
      "status": "0x1",
      "cumulativeGasUsed": "0x13b9029",
      "logs": [
        {
          "address": "0xad473eaa51821c915d03d9db5349a0586d55e55e",
          "topics": [
            "0x36e13ba1e45df3ecb8f6beb6274a1f5d4abf4c0792bb56700354f0d50bf0acd7",
            "0x0000000000000000000000000000000000000000000000000000000000000004",
            "0x000000000000000000000000e403f79171b7050c78479f52e49e753d43e72c1a"
          ],
          "data": "0x90e396633e67bfb131a9c9b400ea842e0f29f45c4bc7872a0e80af48deb785040000000000000000000000000000000000000000000000000000000000000001000000000000000000000000000000000000000000000000000000000000006000000000000000000000000000000000000000000000000000000000000000043028000000000000000000000000000000000000000000000000000000000000",
          "blockHash": "0xcff3c92447afadf9a63647d61ad2e26cc2ca9f6833f457c0d3df7ff0bb9ecaf8",
          "blockNumber": "0x2619606",
          "blockTimestamp": "0x694d88ef",
          "transactionHash": "0xa60f7f56ccb7207e143a2f3574964022513e5235422341f8e61d1995612f0168",
          "transactionIndex": "0xab",
          "logIndex": "0x174",
          "removed": false
        },
        {
          "address": "0xad473eaa51821c915d03d9db5349a0586d55e55e",
          "topics": [
            "0x36e13ba1e45df3ecb8f6beb6274a1f5d4abf4c0792bb56700354f0d50bf0acd7",
            "0x0000000000000000000000000000000000000000000000000000000000000004",
            "0x000000000000000000000000ad473eaa51821c915d03d9db5349a0586d55e55e"
          ],
          "data": "0x60e65b9330f95689004881ceb0c70271140d7a6c66037940d345a33188c341c30000000000000000000000000000000000000000000000000000000000000002000000000000000000000000000000000000000000000000000000000000006000000000000000000000000000000000000000000000000000000000000000043424000000000000000000000000000000000000000000000000000000000000",
          "blockHash": "0xcff3c92447afadf9a63647d61ad2e26cc2ca9f6833f457c0d3df7ff0bb9ecaf8",
          "blockNumber": "0x2619606",
          "blockTimestamp": "0x694d88ef",
          "transactionHash": "0xa60f7f56ccb7207e143a2f3574964022513e5235422341f8e61d1995612f0168",
          "transactionIndex": "0xab",
          "logIndex": "0x175",
          "removed": false
        }
      ],
      "logsBloom": "0x00000000000000000000000000000000000000000000000000000000000400000000000000000000000000000000000000000000000000000000000000000000000000000000000000000000000000000000000010000000000000000000000008000000000000000000000000000040000000000400000000000000000000000000000000000000000000000200000000000000000000040002000000000000000004000000000000000000000000000000000000000000002000004000000000000000000000000000000000400000000000008000000000000000000800000000000000000000000000000000000000000000000000800000000000000000",
      "type": "0x2",
      "transactionHash": "0xa60f7f56ccb7207e143a2f3574964022513e5235422341f8e61d1995612f0168",
      "transactionIndex": "0xab",
      "blockHash": "0xcff3c92447afadf9a63647d61ad2e26cc2ca9f6833f457c0d3df7ff0bb9ecaf8",
      "blockNumber": "0x2619606",
      "gasUsed": "0x1160b",
      "effectiveGasPrice": "0x16e2d2",
      "blobGasUsed": "0x8a61",
      "from": "0xe403f79171b7050c78479f52e49e753d43e72c1a",
      "to": "0xad473eaa51821c915d03d9db5349a0586d55e55e",
      "contractAddress": null,
      "daFootprintGasScalar": "0x145",
      "l1BaseFeeScalar": "0x8dd",
      "l1BlobBaseFee": "0x1cf0e7",
      "l1BlobBaseFeeScalar": "0x101c12",
      "l1Fee": "0x1d569be1",
      "l1GasPrice": "0x1d93ed3",
      "l1GasUsed": "0x6da"
    },
    {
      "status": "0x1",
      "cumulativeGasUsed": "0x15f7abb",
      "logs": [
        {
          "address": "0xad473eaa51821c915d03d9db5349a0586d55e55e",
          "topics": [
            "0x36e13ba1e45df3ecb8f6beb6274a1f5d4abf4c0792bb56700354f0d50bf0acd7",
            "0x0000000000000000000000000000000000000000000000000000000000000004",
            "0x000000000000000000000000e403f79171b7050c78479f52e49e753d43e72c1a"
          ],
          "data": "0xfc6cc8976638831fc84ceab234894f532e0338e7268a3303d4c0c1939f85dbb90000000000000000000000000000000000000000000000000000000000000003000000000000000000000000000000000000000000000000000000000000006000000000000000000000000000000000000000000000000000000000000000043222000000000000000000000000000000000000000000000000000000000000",
          "blockHash": "0x61bc4e52994e7a7899d5f556b152859b95a3f45ce85c3b8a9770547458657012",
          "blockNumber": "0x2619606",
          "blockTimestamp": "0x694d88ef",
          "transactionHash": "0xfa1d921612cedfbaa5b5b81616d5e88d1edb4a332ba3ec8e38efbf264a5cabbf",
          "transactionIndex": "0xbc",
          "logIndex": "0x1a2",
          "removed": false
        },
        {
          "address": "0xad473eaa51821c915d03d9db5349a0586d55e55e",
          "topics": [
            "0x36e13ba1e45df3ecb8f6beb6274a1f5d4abf4c0792bb56700354f0d50bf0acd7",
            "0x0000000000000000000000000000000000000000000000000000000000000004",
            "0x000000000000000000000000ad473eaa51821c915d03d9db5349a0586d55e55e"
          ],
          "data": "0x0192d1e4a25acce6e7a2d4e8900eba6030b412ccc2d92d174c541b9d6055ff390000000000000000000000000000000000000000000000000000000000000004000000000000000000000000000000000000000000000000000000000000006000000000000000000000000000000000000000000000000000000000000000043c1b000000000000000000000000000000000000000000000000000000000000",
          "blockHash": "0x61bc4e52994e7a7899d5f556b152859b95a3f45ce85c3b8a9770547458657012",
          "blockNumber": "0x2619606",
          "blockTimestamp": "0x694d88ef",
          "transactionHash": "0xfa1d921612cedfbaa5b5b81616d5e88d1edb4a332ba3ec8e38efbf264a5cabbf",
          "transactionIndex": "0xbc",
          "logIndex": "0x1a3",
          "removed": false
        }
      ],
      "logsBloom": "0x00000000000000000000000000000000000000000000000000000000000400000000000000000000000000000000000000000000000000000000000000000000000000000000000000000000000000000000000010000000000000000000000008000000000000000000000000000040000000000400000000000000000000000000000000000000000000000200000000000000000000040002000000000000000004000000000000000000000000000000000000000000002000004000000000000000000000000000000000400000000000008000000000000000000800000000000000000000000000000000000000000000000000800000000000000000",
      "type": "0x2",
      "transactionHash": "0xfa1d921612cedfbaa5b5b81616d5e88d1edb4a332ba3ec8e38efbf264a5cabbf",
      "transactionIndex": "0xbc",
      "blockHash": "0x61bc4e52994e7a7899d5f556b152859b95a3f45ce85c3b8a9770547458657012",
      "blockNumber": "0x2619606",
      "gasUsed": "0xd3f5",
      "effectiveGasPrice": "0x16e2d2",
      "blobGasUsed": "0x8a61",
      "from": "0xe403f79171b7050c78479f52e49e753d43e72c1a",
      "to": "0xad473eaa51821c915d03d9db5349a0586d55e55e",
      "contractAddress": null,
      "daFootprintGasScalar": "0x145",
      "l1BaseFeeScalar": "0x8dd",
      "l1BlobBaseFee": "0x1cf0e7",
      "l1BlobBaseFeeScalar": "0x101c12",
      "l1Fee": "0x14728e01",
      "l1GasPrice": "0x1d93ed3",
      "l1GasUsed": "0x6da"
    },
    {
      "status": "0x1",
      "cumulativeGasUsed": "0x19e64b3",
      "logs": [
        {
          "address": "0xad473eaa51821c915d03d9db5349a0586d55e55e",
          "topics": [
            "0x36e13ba1e45df3ecb8f6beb6274a1f5d4abf4c0792bb56700354f0d50bf0acd7",
            "0x0000000000000000000000000000000000000000000000000000000000000004",
            "0x000000000000000000000000e403f79171b7050c78479f52e49e753d43e72c1a"
          ],
          "data": "0xbb9afb9861b8290cda948e4af3b636449a44547dca4c3acbc45e65f4e22aab400000000000000000000000000000000000000000000000000000000000000005000000000000000000000000000000000000000000000000000000000000006000000000000000000000000000000000000000000000000000000000000000043129000000000000000000000000000000000000000000000000000000000000",
          "blockHash": "0x61bc4e52994e7a7899d5f556b152859b95a3f45ce85c3b8a9770547458657012",
          "blockNumber": "0x2619606",
          "blockTimestamp": "0x694d88ef",
          "transactionHash": "0x2ffae954efc7f0f0e550294a08a358747139e1935e5cf82ca3c644dd9d924f90",
          "transactionIndex": "0xd2",
          "logIndex": "0x1fa",
          "removed": false
        },
        {
          "address": "0xad473eaa51821c915d03d9db5349a0586d55e55e",
          "topics": [
            "0x36e13ba1e45df3ecb8f6beb6274a1f5d4abf4c0792bb56700354f0d50bf0acd7",
            "0x0000000000000000000000000000000000000000000000000000000000000004",
            "0x000000000000000000000000ad473eaa51821c915d03d9db5349a0586d55e55e"
          ],
          "data": "0x2760255e5f8c0d33599f68866f7b7bdd30ba831d73410b4548d9b6c2e2478d1c000000000000000000000000000000000000000000000000000000000000000600000000000000000000000000000000000000000000000000000000000000600000000000000000000000000000000000000000000000000000000000000004052b000000000000000000000000000000000000000000000000000000000000",
          "blockHash": "0x61bc4e52994e7a7899d5f556b152859b95a3f45ce85c3b8a9770547458657012",
          "blockNumber": "0x2619606",
          "blockTimestamp": "0x694d88ef",
          "transactionHash": "0x2ffae954efc7f0f0e550294a08a358747139e1935e5cf82ca3c644dd9d924f90",
          "transactionIndex": "0xd2",
          "logIndex": "0x1fb",
          "removed": false
        }
      ],
      "logsBloom": "0x00000000000000000000000000000000000000000000000000000000000400000000000000000000000000000000000000000000000000000000000000000000000000000000000000000000000000000000000010000000000000000000000008000000000000000000000000000040000000000400000000000000000000000000000000000000000000000200000000000000000000040002000000000000000004000000000000000000000000000000000000000000002000004000000000000000000000000000000000400000000000008000000000000000000800000000000000000000000000000000000000000000000000800000000000000000",
      "type": "0x2",
      "transactionHash": "0x2ffae954efc7f0f0e550294a08a358747139e1935e5cf82ca3c644dd9d924f90",
      "transactionIndex": "0xd2",
      "blockHash": "0x61bc4e52994e7a7899d5f556b152859b95a3f45ce85c3b8a9770547458657012",
      "blockNumber": "0x2619606",
      "gasUsed": "0xd3f5",
      "effectiveGasPrice": "0x16e2d2",
      "blobGasUsed": "0x8a61",
      "from": "0xe403f79171b7050c78479f52e49e753d43e72c1a",
      "to": "0xad473eaa51821c915d03d9db5349a0586d55e55e",
      "contractAddress": null,
      "daFootprintGasScalar": "0x145",
      "l1BaseFeeScalar": "0x8dd",
      "l1BlobBaseFee": "0x1cf0e7",
      "l1BlobBaseFeeScalar": "0x101c12",
      "l1Fee": "0x14728e01",
      "l1GasPrice": "0x1d93ed3",
      "l1GasUsed": "0x6da"
    },
    {
      "status": "0x1",
      "cumulativeGasUsed": "0x19f38a8",
      "logs": [
        {
          "address": "0xad473eaa51821c915d03d9db5349a0586d55e55e",
          "topics": [
            "0x36e13ba1e45df3ecb8f6beb6274a1f5d4abf4c0792bb56700354f0d50bf0acd7",
            "0x0000000000000000000000000000000000000000000000000000000000000004",
            "0x000000000000000000000000e403f79171b7050c78479f52e49e753d43e72c1a"
          ],
          "data": "0x2a4b22ea265f7017c3f5040f1eec7d58baac29eda24dc699336157972973d8e10000000000000000000000000000000000000000000000000000000000000007000000000000000000000000000000000000000000000000000000000000006000000000000000000000000000000000000000000000000000000000000000043a2b000000000000000000000000000000000000000000000000000000000000",
          "blockHash": "0xd84773311edf7ec6c12e998ddfc3026295845fb09e02838c42b0a21b6f2dfbde",
          "blockNumber": "0x2619606",
          "blockTimestamp": "0x694d88ef",
          "transactionHash": "0x5c2d0e26e1bc36754122b6a9e905e585e5e68a2ad58b85ee71e01a307e5740ed",
          "transactionIndex": "0xd3",
          "logIndex": "0x1fc",
          "removed": false
        },
        {
          "address": "0xad473eaa51821c915d03d9db5349a0586d55e55e",
          "topics": [
            "0x36e13ba1e45df3ecb8f6beb6274a1f5d4abf4c0792bb56700354f0d50bf0acd7",
            "0x0000000000000000000000000000000000000000000000000000000000000004",
            "0x000000000000000000000000ad473eaa51821c915d03d9db5349a0586d55e55e"
          ],
          "data": "0x55f26890947882f1207e2a875a0d392857a077e9af9ea320f39541f65d9244dd0000000000000000000000000000000000000000000000000000000000000008000000000000000000000000000000000000000000000000000000000000006000000000000000000000000000000000000000000000000000000000000000042818000000000000000000000000000000000000000000000000000000000000",
          "blockHash": "0xd84773311edf7ec6c12e998ddfc3026295845fb09e02838c42b0a21b6f2dfbde",
          "blockNumber": "0x2619606",
          "blockTimestamp": "0x694d88ef",
          "transactionHash": "0x5c2d0e26e1bc36754122b6a9e905e585e5e68a2ad58b85ee71e01a307e5740ed",
          "transactionIndex": "0xd3",
          "logIndex": "0x1fd",
          "removed": false
        }
      ],
      "logsBloom": "0x00000000000000000000000000000000000000000000000000000000000400000000000000000000000000000000000000000000000000000000000000000000000000000000000000000000000000000000000010000000000000000000000008000000000000000000000000000040000000000400000000000000000000000000000000000000000000000200000000000000000000040002000000000000000004000000000000000000000000000000000000000000002000004000000000000000000000000000000000400000000000008000000000000000000800000000000000000000000000000000000000000000000000800000000000000000",
      "type": "0x2",
      "transactionHash": "0x5c2d0e26e1bc36754122b6a9e905e585e5e68a2ad58b85ee71e01a307e5740ed",
      "transactionIndex": "0xd3",
      "blockHash": "0xd84773311edf7ec6c12e998ddfc3026295845fb09e02838c42b0a21b6f2dfbde",
      "blockNumber": "0x2619606",
      "gasUsed": "0xd3f5",
      "effectiveGasPrice": "0x16e2d2",
      "blobGasUsed": "0x8a61",
      "from": "0xe403f79171b7050c78479f52e49e753d43e72c1a",
      "to": "0xad473eaa51821c915d03d9db5349a0586d55e55e",
      "contractAddress": null,
      "daFootprintGasScalar": "0x145",
      "l1BaseFeeScalar": "0x8dd",
      "l1BlobBaseFee": "0x1cf0e7",
      "l1BlobBaseFeeScalar": "0x101c12",
      "l1Fee": "0x12a58db5",
      "l1GasPrice": "0x1d93ed3",
      "l1GasUsed": "0x6da"
    },
    {
      "status": "0x1",
      "cumulativeGasUsed": "0x1a04ebf",
      "logs": [
        {
          "address": "0xad473eaa51821c915d03d9db5349a0586d55e55e",
          "topics": [
            "0x36e13ba1e45df3ecb8f6beb6274a1f5d4abf4c0792bb56700354f0d50bf0acd7",
            "0x0000000000000000000000000000000000000000000000000000000000000005",
            "0x000000000000000000000000e403f79171b7050c78479f52e49e753d43e72c1a"
          ],
          "data": "0xe8773807ffd17108aa2d132cec684352f2c5c8337ff4659cc010d15b0551847d0000000000000000000000000000000000000000000000000000000000000001000000000000000000000000000000000000000000000000000000000000006000000000000000000000000000000000000000000000000000000000000000043424000000000000000000000000000000000000000000000000000000000000",
          "blockHash": "0x61bc4e52994e7a7899d5f556b152859b95a3f45ce85c3b8a9770547458657012",
          "blockNumber": "0x2619606",
          "blockTimestamp": "0x694d88ef",
          "transactionHash": "0xc26e57a4c5c9c3b99b6ffaea3210e7e5b04b567d292390fd7bce9b93b99cf4c2",
          "transactionIndex": "0xd4",
          "logIndex": "0x1fe",
          "removed": false
        },
        {
          "address": "0xad473eaa51821c915d03d9db5349a0586d55e55e",
          "topics": [
            "0x36e13ba1e45df3ecb8f6beb6274a1f5d4abf4c0792bb56700354f0d50bf0acd7",
            "0x0000000000000000000000000000000000000000000000000000000000000005",
            "0x000000000000000000000000ad473eaa51821c915d03d9db5349a0586d55e55e"
          ],
          "data": "0xf4bb36a023d03b095a88119a20a9000a252aea11d80408b3bd0c6bade87b4ba70000000000000000000000000000000000000000000000000000000000000002000000000000000000000000000000000000000000000000000000000000006000000000000000000000000000000000000000000000000000000000000000043424000000000000000000000000000000000000000000000000000000000000",
          "blockHash": "0x61bc4e52994e7a7899d5f556b152859b95a3f45ce85c3b8a9770547458657012",
          "blockNumber": "0x2619606",
          "blockTimestamp": "0x694d88ef",
          "transactionHash": "0xc26e57a4c5c9c3b99b6ffaea3210e7e5b04b567d292390fd7bce9b93b99cf4c2",
          "transactionIndex": "0xd4",
          "logIndex": "0x1ff",
          "removed": false
        }
      ],
      "logsBloom": "0x00000000000000000000000000000000000000000000000000000000000400000000000000000000000000000000000000000000000000000000000000000000000010000000000000000000000000000000000010000000000000000000000000000000000000000000000000000040000000000400000000000000000000000000000000000000000000000200001000000800000000040002000000000000000004000000000000000000000000000000000000000000000000004000000000000000000000000000000000400000000000000000000000000000000800000000000000000000000000000000000000000000000000800000000000000000",
      "type": "0x2",
      "transactionHash": "0xc26e57a4c5c9c3b99b6ffaea3210e7e5b04b567d292390fd7bce9b93b99cf4c2",
      "transactionIndex": "0xd4",
      "blockHash": "0x61bc4e52994e7a7899d5f556b152859b95a3f45ce85c3b8a9770547458657012",
      "blockNumber": "0x2619606",
      "gasUsed": "0x11617",
      "effectiveGasPrice": "0x16e2d2",
      "blobGasUsed": "0x8a61",
      "from": "0xe403f79171b7050c78479f52e49e753d43e72c1a",
      "to": "0xad473eaa51821c915d03d9db5349a0586d55e55e",
      "contractAddress": null,
      "daFootprintGasScalar": "0x145",
      "l1BaseFeeScalar": "0x8dd",
      "l1BlobBaseFee": "0x1cf0e7",
      "l1BlobBaseFeeScalar": "0x101c12",
      "l1Fee": "0x14728e01",
      "l1GasPrice": "0x1d93ed3",
      "l1GasUsed": "0x6da"
    },
    {
      "status": "0x1",
      "cumulativeGasUsed": "0x24158ed",
      "logs": [
        {
          "address": "0xad473eaa51821c915d03d9db5349a0586d55e55e",
          "topics": [
            "0x36e13ba1e45df3ecb8f6beb6274a1f5d4abf4c0792bb56700354f0d50bf0acd7",
            "0x0000000000000000000000000000000000000000000000000000000000000005",
            "0x000000000000000000000000e403f79171b7050c78479f52e49e753d43e72c1a"
          ],
          "data": "0x0692c63251d62c8f04eed454cc75e5bc199ba842e6b8106095e5d806a5e48cfa0000000000000000000000000000000000000000000000000000000000000003000000000000000000000000000000000000000000000000000000000000006000000000000000000000000000000000000000000000000000000000000000043323000000000000000000000000000000000000000000000000000000000000",
          "blockHash": "0x61bc4e52994e7a7899d5f556b152859b95a3f45ce85c3b8a9770547458657012",
          "blockNumber": "0x2619606",
          "blockTimestamp": "0x694d88ef",
          "transactionHash": "0xd7da22d1d0c41ff36dca76ee150b3a2f96cb107f4453b54e6b7cccf4602541b9",
          "transactionIndex": "0xe3",
          "logIndex": "0x299",
          "removed": false
        },
        {
          "address": "0xad473eaa51821c915d03d9db5349a0586d55e55e",
          "topics": [
            "0x36e13ba1e45df3ecb8f6beb6274a1f5d4abf4c0792bb56700354f0d50bf0acd7",
            "0x0000000000000000000000000000000000000000000000000000000000000005",
            "0x000000000000000000000000ad473eaa51821c915d03d9db5349a0586d55e55e"
          ],
          "data": "0x80db663b91d50261d3b6cf7c40f14617bc570551fdc50ae5d379aac6ea1fb5d50000000000000000000000000000000000000000000000000000000000000004000000000000000000000000000000000000000000000000000000000000006000000000000000000000000000000000000000000000000000000000000000043d0c000000000000000000000000000000000000000000000000000000000000",
          "blockHash": "0x61bc4e52994e7a7899d5f556b152859b95a3f45ce85c3b8a9770547458657012",
          "blockNumber": "0x2619606",
          "blockTimestamp": "0x694d88ef",
          "transactionHash": "0xd7da22d1d0c41ff36dca76ee150b3a2f96cb107f4453b54e6b7cccf4602541b9",
          "transactionIndex": "0xe3",
          "logIndex": "0x29a",
          "removed": false
        }
      ],
      "logsBloom": "0x00000000000000000000000000000000000000000000000000000000000400000000000000000000000000000000000000000000000000000000000000000000000010000000000000000000000000000000000010000000000000000000000000000000000000000000000000000040000000000400000000000000000000000000000000000000000000000200001000000800000000040002000000000000000004000000000000000000000000000000000000000000000000004000000000000000000000000000000000400000000000000000000000000000000800000000000000000000000000000000000000000000000000800000000000000000",
      "type": "0x2",
      "transactionHash": "0xd7da22d1d0c41ff36dca76ee150b3a2f96cb107f4453b54e6b7cccf4602541b9",
      "transactionIndex": "0xe3",
      "blockHash": "0x61bc4e52994e7a7899d5f556b152859b95a3f45ce85c3b8a9770547458657012",
      "blockNumber": "0x2619606",
      "gasUsed": "0xd3f5",
      "effectiveGasPrice": "0x16e2d2",
      "blobGasUsed": "0x8a61",
      "from": "0xe403f79171b7050c78479f52e49e753d43e72c1a",
      "to": "0xad473eaa51821c915d03d9db5349a0586d55e55e",
      "contractAddress": null,
      "daFootprintGasScalar": "0x145",
      "l1BaseFeeScalar": "0x8dd",
      "l1BlobBaseFee": "0x1cf0e7",
      "l1BlobBaseFeeScalar": "0x101c12",
      "l1Fee": "0x14728e01",
      "l1GasPrice": "0x1d93ed3",
      "l1GasUsed": "0x6da"
    },
    {
      "status": "0x1",
      "cumulativeGasUsed": "0x2422ce2",
      "logs": [
        {
          "address": "0xad473eaa51821c915d03d9db5349a0586d55e55e",
          "topics": [
            "0x36e13ba1e45df3ecb8f6beb6274a1f5d4abf4c0792bb56700354f0d50bf0acd7",
            "0x0000000000000000000000000000000000000000000000000000000000000005",
            "0x000000000000000000000000e403f79171b7050c78479f52e49e753d43e72c1a"
          ],
          "data": "0x4442d021ec118fea7ce3641d3375363801af2e92adb1272f726cf20292795a62000000000000000000000000000000000000000000000000000000000000000500000000000000000000000000000000000000000000000000000000000000600000000000000000000000000000000000000000000000000000000000000004392a000000000000000000000000000000000000000000000000000000000000",
          "blockHash": "0x61bc4e52994e7a7899d5f556b152859b95a3f45ce85c3b8a9770547458657012",
          "blockNumber": "0x2619606",
          "blockTimestamp": "0x694d88ef",
          "transactionHash": "0x01b81abbf3a221eff233010401901636889878311f105acb6dbc72ddd7cd6f30",
          "transactionIndex": "0xe4",
          "logIndex": "0x29b",
          "removed": false
        },
        {
          "address": "0xad473eaa51821c915d03d9db5349a0586d55e55e",
          "topics": [
            "0x36e13ba1e45df3ecb8f6beb6274a1f5d4abf4c0792bb56700354f0d50bf0acd7",
            "0x0000000000000000000000000000000000000000000000000000000000000005",
            "0x000000000000000000000000ad473eaa51821c915d03d9db5349a0586d55e55e"
          ],
          "data": "0xe131cca08afe30756df90d03f27be0045be7f7a0d73031afbdf14f8a193cb8e6000000000000000000000000000000000000000000000000000000000000000600000000000000000000000000000000000000000000000000000000000000600000000000000000000000000000000000000000000000000000000000000004271a000000000000000000000000000000000000000000000000000000000000",
          "blockHash": "0x61bc4e52994e7a7899d5f556b152859b95a3f45ce85c3b8a9770547458657012",
          "blockNumber": "0x2619606",
          "blockTimestamp": "0x694d88ef",
          "transactionHash": "0x01b81abbf3a221eff233010401901636889878311f105acb6dbc72ddd7cd6f30",
          "transactionIndex": "0xe4",
          "logIndex": "0x29c",
          "removed": false
        }
      ],
      "logsBloom": "0x00000000000000000000000000000000000000000000000000000000000400000000000000000000000000000000000000000000000000000000000000000000000010000000000000000000000000000000000010000000000000000000000000000000000000000000000000000040000000000400000000000000000000000000000000000000000000000200001000000800000000040002000000000000000004000000000000000000000000000000000000000000000000004000000000000000000000000000000000400000000000000000000000000000000800000000000000000000000000000000000000000000000000800000000000000000",
      "type": "0x2",
      "transactionHash": "0x01b81abbf3a221eff233010401901636889878311f105acb6dbc72ddd7cd6f30",
      "transactionIndex": "0xe4",
      "blockHash": "0x61bc4e52994e7a7899d5f556b152859b95a3f45ce85c3b8a9770547458657012",
      "blockNumber": "0x2619606",
      "gasUsed": "0xd3f5",
      "effectiveGasPrice": "0x16e2d2",
      "blobGasUsed": "0x8a61",
      "from": "0xe403f79171b7050c78479f52e49e753d43e72c1a",
      "to": "0xad473eaa51821c915d03d9db5349a0586d55e55e",
      "contractAddress": null,
      "daFootprintGasScalar": "0x145",
      "l1BaseFeeScalar": "0x8dd",
      "l1BlobBaseFee": "0x1cf0e7",
      "l1BlobBaseFeeScalar": "0x101c12",
      "l1Fee": "0x14728e01",
      "l1GasPrice": "0x1d93ed3",
      "l1GasUsed": "0x6da"
    },
    {
      "status": "0x1",
      "cumulativeGasUsed": "0x24300d7",
      "logs": [
        {
          "address": "0xad473eaa51821c915d03d9db5349a0586d55e55e",
          "topics": [
            "0x36e13ba1e45df3ecb8f6beb6274a1f5d4abf4c0792bb56700354f0d50bf0acd7",
            "0x0000000000000000000000000000000000000000000000000000000000000005",
            "0x000000000000000000000000e403f79171b7050c78479f52e49e753d43e72c1a"
          ],
          "data": "0xc7183fc0754b5e7da3b74bf364f8affe59ffdf73627f9b8e7d4991d4453bd3640000000000000000000000000000000000000000000000000000000000000007000000000000000000000000000000000000000000000000000000000000006000000000000000000000000000000000000000000000000000000000000000043b2c000000000000000000000000000000000000000000000000000000000000",
          "blockHash": "0x61bc4e52994e7a7899d5f556b152859b95a3f45ce85c3b8a9770547458657012",
          "blockNumber": "0x2619606",
          "blockTimestamp": "0x694d88ef",
          "transactionHash": "0x07553c62ebe6b2e9fae5860291dc09451d9f378638fef7820ff809583aedb6ff",
          "transactionIndex": "0xe5",
          "logIndex": "0x29d",
          "removed": false
        },
        {
          "address": "0xad473eaa51821c915d03d9db5349a0586d55e55e",
          "topics": [
            "0x36e13ba1e45df3ecb8f6beb6274a1f5d4abf4c0792bb56700354f0d50bf0acd7",
            "0x0000000000000000000000000000000000000000000000000000000000000005",
            "0x000000000000000000000000ad473eaa51821c915d03d9db5349a0586d55e55e"
          ],
          "data": "0xfa672e07d673b2d218b92d8ee0e059b5d1bfc274c1d1aaf67086a3dbe5f1587f0000000000000000000000000000000000000000000000000000000000000008000000000000000000000000000000000000000000000000000000000000006000000000000000000000000000000000000000000000000000000000000000042b13000000000000000000000000000000000000000000000000000000000000",
          "blockHash": "0x61bc4e52994e7a7899d5f556b152859b95a3f45ce85c3b8a9770547458657012",
          "blockNumber": "0x2619606",
          "blockTimestamp": "0x694d88ef",
          "transactionHash": "0x07553c62ebe6b2e9fae5860291dc09451d9f378638fef7820ff809583aedb6ff",
          "transactionIndex": "0xe5",
          "logIndex": "0x29e",
          "removed": false
        }
      ],
      "logsBloom": "0x00000000000000000000000000000000000000000000000000000000000400000000000000000000000000000000000000000000000000000000000000000000000010000000000000000000000000000000000010000000000000000000000000000000000000000000000000000040000000000400000000000000000000000000000000000000000000000200001000000800000000040002000000000000000004000000000000000000000000000000000000000000000000004000000000000000000000000000000000400000000000000000000000000000000800000000000000000000000000000000000000000000000000800000000000000000",
      "type": "0x2",
      "transactionHash": "0x07553c62ebe6b2e9fae5860291dc09451d9f378638fef7820ff809583aedb6ff",
      "transactionIndex": "0xe5",
      "blockHash": "0x61bc4e52994e7a7899d5f556b152859b95a3f45ce85c3b8a9770547458657012",
      "blockNumber": "0x2619606",
      "gasUsed": "0xd3f5",
      "effectiveGasPrice": "0x16e2d2",
      "blobGasUsed": "0x8a61",
      "from": "0xe403f79171b7050c78479f52e49e753d43e72c1a",
      "to": "0xad473eaa51821c915d03d9db5349a0586d55e55e",
      "contractAddress": null,
      "daFootprintGasScalar": "0x145",
      "l1BaseFeeScalar": "0x8dd",
      "l1BlobBaseFee": "0x1cf0e7",
      "l1BlobBaseFeeScalar": "0x101c12",
      "l1Fee": "0x14728e01",
      "l1GasPrice": "0x1d93ed3",
      "l1GasUsed": "0x6da"
    },
    {
      "status": "0x1",
      "cumulativeGasUsed": "0x24416e2",
      "logs": [
        {
          "address": "0xad473eaa51821c915d03d9db5349a0586d55e55e",
          "topics": [
            "0x36e13ba1e45df3ecb8f6beb6274a1f5d4abf4c0792bb56700354f0d50bf0acd7",
            "0x0000000000000000000000000000000000000000000000000000000000000006",
            "0x000000000000000000000000e403f79171b7050c78479f52e49e753d43e72c1a"
          ],
          "data": "0x90e396633e67bfb131a9c9b400ea842e0f29f45c4bc7872a0e80af48deb785040000000000000000000000000000000000000000000000000000000000000001000000000000000000000000000000000000000000000000000000000000006000000000000000000000000000000000000000000000000000000000000000043028000000000000000000000000000000000000000000000000000000000000",
          "blockHash": "0x61bc4e52994e7a7899d5f556b152859b95a3f45ce85c3b8a9770547458657012",
          "blockNumber": "0x2619606",
          "blockTimestamp": "0x694d88ef",
          "transactionHash": "0x6444ef03008bfd836062ca05b3d5d9fe99e6caf76b39f31544ff8fe7362d771a",
          "transactionIndex": "0xe6",
          "logIndex": "0x29f",
          "removed": false
        },
        {
          "address": "0xad473eaa51821c915d03d9db5349a0586d55e55e",
          "topics": [
            "0x36e13ba1e45df3ecb8f6beb6274a1f5d4abf4c0792bb56700354f0d50bf0acd7",
            "0x0000000000000000000000000000000000000000000000000000000000000006",
            "0x000000000000000000000000ad473eaa51821c915d03d9db5349a0586d55e55e"
          ],
          "data": "0x60e65b9330f95689004881ceb0c70271140d7a6c66037940d345a33188c341c30000000000000000000000000000000000000000000000000000000000000002000000000000000000000000000000000000000000000000000000000000006000000000000000000000000000000000000000000000000000000000000000043424000000000000000000000000000000000000000000000000000000000000",
          "blockHash": "0x61bc4e52994e7a7899d5f556b152859b95a3f45ce85c3b8a9770547458657012",
          "blockNumber": "0x2619606",
          "blockTimestamp": "0x694d88ef",
          "transactionHash": "0x6444ef03008bfd836062ca05b3d5d9fe99e6caf76b39f31544ff8fe7362d771a",
          "transactionIndex": "0xe6",
          "logIndex": "0x2a0",
          "removed": false
        }
      ],
      "logsBloom": "0x00000000000000000000000000000000000000000000000000000000000400000000000000000000000000000000000000000000000400000000000000000000000000000000000000000000000000000000000010000000000000000000000000000000000000000000000000000040000000000400000000000000000000000000000400000000000000000200000000000000000000040002000000000000000004000000000000000000000000000000000000000000000000084000000000000000000000000000000000400000000000000000000000000000000800000000000000000000000000000000000000000000000000800000000000000000",
      "type": "0x2",
      "transactionHash": "0x6444ef03008bfd836062ca05b3d5d9fe99e6caf76b39f31544ff8fe7362d771a",
      "transactionIndex": "0xe6",
      "blockHash": "0x61bc4e52994e7a7899d5f556b152859b95a3f45ce85c3b8a9770547458657012",
      "blockNumber": "0x2619606",
      "gasUsed": "0x1160b",
      "effectiveGasPrice": "0x16e2d2",
      "blobGasUsed": "0x8a61",
      "from": "0xe403f79171b7050c78479f52e49e753d43e72c1a",
      "to": "0xad473eaa51821c915d03d9db5349a0586d55e55e",
      "contractAddress": null,
      "daFootprintGasScalar": "0x145",
      "l1BaseFeeScalar": "0x8dd",
      "l1BlobBaseFee": "0x1cf0e7",
      "l1BlobBaseFeeScalar": "0x101c12",
      "l1Fee": "0x14728e01",
      "l1GasPrice": "0x1d93ed3",
      "l1GasUsed": "0x6da"
    },
    {
      "status": "0x1",
      "cumulativeGasUsed": "0x244ead7",
      "logs": [
        {
          "address": "0xad473eaa51821c915d03d9db5349a0586d55e55e",
          "topics": [
            "0x36e13ba1e45df3ecb8f6beb6274a1f5d4abf4c0792bb56700354f0d50bf0acd7",
            "0x0000000000000000000000000000000000000000000000000000000000000006",
            "0x000000000000000000000000e403f79171b7050c78479f52e49e753d43e72c1a"
          ],
          "data": "0xfc6cc8976638831fc84ceab234894f532e0338e7268a3303d4c0c1939f85dbb90000000000000000000000000000000000000000000000000000000000000003000000000000000000000000000000000000000000000000000000000000006000000000000000000000000000000000000000000000000000000000000000043222000000000000000000000000000000000000000000000000000000000000",
          "blockHash": "0x61bc4e52994e7a7899d5f556b152859b95a3f45ce85c3b8a9770547458657012",
          "blockNumber": "0x2619606",
          "blockTimestamp": "0x694d88ef",
          "transactionHash": "0x774cfd0f67490cdd6afa901c1b201d275bb56066d926bd4b733d9709692df7ce",
          "transactionIndex": "0xe7",
          "logIndex": "0x2a1",
          "removed": false
        },
        {
          "address": "0xad473eaa51821c915d03d9db5349a0586d55e55e",
          "topics": [
            "0x36e13ba1e45df3ecb8f6beb6274a1f5d4abf4c0792bb56700354f0d50bf0acd7",
            "0x0000000000000000000000000000000000000000000000000000000000000006",
            "0x000000000000000000000000ad473eaa51821c915d03d9db5349a0586d55e55e"
          ],
          "data": "0x0192d1e4a25acce6e7a2d4e8900eba6030b412ccc2d92d174c541b9d6055ff390000000000000000000000000000000000000000000000000000000000000004000000000000000000000000000000000000000000000000000000000000006000000000000000000000000000000000000000000000000000000000000000043c1b000000000000000000000000000000000000000000000000000000000000",
          "blockHash": "0x61bc4e52994e7a7899d5f556b152859b95a3f45ce85c3b8a9770547458657012",
          "blockNumber": "0x2619606",
          "blockTimestamp": "0x694d88ef",
          "transactionHash": "0x774cfd0f67490cdd6afa901c1b201d275bb56066d926bd4b733d9709692df7ce",
          "transactionIndex": "0xe7",
          "logIndex": "0x2a2",
          "removed": false
        }
      ],
      "logsBloom": "0x00000000000000000000000000000000000000000000000000000000000400000000000000000000000000000000000000000000000400000000000000000000000000000000000000000000000000000000000010000000000000000000000000000000000000000000000000000040000000000400000000000000000000000000000400000000000000000200000000000000000000040002000000000000000004000000000000000000000000000000000000000000000000084000000000000000000000000000000000400000000000000000000000000000000800000000000000000000000000000000000000000000000000800000000000000000",
      "type": "0x2",
      "transactionHash": "0x774cfd0f67490cdd6afa901c1b201d275bb56066d926bd4b733d9709692df7ce",
      "transactionIndex": "0xe7",
      "blockHash": "0x61bc4e52994e7a7899d5f556b152859b95a3f45ce85c3b8a9770547458657012",
      "blockNumber": "0x2619606",
      "gasUsed": "0xd3f5",
      "effectiveGasPrice": "0x16e2d2",
      "blobGasUsed": "0x8a61",
      "from": "0xe403f79171b7050c78479f52e49e753d43e72c1a",
      "to": "0xad473eaa51821c915d03d9db5349a0586d55e55e",
      "contractAddress": null,
      "daFootprintGasScalar": "0x145",
      "l1BaseFeeScalar": "0x8dd",
      "l1BlobBaseFee": "0x1cf0e7",
      "l1BlobBaseFeeScalar": "0x101c12",
      "l1Fee": "0x14728e01",
      "l1GasPrice": "0x1d93ed3",
      "l1GasUsed": "0x6da"
    },
    {
      "status": "0x1",
      "cumulativeGasUsed": "0x245becc",
      "logs": [
        {
          "address": "0xad473eaa51821c915d03d9db5349a0586d55e55e",
          "topics": [
            "0x36e13ba1e45df3ecb8f6beb6274a1f5d4abf4c0792bb56700354f0d50bf0acd7",
            "0x0000000000000000000000000000000000000000000000000000000000000006",
            "0x000000000000000000000000e403f79171b7050c78479f52e49e753d43e72c1a"
          ],
          "data": "0xbb9afb9861b8290cda948e4af3b636449a44547dca4c3acbc45e65f4e22aab400000000000000000000000000000000000000000000000000000000000000005000000000000000000000000000000000000000000000000000000000000006000000000000000000000000000000000000000000000000000000000000000043129000000000000000000000000000000000000000000000000000000000000",
          "blockHash": "0x61bc4e52994e7a7899d5f556b152859b95a3f45ce85c3b8a9770547458657012",
          "blockNumber": "0x2619606",
          "blockTimestamp": "0x694d88ef",
          "transactionHash": "0x9b4c461c55ed3c6603111e6cf5a2ee9f26273c607fcec923d1a882aed31379cd",
          "transactionIndex": "0xe8",
          "logIndex": "0x2a3",
          "removed": false
        },
        {
          "address": "0xad473eaa51821c915d03d9db5349a0586d55e55e",
          "topics": [
            "0x36e13ba1e45df3ecb8f6beb6274a1f5d4abf4c0792bb56700354f0d50bf0acd7",
            "0x0000000000000000000000000000000000000000000000000000000000000006",
            "0x000000000000000000000000ad473eaa51821c915d03d9db5349a0586d55e55e"
          ],
          "data": "0x2760255e5f8c0d33599f68866f7b7bdd30ba831d73410b4548d9b6c2e2478d1c000000000000000000000000000000000000000000000000000000000000000600000000000000000000000000000000000000000000000000000000000000600000000000000000000000000000000000000000000000000000000000000004052b000000000000000000000000000000000000000000000000000000000000",
          "blockHash": "0x61bc4e52994e7a7899d5f556b152859b95a3f45ce85c3b8a9770547458657012",
          "blockNumber": "0x2619606",
          "blockTimestamp": "0x694d88ef",
          "transactionHash": "0x9b4c461c55ed3c6603111e6cf5a2ee9f26273c607fcec923d1a882aed31379cd",
          "transactionIndex": "0xe8",
          "logIndex": "0x2a4",
          "removed": false
        }
      ],
      "logsBloom": "0x00000000000000000000000000000000000000000000000000000000000400000000000000000000000000000000000000000000000400000000000000000000000000000000000000000000000000000000000010000000000000000000000000000000000000000000000000000040000000000400000000000000000000000000000400000000000000000200000000000000000000040002000000000000000004000000000000000000000000000000000000000000000000084000000000000000000000000000000000400000000000000000000000000000000800000000000000000000000000000000000000000000000000800000000000000000",
      "type": "0x2",
      "transactionHash": "0x9b4c461c55ed3c6603111e6cf5a2ee9f26273c607fcec923d1a882aed31379cd",
      "transactionIndex": "0xe8",
      "blockHash": "0x61bc4e52994e7a7899d5f556b152859b95a3f45ce85c3b8a9770547458657012",
      "blockNumber": "0x2619606",
      "gasUsed": "0xd3f5",
      "effectiveGasPrice": "0x16e2d2",
      "blobGasUsed": "0x8a61",
      "from": "0xe403f79171b7050c78479f52e49e753d43e72c1a",
      "to": "0xad473eaa51821c915d03d9db5349a0586d55e55e",
      "contractAddress": null,
      "daFootprintGasScalar": "0x145",
      "l1BaseFeeScalar": "0x8dd",
      "l1BlobBaseFee": "0x1cf0e7",
      "l1BlobBaseFeeScalar": "0x101c12",
      "l1Fee": "0x14728e01",
      "l1GasPrice": "0x1d93ed3",
      "l1GasUsed": "0x6da"
    },
    {
      "status": "0x1",
      "cumulativeGasUsed": "0x24692c1",
      "logs": [
        {
          "address": "0xad473eaa51821c915d03d9db5349a0586d55e55e",
          "topics": [
            "0x36e13ba1e45df3ecb8f6beb6274a1f5d4abf4c0792bb56700354f0d50bf0acd7",
            "0x0000000000000000000000000000000000000000000000000000000000000006",
            "0x000000000000000000000000e403f79171b7050c78479f52e49e753d43e72c1a"
          ],
          "data": "0x2a4b22ea265f7017c3f5040f1eec7d58baac29eda24dc699336157972973d8e10000000000000000000000000000000000000000000000000000000000000007000000000000000000000000000000000000000000000000000000000000006000000000000000000000000000000000000000000000000000000000000000043a2b000000000000000000000000000000000000000000000000000000000000",
          "blockHash": "0x61bc4e52994e7a7899d5f556b152859b95a3f45ce85c3b8a9770547458657012",
          "blockNumber": "0x2619606",
          "blockTimestamp": "0x694d88ef",
          "transactionHash": "0xa78918156d0c5b8c33b270f9e639e6ec9ba71cb9e8dd991c289b422fc6e741c1",
          "transactionIndex": "0xe9",
          "logIndex": "0x2a5",
          "removed": false
        },
        {
          "address": "0xad473eaa51821c915d03d9db5349a0586d55e55e",
          "topics": [
            "0x36e13ba1e45df3ecb8f6beb6274a1f5d4abf4c0792bb56700354f0d50bf0acd7",
            "0x0000000000000000000000000000000000000000000000000000000000000006",
            "0x000000000000000000000000ad473eaa51821c915d03d9db5349a0586d55e55e"
          ],
          "data": "0x55f26890947882f1207e2a875a0d392857a077e9af9ea320f39541f65d9244dd0000000000000000000000000000000000000000000000000000000000000008000000000000000000000000000000000000000000000000000000000000006000000000000000000000000000000000000000000000000000000000000000042818000000000000000000000000000000000000000000000000000000000000",
          "blockHash": "0x61bc4e52994e7a7899d5f556b152859b95a3f45ce85c3b8a9770547458657012",
          "blockNumber": "0x2619606",
          "blockTimestamp": "0x694d88ef",
          "transactionHash": "0xa78918156d0c5b8c33b270f9e639e6ec9ba71cb9e8dd991c289b422fc6e741c1",
          "transactionIndex": "0xe9",
          "logIndex": "0x2a6",
          "removed": false
        }
      ],
      "logsBloom": "0x00000000000000000000000000000000000000000000000000000000000400000000000000000000000000000000000000000000000400000000000000000000000000000000000000000000000000000000000010000000000000000000000000000000000000000000000000000040000000000400000000000000000000000000000400000000000000000200000000000000000000040002000000000000000004000000000000000000000000000000000000000000000000084000000000000000000000000000000000400000000000000000000000000000000800000000000000000000000000000000000000000000000000800000000000000000",
      "type": "0x2",
      "transactionHash": "0xa78918156d0c5b8c33b270f9e639e6ec9ba71cb9e8dd991c289b422fc6e741c1",
      "transactionIndex": "0xe9",
      "blockHash": "0x61bc4e52994e7a7899d5f556b152859b95a3f45ce85c3b8a9770547458657012",
      "blockNumber": "0x2619606",
      "gasUsed": "0xd3f5",
      "effectiveGasPrice": "0x16e2d2",
      "blobGasUsed": "0x8a61",
      "from": "0xe403f79171b7050c78479f52e49e753d43e72c1a",
      "to": "0xad473eaa51821c915d03d9db5349a0586d55e55e",
      "contractAddress": null,
      "daFootprintGasScalar": "0x145",
      "l1BaseFeeScalar": "0x8dd",
      "l1BlobBaseFee": "0x1cf0e7",
      "l1BlobBaseFeeScalar": "0x101c12",
      "l1Fee": "0x14728e01",
      "l1GasPrice": "0x1d93ed3",
      "l1GasUsed": "0x6da"
    },
    {
      "status": "0x1",
      "cumulativeGasUsed": "0x4d5455",
      "logs": [
        {
          "address": "0xad473eaa51821c915d03d9db5349a0586d55e55e",
          "topics": [
            "0x36e13ba1e45df3ecb8f6beb6274a1f5d4abf4c0792bb56700354f0d50bf0acd7",
            "0x0000000000000000000000000000000000000000000000000000000000000007",
            "0x000000000000000000000000e403f79171b7050c78479f52e49e753d43e72c1a"
          ],
          "data": "0xe8773807ffd17108aa2d132cec684352f2c5c8337ff4659cc010d15b0551847d0000000000000000000000000000000000000000000000000000000000000001000000000000000000000000000000000000000000000000000000000000006000000000000000000000000000000000000000000000000000000000000000043424000000000000000000000000000000000000000000000000000000000000",
          "blockHash": "0x8dcb185a97492b1addd66feed07a6124844e86c58249263367fa1a90aa23bfc9",
          "blockNumber": "0x2619607",
          "blockTimestamp": "0x694d88f1",
          "transactionHash": "0xc7b11603ad9368311b91d1373d68f147e60cc3d909ea4b82c8c02b8606f7f9cb",
          "transactionIndex": "0x2d",
          "logIndex": "0x73",
          "removed": false
        },
        {
          "address": "0xad473eaa51821c915d03d9db5349a0586d55e55e",
          "topics": [
            "0x36e13ba1e45df3ecb8f6beb6274a1f5d4abf4c0792bb56700354f0d50bf0acd7",
            "0x0000000000000000000000000000000000000000000000000000000000000007",
            "0x000000000000000000000000ad473eaa51821c915d03d9db5349a0586d55e55e"
          ],
          "data": "0xf4bb36a023d03b095a88119a20a9000a252aea11d80408b3bd0c6bade87b4ba70000000000000000000000000000000000000000000000000000000000000002000000000000000000000000000000000000000000000000000000000000006000000000000000000000000000000000000000000000000000000000000000043424000000000000000000000000000000000000000000000000000000000000",
          "blockHash": "0x8dcb185a97492b1addd66feed07a6124844e86c58249263367fa1a90aa23bfc9",
          "blockNumber": "0x2619607",
          "blockTimestamp": "0x694d88f1",
          "transactionHash": "0xc7b11603ad9368311b91d1373d68f147e60cc3d909ea4b82c8c02b8606f7f9cb",
          "transactionIndex": "0x2d",
          "logIndex": "0x74",
          "removed": false
        }
      ],
      "logsBloom": "0x00000000000000000000000000000000000000000000000000000000000400000000000000000000000000000000000000001000000000000000000000000000000020000000000000000000000000000000000010000000000000000000000000000000000000000000000000000040000000000400000000000000000000000000000000000000000000000200000000000000000000040002000000000000000004000000000000000000000000000000000000000000000000004000000000000000000000000000000000400000000000000000000000000100000800000000000000000000000000000000000000000000000000800000000000000000",
      "type": "0x2",
      "transactionHash": "0xc7b11603ad9368311b91d1373d68f147e60cc3d909ea4b82c8c02b8606f7f9cb",
      "transactionIndex": "0x2d",
      "blockHash": "0x8dcb185a97492b1addd66feed07a6124844e86c58249263367fa1a90aa23bfc9",
      "blockNumber": "0x2619607",
      "gasUsed": "0x12107",
      "effectiveGasPrice": "0x16e2d2",
      "blobGasUsed": "0x8a61",
      "from": "0xe403f79171b7050c78479f52e49e753d43e72c1a",
      "to": "0xad473eaa51821c915d03d9db5349a0586d55e55e",
      "contractAddress": null,
      "daFootprintGasScalar": "0x145",
      "l1BaseFeeScalar": "0x8dd",
      "l1BlobBaseFee": "0x1cf0e7",
      "l1BlobBaseFeeScalar": "0x101c12",
      "l1Fee": "0x16c9842e",
      "l1GasPrice": "0x1d93ed3",
      "l1GasUsed": "0x6da"
    },
    {
      "status": "0x1",
      "cumulativeGasUsed": "0x4e284a",
      "logs": [
        {
          "address": "0xad473eaa51821c915d03d9db5349a0586d55e55e",
          "topics": [
            "0x36e13ba1e45df3ecb8f6beb6274a1f5d4abf4c0792bb56700354f0d50bf0acd7",
            "0x0000000000000000000000000000000000000000000000000000000000000007",
            "0x000000000000000000000000e403f79171b7050c78479f52e49e753d43e72c1a"
          ],
          "data": "0x0692c63251d62c8f04eed454cc75e5bc199ba842e6b8106095e5d806a5e48cfa0000000000000000000000000000000000000000000000000000000000000003000000000000000000000000000000000000000000000000000000000000006000000000000000000000000000000000000000000000000000000000000000043323000000000000000000000000000000000000000000000000000000000000",
          "blockHash": "0xae86f4860132b229217c5f5d9b59070a76474e2c0dc49d98666e6046ae4b76dc",
          "blockNumber": "0x2619607",
          "blockTimestamp": "0x694d88f1",
          "transactionHash": "0xaa1d0bdf376e72e702811989db8ed5b1129ab82204ca73d4db2acea2cecbcb40",
          "transactionIndex": "0x2e",
          "logIndex": "0x75",
          "removed": false
        },
        {
          "address": "0xad473eaa51821c915d03d9db5349a0586d55e55e",
          "topics": [
            "0x36e13ba1e45df3ecb8f6beb6274a1f5d4abf4c0792bb56700354f0d50bf0acd7",
            "0x0000000000000000000000000000000000000000000000000000000000000007",
            "0x000000000000000000000000ad473eaa51821c915d03d9db5349a0586d55e55e"
          ],
          "data": "0x80db663b91d50261d3b6cf7c40f14617bc570551fdc50ae5d379aac6ea1fb5d50000000000000000000000000000000000000000000000000000000000000004000000000000000000000000000000000000000000000000000000000000006000000000000000000000000000000000000000000000000000000000000000043d0c000000000000000000000000000000000000000000000000000000000000",
          "blockHash": "0xae86f4860132b229217c5f5d9b59070a76474e2c0dc49d98666e6046ae4b76dc",
          "blockNumber": "0x2619607",
          "blockTimestamp": "0x694d88f1",
          "transactionHash": "0xaa1d0bdf376e72e702811989db8ed5b1129ab82204ca73d4db2acea2cecbcb40",
          "transactionIndex": "0x2e",
          "logIndex": "0x76",
          "removed": false
        }
      ],
      "logsBloom": "0x00000000000000000000000000000000000000000000000000000000000400000000000000000000000000000000000000001000000000000000000000000000000020000000000000000000000000000000000010000000000000000000000000000000000000000000000000000040000000000400000000000000000000000000000000000000000000000200000000000000000000040002000000000000000004000000000000000000000000000000000000000000000000004000000000000000000000000000000000400000000000000000000000000100000800000000000000000000000000000000000000000000000000800000000000000000",
      "type": "0x2",
      "transactionHash": "0xaa1d0bdf376e72e702811989db8ed5b1129ab82204ca73d4db2acea2cecbcb40",
      "transactionIndex": "0x2e",
      "blockHash": "0xae86f4860132b229217c5f5d9b59070a76474e2c0dc49d98666e6046ae4b76dc",
      "blockNumber": "0x2619607",
      "gasUsed": "0xd3f5",
      "effectiveGasPrice": "0x16e2d2",
      "blobGasUsed": "0x8a61",
      "from": "0xe403f79171b7050c78479f52e49e753d43e72c1a",
      "to": "0xad473eaa51821c915d03d9db5349a0586d55e55e",
      "contractAddress": null,
      "daFootprintGasScalar": "0x145",
      "l1BaseFeeScalar": "0x8dd",
      "l1BlobBaseFee": "0x1cf0e7",
      "l1BlobBaseFeeScalar": "0x101c12",
      "l1Fee": "0x14728e01",
      "l1GasPrice": "0x1d93ed3",
      "l1GasUsed": "0x6da"
    },
    {
      "status": "0x1",
      "cumulativeGasUsed": "0x4efc3f",
      "logs": [
        {
          "address": "0xad473eaa51821c915d03d9db5349a0586d55e55e",
          "topics": [
            "0x36e13ba1e45df3ecb8f6beb6274a1f5d4abf4c0792bb56700354f0d50bf0acd7",
            "0x0000000000000000000000000000000000000000000000000000000000000007",
            "0x000000000000000000000000e403f79171b7050c78479f52e49e753d43e72c1a"
          ],
          "data": "0x4442d021ec118fea7ce3641d3375363801af2e92adb1272f726cf20292795a62000000000000000000000000000000000000000000000000000000000000000500000000000000000000000000000000000000000000000000000000000000600000000000000000000000000000000000000000000000000000000000000004392a000000000000000000000000000000000000000000000000000000000000",
          "blockHash": "0xae86f4860132b229217c5f5d9b59070a76474e2c0dc49d98666e6046ae4b76dc",
          "blockNumber": "0x2619607",
          "blockTimestamp": "0x694d88f1",
          "transactionHash": "0x6f87b87b6a271b69c9f810e465c33d0229b0bb21e9430e70fc4b8be49bbb3835",
          "transactionIndex": "0x2f",
          "logIndex": "0x77",
          "removed": false
        },
        {
          "address": "0xad473eaa51821c915d03d9db5349a0586d55e55e",
          "topics": [
            "0x36e13ba1e45df3ecb8f6beb6274a1f5d4abf4c0792bb56700354f0d50bf0acd7",
            "0x0000000000000000000000000000000000000000000000000000000000000007",
            "0x000000000000000000000000ad473eaa51821c915d03d9db5349a0586d55e55e"
          ],
          "data": "0xe131cca08afe30756df90d03f27be0045be7f7a0d73031afbdf14f8a193cb8e6000000000000000000000000000000000000000000000000000000000000000600000000000000000000000000000000000000000000000000000000000000600000000000000000000000000000000000000000000000000000000000000004271a000000000000000000000000000000000000000000000000000000000000",
          "blockHash": "0xae86f4860132b229217c5f5d9b59070a76474e2c0dc49d98666e6046ae4b76dc",
          "blockNumber": "0x2619607",
          "blockTimestamp": "0x694d88f1",
          "transactionHash": "0x6f87b87b6a271b69c9f810e465c33d0229b0bb21e9430e70fc4b8be49bbb3835",
          "transactionIndex": "0x2f",
          "logIndex": "0x78",
          "removed": false
        }
      ],
      "logsBloom": "0x00000000000000000000000000000000000000000000000000000000000400000000000000000000000000000000000000001000000000000000000000000000000020000000000000000000000000000000000010000000000000000000000000000000000000000000000000000040000000000400000000000000000000000000000000000000000000000200000000000000000000040002000000000000000004000000000000000000000000000000000000000000000000004000000000000000000000000000000000400000000000000000000000000100000800000000000000000000000000000000000000000000000000800000000000000000",
      "type": "0x2",
      "transactionHash": "0x6f87b87b6a271b69c9f810e465c33d0229b0bb21e9430e70fc4b8be49bbb3835",
      "transactionIndex": "0x2f",
      "blockHash": "0xae86f4860132b229217c5f5d9b59070a76474e2c0dc49d98666e6046ae4b76dc",
      "blockNumber": "0x2619607",
      "gasUsed": "0xd3f5",
      "effectiveGasPrice": "0x16e2d2",
      "blobGasUsed": "0x8a61",
      "from": "0xe403f79171b7050c78479f52e49e753d43e72c1a",
      "to": "0xad473eaa51821c915d03d9db5349a0586d55e55e",
      "contractAddress": null,
      "daFootprintGasScalar": "0x145",
      "l1BaseFeeScalar": "0x8dd",
      "l1BlobBaseFee": "0x1cf0e7",
      "l1BlobBaseFeeScalar": "0x101c12",
      "l1Fee": "0x14728e01",
      "l1GasPrice": "0x1d93ed3",
      "l1GasUsed": "0x6da"
    },
    {
      "status": "0x1",
      "cumulativeGasUsed": "0x4fd034",
      "logs": [
        {
          "address": "0xad473eaa51821c915d03d9db5349a0586d55e55e",
          "topics": [
            "0x36e13ba1e45df3ecb8f6beb6274a1f5d4abf4c0792bb56700354f0d50bf0acd7",
            "0x0000000000000000000000000000000000000000000000000000000000000007",
            "0x000000000000000000000000e403f79171b7050c78479f52e49e753d43e72c1a"
          ],
          "data": "0xc7183fc0754b5e7da3b74bf364f8affe59ffdf73627f9b8e7d4991d4453bd3640000000000000000000000000000000000000000000000000000000000000007000000000000000000000000000000000000000000000000000000000000006000000000000000000000000000000000000000000000000000000000000000043b2c000000000000000000000000000000000000000000000000000000000000",
          "blockHash": "0x9bf9b2fe9f51e57c47bc300f5a5a876096c27c5b199d941dffa6584cfbd8b799",
          "blockNumber": "0x2619607",
          "blockTimestamp": "0x694d88f1",
          "transactionHash": "0x3c8657d134a23f34a06fbb74da17461f553f96097dc135a9b44cec3838fa9df9",
          "transactionIndex": "0x30",
          "logIndex": "0x79",
          "removed": false
        },
        {
          "address": "0xad473eaa51821c915d03d9db5349a0586d55e55e",
          "topics": [
            "0x36e13ba1e45df3ecb8f6beb6274a1f5d4abf4c0792bb56700354f0d50bf0acd7",
            "0x0000000000000000000000000000000000000000000000000000000000000007",
            "0x000000000000000000000000ad473eaa51821c915d03d9db5349a0586d55e55e"
          ],
          "data": "0xfa672e07d673b2d218b92d8ee0e059b5d1bfc274c1d1aaf67086a3dbe5f1587f0000000000000000000000000000000000000000000000000000000000000008000000000000000000000000000000000000000000000000000000000000006000000000000000000000000000000000000000000000000000000000000000042b13000000000000000000000000000000000000000000000000000000000000",
          "blockHash": "0x9bf9b2fe9f51e57c47bc300f5a5a876096c27c5b199d941dffa6584cfbd8b799",
          "blockNumber": "0x2619607",
          "blockTimestamp": "0x694d88f1",
          "transactionHash": "0x3c8657d134a23f34a06fbb74da17461f553f96097dc135a9b44cec3838fa9df9",
          "transactionIndex": "0x30",
          "logIndex": "0x7a",
          "removed": false
        }
      ],
      "logsBloom": "0x00000000000000000000000000000000000000000000000000000000000400000000000000000000000000000000000000001000000000000000000000000000000020000000000000000000000000000000000010000000000000000000000000000000000000000000000000000040000000000400000000000000000000000000000000000000000000000200000000000000000000040002000000000000000004000000000000000000000000000000000000000000000000004000000000000000000000000000000000400000000000000000000000000100000800000000000000000000000000000000000000000000000000800000000000000000",
      "type": "0x2",
      "transactionHash": "0x3c8657d134a23f34a06fbb74da17461f553f96097dc135a9b44cec3838fa9df9",
      "transactionIndex": "0x30",
      "blockHash": "0x9bf9b2fe9f51e57c47bc300f5a5a876096c27c5b199d941dffa6584cfbd8b799",
      "blockNumber": "0x2619607",
      "gasUsed": "0xd3f5",
      "effectiveGasPrice": "0x16e2d2",
      "blobGasUsed": "0x8a61",
      "from": "0xe403f79171b7050c78479f52e49e753d43e72c1a",
      "to": "0xad473eaa51821c915d03d9db5349a0586d55e55e",
      "contractAddress": null,
      "daFootprintGasScalar": "0x145",
      "l1BaseFeeScalar": "0x8dd",
      "l1BlobBaseFee": "0x1cf0e7",
      "l1BlobBaseFeeScalar": "0x101c12",
      "l1Fee": "0x16c9842e",
      "l1GasPrice": "0x1d93ed3",
      "l1GasUsed": "0x6da"
    },
    {
      "status": "0x1",
      "cumulativeGasUsed": "0x876793",
      "logs": [
        {
          "address": "0xad473eaa51821c915d03d9db5349a0586d55e55e",
          "topics": [
            "0x36e13ba1e45df3ecb8f6beb6274a1f5d4abf4c0792bb56700354f0d50bf0acd7",
            "0x0000000000000000000000000000000000000000000000000000000000000008",
            "0x000000000000000000000000e403f79171b7050c78479f52e49e753d43e72c1a"
          ],
          "data": "0x90e396633e67bfb131a9c9b400ea842e0f29f45c4bc7872a0e80af48deb785040000000000000000000000000000000000000000000000000000000000000001000000000000000000000000000000000000000000000000000000000000006000000000000000000000000000000000000000000000000000000000000000043028000000000000000000000000000000000000000000000000000000000000",
          "blockHash": "0x9bf9b2fe9f51e57c47bc300f5a5a876096c27c5b199d941dffa6584cfbd8b799",
          "blockNumber": "0x2619607",
          "blockTimestamp": "0x694d88f1",
          "transactionHash": "0x624700677150d407d0687032fcd1ff011ddb7938d23f2798ae3d996a9386b7d0",
          "transactionIndex": "0x43",
          "logIndex": "0xcb",
          "removed": false
        },
        {
          "address": "0xad473eaa51821c915d03d9db5349a0586d55e55e",
          "topics": [
            "0x36e13ba1e45df3ecb8f6beb6274a1f5d4abf4c0792bb56700354f0d50bf0acd7",
            "0x0000000000000000000000000000000000000000000000000000000000000008",
            "0x000000000000000000000000ad473eaa51821c915d03d9db5349a0586d55e55e"
          ],
          "data": "0x60e65b9330f95689004881ceb0c70271140d7a6c66037940d345a33188c341c30000000000000000000000000000000000000000000000000000000000000002000000000000000000000000000000000000000000000000000000000000006000000000000000000000000000000000000000000000000000000000000000043424000000000000000000000000000000000000000000000000000000000000",
          "blockHash": "0x9bf9b2fe9f51e57c47bc300f5a5a876096c27c5b199d941dffa6584cfbd8b799",
          "blockNumber": "0x2619607",
          "blockTimestamp": "0x694d88f1",
          "transactionHash": "0x624700677150d407d0687032fcd1ff011ddb7938d23f2798ae3d996a9386b7d0",
          "transactionIndex": "0x43",
          "logIndex": "0xcc",
          "removed": false
        }
      ],
      "logsBloom": "0x00000000000000000000000000000000000000000000000000000000000400000000000000000000000000000000000000000000000080000000000000000000000000000000000000000000000000000000000010000000000000000000000000000000000000000000000000000040000000000400000000000000000000000080000000000000000000000200000000000000000000040002000000000000000004000000000000000000000000000000000000000000000000004000000040000000000000000000000000400000000000000000000000000000000800000000000000000000000000000000000000000000000000800000000000000000",
      "type": "0x2",
      "transactionHash": "0x624700677150d407d0687032fcd1ff011ddb7938d23f2798ae3d996a9386b7d0",
      "transactionIndex": "0x43",
      "blockHash": "0x9bf9b2fe9f51e57c47bc300f5a5a876096c27c5b199d941dffa6584cfbd8b799",
      "blockNumber": "0x2619607",
      "gasUsed": "0x120fb",
      "effectiveGasPrice": "0x16e2d2",
      "blobGasUsed": "0x8a61",
      "from": "0xe403f79171b7050c78479f52e49e753d43e72c1a",
      "to": "0xad473eaa51821c915d03d9db5349a0586d55e55e",
      "contractAddress": null,
      "daFootprintGasScalar": "0x145",
      "l1BaseFeeScalar": "0x8dd",
      "l1BlobBaseFee": "0x1cf0e7",
      "l1BlobBaseFeeScalar": "0x101c12",
      "l1Fee": "0x16c9842e",
      "l1GasPrice": "0x1d93ed3",
      "l1GasUsed": "0x6da"
    },
    {
      "status": "0x1",
      "cumulativeGasUsed": "0x883b88",
      "logs": [
        {
          "address": "0xad473eaa51821c915d03d9db5349a0586d55e55e",
          "topics": [
            "0x36e13ba1e45df3ecb8f6beb6274a1f5d4abf4c0792bb56700354f0d50bf0acd7",
            "0x0000000000000000000000000000000000000000000000000000000000000008",
            "0x000000000000000000000000e403f79171b7050c78479f52e49e753d43e72c1a"
          ],
          "data": "0xfc6cc8976638831fc84ceab234894f532e0338e7268a3303d4c0c1939f85dbb90000000000000000000000000000000000000000000000000000000000000003000000000000000000000000000000000000000000000000000000000000006000000000000000000000000000000000000000000000000000000000000000043222000000000000000000000000000000000000000000000000000000000000",
          "blockHash": "0x9bf9b2fe9f51e57c47bc300f5a5a876096c27c5b199d941dffa6584cfbd8b799",
          "blockNumber": "0x2619607",
          "blockTimestamp": "0x694d88f1",
          "transactionHash": "0x63d1a124488906a6b7904dabb39a9de7c36dee2da2a035bd000de65811690bd9",
          "transactionIndex": "0x44",
          "logIndex": "0xcd",
          "removed": false
        },
        {
          "address": "0xad473eaa51821c915d03d9db5349a0586d55e55e",
          "topics": [
            "0x36e13ba1e45df3ecb8f6beb6274a1f5d4abf4c0792bb56700354f0d50bf0acd7",
            "0x0000000000000000000000000000000000000000000000000000000000000008",
            "0x000000000000000000000000ad473eaa51821c915d03d9db5349a0586d55e55e"
          ],
          "data": "0x0192d1e4a25acce6e7a2d4e8900eba6030b412ccc2d92d174c541b9d6055ff390000000000000000000000000000000000000000000000000000000000000004000000000000000000000000000000000000000000000000000000000000006000000000000000000000000000000000000000000000000000000000000000043c1b000000000000000000000000000000000000000000000000000000000000",
          "blockHash": "0x9bf9b2fe9f51e57c47bc300f5a5a876096c27c5b199d941dffa6584cfbd8b799",
          "blockNumber": "0x2619607",
          "blockTimestamp": "0x694d88f1",
          "transactionHash": "0x63d1a124488906a6b7904dabb39a9de7c36dee2da2a035bd000de65811690bd9",
          "transactionIndex": "0x44",
          "logIndex": "0xce",
          "removed": false
        }
      ],
      "logsBloom": "0x00000000000000000000000000000000000000000000000000000000000400000000000000000000000000000000000000000000000080000000000000000000000000000000000000000000000000000000000010000000000000000000000000000000000000000000000000000040000000000400000000000000000000000080000000000000000000000200000000000000000000040002000000000000000004000000000000000000000000000000000000000000000000004000000040000000000000000000000000400000000000000000000000000000000800000000000000000000000000000000000000000000000000800000000000000000",
      "type": "0x2",
      "transactionHash": "0x63d1a124488906a6b7904dabb39a9de7c36dee2da2a035bd000de65811690bd9",
      "transactionIndex": "0x44",
      "blockHash": "0x9bf9b2fe9f51e57c47bc300f5a5a876096c27c5b199d941dffa6584cfbd8b799",
      "blockNumber": "0x2619607",
      "gasUsed": "0xd3f5",
      "effectiveGasPrice": "0x16e2d2",
      "blobGasUsed": "0x8a61",
      "from": "0xe403f79171b7050c78479f52e49e753d43e72c1a",
      "to": "0xad473eaa51821c915d03d9db5349a0586d55e55e",
      "contractAddress": null,
      "daFootprintGasScalar": "0x145",
      "l1BaseFeeScalar": "0x8dd",
      "l1BlobBaseFee": "0x1cf0e7",
      "l1BlobBaseFeeScalar": "0x101c12",
      "l1Fee": "0x16c9842e",
      "l1GasPrice": "0x1d93ed3",
      "l1GasUsed": "0x6da"
    },
    {
      "status": "0x1",
      "cumulativeGasUsed": "0x890f7d",
      "logs": [
        {
          "address": "0xad473eaa51821c915d03d9db5349a0586d55e55e",
          "topics": [
            "0x36e13ba1e45df3ecb8f6beb6274a1f5d4abf4c0792bb56700354f0d50bf0acd7",
            "0x0000000000000000000000000000000000000000000000000000000000000008",
            "0x000000000000000000000000e403f79171b7050c78479f52e49e753d43e72c1a"
          ],
          "data": "0xbb9afb9861b8290cda948e4af3b636449a44547dca4c3acbc45e65f4e22aab400000000000000000000000000000000000000000000000000000000000000005000000000000000000000000000000000000000000000000000000000000006000000000000000000000000000000000000000000000000000000000000000043129000000000000000000000000000000000000000000000000000000000000",
          "blockHash": "0x9bf9b2fe9f51e57c47bc300f5a5a876096c27c5b199d941dffa6584cfbd8b799",
          "blockNumber": "0x2619607",
          "blockTimestamp": "0x694d88f1",
          "transactionHash": "0xc2c66a9b1bcd4db8016cff674ca5265229750ab07404ba73c018a4c54b2ca437",
          "transactionIndex": "0x45",
          "logIndex": "0xcf",
          "removed": false
        },
        {
          "address": "0xad473eaa51821c915d03d9db5349a0586d55e55e",
          "topics": [
            "0x36e13ba1e45df3ecb8f6beb6274a1f5d4abf4c0792bb56700354f0d50bf0acd7",
            "0x0000000000000000000000000000000000000000000000000000000000000008",
            "0x000000000000000000000000ad473eaa51821c915d03d9db5349a0586d55e55e"
          ],
          "data": "0x2760255e5f8c0d33599f68866f7b7bdd30ba831d73410b4548d9b6c2e2478d1c000000000000000000000000000000000000000000000000000000000000000600000000000000000000000000000000000000000000000000000000000000600000000000000000000000000000000000000000000000000000000000000004052b000000000000000000000000000000000000000000000000000000000000",
          "blockHash": "0x9bf9b2fe9f51e57c47bc300f5a5a876096c27c5b199d941dffa6584cfbd8b799",
          "blockNumber": "0x2619607",
          "blockTimestamp": "0x694d88f1",
          "transactionHash": "0xc2c66a9b1bcd4db8016cff674ca5265229750ab07404ba73c018a4c54b2ca437",
          "transactionIndex": "0x45",
          "logIndex": "0xd0",
          "removed": false
        }
      ],
      "logsBloom": "0x00000000000000000000000000000000000000000000000000000000000400000000000000000000000000000000000000000000000080000000000000000000000000000000000000000000000000000000000010000000000000000000000000000000000000000000000000000040000000000400000000000000000000000080000000000000000000000200000000000000000000040002000000000000000004000000000000000000000000000000000000000000000000004000000040000000000000000000000000400000000000000000000000000000000800000000000000000000000000000000000000000000000000800000000000000000",
      "type": "0x2",
      "transactionHash": "0xc2c66a9b1bcd4db8016cff674ca5265229750ab07404ba73c018a4c54b2ca437",
      "transactionIndex": "0x45",
      "blockHash": "0x9bf9b2fe9f51e57c47bc300f5a5a876096c27c5b199d941dffa6584cfbd8b799",
      "blockNumber": "0x2619607",
      "gasUsed": "0xd3f5",
      "effectiveGasPrice": "0x16e2d2",
      "blobGasUsed": "0x8a61",
      "from": "0xe403f79171b7050c78479f52e49e753d43e72c1a",
      "to": "0xad473eaa51821c915d03d9db5349a0586d55e55e",
      "contractAddress": null,
      "daFootprintGasScalar": "0x145",
      "l1BaseFeeScalar": "0x8dd",
      "l1BlobBaseFee": "0x1cf0e7",
      "l1BlobBaseFeeScalar": "0x101c12",
      "l1Fee": "0x16c9842e",
      "l1GasPrice": "0x1d93ed3",
      "l1GasUsed": "0x6da"
    },
    {
      "status": "0x1",
      "cumulativeGasUsed": "0x89e372",
      "logs": [
        {
          "address": "0xad473eaa51821c915d03d9db5349a0586d55e55e",
          "topics": [
            "0x36e13ba1e45df3ecb8f6beb6274a1f5d4abf4c0792bb56700354f0d50bf0acd7",
            "0x0000000000000000000000000000000000000000000000000000000000000008",
            "0x000000000000000000000000e403f79171b7050c78479f52e49e753d43e72c1a"
          ],
          "data": "0x2a4b22ea265f7017c3f5040f1eec7d58baac29eda24dc699336157972973d8e10000000000000000000000000000000000000000000000000000000000000007000000000000000000000000000000000000000000000000000000000000006000000000000000000000000000000000000000000000000000000000000000043a2b000000000000000000000000000000000000000000000000000000000000",
          "blockHash": "0x9bf9b2fe9f51e57c47bc300f5a5a876096c27c5b199d941dffa6584cfbd8b799",
          "blockNumber": "0x2619607",
          "blockTimestamp": "0x694d88f1",
          "transactionHash": "0x098a873c4499195b9c39c554cdb3368916b56f1d786319251da5afc1e0bab640",
          "transactionIndex": "0x46",
          "logIndex": "0xd1",
          "removed": false
        },
        {
          "address": "0xad473eaa51821c915d03d9db5349a0586d55e55e",
          "topics": [
            "0x36e13ba1e45df3ecb8f6beb6274a1f5d4abf4c0792bb56700354f0d50bf0acd7",
            "0x0000000000000000000000000000000000000000000000000000000000000008",
            "0x000000000000000000000000ad473eaa51821c915d03d9db5349a0586d55e55e"
          ],
          "data": "0x55f26890947882f1207e2a875a0d392857a077e9af9ea320f39541f65d9244dd0000000000000000000000000000000000000000000000000000000000000008000000000000000000000000000000000000000000000000000000000000006000000000000000000000000000000000000000000000000000000000000000042818000000000000000000000000000000000000000000000000000000000000",
          "blockHash": "0x9bf9b2fe9f51e57c47bc300f5a5a876096c27c5b199d941dffa6584cfbd8b799",
          "blockNumber": "0x2619607",
          "blockTimestamp": "0x694d88f1",
          "transactionHash": "0x098a873c4499195b9c39c554cdb3368916b56f1d786319251da5afc1e0bab640",
          "transactionIndex": "0x46",
          "logIndex": "0xd2",
          "removed": false
        }
      ],
      "logsBloom": "0x00000000000000000000000000000000000000000000000000000000000400000000000000000000000000000000000000000000000080000000000000000000000000000000000000000000000000000000000010000000000000000000000000000000000000000000000000000040000000000400000000000000000000000080000000000000000000000200000000000000000000040002000000000000000004000000000000000000000000000000000000000000000000004000000040000000000000000000000000400000000000000000000000000000000800000000000000000000000000000000000000000000000000800000000000000000",
      "type": "0x2",
      "transactionHash": "0x098a873c4499195b9c39c554cdb3368916b56f1d786319251da5afc1e0bab640",
      "transactionIndex": "0x46",
      "blockHash": "0x9bf9b2fe9f51e57c47bc300f5a5a876096c27c5b199d941dffa6584cfbd8b799",
      "blockNumber": "0x2619607",
      "gasUsed": "0xd3f5",
      "effectiveGasPrice": "0x16e2d2",
      "blobGasUsed": "0x8a61",
      "from": "0xe403f79171b7050c78479f52e49e753d43e72c1a",
      "to": "0xad473eaa51821c915d03d9db5349a0586d55e55e",
      "contractAddress": null,
      "daFootprintGasScalar": "0x145",
      "l1BaseFeeScalar": "0x8dd",
      "l1BlobBaseFee": "0x1cf0e7",
      "l1BlobBaseFeeScalar": "0x101c12",
      "l1Fee": "0x16c9842e",
      "l1GasPrice": "0x1d93ed3",
      "l1GasUsed": "0x6da"
    }
  ],
  "libraries": [],
  "pending": [],
  "returns": {},
  "timestamp": 1766689011987,
  "chain": 8453,
  "commit": "1b5b336"
}