{
  "transactions": [
    {
      "hash": "0x52aa2348aa687f1ffb05c239f0ae384f63579f157f18d23a77ea204316b6ca50",
      "transactionType": "CALL",
      "contractName": null,
      "contractAddress": "0xad473eaa51821c915d03d9db5349a0586d55e55e",
      "function": "createMatch(uint8,uint8,address,uint256,bytes32)",
      "arguments": [
        "1",
        "0",
        "0x0000000000000000000000000000000000000000",
        "0",
        "0x3608f503d624b47779fba399a097e68bc35cdbd22fcf04e3d6b7a3bd8fa9b746"
      ],
      "transaction": {
        "from": "0xe403f79171b7050c78479f52e49e753d43e72c1a",
        "to": "0xad473eaa51821c915d03d9db5349a0586d55e55e",
        "gas": "0x52a7d",
        "value": "0x0",
        "input": "0xea994fab00000000000000000000000000000000000000000000000000000000000000010000000000000000000000000000000000000000000000000000000000000000000000000000000000000000000000000000000000000000000000000000000000000000000000000000000000000000000000000000000000000000000000003608f503d624b47779fba399a097e68bc35cdbd22fcf04e3d6b7a3bd8fa9b746",
        "nonce": "0x37b",
        "chainId": "0x2105"
      },
      "additionalContracts": [],
      "isFixedGasLimit": false
    },
    {
      "hash": "0x5b7bb81c5c1f216698a36e7a0f778791e55cd2c926d82efa2f33a413ee0b003d",
      "transactionType": "CALL",
      "contractName": null,
      "contractAddress": "0xad473eaa51821c915d03d9db5349a0586d55e55e",
      "function": "createMatch(uint8,uint8,address,uint256,bytes32)",
      "arguments": [
        "1",
        "0",
        "0x0000000000000000000000000000000000000000",
        "0",
        "0x3608f503d624b47779fba399a097e68bc35cdbd22fcf04e3d6b7a3bd8fa9b746"
      ],
      "transaction": {
        "from": "0xe403f79171b7050c78479f52e49e753d43e72c1a",
        "to": "0xad473eaa51821c915d03d9db5349a0586d55e55e",
        "gas": "0x52a7d",
        "value": "0x0",
        "input": "0xea994fab00000000000000000000000000000000000000000000000000000000000000010000000000000000000000000000000000000000000000000000000000000000000000000000000000000000000000000000000000000000000000000000000000000000000000000000000000000000000000000000000000000000000000003608f503d624b47779fba399a097e68bc35cdbd22fcf04e3d6b7a3bd8fa9b746",
        "nonce": "0x37c",
        "chainId": "0x2105"
      },
      "additionalContracts": [],
      "isFixedGasLimit": false
    },
    {
      "hash": "0xa431b548292b5f309e109c996084182ef11d552e9735318bd83ef2e1b0d1010b",
      "transactionType": "CALL",
      "contractName": null,
      "contractAddress": "0xad473eaa51821c915d03d9db5349a0586d55e55e",
      "function": "createMatch(uint8,uint8,address,uint256,bytes32)",
      "arguments": [
        "1",
        "0",
        "0x0000000000000000000000000000000000000000",
        "0",
        "0x3608f503d624b47779fba399a097e68bc35cdbd22fcf04e3d6b7a3bd8fa9b746"
      ],
      "transaction": {
        "from": "0xe403f79171b7050c78479f52e49e753d43e72c1a",
        "to": "0xad473eaa51821c915d03d9db5349a0586d55e55e",
        "gas": "0x52a7d",
        "value": "0x0",
        "input": "0xea994fab00000000000000000000000000000000000000000000000000000000000000010000000000000000000000000000000000000000000000000000000000000000000000000000000000000000000000000000000000000000000000000000000000000000000000000000000000000000000000000000000000000000000000003608f503d624b47779fba399a097e68bc35cdbd22fcf04e3d6b7a3bd8fa9b746",
        "nonce": "0x37d",
        "chainId": "0x2105"
      },
      "additionalContracts": [],
      "isFixedGasLimit": false
    },
    {
      "hash": "0xadb46b9123988ffc2a5f7f16b4e01512604e2d381ff6b947d054544757e48699",
      "transactionType": "CALL",
      "contractName": null,
      "contractAddress": "0xad473eaa51821c915d03d9db5349a0586d55e55e",
      "function": "createMatch(uint8,uint8,address,uint256,bytes32)",
      "arguments": [
        "1",
        "0",
        "0x0000000000000000000000000000000000000000",
        "0",
        "0x3608f503d624b47779fba399a097e68bc35cdbd22fcf04e3d6b7a3bd8fa9b746"
      ],
      "transaction": {
        "from": "0xe403f79171b7050c78479f52e49e753d43e72c1a",
        "to": "0xad473eaa51821c915d03d9db5349a0586d55e55e",
        "gas": "0x52a7d",
        "value": "0x0",
        "input": "0xea994fab00000000000000000000000000000000000000000000000000000000000000010000000000000000000000000000000000000000000000000000000000000000000000000000000000000000000000000000000000000000000000000000000000000000000000000000000000000000000000000000000000000000000000003608f503d624b47779fba399a097e68bc35cdbd22fcf04e3d6b7a3bd8fa9b746",
        "nonce": "0x37e",
        "chainId": "0x2105"
      },
      "additionalContracts": [],
      "isFixedGasLimit": false
    },
    {
      "hash": "0x9e4ba2425e94f56020e18a9950f7fe82b5ffb514efe96982776d4f015928046b",
      "transactionType": "CALL",
      "contractName": null,
      "contractAddress": "0xad473eaa51821c915d03d9db5349a0586d55e55e",
      "function": "createMatch(uint8,uint8,address,uint256,bytes32)",
      "arguments": [
        "1",
        "0",
        "0x0000000000000000000000000000000000000000",
        "0",
        "0x3608f503d624b47779fba399a097e68bc35cdbd22fcf04e3d6b7a3bd8fa9b746"
      ],
      "transaction": {
        "from": "0xe403f79171b7050c78479f52e49e753d43e72c1a",
        "to": "0xad473eaa51821c915d03d9db5349a0586d55e55e",
        "gas": "0x52a7d",
        "value": "0x0",
        "input": "0xea994fab00000000000000000000000000000000000000000000000000000000000000010000000000000000000000000000000000000000000000000000000000000000000000000000000000000000000000000000000000000000000000000000000000000000000000000000000000000000000000000000000000000000000000003608f503d624b47779fba399a097e68bc35cdbd22fcf04e3d6b7a3bd8fa9b746",
        "nonce": "0x37f",
        "chainId": "0x2105"
      },
      "additionalContracts": [],
      "isFixedGasLimit": false
    },
    {
      "hash": "0x2554c5442e331ecde2e58eac8e75cc420d1ec8d6a826cc299f5c8657efa5a670",
      "transactionType": "CALL",
      "contractName": null,
      "contractAddress": "0xad473eaa51821c915d03d9db5349a0586d55e55e",
      "function": "createMatch(uint8,uint8,address,uint256,bytes32)",
      "arguments": [
        "1",
        "0",
        "0x0000000000000000000000000000000000000000",
        "0",
        "0x3608f503d624b47779fba399a097e68bc35cdbd22fcf04e3d6b7a3bd8fa9b746"
      ],
      "transaction": {
        "from": "0xe403f79171b7050c78479f52e49e753d43e72c1a",
        "to": "0xad473eaa51821c915d03d9db5349a0586d55e55e",
        "gas": "0x52a7d",
        "value": "0x0",
        "input": "0xea994fab00000000000000000000000000000000000000000000000000000000000000010000000000000000000000000000000000000000000000000000000000000000000000000000000000000000000000000000000000000000000000000000000000000000000000000000000000000000000000000000000000000000000000003608f503d624b47779fba399a097e68bc35cdbd22fcf04e3d6b7a3bd8fa9b746",
        "nonce": "0x380",
        "chainId": "0x2105"
      },
      "additionalContracts": [],
      "isFixedGasLimit": false
    },
    {
      "hash": "0x1f48291316265174997ce61f759a9eb8493c7b63a4271699dc29889183925300",
      "transactionType": "CALL",
      "contractName": null,
      "contractAddress": "0xad473eaa51821c915d03d9db5349a0586d55e55e",
      "function": "createMatch(uint8,uint8,address,uint256,bytes32)",
      "arguments": [
        "1",
        "0",
        "0x0000000000000000000000000000000000000000",
        "0",
        "0x3608f503d624b47779fba399a097e68bc35cdbd22fcf04e3d6b7a3bd8fa9b746"
      ],
      "transaction": {
        "from": "0xe403f79171b7050c78479f52e49e753d43e72c1a",
        "to": "0xad473eaa51821c915d03d9db5349a0586d55e55e",
        "gas": "0x52a7d",
        "value": "0x0",
        "input": "0xea994fab00000000000000000000000000000000000000000000000000000000000000010000000000000000000000000000000000000000000000000000000000000000000000000000000000000000000000000000000000000000000000000000000000000000000000000000000000000000000000000000000000000000000000003608f503d624b47779fba399a097e68bc35cdbd22fcf04e3d6b7a3bd8fa9b746",
        "nonce": "0x381",
        "chainId": "0x2105"
      },
      "additionalContracts": [],
      "isFixedGasLimit": false
    },
    {
      "hash": "0xbea508e6536cf54af1b46425bc7b31abd794114d41ff446c225151af9a2bef95",
      "transactionType": "CALL",
      "contractName": null,
      "contractAddress": "0xad473eaa51821c915d03d9db5349a0586d55e55e",
      "function": "createMatch(uint8,uint8,address,uint256,bytes32)",
      "arguments": [
        "1",
        "0",
        "0x0000000000000000000000000000000000000000",
        "0",
        "0x3608f503d624b47779fba399a097e68bc35cdbd22fcf04e3d6b7a3bd8fa9b746"
      ],
      "transaction": {
        "from": "0xe403f79171b7050c78479f52e49e753d43e72c1a",
        "to": "0xad473eaa51821c915d03d9db5349a0586d55e55e",
        "gas": "0x52a7d",
        "value": "0x0",
        "input": "0xea994fab00000000000000000000000000000000000000000000000000000000000000010000000000000000000000000000000000000000000000000000000000000000000000000000000000000000000000000000000000000000000000000000000000000000000000000000000000000000000000000000000000000000000000003608f503d624b47779fba399a097e68bc35cdbd22fcf04e3d6b7a3bd8fa9b746",
        "nonce": "0x382",
        "chainId": "0x2105"
      },
      "additionalContracts": [],
      "isFixedGasLimit": false
    },
    {
      "hash": "0x8b93d94e2ee56cc2ef752cb50e6dbca9d805e9896ab8de6257519d4fd9f3c16a",
      "transactionType": "CALL",
      "contractName": null,
      "contractAddress": "0xad473eaa51821c915d03d9db5349a0586d55e55e",
      "function": "submitMove(uint256,bytes32,bytes)",
      "arguments": [
        "41",
        "0xe8773807ffd17108aa2d132cec684352f2c5c8337ff4659cc010d15b0551847d",
        "0x34240000"
      ],
      "transaction": {
        "from": "0xe403f79171b7050c78479f52e49e753d43e72c1a",
        "to": "0xad473eaa51821c915d03d9db5349a0586d55e55e",
        "gas": "0x1801c",
        "value": "0x0",
        "input": "0x73b07f890000000000000000000000000000000000000000000000000000000000000029e8773807ffd17108aa2d132cec684352f2c5c8337ff4659cc010d15b0551847d000000000000000000000000000000000000000000000000000000000000006000000000000000000000000000000000000000000000000000000000000000043424000000000000000000000000000000000000000000000000000000000000",
        "nonce": "0x383",
        "chainId": "0x2105"
      },
      "additionalContracts": [],
      "isFixedGasLimit": false
    },
    {
      "hash": "0xea44fb8b5388b996f29e36409f7e37bc745828d824966c2e83deeb07cee7ce28",
      "transactionType": "CALL",
      "contractName": null,
      "contractAddress": "0xad473eaa51821c915d03d9db5349a0586d55e55e",
      "function": "submitMove(uint256,bytes32,bytes)",
      "arguments": [
        "41",
        "0x0692c63251d62c8f04eed454cc75e5bc199ba842e6b8106095e5d806a5e48cfa",
        "0x33230000"
      ],
      "transaction": {
        "from": "0xe403f79171b7050c78479f52e49e753d43e72c1a",
        "to": "0xad473eaa51821c915d03d9db5349a0586d55e55e",
        "gas": "0x124c3",
        "value": "0x0",
        "input": "0x73b07f8900000000000000000000000000000000000000000000000000000000000000290692c63251d62c8f04eed454cc75e5bc199ba842e6b8106095e5d806a5e48cfa000000000000000000000000000000000000000000000000000000000000006000000000000000000000000000000000000000000000000000000000000000043323000000000000000000000000000000000000000000000000000000000000",
        "nonce": "0x384",
        "chainId": "0x2105"
      },
      "additionalContracts": [],
      "isFixedGasLimit": false
    },
    {
      "hash": "0x18af38cdd016d413ebcdb61e4e62cee6072ae71b32451c26f9bd8c66b828574d",
      "transactionType": "CALL",
      "contractName": null,
      "contractAddress": "0xad473eaa51821c915d03d9db5349a0586d55e55e",
      "function": "submitMove(uint256,bytes32,bytes)",
      "arguments": [
        "41",
        "0x4442d021ec118fea7ce3641d3375363801af2e92adb1272f726cf20292795a62",
        "0x392a0000"
      ],
      "transaction": {
        "from": "0xe403f79171b7050c78479f52e49e753d43e72c1a",
        "to": "0xad473eaa51821c915d03d9db5349a0586d55e55e",
        "gas": "0x124c3",
        "value": "0x0",
        "input": "0x73b07f8900000000000000000000000000000000000000000000000000000000000000294442d021ec118fea7ce3641d3375363801af2e92adb1272f726cf20292795a6200000000000000000000000000000000000000000000000000000000000000600000000000000000000000000000000000000000000000000000000000000004392a000000000000000000000000000000000000000000000000000000000000",
        "nonce": "0x385",
        "chainId": "0x2105"
      },
      "additionalContracts": [],
      "isFixedGasLimit": false
    },
    {
      "hash": "0x59de12102e71929a632e56e7d6b9488f3f3e95568c6da3bd7652cf4e97ba9edc",
      "transactionType": "CALL",
      "contractName": null,
      "contractAddress": "0xad473eaa51821c915d03d9db5349a0586d55e55e",
      "function": "submitMove(uint256,bytes32,bytes)",
      "arguments": [
        "41",
        "0xc7183fc0754b5e7da3b74bf364f8affe59ffdf73627f9b8e7d4991d4453bd364",
        "0x3b2c0000"
      ],
      "transaction": {
        "from": "0xe403f79171b7050c78479f52e49e753d43e72c1a",
        "to": "0xad473eaa51821c915d03d9db5349a0586d55e55e",
        "gas": "0x124c3",
        "value": "0x0",
        "input": "0x73b07f890000000000000000000000000000000000000000000000000000000000000029c7183fc0754b5e7da3b74bf364f8affe59ffdf73627f9b8e7d4991d4453bd364000000000000000000000000000000000000000000000000000000000000006000000000000000000000000000000000000000000000000000000000000000043b2c000000000000000000000000000000000000000000000000000000000000",
        "nonce": "0x386",
        "chainId": "0x2105"
      },
      "additionalContracts": [],
      "isFixedGasLimit": false
    },
    {
      "hash": "0x014edb979b56185a5d860c9283b0d8b3df493835a05b3b329cbfb80f1d68cbb9",
      "transactionType": "CALL",
      "contractName": null,
      "contractAddress": "0xad473eaa51821c915d03d9db5349a0586d55e55e",
      "function": "submitMove(uint256,bytes32,bytes)",
      "arguments": [
        "42",
        "0x90e396633e67bfb131a9c9b400ea842e0f29f45c4bc7872a0e80af48deb78504",
        "0x30280000"
      ],
      "transaction": {
        "from": "0xe403f79171b7050c78479f52e49e753d43e72c1a",
        "to": "0xad473eaa51821c915d03d9db5349a0586d55e55e",
        "gas": "0x196a2",
        "value": "0x0",
        "input": "0x73b07f89000000000000000000000000000000000000000000000000000000000000002a90e396633e67bfb131a9c9b400ea842e0f29f45c4bc7872a0e80af48deb78504000000000000000000000000000000000000000000000000000000000000006000000000000000000000000000000000000000000000000000000000000000043028000000000000000000000000000000000000000000000000000000000000",
        "nonce": "0x387",
        "chainId": "0x2105"
      },
      "additionalContracts": [],
      "isFixedGasLimit": false
    },
    {
      "hash": "0xd5b4f311cc3cda29eef12d648029b22bdf3befbcb003e8d8055362f081c83e10",
      "transactionType": "CALL",
      "contractName": null,
      "contractAddress": "0xad473eaa51821c915d03d9db5349a0586d55e55e",
      "function": "submitMove(uint256,bytes32,bytes)",
      "arguments": [
        "42",
        "0xfc6cc8976638831fc84ceab234894f532e0338e7268a3303d4c0c1939f85dbb9",
        "0x32220000"
      ],
      "transaction": {
        "from": "0xe403f79171b7050c78479f52e49e753d43e72c1a",
        "to": "0xad473eaa51821c915d03d9db5349a0586d55e55e",
        "gas": "0x124c3",
        "value": "0x0",
        "input": "0x73b07f89000000000000000000000000000000000000000000000000000000000000002afc6cc8976638831fc84ceab234894f532e0338e7268a3303d4c0c1939f85dbb9000000000000000000000000000000000000000000000000000000000000006000000000000000000000000000000000000000000000000000000000000000043222000000000000000000000000000000000000000000000000000000000000",
        "nonce": "0x388",
        "chainId": "0x2105"
      },
      "additionalContracts": [],
      "isFixedGasLimit": false
    },
    {
      "hash": "0x4bec8c8da56c21ffe3fc82a96c0a6aca90ab983f0f8295231370e5f8f2f8f8c5",
      "transactionType": "CALL",
      "contractName": null,
      "contractAddress": "0xad473eaa51821c915d03d9db5349a0586d55e55e",
      "function": "submitMove(uint256,bytes32,bytes)",
      "arguments": [
        "42",
        "0xbb9afb9861b8290cda948e4af3b636449a44547dca4c3acbc45e65f4e22aab40",
        "0x31290000"
      ],
      "transaction": {
        "from": "0xe403f79171b7050c78479f52e49e753d43e72c1a",
        "to": "0xad473eaa51821c915d03d9db5349a0586d55e55e",
        "gas": "0x124c3",
        "value": "0x0",
        "input": "0x73b07f89000000000000000000000000000000000000000000000000000000000000002abb9afb9861b8290cda948e4af3b636449a44547dca4c3acbc45e65f4e22aab40000000000000000000000000000000000000000000000000000000000000006000000000000000000000000000000000000000000000000000000000000000043129000000000000000000000000000000000000000000000000000000000000",
        "nonce": "0x389",
        "chainId": "0x2105"
      },
      "additionalContracts": [],
      "isFixedGasLimit": false
    },
    {
      "hash": "0x8ba34f297d25b6cfa995fee6b626e981fe1527aa61556d376bb476ede7f569c8",
      "transactionType": "CALL",
      "contractName": null,
      "contractAddress": "0xad473eaa51821c915d03d9db5349a0586d55e55e",
      "function": "submitMove(uint256,bytes32,bytes)",
      "arguments": [
        "42",
        "0x2a4b22ea265f7017c3f5040f1eec7d58baac29eda24dc699336157972973d8e1",
        "0x3a2b0000"
      ],
      "transaction": {
        "from": "0xe403f79171b7050c78479f52e49e753d43e72c1a",
        "to": "0xad473eaa51821c915d03d9db5349a0586d55e55e",
        "gas": "0x124c3",
        "value": "0x0",
        "input": "0x73b07f89000000000000000000000000000000000000000000000000000000000000002a2a4b22ea265f7017c3f5040f1eec7d58baac29eda24dc699336157972973d8e1000000000000000000000000000000000000000000000000000000000000006000000000000000000000000000000000000000000000000000000000000000043a2b000000000000000000000000000000000000000000000000000000000000",
        "nonce": "0x38a",
        "chainId": "0x2105"
      },
      "additionalContracts": [],
      "isFixedGasLimit": false
    },
    {
      "hash": "0x9a1d13341880c8a47818646de2c850718ab1a402b220e4c9cb6af640bf62f4b5",
      "transactionType": "CALL",
      "contractName": null,
      "contractAddress": "0xad473eaa51821c915d03d9db5349a0586d55e55e",
      "function": "submitMove(uint256,bytes32,bytes)",
      "arguments": [
        "43",
        "0xe8773807ffd17108aa2d132cec684352f2c5c8337ff4659cc010d15b0551847d",
        "0x34240000"
      ],
      "transaction": {
        "from": "0xe403f79171b7050c78479f52e49e753d43e72c1a",
        "to": "0xad473eaa51821c915d03d9db5349a0586d55e55e",
        "gas": "0x1801c",
        "value": "0x0",
        "input": "0x73b07f89000000000000000000000000000000000000000000000000000000000000002be8773807ffd17108aa2d132cec684352f2c5c8337ff4659cc010d15b0551847d000000000000000000000000000000000000000000000000000000000000006000000000000000000000000000000000000000000000000000000000000000043424000000000000000000000000000000000000000000000000000000000000",
        "nonce": "0x38b",
        "chainId": "0x2105"
      },
      "additionalContracts": [],
      "isFixedGasLimit": false
    },
    {
      "hash": "0x4a34f4e0ed30183d0611708c84daabd791efe70c05a9a62ccb3ba2b8a2fed1f9",
      "transactionType": "CALL",
      "contractName": null,
      "contractAddress": "0xad473eaa51821c915d03d9db5349a0586d55e55e",
      "function": "submitMove(uint256,bytes32,bytes)",
      "arguments": [
        "43",
        "0x0692c63251d62c8f04eed454cc75e5bc199ba842e6b8106095e5d806a5e48cfa",
        "0x33230000"
      ],
      "transaction": {
        "from": "0xe403f79171b7050c78479f52e49e753d43e72c1a",
        "to": "0xad473eaa51821c915d03d9db5349a0586d55e55e",
        "gas": "0x124c3",
        "value": "0x0",
        "input": "0x73b07f89000000000000000000000000000000000000000000000000000000000000002b0692c63251d62c8f04eed454cc75e5bc199ba842e6b8106095e5d806a5e48cfa000000000000000000000000000000000000000000000000000000000000006000000000000000000000000000000000000000000000000000000000000000043323000000000000000000000000000000000000000000000000000000000000",
        "nonce": "0x38c",
        "chainId": "0x2105"
      },
      "additionalContracts": [],
      "isFixedGasLimit": false
    },
    {
      "hash": "0x016815cca2b391881487f70a8f977105cf70c915259d4dd95d6e8858ee145d94",
      "transactionType": "CALL",
      "contractName": null,
      "contractAddress": "0xad473eaa51821c915d03d9db5349a0586d55e55e",
      "function": "submitMove(uint256,bytes32,bytes)",
      "arguments": [
        "43",
        "0x4442d021ec118fea7ce3641d3375363801af2e92adb1272f726cf20292795a62",
        "0x392a0000"
      ],
      "transaction": {
        "from": "0xe403f79171b7050c78479f52e49e753d43e72c1a",
        "to": "0xad473eaa51821c915d03d9db5349a0586d55e55e",
        "gas": "0x124c3",
        "value": "0x0",
        "input": "0x73b07f89000000000000000000000000000000000000000000000000000000000000002b4442d021ec118fea7ce3641d3375363801af2e92adb1272f726cf20292795a6200000000000000000000000000000000000000000000000000000000000000600000000000000000000000000000000000000000000000000000000000000004392a000000000000000000000000000000000000000000000000000000000000",
        "nonce": "0x38d",
        "chainId": "0x2105"
      },
      "additionalContracts": [],
      "isFixedGasLimit": false
    },
    {
      "hash": "0xf8b8bdae1af821ccedce3f12a4e8f26160ef797252cd7e20bf4ab94c0f446fc1",
      "transactionType": "CALL",
      "contractName": null,
      "contractAddress": "0xad473eaa51821c915d03d9db5349a0586d55e55e",
      "function": "submitMove(uint256,bytes32,bytes)",
      "arguments": [
        "43",
        "0xc7183fc0754b5e7da3b74bf364f8affe59ffdf73627f9b8e7d4991d4453bd364",
        "0x3b2c0000"
      ],
      "transaction": {
        "from": "0xe403f79171b7050c78479f52e49e753d43e72c1a",
        "to": "0xad473eaa51821c915d03d9db5349a0586d55e55e",
        "gas": "0x124c3",
        "value": "0x0",
        "input": "0x73b07f89000000000000000000000000000000000000000000000000000000000000002bc7183fc0754b5e7da3b74bf364f8affe59ffdf73627f9b8e7d4991d4453bd364000000000000000000000000000000000000000000000000000000000000006000000000000000000000000000000000000000000000000000000000000000043b2c000000000000000000000000000000000000000000000000000000000000",
        "nonce": "0x38e",
        "chainId": "0x2105"
      },
      "additionalContracts": [],
      "isFixedGasLimit": false
    },
    {
      "hash": "0x623382693ec8ffc68349228e33f54b2c832ce67e926ab91245099de3255b2f58",
      "transactionType": "CALL",
      "contractName": null,
      "contractAddress": "0xad473eaa51821c915d03d9db5349a0586d55e55e",
      "function": "submitMove(uint256,bytes32,bytes)",
      "arguments": [
        "44",
        "0x90e396633e67bfb131a9c9b400ea842e0f29f45c4bc7872a0e80af48deb78504",
        "0x30280000"
      ],
      "transaction": {
        "from": "0xe403f79171b7050c78479f52e49e753d43e72c1a",
        "to": "0xad473eaa51821c915d03d9db5349a0586d55e55e",
        "gas": "0x196a2",
        "value": "0x0",
        "input": "0x73b07f89000000000000000000000000000000000000000000000000000000000000002c90e396633e67bfb131a9c9b400ea842e0f29f45c4bc7872a0e80af48deb78504000000000000000000000000000000000000000000000000000000000000006000000000000000000000000000000000000000000000000000000000000000043028000000000000000000000000000000000000000000000000000000000000",
        "nonce": "0x38f",
        "chainId": "0x2105"
      },
      "additionalContracts": [],
      "isFixedGasLimit": false
    },
    {
      "hash": "0x40adcaab3c03f00241589474fc25b30ea349e3d8607ee951eae8107bbbc27eac",
      "transactionType": "CALL",
      "contractName": null,
      "contractAddress": "0xad473eaa51821c915d03d9db5349a0586d55e55e",
      "function": "submitMove(uint256,bytes32,bytes)",
      "arguments": [
        "44",
        "0xfc6cc8976638831fc84ceab234894f532e0338e7268a3303d4c0c1939f85dbb9",
        "0x32220000"
      ],
      "transaction": {
        "from": "0xe403f79171b7050c78479f52e49e753d43e72c1a",
        "to": "0xad473eaa51821c915d03d9db5349a0586d55e55e",
        "gas": "0x124c3",
        "value": "0x0",
        "input": "0x73b07f89000000000000000000000000000000000000000000000000000000000000002cfc6cc8976638831fc84ceab234894f532e0338e7268a3303d4c0c1939f85dbb9000000000000000000000000000000000000000000000000000000000000006000000000000000000000000000000000000000000000000000000000000000043222000000000000000000000000000000000000000000000000000000000000",
        "nonce": "0x390",
        "chainId": "0x2105"
      },
      "additionalContracts": [],
      "isFixedGasLimit": false
    },
    {
      "hash": "0x8a45c9200014225c367bba102b78beb9d5915fa535215f31bfc573a81cc18a02",
      "transactionType": "CALL",
      "contractName": null,
      "contractAddress": "0xad473eaa51821c915d03d9db5349a0586d55e55e",
      "function": "submitMove(uint256,bytes32,bytes)",
      "arguments": [
        "44",
        "0xbb9afb9861b8290cda948e4af3b636449a44547dca4c3acbc45e65f4e22aab40",
        "0x31290000"
      ],
      "transaction": {
        "from": "0xe403f79171b7050c78479f52e49e753d43e72c1a",
        "to": "0xad473eaa51821c915d03d9db5349a0586d55e55e",
        "gas": "0x124c3",
        "value": "0x0",
        "input": "0x73b07f89000000000000000000000000000000000000000000000000000000000000002cbb9afb9861b8290cda948e4af3b636449a44547dca4c3acbc45e65f4e22aab40000000000000000000000000000000000000000000000000000000000000006000000000000000000000000000000000000000000000000000000000000000043129000000000000000000000000000000000000000000000000000000000000",
        "nonce": "0x391",
        "chainId": "0x2105"
      },
      "additionalContracts": [],
      "isFixedGasLimit": false
    },
    {
      "hash": "0x686d34804094293a5d19d3764653749e493f5499be7821a0eff0af78826cd621",
      "transactionType": "CALL",
      "contractName": null,
      "contractAddress": "0xad473eaa51821c915d03d9db5349a0586d55e55e",
      "function": "submitMove(uint256,bytes32,bytes)",
      "arguments": [
        "44",
        "0x2a4b22ea265f7017c3f5040f1eec7d58baac29eda24dc699336157972973d8e1",
        "0x3a2b0000"
      ],
      "transaction": {
        "from": "0xe403f79171b7050c78479f52e49e753d43e72c1a",
        "to": "0xad473eaa51821c915d03d9db5349a0586d55e55e",
        "gas": "0x124c3",
        "value": "0x0",
        "input": "0x73b07f89000000000000000000000000000000000000000000000000000000000000002c2a4b22ea265f7017c3f5040f1eec7d58baac29eda24dc699336157972973d8e1000000000000000000000000000000000000000000000000000000000000006000000000000000000000000000000000000000000000000000000000000000043a2b000000000000000000000000000000000000000000000000000000000000",
        "nonce": "0x392",
        "chainId": "0x2105"
      },
      "additionalContracts": [],
      "isFixedGasLimit": false
    },
    {
      "hash": "0x6489917b0bc8efe4d68bdf67e9ff8bfda8622d1ceae80220a050c8c42d97d0f4",
      "transactionType": "CALL",
      "contractName": null,
      "contractAddress": "0xad473eaa51821c915d03d9db5349a0586d55e55e",
      "function": "submitMove(uint256,bytes32,bytes)",
      "arguments": [
        "45",
        "0xe8773807ffd17108aa2d132cec684352f2c5c8337ff4659cc010d15b0551847d",
        "0x34240000"
      ],
      "transaction": {
        "from": "0xe403f79171b7050c78479f52e49e753d43e72c1a",
        "to": "0xad473eaa51821c915d03d9db5349a0586d55e55e",
        "gas": "0x1801c",
        "value": "0x0",
        "input": "0x73b07f89000000000000000000000000000000000000000000000000000000000000002de8773807ffd17108aa2d132cec684352f2c5c8337ff4659cc010d15b0551847d000000000000000000000000000000000000000000000000000000000000006000000000000000000000000000000000000000000000000000000000000000043424000000000000000000000000000000000000000000000000000000000000",
        "nonce": "0x393",
        "chainId": "0x2105"
      },
      "additionalContracts": [],
      "isFixedGasLimit": false
    },
    {
      "hash": "0xa0207d5d04b1c1c7b566bcb927ac66f18c065178131c4ba6db9430b96b21e16f",
      "transactionType": "CALL",
      "contractName": null,
      "contractAddress": "0xad473eaa51821c915d03d9db5349a0586d55e55e",
      "function": "submitMove(uint256,bytes32,bytes)",
      "arguments": [
        "45",
        "0x0692c63251d62c8f04eed454cc75e5bc199ba842e6b8106095e5d806a5e48cfa",
        "0x33230000"
      ],
      "transaction": {
        "from": "0xe403f79171b7050c78479f52e49e753d43e72c1a",
        "to": "0xad473eaa51821c915d03d9db5349a0586d55e55e",
        "gas": "0x124c3",
        "value": "0x0",
        "input": "0x73b07f89000000000000000000000000000000000000000000000000000000000000002d0692c63251d62c8f04eed454cc75e5bc199ba842e6b8106095e5d806a5e48cfa000000000000000000000000000000000000000000000000000000000000006000000000000000000000000000000000000000000000000000000000000000043323000000000000000000000000000000000000000000000000000000000000",
        "nonce": "0x394",
        "chainId": "0x2105"
      },
      "additionalContracts": [],
      "isFixedGasLimit": false
    },
    {
      "hash": "0xefb7c8c4cbf3e3b0e87c1af2c5a969fdaa09a167400a3125e53ca9e60e144d99",
      "transactionType": "CALL",
      "contractName": null,
      "contractAddress": "0xad473eaa51821c915d03d9db5349a0586d55e55e",
      "function": "submitMove(uint256,bytes32,bytes)",
      "arguments": [
        "45",
        "0x4442d021ec118fea7ce3641d3375363801af2e92adb1272f726cf20292795a62",
        "0x392a0000"
      ],
      "transaction": {
        "from": "0xe403f79171b7050c78479f52e49e753d43e72c1a",
        "to": "0xad473eaa51821c915d03d9db5349a0586d55e55e",
        "gas": "0x124c3",
        "value": "0x0",
        "input": "0x73b07f89000000000000000000000000000000000000000000000000000000000000002d4442d021ec118fea7ce3641d3375363801af2e92adb1272f726cf20292795a6200000000000000000000000000000000000000000000000000000000000000600000000000000000000000000000000000000000000000000000000000000004392a000000000000000000000000000000000000000000000000000000000000",
        "nonce": "0x395",
        "chainId": "0x2105"
      },
      "additionalContracts": [],
      "isFixedGasLimit": false
    },
    {
      "hash": "0xaa6d8dc6b48e84e69c8cbb527f27f321e9b9de9c43c1f54972280257b37ba59d",
      "transactionType": "CALL",
      "contractName": null,
      "contractAddress": "0xad473eaa51821c915d03d9db5349a0586d55e55e",
      "function": "submitMove(uint256,bytes32,bytes)",
      "arguments": [
        "45",
        "0xc7183fc0754b5e7da3b74bf364f8affe59ffdf73627f9b8e7d4991d4453bd364",
        "0x3b2c0000"
      ],
      "transaction": {
        "from": "0xe403f79171b7050c78479f52e49e753d43e72c1a",
        "to": "0xad473eaa51821c915d03d9db5349a0586d55e55e",
        "gas": "0x124c3",
        "value": "0x0",
        "input": "0x73b07f89000000000000000000000000000000000000000000000000000000000000002dc7183fc0754b5e7da3b74bf364f8affe59ffdf73627f9b8e7d4991d4453bd364000000000000000000000000000000000000000000000000000000000000006000000000000000000000000000000000000000000000000000000000000000043b2c000000000000000000000000000000000000000000000000000000000000",
        "nonce": "0x396",
        "chainId": "0x2105"
      },
      "additionalContracts": [],
      "isFixedGasLimit": false
    },
    {
      "hash": "0xcd52242f962d2ef49a203e07ff3cf5b24740ea9db3b1acadea31f0072f1f9811",
      "transactionType": "CALL",
      "contractName": null,
      "contractAddress": "0xad473eaa51821c915d03d9db5349a0586d55e55e",
      "function": "submitMove(uint256,bytes32,bytes)",
      "arguments": [
        "46",
        "0x90e396633e67bfb131a9c9b400ea842e0f29f45c4bc7872a0e80af48deb78504",
        "0x30280000"
      ],
      "transaction": {
        "from": "0xe403f79171b7050c78479f52e49e753d43e72c1a",
        "to": "0xad473eaa51821c915d03d9db5349a0586d55e55e",
        "gas": "0x196a2",
        "value": "0x0",
        "input": "0x73b07f89000000000000000000000000000000000000000000000000000000000000002e90e396633e67bfb131a9c9b400ea842e0f29f45c4bc7872a0e80af48deb78504000000000000000000000000000000000000000000000000000000000000006000000000000000000000000000000000000000000000000000000000000000043028000000000000000000000000000000000000000000000000000000000000",
        "nonce": "0x397",
        "chainId": "0x2105"
      },
      "additionalContracts": [],
      "isFixedGasLimit": false
    },
    {
      "hash": "0x9a91fda368e067711f2307b26b17f35e68c534f8eb2cbef92f5159c8858c2605",
      "transactionType": "CALL",
      "contractName": null,
      "contractAddress": "0xad473eaa51821c915d03d9db5349a0586d55e55e",
      "function": "submitMove(uint256,bytes32,bytes)",
      "arguments": [
        "46",
        "0xfc6cc8976638831fc84ceab234894f532e0338e7268a3303d4c0c1939f85dbb9",
        "0x32220000"
      ],
      "transaction": {
        "from": "0xe403f79171b7050c78479f52e49e753d43e72c1a",
        "to": "0xad473eaa51821c915d03d9db5349a0586d55e55e",
        "gas": "0x124c3",
        "value": "0x0",
        "input": "0x73b07f89000000000000000000000000000000000000000000000000000000000000002efc6cc8976638831fc84ceab234894f532e0338e7268a3303d4c0c1939f85dbb9000000000000000000000000000000000000000000000000000000000000006000000000000000000000000000000000000000000000000000000000000000043222000000000000000000000000000000000000000000000000000000000000",
        "nonce": "0x398",
        "chainId": "0x2105"
      },
      "additionalContracts": [],
      "isFixedGasLimit": false
    },
    {
      "hash": "0xe27831338a5f218eb11154bc64adc771473375bd4fbe12d112ce47fd3c21d111",
      "transactionType": "CALL",
      "contractName": null,
      "contractAddress": "0xad473eaa51821c915d03d9db5349a0586d55e55e",
      "function": "submitMove(uint256,bytes32,bytes)",
      "arguments": [
        "46",
        "0xbb9afb9861b8290cda948e4af3b636449a44547dca4c3acbc45e65f4e22aab40",
        "0x31290000"
      ],
      "transaction": {
        "from": "0xe403f79171b7050c78479f52e49e753d43e72c1a",
        "to": "0xad473eaa51821c915d03d9db5349a0586d55e55e",
        "gas": "0x124c3",
        "value": "0x0",
        "input": "0x73b07f89000000000000000000000000000000000000000000000000000000000000002ebb9afb9861b8290cda948e4af3b636449a44547dca4c3acbc45e65f4e22aab40000000000000000000000000000000000000000000000000000000000000006000000000000000000000000000000000000000000000000000000000000000043129000000000000000000000000000000000000000000000000000000000000",
        "nonce": "0x399",
        "chainId": "0x2105"
      },
      "additionalContracts": [],
      "isFixedGasLimit": false
    },
    {
      "hash": "0xcb07bd455dda318714b616f216c845248ddaa123510a5b8bdc5c3ce2608594a3",
      "transactionType": "CALL",
      "contractName": null,
      "contractAddress": "0xad473eaa51821c915d03d9db5349a0586d55e55e",
      "function": "submitMove(uint256,bytes32,bytes)",
      "arguments": [
        "46",
        "0x2a4b22ea265f7017c3f5040f1eec7d58baac29eda24dc699336157972973d8e1",
        "0x3a2b0000"
      ],
      "transaction": {
        "from": "0xe403f79171b7050c78479f52e49e753d43e72c1a",
        "to": "0xad473eaa51821c915d03d9db5349a0586d55e55e",
        "gas": "0x124c3",
        "value": "0x0",
        "input": "0x73b07f89000000000000000000000000000000000000000000000000000000000000002e2a4b22ea265f7017c3f5040f1eec7d58baac29eda24dc699336157972973d8e1000000000000000000000000000000000000000000000000000000000000006000000000000000000000000000000000000000000000000000000000000000043a2b000000000000000000000000000000000000000000000000000000000000",
        "nonce": "0x39a",
        "chainId": "0x2105"
      },
      "additionalContracts": [],
      "isFixedGasLimit": false
    },
    {
      "hash": "0x0defe599b24d5a45f0d8e69f6da324743c1f1a673ae7703601433f20d59a7aa5",
      "transactionType": "CALL",
      "contractName": null,
      "contractAddress": "0xad473eaa51821c915d03d9db5349a0586d55e55e",
      "function": "submitMove(uint256,bytes32,bytes)",
      "arguments": [
        "47",
        "0xe8773807ffd17108aa2d132cec684352f2c5c8337ff4659cc010d15b0551847d",
        "0x34240000"
      ],
      "transaction": {
        "from": "0xe403f79171b7050c78479f52e49e753d43e72c1a",
        "to": "0xad473eaa51821c915d03d9db5349a0586d55e55e",
        "gas": "0x1801c",
        "value": "0x0",
        "input": "0x73b07f89000000000000000000000000000000000000000000000000000000000000002fe8773807ffd17108aa2d132cec684352f2c5c8337ff4659cc010d15b0551847d000000000000000000000000000000000000000000000000000000000000006000000000000000000000000000000000000000000000000000000000000000043424000000000000000000000000000000000000000000000000000000000000",
        "nonce": "0x39b",
        "chainId": "0x2105"
      },
      "additionalContracts": [],
      "isFixedGasLimit": false
    },
    {
      "hash": "0x0e8c63ebb6dc0e0a59e5e5727ec62efba895db1a4cd58c8ecf4f02209636e03a",
      "transactionType": "CALL",
      "contractName": null,
      "contractAddress": "0xad473eaa51821c915d03d9db5349a0586d55e55e",
      "function": "submitMove(uint256,bytes32,bytes)",
      "arguments": [
        "47",
        "0x0692c63251d62c8f04eed454cc75e5bc199ba842e6b8106095e5d806a5e48cfa",
        "0x33230000"
      ],
      "transaction": {
        "from": "0xe403f79171b7050c78479f52e49e753d43e72c1a",
        "to": "0xad473eaa51821c915d03d9db5349a0586d55e55e",
        "gas": "0x124c3",
        "value": "0x0",
        "input": "0x73b07f89000000000000000000000000000000000000000000000000000000000000002f0692c63251d62c8f04eed454cc75e5bc199ba842e6b8106095e5d806a5e48cfa000000000000000000000000000000000000000000000000000000000000006000000000000000000000000000000000000000000000000000000000000000043323000000000000000000000000000000000000000000000000000000000000",
        "nonce": "0x39c",
        "chainId": "0x2105"
      },
      "additionalContracts": [],
      "isFixedGasLimit": false
    },
    {
      "hash": "0x9802de4c3c3ce700b626b1b60b03352d0ac6862d1aead24f78462317cf2442aa",
      "transactionType": "CALL",
      "contractName": null,
      "contractAddress": "0xad473eaa51821c915d03d9db5349a0586d55e55e",
      "function": "submitMove(uint256,bytes32,bytes)",
      "arguments": [
        "47",
        "0x4442d021ec118fea7ce3641d3375363801af2e92adb1272f726cf20292795a62",
        "0x392a0000"
      ],
      "transaction": {
        "from": "0xe403f79171b7050c78479f52e49e753d43e72c1a",
        "to": "0xad473eaa51821c915d03d9db5349a0586d55e55e",
        "gas": "0x124c3",
        "value": "0x0",
        "input": "0x73b07f89000000000000000000000000000000000000000000000000000000000000002f4442d021ec118fea7ce3641d3375363801af2e92adb1272f726cf20292795a6200000000000000000000000000000000000000000000000000000000000000600000000000000000000000000000000000000000000000000000000000000004392a000000000000000000000000000000000000000000000000000000000000",
        "nonce": "0x39d",
        "chainId": "0x2105"
      },
      "additionalContracts": [],
      "isFixedGasLimit": false
    },
    {
      "hash": "0x8a5f76d9bd772c853d2136b51d1f8fcb4c5b4835337d47a757f54e46cb9db0c1",
      "transactionType": "CALL",
      "contractName": null,
      "contractAddress": "0xad473eaa51821c915d03d9db5349a0586d55e55e",
      "function": "submitMove(uint256,bytes32,bytes)",
      "arguments": [
        "47",
        "0xc7183fc0754b5e7da3b74bf364f8affe59ffdf73627f9b8e7d4991d4453bd364",
        "0x3b2c0000"
      ],
      "transaction": {
        "from": "0xe403f79171b7050c78479f52e49e753d43e72c1a",
        "to": "0xad473eaa51821c915d03d9db5349a0586d55e55e",
        "gas": "0x124c3",
        "value": "0x0",
        "input": "0x73b07f89000000000000000000000000000000000000000000000000000000000000002fc7183fc0754b5e7da3b74bf364f8affe59ffdf73627f9b8e7d4991d4453bd364000000000000000000000000000000000000000000000000000000000000006000000000000000000000000000000000000000000000000000000000000000043b2c000000000000000000000000000000000000000000000000000000000000",
        "nonce": "0x39e",
        "chainId": "0x2105"
      },
      "additionalContracts": [],
      "isFixedGasLimit": false
    },
    {
      "hash": "0x059c9cb4206be718f6ff9b81a8f8f6441e548d1242047b5a21829b7d4f4a6219",
      "transactionType": "CALL",
      "contractName": null,
      "contractAddress": "0xad473eaa51821c915d03d9db5349a0586d55e55e",
      "function": "submitMove(uint256,bytes32,bytes)",
      "arguments": [
        "48",
        "0x90e396633e67bfb131a9c9b400ea842e0f29f45c4bc7872a0e80af48deb78504",
        "0x30280000"
      ],
      "transaction": {
        "from": "0xe403f79171b7050c78479f52e49e753d43e72c1a",
        "to": "0xad473eaa51821c915d03d9db5349a0586d55e55e",
        "gas": "0x196a2",
        "value": "0x0",
        "input": "0x73b07f89000000000000000000000000000000000000000000000000000000000000003090e396633e67bfb131a9c9b400ea842e0f29f45c4bc7872a0e80af48deb78504000000000000000000000000000000000000000000000000000000000000006000000000000000000000000000000000000000000000000000000000000000043028000000000000000000000000000000000000000000000000000000000000",
        "nonce": "0x39f",
        "chainId": "0x2105"
      },
      "additionalContracts": [],
      "isFixedGasLimit": false
    },
    {
      "hash": "0xe3775c11e5edde68a7dcb78fa01cbbff67c6f18b9e4a7749bea9bb43363dac09",
      "transactionType": "CALL",
      "contractName": null,
      "contractAddress": "0xad473eaa51821c915d03d9db5349a0586d55e55e",
      "function": "submitMove(uint256,bytes32,bytes)",
      "arguments": [
        "48",
        "0xfc6cc8976638831fc84ceab234894f532e0338e7268a3303d4c0c1939f85dbb9",
        "0x32220000"
      ],
      "transaction": {
        "from": "0xe403f79171b7050c78479f52e49e753d43e72c1a",
        "to": "0xad473eaa51821c915d03d9db5349a0586d55e55e",
        "gas": "0x124c3",
        "value": "0x0",
        "input": "0x73b07f890000000000000000000000000000000000000000000000000000000000000030fc6cc8976638831fc84ceab234894f532e0338e7268a3303d4c0c1939f85dbb9000000000000000000000000000000000000000000000000000000000000006000000000000000000000000000000000000000000000000000000000000000043222000000000000000000000000000000000000000000000000000000000000",
        "nonce": "0x3a0",
        "chainId": "0x2105"
      },
      "additionalContracts": [],
      "isFixedGasLimit": false
    },
    {
      "hash": "0x26f7b57790e12d2da6221a525b81f230664c355ec99b1b66596efa35ab747360",
      "transactionType": "CALL",
      "contractName": null,
      "contractAddress": "0xad473eaa51821c915d03d9db5349a0586d55e55e",
      "function": "submitMove(uint256,bytes32,bytes)",
      "arguments": [
        "48",
        "0xbb9afb9861b8290cda948e4af3b636449a44547dca4c3acbc45e65f4e22aab40",
        "0x31290000"
      ],
      "transaction": {
        "from": "0xe403f79171b7050c78479f52e49e753d43e72c1a",
        "to": "0xad473eaa51821c915d03d9db5349a0586d55e55e",
        "gas": "0x124c3",
        "value": "0x0",
        "input": "0x73b07f890000000000000000000000000000000000000000000000000000000000000030bb9afb9861b8290cda948e4af3b636449a44547dca4c3acbc45e65f4e22aab40000000000000000000000000000000000000000000000000000000000000006000000000000000000000000000000000000000000000000000000000000000043129000000000000000000000000000000000000000000000000000000000000",
        "nonce": "0x3a1",
        "chainId": "0x2105"
      },
      "additionalContracts": [],
      "isFixedGasLimit": false
    },
    {
      "hash": "0x4355ad51b83aa5249c1e56fd2e090bfd6370c96b3eaa10080258e784c44ad58e",
      "transactionType": "CALL",
      "contractName": null,
      "contractAddress": "0xad473eaa51821c915d03d9db5349a0586d55e55e",
      "function": "submitMove(uint256,bytes32,bytes)",
      "arguments": [
        "48",
        "0x2a4b22ea265f7017c3f5040f1eec7d58baac29eda24dc699336157972973d8e1",
        "0x3a2b0000"
      ],
      "transaction": {
        "from": "0xe403f79171b7050c78479f52e49e753d43e72c1a",
        "to": "0xad473eaa51821c915d03d9db5349a0586d55e55e",
        "gas": "0x124c3",
        "value": "0x0",
        "input": "0x73b07f8900000000000000000000000000000000000000000000000000000000000000302a4b22ea265f7017c3f5040f1eec7d58baac29eda24dc699336157972973d8e1000000000000000000000000000000000000000000000000000000000000006000000000000000000000000000000000000000000000000000000000000000043a2b000000000000000000000000000000000000000000000000000000000000",
        "nonce": "0x3a2",
        "chainId": "0x2105"
      },
      "additionalContracts": [],
      "isFixedGasLimit": false
    }
  ],
  "receipts": [
    {
      "status": "0x1",
      "cumulativeGasUsed": "0x12f4859",
      "logs": [
        {
          "address": "0xad473eaa51821c915d03d9db5349a0586d55e55e",
          "topics": [
            "0xca1357e0f94306885a9813b6797ad5acadca27e6b5bccbde2640d84f319df31e",
            "0x0000000000000000000000000000000000000000000000000000000000000029"
          ],
          "data": "0x3608f503d624b47779fba399a097e68bc35cdbd22fcf04e3d6b7a3bd8fa9b7460000000000000000000000000000000000000000000000000000000000000000",
          "blockHash": "0x84cb53556afdf41428a01e69c4a1666ac2d469ce1149bc5f6b01353966fa2a51",
          "blockNumber": "0x26196f5",
          "blockTimestamp": "0x694d8acd",
          "transactionHash": "0x52aa2348aa687f1ffb05c239f0ae384f63579f157f18d23a77ea204316b6ca50",
          "transactionIndex": "0x4a",
          "logIndex": "0x155",
          "removed": false
        },
        {
          "address": "0xad473eaa51821c915d03d9db5349a0586d55e55e",
          "topics": [
            "0x94af2fbea15ff3140faa3f70571c806b44849899a559d3c9f306155e45de0416",
            "0x0000000000000000000000000000000000000000000000000000000000000029",
            "0x000000000000000000000000e403f79171b7050c78479f52e49e753d43e72c1a"
          ],
          "data": "0x000000000000000000000000000000000000000000000000000000000000000100000000000000000000000000000000000000000000000000000000000000000000000000000000000000000000000000000000000000000000000000000000",
          "blockHash": "0x84cb53556afdf41428a01e69c4a1666ac2d469ce1149bc5f6b01353966fa2a51",
          "blockNumber": "0x26196f5",
          "blockTimestamp": "0x694d8acd",
          "transactionHash": "0x52aa2348aa687f1ffb05c239f0ae384f63579f157f18d23a77ea204316b6ca50",
          "transactionIndex": "0x4a",
          "logIndex": "0x156",
          "removed": false
        }
      ],
      "logsBloom": "0x00000000000000000000000000008000000000000000000000000040000400000000000000000000000000000000000000000000000000000000000000000000000000000001000000000000000000000000000000000000000000000000000000000000000040000000000000000000000000000000000000200000000000000000000000000000000000000200000010002000000000040002000000000000000004000000000000000000000000000000000000000000000000000000000000000000000000000000000000000000000000000000000000000008000004000000000000000000000000000000000000000000000000800000000000000000",
      "type": "0x2",
      "transactionHash": "0x52aa2348aa687f1ffb05c239f0ae384f63579f157f18d23a77ea204316b6ca50",
      "transactionIndex": "0x4a",
      "blockHash": "0x84cb53556afdf41428a01e69c4a1666ac2d469ce1149bc5f6b01353966fa2a51",
      "blockNumber": "0x26196f5",
      "gasUsed": "0x3bd76",
      "effectiveGasPrice": "0xb638b",
      "blobGasUsed": "0x7ef4",
      "from": "0xe403f79171b7050c78479f52e49e753d43e72c1a",
      "to": "0xad473eaa51821c915d03d9db5349a0586d55e55e",
      "contractAddress": null,
      "daFootprintGasScalar": "0x145",
      "l1BaseFeeScalar": "0x8dd",
      "l1BlobBaseFee": "0x17792f",
      "l1BlobBaseFeeScalar": "0x101c12",
      "l1Fee": "0xf91b82c",
      "l1GasPrice": "0x19f3d9f",
      "l1GasUsed": "0x640"
    },
    {
      "status": "0x1",
      "cumulativeGasUsed": "0x13305cf",
      "logs": [
        {
          "address": "0xad473eaa51821c915d03d9db5349a0586d55e55e",
          "topics": [
            "0xca1357e0f94306885a9813b6797ad5acadca27e6b5bccbde2640d84f319df31e",
            "0x000000000000000000000000000000000000000000000000000000000000002a"
          ],
          "data": "0x3608f503d624b47779fba399a097e68bc35cdbd22fcf04e3d6b7a3bd8fa9b7460000000000000000000000000000000000000000000000000000000000000000",
          "blockHash": "0x84cb53556afdf41428a01e69c4a1666ac2d469ce1149bc5f6b01353966fa2a51",
          "blockNumber": "0x26196f5",
          "blockTimestamp": "0x694d8acd",
          "transactionHash": "0x5b7bb81c5c1f216698a36e7a0f778791e55cd2c926d82efa2f33a413ee0b003d",
          "transactionIndex": "0x4b",
          "logIndex": "0x157",
          "removed": false
        },
        {
          "address": "0xad473eaa51821c915d03d9db5349a0586d55e55e",
          "topics": [
            "0x94af2fbea15ff3140faa3f70571c806b44849899a559d3c9f306155e45de0416",
            "0x000000000000000000000000000000000000000000000000000000000000002a",
            "0x000000000000000000000000e403f79171b7050c78479f52e49e753d43e72c1a"
          ],
          "data": "0x000000000000000000000000000000000000000000000000000000000000000100000000000000000000000000000000000000000000000000000000000000000000000000000000000000000000000000000000000000000000000000000000",
          "blockHash": "0x84cb53556afdf41428a01e69c4a1666ac2d469ce1149bc5f6b01353966fa2a51",
          "blockNumber": "0x26196f5",
          "blockTimestamp": "0x694d8acd",
          "transactionHash": "0x5b7bb81c5c1f216698a36e7a0f778791e55cd2c926d82efa2f33a413ee0b003d",
          "transactionIndex": "0x4b",
          "logIndex": "0x158",
          "removed": false
        }
      ],
      "logsBloom": "0x00000000000000000000000000000000000000000000000000000040000400000000000000004000000000000000000000000000000000000000000000000000000000000001000000000000000000000000000000000000000000000000000000000000000000000000000000000000000000000000000000200000000000000000000000000000000000000200000000002000000000040002000000000000000004000000000000000000000000000000000000000000000000000000000000000000000000000000000000000000000000000000000000000008000004100000000000000000000000000020000000000000000000800000000000000000",
      "type": "0x2",
      "transactionHash": "0x5b7bb81c5c1f216698a36e7a0f778791e55cd2c926d82efa2f33a413ee0b003d",
      "transactionIndex": "0x4b",
      "blockHash": "0x84cb53556afdf41428a01e69c4a1666ac2d469ce1149bc5f6b01353966fa2a51",
      "blockNumber": "0x26196f5",
      "gasUsed": "0x3bd76",
      "effectiveGasPrice": "0xb638b",
      "blobGasUsed": "0x7ef4",
      "from": "0xe403f79171b7050c78479f52e49e753d43e72c1a",
      "to": "0xad473eaa51821c915d03d9db5349a0586d55e55e",
      "contractAddress": null,
      "daFootprintGasScalar": "0x145",
      "l1BaseFeeScalar": "0x8dd",
      "l1BlobBaseFee": "0x17792f",
      "l1BlobBaseFeeScalar": "0x101c12",
      "l1Fee": "0xf91b82c",
      "l1GasPrice": "0x19f3d9f",
      "l1GasUsed": "0x640"
    },
    {
      "status": "0x1",
      "cumulativeGasUsed": "0x136c345",
      "logs": [
        {
          "address": "0xad473eaa51821c915d03d9db5349a0586d55e55e",
          "topics": [
            "0xca1357e0f94306885a9813b6797ad5acadca27e6b5bccbde2640d84f319df31e",
            "0x000000000000000000000000000000000000000000000000000000000000002b"
          ],
          "data": "0x3608f503d624b47779fba399a097e68bc35cdbd22fcf04e3d6b7a3bd8fa9b7460000000000000000000000000000000000000000000000000000000000000000",
          "blockHash": "0x84cb53556afdf41428a01e69c4a1666ac2d469ce1149bc5f6b01353966fa2a51",
          "blockNumber": "0x26196f5",
          "blockTimestamp": "0x694d8acd",
          "transactionHash": "0xa431b548292b5f309e109c996084182ef11d552e9735318bd83ef2e1b0d1010b",
          "transactionIndex": "0x4c",
          "logIndex": "0x159",
          "removed": false
        },
        {
          "address": "0xad473eaa51821c915d03d9db5349a0586d55e55e",
          "topics": [
            "0x94af2fbea15ff3140faa3f70571c806b44849899a559d3c9f306155e45de0416",
            "0x000000000000000000000000000000000000000000000000000000000000002b",
            "0x000000000000000000000000e403f79171b7050c78479f52e49e753d43e72c1a"
          ],
          "data": "0x000000000000000000000000000000000000000000000000000000000000000100000000000000000000000000000000000000000000000000000000000000000000000000000000000000000000000000000000000000000000000000000000",
          "blockHash": "0x84cb53556afdf41428a01e69c4a1666ac2d469ce1149bc5f6b01353966fa2a51",
          "blockNumber": "0x26196f5",
          "blockTimestamp": "0x694d8acd",
          "transactionHash": "0xa431b548292b5f309e109c996084182ef11d552e9735318bd83ef2e1b0d1010b",
          "transactionIndex": "0x4c",
          "logIndex": "0x15a",
          "removed": false
        }
      ],
      "logsBloom": "0x00000000000000000000000000000000000000000000000000000040000400000000000000000000000000000000000000000000000001000000000000000000000000000001000000800000000000000000000000000000000000000000000000000000000000000000000000000000000000000000000000200000000000000000000000000000000000000200000000002000000000040002000000000000000004000000000000000000000000000000000000000000000000000000000000000000000000100000000000000000000000000000000000000008000004000000000000000000000000000000000000000000000000800000000000000000",
      "type": "0x2",
      "transactionHash": "0xa431b548292b5f309e109c996084182ef11d552e9735318bd83ef2e1b0d1010b",
      "transactionIndex": "0x4c",
      "blockHash": "0x84cb53556afdf41428a01e69c4a1666ac2d469ce1149bc5f6b01353966fa2a51",
      "blockNumber": "0x26196f5",
      "gasUsed": "0x3bd76",
      "effectiveGasPrice": "0xb638b",
      "blobGasUsed": "0x7ef4",
      "from": "0xe403f79171b7050c78479f52e49e753d43e72c1a",
      "to": "0xad473eaa51821c915d03d9db5349a0586d55e55e",
      "contractAddress": null,
      "daFootprintGasScalar": "0x145",
      "l1BaseFeeScalar": "0x8dd",
      "l1BlobBaseFee": "0x17792f",
      "l1BlobBaseFeeScalar": "0x101c12",
      "l1Fee": "0xf91b82c",
      "l1GasPrice": "0x19f3d9f",
      "l1GasUsed": "0x640"
    },
    {
      "status": "0x1",
      "cumulativeGasUsed": "0x13a80bb",
      "logs": [
        {
          "address": "0xad473eaa51821c915d03d9db5349a0586d55e55e",
          "topics": [
            "0xca1357e0f94306885a9813b6797ad5acadca27e6b5bccbde2640d84f319df31e",
            "0x000000000000000000000000000000000000000000000000000000000000002c"
          ],
          "data": "0x3608f503d624b47779fba399a097e68bc35cdbd22fcf04e3d6b7a3bd8fa9b7460000000000000000000000000000000000000000000000000000000000000000",
          "blockHash": "0x84cb53556afdf41428a01e69c4a1666ac2d469ce1149bc5f6b01353966fa2a51",
          "blockNumber": "0x26196f5",
          "blockTimestamp": "0x694d8acd",
          "transactionHash": "0xadb46b9123988ffc2a5f7f16b4e01512604e2d381ff6b947d054544757e48699",
          "transactionIndex": "0x4d",
          "logIndex": "0x15b",
          "removed": false
        },
        {
          "address": "0xad473eaa51821c915d03d9db5349a0586d55e55e",
          "topics": [
            "0x94af2fbea15ff3140faa3f70571c806b44849899a559d3c9f306155e45de0416",
            "0x000000000000000000000000000000000000000000000000000000000000002c",
            "0x000000000000000000000000e403f79171b7050c78479f52e49e753d43e72c1a"
          ],
          "data": "0x000000000000000000000000000000000000000000000000000000000000000100000000000000000000000000000000000000000000000000000000000000000000000000000000000000000000000000000000000000000000000000000000",
          "blockHash": "0x84cb53556afdf41428a01e69c4a1666ac2d469ce1149bc5f6b01353966fa2a51",
          "blockNumber": "0x26196f5",
          "blockTimestamp": "0x694d8acd",
          "transactionHash": "0xadb46b9123988ffc2a5f7f16b4e01512604e2d381ff6b947d054544757e48699",
          "transactionIndex": "0x4d",
          "logIndex": "0x15c",
          "removed": false
        }
      ],
      "logsBloom": "0x00000000000000000000000000000000000000000000000000000040000400000000000000000000000000000000000000000000000000000000000000000000000000000001000000000000000000000000000000000000000000000000000000000000000000000000000100000000000000000000000000200000004000000000000000000000000000000200000000002000000000040002000000000000000004000000000000000000000000000000000000000000000000000000000000000000000000000000000000000000000000000000000800000008000004000000000000000000000000000000000000000000000000800000000000000000",
      "type": "0x2",
      "transactionHash": "0xadb46b9123988ffc2a5f7f16b4e01512604e2d381ff6b947d054544757e48699",
      "transactionIndex": "0x4d",
      "blockHash": "0x84cb53556afdf41428a01e69c4a1666ac2d469ce1149bc5f6b01353966fa2a51",
      "blockNumber": "0x26196f5",
      "gasUsed": "0x3bd76",
      "effectiveGasPrice": "0xb638b",
      "blobGasUsed": "0x7ef4",
      "from": "0xe403f79171b7050c78479f52e49e753d43e72c1a",
      "to": "0xad473eaa51821c915d03d9db5349a0586d55e55e",
      "contractAddress": null,
      "daFootprintGasScalar": "0x145",
      "l1BaseFeeScalar": "0x8dd",
      "l1BlobBaseFee": "0x17792f",
      "l1BlobBaseFeeScalar": "0x101c12",
      "l1Fee": "0xf91b82c",
      "l1GasPrice": "0x19f3d9f",
      "l1GasUsed": "0x640"
    },
    {
      "status": "0x1",
      "cumulativeGasUsed": "0x13e3e31",
      "logs": [
        {
          "address": "0xad473eaa51821c915d03d9db5349a0586d55e55e",
          "topics": [
            "0xca1357e0f94306885a9813b6797ad5acadca27e6b5bccbde2640d84f319df31e",
            "0x000000000000000000000000000000000000000000000000000000000000002d"
          ],
          "data": "0x3608f503d624b47779fba399a097e68bc35cdbd22fcf04e3d6b7a3bd8fa9b7460000000000000000000000000000000000000000000000000000000000000000",
          "blockHash": "0x84cb53556afdf41428a01e69c4a1666ac2d469ce1149bc5f6b01353966fa2a51",
          "blockNumber": "0x26196f5",
          "blockTimestamp": "0x694d8acd",
          "transactionHash": "0x9e4ba2425e94f56020e18a9950f7fe82b5ffb514efe96982776d4f015928046b",
          "transactionIndex": "0x4e",
          "logIndex": "0x15d",
          "removed": false
        },
        {
          "address": "0xad473eaa51821c915d03d9db5349a0586d55e55e",
          "topics": [
            "0x94af2fbea15ff3140faa3f70571c806b44849899a559d3c9f306155e45de0416",
            "0x000000000000000000000000000000000000000000000000000000000000002d",
            "0x000000000000000000000000e403f79171b7050c78479f52e49e753d43e72c1a"
          ],
          "data": "0x000000000000000000000000000000000000000000000000000000000000000100000000000000000000000000000000000000000000000000000000000000000000000000000000000000000000000000000000000000000000000000000000",
          "blockHash": "0x84cb53556afdf41428a01e69c4a1666ac2d469ce1149bc5f6b01353966fa2a51",
          "blockNumber": "0x26196f5",
          "blockTimestamp": "0x694d8acd",
          "transactionHash": "0x9e4ba2425e94f56020e18a9950f7fe82b5ffb514efe96982776d4f015928046b",
          "transactionIndex": "0x4e",
          "logIndex": "0x15e",
          "removed": false
        }
      ],
      "logsBloom": "0x00000000000000000000000000000000000000000000000000000040000400000000000000000000000000000000000000000000000000000000000400000000000000000001000000000000000000000000000000000000000000000000000000000000000000000000000000000000000000000000000000200000000000000000000000000000000000000200000000002000000000040002000000000000000004000000000000000000000000000000000000000000000010000000000000000000000000000000000000000000000000000000000000000008400004000000000000000000000000000000000000000000000000800000000000000000",
      "type": "0x2",
      "transactionHash": "0x9e4ba2425e94f56020e18a9950f7fe82b5ffb514efe96982776d4f015928046b",
      "transactionIndex": "0x4e",
      "blockHash": "0x84cb53556afdf41428a01e69c4a1666ac2d469ce1149bc5f6b01353966fa2a51",
      "blockNumber": "0x26196f5",
      "gasUsed": "0x3bd76",
      "effectiveGasPrice": "0xb638b",
      "blobGasUsed": "0x7ef4",
      "from": "0xe403f79171b7050c78479f52e49e753d43e72c1a",
      "to": "0xad473eaa51821c915d03d9db5349a0586d55e55e",
      "contractAddress": null,
      "daFootprintGasScalar": "0x145",
      "l1BaseFeeScalar": "0x8dd",
      "l1BlobBaseFee": "0x17792f",
      "l1BlobBaseFeeScalar": "0x101c12",
      "l1Fee": "0xf91b82c",
      "l1GasPrice": "0x19f3d9f",
      "l1GasUsed": "0x640"
    },
    {
      "status": "0x1",
      "cumulativeGasUsed": "0x141fba7",
      "logs": [
        {
          "address": "0xad473eaa51821c915d03d9db5349a0586d55e55e",
          "topics": [
            "0xca1357e0f94306885a9813b6797ad5acadca27e6b5bccbde2640d84f319df31e",
            "0x000000000000000000000000000000000000000000000000000000000000002e"
          ],
          "data": "0x3608f503d624b47779fba399a097e68bc35cdbd22fcf04e3d6b7a3bd8fa9b7460000000000000000000000000000000000000000000000000000000000000000",
          "blockHash": "0x84cb53556afdf41428a01e69c4a1666ac2d469ce1149bc5f6b01353966fa2a51",
          "blockNumber": "0x26196f5",
          "blockTimestamp": "0x694d8acd",
          "transactionHash": "0x2554c5442e331ecde2e58eac8e75cc420d1ec8d6a826cc299f5c8657efa5a670",
          "transactionIndex": "0x4f",
          "logIndex": "0x15f",
          "removed": false
        },
        {
          "address": "0xad473eaa51821c915d03d9db5349a0586d55e55e",
          "topics": [
            "0x94af2fbea15ff3140faa3f70571c806b44849899a559d3c9f306155e45de0416",
            "0x000000000000000000000000000000000000000000000000000000000000002e",
            "0x000000000000000000000000e403f79171b7050c78479f52e49e753d43e72c1a"
          ],
          "data": "0x000000000000000000000000000000000000000000000000000000000000000100000000000000000000000000000000000000000000000000000000000000000000000000000000000000000000000000000000000000000000000000000000",
          "blockHash": "0x84cb53556afdf41428a01e69c4a1666ac2d469ce1149bc5f6b01353966fa2a51",
          "blockNumber": "0x26196f5",
          "blockTimestamp": "0x694d8acd",
          "transactionHash": "0x2554c5442e331ecde2e58eac8e75cc420d1ec8d6a826cc299f5c8657efa5a670",
          "transactionIndex": "0x4f",
          "logIndex": "0x160",
          "removed": false
        }
      ],
      "logsBloom": "0x04000000000000000000000000000000000000000000000000000040000400000000000000000000000000000000000000001000000000000000000000000000000000000001000080000000000000000000000000000000000000000000000000000000000000000000000000000000000000000000000000200000000000000000000000000000000000000200000000002000000000040002000000000000000004000000000000000000000000000000000000000000000000000000000000000000000000000000000000000000000000000000000000000008000004000000000000000000000000000000000000000000000000800000000000000000",
      "type": "0x2",
      "transactionHash": "0x2554c5442e331ecde2e58eac8e75cc420d1ec8d6a826cc299f5c8657efa5a670",
      "transactionIndex": "0x4f",
      "blockHash": "0x84cb53556afdf41428a01e69c4a1666ac2d469ce1149bc5f6b01353966fa2a51",
      "blockNumber": "0x26196f5",
      "gasUsed": "0x3bd76",
      "effectiveGasPrice": "0xb638b",
      "blobGasUsed": "0x7ef4",
      "from": "0xe403f79171b7050c78479f52e49e753d43e72c1a",
      "to": "0xad473eaa51821c915d03d9db5349a0586d55e55e",
      "contractAddress": null,
      "daFootprintGasScalar": "0x145",
      "l1BaseFeeScalar": "0x8dd",
      "l1BlobBaseFee": "0x17792f",
      "l1BlobBaseFeeScalar": "0x101c12",
      "l1Fee": "0xf91b82c",
      "l1GasPrice": "0x19f3d9f",
      "l1GasUsed": "0x640"
    },
    {
      "status": "0x1",
      "cumulativeGasUsed": "0x145b91d",
      "logs": [
        {
          "address": "0xad473eaa51821c915d03d9db5349a0586d55e55e",
          "topics": [
            "0xca1357e0f94306885a9813b6797ad5acadca27e6b5bccbde2640d84f319df31e",
            "0x000000000000000000000000000000000000000000000000000000000000002f"
          ],
          "data": "0x3608f503d624b47779fba399a097e68bc35cdbd22fcf04e3d6b7a3bd8fa9b7460000000000000000000000000000000000000000000000000000000000000000",
          "blockHash": "0x84cb53556afdf41428a01e69c4a1666ac2d469ce1149bc5f6b01353966fa2a51",
          "blockNumber": "0x26196f5",
          "blockTimestamp": "0x694d8acd",
          "transactionHash": "0x1f48291316265174997ce61f759a9eb8493c7b63a4271699dc29889183925300",
          "transactionIndex": "0x50",
          "logIndex": "0x161",
          "removed": false
        },
        {
          "address": "0xad473eaa51821c915d03d9db5349a0586d55e55e",
          "topics": [
            "0x94af2fbea15ff3140faa3f70571c806b44849899a559d3c9f306155e45de0416",
            "0x000000000000000000000000000000000000000000000000000000000000002f",
            "0x000000000000000000000000e403f79171b7050c78479f52e49e753d43e72c1a"
          ],
          "data": "0x000000000000000000000000000000000000000000000000000000000000000100000000000000000000000000000000000000000000000000000000000000000000000000000000000000000000000000000000000000000000000000000000",
          "blockHash": "0x84cb53556afdf41428a01e69c4a1666ac2d469ce1149bc5f6b01353966fa2a51",
          "blockNumber": "0x26196f5",
          "blockTimestamp": "0x694d8acd",
          "transactionHash": "0x1f48291316265174997ce61f759a9eb8493c7b63a4271699dc29889183925300",
          "transactionIndex": "0x50",
          "logIndex": "0x162",
          "removed": false
        }
      ],
      "logsBloom": "0x00000000000000000000000000000000000080000000000000000040000400000000000000000000000000000000000000000000000000000000000000000000000000000001000000000000000000000000000000000000000000000000000000000000000000000000000000000000000000000000000000200000000000000000000000000000000000000200000000002000000000040002000000000000000004000000000000000000000000000000000000000000000000000000000000000000000000000000000000000000000000000000000000000008000004000000000000000000000000000000000000000000000004800000000000080000",
      "type": "0x2",
      "transactionHash": "0x1f48291316265174997ce61f759a9eb8493c7b63a4271699dc29889183925300",
      "transactionIndex": "0x50",
      "blockHash": "0x84cb53556afdf41428a01e69c4a1666ac2d469ce1149bc5f6b01353966fa2a51",
      "blockNumber": "0x26196f5",
      "gasUsed": "0x3bd76",
      "effectiveGasPrice": "0xb638b",
      "blobGasUsed": "0x7ef4",
      "from": "0xe403f79171b7050c78479f52e49e753d43e72c1a",
      "to": "0xad473eaa51821c915d03d9db5349a0586d55e55e",
      "contractAddress": null,
      "daFootprintGasScalar": "0x145",
      "l1BaseFeeScalar": "0x8dd",
      "l1BlobBaseFee": "0x17792f",
      "l1BlobBaseFeeScalar": "0x101c12",
      "l1Fee": "0xf91b82c",
      "l1GasPrice": "0x19f3d9f",
      "l1GasUsed": "0x640"
    },
    {
      "status": "0x1",
      "cumulativeGasUsed": "0x150efc6",
      "logs": [
        {
          "address": "0xad473eaa51821c915d03d9db5349a0586d55e55e",
          "topics": [
            "0xca1357e0f94306885a9813b6797ad5acadca27e6b5bccbde2640d84f319df31e",
            "0x0000000000000000000000000000000000000000000000000000000000000030"
          ],
          "data": "0x3608f503d624b47779fba399a097e68bc35cdbd22fcf04e3d6b7a3bd8fa9b7460000000000000000000000000000000000000000000000000000000000000000",
          "blockHash": "0x84cb53556afdf41428a01e69c4a1666ac2d469ce1149bc5f6b01353966fa2a51",
          "blockNumber": "0x26196f5",
          "blockTimestamp": "0x694d8acd",
          "transactionHash": "0xbea508e6536cf54af1b46425bc7b31abd794114d41ff446c225151af9a2bef95",
          "transactionIndex": "0x52",
          "logIndex": "0x174",
          "removed": false
        },
        {
          "address": "0xad473eaa51821c915d03d9db5349a0586d55e55e",
          "topics": [
            "0x94af2fbea15ff3140faa3f70571c806b44849899a559d3c9f306155e45de0416",
            "0x0000000000000000000000000000000000000000000000000000000000000030",
            "0x000000000000000000000000e403f79171b7050c78479f52e49e753d43e72c1a"
          ],
          "data": "0x000000000000000000000000000000000000000000000000000000000000000100000000000000000000000000000000000000000000000000000000000000000000000000000000000000000000000000000000000000000000000000000000",
          "blockHash": "0x84cb53556afdf41428a01e69c4a1666ac2d469ce1149bc5f6b01353966fa2a51",
          "blockNumber": "0x26196f5",
          "blockTimestamp": "0x694d8acd",
          "transactionHash": "0xbea508e6536cf54af1b46425bc7b31abd794114d41ff446c225151af9a2bef95",
          "transactionIndex": "0x52",
          "logIndex": "0x175",
          "removed": false
        }
      ],
      "logsBloom": "0x02000000000000000000000000000000000000000000000000000040000400000000000000000000000000000000000000000000000000000000000000000000000000000001000000000000000000000000000000000000000000000000000000000000000000000000000000000000000000000000000000200000000000000000000000000000000000000200000000002000000000040002000000000000000004000000000000000000000000000000000002000000000000000000000000000000000000000000000000000000000000000000000000000008000024000000000000000000000000000000000000000000000000800000000000000000",
      "type": "0x2",
      "transactionHash": "0xbea508e6536cf54af1b46425bc7b31abd794114d41ff446c225151af9a2bef95",
      "transactionIndex": "0x52",
      "blockHash": "0x84cb53556afdf41428a01e69c4a1666ac2d469ce1149bc5f6b01353966fa2a51",
      "blockNumber": "0x26196f5",
      "gasUsed": "0x3bd76",
      "effectiveGasPrice": "0xb638b",
      "blobGasUsed": "0x7ef4",
      "from": "0xe403f79171b7050c78479f52e49e753d43e72c1a",
      "to": "0xad473eaa51821c915d03d9db5349a0586d55e55e",
      "contractAddress": null,
      "daFootprintGasScalar": "0x145",
      "l1BaseFeeScalar": "0x8dd",
      "l1BlobBaseFee": "0x17792f",
      "l1BlobBaseFeeScalar": "0x101c12",
      "l1Fee": "0xf91b82c",
      "l1GasPrice": "0x19f3d9f",
      "l1GasUsed": "0x640"
    },
    {
      "status": "0x1",
      "cumulativeGasUsed": "0x1dae0f7",
      "logs": [
        {
          "address": "0xad473eaa51821c915d03d9db5349a0586d55e55e",
          "topics": [
            "0x36e13ba1e45df3ecb8f6beb6274a1f5d4abf4c0792bb56700354f0d50bf0acd7",
            "0x0000000000000000000000000000000000000000000000000000000000000029",
            "0x000000000000000000000000e403f79171b7050c78479f52e49e753d43e72c1a"
          ],
          "data": "0xe8773807ffd17108aa2d132cec684352f2c5c8337ff4659cc010d15b0551847d0000000000000000000000000000000000000000000000000000000000000001000000000000000000000000000000000000000000000000000000000000006000000000000000000000000000000000000000000000000000000000000000043424000000000000000000000000000000000000000000000000000000000000",
          "blockHash": "0xf42145905f60d9ae731bb372dbcddd08aa768f60d47730fe710806577227307c",
          "blockNumber": "0x26196f5",
          "blockTimestamp": "0x694d8acd",
          "transactionHash": "0x8b93d94e2ee56cc2ef752cb50e6dbca9d805e9896ab8de6257519d4fd9f3c16a",
          "transactionIndex": "0x8d",
          "logIndex": "0x202",
          "removed": false
        },
        {
          "address": "0xad473eaa51821c915d03d9db5349a0586d55e55e",
          "topics": [
            "0x36e13ba1e45df3ecb8f6beb6274a1f5d4abf4c0792bb56700354f0d50bf0acd7",
            "0x0000000000000000000000000000000000000000000000000000000000000029",
            "0x000000000000000000000000ad473eaa51821c915d03d9db5349a0586d55e55e"
          ],
          "data": "0xf4bb36a023d03b095a88119a20a9000a252aea11d80408b3bd0c6bade87b4ba70000000000000000000000000000000000000000000000000000000000000002000000000000000000000000000000000000000000000000000000000000006000000000000000000000000000000000000000000000000000000000000000043424000000000000000000000000000000000000000000000000000000000000",
          "blockHash": "0xf42145905f60d9ae731bb372dbcddd08aa768f60d47730fe710806577227307c",
          "blockNumber": "0x26196f5",
          "blockTimestamp": "0x694d8acd",
          "transactionHash": "0x8b93d94e2ee56cc2ef752cb50e6dbca9d805e9896ab8de6257519d4fd9f3c16a",
          "transactionIndex": "0x8d",
          "logIndex": "0x203",
          "removed": false
        }
      ],
      "logsBloom": "0x00000000000000000000000000008000000000000000000000000000000400000000000000000000000000000000000000000000000000000000000000000000000000000000000000000000000000000000000010000000000000000000000000000000000040000000000000000040000000000400000000000000000000000000000000000000000000000200000010000000000000040002000000000000000004000000000000000000000000000000000000000000000000004000000000000000000000000000000000400000000000000000000000000000000800000000000000000000000000000000000000000000000000800000000000000000",
      "type": "0x2",
      "transactionHash": "0x8b93d94e2ee56cc2ef752cb50e6dbca9d805e9896ab8de6257519d4fd9f3c16a",
      "transactionIndex": "0x8d",
      "blockHash": "0xf42145905f60d9ae731bb372dbcddd08aa768f60d47730fe710806577227307c",
      "blockNumber": "0x26196f5",
      "gasUsed": "0x11617",
      "effectiveGasPrice": "0xb638b",
      "blobGasUsed": "0x8a61",
      "from": "0xe403f79171b7050c78479f52e49e753d43e72c1a",
      "to": "0xad473eaa51821c915d03d9db5349a0586d55e55e",
      "contractAddress": null,
      "daFootprintGasScalar": "0x145",
      "l1BaseFeeScalar": "0x8dd",
      "l1BlobBaseFee": "0x17792f",
      "l1BlobBaseFeeScalar": "0x101c12",
      "l1Fee": "0x249bb7be",
      "l1GasPrice": "0x19f3d9f",
      "l1GasUsed": "0x6da"
    },
    {
      "status": "0x1",
      "cumulativeGasUsed": "0x1dbb4ec",
      "logs": [
        {
          "address": "0xad473eaa51821c915d03d9db5349a0586d55e55e",
          "topics": [
            "0x36e13ba1e45df3ecb8f6beb6274a1f5d4abf4c0792bb56700354f0d50bf0acd7",
            "0x0000000000000000000000000000000000000000000000000000000000000029",
            "0x000000000000000000000000e403f79171b7050c78479f52e49e753d43e72c1a"
          ],
          "data": "0x0692c63251d62c8f04eed454cc75e5bc199ba842e6b8106095e5d806a5e48cfa0000000000000000000000000000000000000000000000000000000000000003000000000000000000000000000000000000000000000000000000000000006000000000000000000000000000000000000000000000000000000000000000043323000000000000000000000000000000000000000000000000000000000000",
          "blockHash": "0xf42145905f60d9ae731bb372dbcddd08aa768f60d47730fe710806577227307c",
          "blockNumber": "0x26196f5",
          "blockTimestamp": "0x694d8acd",
          "transactionHash": "0xea44fb8b5388b996f29e36409f7e37bc745828d824966c2e83deeb07cee7ce28",
          "transactionIndex": "0x8e",
          "logIndex": "0x204",
          "removed": false
        },
        {
          "address": "0xad473eaa51821c915d03d9db5349a0586d55e55e",
          "topics": [
            "0x36e13ba1e45df3ecb8f6beb6274a1f5d4abf4c0792bb56700354f0d50bf0acd7",
            "0x0000000000000000000000000000000000000000000000000000000000000029",
            "0x000000000000000000000000ad473eaa51821c915d03d9db5349a0586d55e55e"
          ],
          "data": "0x80db663b91d50261d3b6cf7c40f14617bc570551fdc50ae5d379aac6ea1fb5d50000000000000000000000000000000000000000000000000000000000000004000000000000000000000000000000000000000000000000000000000000006000000000000000000000000000000000000000000000000000000000000000043d0c000000000000000000000000000000000000000000000000000000000000",
          "blockHash": "0xf42145905f60d9ae731bb372dbcddd08aa768f60d47730fe710806577227307c",
          "blockNumber": "0x26196f5",
          "blockTimestamp": "0x694d8acd",
          "transactionHash": "0xea44fb8b5388b996f29e36409f7e37bc745828d824966c2e83deeb07cee7ce28",
          "transactionIndex": "0x8e",
          "logIndex": "0x205",
          "removed": false
        }
      ],
      "logsBloom": "0x00000000000000000000000000008000000000000000000000000000000400000000000000000000000000000000000000000000000000000000000000000000000000000000000000000000000000000000000010000000000000000000000000000000000040000000000000000040000000000400000000000000000000000000000000000000000000000200000010000000000000040002000000000000000004000000000000000000000000000000000000000000000000004000000000000000000000000000000000400000000000000000000000000000000800000000000000000000000000000000000000000000000000800000000000000000",
      "type": "0x2",
      "transactionHash": "0xea44fb8b5388b996f29e36409f7e37bc745828d824966c2e83deeb07cee7ce28",
      "transactionIndex": "0x8e",
      "blockHash": "0xf42145905f60d9ae731bb372dbcddd08aa768f60d47730fe710806577227307c",
      "blockNumber": "0x26196f5",
      "gasUsed": "0xd3f5",
      "effectiveGasPrice": "0xb638b",
      "blobGasUsed": "0x8a61",
      "from": "0xe403f79171b7050c78479f52e49e753d43e72c1a",
      "to": "0xad473eaa51821c915d03d9db5349a0586d55e55e",
      "contractAddress": null,
      "daFootprintGasScalar": "0x145",
      "l1BaseFeeScalar": "0x8dd",
      "l1BlobBaseFee": "0x17792f",
      "l1BlobBaseFeeScalar": "0x101c12",
      "l1Fee": "0x249bb7be",
      "l1GasPrice": "0x19f3d9f",
      "l1GasUsed": "0x6da"
    },
    {
      "status": "0x1",
      "cumulativeGasUsed": "0x1dc88e1",
      "logs": [
        {
          "address": "0xad473eaa51821c915d03d9db5349a0586d55e55e",
          "topics": [
            "0x36e13ba1e45df3ecb8f6beb6274a1f5d4abf4c0792bb56700354f0d50bf0acd7",
            "0x0000000000000000000000000000000000000000000000000000000000000029",
            "0x000000000000000000000000e403f79171b7050c78479f52e49e753d43e72c1a"
          ],
          "data": "0x4442d021ec118fea7ce3641d3375363801af2e92adb1272f726cf20292795a62000000000000000000000000000000000000000000000000000000000000000500000000000000000000000000000000000000000000000000000000000000600000000000000000000000000000000000000000000000000000000000000004392a000000000000000000000000000000000000000000000000000000000000",
          "blockHash": "0x17520db3fe6366c0ddd7e8da7ea551ce9523ba5fb862a071e16d21f0ff603682",
          "blockNumber": "0x26196f5",
          "blockTimestamp": "0x694d8acd",
          "transactionHash": "0x18af38cdd016d413ebcdb61e4e62cee6072ae71b32451c26f9bd8c66b828574d",
          "transactionIndex": "0x8f",
          "logIndex": "0x206",
          "removed": false
        },
        {
          "address": "0xad473eaa51821c915d03d9db5349a0586d55e55e",
          "topics": [
            "0x36e13ba1e45df3ecb8f6beb6274a1f5d4abf4c0792bb56700354f0d50bf0acd7",
            "0x0000000000000000000000000000000000000000000000000000000000000029",
            "0x000000000000000000000000ad473eaa51821c915d03d9db5349a0586d55e55e"
          ],
          "data": "0xe131cca08afe30756df90d03f27be0045be7f7a0d73031afbdf14f8a193cb8e6000000000000000000000000000000000000000000000000000000000000000600000000000000000000000000000000000000000000000000000000000000600000000000000000000000000000000000000000000000000000000000000004271a000000000000000000000000000000000000000000000000000000000000",
          "blockHash": "0x17520db3fe6366c0ddd7e8da7ea551ce9523ba5fb862a071e16d21f0ff603682",
          "blockNumber": "0x26196f5",
          "blockTimestamp": "0x694d8acd",
          "transactionHash": "0x18af38cdd016d413ebcdb61e4e62cee6072ae71b32451c26f9bd8c66b828574d",
          "transactionIndex": "0x8f",
          "logIndex": "0x207",
          "removed": false
        }
      ],
      "logsBloom": "0x00000000000000000000000000008000000000000000000000000000000400000000000000000000000000000000000000000000000000000000000000000000000000000000000000000000000000000000000010000000000000000000000000000000000040000000000000000040000000000400000000000000000000000000000000000000000000000200000010000000000000040002000000000000000004000000000000000000000000000000000000000000000000004000000000000000000000000000000000400000000000000000000000000000000800000000000000000000000000000000000000000000000000800000000000000000",
      "type": "0x2",
      "transactionHash": "0x18af38cdd016d413ebcdb61e4e62cee6072ae71b32451c26f9bd8c66b828574d",
      "transactionIndex": "0x8f",
      "blockHash": "0x17520db3fe6366c0ddd7e8da7ea551ce9523ba5fb862a071e16d21f0ff603682",
      "blockNumber": "0x26196f5",
      "gasUsed": "0xd3f5",
      "effectiveGasPrice": "0xb638b",
      "blobGasUsed": "0x8a61",
      "from": "0xe403f79171b7050c78479f52e49e753d43e72c1a",
      "to": "0xad473eaa51821c915d03d9db5349a0586d55e55e",
      "contractAddress": null,
      "daFootprintGasScalar": "0x145",
      "l1BaseFeeScalar": "0x8dd",
      "l1BlobBaseFee": "0x17792f",
      "l1BlobBaseFeeScalar": "0x101c12",
      "l1Fee": "0x1112a2e4",
      "l1GasPrice": "0x19f3d9f",
      "l1GasUsed": "0x6da"
    },
    {
      "status": "0x1",
      "cumulativeGasUsed": "0x1dd5cd6",
      "logs": [
        {
          "address": "0xad473eaa51821c915d03d9db5349a0586d55e55e",
          "topics": [
            "0x36e13ba1e45df3ecb8f6beb6274a1f5d4abf4c0792bb56700354f0d50bf0acd7",
            "0x0000000000000000000000000000000000000000000000000000000000000029",
            "0x000000000000000000000000e403f79171b7050c78479f52e49e753d43e72c1a"
          ],
          "data": "0xc7183fc0754b5e7da3b74bf364f8affe59ffdf73627f9b8e7d4991d4453bd3640000000000000000000000000000000000000000000000000000000000000007000000000000000000000000000000000000000000000000000000000000006000000000000000000000000000000000000000000000000000000000000000043b2c000000000000000000000000000000000000000000000000000000000000",
          "blockHash": "0x17520db3fe6366c0ddd7e8da7ea551ce9523ba5fb862a071e16d21f0ff603682",
          "blockNumber": "0x26196f5",
          "blockTimestamp": "0x694d8acd",
          "transactionHash": "0x59de12102e71929a632e56e7d6b9488f3f3e95568c6da3bd7652cf4e97ba9edc",
          "transactionIndex": "0x90",
          "logIndex": "0x208",
          "removed": false
        },
        {
          "address": "0xad473eaa51821c915d03d9db5349a0586d55e55e",
          "topics": [
            "0x36e13ba1e45df3ecb8f6beb6274a1f5d4abf4c0792bb56700354f0d50bf0acd7",
            "0x0000000000000000000000000000000000000000000000000000000000000029",
            "0x000000000000000000000000ad473eaa51821c915d03d9db5349a0586d55e55e"
          ],
          "data": "0xfa672e07d673b2d218b92d8ee0e059b5d1bfc274c1d1aaf67086a3dbe5f1587f0000000000000000000000000000000000000000000000000000000000000008000000000000000000000000000000000000000000000000000000000000006000000000000000000000000000000000000000000000000000000000000000042b13000000000000000000000000000000000000000000000000000000000000",
          "blockHash": "0x17520db3fe6366c0ddd7e8da7ea551ce9523ba5fb862a071e16d21f0ff603682",
          "blockNumber": "0x26196f5",
          "blockTimestamp": "0x694d8acd",
          "transactionHash": "0x59de12102e71929a632e56e7d6b9488f3f3e95568c6da3bd7652cf4e97ba9edc",
          "transactionIndex": "0x90",
          "logIndex": "0x209",
          "removed": false
        }
      ],
      "logsBloom": "0x00000000000000000000000000008000000000000000000000000000000400000000000000000000000000000000000000000000000000000000000000000000000000000000000000000000000000000000000010000000000000000000000000000000000040000000000000000040000000000400000000000000000000000000000000000000000000000200000010000000000000040002000000000000000004000000000000000000000000000000000000000000000000004000000000000000000000000000000000400000000000000000000000000000000800000000000000000000000000000000000000000000000000800000000000000000",
      "type": "0x2",
      "transactionHash": "0x59de12102e71929a632e56e7d6b9488f3f3e95568c6da3bd7652cf4e97ba9edc",
      "transactionIndex": "0x90",
      "blockHash": "0x17520db3fe6366c0ddd7e8da7ea551ce9523ba5fb862a071e16d21f0ff603682",
      "blockNumber": "0x26196f5",
      "gasUsed": "0xd3f5",
      "effectiveGasPrice": "0xb638b",
      "blobGasUsed": "0x8a61",
      "from": "0xe403f79171b7050c78479f52e49e753d43e72c1a",
      "to": "0xad473eaa51821c915d03d9db5349a0586d55e55e",
      "contractAddress": null,
      "daFootprintGasScalar": "0x145",
      "l1BaseFeeScalar": "0x8dd",
      "l1BlobBaseFee": "0x17792f",
      "l1BlobBaseFeeScalar": "0x101c12",
      "l1Fee": "0x1112a2e4",
      "l1GasPrice": "0x19f3d9f",
      "l1GasUsed": "0x6da"
    },
    {
      "status": "0x1",
      "cumulativeGasUsed": "0x1de72e1",
      "logs": [
        {
          "address": "0xad473eaa51821c915d03d9db5349a0586d55e55e",
          "topics": [
            "0x36e13ba1e45df3ecb8f6beb6274a1f5d4abf4c0792bb56700354f0d50bf0acd7",
            "0x000000000000000000000000000000000000000000000000000000000000002a",
            "0x000000000000000000000000e403f79171b7050c78479f52e49e753d43e72c1a"
          ],
          "data": "0x90e396633e67bfb131a9c9b400ea842e0f29f45c4bc7872a0e80af48deb785040000000000000000000000000000000000000000000000000000000000000001000000000000000000000000000000000000000000000000000000000000006000000000000000000000000000000000000000000000000000000000000000043028000000000000000000000000000000000000000000000000000000000000",
          "blockHash": "0x17520db3fe6366c0ddd7e8da7ea551ce9523ba5fb862a071e16d21f0ff603682",
          "blockNumber": "0x26196f5",
          "blockTimestamp": "0x694d8acd",
          "transactionHash": "0x014edb979b56185a5d860c9283b0d8b3df493835a05b3b329cbfb80f1d68cbb9",
          "transactionIndex": "0x91",
          "logIndex": "0x20a",
          "removed": false
        },
        {
          "address": "0xad473eaa51821c915d03d9db5349a0586d55e55e",
          "topics": [
            "0x36e13ba1e45df3ecb8f6beb6274a1f5d4abf4c0792bb56700354f0d50bf0acd7",
            "0x000000000000000000000000000000000000000000000000000000000000002a",
            "0x000000000000000000000000ad473eaa51821c915d03d9db5349a0586d55e55e"
          ],
          "data": "0x60e65b9330f95689004881ceb0c70271140d7a6c66037940d345a33188c341c30000000000000000000000000000000000000000000000000000000000000002000000000000000000000000000000000000000000000000000000000000006000000000000000000000000000000000000000000000000000000000000000043424000000000000000000000000000000000000000000000000000000000000",
          "blockHash": "0x17520db3fe6366c0ddd7e8da7ea551ce9523ba5fb862a071e16d21f0ff603682",
          "blockNumber": "0x26196f5",
          "blockTimestamp": "0x694d8acd",
          "transactionHash": "0x014edb979b56185a5d860c9283b0d8b3df493835a05b3b329cbfb80f1d68cbb9",
          "transactionIndex": "0x91",
          "logIndex": "0x20b",
          "removed": false
        }
      ],
      "logsBloom": "0x00000000000000000000000000000000000000000000000000000000000400000000000000004000000000000000000000000000000000000000000000000000000000000000000000000000000000000000000010000000000000000000000000000000000000000000000000000040000000000400000000000000000000000000000000000000000000000200000000000000000000040002000000000000000004000000000000000000000000000000000000000000000000004000000000000000000000000000000000400000000000000000000000000000000800100000000000000000000000000020000000000000000000800000000000000000",
      "type": "0x2",
      "transactionHash": "0x014edb979b56185a5d860c9283b0d8b3df493835a05b3b329cbfb80f1d68cbb9",
      "transactionIndex": "0x91",
      "blockHash": "0x17520db3fe6366c0ddd7e8da7ea551ce9523ba5fb862a071e16d21f0ff603682",
      "blockNumber": "0x26196f5",
      "gasUsed": "0x1160b",
      "effectiveGasPrice": "0xb638b",
      "blobGasUsed": "0x8a61",
      "from": "0xe403f79171b7050c78479f52e49e753d43e72c1a",
      "to": "0xad473eaa51821c915d03d9db5349a0586d55e55e",
      "contractAddress": null,
      "daFootprintGasScalar": "0x145",
      "l1BaseFeeScalar": "0x8dd",
      "l1BlobBaseFee": "0x17792f",
      "l1BlobBaseFeeScalar": "0x101c12",
      "l1Fee": "0x1112a2e4",
      "l1GasPrice": "0x19f3d9f",
      "l1GasUsed": "0x6da"
    },
    {
      "status": "0x1",
      "cumulativeGasUsed": "0x1df46d6",
      "logs": [
        {
          "address": "0xad473eaa51821c915d03d9db5349a0586d55e55e",
          "topics": [
            "0x36e13ba1e45df3ecb8f6beb6274a1f5d4abf4c0792bb56700354f0d50bf0acd7",
            "0x000000000000000000000000000000000000000000000000000000000000002a",
            "0x000000000000000000000000e403f79171b7050c78479f52e49e753d43e72c1a"
          ],
          "data": "0xfc6cc8976638831fc84ceab234894f532e0338e7268a3303d4c0c1939f85dbb90000000000000000000000000000000000000000000000000000000000000003000000000000000000000000000000000000000000000000000000000000006000000000000000000000000000000000000000000000000000000000000000043222000000000000000000000000000000000000000000000000000000000000",
          "blockHash": "0xf42145905f60d9ae731bb372dbcddd08aa768f60d47730fe710806577227307c",
          "blockNumber": "0x26196f5",
          "blockTimestamp": "0x694d8acd",
          "transactionHash": "0xd5b4f311cc3cda29eef12d648029b22bdf3befbcb003e8d8055362f081c83e10",
          "transactionIndex": "0x92",
          "logIndex": "0x20c",
          "removed": false
        },
        {
          "address": "0xad473eaa51821c915d03d9db5349a0586d55e55e",
          "topics": [
            "0x36e13ba1e45df3ecb8f6beb6274a1f5d4abf4c0792bb56700354f0d50bf0acd7",
            "0x000000000000000000000000000000000000000000000000000000000000002a",
            "0x000000000000000000000000ad473eaa51821c915d03d9db5349a0586d55e55e"
          ],
          "data": "0x0192d1e4a25acce6e7a2d4e8900eba6030b412ccc2d92d174c541b9d6055ff390000000000000000000000000000000000000000000000000000000000000004000000000000000000000000000000000000000000000000000000000000006000000000000000000000000000000000000000000000000000000000000000043c1b000000000000000000000000000000000000000000000000000000000000",
          "blockHash": "0xf42145905f60d9ae731bb372dbcddd08aa768f60d47730fe710806577227307c",
          "blockNumber": "0x26196f5",
          "blockTimestamp": "0x694d8acd",
          "transactionHash": "0xd5b4f311cc3cda29eef12d648029b22bdf3befbcb003e8d8055362f081c83e10",
          "transactionIndex": "0x92",
          "logIndex": "0x20d",
          "removed": false
        }
      ],
      "logsBloom": "0x00000000000000000000000000000000000000000000000000000000000400000000000000004000000000000000000000000000000000000000000000000000000000000000000000000000000000000000000010000000000000000000000000000000000000000000000000000040000000000400000000000000000000000000000000000000000000000200000000000000000000040002000000000000000004000000000000000000000000000000000000000000000000004000000000000000000000000000000000400000000000000000000000000000000800100000000000000000000000000020000000000000000000800000000000000000",
      "type": "0x2",
      "transactionHash": "0xd5b4f311cc3cda29eef12d648029b22bdf3befbcb003e8d8055362f081c83e10",
      "transactionIndex": "0x92",
      "blockHash": "0xf42145905f60d9ae731bb372dbcddd08aa768f60d47730fe710806577227307c",
      "blockNumber": "0x26196f5",
      "gasUsed": "0xd3f5",
      "effectiveGasPrice": "0xb638b",
      "blobGasUsed": "0x8a61",
      "from": "0xe403f79171b7050c78479f52e49e753d43e72c1a",
      "to": "0xad473eaa51821c915d03d9db5349a0586d55e55e",
      "contractAddress": null,
      "daFootprintGasScalar": "0x145",
      "l1BaseFeeScalar": "0x8dd",
      "l1BlobBaseFee": "0x17792f",
      "l1BlobBaseFeeScalar": "0x101c12",
      "l1Fee": "0x249bb7be",
      "l1GasPrice": "0x19f3d9f",
      "l1GasUsed": "0x6da"
    },
    {
      "status": "0x1",
      "cumulativeGasUsed": "0x1e01acb",
      "logs": [
        {
          "address": "0xad473eaa51821c915d03d9db5349a0586d55e55e",
          "topics": [
            "0x36e13ba1e45df3ecb8f6beb6274a1f5d4abf4c0792bb56700354f0d50bf0acd7",
            "0x000000000000000000000000000000000000000000000000000000000000002a",
            "0x000000000000000000000000e403f79171b7050c78479f52e49e753d43e72c1a"
          ],
          "data": "0xbb9afb9861b8290cda948e4af3b636449a44547dca4c3acbc45e65f4e22aab400000000000000000000000000000000000000000000000000000000000000005000000000000000000000000000000000000000000000000000000000000006000000000000000000000000000000000000000000000000000000000000000043129000000000000000000000000000000000000000000000000000000000000",
          "blockHash": "0x17520db3fe6366c0ddd7e8da7ea551ce9523ba5fb862a071e16d21f0ff603682",
          "blockNumber": "0x26196f5",
          "blockTimestamp": "0x694d8acd",
          "transactionHash": "0x4bec8c8da56c21ffe3fc82a96c0a6aca90ab983f0f8295231370e5f8f2f8f8c5",
          "transactionIndex": "0x93",
          "logIndex": "0x20e",
          "removed": false
        },
        {
          "address": "0xad473eaa51821c915d03d9db5349a0586d55e55e",
          "topics": [
            "0x36e13ba1e45df3ecb8f6beb6274a1f5d4abf4c0792bb56700354f0d50bf0acd7",
            "0x000000000000000000000000000000000000000000000000000000000000002a",
            "0x000000000000000000000000ad473eaa51821c915d03d9db5349a0586d55e55e"
          ],
          "data": "0x2760255e5f8c0d33599f68866f7b7bdd30ba831d73410b4548d9b6c2e2478d1c000000000000000000000000000000000000000000000000000000000000000600000000000000000000000000000000000000000000000000000000000000600000000000000000000000000000000000000000000000000000000000000004052b000000000000000000000000000000000000000000000000000000000000",
          "blockHash": "0x17520db3fe6366c0ddd7e8da7ea551ce9523ba5fb862a071e16d21f0ff603682",
          "blockNumber": "0x26196f5",
          "blockTimestamp": "0x694d8acd",
          "transactionHash": "0x4bec8c8da56c21ffe3fc82a96c0a6aca90ab983f0f8295231370e5f8f2f8f8c5",
          "transactionIndex": "0x93",
          "logIndex": "0x20f",
          "removed": false
        }
      ],
      "logsBloom": "0x00000000000000000000000000000000000000000000000000000000000400000000000000004000000000000000000000000000000000000000000000000000000000000000000000000000000000000000000010000000000000000000000000000000000000000000000000000040000000000400000000000000000000000000000000000000000000000200000000000000000000040002000000000000000004000000000000000000000000000000000000000000000000004000000000000000000000000000000000400000000000000000000000000000000800100000000000000000000000000020000000000000000000800000000000000000",
      "type": "0x2",
      "transactionHash": "0x4bec8c8da56c21ffe3fc82a96c0a6aca90ab983f0f8295231370e5f8f2f8f8c5",
      "transactionIndex": "0x93",
      "blockHash": "0x17520db3fe6366c0ddd7e8da7ea551ce9523ba5fb862a071e16d21f0ff603682",
      "blockNumber": "0x26196f5",
      "gasUsed": "0xd3f5",
      "effectiveGasPrice": "0xb638b",
      "blobGasUsed": "0x8a61",
      "from": "0xe403f79171b7050c78479f52e49e753d43e72c1a",
      "to": "0xad473eaa51821c915d03d9db5349a0586d55e55e",
      "contractAddress": null,
      "daFootprintGasScalar": "0x145",
      "l1BaseFeeScalar": "0x8dd",
      "l1BlobBaseFee": "0x17792f",
      "l1BlobBaseFeeScalar": "0x101c12",
      "l1Fee": "0x1112a2e4",
      "l1GasPrice": "0x19f3d9f",
      "l1GasUsed": "0x6da"
    },
    {
      "status": "0x1",
      "cumulativeGasUsed": "0x216dcbb",
      "logs": [
        {
          "address": "0xad473eaa51821c915d03d9db5349a0586d55e55e",
          "topics": [
            "0x36e13ba1e45df3ecb8f6beb6274a1f5d4abf4c0792bb56700354f0d50bf0acd7",
            "0x000000000000000000000000000000000000000000000000000000000000002a",
            "0x000000000000000000000000e403f79171b7050c78479f52e49e753d43e72c1a"
          ],
          "data": "0x2a4b22ea265f7017c3f5040f1eec7d58baac29eda24dc699336157972973d8e10000000000000000000000000000000000000000000000000000000000000007000000000000000000000000000000000000000000000000000000000000006000000000000000000000000000000000000000000000000000000000000000043a2b000000000000000000000000000000000000000000000000000000000000",
          "blockHash": "0x17520db3fe6366c0ddd7e8da7ea551ce9523ba5fb862a071e16d21f0ff603682",
          "blockNumber": "0x26196f5",
          "blockTimestamp": "0x694d8acd",
          "transactionHash": "0x8ba34f297d25b6cfa995fee6b626e981fe1527aa61556d376bb476ede7f569c8",
          "transactionIndex": "0xac",
          "logIndex": "0x22c",
          "removed": false
        },
        {
          "address": "0xad473eaa51821c915d03d9db5349a0586d55e55e",
          "topics": [
            "0x36e13ba1e45df3ecb8f6beb6274a1f5d4abf4c0792bb56700354f0d50bf0acd7",
            "0x000000000000000000000000000000000000000000000000000000000000002a",
            "0x000000000000000000000000ad473eaa51821c915d03d9db5349a0586d55e55e"
          ],
          "data": "0x55f26890947882f1207e2a875a0d392857a077e9af9ea320f39541f65d9244dd0000000000000000000000000000000000000000000000000000000000000008000000000000000000000000000000000000000000000000000000000000006000000000000000000000000000000000000000000000000000000000000000042818000000000000000000000000000000000000000000000000000000000000",
          "blockHash": "0x17520db3fe6366c0ddd7e8da7ea551ce9523ba5fb862a071e16d21f0ff603682",
          "blockNumber": "0x26196f5",
          "blockTimestamp": "0x694d8acd",
          "transactionHash": "0x8ba34f297d25b6cfa995fee6b626e981fe1527aa61556d376bb476ede7f569c8",
          "transactionIndex": "0xac",
          "logIndex": "0x22d",
          "removed": false
        }
      ],
      "logsBloom": "0x00000000000000000000000000000000000000000000000000000000000400000000000000004000000000000000000000000000000000000000000000000000000000000000000000000000000000000000000010000000000000000000000000000000000000000000000000000040000000000400000000000000000000000000000000000000000000000200000000000000000000040002000000000000000004000000000000000000000000000000000000000000000000004000000000000000000000000000000000400000000000000000000000000000000800100000000000000000000000000020000000000000000000800000000000000000",
      "type": "0x2",
      "transactionHash": "0x8ba34f297d25b6cfa995fee6b626e981fe1527aa61556d376bb476ede7f569c8",
      "transactionIndex": "0xac",
      "blockHash": "0x17520db3fe6366c0ddd7e8da7ea551ce9523ba5fb862a071e16d21f0ff603682",
      "blockNumber": "0x26196f5",
      "gasUsed": "0xd3f5",
      "effectiveGasPrice": "0xb638b",
      "blobGasUsed": "0x8a61",
      "from": "0xe403f79171b7050c78479f52e49e753d43e72c1a",
      "to": "0xad473eaa51821c915d03d9db5349a0586d55e55e",
      "contractAddress": null,
      "daFootprintGasScalar": "0x145",
      "l1BaseFeeScalar": "0x8dd",
      "l1BlobBaseFee": "0x17792f",
      "l1BlobBaseFeeScalar": "0x101c12",
      "l1Fee": "0x1112a2e4",
      "l1GasPrice": "0x19f3d9f",
      "l1GasUsed": "0x6da"
    },
    {
      "status": "0x1",
      "cumulativeGasUsed": "0x217f2d2",
      "logs": [
        {
          "address": "0xad473eaa51821c915d03d9db5349a0586d55e55e",
          "topics": [
            "0x36e13ba1e45df3ecb8f6beb6274a1f5d4abf4c0792bb56700354f0d50bf0acd7",
            "0x000000000000000000000000000000000000000000000000000000000000002b",
            "0x000000000000000000000000e403f79171b7050c78479f52e49e753d43e72c1a"
          ],
          "data": "0xe8773807ffd17108aa2d132cec684352f2c5c8337ff4659cc010d15b0551847d0000000000000000000000000000000000000000000000000000000000000001000000000000000000000000000000000000000000000000000000000000006000000000000000000000000000000000000000000000000000000000000000043424000000000000000000000000000000000000000000000000000000000000",
          "blockHash": "0x48f8f8f8a67c9a82426a52d7e966e65eb509a752d9065ad20c7e67d0a11f2bf7",
          "blockNumber": "0x26196f5",
          "blockTimestamp": "0x694d8acd",
          "transactionHash": "0x9a1d13341880c8a47818646de2c850718ab1a402b220e4c9cb6af640bf62f4b5",
          "transactionIndex": "0xad",
          "logIndex": "0x22e",
          "removed": false
        },
        {
          "address": "0xad473eaa51821c915d03d9db5349a0586d55e55e",
          "topics": [
            "0x36e13ba1e45df3ecb8f6beb6274a1f5d4abf4c0792bb56700354f0d50bf0acd7",
            "0x000000000000000000000000000000000000000000000000000000000000002b",
            "0x000000000000000000000000ad473eaa51821c915d03d9db5349a0586d55e55e"
          ],
          "data": "0xf4bb36a023d03b095a88119a20a9000a252aea11d80408b3bd0c6bade87b4ba70000000000000000000000000000000000000000000000000000000000000002000000000000000000000000000000000000000000000000000000000000006000000000000000000000000000000000000000000000000000000000000000043424000000000000000000000000000000000000000000000000000000000000",
          "blockHash": "0x48f8f8f8a67c9a82426a52d7e966e65eb509a752d9065ad20c7e67d0a11f2bf7",
          "blockNumber": "0x26196f5",
          "blockTimestamp": "0x694d8acd",
          "transactionHash": "0x9a1d13341880c8a47818646de2c850718ab1a402b220e4c9cb6af640bf62f4b5",
          "transactionIndex": "0xad",
          "logIndex": "0x22f",
          "removed": false
        }
      ],
      "logsBloom": "0x00000000000000000000000000000000000000000000000000000000000400000000000000000000000000000000000000000000000001000000000000000000000000000000000000800000000000000000000010000000000000000000000000000000000000000000000000000040000000000400000000000000000000000000000000000000000000000200000000000000000000040002000000000000000004000000000000000000000000000000000000000000000000004000000000000000000000100000000000400000000000000000000000000000000800000000000000000000000000000000000000000000000000800000000000000000",
      "type": "0x2",
      "transactionHash": "0x9a1d13341880c8a47818646de2c850718ab1a402b220e4c9cb6af640bf62f4b5",
      "transactionIndex": "0xad",
      "blockHash": "0x48f8f8f8a67c9a82426a52d7e966e65eb509a752d9065ad20c7e67d0a11f2bf7",
      "blockNumber": "0x26196f5",
      "gasUsed": "0x11617",
      "effectiveGasPrice": "0xb638b",
      "blobGasUsed": "0x8a61",
      "from": "0xe403f79171b7050c78479f52e49e753d43e72c1a",
      "to": "0xad473eaa51821c915d03d9db5349a0586d55e55e",
      "contractAddress": null,
      "daFootprintGasScalar": "0x145",
      "l1BaseFeeScalar": "0x8dd",
      "l1BlobBaseFee": "0x17792f",
      "l1BlobBaseFeeScalar": "0x101c12",
      "l1Fee": "0x24590963",
      "l1GasPrice": "0x19f3d9f",
      "l1GasUsed": "0x6da"
    },
    {
      "status": "0x1",
      "cumulativeGasUsed": "0x218c6c7",
      "logs": [
        {
          "address": "0xad473eaa51821c915d03d9db5349a0586d55e55e",
          "topics": [
            "0x36e13ba1e45df3ecb8f6beb6274a1f5d4abf4c0792bb56700354f0d50bf0acd7",
            "0x000000000000000000000000000000000000000000000000000000000000002b",
            "0x000000000000000000000000e403f79171b7050c78479f52e49e753d43e72c1a"
          ],
          "data": "0x0692c63251d62c8f04eed454cc75e5bc199ba842e6b8106095e5d806a5e48cfa0000000000000000000000000000000000000000000000000000000000000003000000000000000000000000000000000000000000000000000000000000006000000000000000000000000000000000000000000000000000000000000000043323000000000000000000000000000000000000000000000000000000000000",
          "blockHash": "0x17520db3fe6366c0ddd7e8da7ea551ce9523ba5fb862a071e16d21f0ff603682",
          "blockNumber": "0x26196f5",
          "blockTimestamp": "0x694d8acd",
          "transactionHash": "0x4a34f4e0ed30183d0611708c84daabd791efe70c05a9a62ccb3ba2b8a2fed1f9",
          "transactionIndex": "0xae",
          "logIndex": "0x230",
          "removed": false
        },
        {
          "address": "0xad473eaa51821c915d03d9db5349a0586d55e55e",
          "topics": [
            "0x36e13ba1e45df3ecb8f6beb6274a1f5d4abf4c0792bb56700354f0d50bf0acd7",
            "0x000000000000000000000000000000000000000000000000000000000000002b",
            "0x000000000000000000000000ad473eaa51821c915d03d9db5349a0586d55e55e"
          ],
          "data": "0x80db663b91d50261d3b6cf7c40f14617bc570551fdc50ae5d379aac6ea1fb5d50000000000000000000000000000000000000000000000000000000000000004000000000000000000000000000000000000000000000000000000000000006000000000000000000000000000000000000000000000000000000000000000043d0c000000000000000000000000000000000000000000000000000000000000",
          "blockHash": "0x17520db3fe6366c0ddd7e8da7ea551ce9523ba5fb862a071e16d21f0ff603682",
          "blockNumber": "0x26196f5",
          "blockTimestamp": "0x694d8acd",
          "transactionHash": "0x4a34f4e0ed30183d0611708c84daabd791efe70c05a9a62ccb3ba2b8a2fed1f9",
          "transactionIndex": "0xae",
          "logIndex": "0x231",
          "removed": false
        }
      ],
      "logsBloom": "0x00000000000000000000000000000000000000000000000000000000000400000000000000000000000000000000000000000000000001000000000000000000000000000000000000800000000000000000000010000000000000000000000000000000000000000000000000000040000000000400000000000000000000000000000000000000000000000200000000000000000000040002000000000000000004000000000000000000000000000000000000000000000000004000000000000000000000100000000000400000000000000000000000000000000800000000000000000000000000000000000000000000000000800000000000000000",
      "type": "0x2",
      "transactionHash": "0x4a34f4e0ed30183d0611708c84daabd791efe70c05a9a62ccb3ba2b8a2fed1f9",
      "transactionIndex": "0xae",
      "blockHash": "0x17520db3fe6366c0ddd7e8da7ea551ce9523ba5fb862a071e16d21f0ff603682",
      "blockNumber": "0x26196f5",
      "gasUsed": "0xd3f5",
      "effectiveGasPrice": "0xb638b",
      "blobGasUsed": "0x8a61",
      "from": "0xe403f79171b7050c78479f52e49e753d43e72c1a",
      "to": "0xad473eaa51821c915d03d9db5349a0586d55e55e",
      "contractAddress": null,
      "daFootprintGasScalar": "0x145",
      "l1BaseFeeScalar": "0x8dd",
      "l1BlobBaseFee": "0x17792f",
      "l1BlobBaseFeeScalar": "0x101c12",
      "l1Fee": "0x1112a2e4",
      "l1GasPrice": "0x19f3d9f",
      "l1GasUsed": "0x6da"
    },
    {
      "status": "0x1",
      "cumulativeGasUsed": "0x2199abc",
      "logs": [
        {
          "address": "0xad473eaa51821c915d03d9db5349a0586d55e55e",
          "topics": [
            "0x36e13ba1e45df3ecb8f6beb6274a1f5d4abf4c0792bb56700354f0d50bf0acd7",
            "0x000000000000000000000000000000000000000000000000000000000000002b",
            "0x000000000000000000000000e403f79171b7050c78479f52e49e753d43e72c1a"
          ],
          "data": "0x4442d021ec118fea7ce3641d3375363801af2e92adb1272f726cf20292795a62000000000000000000000000000000000000000000000000000000000000000500000000000000000000000000000000000000000000000000000000000000600000000000000000000000000000000000000000000000000000000000000004392a000000000000000000000000000000000000000000000000000000000000",
          "blockHash": "0x17520db3fe6366c0ddd7e8da7ea551ce9523ba5fb862a071e16d21f0ff603682",
          "blockNumber": "0x26196f5",
          "blockTimestamp": "0x694d8acd",
          "transactionHash": "0x016815cca2b391881487f70a8f977105cf70c915259d4dd95d6e8858ee145d94",
          "transactionIndex": "0xaf",
          "logIndex": "0x232",
          "removed": false
        },
        {
          "address": "0xad473eaa51821c915d03d9db5349a0586d55e55e",
          "topics": [
            "0x36e13ba1e45df3ecb8f6beb6274a1f5d4abf4c0792bb56700354f0d50bf0acd7",
            "0x000000000000000000000000000000000000000000000000000000000000002b",
            "0x000000000000000000000000ad473eaa51821c915d03d9db5349a0586d55e55e"
          ],
          "data": "0xe131cca08afe30756df90d03f27be0045be7f7a0d73031afbdf14f8a193cb8e6000000000000000000000000000000000000000000000000000000000000000600000000000000000000000000000000000000000000000000000000000000600000000000000000000000000000000000000000000000000000000000000004271a000000000000000000000000000000000000000000000000000000000000",
          "blockHash": "0x17520db3fe6366c0ddd7e8da7ea551ce9523ba5fb862a071e16d21f0ff603682",
          "blockNumber": "0x26196f5",
          "blockTimestamp": "0x694d8acd",
          "transactionHash": "0x016815cca2b391881487f70a8f977105cf70c915259d4dd95d6e8858ee145d94",
          "transactionIndex": "0xaf",
          "logIndex": "0x233",
          "removed": false
        }
      ],
      "logsBloom": "0x00000000000000000000000000000000000000000000000000000000000400000000000000000000000000000000000000000000000001000000000000000000000000000000000000800000000000000000000010000000000000000000000000000000000000000000000000000040000000000400000000000000000000000000000000000000000000000200000000000000000000040002000000000000000004000000000000000000000000000000000000000000000000004000000000000000000000100000000000400000000000000000000000000000000800000000000000000000000000000000000000000000000000800000000000000000",
      "type": "0x2",
      "transactionHash": "0x016815cca2b391881487f70a8f977105cf70c915259d4dd95d6e8858ee145d94",
      "transactionIndex": "0xaf",
      "blockHash": "0x17520db3fe6366c0ddd7e8da7ea551ce9523ba5fb862a071e16d21f0ff603682",
      "blockNumber": "0x26196f5",
      "gasUsed": "0xd3f5",
      "effectiveGasPrice": "0xb638b",
      "blobGasUsed": "0x8a61",
      "from": "0xe403f79171b7050c78479f52e49e753d43e72c1a",
      "to": "0xad473eaa51821c915d03d9db5349a0586d55e55e",
      "contractAddress": null,
      "daFootprintGasScalar": "0x145",
      "l1BaseFeeScalar": "0x8dd",
      "l1BlobBaseFee": "0x17792f",
      "l1BlobBaseFeeScalar": "0x101c12",
      "l1Fee": "0x1112a2e4",
      "l1GasPrice": "0x19f3d9f",
      "l1GasUsed": "0x6da"
    },
    {
      "status": "0x1",
      "cumulativeGasUsed": "0x21a6eb1",
      "logs": [
        {
          "address": "0xad473eaa51821c915d03d9db5349a0586d55e55e",
          "topics": [
            "0x36e13ba1e45df3ecb8f6beb6274a1f5d4abf4c0792bb56700354f0d50bf0acd7",
            "0x000000000000000000000000000000000000000000000000000000000000002b",
            "0x000000000000000000000000e403f79171b7050c78479f52e49e753d43e72c1a"
          ],
          "data": "0xc7183fc0754b5e7da3b74bf364f8affe59ffdf73627f9b8e7d4991d4453bd3640000000000000000000000000000000000000000000000000000000000000007000000000000000000000000000000000000000000000000000000000000006000000000000000000000000000000000000000000000000000000000000000043b2c000000000000000000000000000000000000000000000000000000000000",
          "blockHash": "0x17520db3fe6366c0ddd7e8da7ea551ce9523ba5fb862a071e16d21f0ff603682",
          "blockNumber": "0x26196f5",
          "blockTimestamp": "0x694d8acd",
          "transactionHash": "0xf8b8bdae1af821ccedce3f12a4e8f26160ef797252cd7e20bf4ab94c0f446fc1",
          "transactionIndex": "0xb0",
          "logIndex": "0x234",
          "removed": false
        },
        {
          "address": "0xad473eaa51821c915d03d9db5349a0586d55e55e",
          "topics": [
            "0x36e13ba1e45df3ecb8f6beb6274a1f5d4abf4c0792bb56700354f0d50bf0acd7",
            "0x000000000000000000000000000000000000000000000000000000000000002b",
            "0x000000000000000000000000ad473eaa51821c915d03d9db5349a0586d55e55e"
          ],
          "data": "0xfa672e07d673b2d218b92d8ee0e059b5d1bfc274c1d1aaf67086a3dbe5f1587f0000000000000000000000000000000000000000000000000000000000000008000000000000000000000000000000000000000000000000000000000000006000000000000000000000000000000000000000000000000000000000000000042b13000000000000000000000000000000000000000000000000000000000000",
          "blockHash": "0x17520db3fe6366c0ddd7e8da7ea551ce9523ba5fb862a071e16d21f0ff603682",
          "blockNumber": "0x26196f5",
          "blockTimestamp": "0x694d8acd",
          "transactionHash": "0xf8b8bdae1af821ccedce3f12a4e8f26160ef797252cd7e20bf4ab94c0f446fc1",
          "transactionIndex": "0xb0",
          "logIndex": "0x235",
          "removed": false
        }
      ],
      "logsBloom": "0x00000000000000000000000000000000000000000000000000000000000400000000000000000000000000000000000000000000000001000000000000000000000000000000000000800000000000000000000010000000000000000000000000000000000000000000000000000040000000000400000000000000000000000000000000000000000000000200000000000000000000040002000000000000000004000000000000000000000000000000000000000000000000004000000000000000000000100000000000400000000000000000000000000000000800000000000000000000000000000000000000000000000000800000000000000000",
      "type": "0x2",
      "transactionHash": "0xf8b8bdae1af821ccedce3f12a4e8f26160ef797252cd7e20bf4ab94c0f446fc1",
      "transactionIndex": "0xb0",
      "blockHash": "0x17520db3fe6366c0ddd7e8da7ea551ce9523ba5fb862a071e16d21f0ff603682",
      "blockNumber": "0x26196f5",
      "gasUsed": "0xd3f5",
      "effectiveGasPrice": "0xb638b",
      "blobGasUsed": "0x8a61",
      "from": "0xe403f79171b7050c78479f52e49e753d43e72c1a",
      "to": "0xad473eaa51821c915d03d9db5349a0586d55e55e",
      "contractAddress": null,
      "daFootprintGasScalar": "0x145",
      "l1BaseFeeScalar": "0x8dd",
      "l1BlobBaseFee": "0x17792f",
      "l1BlobBaseFeeScalar": "0x101c12",
      "l1Fee": "0x1112a2e4",
      "l1GasPrice": "0x19f3d9f",
      "l1GasUsed": "0x6da"
    },
    {
      "status": "0x1",
      "cumulativeGasUsed": "0x21b84bc",
      "logs": [
        {
          "address": "0xad473eaa51821c915d03d9db5349a0586d55e55e",
          "topics": [
            "0x36e13ba1e45df3ecb8f6beb6274a1f5d4abf4c0792bb56700354f0d50bf0acd7",
            "0x000000000000000000000000000000000000000000000000000000000000002c",
            "0x000000000000000000000000e403f79171b7050c78479f52e49e753d43e72c1a"
          ],
          "data": "0x90e396633e67bfb131a9c9b400ea842e0f29f45c4bc7872a0e80af48deb785040000000000000000000000000000000000000000000000000000000000000001000000000000000000000000000000000000000000000000000000000000006000000000000000000000000000000000000000000000000000000000000000043028000000000000000000000000000000000000000000000000000000000000",
          "blockHash": "0x17520db3fe6366c0ddd7e8da7ea551ce9523ba5fb862a071e16d21f0ff603682",
          "blockNumber": "0x26196f5",
          "blockTimestamp": "0x694d8acd",
          "transactionHash": "0x623382693ec8ffc68349228e33f54b2c832ce67e926ab91245099de3255b2f58",
          "transactionIndex": "0xb1",
          "logIndex": "0x236",
          "removed": false
        },
        {
          "address": "0xad473eaa51821c915d03d9db5349a0586d55e55e",
          "topics": [
            "0x36e13ba1e45df3ecb8f6beb6274a1f5d4abf4c0792bb56700354f0d50bf0acd7",
            "0x000000000000000000000000000000000000000000000000000000000000002c",
            "0x000000000000000000000000ad473eaa51821c915d03d9db5349a0586d55e55e"
          ],
          "data": "0x60e65b9330f95689004881ceb0c70271140d7a6c66037940d345a33188c341c30000000000000000000000000000000000000000000000000000000000000002000000000000000000000000000000000000000000000000000000000000006000000000000000000000000000000000000000000000000000000000000000043424000000000000000000000000000000000000000000000000000000000000",
          "blockHash": "0x17520db3fe6366c0ddd7e8da7ea551ce9523ba5fb862a071e16d21f0ff603682",
          "blockNumber": "0x26196f5",
          "blockTimestamp": "0x694d8acd",
          "transactionHash": "0x623382693ec8ffc68349228e33f54b2c832ce67e926ab91245099de3255b2f58",
          "transactionIndex": "0xb1",
          "logIndex": "0x237",
          "removed": false
        }
      ],
      "logsBloom": "0x00000000000000000000000000000000000000000000000000000000000400000000000000000000000000000000000000000000000000000000000000000000000000000000000000000000000000000000000010000000000000000000000000000000000000000000000100000040000000000400000000000000004000000000000000000000000000000200000000000000000000040002000000000000000004000000000000000000000000000000000000000000000000004000000000000000000000000000000000400000000000000000000800000000000800000000000000000000000000000000000000000000000000800000000000000000",
      "type": "0x2",
      "transactionHash": "0x623382693ec8ffc68349228e33f54b2c832ce67e926ab91245099de3255b2f58",
      "transactionIndex": "0xb1",
      "blockHash": "0x17520db3fe6366c0ddd7e8da7ea551ce9523ba5fb862a071e16d21f0ff603682",
      "blockNumber": "0x26196f5",
      "gasUsed": "0x1160b",
      "effectiveGasPrice": "0xb638b",
      "blobGasUsed": "0x8a61",
      "from": "0xe403f79171b7050c78479f52e49e753d43e72c1a",
      "to": "0xad473eaa51821c915d03d9db5349a0586d55e55e",
      "contractAddress": null,
      "daFootprintGasScalar": "0x145",
      "l1BaseFeeScalar": "0x8dd",
      "l1BlobBaseFee": "0x17792f",
      "l1BlobBaseFeeScalar": "0x101c12",
      "l1Fee": "0x1112a2e4",
      "l1GasPrice": "0x19f3d9f",
      "l1GasUsed": "0x6da"
    },
    {
      "status": "0x1",
      "cumulativeGasUsed": "0x21c58b1",
      "logs": [
        {
          "address": "0xad473eaa51821c915d03d9db5349a0586d55e55e",
          "topics": [
            "0x36e13ba1e45df3ecb8f6beb6274a1f5d4abf4c0792bb56700354f0d50bf0acd7",
            "0x000000000000000000000000000000000000000000000000000000000000002c",
            "0x000000000000000000000000e403f79171b7050c78479f52e49e753d43e72c1a"
          ],
          "data": "0xfc6cc8976638831fc84ceab234894f532e0338e7268a3303d4c0c1939f85dbb90000000000000000000000000000000000000000000000000000000000000003000000000000000000000000000000000000000000000000000000000000006000000000000000000000000000000000000000000000000000000000000000043222000000000000000000000000000000000000000000000000000000000000",
          "blockHash": "0x17520db3fe6366c0ddd7e8da7ea551ce9523ba5fb862a071e16d21f0ff603682",
          "blockNumber": "0x26196f5",
          "blockTimestamp": "0x694d8acd",
          "transactionHash": "0x40adcaab3c03f00241589474fc25b30ea349e3d8607ee951eae8107bbbc27eac",
          "transactionIndex": "0xb2",
          "logIndex": "0x238",
          "removed": false
        },
        {
          "address": "0xad473eaa51821c915d03d9db5349a0586d55e55e",
          "topics": [
            "0x36e13ba1e45df3ecb8f6beb6274a1f5d4abf4c0792bb56700354f0d50bf0acd7",
            "0x000000000000000000000000000000000000000000000000000000000000002c",
            "0x000000000000000000000000ad473eaa51821c915d03d9db5349a0586d55e55e"
          ],
          "data": "0x0192d1e4a25acce6e7a2d4e8900eba6030b412ccc2d92d174c541b9d6055ff390000000000000000000000000000000000000000000000000000000000000004000000000000000000000000000000000000000000000000000000000000006000000000000000000000000000000000000000000000000000000000000000043c1b000000000000000000000000000000000000000000000000000000000000",
          "blockHash": "0x17520db3fe6366c0ddd7e8da7ea551ce9523ba5fb862a071e16d21f0ff603682",
          "blockNumber": "0x26196f5",
          "blockTimestamp": "0x694d8acd",
          "transactionHash": "0x40adcaab3c03f00241589474fc25b30ea349e3d8607ee951eae8107bbbc27eac",
          "transactionIndex": "0xb2",
          "logIndex": "0x239",
          "removed": false
        }
      ],
      "logsBloom": "0x00000000000000000000000000000000000000000000000000000000000400000000000000000000000000000000000000000000000000000000000000000000000000000000000000000000000000000000000010000000000000000000000000000000000000000000000100000040000000000400000000000000004000000000000000000000000000000200000000000000000000040002000000000000000004000000000000000000000000000000000000000000000000004000000000000000000000000000000000400000000000000000000800000000000800000000000000000000000000000000000000000000000000800000000000000000",
      "type": "0x2",
      "transactionHash": "0x40adcaab3c03f00241589474fc25b30ea349e3d8607ee951eae8107bbbc27eac",
      "transactionIndex": "0xb2",
      "blockHash": "0x17520db3fe6366c0ddd7e8da7ea551ce9523ba5fb862a071e16d21f0ff603682",
      "blockNumber": "0x26196f5",
      "gasUsed": "0xd3f5",
      "effectiveGasPrice": "0xb638b",
      "blobGasUsed": "0x8a61",
      "from": "0xe403f79171b7050c78479f52e49e753d43e72c1a",
      "to": "0xad473eaa51821c915d03d9db5349a0586d55e55e",
      "contractAddress": null,
      "daFootprintGasScalar": "0x145",
      "l1BaseFeeScalar": "0x8dd",
      "l1BlobBaseFee": "0x17792f",
      "l1BlobBaseFeeScalar": "0x101c12",
      "l1Fee": "0x1112a2e4",
      "l1GasPrice": "0x19f3d9f",
      "l1GasUsed": "0x6da"
    },
    {
      "status": "0x1",
      "cumulativeGasUsed": "0x29b8bb0",
      "logs": [
        {
          "address": "0xad473eaa51821c915d03d9db5349a0586d55e55e",
          "topics": [
            "0x36e13ba1e45df3ecb8f6beb6274a1f5d4abf4c0792bb56700354f0d50bf0acd7",
            "0x000000000000000000000000000000000000000000000000000000000000002c",
            "0x000000000000000000000000e403f79171b7050c78479f52e49e753d43e72c1a"
          ],
          "data": "0xbb9afb9861b8290cda948e4af3b636449a44547dca4c3acbc45e65f4e22aab400000000000000000000000000000000000000000000000000000000000000005000000000000000000000000000000000000000000000000000000000000006000000000000000000000000000000000000000000000000000000000000000043129000000000000000000000000000000000000000000000000000000000000",
          "blockHash": "0x17520db3fe6366c0ddd7e8da7ea551ce9523ba5fb862a071e16d21f0ff603682",
          "blockNumber": "0x26196f5",
          "blockTimestamp": "0x694d8acd",
          "transactionHash": "0x8a45c9200014225c367bba102b78beb9d5915fa535215f31bfc573a81cc18a02",
          "transactionIndex": "0xe0",
          "logIndex": "0x2bf",
          "removed": false
        },
        {
          "address": "0xad473eaa51821c915d03d9db5349a0586d55e55e",
          "topics": [
            "0x36e13ba1e45df3ecb8f6beb6274a1f5d4abf4c0792bb56700354f0d50bf0acd7",
            "0x000000000000000000000000000000000000000000000000000000000000002c",
            "0x000000000000000000000000ad473eaa51821c915d03d9db5349a0586d55e55e"
          ],
          "data": "0x2760255e5f8c0d33599f68866f7b7bdd30ba831d73410b4548d9b6c2e2478d1c000000000000000000000000000000000000000000000000000000000000000600000000000000000000000000000000000000000000000000000000000000600000000000000000000000000000000000000000000000000000000000000004052b000000000000000000000000000000000000000000000000000000000000",
          "blockHash": "0x17520db3fe6366c0ddd7e8da7ea551ce9523ba5fb862a071e16d21f0ff603682",
          "blockNumber": "0x26196f5",
          "blockTimestamp": "0x694d8acd",
          "transactionHash": "0x8a45c9200014225c367bba102b78beb9d5915fa535215f31bfc573a81cc18a02",
          "transactionIndex": "0xe0",
          "logIndex": "0x2c0",
          "removed": false
        }
      ],
      "logsBloom": "0x00000000000000000000000000000000000000000000000000000000000400000000000000000000000000000000000000000000000000000000000000000000000000000000000000000000000000000000000010000000000000000000000000000000000000000000000100000040000000000400000000000000004000000000000000000000000000000200000000000000000000040002000000000000000004000000000000000000000000000000000000000000000000004000000000000000000000000000000000400000000000000000000800000000000800000000000000000000000000000000000000000000000000800000000000000000",
      "type": "0x2",
      "transactionHash": "0x8a45c9200014225c367bba102b78beb9d5915fa535215f31bfc573a81cc18a02",
      "transactionIndex": "0xe0",
      "blockHash": "0x17520db3fe6366c0ddd7e8da7ea551ce9523ba5fb862a071e16d21f0ff603682",
      "blockNumber": "0x26196f5",
      "gasUsed": "0xd3f5",
      "effectiveGasPrice": "0xb638b",
      "blobGasUsed": "0x8a61",
      "from": "0xe403f79171b7050c78479f52e49e753d43e72c1a",
      "to": "0xad473eaa51821c915d03d9db5349a0586d55e55e",
      "contractAddress": null,
      "daFootprintGasScalar": "0x145",
      "l1BaseFeeScalar": "0x8dd",
      "l1BlobBaseFee": "0x17792f",
      "l1BlobBaseFeeScalar": "0x101c12",
      "l1Fee": "0x1112a2e4",
      "l1GasPrice": "0x19f3d9f",
      "l1GasUsed": "0x6da"
    },
    {
      "status": "0x1",
      "cumulativeGasUsed": "0x29c5fa5",
      "logs": [
        {
          "address": "0xad473eaa51821c915d03d9db5349a0586d55e55e",
          "topics": [
            "0x36e13ba1e45df3ecb8f6beb6274a1f5d4abf4c0792bb56700354f0d50bf0acd7",
            "0x000000000000000000000000000000000000000000000000000000000000002c",
            "0x000000000000000000000000e403f79171b7050c78479f52e49e753d43e72c1a"
          ],
          "data": "0x2a4b22ea265f7017c3f5040f1eec7d58baac29eda24dc699336157972973d8e10000000000000000000000000000000000000000000000000000000000000007000000000000000000000000000000000000000000000000000000000000006000000000000000000000000000000000000000000000000000000000000000043a2b000000000000000000000000000000000000000000000000000000000000",
          "blockHash": "0x17520db3fe6366c0ddd7e8da7ea551ce9523ba5fb862a071e16d21f0ff603682",
          "blockNumber": "0x26196f5",
          "blockTimestamp": "0x694d8acd",
          "transactionHash": "0x686d34804094293a5d19d3764653749e493f5499be7821a0eff0af78826cd621",
          "transactionIndex": "0xe1",
          "logIndex": "0x2c1",
          "removed": false
        },
        {
          "address": "0xad473eaa51821c915d03d9db5349a0586d55e55e",
          "topics": [
            "0x36e13ba1e45df3ecb8f6beb6274a1f5d4abf4c0792bb56700354f0d50bf0acd7",
            "0x000000000000000000000000000000000000000000000000000000000000002c",
            "0x000000000000000000000000ad473eaa51821c915d03d9db5349a0586d55e55e"
          ],
          "data": "0x55f26890947882f1207e2a875a0d392857a077e9af9ea320f39541f65d9244dd0000000000000000000000000000000000000000000000000000000000000008000000000000000000000000000000000000000000000000000000000000006000000000000000000000000000000000000000000000000000000000000000042818000000000000000000000000000000000000000000000000000000000000",
          "blockHash": "0x17520db3fe6366c0ddd7e8da7ea551ce9523ba5fb862a071e16d21f0ff603682",
          "blockNumber": "0x26196f5",
          "blockTimestamp": "0x694d8acd",
          "transactionHash": "0x686d34804094293a5d19d3764653749e493f5499be7821a0eff0af78826cd621",
          "transactionIndex": "0xe1",
          "logIndex": "0x2c2",
          "removed": false
        }
      ],
      "logsBloom": "0x00000000000000000000000000000000000000000000000000000000000400000000000000000000000000000000000000000000000000000000000000000000000000000000000000000000000000000000000010000000000000000000000000000000000000000000000100000040000000000400000000000000004000000000000000000000000000000200000000000000000000040002000000000000000004000000000000000000000000000000000000000000000000004000000000000000000000000000000000400000000000000000000800000000000800000000000000000000000000000000000000000000000000800000000000000000",
      "type": "0x2",
      "transactionHash": "0x686d34804094293a5d19d3764653749e493f5499be7821a0eff0af78826cd621",
      "transactionIndex": "0xe1",
      "blockHash": "0x17520db3fe6366c0ddd7e8da7ea551ce9523ba5fb862a071e16d21f0ff603682",
      "blockNumber": "0x26196f5",
      "gasUsed": "0xd3f5",
      "effectiveGasPrice": "0xb638b",
      "blobGasUsed": "0x8a61",
      "from": "0xe403f79171b7050c78479f52e49e753d43e72c1a",
      "to": "0xad473eaa51821c915d03d9db5349a0586d55e55e",
      "contractAddress": null,
      "daFootprintGasScalar": "0x145",
      "l1BaseFeeScalar": "0x8dd",
      "l1BlobBaseFee": "0x17792f",
      "l1BlobBaseFeeScalar": "0x101c12",
      "l1Fee": "0x1112a2e4",
      "l1GasPrice": "0x19f3d9f",
      "l1GasUsed": "0x6da"
    },
    {
      "status": "0x1",
      "cumulativeGasUsed": "0x29d75bc",
      "logs": [
        {
          "address": "0xad473eaa51821c915d03d9db5349a0586d55e55e",
          "topics": [
            "0x36e13ba1e45df3ecb8f6beb6274a1f5d4abf4c0792bb56700354f0d50bf0acd7",
            "0x000000000000000000000000000000000000000000000000000000000000002d",
            "0x000000000000000000000000e403f79171b7050c78479f52e49e753d43e72c1a"
          ],
          "data": "0xe8773807ffd17108aa2d132cec684352f2c5c8337ff4659cc010d15b0551847d0000000000000000000000000000000000000000000000000000000000000001000000000000000000000000000000000000000000000000000000000000006000000000000000000000000000000000000000000000000000000000000000043424000000000000000000000000000000000000000000000000000000000000",
          "blockHash": "0x17520db3fe6366c0ddd7e8da7ea551ce9523ba5fb862a071e16d21f0ff603682",
          "blockNumber": "0x26196f5",
          "blockTimestamp": "0x694d8acd",
          "transactionHash": "0x6489917b0bc8efe4d68bdf67e9ff8bfda8622d1ceae80220a050c8c42d97d0f4",
          "transactionIndex": "0xe2",
          "logIndex": "0x2c3",
          "removed": false
        },
        {
          "address": "0xad473eaa51821c915d03d9db5349a0586d55e55e",
          "topics": [
            "0x36e13ba1e45df3ecb8f6beb6274a1f5d4abf4c0792bb56700354f0d50bf0acd7",
            "0x000000000000000000000000000000000000000000000000000000000000002d",
            "0x000000000000000000000000ad473eaa51821c915d03d9db5349a0586d55e55e"
          ],
          "data": "0xf4bb36a023d03b095a88119a20a9000a252aea11d80408b3bd0c6bade87b4ba70000000000000000000000000000000000000000000000000000000000000002000000000000000000000000000000000000000000000000000000000000006000000000000000000000000000000000000000000000000000000000000000043424000000000000000000000000000000000000000000000000000000000000",
          "blockHash": "0x17520db3fe6366c0ddd7e8da7ea551ce9523ba5fb862a071e16d21f0ff603682",
          "blockNumber": "0x26196f5",
          "blockTimestamp": "0x694d8acd",
          "transactionHash": "0x6489917b0bc8efe4d68bdf67e9ff8bfda8622d1ceae80220a050c8c42d97d0f4",
          "transactionIndex": "0xe2",
          "logIndex": "0x2c4",
          "removed": false
        }
      ],
      "logsBloom": "0x00000000000000000000000000000000000000000000000000000000000400000000000000000000000000000000000000000000000000000000000400000000000000000000000000000000000000000000000010000000000000000000000000000000000000000000000000000040000000000400000000000000000000000000000000000000000000000200000000000000000000040002000000000000000004000000000000000000000000000000000000000000000010004000000000000000000000000000000000400000000000000000000000000000400800000000000000000000000000000000000000000000000000800000000000000000",
      "type": "0x2",
      "transactionHash": "0x6489917b0bc8efe4d68bdf67e9ff8bfda8622d1ceae80220a050c8c42d97d0f4",
      "transactionIndex": "0xe2",
      "blockHash": "0x17520db3fe6366c0ddd7e8da7ea551ce9523ba5fb862a071e16d21f0ff603682",
      "blockNumber": "0x26196f5",
      "gasUsed": "0x11617",
      "effectiveGasPrice": "0xb638b",
      "blobGasUsed": "0x8a61",
      "from": "0xe403f79171b7050c78479f52e49e753d43e72c1a",
      "to": "0xad473eaa51821c915d03d9db5349a0586d55e55e",
      "contractAddress": null,
      "daFootprintGasScalar": "0x145",
      "l1BaseFeeScalar": "0x8dd",
      "l1BlobBaseFee": "0x17792f",
      "l1BlobBaseFeeScalar": "0x101c12",
      "l1Fee": "0x1112a2e4",
      "l1GasPrice": "0x19f3d9f",
      "l1GasUsed": "0x6da"
    },
    {
      "status": "0x1",
      "cumulativeGasUsed": "0x29e49b1",
      "logs": [
        {
          "address": "0xad473eaa51821c915d03d9db5349a0586d55e55e",
          "topics": [
            "0x36e13ba1e45df3ecb8f6beb6274a1f5d4abf4c0792bb56700354f0d50bf0acd7",
            "0x000000000000000000000000000000000000000000000000000000000000002d",
            "0x000000000000000000000000e403f79171b7050c78479f52e49e753d43e72c1a"
          ],
          "data": "0x0692c63251d62c8f04eed454cc75e5bc199ba842e6b8106095e5d806a5e48cfa0000000000000000000000000000000000000000000000000000000000000003000000000000000000000000000000000000000000000000000000000000006000000000000000000000000000000000000000000000000000000000000000043323000000000000000000000000000000000000000000000000000000000000",
          "blockHash": "0x17520db3fe6366c0ddd7e8da7ea551ce9523ba5fb862a071e16d21f0ff603682",
          "blockNumber": "0x26196f5",
          "blockTimestamp": "0x694d8acd",
          "transactionHash": "0xa0207d5d04b1c1c7b566bcb927ac66f18c065178131c4ba6db9430b96b21e16f",
          "transactionIndex": "0xe3",
          "logIndex": "0x2c5",
          "removed": false
        },
        {
          "address": "0xad473eaa51821c915d03d9db5349a0586d55e55e",
          "topics": [
            "0x36e13ba1e45df3ecb8f6beb6274a1f5d4abf4c0792bb56700354f0d50bf0acd7",
            "0x000000000000000000000000000000000000000000000000000000000000002d",
            "0x000000000000000000000000ad473eaa51821c915d03d9db5349a0586d55e55e"
          ],
          "data": "0x80db663b91d50261d3b6cf7c40f14617bc570551fdc50ae5d379aac6ea1fb5d50000000000000000000000000000000000000000000000000000000000000004000000000000000000000000000000000000000000000000000000000000006000000000000000000000000000000000000000000000000000000000000000043d0c000000000000000000000000000000000000000000000000000000000000",
          "blockHash": "0x17520db3fe6366c0ddd7e8da7ea551ce9523ba5fb862a071e16d21f0ff603682",
          "blockNumber": "0x26196f5",
          "blockTimestamp": "0x694d8acd",
          "transactionHash": "0xa0207d5d04b1c1c7b566bcb927ac66f18c065178131c4ba6db9430b96b21e16f",
          "transactionIndex": "0xe3",
          "logIndex": "0x2c6",
          "removed": false
        }
      ],
      "logsBloom": "0x00000000000000000000000000000000000000000000000000000000000400000000000000000000000000000000000000000000000000000000000400000000000000000000000000000000000000000000000010000000000000000000000000000000000000000000000000000040000000000400000000000000000000000000000000000000000000000200000000000000000000040002000000000000000004000000000000000000000000000000000000000000000010004000000000000000000000000000000000400000000000000000000000000000400800000000000000000000000000000000000000000000000000800000000000000000",
      "type": "0x2",
      "transactionHash": "0xa0207d5d04b1c1c7b566bcb927ac66f18c065178131c4ba6db9430b96b21e16f",
      "transactionIndex": "0xe3",
      "blockHash": "0x17520db3fe6366c0ddd7e8da7ea551ce9523ba5fb862a071e16d21f0ff603682",
      "blockNumber": "0x26196f5",
      "gasUsed": "0xd3f5",
      "effectiveGasPrice": "0xb638b",
      "blobGasUsed": "0x8a61",
      "from": "0xe403f79171b7050c78479f52e49e753d43e72c1a",
      "to": "0xad473eaa51821c915d03d9db5349a0586d55e55e",
      "contractAddress": null,
      "daFootprintGasScalar": "0x145",
      "l1BaseFeeScalar": "0x8dd",
      "l1BlobBaseFee": "0x17792f",
      "l1BlobBaseFeeScalar": "0x101c12",
      "l1Fee": "0x1112a2e4",
      "l1GasPrice": "0x19f3d9f",
      "l1GasUsed": "0x6da"
    },
    {
      "status": "0x1",
      "cumulativeGasUsed": "0x29f1da6",
      "logs": [
        {
          "address": "0xad473eaa51821c915d03d9db5349a0586d55e55e",
          "topics": [
            "0x36e13ba1e45df3ecb8f6beb6274a1f5d4abf4c0792bb56700354f0d50bf0acd7",
            "0x000000000000000000000000000000000000000000000000000000000000002d",
            "0x000000000000000000000000e403f79171b7050c78479f52e49e753d43e72c1a"
          ],
          "data": "0x4442d021ec118fea7ce3641d3375363801af2e92adb1272f726cf20292795a62000000000000000000000000000000000000000000000000000000000000000500000000000000000000000000000000000000000000000000000000000000600000000000000000000000000000000000000000000000000000000000000004392a000000000000000000000000000000000000000000000000000000000000",
          "blockHash": "0x17520db3fe6366c0ddd7e8da7ea551ce9523ba5fb862a071e16d21f0ff603682",
          "blockNumber": "0x26196f5",
          "blockTimestamp": "0x694d8acd",
          "transactionHash": "0xefb7c8c4cbf3e3b0e87c1af2c5a969fdaa09a167400a3125e53ca9e60e144d99",
          "transactionIndex": "0xe4",
          "logIndex": "0x2c7",
          "removed": false
        },
        {
          "address": "0xad473eaa51821c915d03d9db5349a0586d55e55e",
          "topics": [
            "0x36e13ba1e45df3ecb8f6beb6274a1f5d4abf4c0792bb56700354f0d50bf0acd7",
            "0x000000000000000000000000000000000000000000000000000000000000002d",
            "0x000000000000000000000000ad473eaa51821c915d03d9db5349a0586d55e55e"
          ],
          "data": "0xe131cca08afe30756df90d03f27be0045be7f7a0d73031afbdf14f8a193cb8e6000000000000000000000000000000000000000000000000000000000000000600000000000000000000000000000000000000000000000000000000000000600000000000000000000000000000000000000000000000000000000000000004271a000000000000000000000000000000000000000000000000000000000000",
          "blockHash": "0x17520db3fe6366c0ddd7e8da7ea551ce9523ba5fb862a071e16d21f0ff603682",
          "blockNumber": "0x26196f5",
          "blockTimestamp": "0x694d8acd",
          "transactionHash": "0xefb7c8c4cbf3e3b0e87c1af2c5a969fdaa09a167400a3125e53ca9e60e144d99",
          "transactionIndex": "0xe4",
          "logIndex": "0x2c8",
          "removed": false
        }
      ],
      "logsBloom": "0x00000000000000000000000000000000000000000000000000000000000400000000000000000000000000000000000000000000000000000000000400000000000000000000000000000000000000000000000010000000000000000000000000000000000000000000000000000040000000000400000000000000000000000000000000000000000000000200000000000000000000040002000000000000000004000000000000000000000000000000000000000000000010004000000000000000000000000000000000400000000000000000000000000000400800000000000000000000000000000000000000000000000000800000000000000000",
      "type": "0x2",
      "transactionHash": "0xefb7c8c4cbf3e3b0e87c1af2c5a969fdaa09a167400a3125e53ca9e60e144d99",
      "transactionIndex": "0xe4",
      "blockHash": "0x17520db3fe6366c0ddd7e8da7ea551ce9523ba5fb862a071e16d21f0ff603682",
      "blockNumber": "0x26196f5",
      "gasUsed": "0xd3f5",
      "effectiveGasPrice": "0xb638b",
      "blobGasUsed": "0x8a61",
      "from": "0xe403f79171b7050c78479f52e49e753d43e72c1a",
      "to": "0xad473eaa51821c915d03d9db5349a0586d55e55e",
      "contractAddress": null,
      "daFootprintGasScalar": "0x145",
      "l1BaseFeeScalar": "0x8dd",
      "l1BlobBaseFee": "0x17792f",
      "l1BlobBaseFeeScalar": "0x101c12",
      "l1Fee": "0x1112a2e4",
      "l1GasPrice": "0x19f3d9f",
      "l1GasUsed": "0x6da"
    },
    {
      "status": "0x1",
      "cumulativeGasUsed": "0x29ff19b",
      "logs": [
        {
          "address": "0xad473eaa51821c915d03d9db5349a0586d55e55e",
          "topics": [
            "0x36e13ba1e45df3ecb8f6beb6274a1f5d4abf4c0792bb56700354f0d50bf0acd7",
            "0x000000000000000000000000000000000000000000000000000000000000002d",
            "0x000000000000000000000000e403f79171b7050c78479f52e49e753d43e72c1a"
          ],
          "data": "0xc7183fc0754b5e7da3b74bf364f8affe59ffdf73627f9b8e7d4991d4453bd3640000000000000000000000000000000000000000000000000000000000000007000000000000000000000000000000000000000000000000000000000000006000000000000000000000000000000000000000000000000000000000000000043b2c000000000000000000000000000000000000000000000000000000000000",
          "blockHash": "0x17520db3fe6366c0ddd7e8da7ea551ce9523ba5fb862a071e16d21f0ff603682",
          "blockNumber": "0x26196f5",
          "blockTimestamp": "0x694d8acd",
          "transactionHash": "0xaa6d8dc6b48e84e69c8cbb527f27f321e9b9de9c43c1f54972280257b37ba59d",
          "transactionIndex": "0xe5",
          "logIndex": "0x2c9",
          "removed": false
        },
        {
          "address": "0xad473eaa51821c915d03d9db5349a0586d55e55e",
          "topics": [
            "0x36e13ba1e45df3ecb8f6beb6274a1f5d4abf4c0792bb56700354f0d50bf0acd7",
            "0x000000000000000000000000000000000000000000000000000000000000002d",
            "0x000000000000000000000000ad473eaa51821c915d03d9db5349a0586d55e55e"
          ],
          "data": "0xfa672e07d673b2d218b92d8ee0e059b5d1bfc274c1d1aaf67086a3dbe5f1587f0000000000000000000000000000000000000000000000000000000000000008000000000000000000000000000000000000000000000000000000000000006000000000000000000000000000000000000000000000000000000000000000042b13000000000000000000000000000000000000000000000000000000000000",
          "blockHash": "0x17520db3fe6366c0ddd7e8da7ea551ce9523ba5fb862a071e16d21f0ff603682",
          "blockNumber": "0x26196f5",
          "blockTimestamp": "0x694d8acd",
          "transactionHash": "0xaa6d8dc6b48e84e69c8cbb527f27f321e9b9de9c43c1f54972280257b37ba59d",
          "transactionIndex": "0xe5",
          "logIndex": "0x2ca",
          "removed": false
        }
      ],
      "logsBloom": "0x00000000000000000000000000000000000000000000000000000000000400000000000000000000000000000000000000000000000000000000000400000000000000000000000000000000000000000000000010000000000000000000000000000000000000000000000000000040000000000400000000000000000000000000000000000000000000000200000000000000000000040002000000000000000004000000000000000000000000000000000000000000000010004000000000000000000000000000000000400000000000000000000000000000400800000000000000000000000000000000000000000000000000800000000000000000",
      "type": "0x2",
      "transactionHash": "0xaa6d8dc6b48e84e69c8cbb527f27f321e9b9de9c43c1f54972280257b37ba59d",
      "transactionIndex": "0xe5",
      "blockHash": "0x17520db3fe6366c0ddd7e8da7ea551ce9523ba5fb862a071e16d21f0ff603682",
      "blockNumber": "0x26196f5",
      "gasUsed": "0xd3f5",
      "effectiveGasPrice": "0xb638b",
      "blobGasUsed": "0x8a61",
      "from": "0xe403f79171b7050c78479f52e49e753d43e72c1a",
      "to": "0xad473eaa51821c915d03d9db5349a0586d55e55e",
      "contractAddress": null,
      "daFootprintGasScalar": "0x145",
      "l1BaseFeeScalar": "0x8dd",
      "l1BlobBaseFee": "0x17792f",
      "l1BlobBaseFeeScalar": "0x101c12",
      "l1Fee": "0x1112a2e4",
      "l1GasPrice": "0x19f3d9f",
      "l1GasUsed": "0x6da"
    },
    {
      "status": "0x1",
      "cumulativeGasUsed": "0x2a107a6",
      "logs": [
        {
          "address": "0xad473eaa51821c915d03d9db5349a0586d55e55e",
          "topics": [
            "0x36e13ba1e45df3ecb8f6beb6274a1f5d4abf4c0792bb56700354f0d50bf0acd7",
            "0x000000000000000000000000000000000000000000000000000000000000002e",
            "0x000000000000000000000000e403f79171b7050c78479f52e49e753d43e72c1a"
          ],
          "data": "0x90e396633e67bfb131a9c9b400ea842e0f29f45c4bc7872a0e80af48deb785040000000000000000000000000000000000000000000000000000000000000001000000000000000000000000000000000000000000000000000000000000006000000000000000000000000000000000000000000000000000000000000000043028000000000000000000000000000000000000000000000000000000000000",
          "blockHash": "0x17520db3fe6366c0ddd7e8da7ea551ce9523ba5fb862a071e16d21f0ff603682",
          "blockNumber": "0x26196f5",
          "blockTimestamp": "0x694d8acd",
          "transactionHash": "0xcd52242f962d2ef49a203e07ff3cf5b24740ea9db3b1acadea31f0072f1f9811",
          "transactionIndex": "0xe6",
          "logIndex": "0x2cb",
          "removed": false
        },
        {
          "address": "0xad473eaa51821c915d03d9db5349a0586d55e55e",
          "topics": [
            "0x36e13ba1e45df3ecb8f6beb6274a1f5d4abf4c0792bb56700354f0d50bf0acd7",
            "0x000000000000000000000000000000000000000000000000000000000000002e",
            "0x000000000000000000000000ad473eaa51821c915d03d9db5349a0586d55e55e"
          ],
          "data": "0x60e65b9330f95689004881ceb0c70271140d7a6c66037940d345a33188c341c30000000000000000000000000000000000000000000000000000000000000002000000000000000000000000000000000000000000000000000000000000006000000000000000000000000000000000000000000000000000000000000000043424000000000000000000000000000000000000000000000000000000000000",
          "blockHash": "0x17520db3fe6366c0ddd7e8da7ea551ce9523ba5fb862a071e16d21f0ff603682",
          "blockNumber": "0x26196f5",
          "blockTimestamp": "0x694d8acd",
          "transactionHash": "0xcd52242f962d2ef49a203e07ff3cf5b24740ea9db3b1acadea31f0072f1f9811",
          "transactionIndex": "0xe6",
          "logIndex": "0x2cc",
          "removed": false
        }
      ],
      "logsBloom": "0x04000000000000000000000000000000000000000000000000000000000400000000000000000000000000000000000000001000000000000000000000000000000000000000000080000000000000000000000010000000000000000000000000000000000000000000000000000040000000000400000000000000000000000000000000000000000000000200000000000000000000040002000000000000000004000000000000000000000000000000000000000000000000004000000000000000000000000000000000400000000000000000000000000000000800000000000000000000000000000000000000000000000000800000000000000000",
      "type": "0x2",
      "transactionHash": "0xcd52242f962d2ef49a203e07ff3cf5b24740ea9db3b1acadea31f0072f1f9811",
      "transactionIndex": "0xe6",
      "blockHash": "0x17520db3fe6366c0ddd7e8da7ea551ce9523ba5fb862a071e16d21f0ff603682",
      "blockNumber": "0x26196f5",
      "gasUsed": "0x1160b",
      "effectiveGasPrice": "0xb638b",
      "blobGasUsed": "0x8a61",
      "from": "0xe403f79171b7050c78479f52e49e753d43e72c1a",
      "to": "0xad473eaa51821c915d03d9db5349a0586d55e55e",
      "contractAddress": null,
      "daFootprintGasScalar": "0x145",
      "l1BaseFeeScalar": "0x8dd",
      "l1BlobBaseFee": "0x17792f",
      "l1BlobBaseFeeScalar": "0x101c12",
      "l1Fee": "0x1112a2e4",
      "l1GasPrice": "0x19f3d9f",
      "l1GasUsed": "0x6da"
    },
    {
      "status": "0x1",
      "cumulativeGasUsed": "0x366cce0",
      "logs": [
        {
          "address": "0xad473eaa51821c915d03d9db5349a0586d55e55e",
          "topics": [
            "0x36e13ba1e45df3ecb8f6beb6274a1f5d4abf4c0792bb56700354f0d50bf0acd7",
            "0x000000000000000000000000000000000000000000000000000000000000002e",
            "0x000000000000000000000000e403f79171b7050c78479f52e49e753d43e72c1a"
          ],
          "data": "0xfc6cc8976638831fc84ceab234894f532e0338e7268a3303d4c0c1939f85dbb90000000000000000000000000000000000000000000000000000000000000003000000000000000000000000000000000000000000000000000000000000006000000000000000000000000000000000000000000000000000000000000000043222000000000000000000000000000000000000000000000000000000000000",
          "blockHash": "0x17520db3fe6366c0ddd7e8da7ea551ce9523ba5fb862a071e16d21f0ff603682",
          "blockNumber": "0x26196f5",
          "blockTimestamp": "0x694d8acd",
          "transactionHash": "0x9a91fda368e067711f2307b26b17f35e68c534f8eb2cbef92f5159c8858c2605",
          "transactionIndex": "0x119",
          "logIndex": "0x363",
          "removed": false
        },
        {
          "address": "0xad473eaa51821c915d03d9db5349a0586d55e55e",
          "topics": [
            "0x36e13ba1e45df3ecb8f6beb6274a1f5d4abf4c0792bb56700354f0d50bf0acd7",
            "0x000000000000000000000000000000000000000000000000000000000000002e",
            "0x000000000000000000000000ad473eaa51821c915d03d9db5349a0586d55e55e"
          ],
          "data": "0x0192d1e4a25acce6e7a2d4e8900eba6030b412ccc2d92d174c541b9d6055ff390000000000000000000000000000000000000000000000000000000000000004000000000000000000000000000000000000000000000000000000000000006000000000000000000000000000000000000000000000000000000000000000043c1b000000000000000000000000000000000000000000000000000000000000",
          "blockHash": "0x17520db3fe6366c0ddd7e8da7ea551ce9523ba5fb862a071e16d21f0ff603682",
          "blockNumber": "0x26196f5",
          "blockTimestamp": "0x694d8acd",
          "transactionHash": "0x9a91fda368e067711f2307b26b17f35e68c534f8eb2cbef92f5159c8858c2605",
          "transactionIndex": "0x119",
          "logIndex": "0x364",
          "removed": false
        }
      ],
      "logsBloom": "0x04000000000000000000000000000000000000000000000000000000000400000000000000000000000000000000000000001000000000000000000000000000000000000000000080000000000000000000000010000000000000000000000000000000000000000000000000000040000000000400000000000000000000000000000000000000000000000200000000000000000000040002000000000000000004000000000000000000000000000000000000000000000000004000000000000000000000000000000000400000000000000000000000000000000800000000000000000000000000000000000000000000000000800000000000000000",
      "type": "0x2",
      "transactionHash": "0x9a91fda368e067711f2307b26b17f35e68c534f8eb2cbef92f5159c8858c2605",
      "transactionIndex": "0x119",
      "blockHash": "0x17520db3fe6366c0ddd7e8da7ea551ce9523ba5fb862a071e16d21f0ff603682",
      "blockNumber": "0x26196f5",
      "gasUsed": "0xd3f5",
      "effectiveGasPrice": "0xb638b",
      "blobGasUsed": "0x8a61",
      "from": "0xe403f79171b7050c78479f52e49e753d43e72c1a",
      "to": "0xad473eaa51821c915d03d9db5349a0586d55e55e",
      "contractAddress": null,
      "daFootprintGasScalar": "0x145",
      "l1BaseFeeScalar": "0x8dd",
      "l1BlobBaseFee": "0x17792f",
      "l1BlobBaseFeeScalar": "0x101c12",
      "l1Fee": "0x1112a2e4",
      "l1GasPrice": "0x19f3d9f",
      "l1GasUsed": "0x6da"
    },
    {
      "status": "0x1",
      "cumulativeGasUsed": "0x367a0d5",
      "logs": [
        {
          "address": "0xad473eaa51821c915d03d9db5349a0586d55e55e",
          "topics": [
            "0x36e13ba1e45df3ecb8f6beb6274a1f5d4abf4c0792bb56700354f0d50bf0acd7",
            "0x000000000000000000000000000000000000000000000000000000000000002e",
            "0x000000000000000000000000e403f79171b7050c78479f52e49e753d43e72c1a"
          ],
          "data": "0xbb9afb9861b8290cda948e4af3b636449a44547dca4c3acbc45e65f4e22aab400000000000000000000000000000000000000000000000000000000000000005000000000000000000000000000000000000000000000000000000000000006000000000000000000000000000000000000000000000000000000000000000043129000000000000000000000000000000000000000000000000000000000000",
          "blockHash": "0x17520db3fe6366c0ddd7e8da7ea551ce9523ba5fb862a071e16d21f0ff603682",
          "blockNumber": "0x26196f5",
          "blockTimestamp": "0x694d8acd",
          "transactionHash": "0xe27831338a5f218eb11154bc64adc771473375bd4fbe12d112ce47fd3c21d111",
          "transactionIndex": "0x11a",
          "logIndex": "0x365",
          "removed": false
        },
        {
          "address": "0xad473eaa51821c915d03d9db5349a0586d55e55e",
          "topics": [
            "0x36e13ba1e45df3ecb8f6beb6274a1f5d4abf4c0792bb56700354f0d50bf0acd7",
            "0x000000000000000000000000000000000000000000000000000000000000002e",
            "0x000000000000000000000000ad473eaa51821c915d03d9db5349a0586d55e55e"
          ],
          "data": "0x2760255e5f8c0d33599f68866f7b7bdd30ba831d73410b4548d9b6c2e2478d1c000000000000000000000000000000000000000000000000000000000000000600000000000000000000000000000000000000000000000000000000000000600000000000000000000000000000000000000000000000000000000000000004052b000000000000000000000000000000000000000000000000000000000000",
          "blockHash": "0x17520db3fe6366c0ddd7e8da7ea551ce9523ba5fb862a071e16d21f0ff603682",
          "blockNumber": "0x26196f5",
          "blockTimestamp": "0x694d8acd",
          "transactionHash": "0xe27831338a5f218eb11154bc64adc771473375bd4fbe12d112ce47fd3c21d111",
          "transactionIndex": "0x11a",
          "logIndex": "0x366",
          "removed": false
        }
      ],
      "logsBloom": "0x04000000000000000000000000000000000000000000000000000000000400000000000000000000000000000000000000001000000000000000000000000000000000000000000080000000000000000000000010000000000000000000000000000000000000000000000000000040000000000400000000000000000000000000000000000000000000000200000000000000000000040002000000000000000004000000000000000000000000000000000000000000000000004000000000000000000000000000000000400000000000000000000000000000000800000000000000000000000000000000000000000000000000800000000000000000",
      "type": "0x2",
      "transactionHash": "0xe27831338a5f218eb11154bc64adc771473375bd4fbe12d112ce47fd3c21d111",
      "transactionIndex": "0x11a",
      "blockHash": "0x17520db3fe6366c0ddd7e8da7ea551ce9523ba5fb862a071e16d21f0ff603682",
      "blockNumber": "0x26196f5",
      "gasUsed": "0xd3f5",
      "effectiveGasPrice": "0xb638b",
      "blobGasUsed": "0x8a61",
      "from": "0xe403f79171b7050c78479f52e49e753d43e72c1a",
      "to": "0xad473eaa51821c915d03d9db5349a0586d55e55e",
      "contractAddress": null,
      "daFootprintGasScalar": "0x145",
      "l1BaseFeeScalar": "0x8dd",
      "l1BlobBaseFee": "0x17792f",
      "l1BlobBaseFeeScalar": "0x101c12",
      "l1Fee": "0x1112a2e4",
      "l1GasPrice": "0x19f3d9f",
      "l1GasUsed": "0x6da"
    },
    {
      "status": "0x1",
      "cumulativeGasUsed": "0x36874ca",
      "logs": [
        {
          "address": "0xad473eaa51821c915d03d9db5349a0586d55e55e",
          "topics": [
            "0x36e13ba1e45df3ecb8f6beb6274a1f5d4abf4c0792bb56700354f0d50bf0acd7",
            "0x000000000000000000000000000000000000000000000000000000000000002e",
            "0x000000000000000000000000e403f79171b7050c78479f52e49e753d43e72c1a"
          ],
          "data": "0x2a4b22ea265f7017c3f5040f1eec7d58baac29eda24dc699336157972973d8e10000000000000000000000000000000000000000000000000000000000000007000000000000000000000000000000000000000000000000000000000000006000000000000000000000000000000000000000000000000000000000000000043a2b000000000000000000000000000000000000000000000000000000000000",
          "blockHash": "0x17520db3fe6366c0ddd7e8da7ea551ce9523ba5fb862a071e16d21f0ff603682",
          "blockNumber": "0x26196f5",
          "blockTimestamp": "0x694d8acd",
          "transactionHash": "0xcb07bd455dda318714b616f216c845248ddaa123510a5b8bdc5c3ce2608594a3",
          "transactionIndex": "0x11b",
          "logIndex": "0x367",
          "removed": false
        },
        {
          "address": "0xad473eaa51821c915d03d9db5349a0586d55e55e",
          "topics": [
            "0x36e13ba1e45df3ecb8f6beb6274a1f5d4abf4c0792bb56700354f0d50bf0acd7",
            "0x000000000000000000000000000000000000000000000000000000000000002e",
            "0x000000000000000000000000ad473eaa51821c915d03d9db5349a0586d55e55e"
          ],
          "data": "0x55f26890947882f1207e2a875a0d392857a077e9af9ea320f39541f65d9244dd0000000000000000000000000000000000000000000000000000000000000008000000000000000000000000000000000000000000000000000000000000006000000000000000000000000000000000000000000000000000000000000000042818000000000000000000000000000000000000000000000000000000000000",
          "blockHash": "0x17520db3fe6366c0ddd7e8da7ea551ce9523ba5fb862a071e16d21f0ff603682",
          "blockNumber": "0x26196f5",
          "blockTimestamp": "0x694d8acd",
          "transactionHash": "0xcb07bd455dda318714b616f216c845248ddaa123510a5b8bdc5c3ce2608594a3",
          "transactionIndex": "0x11b",
          "logIndex": "0x368",
          "removed": false
        }
      ],
      "logsBloom": "0x04000000000000000000000000000000000000000000000000000000000400000000000000000000000000000000000000001000000000000000000000000000000000000000000080000000000000000000000010000000000000000000000000000000000000000000000000000040000000000400000000000000000000000000000000000000000000000200000000000000000000040002000000000000000004000000000000000000000000000000000000000000000000004000000000000000000000000000000000400000000000000000000000000000000800000000000000000000000000000000000000000000000000800000000000000000",
      "type": "0x2",
      "transactionHash": "0xcb07bd455dda318714b616f216c845248ddaa123510a5b8bdc5c3ce2608594a3",
      "transactionIndex": "0x11b",
      "blockHash": "0x17520db3fe6366c0ddd7e8da7ea551ce9523ba5fb862a071e16d21f0ff603682",
      "blockNumber": "0x26196f5",
      "gasUsed": "0xd3f5",
      "effectiveGasPrice": "0xb638b",
      "blobGasUsed": "0x8a61",
      "from": "0xe403f79171b7050c78479f52e49e753d43e72c1a",
      "to": "0xad473eaa51821c915d03d9db5349a0586d55e55e",
      "contractAddress": null,
      "daFootprintGasScalar": "0x145",
      "l1BaseFeeScalar": "0x8dd",
      "l1BlobBaseFee": "0x17792f",
      "l1BlobBaseFeeScalar": "0x101c12",
      "l1Fee": "0x1112a2e4",
      "l1GasPrice": "0x19f3d9f",
      "l1GasUsed": "0x6da"
    },
    {
      "status": "0x1",
      "cumulativeGasUsed": "0x3698ae1",
      "logs": [
        {
          "address": "0xad473eaa51821c915d03d9db5349a0586d55e55e",
          "topics": [
            "0x36e13ba1e45df3ecb8f6beb6274a1f5d4abf4c0792bb56700354f0d50bf0acd7",
            "0x000000000000000000000000000000000000000000000000000000000000002f",
            "0x000000000000000000000000e403f79171b7050c78479f52e49e753d43e72c1a"
          ],
          "data": "0xe8773807ffd17108aa2d132cec684352f2c5c8337ff4659cc010d15b0551847d0000000000000000000000000000000000000000000000000000000000000001000000000000000000000000000000000000000000000000000000000000006000000000000000000000000000000000000000000000000000000000000000043424000000000000000000000000000000000000000000000000000000000000",
          "blockHash": "0x17520db3fe6366c0ddd7e8da7ea551ce9523ba5fb862a071e16d21f0ff603682",
          "blockNumber": "0x26196f5",
          "blockTimestamp": "0x694d8acd",
          "transactionHash": "0x0defe599b24d5a45f0d8e69f6da324743c1f1a673ae7703601433f20d59a7aa5",
          "transactionIndex": "0x11c",
          "logIndex": "0x369",
          "removed": false
        },
        {
          "address": "0xad473eaa51821c915d03d9db5349a0586d55e55e",
          "topics": [
            "0x36e13ba1e45df3ecb8f6beb6274a1f5d4abf4c0792bb56700354f0d50bf0acd7",
            "0x000000000000000000000000000000000000000000000000000000000000002f",
            "0x000000000000000000000000ad473eaa51821c915d03d9db5349a0586d55e55e"
          ],
          "data": "0xf4bb36a023d03b095a88119a20a9000a252aea11d80408b3bd0c6bade87b4ba70000000000000000000000000000000000000000000000000000000000000002000000000000000000000000000000000000000000000000000000000000006000000000000000000000000000000000000000000000000000000000000000043424000000000000000000000000000000000000000000000000000000000000",
          "blockHash": "0x17520db3fe6366c0ddd7e8da7ea551ce9523ba5fb862a071e16d21f0ff603682",
          "blockNumber": "0x26196f5",
          "blockTimestamp": "0x694d8acd",
          "transactionHash": "0x0defe599b24d5a45f0d8e69f6da324743c1f1a673ae7703601433f20d59a7aa5",
          "transactionIndex": "0x11c",
          "logIndex": "0x36a",
          "removed": false
        }
      ],
      "logsBloom": "0x00000000000000000000000000000000000080000000000000000000000400000000000000000000000000000000000000000000000000000000000000000000000000000000000000000000000000000000000010000000000000000000000000000000000000000000000000000040000000000400000000000000000000000000000000000000000000000200000000000000000000040002000000000000000004000000000000000000000000000000000000000000000000004000000000000000000000000000000000400000000000000000000000000000000800000000000000000000000000000000000000000000000004800000000000080000",
      "type": "0x2",
      "transactionHash": "0x0defe599b24d5a45f0d8e69f6da324743c1f1a673ae7703601433f20d59a7aa5",
      "transactionIndex": "0x11c",
      "blockHash": "0x17520db3fe6366c0ddd7e8da7ea551ce9523ba5fb862a071e16d21f0ff603682",
      "blockNumber": "0x26196f5",
      "gasUsed": "0x11617",
      "effectiveGasPrice": "0xb638b",
      "blobGasUsed": "0x8a61",
      "from": "0xe403f79171b7050c78479f52e49e753d43e72c1a",
      "to": "0xad473eaa51821c915d03d9db5349a0586d55e55e",
      "contractAddress": null,
      "daFootprintGasScalar": "0x145",
      "l1BaseFeeScalar": "0x8dd",
      "l1BlobBaseFee": "0x17792f",
      "l1BlobBaseFeeScalar": "0x101c12",
      "l1Fee": "0x1112a2e4",
      "l1GasPrice": "0x19f3d9f",
      "l1GasUsed": "0x6da"
    },
    {
      "status": "0x1",
      "cumulativeGasUsed": "0x36a5ed6",
      "logs": [
        {
          "address": "0xad473eaa51821c915d03d9db5349a0586d55e55e",
          "topics": [
            "0x36e13ba1e45df3ecb8f6beb6274a1f5d4abf4c0792bb56700354f0d50bf0acd7",
            "0x000000000000000000000000000000000000000000000000000000000000002f",
            "0x000000000000000000000000e403f79171b7050c78479f52e49e753d43e72c1a"
          ],
          "data": "0x0692c63251d62c8f04eed454cc75e5bc199ba842e6b8106095e5d806a5e48cfa0000000000000000000000000000000000000000000000000000000000000003000000000000000000000000000000000000000000000000000000000000006000000000000000000000000000000000000000000000000000000000000000043323000000000000000000000000000000000000000000000000000000000000",
          "blockHash": "0x17520db3fe6366c0ddd7e8da7ea551ce9523ba5fb862a071e16d21f0ff603682",
          "blockNumber": "0x26196f5",
          "blockTimestamp": "0x694d8acd",
          "transactionHash": "0x0e8c63ebb6dc0e0a59e5e5727ec62efba895db1a4cd58c8ecf4f02209636e03a",
          "transactionIndex": "0x11d",
          "logIndex": "0x36b",
          "removed": false
        },
        {
          "address": "0xad473eaa51821c915d03d9db5349a0586d55e55e",
          "topics": [
            "0x36e13ba1e45df3ecb8f6beb6274a1f5d4abf4c0792bb56700354f0d50bf0acd7",
            "0x000000000000000000000000000000000000000000000000000000000000002f",
            "0x000000000000000000000000ad473eaa51821c915d03d9db5349a0586d55e55e"
          ],
          "data": "0x80db663b91d50261d3b6cf7c40f14617bc570551fdc50ae5d379aac6ea1fb5d50000000000000000000000000000000000000000000000000000000000000004000000000000000000000000000000000000000000000000000000000000006000000000000000000000000000000000000000000000000000000000000000043d0c000000000000000000000000000000000000000000000000000000000000",
          "blockHash": "0x17520db3fe6366c0ddd7e8da7ea551ce9523ba5fb862a071e16d21f0ff603682",
          "blockNumber": "0x26196f5",
          "blockTimestamp": "0x694d8acd",
          "transactionHash": "0x0e8c63ebb6dc0e0a59e5e5727ec62efba895db1a4cd58c8ecf4f02209636e03a",
          "transactionIndex": "0x11d",
          "logIndex": "0x36c",
          "removed": false
        }
      ],
      "logsBloom": "0x00000000000000000000000000000000000080000000000000000000000400000000000000000000000000000000000000000000000000000000000000000000000000000000000000000000000000000000000010000000000000000000000000000000000000000000000000000040000000000400000000000000000000000000000000000000000000000200000000000000000000040002000000000000000004000000000000000000000000000000000000000000000000004000000000000000000000000000000000400000000000000000000000000000000800000000000000000000000000000000000000000000000004800000000000080000",
      "type": "0x2",
      "transactionHash": "0x0e8c63ebb6dc0e0a59e5e5727ec62efba895db1a4cd58c8ecf4f02209636e03a",
      "transactionIndex": "0x11d",
      "blockHash": "0x17520db3fe6366c0ddd7e8da7ea551ce9523ba5fb862a071e16d21f0ff603682",
      "blockNumber": "0x26196f5",
      "gasUsed": "0xd3f5",
      "effectiveGasPrice": "0xb638b",
      "blobGasUsed": "0x8a61",
      "from": "0xe403f79171b7050c78479f52e49e753d43e72c1a",
      "to": "0xad473eaa51821c915d03d9db5349a0586d55e55e",
      "contractAddress": null,
      "daFootprintGasScalar": "0x145",
      "l1BaseFeeScalar": "0x8dd",
      "l1BlobBaseFee": "0x17792f",
      "l1BlobBaseFeeScalar": "0x101c12",
      "l1Fee": "0x1112a2e4",
      "l1GasPrice": "0x19f3d9f",
      "l1GasUsed": "0x6da"
    },
    {
      "status": "0x1",
      "cumulativeGasUsed": "0x36b32cb",
      "logs": [
        {
          "address": "0xad473eaa51821c915d03d9db5349a0586d55e55e",
          "topics": [
            "0x36e13ba1e45df3ecb8f6beb6274a1f5d4abf4c0792bb56700354f0d50bf0acd7",
            "0x000000000000000000000000000000000000000000000000000000000000002f",
            "0x000000000000000000000000e403f79171b7050c78479f52e49e753d43e72c1a"
          ],
          "data": "0x4442d021ec118fea7ce3641d3375363801af2e92adb1272f726cf20292795a62000000000000000000000000000000000000000000000000000000000000000500000000000000000000000000000000000000000000000000000000000000600000000000000000000000000000000000000000000000000000000000000004392a000000000000000000000000000000000000000000000000000000000000",
          "blockHash": "0x17520db3fe6366c0ddd7e8da7ea551ce9523ba5fb862a071e16d21f0ff603682",
          "blockNumber": "0x26196f5",
          "blockTimestamp": "0x694d8acd",
          "transactionHash": "0x9802de4c3c3ce700b626b1b60b03352d0ac6862d1aead24f78462317cf2442aa",
          "transactionIndex": "0x11e",
          "logIndex": "0x36d",
          "removed": false
        },
        {
          "address": "0xad473eaa51821c915d03d9db5349a0586d55e55e",
          "topics": [
            "0x36e13ba1e45df3ecb8f6beb6274a1f5d4abf4c0792bb56700354f0d50bf0acd7",
            "0x000000000000000000000000000000000000000000000000000000000000002f",
            "0x000000000000000000000000ad473eaa51821c915d03d9db5349a0586d55e55e"
          ],
          "data": "0xe131cca08afe30756df90d03f27be0045be7f7a0d73031afbdf14f8a193cb8e6000000000000000000000000000000000000000000000000000000000000000600000000000000000000000000000000000000000000000000000000000000600000000000000000000000000000000000000000000000000000000000000004271a000000000000000000000000000000000000000000000000000000000000",
          "blockHash": "0x17520db3fe6366c0ddd7e8da7ea551ce9523ba5fb862a071e16d21f0ff603682",
          "blockNumber": "0x26196f5",
          "blockTimestamp": "0x694d8acd",
          "transactionHash": "0x9802de4c3c3ce700b626b1b60b03352d0ac6862d1aead24f78462317cf2442aa",
          "transactionIndex": "0x11e",
          "logIndex": "0x36e",
          "removed": false
        }
      ],
      "logsBloom": "0x00000000000000000000000000000000000080000000000000000000000400000000000000000000000000000000000000000000000000000000000000000000000000000000000000000000000000000000000010000000000000000000000000000000000000000000000000000040000000000400000000000000000000000000000000000000000000000200000000000000000000040002000000000000000004000000000000000000000000000000000000000000000000004000000000000000000000000000000000400000000000000000000000000000000800000000000000000000000000000000000000000000000004800000000000080000",
      "type": "0x2",
      "transactionHash": "0x9802de4c3c3ce700b626b1b60b03352d0ac6862d1aead24f78462317cf2442aa",
      "transactionIndex": "0x11e",
      "blockHash": "0x17520db3fe6366c0ddd7e8da7ea551ce9523ba5fb862a071e16d21f0ff603682",
      "blockNumber": "0x26196f5",
      "gasUsed": "0xd3f5",
      "effectiveGasPrice": "0xb638b",
      "blobGasUsed": "0x8a61",
      "from": "0xe403f79171b7050c78479f52e49e753d43e72c1a",
      "to": "0xad473eaa51821c915d03d9db5349a0586d55e55e",
      "contractAddress": null,
      "daFootprintGasScalar": "0x145",
      "l1BaseFeeScalar": "0x8dd",
      "l1BlobBaseFee": "0x17792f",
      "l1BlobBaseFeeScalar": "0x101c12",
      "l1Fee": "0x1112a2e4",
      "l1GasPrice": "0x19f3d9f",
      "l1GasUsed": "0x6da"
    },
    {
      "status": "0x1",
      "cumulativeGasUsed": "0x36c06c0",
      "logs": [
        {
          "address": "0xad473eaa51821c915d03d9db5349a0586d55e55e",
          "topics": [
            "0x36e13ba1e45df3ecb8f6beb6274a1f5d4abf4c0792bb56700354f0d50bf0acd7",
            "0x000000000000000000000000000000000000000000000000000000000000002f",
            "0x000000000000000000000000e403f79171b7050c78479f52e49e753d43e72c1a"
          ],
          "data": "0xc7183fc0754b5e7da3b74bf364f8affe59ffdf73627f9b8e7d4991d4453bd3640000000000000000000000000000000000000000000000000000000000000007000000000000000000000000000000000000000000000000000000000000006000000000000000000000000000000000000000000000000000000000000000043b2c000000000000000000000000000000000000000000000000000000000000",
          "blockHash": "0x17520db3fe6366c0ddd7e8da7ea551ce9523ba5fb862a071e16d21f0ff603682",
          "blockNumber": "0x26196f5",
          "blockTimestamp": "0x694d8acd",
          "transactionHash": "0x8a5f76d9bd772c853d2136b51d1f8fcb4c5b4835337d47a757f54e46cb9db0c1",
          "transactionIndex": "0x11f",
          "logIndex": "0x36f",
          "removed": false
        },
        {
          "address": "0xad473eaa51821c915d03d9db5349a0586d55e55e",
          "topics": [
            "0x36e13ba1e45df3ecb8f6beb6274a1f5d4abf4c0792bb56700354f0d50bf0acd7",
            "0x000000000000000000000000000000000000000000000000000000000000002f",
            "0x000000000000000000000000ad473eaa51821c915d03d9db5349a0586d55e55e"
          ],
          "data": "0xfa672e07d673b2d218b92d8ee0e059b5d1bfc274c1d1aaf67086a3dbe5f1587f0000000000000000000000000000000000000000000000000000000000000008000000000000000000000000000000000000000000000000000000000000006000000000000000000000000000000000000000000000000000000000000000042b13000000000000000000000000000000000000000000000000000000000000",
          "blockHash": "0x17520db3fe6366c0ddd7e8da7ea551ce9523ba5fb862a071e16d21f0ff603682",
          "blockNumber": "0x26196f5",
          "blockTimestamp": "0x694d8acd",
          "transactionHash": "0x8a5f76d9bd772c853d2136b51d1f8fcb4c5b4835337d47a757f54e46cb9db0c1",
          "transactionIndex": "0x11f",
          "logIndex": "0x370",
          "removed": false
        }
      ],
      "logsBloom": "0x00000000000000000000000000000000000080000000000000000000000400000000000000000000000000000000000000000000000000000000000000000000000000000000000000000000000000000000000010000000000000000000000000000000000000000000000000000040000000000400000000000000000000000000000000000000000000000200000000000000000000040002000000000000000004000000000000000000000000000000000000000000000000004000000000000000000000000000000000400000000000000000000000000000000800000000000000000000000000000000000000000000000004800000000000080000",
      "type": "0x2",
      "transactionHash": "0x8a5f76d9bd772c853d2136b51d1f8fcb4c5b4835337d47a757f54e46cb9db0c1",
      "transactionIndex": "0x11f",
      "blockHash": "0x17520db3fe6366c0ddd7e8da7ea551ce9523ba5fb862a071e16d21f0ff603682",
      "blockNumber": "0x26196f5",
      "gasUsed": "0xd3f5",
      "effectiveGasPrice": "0xb638b",
      "blobGasUsed": "0x8a61",
      "from": "0xe403f79171b7050c78479f52e49e753d43e72c1a",
      "to": "0xad473eaa51821c915d03d9db5349a0586d55e55e",
      "contractAddress": null,
      "daFootprintGasScalar": "0x145",
      "l1BaseFeeScalar": "0x8dd",
      "l1BlobBaseFee": "0x17792f",
      "l1BlobBaseFeeScalar": "0x101c12",
      "l1Fee": "0x1112a2e4",
      "l1GasPrice": "0x19f3d9f",
      "l1GasUsed": "0x6da"
    },
    {
      "status": "0x1",
      "cumulativeGasUsed": "0x3faa2cf",
      "logs": [
        {
          "address": "0xad473eaa51821c915d03d9db5349a0586d55e55e",
          "topics": [
            "0x36e13ba1e45df3ecb8f6beb6274a1f5d4abf4c0792bb56700354f0d50bf0acd7",
            "0x0000000000000000000000000000000000000000000000000000000000000030",
            "0x000000000000000000000000e403f79171b7050c78479f52e49e753d43e72c1a"
          ],
          "data": "0x90e396633e67bfb131a9c9b400ea842e0f29f45c4bc7872a0e80af48deb785040000000000000000000000000000000000000000000000000000000000000001000000000000000000000000000000000000000000000000000000000000006000000000000000000000000000000000000000000000000000000000000000043028000000000000000000000000000000000000000000000000000000000000",
          "blockHash": "0x17520db3fe6366c0ddd7e8da7ea551ce9523ba5fb862a071e16d21f0ff603682",
          "blockNumber": "0x26196f5",
          "blockTimestamp": "0x694d8acd",
          "transactionHash": "0x059c9cb4206be718f6ff9b81a8f8f6441e548d1242047b5a21829b7d4f4a6219",
          "transactionIndex": "0x13c",
          "logIndex": "0x427",
          "removed": false
        },
        {
          "address": "0xad473eaa51821c915d03d9db5349a0586d55e55e",
          "topics": [
            "0x36e13ba1e45df3ecb8f6beb6274a1f5d4abf4c0792bb56700354f0d50bf0acd7",
            "0x0000000000000000000000000000000000000000000000000000000000000030",
            "0x000000000000000000000000ad473eaa51821c915d03d9db5349a0586d55e55e"
          ],
          "data": "0x60e65b9330f95689004881ceb0c70271140d7a6c66037940d345a33188c341c30000000000000000000000000000000000000000000000000000000000000002000000000000000000000000000000000000000000000000000000000000006000000000000000000000000000000000000000000000000000000000000000043424000000000000000000000000000000000000000000000000000000000000",
          "blockHash": "0x17520db3fe6366c0ddd7e8da7ea551ce9523ba5fb862a071e16d21f0ff603682",
          "blockNumber": "0x26196f5",
          "blockTimestamp": "0x694d8acd",
          "transactionHash": "0x059c9cb4206be718f6ff9b81a8f8f6441e548d1242047b5a21829b7d4f4a6219",
          "transactionIndex": "0x13c",
          "logIndex": "0x428",
          "removed": false
        }
      ],
      "logsBloom": "0x02000000000000000000000000000000000000000000000000000000000400000000000000000000000000000000000000000000000000000000000000000000000000000000000000000000000000000000000010000000000000000000000000000000000000000000000000000040000000000400000000000000000000000000000000000000000000000200000000000000000000040002000000000000000004000000000000000000000000000000000002000000000000004000000000000000000000000000000000400000000000000000000000000000000820000000000000000000000000000000000000000000000000800000000000000000",
      "type": "0x2",
      "transactionHash": "0x059c9cb4206be718f6ff9b81a8f8f6441e548d1242047b5a21829b7d4f4a6219",
      "transactionIndex": "0x13c",
      "blockHash": "0x17520db3fe6366c0ddd7e8da7ea551ce9523ba5fb862a071e16d21f0ff603682",
      "blockNumber": "0x26196f5",
      "gasUsed": "0x1160b",
      "effectiveGasPrice": "0xb638b",
      "blobGasUsed": "0x8a61",
      "from": "0xe403f79171b7050c78479f52e49e753d43e72c1a",
      "to": "0xad473eaa51821c915d03d9db5349a0586d55e55e",
      "contractAddress": null,
      "daFootprintGasScalar": "0x145",
      "l1BaseFeeScalar": "0x8dd",
      "l1BlobBaseFee": "0x17792f",
      "l1BlobBaseFeeScalar": "0x101c12",
      "l1Fee": "0x1112a2e4",
      "l1GasPrice": "0x19f3d9f",
      "l1GasUsed": "0x6da"
    },
    {
      "status": "0x1",
      "cumulativeGasUsed": "0x3fb76c4",
      "logs": [
        {
          "address": "0xad473eaa51821c915d03d9db5349a0586d55e55e",
          "topics": [
            "0x36e13ba1e45df3ecb8f6beb6274a1f5d4abf4c0792bb56700354f0d50bf0acd7",
            "0x0000000000000000000000000000000000000000000000000000000000000030",
            "0x000000000000000000000000e403f79171b7050c78479f52e49e753d43e72c1a"
          ],
          "data": "0xfc6cc8976638831fc84ceab234894f532e0338e7268a3303d4c0c1939f85dbb90000000000000000000000000000000000000000000000000000000000000003000000000000000000000000000000000000000000000000000000000000006000000000000000000000000000000000000000000000000000000000000000043222000000000000000000000000000000000000000000000000000000000000",
          "blockHash": "0x17520db3fe6366c0ddd7e8da7ea551ce9523ba5fb862a071e16d21f0ff603682",
          "blockNumber": "0x26196f5",
          "blockTimestamp": "0x694d8acd",
          "transactionHash": "0xe3775c11e5edde68a7dcb78fa01cbbff67c6f18b9e4a7749bea9bb43363dac09",
          "transactionIndex": "0x13d",
          "logIndex": "0x429",
          "removed": false
        },
        {
          "address": "0xad473eaa51821c915d03d9db5349a0586d55e55e",
          "topics": [
            "0x36e13ba1e45df3ecb8f6beb6274a1f5d4abf4c0792bb56700354f0d50bf0acd7",
            "0x0000000000000000000000000000000000000000000000000000000000000030",
            "0x000000000000000000000000ad473eaa51821c915d03d9db5349a0586d55e55e"
          ],
          "data": "0x0192d1e4a25acce6e7a2d4e8900eba6030b412ccc2d92d174c541b9d6055ff390000000000000000000000000000000000000000000000000000000000000004000000000000000000000000000000000000000000000000000000000000006000000000000000000000000000000000000000000000000000000000000000043c1b000000000000000000000000000000000000000000000000000000000000",
          "blockHash": "0x17520db3fe6366c0ddd7e8da7ea551ce9523ba5fb862a071e16d21f0ff603682",
          "blockNumber": "0x26196f5",
          "blockTimestamp": "0x694d8acd",
          "transactionHash": "0xe3775c11e5edde68a7dcb78fa01cbbff67c6f18b9e4a7749bea9bb43363dac09",
          "transactionIndex": "0x13d",
          "logIndex": "0x42a",
          "removed": false
        }
      ],
      "logsBloom": "0x02000000000000000000000000000000000000000000000000000000000400000000000000000000000000000000000000000000000000000000000000000000000000000000000000000000000000000000000010000000000000000000000000000000000000000000000000000040000000000400000000000000000000000000000000000000000000000200000000000000000000040002000000000000000004000000000000000000000000000000000002000000000000004000000000000000000000000000000000400000000000000000000000000000000820000000000000000000000000000000000000000000000000800000000000000000",
      "type": "0x2",
      "transactionHash": "0xe3775c11e5edde68a7dcb78fa01cbbff67c6f18b9e4a7749bea9bb43363dac09",
      "transactionIndex": "0x13d",
      "blockHash": "0x17520db3fe6366c0ddd7e8da7ea551ce9523ba5fb862a071e16d21f0ff603682",
      "blockNumber": "0x26196f5",
      "gasUsed": "0xd3f5",
      "effectiveGasPrice": "0xb638b",
      "blobGasUsed": "0x8a61",
      "from": "0xe403f79171b7050c78479f52e49e753d43e72c1a",
      "to": "0xad473eaa51821c915d03d9db5349a0586d55e55e",
      "contractAddress": null,
      "daFootprintGasScalar": "0x145",
      "l1BaseFeeScalar": "0x8dd",
      "l1BlobBaseFee": "0x17792f",
      "l1BlobBaseFeeScalar": "0x101c12",
      "l1Fee": "0x1112a2e4",
      "l1GasPrice": "0x19f3d9f",
      "l1GasUsed": "0x6da"
    },
    {
      "status": "0x1",
      "cumulativeGasUsed": "0x3fc4ab9",
      "logs": [
        {
          "address": "0xad473eaa51821c915d03d9db5349a0586d55e55e",
          "topics": [
            "0x36e13ba1e45df3ecb8f6beb6274a1f5d4abf4c0792bb56700354f0d50bf0acd7",
            "0x0000000000000000000000000000000000000000000000000000000000000030",
            "0x000000000000000000000000e403f79171b7050c78479f52e49e753d43e72c1a"
          ],
          "data": "0xbb9afb9861b8290cda948e4af3b636449a44547dca4c3acbc45e65f4e22aab400000000000000000000000000000000000000000000000000000000000000005000000000000000000000000000000000000000000000000000000000000006000000000000000000000000000000000000000000000000000000000000000043129000000000000000000000000000000000000000000000000000000000000",
          "blockHash": "0x17520db3fe6366c0ddd7e8da7ea551ce9523ba5fb862a071e16d21f0ff603682",
          "blockNumber": "0x26196f5",
          "blockTimestamp": "0x694d8acd",
          "transactionHash": "0x26f7b57790e12d2da6221a525b81f230664c355ec99b1b66596efa35ab747360",
          "transactionIndex": "0x13e",
          "logIndex": "0x42b",
          "removed": false
        },
        {
          "address": "0xad473eaa51821c915d03d9db5349a0586d55e55e",
          "topics": [
            "0x36e13ba1e45df3ecb8f6beb6274a1f5d4abf4c0792bb56700354f0d50bf0acd7",
            "0x0000000000000000000000000000000000000000000000000000000000000030",
            "0x000000000000000000000000ad473eaa51821c915d03d9db5349a0586d55e55e"
          ],
          "data": "0x2760255e5f8c0d33599f68866f7b7bdd30ba831d73410b4548d9b6c2e2478d1c000000000000000000000000000000000000000000000000000000000000000600000000000000000000000000000000000000000000000000000000000000600000000000000000000000000000000000000000000000000000000000000004052b000000000000000000000000000000000000000000000000000000000000",
          "blockHash": "0x17520db3fe6366c0ddd7e8da7ea551ce9523ba5fb862a071e16d21f0ff603682",
          "blockNumber": "0x26196f5",
          "blockTimestamp": "0x694d8acd",
          "transactionHash": "0x26f7b57790e12d2da6221a525b81f230664c355ec99b1b66596efa35ab747360",
          "transactionIndex": "0x13e",
          "logIndex": "0x42c",
          "removed": false
        }
      ],
      "logsBloom": "0x02000000000000000000000000000000000000000000000000000000000400000000000000000000000000000000000000000000000000000000000000000000000000000000000000000000000000000000000010000000000000000000000000000000000000000000000000000040000000000400000000000000000000000000000000000000000000000200000000000000000000040002000000000000000004000000000000000000000000000000000002000000000000004000000000000000000000000000000000400000000000000000000000000000000820000000000000000000000000000000000000000000000000800000000000000000",
      "type": "0x2",
      "transactionHash": "0x26f7b57790e12d2da6221a525b81f230664c355ec99b1b66596efa35ab747360",
      "transactionIndex": "0x13e",
      "blockHash": "0x17520db3fe6366c0ddd7e8da7ea551ce9523ba5fb862a071e16d21f0ff603682",
      "blockNumber": "0x26196f5",
      "gasUsed": "0xd3f5",
      "effectiveGasPrice": "0xb638b",
      "blobGasUsed": "0x8a61",
      "from": "0xe403f79171b7050c78479f52e49e753d43e72c1a",
      "to": "0xad473eaa51821c915d03d9db5349a0586d55e55e",
      "contractAddress": null,
      "daFootprintGasScalar": "0x145",
      "l1BaseFeeScalar": "0x8dd",
      "l1BlobBaseFee": "0x17792f",
      "l1BlobBaseFeeScalar": "0x101c12",
      "l1Fee": "0x1112a2e4",
      "l1GasPrice": "0x19f3d9f",
      "l1GasUsed": "0x6da"
    },
    {
      "status": "0x1",
      "cumulativeGasUsed": "0x3fd1eae",
      "logs": [
        {
          "address": "0xad473eaa51821c915d03d9db5349a0586d55e55e",
          "topics": [
            "0x36e13ba1e45df3ecb8f6beb6274a1f5d4abf4c0792bb56700354f0d50bf0acd7",
            "0x0000000000000000000000000000000000000000000000000000000000000030",
            "0x000000000000000000000000e403f79171b7050c78479f52e49e753d43e72c1a"
          ],
          "data": "0x2a4b22ea265f7017c3f5040f1eec7d58baac29eda24dc699336157972973d8e10000000000000000000000000000000000000000000000000000000000000007000000000000000000000000000000000000000000000000000000000000006000000000000000000000000000000000000000000000000000000000000000043a2b000000000000000000000000000000000000000000000000000000000000",
          "blockHash": "0x17520db3fe6366c0ddd7e8da7ea551ce9523ba5fb862a071e16d21f0ff603682",
          "blockNumber": "0x26196f5",
          "blockTimestamp": "0x694d8acd",
          "transactionHash": "0x4355ad51b83aa5249c1e56fd2e090bfd6370c96b3eaa10080258e784c44ad58e",
          "transactionIndex": "0x13f",
          "logIndex": "0x42d",
          "removed": false
        },
        {
          "address": "0xad473eaa51821c915d03d9db5349a0586d55e55e",
          "topics": [
            "0x36e13ba1e45df3ecb8f6beb6274a1f5d4abf4c0792bb56700354f0d50bf0acd7",
            "0x0000000000000000000000000000000000000000000000000000000000000030",
            "0x000000000000000000000000ad473eaa51821c915d03d9db5349a0586d55e55e"
          ],
          "data": "0x55f26890947882f1207e2a875a0d392857a077e9af9ea320f39541f65d9244dd0000000000000000000000000000000000000000000000000000000000000008000000000000000000000000000000000000000000000000000000000000006000000000000000000000000000000000000000000000000000000000000000042818000000000000000000000000000000000000000000000000000000000000",
          "blockHash": "0x17520db3fe6366c0ddd7e8da7ea551ce9523ba5fb862a071e16d21f0ff603682",
          "blockNumber": "0x26196f5",
          "blockTimestamp": "0x694d8acd",
          "transactionHash": "0x4355ad51b83aa5249c1e56fd2e090bfd6370c96b3eaa10080258e784c44ad58e",
          "transactionIndex": "0x13f",
          "logIndex": "0x42e",
          "removed": false
        }
      ],
      "logsBloom": "0x02000000000000000000000000000000000000000000000000000000000400000000000000000000000000000000000000000000000000000000000000000000000000000000000000000000000000000000000010000000000000000000000000000000000000000000000000000040000000000400000000000000000000000000000000000000000000000200000000000000000000040002000000000000000004000000000000000000000000000000000002000000000000004000000000000000000000000000000000400000000000000000000000000000000820000000000000000000000000000000000000000000000000800000000000000000",
      "type": "0x2",
      "transactionHash": "0x4355ad51b83aa5249c1e56fd2e090bfd6370c96b3eaa10080258e784c44ad58e",
      "transactionIndex": "0x13f",
      "blockHash": "0x17520db3fe6366c0ddd7e8da7ea551ce9523ba5fb862a071e16d21f0ff603682",
      "blockNumber": "0x26196f5",
      "gasUsed": "0xd3f5",
      "effectiveGasPrice": "0xb638b",
      "blobGasUsed": "0x8a61",
      "from": "0xe403f79171b7050c78479f52e49e753d43e72c1a",
      "to": "0xad473eaa51821c915d03d9db5349a0586d55e55e",
      "contractAddress": null,
      "daFootprintGasScalar": "0x145",
      "l1BaseFeeScalar": "0x8dd",
      "l1BlobBaseFee": "0x17792f",
      "l1BlobBaseFeeScalar": "0x101c12",
      "l1Fee": "0x1112a2e4",
      "l1GasPrice": "0x19f3d9f",
      "l1GasUsed": "0x6da"
    }
  ],
  "libraries": [],
  "pending": [],
  "returns": {},
  "timestamp": 1766689487207,
  "chain": 8453,
  "commit": "1b5b336"
}