{
  "transactions": [
    {
      "hash": "0x6837ae8976bfb0717ea12acadf95c68b8d1a2113b12db61c6daf94fb657ddebc",
      "transactionType": "CALL",
      "contractName": null,
      "contractAddress": "0xad473eaa51821c915d03d9db5349a0586d55e55e",
      "function": "createMatch(uint8,uint8,address,uint256,bytes32)",
      "arguments": [
        "1",
        "0",
        "0x0000000000000000000000000000000000000000",
        "0",
        "0x3608f503d624b47779fba399a097e68bc35cdbd22fcf04e3d6b7a3bd8fa9b746"
      ],
      "transaction": {
        "from": "0xe403f79171b7050c78479f52e49e753d43e72c1a",
        "to": "0xad473eaa51821c915d03d9db5349a0586d55e55e",
        "gas": "0x52a7d",
        "value": "0x0",
        "input": "0xea994fab00000000000000000000000000000000000000000000000000000000000000010000000000000000000000000000000000000000000000000000000000000000000000000000000000000000000000000000000000000000000000000000000000000000000000000000000000000000000000000000000000000000000000003608f503d624b47779fba399a097e68bc35cdbd22fcf04e3d6b7a3bd8fa9b746",
        "nonce": "0x353",
        "chainId": "0x2105"
      },
      "additionalContracts": [],
      "isFixedGasLimit": false
    },
    {
      "hash": "0x7fd5a1e5163799a7a7a892cae795291927e49d9c55ca50b3ab3ae9c959c6831b",
      "transactionType": "CALL",
      "contractName": null,
      "contractAddress": "0xad473eaa51821c915d03d9db5349a0586d55e55e",
      "function": "createMatch(uint8,uint8,address,uint256,bytes32)",
      "arguments": [
        "1",
        "0",
        "0x0000000000000000000000000000000000000000",
        "0",
        "0x3608f503d624b47779fba399a097e68bc35cdbd22fcf04e3d6b7a3bd8fa9b746"
      ],
      "transaction": {
        "from": "0xe403f79171b7050c78479f52e49e753d43e72c1a",
        "to": "0xad473eaa51821c915d03d9db5349a0586d55e55e",
        "gas": "0x52a7d",
        "value": "0x0",
        "input": "0xea994fab00000000000000000000000000000000000000000000000000000000000000010000000000000000000000000000000000000000000000000000000000000000000000000000000000000000000000000000000000000000000000000000000000000000000000000000000000000000000000000000000000000000000000003608f503d624b47779fba399a097e68bc35cdbd22fcf04e3d6b7a3bd8fa9b746",
        "nonce": "0x354",
        "chainId": "0x2105"
      },
      "additionalContracts": [],
      "isFixedGasLimit": false
    },
    {
      "hash": "0x9e86accb4c1d344612558d0fd8dd9673873355053b284e41e3af0179b2c37d45",
      "transactionType": "CALL",
      "contractName": null,
      "contractAddress": "0xad473eaa51821c915d03d9db5349a0586d55e55e",
      "function": "createMatch(uint8,uint8,address,uint256,bytes32)",
      "arguments": [
        "1",
        "0",
        "0x0000000000000000000000000000000000000000",
        "0",
        "0x3608f503d624b47779fba399a097e68bc35cdbd22fcf04e3d6b7a3bd8fa9b746"
      ],
      "transaction": {
        "from": "0xe403f79171b7050c78479f52e49e753d43e72c1a",
        "to": "0xad473eaa51821c915d03d9db5349a0586d55e55e",
        "gas": "0x52a7d",
        "value": "0x0",
        "input": "0xea994fab00000000000000000000000000000000000000000000000000000000000000010000000000000000000000000000000000000000000000000000000000000000000000000000000000000000000000000000000000000000000000000000000000000000000000000000000000000000000000000000000000000000000000003608f503d624b47779fba399a097e68bc35cdbd22fcf04e3d6b7a3bd8fa9b746",
        "nonce": "0x355",
        "chainId": "0x2105"
      },
      "additionalContracts": [],
      "isFixedGasLimit": false
    },
    {
      "hash": "0x129c74f92ac6216a246916671fe25c5e643e933c4276a2d82c9ab4665bf5c0e4",
      "transactionType": "CALL",
      "contractName": null,
      "contractAddress": "0xad473eaa51821c915d03d9db5349a0586d55e55e",
      "function": "createMatch(uint8,uint8,address,uint256,bytes32)",
      "arguments": [
        "1",
        "0",
        "0x0000000000000000000000000000000000000000",
        "0",
        "0x3608f503d624b47779fba399a097e68bc35cdbd22fcf04e3d6b7a3bd8fa9b746"
      ],
      "transaction": {
        "from": "0xe403f79171b7050c78479f52e49e753d43e72c1a",
        "to": "0xad473eaa51821c915d03d9db5349a0586d55e55e",
        "gas": "0x52a7d",
        "value": "0x0",
        "input": "0xea994fab00000000000000000000000000000000000000000000000000000000000000010000000000000000000000000000000000000000000000000000000000000000000000000000000000000000000000000000000000000000000000000000000000000000000000000000000000000000000000000000000000000000000000003608f503d624b47779fba399a097e68bc35cdbd22fcf04e3d6b7a3bd8fa9b746",
        "nonce": "0x356",
        "chainId": "0x2105"
      },
      "additionalContracts": [],
      "isFixedGasLimit": false
    },
    {
      "hash": "0x411dd8ea6b0e4a07ce690ebe2479ce4ef2d0090f3f626ce52d5c4ebbad9a8d6e",
      "transactionType": "CALL",
      "contractName": null,
      "contractAddress": "0xad473eaa51821c915d03d9db5349a0586d55e55e",
      "function": "createMatch(uint8,uint8,address,uint256,bytes32)",
      "arguments": [
        "1",
        "0",
        "0x0000000000000000000000000000000000000000",
        "0",
        "0x3608f503d624b47779fba399a097e68bc35cdbd22fcf04e3d6b7a3bd8fa9b746"
      ],
      "transaction": {
        "from": "0xe403f79171b7050c78479f52e49e753d43e72c1a",
        "to": "0xad473eaa51821c915d03d9db5349a0586d55e55e",
        "gas": "0x52a7d",
        "value": "0x0",
        "input": "0xea994fab00000000000000000000000000000000000000000000000000000000000000010000000000000000000000000000000000000000000000000000000000000000000000000000000000000000000000000000000000000000000000000000000000000000000000000000000000000000000000000000000000000000000000003608f503d624b47779fba399a097e68bc35cdbd22fcf04e3d6b7a3bd8fa9b746",
        "nonce": "0x357",
        "chainId": "0x2105"
      },
      "additionalContracts": [],
      "isFixedGasLimit": false
    },
    {
      "hash": "0xcc71a769da54d9d5e599ebdee3704f3c8d7dbddc5bc8f54dc9a49932421743fb",
      "transactionType": "CALL",
      "contractName": null,
      "contractAddress": "0xad473eaa51821c915d03d9db5349a0586d55e55e",
      "function": "createMatch(uint8,uint8,address,uint256,bytes32)",
      "arguments": [
        "1",
        "0",
        "0x0000000000000000000000000000000000000000",
        "0",
        "0x3608f503d624b47779fba399a097e68bc35cdbd22fcf04e3d6b7a3bd8fa9b746"
      ],
      "transaction": {
        "from": "0xe403f79171b7050c78479f52e49e753d43e72c1a",
        "to": "0xad473eaa51821c915d03d9db5349a0586d55e55e",
        "gas": "0x52a7d",
        "value": "0x0",
        "input": "0xea994fab00000000000000000000000000000000000000000000000000000000000000010000000000000000000000000000000000000000000000000000000000000000000000000000000000000000000000000000000000000000000000000000000000000000000000000000000000000000000000000000000000000000000000003608f503d624b47779fba399a097e68bc35cdbd22fcf04e3d6b7a3bd8fa9b746",
        "nonce": "0x358",
        "chainId": "0x2105"
      },
      "additionalContracts": [],
      "isFixedGasLimit": false
    },
    {
      "hash": "0xaf7fb045a8985d5aea3aee8fc5b332020ce74ef982bf470692f2384c819cc942",
      "transactionType": "CALL",
      "contractName": null,
      "contractAddress": "0xad473eaa51821c915d03d9db5349a0586d55e55e",
      "function": "createMatch(uint8,uint8,address,uint256,bytes32)",
      "arguments": [
        "1",
        "0",
        "0x0000000000000000000000000000000000000000",
        "0",
        "0x3608f503d624b47779fba399a097e68bc35cdbd22fcf04e3d6b7a3bd8fa9b746"
      ],
      "transaction": {
        "from": "0xe403f79171b7050c78479f52e49e753d43e72c1a",
        "to": "0xad473eaa51821c915d03d9db5349a0586d55e55e",
        "gas": "0x52a7d",
        "value": "0x0",
        "input": "0xea994fab00000000000000000000000000000000000000000000000000000000000000010000000000000000000000000000000000000000000000000000000000000000000000000000000000000000000000000000000000000000000000000000000000000000000000000000000000000000000000000000000000000000000000003608f503d624b47779fba399a097e68bc35cdbd22fcf04e3d6b7a3bd8fa9b746",
        "nonce": "0x359",
        "chainId": "0x2105"
      },
      "additionalContracts": [],
      "isFixedGasLimit": false
    },
    {
      "hash": "0xd7d6c2690447c847a786e6d2c947e34385514447e9230a224bf71761635ab96c",
      "transactionType": "CALL",
      "contractName": null,
      "contractAddress": "0xad473eaa51821c915d03d9db5349a0586d55e55e",
      "function": "createMatch(uint8,uint8,address,uint256,bytes32)",
      "arguments": [
        "1",
        "0",
        "0x0000000000000000000000000000000000000000",
        "0",
        "0x3608f503d624b47779fba399a097e68bc35cdbd22fcf04e3d6b7a3bd8fa9b746"
      ],
      "transaction": {
        "from": "0xe403f79171b7050c78479f52e49e753d43e72c1a",
        "to": "0xad473eaa51821c915d03d9db5349a0586d55e55e",
        "gas": "0x52a7d",
        "value": "0x0",
        "input": "0xea994fab00000000000000000000000000000000000000000000000000000000000000010000000000000000000000000000000000000000000000000000000000000000000000000000000000000000000000000000000000000000000000000000000000000000000000000000000000000000000000000000000000000000000000003608f503d624b47779fba399a097e68bc35cdbd22fcf04e3d6b7a3bd8fa9b746",
        "nonce": "0x35a",
        "chainId": "0x2105"
      },
      "additionalContracts": [],
      "isFixedGasLimit": false
    },
    {
      "hash": "0x4c1fb4ef3730456bddd850e575aef6e2c201215e0aff46db79d0343eb0bc59ee",
      "transactionType": "CALL",
      "contractName": null,
      "contractAddress": "0xad473eaa51821c915d03d9db5349a0586d55e55e",
      "function": "submitMove(uint256,bytes32,bytes)",
      "arguments": [
        "33",
        "0xe8773807ffd17108aa2d132cec684352f2c5c8337ff4659cc010d15b0551847d",
        "0x34240000"
      ],
      "transaction": {
        "from": "0xe403f79171b7050c78479f52e49e753d43e72c1a",
        "to": "0xad473eaa51821c915d03d9db5349a0586d55e55e",
        "gas": "0x1801c",
        "value": "0x0",
        "input": "0x73b07f890000000000000000000000000000000000000000000000000000000000000021e8773807ffd17108aa2d132cec684352f2c5c8337ff4659cc010d15b0551847d000000000000000000000000000000000000000000000000000000000000006000000000000000000000000000000000000000000000000000000000000000043424000000000000000000000000000000000000000000000000000000000000",
        "nonce": "0x35b",
        "chainId": "0x2105"
      },
      "additionalContracts": [],
      "isFixedGasLimit": false
    },
    {
      "hash": "0x3417cc8ca2e00b94a1e3e2a8ce07b0f6528f32910fab7e92787f1c61f9147fba",
      "transactionType": "CALL",
      "contractName": null,
      "contractAddress": "0xad473eaa51821c915d03d9db5349a0586d55e55e",
      "function": "submitMove(uint256,bytes32,bytes)",
      "arguments": [
        "33",
        "0x0692c63251d62c8f04eed454cc75e5bc199ba842e6b8106095e5d806a5e48cfa",
        "0x33230000"
      ],
      "transaction": {
        "from": "0xe403f79171b7050c78479f52e49e753d43e72c1a",
        "to": "0xad473eaa51821c915d03d9db5349a0586d55e55e",
        "gas": "0x124c3",
        "value": "0x0",
        "input": "0x73b07f8900000000000000000000000000000000000000000000000000000000000000210692c63251d62c8f04eed454cc75e5bc199ba842e6b8106095e5d806a5e48cfa000000000000000000000000000000000000000000000000000000000000006000000000000000000000000000000000000000000000000000000000000000043323000000000000000000000000000000000000000000000000000000000000",
        "nonce": "0x35c",
        "chainId": "0x2105"
      },
      "additionalContracts": [],
      "isFixedGasLimit": false
    },
    {
      "hash": "0xf60c5d846f8b6e718120fc64f3744c70f0285ad15bbf6ae856ee6bf312c2145f",
      "transactionType": "CALL",
      "contractName": null,
      "contractAddress": "0xad473eaa51821c915d03d9db5349a0586d55e55e",
      "function": "submitMove(uint256,bytes32,bytes)",
      "arguments": [
        "33",
        "0x4442d021ec118fea7ce3641d3375363801af2e92adb1272f726cf20292795a62",
        "0x392a0000"
      ],
      "transaction": {
        "from": "0xe403f79171b7050c78479f52e49e753d43e72c1a",
        "to": "0xad473eaa51821c915d03d9db5349a0586d55e55e",
        "gas": "0x124c3",
        "value": "0x0",
        "input": "0x73b07f8900000000000000000000000000000000000000000000000000000000000000214442d021ec118fea7ce3641d3375363801af2e92adb1272f726cf20292795a6200000000000000000000000000000000000000000000000000000000000000600000000000000000000000000000000000000000000000000000000000000004392a000000000000000000000000000000000000000000000000000000000000",
        "nonce": "0x35d",
        "chainId": "0x2105"
      },
      "additionalContracts": [],
      "isFixedGasLimit": false
    },
    {
      "hash": "0xe0fba234d7b65afd0a96500208c0511db17de7f9fd40d9a181fe02bad9b1283e",
      "transactionType": "CALL",
      "contractName": null,
      "contractAddress": "0xad473eaa51821c915d03d9db5349a0586d55e55e",
      "function": "submitMove(uint256,bytes32,bytes)",
      "arguments": [
        "33",
        "0xc7183fc0754b5e7da3b74bf364f8affe59ffdf73627f9b8e7d4991d4453bd364",
        "0x3b2c0000"
      ],
      "transaction": {
        "from": "0xe403f79171b7050c78479f52e49e753d43e72c1a",
        "to": "0xad473eaa51821c915d03d9db5349a0586d55e55e",
        "gas": "0x124c3",
        "value": "0x0",
        "input": "0x73b07f890000000000000000000000000000000000000000000000000000000000000021c7183fc0754b5e7da3b74bf364f8affe59ffdf73627f9b8e7d4991d4453bd364000000000000000000000000000000000000000000000000000000000000006000000000000000000000000000000000000000000000000000000000000000043b2c000000000000000000000000000000000000000000000000000000000000",
        "nonce": "0x35e",
        "chainId": "0x2105"
      },
      "additionalContracts": [],
      "isFixedGasLimit": false
    },
    {
      "hash": "0x5aae7ca3b5dd02acae371cfc264eea7e3eb3f416d7174244c9d796bddb4cbe60",
      "transactionType": "CALL",
      "contractName": null,
      "contractAddress": "0xad473eaa51821c915d03d9db5349a0586d55e55e",
      "function": "submitMove(uint256,bytes32,bytes)",
      "arguments": [
        "34",
        "0x90e396633e67bfb131a9c9b400ea842e0f29f45c4bc7872a0e80af48deb78504",
        "0x30280000"
      ],
      "transaction": {
        "from": "0xe403f79171b7050c78479f52e49e753d43e72c1a",
        "to": "0xad473eaa51821c915d03d9db5349a0586d55e55e",
        "gas": "0x196a2",
        "value": "0x0",
        "input": "0x73b07f89000000000000000000000000000000000000000000000000000000000000002290e396633e67bfb131a9c9b400ea842e0f29f45c4bc7872a0e80af48deb78504000000000000000000000000000000000000000000000000000000000000006000000000000000000000000000000000000000000000000000000000000000043028000000000000000000000000000000000000000000000000000000000000",
        "nonce": "0x35f",
        "chainId": "0x2105"
      },
      "additionalContracts": [],
      "isFixedGasLimit": false
    },
    {
      "hash": "0xab363a99b79065d913fff9c6cac7f88a311a7cdb485fd26c38ec63ce0c7633c1",
      "transactionType": "CALL",
      "contractName": null,
      "contractAddress": "0xad473eaa51821c915d03d9db5349a0586d55e55e",
      "function": "submitMove(uint256,bytes32,bytes)",
      "arguments": [
        "34",
        "0xfc6cc8976638831fc84ceab234894f532e0338e7268a3303d4c0c1939f85dbb9",
        "0x32220000"
      ],
      "transaction": {
        "from": "0xe403f79171b7050c78479f52e49e753d43e72c1a",
        "to": "0xad473eaa51821c915d03d9db5349a0586d55e55e",
        "gas": "0x124c3",
        "value": "0x0",
        "input": "0x73b07f890000000000000000000000000000000000000000000000000000000000000022fc6cc8976638831fc84ceab234894f532e0338e7268a3303d4c0c1939f85dbb9000000000000000000000000000000000000000000000000000000000000006000000000000000000000000000000000000000000000000000000000000000043222000000000000000000000000000000000000000000000000000000000000",
        "nonce": "0x360",
        "chainId": "0x2105"
      },
      "additionalContracts": [],
      "isFixedGasLimit": false
    },
    {
      "hash": "0x1836f1bb11ced95fc1986c812b6e601a5b27660fab04ce1fd93bd6ab64f34858",
      "transactionType": "CALL",
      "contractName": null,
      "contractAddress": "0xad473eaa51821c915d03d9db5349a0586d55e55e",
      "function": "submitMove(uint256,bytes32,bytes)",
      "arguments": [
        "34",
        "0xbb9afb9861b8290cda948e4af3b636449a44547dca4c3acbc45e65f4e22aab40",
        "0x31290000"
      ],
      "transaction": {
        "from": "0xe403f79171b7050c78479f52e49e753d43e72c1a",
        "to": "0xad473eaa51821c915d03d9db5349a0586d55e55e",
        "gas": "0x124c3",
        "value": "0x0",
        "input": "0x73b07f890000000000000000000000000000000000000000000000000000000000000022bb9afb9861b8290cda948e4af3b636449a44547dca4c3acbc45e65f4e22aab40000000000000000000000000000000000000000000000000000000000000006000000000000000000000000000000000000000000000000000000000000000043129000000000000000000000000000000000000000000000000000000000000",
        "nonce": "0x361",
        "chainId": "0x2105"
      },
      "additionalContracts": [],
      "isFixedGasLimit": false
    },
    {
      "hash": "0xdbb214af0223ff2daeee3e6af2d6ac38a2c81ddb7fb784f3bab09a246a2dc100",
      "transactionType": "CALL",
      "contractName": null,
      "contractAddress": "0xad473eaa51821c915d03d9db5349a0586d55e55e",
      "function": "submitMove(uint256,bytes32,bytes)",
      "arguments": [
        "34",
        "0x2a4b22ea265f7017c3f5040f1eec7d58baac29eda24dc699336157972973d8e1",
        "0x3a2b0000"
      ],
      "transaction": {
        "from": "0xe403f79171b7050c78479f52e49e753d43e72c1a",
        "to": "0xad473eaa51821c915d03d9db5349a0586d55e55e",
        "gas": "0x124c3",
        "value": "0x0",
        "input": "0x73b07f8900000000000000000000000000000000000000000000000000000000000000222a4b22ea265f7017c3f5040f1eec7d58baac29eda24dc699336157972973d8e1000000000000000000000000000000000000000000000000000000000000006000000000000000000000000000000000000000000000000000000000000000043a2b000000000000000000000000000000000000000000000000000000000000",
        "nonce": "0x362",
        "chainId": "0x2105"
      },
      "additionalContracts": [],
      "isFixedGasLimit": false
    },
    {
      "hash": "0x215eb868635105d8482bbb26604f95bc1e16dd933b2d2ed51d0effd0137407a1",
      "transactionType": "CALL",
      "contractName": null,
      "contractAddress": "0xad473eaa51821c915d03d9db5349a0586d55e55e",
      "function": "submitMove(uint256,bytes32,bytes)",
      "arguments": [
        "35",
        "0xe8773807ffd17108aa2d132cec684352f2c5c8337ff4659cc010d15b0551847d",
        "0x34240000"
      ],
      "transaction": {
        "from": "0xe403f79171b7050c78479f52e49e753d43e72c1a",
        "to": "0xad473eaa51821c915d03d9db5349a0586d55e55e",
        "gas": "0x1801c",
        "value": "0x0",
        "input": "0x73b07f890000000000000000000000000000000000000000000000000000000000000023e8773807ffd17108aa2d132cec684352f2c5c8337ff4659cc010d15b0551847d000000000000000000000000000000000000000000000000000000000000006000000000000000000000000000000000000000000000000000000000000000043424000000000000000000000000000000000000000000000000000000000000",
        "nonce": "0x363",
        "chainId": "0x2105"
      },
      "additionalContracts": [],
      "isFixedGasLimit": false
    },
    {
      "hash": "0xf9b6f3f8275b4f627ecea07e711c07321c96c68fe1ae46d322ec23844dce277f",
      "transactionType": "CALL",
      "contractName": null,
      "contractAddress": "0xad473eaa51821c915d03d9db5349a0586d55e55e",
      "function": "submitMove(uint256,bytes32,bytes)",
      "arguments": [
        "35",
        "0x0692c63251d62c8f04eed454cc75e5bc199ba842e6b8106095e5d806a5e48cfa",
        "0x33230000"
      ],
      "transaction": {
        "from": "0xe403f79171b7050c78479f52e49e753d43e72c1a",
        "to": "0xad473eaa51821c915d03d9db5349a0586d55e55e",
        "gas": "0x124c3",
        "value": "0x0",
        "input": "0x73b07f8900000000000000000000000000000000000000000000000000000000000000230692c63251d62c8f04eed454cc75e5bc199ba842e6b8106095e5d806a5e48cfa000000000000000000000000000000000000000000000000000000000000006000000000000000000000000000000000000000000000000000000000000000043323000000000000000000000000000000000000000000000000000000000000",
        "nonce": "0x364",
        "chainId": "0x2105"
      },
      "additionalContracts": [],
      "isFixedGasLimit": false
    },
    {
      "hash": "0x0ea1b37c6e1d3cb974b9c37717ad80ad1a8d304edd37011e9539ff6895bafc76",
      "transactionType": "CALL",
      "contractName": null,
      "contractAddress": "0xad473eaa51821c915d03d9db5349a0586d55e55e",
      "function": "submitMove(uint256,bytes32,bytes)",
      "arguments": [
        "35",
        "0x4442d021ec118fea7ce3641d3375363801af2e92adb1272f726cf20292795a62",
        "0x392a0000"
      ],
      "transaction": {
        "from": "0xe403f79171b7050c78479f52e49e753d43e72c1a",
        "to": "0xad473eaa51821c915d03d9db5349a0586d55e55e",
        "gas": "0x124c3",
        "value": "0x0",
        "input": "0x73b07f8900000000000000000000000000000000000000000000000000000000000000234442d021ec118fea7ce3641d3375363801af2e92adb1272f726cf20292795a6200000000000000000000000000000000000000000000000000000000000000600000000000000000000000000000000000000000000000000000000000000004392a000000000000000000000000000000000000000000000000000000000000",
        "nonce": "0x365",
        "chainId": "0x2105"
      },
      "additionalContracts": [],
      "isFixedGasLimit": false
    },
    {
      "hash": "0xc85f3c26718aeaeb57e8c8d154f5dd3b07265904994a9cd5bbec452d083ec69e",
      "transactionType": "CALL",
      "contractName": null,
      "contractAddress": "0xad473eaa51821c915d03d9db5349a0586d55e55e",
      "function": "submitMove(uint256,bytes32,bytes)",
      "arguments": [
        "35",
        "0xc7183fc0754b5e7da3b74bf364f8affe59ffdf73627f9b8e7d4991d4453bd364",
        "0x3b2c0000"
      ],
      "transaction": {
        "from": "0xe403f79171b7050c78479f52e49e753d43e72c1a",
        "to": "0xad473eaa51821c915d03d9db5349a0586d55e55e",
        "gas": "0x124c3",
        "value": "0x0",
        "input": "0x73b07f890000000000000000000000000000000000000000000000000000000000000023c7183fc0754b5e7da3b74bf364f8affe59ffdf73627f9b8e7d4991d4453bd364000000000000000000000000000000000000000000000000000000000000006000000000000000000000000000000000000000000000000000000000000000043b2c000000000000000000000000000000000000000000000000000000000000",
        "nonce": "0x366",
        "chainId": "0x2105"
      },
      "additionalContracts": [],
      "isFixedGasLimit": false
    },
    {
      "hash": "0xf834c8a9aee2589836cda0db1519ab3e324c6a32a35bca8c33c1bcc920b14070",
      "transactionType": "CALL",
      "contractName": null,
      "contractAddress": "0xad473eaa51821c915d03d9db5349a0586d55e55e",
      "function": "submitMove(uint256,bytes32,bytes)",
      "arguments": [
        "36",
        "0x90e396633e67bfb131a9c9b400ea842e0f29f45c4bc7872a0e80af48deb78504",
        "0x30280000"
      ],
      "transaction": {
        "from": "0xe403f79171b7050c78479f52e49e753d43e72c1a",
        "to": "0xad473eaa51821c915d03d9db5349a0586d55e55e",
        "gas": "0x196a2",
        "value": "0x0",
        "input": "0x73b07f89000000000000000000000000000000000000000000000000000000000000002490e396633e67bfb131a9c9b400ea842e0f29f45c4bc7872a0e80af48deb78504000000000000000000000000000000000000000000000000000000000000006000000000000000000000000000000000000000000000000000000000000000043028000000000000000000000000000000000000000000000000000000000000",
        "nonce": "0x367",
        "chainId": "0x2105"
      },
      "additionalContracts": [],
      "isFixedGasLimit": false
    },
    {
      "hash": "0x68bf4a6ab9430565e4f06c59fe6dfedef9a991bea89060a062e9f029cf18d5f8",
      "transactionType": "CALL",
      "contractName": null,
      "contractAddress": "0xad473eaa51821c915d03d9db5349a0586d55e55e",
      "function": "submitMove(uint256,bytes32,bytes)",
      "arguments": [
        "36",
        "0xfc6cc8976638831fc84ceab234894f532e0338e7268a3303d4c0c1939f85dbb9",
        "0x32220000"
      ],
      "transaction": {
        "from": "0xe403f79171b7050c78479f52e49e753d43e72c1a",
        "to": "0xad473eaa51821c915d03d9db5349a0586d55e55e",
        "gas": "0x124c3",
        "value": "0x0",
        "input": "0x73b07f890000000000000000000000000000000000000000000000000000000000000024fc6cc8976638831fc84ceab234894f532e0338e7268a3303d4c0c1939f85dbb9000000000000000000000000000000000000000000000000000000000000006000000000000000000000000000000000000000000000000000000000000000043222000000000000000000000000000000000000000000000000000000000000",
        "nonce": "0x368",
        "chainId": "0x2105"
      },
      "additionalContracts": [],
      "isFixedGasLimit": false
    },
    {
      "hash": "0x25bb16a0a7ee87e3be17f6c407755e1317d2f2a638b22f561ebe5a377bb74372",
      "transactionType": "CALL",
      "contractName": null,
      "contractAddress": "0xad473eaa51821c915d03d9db5349a0586d55e55e",
      "function": "submitMove(uint256,bytes32,bytes)",
      "arguments": [
        "36",
        "0xbb9afb9861b8290cda948e4af3b636449a44547dca4c3acbc45e65f4e22aab40",
        "0x31290000"
      ],
      "transaction": {
        "from": "0xe403f79171b7050c78479f52e49e753d43e72c1a",
        "to": "0xad473eaa51821c915d03d9db5349a0586d55e55e",
        "gas": "0x124c3",
        "value": "0x0",
        "input": "0x73b07f890000000000000000000000000000000000000000000000000000000000000024bb9afb9861b8290cda948e4af3b636449a44547dca4c3acbc45e65f4e22aab40000000000000000000000000000000000000000000000000000000000000006000000000000000000000000000000000000000000000000000000000000000043129000000000000000000000000000000000000000000000000000000000000",
        "nonce": "0x369",
        "chainId": "0x2105"
      },
      "additionalContracts": [],
      "isFixedGasLimit": false
    },
    {
      "hash": "0x9791d6c035f28c85260c130fa962e9508f27dcbc2ad0bc20869221e65b63b90c",
      "transactionType": "CALL",
      "contractName": null,
      "contractAddress": "0xad473eaa51821c915d03d9db5349a0586d55e55e",
      "function": "submitMove(uint256,bytes32,bytes)",
      "arguments": [
        "36",
        "0x2a4b22ea265f7017c3f5040f1eec7d58baac29eda24dc699336157972973d8e1",
        "0x3a2b0000"
      ],
      "transaction": {
        "from": "0xe403f79171b7050c78479f52e49e753d43e72c1a",
        "to": "0xad473eaa51821c915d03d9db5349a0586d55e55e",
        "gas": "0x124c3",
        "value": "0x0",
        "input": "0x73b07f8900000000000000000000000000000000000000000000000000000000000000242a4b22ea265f7017c3f5040f1eec7d58baac29eda24dc699336157972973d8e1000000000000000000000000000000000000000000000000000000000000006000000000000000000000000000000000000000000000000000000000000000043a2b000000000000000000000000000000000000000000000000000000000000",
        "nonce": "0x36a",
        "chainId": "0x2105"
      },
      "additionalContracts": [],
      "isFixedGasLimit": false
    },
    {
      "hash": "0x156cf6eb285e950dd11a90326152569b8e77af04cc75d7f9017a30fe1daf4cba",
      "transactionType": "CALL",
      "contractName": null,
      "contractAddress": "0xad473eaa51821c915d03d9db5349a0586d55e55e",
      "function": "submitMove(uint256,bytes32,bytes)",
      "arguments": [
        "37",
        "0xe8773807ffd17108aa2d132cec684352f2c5c8337ff4659cc010d15b0551847d",
        "0x34240000"
      ],
      "transaction": {
        "from": "0xe403f79171b7050c78479f52e49e753d43e72c1a",
        "to": "0xad473eaa51821c915d03d9db5349a0586d55e55e",
        "gas": "0x1801c",
        "value": "0x0",
        "input": "0x73b07f890000000000000000000000000000000000000000000000000000000000000025e8773807ffd17108aa2d132cec684352f2c5c8337ff4659cc010d15b0551847d000000000000000000000000000000000000000000000000000000000000006000000000000000000000000000000000000000000000000000000000000000043424000000000000000000000000000000000000000000000000000000000000",
        "nonce": "0x36b",
        "chainId": "0x2105"
      },
      "additionalContracts": [],
      "isFixedGasLimit": false
    },
    {
      "hash": "0xe7e2f6666bc0b06b8351e1f29ccf1593bc9c408d0bb0b2cd38adc190e4416588",
      "transactionType": "CALL",
      "contractName": null,
      "contractAddress": "0xad473eaa51821c915d03d9db5349a0586d55e55e",
      "function": "submitMove(uint256,bytes32,bytes)",
      "arguments": [
        "37",
        "0x0692c63251d62c8f04eed454cc75e5bc199ba842e6b8106095e5d806a5e48cfa",
        "0x33230000"
      ],
      "transaction": {
        "from": "0xe403f79171b7050c78479f52e49e753d43e72c1a",
        "to": "0xad473eaa51821c915d03d9db5349a0586d55e55e",
        "gas": "0x124c3",
        "value": "0x0",
        "input": "0x73b07f8900000000000000000000000000000000000000000000000000000000000000250692c63251d62c8f04eed454cc75e5bc199ba842e6b8106095e5d806a5e48cfa000000000000000000000000000000000000000000000000000000000000006000000000000000000000000000000000000000000000000000000000000000043323000000000000000000000000000000000000000000000000000000000000",
        "nonce": "0x36c",
        "chainId": "0x2105"
      },
      "additionalContracts": [],
      "isFixedGasLimit": false
    },
    {
      "hash": "0xd7c4f6459324ec154bc1527e81bf4f1129e18dd97181bf25031e8047ed314dc2",
      "transactionType": "CALL",
      "contractName": null,
      "contractAddress": "0xad473eaa51821c915d03d9db5349a0586d55e55e",
      "function": "submitMove(uint256,bytes32,bytes)",
      "arguments": [
        "37",
        "0x4442d021ec118fea7ce3641d3375363801af2e92adb1272f726cf20292795a62",
        "0x392a0000"
      ],
      "transaction": {
        "from": "0xe403f79171b7050c78479f52e49e753d43e72c1a",
        "to": "0xad473eaa51821c915d03d9db5349a0586d55e55e",
        "gas": "0x124c3",
        "value": "0x0",
        "input": "0x73b07f8900000000000000000000000000000000000000000000000000000000000000254442d021ec118fea7ce3641d3375363801af2e92adb1272f726cf20292795a6200000000000000000000000000000000000000000000000000000000000000600000000000000000000000000000000000000000000000000000000000000004392a000000000000000000000000000000000000000000000000000000000000",
        "nonce": "0x36d",
        "chainId": "0x2105"
      },
      "additionalContracts": [],
      "isFixedGasLimit": false
    },
    {
      "hash": "0x9b3a3a38d12ba2292bac9a9ede641e6c6a3e50c3d4abdf10633724057b65300a",
      "transactionType": "CALL",
      "contractName": null,
      "contractAddress": "0xad473eaa51821c915d03d9db5349a0586d55e55e",
      "function": "submitMove(uint256,bytes32,bytes)",
      "arguments": [
        "37",
        "0xc7183fc0754b5e7da3b74bf364f8affe59ffdf73627f9b8e7d4991d4453bd364",
        "0x3b2c0000"
      ],
      "transaction": {
        "from": "0xe403f79171b7050c78479f52e49e753d43e72c1a",
        "to": "0xad473eaa51821c915d03d9db5349a0586d55e55e",
        "gas": "0x124c3",
        "value": "0x0",
        "input": "0x73b07f890000000000000000000000000000000000000000000000000000000000000025c7183fc0754b5e7da3b74bf364f8affe59ffdf73627f9b8e7d4991d4453bd364000000000000000000000000000000000000000000000000000000000000006000000000000000000000000000000000000000000000000000000000000000043b2c000000000000000000000000000000000000000000000000000000000000",
        "nonce": "0x36e",
        "chainId": "0x2105"
      },
      "additionalContracts": [],
      "isFixedGasLimit": false
    },
    {
      "hash": "0x84d800a0b7762bbf1751b0f7f0b7e9c166dabbe54b06566afa8535015b3180c8",
      "transactionType": "CALL",
      "contractName": null,
      "contractAddress": "0xad473eaa51821c915d03d9db5349a0586d55e55e",
      "function": "submitMove(uint256,bytes32,bytes)",
      "arguments": [
        "38",
        "0x90e396633e67bfb131a9c9b400ea842e0f29f45c4bc7872a0e80af48deb78504",
        "0x30280000"
      ],
      "transaction": {
        "from": "0xe403f79171b7050c78479f52e49e753d43e72c1a",
        "to": "0xad473eaa51821c915d03d9db5349a0586d55e55e",
        "gas": "0x196a2",
        "value": "0x0",
        "input": "0x73b07f89000000000000000000000000000000000000000000000000000000000000002690e396633e67bfb131a9c9b400ea842e0f29f45c4bc7872a0e80af48deb78504000000000000000000000000000000000000000000000000000000000000006000000000000000000000000000000000000000000000000000000000000000043028000000000000000000000000000000000000000000000000000000000000",
        "nonce": "0x36f",
        "chainId": "0x2105"
      },
      "additionalContracts": [],
      "isFixedGasLimit": false
    },
    {
      "hash": "0xe49a3a4c4f96fc9a56f3e4e0a0e49d5ac799d20e6c12f7393c281ee9db4a7415",
      "transactionType": "CALL",
      "contractName": null,
      "contractAddress": "0xad473eaa51821c915d03d9db5349a0586d55e55e",
      "function": "submitMove(uint256,bytes32,bytes)",
      "arguments": [
        "38",
        "0xfc6cc8976638831fc84ceab234894f532e0338e7268a3303d4c0c1939f85dbb9",
        "0x32220000"
      ],
      "transaction": {
        "from": "0xe403f79171b7050c78479f52e49e753d43e72c1a",
        "to": "0xad473eaa51821c915d03d9db5349a0586d55e55e",
        "gas": "0x124c3",
        "value": "0x0",
        "input": "0x73b07f890000000000000000000000000000000000000000000000000000000000000026fc6cc8976638831fc84ceab234894f532e0338e7268a3303d4c0c1939f85dbb9000000000000000000000000000000000000000000000000000000000000006000000000000000000000000000000000000000000000000000000000000000043222000000000000000000000000000000000000000000000000000000000000",
        "nonce": "0x370",
        "chainId": "0x2105"
      },
      "additionalContracts": [],
      "isFixedGasLimit": false
    },
    {
      "hash": "0x46c77199d8186995b3947967e36de83fe3601ee25cfa7e20a542414e5ae76a93",
      "transactionType": "CALL",
      "contractName": null,
      "contractAddress": "0xad473eaa51821c915d03d9db5349a0586d55e55e",
      "function": "submitMove(uint256,bytes32,bytes)",
      "arguments": [
        "38",
        "0xbb9afb9861b8290cda948e4af3b636449a44547dca4c3acbc45e65f4e22aab40",
        "0x31290000"
      ],
      "transaction": {
        "from": "0xe403f79171b7050c78479f52e49e753d43e72c1a",
        "to": "0xad473eaa51821c915d03d9db5349a0586d55e55e",
        "gas": "0x124c3",
        "value": "0x0",
        "input": "0x73b07f890000000000000000000000000000000000000000000000000000000000000026bb9afb9861b8290cda948e4af3b636449a44547dca4c3acbc45e65f4e22aab40000000000000000000000000000000000000000000000000000000000000006000000000000000000000000000000000000000000000000000000000000000043129000000000000000000000000000000000000000000000000000000000000",
        "nonce": "0x371",
        "chainId": "0x2105"
      },
      "additionalContracts": [],
      "isFixedGasLimit": false
    },
    {
      "hash": "0x99d1401636bba1c6f62339c4e34b3b8d24d0d673ca4b829429eb37c9b147b97d",
      "transactionType": "CALL",
      "contractName": null,
      "contractAddress": "0xad473eaa51821c915d03d9db5349a0586d55e55e",
      "function": "submitMove(uint256,bytes32,bytes)",
      "arguments": [
        "38",
        "0x2a4b22ea265f7017c3f5040f1eec7d58baac29eda24dc699336157972973d8e1",
        "0x3a2b0000"
      ],
      "transaction": {
        "from": "0xe403f79171b7050c78479f52e49e753d43e72c1a",
        "to": "0xad473eaa51821c915d03d9db5349a0586d55e55e",
        "gas": "0x124c3",
        "value": "0x0",
        "input": "0x73b07f8900000000000000000000000000000000000000000000000000000000000000262a4b22ea265f7017c3f5040f1eec7d58baac29eda24dc699336157972973d8e1000000000000000000000000000000000000000000000000000000000000006000000000000000000000000000000000000000000000000000000000000000043a2b000000000000000000000000000000000000000000000000000000000000",
        "nonce": "0x372",
        "chainId": "0x2105"
      },
      "additionalContracts": [],
      "isFixedGasLimit": false
    },
    {
      "hash": "0xf176d4379144e74e8f99a9f74d77bd4d6dc6464875069842f147338f1306afd6",
      "transactionType": "CALL",
      "contractName": null,
      "contractAddress": "0xad473eaa51821c915d03d9db5349a0586d55e55e",
      "function": "submitMove(uint256,bytes32,bytes)",
      "arguments": [
        "39",
        "0xe8773807ffd17108aa2d132cec684352f2c5c8337ff4659cc010d15b0551847d",
        "0x34240000"
      ],
      "transaction": {
        "from": "0xe403f79171b7050c78479f52e49e753d43e72c1a",
        "to": "0xad473eaa51821c915d03d9db5349a0586d55e55e",
        "gas": "0x1801c",
        "value": "0x0",
        "input": "0x73b07f890000000000000000000000000000000000000000000000000000000000000027e8773807ffd17108aa2d132cec684352f2c5c8337ff4659cc010d15b0551847d000000000000000000000000000000000000000000000000000000000000006000000000000000000000000000000000000000000000000000000000000000043424000000000000000000000000000000000000000000000000000000000000",
        "nonce": "0x373",
        "chainId": "0x2105"
      },
      "additionalContracts": [],
      "isFixedGasLimit": false
    },
    {
      "hash": "0x173659bd750743e156959249289ce439e78d4307bc01bd0fa5d78a81bd315777",
      "transactionType": "CALL",
      "contractName": null,
      "contractAddress": "0xad473eaa51821c915d03d9db5349a0586d55e55e",
      "function": "submitMove(uint256,bytes32,bytes)",
      "arguments": [
        "39",
        "0x0692c63251d62c8f04eed454cc75e5bc199ba842e6b8106095e5d806a5e48cfa",
        "0x33230000"
      ],
      "transaction": {
        "from": "0xe403f79171b7050c78479f52e49e753d43e72c1a",
        "to": "0xad473eaa51821c915d03d9db5349a0586d55e55e",
        "gas": "0x124c3",
        "value": "0x0",
        "input": "0x73b07f8900000000000000000000000000000000000000000000000000000000000000270692c63251d62c8f04eed454cc75e5bc199ba842e6b8106095e5d806a5e48cfa000000000000000000000000000000000000000000000000000000000000006000000000000000000000000000000000000000000000000000000000000000043323000000000000000000000000000000000000000000000000000000000000",
        "nonce": "0x374",
        "chainId": "0x2105"
      },
      "additionalContracts": [],
      "isFixedGasLimit": false
    },
    {
      "hash": "0x4c46365968fb5de1b7ca1c162518553082435f10141d97f0dec070ada26250a8",
      "transactionType": "CALL",
      "contractName": null,
      "contractAddress": "0xad473eaa51821c915d03d9db5349a0586d55e55e",
      "function": "submitMove(uint256,bytes32,bytes)",
      "arguments": [
        "39",
        "0x4442d021ec118fea7ce3641d3375363801af2e92adb1272f726cf20292795a62",
        "0x392a0000"
      ],
      "transaction": {
        "from": "0xe403f79171b7050c78479f52e49e753d43e72c1a",
        "to": "0xad473eaa51821c915d03d9db5349a0586d55e55e",
        "gas": "0x124c3",
        "value": "0x0",
        "input": "0x73b07f8900000000000000000000000000000000000000000000000000000000000000274442d021ec118fea7ce3641d3375363801af2e92adb1272f726cf20292795a6200000000000000000000000000000000000000000000000000000000000000600000000000000000000000000000000000000000000000000000000000000004392a000000000000000000000000000000000000000000000000000000000000",
        "nonce": "0x375",
        "chainId": "0x2105"
      },
      "additionalContracts": [],
      "isFixedGasLimit": false
    },
    {
      "hash": "0x2036d8237f3a0136a03f9c91d9893e098d33a8efddbc05265c45225e485375b9",
      "transactionType": "CALL",
      "contractName": null,
      "contractAddress": "0xad473eaa51821c915d03d9db5349a0586d55e55e",
      "function": "submitMove(uint256,bytes32,bytes)",
      "arguments": [
        "39",
        "0xc7183fc0754b5e7da3b74bf364f8affe59ffdf73627f9b8e7d4991d4453bd364",
        "0x3b2c0000"
      ],
      "transaction": {
        "from": "0xe403f79171b7050c78479f52e49e753d43e72c1a",
        "to": "0xad473eaa51821c915d03d9db5349a0586d55e55e",
        "gas": "0x124c3",
        "value": "0x0",
        "input": "0x73b07f890000000000000000000000000000000000000000000000000000000000000027c7183fc0754b5e7da3b74bf364f8affe59ffdf73627f9b8e7d4991d4453bd364000000000000000000000000000000000000000000000000000000000000006000000000000000000000000000000000000000000000000000000000000000043b2c000000000000000000000000000000000000000000000000000000000000",
        "nonce": "0x376",
        "chainId": "0x2105"
      },
      "additionalContracts": [],
      "isFixedGasLimit": false
    },
    {
      "hash": "0x3b6556ef4623d5a3d49a223af95d436a2a2903d0a99af0747582566484f3a075",
      "transactionType": "CALL",
      "contractName": null,
      "contractAddress": "0xad473eaa51821c915d03d9db5349a0586d55e55e",
      "function": "submitMove(uint256,bytes32,bytes)",
      "arguments": [
        "40",
        "0x90e396633e67bfb131a9c9b400ea842e0f29f45c4bc7872a0e80af48deb78504",
        "0x30280000"
      ],
      "transaction": {
        "from": "0xe403f79171b7050c78479f52e49e753d43e72c1a",
        "to": "0xad473eaa51821c915d03d9db5349a0586d55e55e",
        "gas": "0x196a2",
        "value": "0x0",
        "input": "0x73b07f89000000000000000000000000000000000000000000000000000000000000002890e396633e67bfb131a9c9b400ea842e0f29f45c4bc7872a0e80af48deb78504000000000000000000000000000000000000000000000000000000000000006000000000000000000000000000000000000000000000000000000000000000043028000000000000000000000000000000000000000000000000000000000000",
        "nonce": "0x377",
        "chainId": "0x2105"
      },
      "additionalContracts": [],
      "isFixedGasLimit": false
    },
    {
      "hash": "0xbc8b2d5f263a881d845ffb87c01b405666c8d3335f7eb80fcb390aa6cfabb773",
      "transactionType": "CALL",
      "contractName": null,
      "contractAddress": "0xad473eaa51821c915d03d9db5349a0586d55e55e",
      "function": "submitMove(uint256,bytes32,bytes)",
      "arguments": [
        "40",
        "0xfc6cc8976638831fc84ceab234894f532e0338e7268a3303d4c0c1939f85dbb9",
        "0x32220000"
      ],
      "transaction": {
        "from": "0xe403f79171b7050c78479f52e49e753d43e72c1a",
        "to": "0xad473eaa51821c915d03d9db5349a0586d55e55e",
        "gas": "0x124c3",
        "value": "0x0",
        "input": "0x73b07f890000000000000000000000000000000000000000000000000000000000000028fc6cc8976638831fc84ceab234894f532e0338e7268a3303d4c0c1939f85dbb9000000000000000000000000000000000000000000000000000000000000006000000000000000000000000000000000000000000000000000000000000000043222000000000000000000000000000000000000000000000000000000000000",
        "nonce": "0x378",
        "chainId": "0x2105"
      },
      "additionalContracts": [],
      "isFixedGasLimit": false
    },
    {
      "hash": "0xc6b0420f82c596d9aa0c482234fe34c96c703fb06243085ebb6c1e77f6d7f5b3",
      "transactionType": "CALL",
      "contractName": null,
      "contractAddress": "0xad473eaa51821c915d03d9db5349a0586d55e55e",
      "function": "submitMove(uint256,bytes32,bytes)",
      "arguments": [
        "40",
        "0xbb9afb9861b8290cda948e4af3b636449a44547dca4c3acbc45e65f4e22aab40",
        "0x31290000"
      ],
      "transaction": {
        "from": "0xe403f79171b7050c78479f52e49e753d43e72c1a",
        "to": "0xad473eaa51821c915d03d9db5349a0586d55e55e",
        "gas": "0x124c3",
        "value": "0x0",
        "input": "0x73b07f890000000000000000000000000000000000000000000000000000000000000028bb9afb9861b8290cda948e4af3b636449a44547dca4c3acbc45e65f4e22aab40000000000000000000000000000000000000000000000000000000000000006000000000000000000000000000000000000000000000000000000000000000043129000000000000000000000000000000000000000000000000000000000000",
        "nonce": "0x379",
        "chainId": "0x2105"
      },
      "additionalContracts": [],
      "isFixedGasLimit": false
    },
    {
      "hash": "0x48f8622c73236caf09dbca3e0357cff0b1204e8dd8e1ebad857ca029d5ec6c5d",
      "transactionType": "CALL",
      "contractName": null,
      "contractAddress": "0xad473eaa51821c915d03d9db5349a0586d55e55e",
      "function": "submitMove(uint256,bytes32,bytes)",
      "arguments": [
        "40",
        "0x2a4b22ea265f7017c3f5040f1eec7d58baac29eda24dc699336157972973d8e1",
        "0x3a2b0000"
      ],
      "transaction": {
        "from": "0xe403f79171b7050c78479f52e49e753d43e72c1a",
        "to": "0xad473eaa51821c915d03d9db5349a0586d55e55e",
        "gas": "0x124c3",
        "value": "0x0",
        "input": "0x73b07f8900000000000000000000000000000000000000000000000000000000000000282a4b22ea265f7017c3f5040f1eec7d58baac29eda24dc699336157972973d8e1000000000000000000000000000000000000000000000000000000000000006000000000000000000000000000000000000000000000000000000000000000043a2b000000000000000000000000000000000000000000000000000000000000",
        "nonce": "0x37a",
        "chainId": "0x2105"
      },
      "additionalContracts": [],
      "isFixedGasLimit": false
    }
  ],
  "receipts": [
    {
      "status": "0x1",
      "cumulativeGasUsed": "0xc03a71",
      "logs": [
        {
          "address": "0xad473eaa51821c915d03d9db5349a0586d55e55e",
          "topics": [
            "0xca1357e0f94306885a9813b6797ad5acadca27e6b5bccbde2640d84f319df31e",
            "0x0000000000000000000000000000000000000000000000000000000000000021"
          ],
          "data": "0x3608f503d624b47779fba399a097e68bc35cdbd22fcf04e3d6b7a3bd8fa9b7460000000000000000000000000000000000000000000000000000000000000000",
          "blockHash": "0xa9e95f65fade5890d34593dbcea9af085eaecc56eefb1e95b6f67cda19ffd3c8",
          "blockNumber": "0x26196ce",
          "blockTimestamp": "0x694d8a7f",
          "transactionHash": "0x6837ae8976bfb0717ea12acadf95c68b8d1a2113b12db61c6daf94fb657ddebc",
          "transactionIndex": "0x63",
          "logIndex": "0xed",
          "removed": false
        },
        {
          "address": "0xad473eaa51821c915d03d9db5349a0586d55e55e",
          "topics": [
            "0x94af2fbea15ff3140faa3f70571c806b44849899a559d3c9f306155e45de0416",
            "0x0000000000000000000000000000000000000000000000000000000000000021",
            "0x000000000000000000000000e403f79171b7050c78479f52e49e753d43e72c1a"
          ],
          "data": "0x000000000000000000000000000000000000000000000000000000000000000100000000000000000000000000000000000000000000000000000000000000000000000000000000000000000000000000000000000000000000000000000000",
          "blockHash": "0xa9e95f65fade5890d34593dbcea9af085eaecc56eefb1e95b6f67cda19ffd3c8",
          "blockNumber": "0x26196ce",
          "blockTimestamp": "0x694d8a7f",
          "transactionHash": "0x6837ae8976bfb0717ea12acadf95c68b8d1a2113b12db61c6daf94fb657ddebc",
          "transactionIndex": "0x63",
          "logIndex": "0xee",
          "removed": false
        }
      ],
      "logsBloom": "0x00000000000000000000000000000000000000000000000000000040000400020000000000000000000000000000000000000000000000000000000000000000000000000001000000000000000000000000000000000000000000000000000000000000000000000000000000000000000000000000000000200000040000000000000000000000000000000200000000002000000000040002000000000000000004000000000000000000000000000000000800000000000000000000000000000000000000000000000000000000000000000000000000000008000004000000000000000000000000000000000000000000000000800000000000000000",
      "type": "0x2",
      "transactionHash": "0x6837ae8976bfb0717ea12acadf95c68b8d1a2113b12db61c6daf94fb657ddebc",
      "transactionIndex": "0x63",
      "blockHash": "0xa9e95f65fade5890d34593dbcea9af085eaecc56eefb1e95b6f67cda19ffd3c8",
      "blockNumber": "0x26196ce",
      "gasUsed": "0x3bd76",
      "effectiveGasPrice": "0x16e360",
      "blobGasUsed": "0x7ef4",
      "from": "0xe403f79171b7050c78479f52e49e753d43e72c1a",
      "to": "0xad473eaa51821c915d03d9db5349a0586d55e55e",
      "contractAddress": null,
      "daFootprintGasScalar": "0x145",
      "l1BaseFeeScalar": "0x8dd",
      "l1BlobBaseFee": "0x17d84d",
      "l1BlobBaseFeeScalar": "0x101c12",
      "l1Fee": "0xf9789f1",
      "l1GasPrice": "0x19609dd",
      "l1GasUsed": "0x640"
    },
    {
      "status": "0x1",
      "cumulativeGasUsed": "0xc3f7e7",
      "logs": [
        {
          "address": "0xad473eaa51821c915d03d9db5349a0586d55e55e",
          "topics": [
            "0xca1357e0f94306885a9813b6797ad5acadca27e6b5bccbde2640d84f319df31e",
            "0x0000000000000000000000000000000000000000000000000000000000000022"
          ],
          "data": "0x3608f503d624b47779fba399a097e68bc35cdbd22fcf04e3d6b7a3bd8fa9b7460000000000000000000000000000000000000000000000000000000000000000",
          "blockHash": "0x65ba2cbbf5f47fc21fa4920e4b1ad4fa552db2ab0ced231348b5860995d87644",
          "blockNumber": "0x26196ce",
          "blockTimestamp": "0x694d8a7f",
          "transactionHash": "0x7fd5a1e5163799a7a7a892cae795291927e49d9c55ca50b3ab3ae9c959c6831b",
          "transactionIndex": "0x64",
          "logIndex": "0xef",
          "removed": false
        },
        {
          "address": "0xad473eaa51821c915d03d9db5349a0586d55e55e",
          "topics": [
            "0x94af2fbea15ff3140faa3f70571c806b44849899a559d3c9f306155e45de0416",
            "0x0000000000000000000000000000000000000000000000000000000000000022",
            "0x000000000000000000000000e403f79171b7050c78479f52e49e753d43e72c1a"
          ],
          "data": "0x000000000000000000000000000000000000000000000000000000000000000100000000000000000000000000000000000000000000000000000000000000000000000000000000000000000000000000000000000000000000000000000000",
          "blockHash": "0x65ba2cbbf5f47fc21fa4920e4b1ad4fa552db2ab0ced231348b5860995d87644",
          "blockNumber": "0x26196ce",
          "blockTimestamp": "0x694d8a7f",
          "transactionHash": "0x7fd5a1e5163799a7a7a892cae795291927e49d9c55ca50b3ab3ae9c959c6831b",
          "transactionIndex": "0x64",
          "logIndex": "0xf0",
          "removed": false
        }
      ],
      "logsBloom": "0x00000000000000000000000000000000000000000000000000000040000400000000000000000000000000000000000000000000000000000000000000000000000000000001000000000000000000000000000000000000000000000000000000000000000000000000000000000000000000000000000000200000000000000000020000000000000000000200000000002000000000040002004000000000000004000000000000000000000000000000000000000000000000000000000000000000000000000000000000000000000000000000000000000008000004080000000000000000000000000000000000000000000000800000000000000000",
      "type": "0x2",
      "transactionHash": "0x7fd5a1e5163799a7a7a892cae795291927e49d9c55ca50b3ab3ae9c959c6831b",
      "transactionIndex": "0x64",
      "blockHash": "0x65ba2cbbf5f47fc21fa4920e4b1ad4fa552db2ab0ced231348b5860995d87644",
      "blockNumber": "0x26196ce",
      "gasUsed": "0x3bd76",
      "effectiveGasPrice": "0x16e360",
      "blobGasUsed": "0x7ef4",
      "from": "0xe403f79171b7050c78479f52e49e753d43e72c1a",
      "to": "0xad473eaa51821c915d03d9db5349a0586d55e55e",
      "contractAddress": null,
      "daFootprintGasScalar": "0x145",
      "l1BaseFeeScalar": "0x8dd",
      "l1BlobBaseFee": "0x17d84d",
      "l1BlobBaseFeeScalar": "0x101c12",
      "l1Fee": "0x2e0d6cd1",
      "l1GasPrice": "0x19609dd",
      "l1GasUsed": "0x640"
    },
    {
      "status": "0x1",
      "cumulativeGasUsed": "0xe4c005",
      "logs": [
        {
          "address": "0xad473eaa51821c915d03d9db5349a0586d55e55e",
          "topics": [
            "0xca1357e0f94306885a9813b6797ad5acadca27e6b5bccbde2640d84f319df31e",
            "0x0000000000000000000000000000000000000000000000000000000000000023"
          ],
          "data": "0x3608f503d624b47779fba399a097e68bc35cdbd22fcf04e3d6b7a3bd8fa9b7460000000000000000000000000000000000000000000000000000000000000000",
          "blockHash": "0xa9e95f65fade5890d34593dbcea9af085eaecc56eefb1e95b6f67cda19ffd3c8",
          "blockNumber": "0x26196ce",
          "blockTimestamp": "0x694d8a7f",
          "transactionHash": "0x9e86accb4c1d344612558d0fd8dd9673873355053b284e41e3af0179b2c37d45",
          "transactionIndex": "0x74",
          "logIndex": "0x106",
          "removed": false
        },
        {
          "address": "0xad473eaa51821c915d03d9db5349a0586d55e55e",
          "topics": [
            "0x94af2fbea15ff3140faa3f70571c806b44849899a559d3c9f306155e45de0416",
            "0x0000000000000000000000000000000000000000000000000000000000000023",
            "0x000000000000000000000000e403f79171b7050c78479f52e49e753d43e72c1a"
          ],
          "data": "0x000000000000000000000000000000000000000000000000000000000000000100000000000000000000000000000000000000000000000000000000000000000000000000000000000000000000000000000000000000000000000000000000",
          "blockHash": "0xa9e95f65fade5890d34593dbcea9af085eaecc56eefb1e95b6f67cda19ffd3c8",
          "blockNumber": "0x26196ce",
          "blockTimestamp": "0x694d8a7f",
          "transactionHash": "0x9e86accb4c1d344612558d0fd8dd9673873355053b284e41e3af0179b2c37d45",
          "transactionIndex": "0x74",
          "logIndex": "0x107",
          "removed": false
        }
      ],
      "logsBloom": "0x00000000000000000000000000000000000000000000000000000040000400000000000000000000000000000000000000000000000000800000000000000000000000000001000000000000000000000800000000000000000000000000000000000000000000000000000000000000000000000000000000200000000000000000000000000000000000000200000000002000000200040002000000000000000004000000000000000000000000000000000000000000000000000000000000000000000000000000000000000000000000000000000000000008000004000000000000000000000000000000000000000000000000800000000000000000",
      "type": "0x2",
      "transactionHash": "0x9e86accb4c1d344612558d0fd8dd9673873355053b284e41e3af0179b2c37d45",
      "transactionIndex": "0x74",
      "blockHash": "0xa9e95f65fade5890d34593dbcea9af085eaecc56eefb1e95b6f67cda19ffd3c8",
      "blockNumber": "0x26196ce",
      "gasUsed": "0x3bd76",
      "effectiveGasPrice": "0x16e360",
      "blobGasUsed": "0x7ef4",
      "from": "0xe403f79171b7050c78479f52e49e753d43e72c1a",
      "to": "0xad473eaa51821c915d03d9db5349a0586d55e55e",
      "contractAddress": null,
      "daFootprintGasScalar": "0x145",
      "l1BaseFeeScalar": "0x8dd",
      "l1BlobBaseFee": "0x17d84d",
      "l1BlobBaseFeeScalar": "0x101c12",
      "l1Fee": "0xf9789f1",
      "l1GasPrice": "0x19609dd",
      "l1GasUsed": "0x640"
    },
    {
      "status": "0x1",
      "cumulativeGasUsed": "0xe87d7b",
      "logs": [
        {
          "address": "0xad473eaa51821c915d03d9db5349a0586d55e55e",
          "topics": [
            "0xca1357e0f94306885a9813b6797ad5acadca27e6b5bccbde2640d84f319df31e",
            "0x0000000000000000000000000000000000000000000000000000000000000024"
          ],
          "data": "0x3608f503d624b47779fba399a097e68bc35cdbd22fcf04e3d6b7a3bd8fa9b7460000000000000000000000000000000000000000000000000000000000000000",
          "blockHash": "0xa9e95f65fade5890d34593dbcea9af085eaecc56eefb1e95b6f67cda19ffd3c8",
          "blockNumber": "0x26196ce",
          "blockTimestamp": "0x694d8a7f",
          "transactionHash": "0x129c74f92ac6216a246916671fe25c5e643e933c4276a2d82c9ab4665bf5c0e4",
          "transactionIndex": "0x75",
          "logIndex": "0x108",
          "removed": false
        },
        {
          "address": "0xad473eaa51821c915d03d9db5349a0586d55e55e",
          "topics": [
            "0x94af2fbea15ff3140faa3f70571c806b44849899a559d3c9f306155e45de0416",
            "0x0000000000000000000000000000000000000000000000000000000000000024",
            "0x000000000000000000000000e403f79171b7050c78479f52e49e753d43e72c1a"
          ],
          "data": "0x000000000000000000000000000000000000000000000000000000000000000100000000000000000000000000000000000000000000000000000000000000000000000000000000000000000000000000000000000000000000000000000000",
          "blockHash": "0xa9e95f65fade5890d34593dbcea9af085eaecc56eefb1e95b6f67cda19ffd3c8",
          "blockNumber": "0x26196ce",
          "blockTimestamp": "0x694d8a7f",
          "transactionHash": "0x129c74f92ac6216a246916671fe25c5e643e933c4276a2d82c9ab4665bf5c0e4",
          "transactionIndex": "0x75",
          "logIndex": "0x109",
          "removed": false
        }
      ],
      "logsBloom": "0x00000000000000000000000000000000000000000000000000000040000400000000000000000000000000000000000000000000000000000000000000000000000000000001000000000000000000000000000000000000000000000000000000000000000800000000000000000000000000000000000000200000000000000000000000000000000000000208000000002000000000040002000000000000000004000002000000000000000000000000000000000000000000000000000000000000000000000000000000000000000000000000000000000008000004000000000000000000000000000000000000000000000000800000000000000000",
      "type": "0x2",
      "transactionHash": "0x129c74f92ac6216a246916671fe25c5e643e933c4276a2d82c9ab4665bf5c0e4",
      "transactionIndex": "0x75",
      "blockHash": "0xa9e95f65fade5890d34593dbcea9af085eaecc56eefb1e95b6f67cda19ffd3c8",
      "blockNumber": "0x26196ce",
      "gasUsed": "0x3bd76",
      "effectiveGasPrice": "0x16e360",
      "blobGasUsed": "0x7ef4",
      "from": "0xe403f79171b7050c78479f52e49e753d43e72c1a",
      "to": "0xad473eaa51821c915d03d9db5349a0586d55e55e",
      "contractAddress": null,
      "daFootprintGasScalar": "0x145",
      "l1BaseFeeScalar": "0x8dd",
      "l1BlobBaseFee": "0x17d84d",
      "l1BlobBaseFeeScalar": "0x101c12",
      "l1Fee": "0xf9789f1",
      "l1GasPrice": "0x19609dd",
      "l1GasUsed": "0x640"
    },
    {
      "status": "0x1",
      "cumulativeGasUsed": "0xec3af1",
      "logs": [
        {
          "address": "0xad473eaa51821c915d03d9db5349a0586d55e55e",
          "topics": [
            "0xca1357e0f94306885a9813b6797ad5acadca27e6b5bccbde2640d84f319df31e",
            "0x0000000000000000000000000000000000000000000000000000000000000025"
          ],
          "data": "0x3608f503d624b47779fba399a097e68bc35cdbd22fcf04e3d6b7a3bd8fa9b7460000000000000000000000000000000000000000000000000000000000000000",
          "blockHash": "0xb8544ebea482c469efc0a609c70ec501d6fb5cd0ac6ee20c1d5cc36dbef09c61",
          "blockNumber": "0x26196ce",
          "blockTimestamp": "0x694d8a7f",
          "transactionHash": "0x411dd8ea6b0e4a07ce690ebe2479ce4ef2d0090f3f626ce52d5c4ebbad9a8d6e",
          "transactionIndex": "0x76",
          "logIndex": "0x10a",
          "removed": false
        },
        {
          "address": "0xad473eaa51821c915d03d9db5349a0586d55e55e",
          "topics": [
            "0x94af2fbea15ff3140faa3f70571c806b44849899a559d3c9f306155e45de0416",
            "0x0000000000000000000000000000000000000000000000000000000000000025",
            "0x000000000000000000000000e403f79171b7050c78479f52e49e753d43e72c1a"
          ],
          "data": "0x000000000000000000000000000000000000000000000000000000000000000100000000000000000000000000000000000000000000000000000000000000000000000000000000000000000000000000000000000000000000000000000000",
          "blockHash": "0xb8544ebea482c469efc0a609c70ec501d6fb5cd0ac6ee20c1d5cc36dbef09c61",
          "blockNumber": "0x26196ce",
          "blockTimestamp": "0x694d8a7f",
          "transactionHash": "0x411dd8ea6b0e4a07ce690ebe2479ce4ef2d0090f3f626ce52d5c4ebbad9a8d6e",
          "transactionIndex": "0x76",
          "logIndex": "0x10b",
          "removed": false
        }
      ],
      "logsBloom": "0x00000000000000000000000000000000000000000000000000000040000400000000000000000000000000000000000000000000000000000000000000000000000000000001000000000000000000000000000000000000000000000000000000000000000000000000000000000000000000000000000000200000000000000000000000000000000000000200000000002000000000040002000000000000000004000000000000000002000000000000000000000000000000000000000000000000000000000000000000000000000000000000000000000008000004008000000000000000000000000000000000000000000000800000000002000000",
      "type": "0x2",
      "transactionHash": "0x411dd8ea6b0e4a07ce690ebe2479ce4ef2d0090f3f626ce52d5c4ebbad9a8d6e",
      "transactionIndex": "0x76",
      "blockHash": "0xb8544ebea482c469efc0a609c70ec501d6fb5cd0ac6ee20c1d5cc36dbef09c61",
      "blockNumber": "0x26196ce",
      "gasUsed": "0x3bd76",
      "effectiveGasPrice": "0x16e360",
      "blobGasUsed": "0x7ef4",
      "from": "0xe403f79171b7050c78479f52e49e753d43e72c1a",
      "to": "0xad473eaa51821c915d03d9db5349a0586d55e55e",
      "contractAddress": null,
      "daFootprintGasScalar": "0x145",
      "l1BaseFeeScalar": "0x8dd",
      "l1BlobBaseFee": "0x17d84d",
      "l1BlobBaseFeeScalar": "0x101c12",
      "l1Fee": "0x2e0d6cd1",
      "l1GasPrice": "0x19609dd",
      "l1GasUsed": "0x640"
    },
    {
      "status": "0x1",
      "cumulativeGasUsed": "0xeff867",
      "logs": [
        {
          "address": "0xad473eaa51821c915d03d9db5349a0586d55e55e",
          "topics": [
            "0xca1357e0f94306885a9813b6797ad5acadca27e6b5bccbde2640d84f319df31e",
            "0x0000000000000000000000000000000000000000000000000000000000000026"
          ],
          "data": "0x3608f503d624b47779fba399a097e68bc35cdbd22fcf04e3d6b7a3bd8fa9b7460000000000000000000000000000000000000000000000000000000000000000",
          "blockHash": "0xa9e95f65fade5890d34593dbcea9af085eaecc56eefb1e95b6f67cda19ffd3c8",
          "blockNumber": "0x26196ce",
          "blockTimestamp": "0x694d8a7f",
          "transactionHash": "0xcc71a769da54d9d5e599ebdee3704f3c8d7dbddc5bc8f54dc9a49932421743fb",
          "transactionIndex": "0x77",
          "logIndex": "0x10c",
          "removed": false
        },
        {
          "address": "0xad473eaa51821c915d03d9db5349a0586d55e55e",
          "topics": [
            "0x94af2fbea15ff3140faa3f70571c806b44849899a559d3c9f306155e45de0416",
            "0x0000000000000000000000000000000000000000000000000000000000000026",
            "0x000000000000000000000000e403f79171b7050c78479f52e49e753d43e72c1a"
          ],
          "data": "0x000000000000000000000000000000000000000000000000000000000000000100000000000000000000000000000000000000000000000000000000000000000000000000000000000000000000000000000000000000000000000000000000",
          "blockHash": "0xa9e95f65fade5890d34593dbcea9af085eaecc56eefb1e95b6f67cda19ffd3c8",
          "blockNumber": "0x26196ce",
          "blockTimestamp": "0x694d8a7f",
          "transactionHash": "0xcc71a769da54d9d5e599ebdee3704f3c8d7dbddc5bc8f54dc9a49932421743fb",
          "transactionIndex": "0x77",
          "logIndex": "0x10d",
          "removed": false
        }
      ],
      "logsBloom": "0x00000000000000000000000000000000000000000000000000000040000400000000000000000000000000000000000000000000000000000000000000000000000000000001000000000000000000000001000000000000000000000000000001000000000000000000000000000000000000000000040000200000000000000000000000000000000000000200000000002000000000040002000000000000000004000000000000000000000000000000000000000000000000000000000000000000000000000000000000000000000000000000000000000008000004000000000000000000000000000000000000000000000000800000000000000000",
      "type": "0x2",
      "transactionHash": "0xcc71a769da54d9d5e599ebdee3704f3c8d7dbddc5bc8f54dc9a49932421743fb",
      "transactionIndex": "0x77",
      "blockHash": "0xa9e95f65fade5890d34593dbcea9af085eaecc56eefb1e95b6f67cda19ffd3c8",
      "blockNumber": "0x26196ce",
      "gasUsed": "0x3bd76",
      "effectiveGasPrice": "0x16e360",
      "blobGasUsed": "0x7ef4",
      "from": "0xe403f79171b7050c78479f52e49e753d43e72c1a",
      "to": "0xad473eaa51821c915d03d9db5349a0586d55e55e",
      "contractAddress": null,
      "daFootprintGasScalar": "0x145",
      "l1BaseFeeScalar": "0x8dd",
      "l1BlobBaseFee": "0x17d84d",
      "l1BlobBaseFeeScalar": "0x101c12",
      "l1Fee": "0xf9789f1",
      "l1GasPrice": "0x19609dd",
      "l1GasUsed": "0x640"
    },
    {
      "status": "0x1",
      "cumulativeGasUsed": "0xf3b5dd",
      "logs": [
        {
          "address": "0xad473eaa51821c915d03d9db5349a0586d55e55e",
          "topics": [
            "0xca1357e0f94306885a9813b6797ad5acadca27e6b5bccbde2640d84f319df31e",
            "0x0000000000000000000000000000000000000000000000000000000000000027"
          ],
          "data": "0x3608f503d624b47779fba399a097e68bc35cdbd22fcf04e3d6b7a3bd8fa9b7460000000000000000000000000000000000000000000000000000000000000000",
          "blockHash": "0xa9e95f65fade5890d34593dbcea9af085eaecc56eefb1e95b6f67cda19ffd3c8",
          "blockNumber": "0x26196ce",
          "blockTimestamp": "0x694d8a7f",
          "transactionHash": "0xaf7fb045a8985d5aea3aee8fc5b332020ce74ef982bf470692f2384c819cc942",
          "transactionIndex": "0x78",
          "logIndex": "0x10e",
          "removed": false
        },
        {
          "address": "0xad473eaa51821c915d03d9db5349a0586d55e55e",
          "topics": [
            "0x94af2fbea15ff3140faa3f70571c806b44849899a559d3c9f306155e45de0416",
            "0x0000000000000000000000000000000000000000000000000000000000000027",
            "0x000000000000000000000000e403f79171b7050c78479f52e49e753d43e72c1a"
          ],
          "data": "0x000000000000000000000000000000000000000000000000000000000000000100000000000000000000000000000000000000000000000000000000000000000000000000000000000000000000000000000000000000000000000000000000",
          "blockHash": "0xa9e95f65fade5890d34593dbcea9af085eaecc56eefb1e95b6f67cda19ffd3c8",
          "blockNumber": "0x26196ce",
          "blockTimestamp": "0x694d8a7f",
          "transactionHash": "0xaf7fb045a8985d5aea3aee8fc5b332020ce74ef982bf470692f2384c819cc942",
          "transactionIndex": "0x78",
          "logIndex": "0x10f",
          "removed": false
        }
      ],
      "logsBloom": "0x00000000000000000000000000000000000000000000000000000040000400000002000000000000000000000000000000000000000000000000000000000000000000000001000000000000000000000000000000000000000000000000000000000000000000000000000000000000000000000000000000200000000000000000000000000000000000000200000000002000000000040002000000000000000004000000000000000000000000000000000000000000000000000000000000000000000000000000000000000000000000000000000000000008000004000000000000000000000000100000000008000000000000800000000000000000",
      "type": "0x2",
      "transactionHash": "0xaf7fb045a8985d5aea3aee8fc5b332020ce74ef982bf470692f2384c819cc942",
      "transactionIndex": "0x78",
      "blockHash": "0xa9e95f65fade5890d34593dbcea9af085eaecc56eefb1e95b6f67cda19ffd3c8",
      "blockNumber": "0x26196ce",
      "gasUsed": "0x3bd76",
      "effectiveGasPrice": "0x16e360",
      "blobGasUsed": "0x7ef4",
      "from": "0xe403f79171b7050c78479f52e49e753d43e72c1a",
      "to": "0xad473eaa51821c915d03d9db5349a0586d55e55e",
      "contractAddress": null,
      "daFootprintGasScalar": "0x145",
      "l1BaseFeeScalar": "0x8dd",
      "l1BlobBaseFee": "0x17d84d",
      "l1BlobBaseFeeScalar": "0x101c12",
      "l1Fee": "0xf9789f1",
      "l1GasPrice": "0x19609dd",
      "l1GasUsed": "0x640"
    },
    {
      "status": "0x1",
      "cumulativeGasUsed": "0x1272356",
      "logs": [
        {
          "address": "0xad473eaa51821c915d03d9db5349a0586d55e55e",
          "topics": [
            "0xca1357e0f94306885a9813b6797ad5acadca27e6b5bccbde2640d84f319df31e",
            "0x0000000000000000000000000000000000000000000000000000000000000028"
          ],
          "data": "0x3608f503d624b47779fba399a097e68bc35cdbd22fcf04e3d6b7a3bd8fa9b7460000000000000000000000000000000000000000000000000000000000000000",
          "blockHash": "0x10aafbfde9500c9c7e7bb19ec537e497127d2080050b9fbbe65876701026d215",
          "blockNumber": "0x26196ce",
          "blockTimestamp": "0x694d8a7f",
          "transactionHash": "0xd7d6c2690447c847a786e6d2c947e34385514447e9230a224bf71761635ab96c",
          "transactionIndex": "0x94",
          "logIndex": "0x141",
          "removed": false
        },
        {
          "address": "0xad473eaa51821c915d03d9db5349a0586d55e55e",
          "topics": [
            "0x94af2fbea15ff3140faa3f70571c806b44849899a559d3c9f306155e45de0416",
            "0x0000000000000000000000000000000000000000000000000000000000000028",
            "0x000000000000000000000000e403f79171b7050c78479f52e49e753d43e72c1a"
          ],
          "data": "0x000000000000000000000000000000000000000000000000000000000000000100000000000000000000000000000000000000000000000000000000000000000000000000000000000000000000000000000000000000000000000000000000",
          "blockHash": "0x10aafbfde9500c9c7e7bb19ec537e497127d2080050b9fbbe65876701026d215",
          "blockNumber": "0x26196ce",
          "blockTimestamp": "0x694d8a7f",
          "transactionHash": "0xd7d6c2690447c847a786e6d2c947e34385514447e9230a224bf71761635ab96c",
          "transactionIndex": "0x94",
          "logIndex": "0x142",
          "removed": false
        }
      ],
      "logsBloom": "0x00000000000000000000000000000000000000000000000000000040000400000000000000000000000000000000000000000000000000000000000000000000000000000001000000000000000000000000000000000000000000000000000000000000000000000000000000000000000000000000000000200000000000000000000000000000000000000200000000002000000000040002000000000000000004000100000000000000000000000000000000000000000000000000000000000000000000000000000000000000000020000000000000000008000004000000000000000000000000000000000000000000000000800000000000000000",
      "type": "0x2",
      "transactionHash": "0xd7d6c2690447c847a786e6d2c947e34385514447e9230a224bf71761635ab96c",
      "transactionIndex": "0x94",
      "blockHash": "0x10aafbfde9500c9c7e7bb19ec537e497127d2080050b9fbbe65876701026d215",
      "blockNumber": "0x26196ce",
      "gasUsed": "0x3bd76",
      "effectiveGasPrice": "0x16e360",
      "blobGasUsed": "0x7ef4",
      "from": "0xe403f79171b7050c78479f52e49e753d43e72c1a",
      "to": "0xad473eaa51821c915d03d9db5349a0586d55e55e",
      "contractAddress": null,
      "daFootprintGasScalar": "0x145",
      "l1BaseFeeScalar": "0x8dd",
      "l1BlobBaseFee": "0x17d84d",
      "l1BlobBaseFeeScalar": "0x101c12",
      "l1Fee": "0xf9789f1",
      "l1GasPrice": "0x19609dd",
      "l1GasUsed": "0x640"
    },
    {
      "status": "0x1",
      "cumulativeGasUsed": "0x128396d",
      "logs": [
        {
          "address": "0xad473eaa51821c915d03d9db5349a0586d55e55e",
          "topics": [
            "0x36e13ba1e45df3ecb8f6beb6274a1f5d4abf4c0792bb56700354f0d50bf0acd7",
            "0x0000000000000000000000000000000000000000000000000000000000000021",
            "0x000000000000000000000000e403f79171b7050c78479f52e49e753d43e72c1a"
          ],
          "data": "0xe8773807ffd17108aa2d132cec684352f2c5c8337ff4659cc010d15b0551847d0000000000000000000000000000000000000000000000000000000000000001000000000000000000000000000000000000000000000000000000000000006000000000000000000000000000000000000000000000000000000000000000043424000000000000000000000000000000000000000000000000000000000000",
          "blockHash": "0xa9e95f65fade5890d34593dbcea9af085eaecc56eefb1e95b6f67cda19ffd3c8",
          "blockNumber": "0x26196ce",
          "blockTimestamp": "0x694d8a7f",
          "transactionHash": "0x4c1fb4ef3730456bddd850e575aef6e2c201215e0aff46db79d0343eb0bc59ee",
          "transactionIndex": "0x95",
          "logIndex": "0x143",
          "removed": false
        },
        {
          "address": "0xad473eaa51821c915d03d9db5349a0586d55e55e",
          "topics": [
            "0x36e13ba1e45df3ecb8f6beb6274a1f5d4abf4c0792bb56700354f0d50bf0acd7",
            "0x0000000000000000000000000000000000000000000000000000000000000021",
            "0x000000000000000000000000ad473eaa51821c915d03d9db5349a0586d55e55e"
          ],
          "data": "0xf4bb36a023d03b095a88119a20a9000a252aea11d80408b3bd0c6bade87b4ba70000000000000000000000000000000000000000000000000000000000000002000000000000000000000000000000000000000000000000000000000000006000000000000000000000000000000000000000000000000000000000000000043424000000000000000000000000000000000000000000000000000000000000",
          "blockHash": "0xa9e95f65fade5890d34593dbcea9af085eaecc56eefb1e95b6f67cda19ffd3c8",
          "blockNumber": "0x26196ce",
          "blockTimestamp": "0x694d8a7f",
          "transactionHash": "0x4c1fb4ef3730456bddd850e575aef6e2c201215e0aff46db79d0343eb0bc59ee",
          "transactionIndex": "0x95",
          "logIndex": "0x144",
          "removed": false
        }
      ],
      "logsBloom": "0x00000000000000000000000000000000000000000000000000000000000400020000000000000000000000000000000000000000000000000000000000000000000000000000000000000000000000000000000010000000000000000000000000000000000000000000000000000040000000000400000000000000040000000000000000000000000000000200000000000000000000040002000000000000000004000000000000000000000000000000000800000000000000004000000000000000000000000000000000400000000000000000000000000000000800000000000000000000000000000000000000000000000000800000000000000000",
      "type": "0x2",
      "transactionHash": "0x4c1fb4ef3730456bddd850e575aef6e2c201215e0aff46db79d0343eb0bc59ee",
      "transactionIndex": "0x95",
      "blockHash": "0xa9e95f65fade5890d34593dbcea9af085eaecc56eefb1e95b6f67cda19ffd3c8",
      "blockNumber": "0x26196ce",
      "gasUsed": "0x11617",
      "effectiveGasPrice": "0x16e360",
      "blobGasUsed": "0x8a61",
      "from": "0xe403f79171b7050c78479f52e49e753d43e72c1a",
      "to": "0xad473eaa51821c915d03d9db5349a0586d55e55e",
      "contractAddress": null,
      "daFootprintGasScalar": "0x145",
      "l1BaseFeeScalar": "0x8dd",
      "l1BlobBaseFee": "0x17d84d",
      "l1BlobBaseFeeScalar": "0x101c12",
      "l1Fee": "0x11190488",
      "l1GasPrice": "0x19609dd",
      "l1GasUsed": "0x6da"
    },
    {
      "status": "0x1",
      "cumulativeGasUsed": "0x1290d62",
      "logs": [
        {
          "address": "0xad473eaa51821c915d03d9db5349a0586d55e55e",
          "topics": [
            "0x36e13ba1e45df3ecb8f6beb6274a1f5d4abf4c0792bb56700354f0d50bf0acd7",
            "0x0000000000000000000000000000000000000000000000000000000000000021",
            "0x000000000000000000000000e403f79171b7050c78479f52e49e753d43e72c1a"
          ],
          "data": "0x0692c63251d62c8f04eed454cc75e5bc199ba842e6b8106095e5d806a5e48cfa0000000000000000000000000000000000000000000000000000000000000003000000000000000000000000000000000000000000000000000000000000006000000000000000000000000000000000000000000000000000000000000000043323000000000000000000000000000000000000000000000000000000000000",
          "blockHash": "0xa9e95f65fade5890d34593dbcea9af085eaecc56eefb1e95b6f67cda19ffd3c8",
          "blockNumber": "0x26196ce",
          "blockTimestamp": "0x694d8a7f",
          "transactionHash": "0x3417cc8ca2e00b94a1e3e2a8ce07b0f6528f32910fab7e92787f1c61f9147fba",
          "transactionIndex": "0x96",
          "logIndex": "0x145",
          "removed": false
        },
        {
          "address": "0xad473eaa51821c915d03d9db5349a0586d55e55e",
          "topics": [
            "0x36e13ba1e45df3ecb8f6beb6274a1f5d4abf4c0792bb56700354f0d50bf0acd7",
            "0x0000000000000000000000000000000000000000000000000000000000000021",
            "0x000000000000000000000000ad473eaa51821c915d03d9db5349a0586d55e55e"
          ],
          "data": "0x80db663b91d50261d3b6cf7c40f14617bc570551fdc50ae5d379aac6ea1fb5d50000000000000000000000000000000000000000000000000000000000000004000000000000000000000000000000000000000000000000000000000000006000000000000000000000000000000000000000000000000000000000000000043d0c000000000000000000000000000000000000000000000000000000000000",
          "blockHash": "0xa9e95f65fade5890d34593dbcea9af085eaecc56eefb1e95b6f67cda19ffd3c8",
          "blockNumber": "0x26196ce",
          "blockTimestamp": "0x694d8a7f",
          "transactionHash": "0x3417cc8ca2e00b94a1e3e2a8ce07b0f6528f32910fab7e92787f1c61f9147fba",
          "transactionIndex": "0x96",
          "logIndex": "0x146",
          "removed": false
        }
      ],
      "logsBloom": "0x00000000000000000000000000000000000000000000000000000000000400020000000000000000000000000000000000000000000000000000000000000000000000000000000000000000000000000000000010000000000000000000000000000000000000000000000000000040000000000400000000000000040000000000000000000000000000000200000000000000000000040002000000000000000004000000000000000000000000000000000800000000000000004000000000000000000000000000000000400000000000000000000000000000000800000000000000000000000000000000000000000000000000800000000000000000",
      "type": "0x2",
      "transactionHash": "0x3417cc8ca2e00b94a1e3e2a8ce07b0f6528f32910fab7e92787f1c61f9147fba",
      "transactionIndex": "0x96",
      "blockHash": "0xa9e95f65fade5890d34593dbcea9af085eaecc56eefb1e95b6f67cda19ffd3c8",
      "blockNumber": "0x26196ce",
      "gasUsed": "0xd3f5",
      "effectiveGasPrice": "0x16e360",
      "blobGasUsed": "0x8a61",
      "from": "0xe403f79171b7050c78479f52e49e753d43e72c1a",
      "to": "0xad473eaa51821c915d03d9db5349a0586d55e55e",
      "contractAddress": null,
      "daFootprintGasScalar": "0x145",
      "l1BaseFeeScalar": "0x8dd",
      "l1BlobBaseFee": "0x17d84d",
      "l1BlobBaseFeeScalar": "0x101c12",
      "l1Fee": "0x11190488",
      "l1GasPrice": "0x19609dd",
      "l1GasUsed": "0x6da"
    },
    {
      "status": "0x1",
      "cumulativeGasUsed": "0x129e157",
      "logs": [
        {
          "address": "0xad473eaa51821c915d03d9db5349a0586d55e55e",
          "topics": [
            "0x36e13ba1e45df3ecb8f6beb6274a1f5d4abf4c0792bb56700354f0d50bf0acd7",
            "0x0000000000000000000000000000000000000000000000000000000000000021",
            "0x000000000000000000000000e403f79171b7050c78479f52e49e753d43e72c1a"
          ],
          "data": "0x4442d021ec118fea7ce3641d3375363801af2e92adb1272f726cf20292795a62000000000000000000000000000000000000000000000000000000000000000500000000000000000000000000000000000000000000000000000000000000600000000000000000000000000000000000000000000000000000000000000004392a000000000000000000000000000000000000000000000000000000000000",
          "blockHash": "0xa9e95f65fade5890d34593dbcea9af085eaecc56eefb1e95b6f67cda19ffd3c8",
          "blockNumber": "0x26196ce",
          "blockTimestamp": "0x694d8a7f",
          "transactionHash": "0xf60c5d846f8b6e718120fc64f3744c70f0285ad15bbf6ae856ee6bf312c2145f",
          "transactionIndex": "0x97",
          "logIndex": "0x147",
          "removed": false
        },
        {
          "address": "0xad473eaa51821c915d03d9db5349a0586d55e55e",
          "topics": [
            "0x36e13ba1e45df3ecb8f6beb6274a1f5d4abf4c0792bb56700354f0d50bf0acd7",
            "0x0000000000000000000000000000000000000000000000000000000000000021",
            "0x000000000000000000000000ad473eaa51821c915d03d9db5349a0586d55e55e"
          ],
          "data": "0xe131cca08afe30756df90d03f27be0045be7f7a0d73031afbdf14f8a193cb8e6000000000000000000000000000000000000000000000000000000000000000600000000000000000000000000000000000000000000000000000000000000600000000000000000000000000000000000000000000000000000000000000004271a000000000000000000000000000000000000000000000000000000000000",
          "blockHash": "0xa9e95f65fade5890d34593dbcea9af085eaecc56eefb1e95b6f67cda19ffd3c8",
          "blockNumber": "0x26196ce",
          "blockTimestamp": "0x694d8a7f",
          "transactionHash": "0xf60c5d846f8b6e718120fc64f3744c70f0285ad15bbf6ae856ee6bf312c2145f",
          "transactionIndex": "0x97",
          "logIndex": "0x148",
          "removed": false
        }
      ],
      "logsBloom": "0x00000000000000000000000000000000000000000000000000000000000400020000000000000000000000000000000000000000000000000000000000000000000000000000000000000000000000000000000010000000000000000000000000000000000000000000000000000040000000000400000000000000040000000000000000000000000000000200000000000000000000040002000000000000000004000000000000000000000000000000000800000000000000004000000000000000000000000000000000400000000000000000000000000000000800000000000000000000000000000000000000000000000000800000000000000000",
      "type": "0x2",
      "transactionHash": "0xf60c5d846f8b6e718120fc64f3744c70f0285ad15bbf6ae856ee6bf312c2145f",
      "transactionIndex": "0x97",
      "blockHash": "0xa9e95f65fade5890d34593dbcea9af085eaecc56eefb1e95b6f67cda19ffd3c8",
      "blockNumber": "0x26196ce",
      "gasUsed": "0xd3f5",
      "effectiveGasPrice": "0x16e360",
      "blobGasUsed": "0x8a61",
      "from": "0xe403f79171b7050c78479f52e49e753d43e72c1a",
      "to": "0xad473eaa51821c915d03d9db5349a0586d55e55e",
      "contractAddress": null,
      "daFootprintGasScalar": "0x145",
      "l1BaseFeeScalar": "0x8dd",
      "l1BlobBaseFee": "0x17d84d",
      "l1BlobBaseFeeScalar": "0x101c12",
      "l1Fee": "0x11190488",
      "l1GasPrice": "0x19609dd",
      "l1GasUsed": "0x6da"
    },
    {
      "status": "0x1",
      "cumulativeGasUsed": "0x14dc03f",
      "logs": [
        {
          "address": "0xad473eaa51821c915d03d9db5349a0586d55e55e",
          "topics": [
            "0x36e13ba1e45df3ecb8f6beb6274a1f5d4abf4c0792bb56700354f0d50bf0acd7",
            "0x0000000000000000000000000000000000000000000000000000000000000021",
            "0x000000000000000000000000e403f79171b7050c78479f52e49e753d43e72c1a"
          ],
          "data": "0xc7183fc0754b5e7da3b74bf364f8affe59ffdf73627f9b8e7d4991d4453bd3640000000000000000000000000000000000000000000000000000000000000007000000000000000000000000000000000000000000000000000000000000006000000000000000000000000000000000000000000000000000000000000000043b2c000000000000000000000000000000000000000000000000000000000000",
          "blockHash": "0xa9e95f65fade5890d34593dbcea9af085eaecc56eefb1e95b6f67cda19ffd3c8",
          "blockNumber": "0x26196ce",
          "blockTimestamp": "0x694d8a7f",
          "transactionHash": "0xe0fba234d7b65afd0a96500208c0511db17de7f9fd40d9a181fe02bad9b1283e",
          "transactionIndex": "0xa9",
          "logIndex": "0x164",
          "removed": false
        },
        {
          "address": "0xad473eaa51821c915d03d9db5349a0586d55e55e",
          "topics": [
            "0x36e13ba1e45df3ecb8f6beb6274a1f5d4abf4c0792bb56700354f0d50bf0acd7",
            "0x0000000000000000000000000000000000000000000000000000000000000021",
            "0x000000000000000000000000ad473eaa51821c915d03d9db5349a0586d55e55e"
          ],
          "data": "0xfa672e07d673b2d218b92d8ee0e059b5d1bfc274c1d1aaf67086a3dbe5f1587f0000000000000000000000000000000000000000000000000000000000000008000000000000000000000000000000000000000000000000000000000000006000000000000000000000000000000000000000000000000000000000000000042b13000000000000000000000000000000000000000000000000000000000000",
          "blockHash": "0xa9e95f65fade5890d34593dbcea9af085eaecc56eefb1e95b6f67cda19ffd3c8",
          "blockNumber": "0x26196ce",
          "blockTimestamp": "0x694d8a7f",
          "transactionHash": "0xe0fba234d7b65afd0a96500208c0511db17de7f9fd40d9a181fe02bad9b1283e",
          "transactionIndex": "0xa9",
          "logIndex": "0x165",
          "removed": false
        }
      ],
      "logsBloom": "0x00000000000000000000000000000000000000000000000000000000000400020000000000000000000000000000000000000000000000000000000000000000000000000000000000000000000000000000000010000000000000000000000000000000000000000000000000000040000000000400000000000000040000000000000000000000000000000200000000000000000000040002000000000000000004000000000000000000000000000000000800000000000000004000000000000000000000000000000000400000000000000000000000000000000800000000000000000000000000000000000000000000000000800000000000000000",
      "type": "0x2",
      "transactionHash": "0xe0fba234d7b65afd0a96500208c0511db17de7f9fd40d9a181fe02bad9b1283e",
      "transactionIndex": "0xa9",
      "blockHash": "0xa9e95f65fade5890d34593dbcea9af085eaecc56eefb1e95b6f67cda19ffd3c8",
      "blockNumber": "0x26196ce",
      "gasUsed": "0xd3f5",
      "effectiveGasPrice": "0x16e360",
      "blobGasUsed": "0x8a61",
      "from": "0xe403f79171b7050c78479f52e49e753d43e72c1a",
      "to": "0xad473eaa51821c915d03d9db5349a0586d55e55e",
      "contractAddress": null,
      "daFootprintGasScalar": "0x145",
      "l1BaseFeeScalar": "0x8dd",
      "l1BlobBaseFee": "0x17d84d",
      "l1BlobBaseFeeScalar": "0x101c12",
      "l1Fee": "0x11190488",
      "l1GasPrice": "0x19609dd",
      "l1GasUsed": "0x6da"
    },
    {
      "status": "0x1",
      "cumulativeGasUsed": "0x14ed64a",
      "logs": [
        {
          "address": "0xad473eaa51821c915d03d9db5349a0586d55e55e",
          "topics": [
            "0x36e13ba1e45df3ecb8f6beb6274a1f5d4abf4c0792bb56700354f0d50bf0acd7",
            "0x0000000000000000000000000000000000000000000000000000000000000022",
            "0x000000000000000000000000e403f79171b7050c78479f52e49e753d43e72c1a"
          ],
          "data": "0x90e396633e67bfb131a9c9b400ea842e0f29f45c4bc7872a0e80af48deb785040000000000000000000000000000000000000000000000000000000000000001000000000000000000000000000000000000000000000000000000000000006000000000000000000000000000000000000000000000000000000000000000043028000000000000000000000000000000000000000000000000000000000000",
          "blockHash": "0xa9e95f65fade5890d34593dbcea9af085eaecc56eefb1e95b6f67cda19ffd3c8",
          "blockNumber": "0x26196ce",
          "blockTimestamp": "0x694d8a7f",
          "transactionHash": "0x5aae7ca3b5dd02acae371cfc264eea7e3eb3f416d7174244c9d796bddb4cbe60",
          "transactionIndex": "0xaa",
          "logIndex": "0x166",
          "removed": false
        },
        {
          "address": "0xad473eaa51821c915d03d9db5349a0586d55e55e",
          "topics": [
            "0x36e13ba1e45df3ecb8f6beb6274a1f5d4abf4c0792bb56700354f0d50bf0acd7",
            "0x0000000000000000000000000000000000000000000000000000000000000022",
            "0x000000000000000000000000ad473eaa51821c915d03d9db5349a0586d55e55e"
          ],
          "data": "0x60e65b9330f95689004881ceb0c70271140d7a6c66037940d345a33188c341c30000000000000000000000000000000000000000000000000000000000000002000000000000000000000000000000000000000000000000000000000000006000000000000000000000000000000000000000000000000000000000000000043424000000000000000000000000000000000000000000000000000000000000",
          "blockHash": "0xa9e95f65fade5890d34593dbcea9af085eaecc56eefb1e95b6f67cda19ffd3c8",
          "blockNumber": "0x26196ce",
          "blockTimestamp": "0x694d8a7f",
          "transactionHash": "0x5aae7ca3b5dd02acae371cfc264eea7e3eb3f416d7174244c9d796bddb4cbe60",
          "transactionIndex": "0xaa",
          "logIndex": "0x167",
          "removed": false
        }
      ],
      "logsBloom": "0x00000000000000000000000000000000000000000000000000000000000400000000000000000000000000000000000000000000000000000000000000000000000000000000000000000000000000000000000010000000000000000000000000000000000000000000000000000040000000000400000000000000000000000000020000000000000000000200000000000000000000040002004000000000000004000000000000000000000000000000000000000000000000004000000000000000000000000000000000400000000000000000000000000000000800080000000000000000000000000000000000000000000000800000000000000000",
      "type": "0x2",
      "transactionHash": "0x5aae7ca3b5dd02acae371cfc264eea7e3eb3f416d7174244c9d796bddb4cbe60",
      "transactionIndex": "0xaa",
      "blockHash": "0xa9e95f65fade5890d34593dbcea9af085eaecc56eefb1e95b6f67cda19ffd3c8",
      "blockNumber": "0x26196ce",
      "gasUsed": "0x1160b",
      "effectiveGasPrice": "0x16e360",
      "blobGasUsed": "0x8a61",
      "from": "0xe403f79171b7050c78479f52e49e753d43e72c1a",
      "to": "0xad473eaa51821c915d03d9db5349a0586d55e55e",
      "contractAddress": null,
      "daFootprintGasScalar": "0x145",
      "l1BaseFeeScalar": "0x8dd",
      "l1BlobBaseFee": "0x17d84d",
      "l1BlobBaseFeeScalar": "0x101c12",
      "l1Fee": "0x11190488",
      "l1GasPrice": "0x19609dd",
      "l1GasUsed": "0x6da"
    },
    {
      "status": "0x1",
      "cumulativeGasUsed": "0x1510b13",
      "logs": [
        {
          "address": "0xad473eaa51821c915d03d9db5349a0586d55e55e",
          "topics": [
            "0x36e13ba1e45df3ecb8f6beb6274a1f5d4abf4c0792bb56700354f0d50bf0acd7",
            "0x0000000000000000000000000000000000000000000000000000000000000022",
            "0x000000000000000000000000e403f79171b7050c78479f52e49e753d43e72c1a"
          ],
          "data": "0xfc6cc8976638831fc84ceab234894f532e0338e7268a3303d4c0c1939f85dbb90000000000000000000000000000000000000000000000000000000000000003000000000000000000000000000000000000000000000000000000000000006000000000000000000000000000000000000000000000000000000000000000043222000000000000000000000000000000000000000000000000000000000000",
          "blockHash": "0xa9e95f65fade5890d34593dbcea9af085eaecc56eefb1e95b6f67cda19ffd3c8",
          "blockNumber": "0x26196ce",
          "blockTimestamp": "0x694d8a7f",
          "transactionHash": "0xab363a99b79065d913fff9c6cac7f88a311a7cdb485fd26c38ec63ce0c7633c1",
          "transactionIndex": "0xac",
          "logIndex": "0x168",
          "removed": false
        },
        {
          "address": "0xad473eaa51821c915d03d9db5349a0586d55e55e",
          "topics": [
            "0x36e13ba1e45df3ecb8f6beb6274a1f5d4abf4c0792bb56700354f0d50bf0acd7",
            "0x0000000000000000000000000000000000000000000000000000000000000022",
            "0x000000000000000000000000ad473eaa51821c915d03d9db5349a0586d55e55e"
          ],
          "data": "0x0192d1e4a25acce6e7a2d4e8900eba6030b412ccc2d92d174c541b9d6055ff390000000000000000000000000000000000000000000000000000000000000004000000000000000000000000000000000000000000000000000000000000006000000000000000000000000000000000000000000000000000000000000000043c1b000000000000000000000000000000000000000000000000000000000000",
          "blockHash": "0xa9e95f65fade5890d34593dbcea9af085eaecc56eefb1e95b6f67cda19ffd3c8",
          "blockNumber": "0x26196ce",
          "blockTimestamp": "0x694d8a7f",
          "transactionHash": "0xab363a99b79065d913fff9c6cac7f88a311a7cdb485fd26c38ec63ce0c7633c1",
          "transactionIndex": "0xac",
          "logIndex": "0x169",
          "removed": false
        }
      ],
      "logsBloom": "0x00000000000000000000000000000000000000000000000000000000000400000000000000000000000000000000000000000000000000000000000000000000000000000000000000000000000000000000000010000000000000000000000000000000000000000000000000000040000000000400000000000000000000000000020000000000000000000200000000000000000000040002004000000000000004000000000000000000000000000000000000000000000000004000000000000000000000000000000000400000000000000000000000000000000800080000000000000000000000000000000000000000000000800000000000000000",
      "type": "0x2",
      "transactionHash": "0xab363a99b79065d913fff9c6cac7f88a311a7cdb485fd26c38ec63ce0c7633c1",
      "transactionIndex": "0xac",
      "blockHash": "0xa9e95f65fade5890d34593dbcea9af085eaecc56eefb1e95b6f67cda19ffd3c8",
      "blockNumber": "0x26196ce",
      "gasUsed": "0xd3f5",
      "effectiveGasPrice": "0x16e360",
      "blobGasUsed": "0x8a61",
      "from": "0xe403f79171b7050c78479f52e49e753d43e72c1a",
      "to": "0xad473eaa51821c915d03d9db5349a0586d55e55e",
      "contractAddress": null,
      "daFootprintGasScalar": "0x145",
      "l1BaseFeeScalar": "0x8dd",
      "l1BlobBaseFee": "0x17d84d",
      "l1BlobBaseFeeScalar": "0x101c12",
      "l1Fee": "0x11190488",
      "l1GasPrice": "0x19609dd",
      "l1GasUsed": "0x6da"
    },
    {
      "status": "0x1",
      "cumulativeGasUsed": "0x177fea7",
      "logs": [
        {
          "address": "0xad473eaa51821c915d03d9db5349a0586d55e55e",
          "topics": [
            "0x36e13ba1e45df3ecb8f6beb6274a1f5d4abf4c0792bb56700354f0d50bf0acd7",
            "0x0000000000000000000000000000000000000000000000000000000000000022",
            "0x000000000000000000000000e403f79171b7050c78479f52e49e753d43e72c1a"
          ],
          "data": "0xbb9afb9861b8290cda948e4af3b636449a44547dca4c3acbc45e65f4e22aab400000000000000000000000000000000000000000000000000000000000000005000000000000000000000000000000000000000000000000000000000000006000000000000000000000000000000000000000000000000000000000000000043129000000000000000000000000000000000000000000000000000000000000",
          "blockHash": "0xa9e95f65fade5890d34593dbcea9af085eaecc56eefb1e95b6f67cda19ffd3c8",
          "blockNumber": "0x26196ce",
          "blockTimestamp": "0x694d8a7f",
          "transactionHash": "0x1836f1bb11ced95fc1986c812b6e601a5b27660fab04ce1fd93bd6ab64f34858",
          "transactionIndex": "0xc2",
          "logIndex": "0x186",
          "removed": false
        },
        {
          "address": "0xad473eaa51821c915d03d9db5349a0586d55e55e",
          "topics": [
            "0x36e13ba1e45df3ecb8f6beb6274a1f5d4abf4c0792bb56700354f0d50bf0acd7",
            "0x0000000000000000000000000000000000000000000000000000000000000022",
            "0x000000000000000000000000ad473eaa51821c915d03d9db5349a0586d55e55e"
          ],
          "data": "0x2760255e5f8c0d33599f68866f7b7bdd30ba831d73410b4548d9b6c2e2478d1c000000000000000000000000000000000000000000000000000000000000000600000000000000000000000000000000000000000000000000000000000000600000000000000000000000000000000000000000000000000000000000000004052b000000000000000000000000000000000000000000000000000000000000",
          "blockHash": "0xa9e95f65fade5890d34593dbcea9af085eaecc56eefb1e95b6f67cda19ffd3c8",
          "blockNumber": "0x26196ce",
          "blockTimestamp": "0x694d8a7f",
          "transactionHash": "0x1836f1bb11ced95fc1986c812b6e601a5b27660fab04ce1fd93bd6ab64f34858",
          "transactionIndex": "0xc2",
          "logIndex": "0x187",
          "removed": false
        }
      ],
      "logsBloom": "0x00000000000000000000000000000000000000000000000000000000000400000000000000000000000000000000000000000000000000000000000000000000000000000000000000000000000000000000000010000000000000000000000000000000000000000000000000000040000000000400000000000000000000000000020000000000000000000200000000000000000000040002004000000000000004000000000000000000000000000000000000000000000000004000000000000000000000000000000000400000000000000000000000000000000800080000000000000000000000000000000000000000000000800000000000000000",
      "type": "0x2",
      "transactionHash": "0x1836f1bb11ced95fc1986c812b6e601a5b27660fab04ce1fd93bd6ab64f34858",
      "transactionIndex": "0xc2",
      "blockHash": "0xa9e95f65fade5890d34593dbcea9af085eaecc56eefb1e95b6f67cda19ffd3c8",
      "blockNumber": "0x26196ce",
      "gasUsed": "0xd3f5",
      "effectiveGasPrice": "0x16e360",
      "blobGasUsed": "0x8a61",
      "from": "0xe403f79171b7050c78479f52e49e753d43e72c1a",
      "to": "0xad473eaa51821c915d03d9db5349a0586d55e55e",
      "contractAddress": null,
      "daFootprintGasScalar": "0x145",
      "l1BaseFeeScalar": "0x8dd",
      "l1BlobBaseFee": "0x17d84d",
      "l1BlobBaseFeeScalar": "0x101c12",
      "l1Fee": "0x11190488",
      "l1GasPrice": "0x19609dd",
      "l1GasUsed": "0x6da"
    },
    {
      "status": "0x1",
      "cumulativeGasUsed": "0x178d29c",
      "logs": [
        {
          "address": "0xad473eaa51821c915d03d9db5349a0586d55e55e",
          "topics": [
            "0x36e13ba1e45df3ecb8f6beb6274a1f5d4abf4c0792bb56700354f0d50bf0acd7",
            "0x0000000000000000000000000000000000000000000000000000000000000022",
            "0x000000000000000000000000e403f79171b7050c78479f52e49e753d43e72c1a"
          ],
          "data": "0x2a4b22ea265f7017c3f5040f1eec7d58baac29eda24dc699336157972973d8e10000000000000000000000000000000000000000000000000000000000000007000000000000000000000000000000000000000000000000000000000000006000000000000000000000000000000000000000000000000000000000000000043a2b000000000000000000000000000000000000000000000000000000000000",
          "blockHash": "0xa9e95f65fade5890d34593dbcea9af085eaecc56eefb1e95b6f67cda19ffd3c8",
          "blockNumber": "0x26196ce",
          "blockTimestamp": "0x694d8a7f",
          "transactionHash": "0xdbb214af0223ff2daeee3e6af2d6ac38a2c81ddb7fb784f3bab09a246a2dc100",
          "transactionIndex": "0xc3",
          "logIndex": "0x188",
          "removed": false
        },
        {
          "address": "0xad473eaa51821c915d03d9db5349a0586d55e55e",
          "topics": [
            "0x36e13ba1e45df3ecb8f6beb6274a1f5d4abf4c0792bb56700354f0d50bf0acd7",
            "0x0000000000000000000000000000000000000000000000000000000000000022",
            "0x000000000000000000000000ad473eaa51821c915d03d9db5349a0586d55e55e"
          ],
          "data": "0x55f26890947882f1207e2a875a0d392857a077e9af9ea320f39541f65d9244dd0000000000000000000000000000000000000000000000000000000000000008000000000000000000000000000000000000000000000000000000000000006000000000000000000000000000000000000000000000000000000000000000042818000000000000000000000000000000000000000000000000000000000000",
          "blockHash": "0xa9e95f65fade5890d34593dbcea9af085eaecc56eefb1e95b6f67cda19ffd3c8",
          "blockNumber": "0x26196ce",
          "blockTimestamp": "0x694d8a7f",
          "transactionHash": "0xdbb214af0223ff2daeee3e6af2d6ac38a2c81ddb7fb784f3bab09a246a2dc100",
          "transactionIndex": "0xc3",
          "logIndex": "0x189",
          "removed": false
        }
      ],
      "logsBloom": "0x00000000000000000000000000000000000000000000000000000000000400000000000000000000000000000000000000000000000000000000000000000000000000000000000000000000000000000000000010000000000000000000000000000000000000000000000000000040000000000400000000000000000000000000020000000000000000000200000000000000000000040002004000000000000004000000000000000000000000000000000000000000000000004000000000000000000000000000000000400000000000000000000000000000000800080000000000000000000000000000000000000000000000800000000000000000",
      "type": "0x2",
      "transactionHash": "0xdbb214af0223ff2daeee3e6af2d6ac38a2c81ddb7fb784f3bab09a246a2dc100",
      "transactionIndex": "0xc3",
      "blockHash": "0xa9e95f65fade5890d34593dbcea9af085eaecc56eefb1e95b6f67cda19ffd3c8",
      "blockNumber": "0x26196ce",
      "gasUsed": "0xd3f5",
      "effectiveGasPrice": "0x16e360",
      "blobGasUsed": "0x8a61",
      "from": "0xe403f79171b7050c78479f52e49e753d43e72c1a",
      "to": "0xad473eaa51821c915d03d9db5349a0586d55e55e",
      "contractAddress": null,
      "daFootprintGasScalar": "0x145",
      "l1BaseFeeScalar": "0x8dd",
      "l1BlobBaseFee": "0x17d84d",
      "l1BlobBaseFeeScalar": "0x101c12",
      "l1Fee": "0x11190488",
      "l1GasPrice": "0x19609dd",
      "l1GasUsed": "0x6da"
    },
    {
      "status": "0x1",
      "cumulativeGasUsed": "0x17d807c",
      "logs": [
        {
          "address": "0xad473eaa51821c915d03d9db5349a0586d55e55e",
          "topics": [
            "0x36e13ba1e45df3ecb8f6beb6274a1f5d4abf4c0792bb56700354f0d50bf0acd7",
            "0x0000000000000000000000000000000000000000000000000000000000000023",
            "0x000000000000000000000000e403f79171b7050c78479f52e49e753d43e72c1a"
          ],
          "data": "0xe8773807ffd17108aa2d132cec684352f2c5c8337ff4659cc010d15b0551847d0000000000000000000000000000000000000000000000000000000000000001000000000000000000000000000000000000000000000000000000000000006000000000000000000000000000000000000000000000000000000000000000043424000000000000000000000000000000000000000000000000000000000000",
          "blockHash": "0xa9e95f65fade5890d34593dbcea9af085eaecc56eefb1e95b6f67cda19ffd3c8",
          "blockNumber": "0x26196ce",
          "blockTimestamp": "0x694d8a7f",
          "transactionHash": "0x215eb868635105d8482bbb26604f95bc1e16dd933b2d2ed51d0effd0137407a1",
          "transactionIndex": "0xc6",
          "logIndex": "0x18f",
          "removed": false
        },
        {
          "address": "0xad473eaa51821c915d03d9db5349a0586d55e55e",
          "topics": [
            "0x36e13ba1e45df3ecb8f6beb6274a1f5d4abf4c0792bb56700354f0d50bf0acd7",
            "0x0000000000000000000000000000000000000000000000000000000000000023",
            "0x000000000000000000000000ad473eaa51821c915d03d9db5349a0586d55e55e"
          ],
          "data": "0xf4bb36a023d03b095a88119a20a9000a252aea11d80408b3bd0c6bade87b4ba70000000000000000000000000000000000000000000000000000000000000002000000000000000000000000000000000000000000000000000000000000006000000000000000000000000000000000000000000000000000000000000000043424000000000000000000000000000000000000000000000000000000000000",
          "blockHash": "0xa9e95f65fade5890d34593dbcea9af085eaecc56eefb1e95b6f67cda19ffd3c8",
          "blockNumber": "0x26196ce",
          "blockTimestamp": "0x694d8a7f",
          "transactionHash": "0x215eb868635105d8482bbb26604f95bc1e16dd933b2d2ed51d0effd0137407a1",
          "transactionIndex": "0xc6",
          "logIndex": "0x190",
          "removed": false
        }
      ],
      "logsBloom": "0x00000000000000000000000000000000000000000000000000000000000400000000000000000000000000000000000000000000000000800000000000000000000000000000000000000000000000000800000010000000000000000000000000000000000000000000000000000040000000000400000000000000000000000000000000000000000000000200000000000000000200040002000000000000000004000000000000000000000000000000000000000000000000004000000000000000000000000000000000400000000000000000000000000000000800000000000000000000000000000000000000000000000000800000000000000000",
      "type": "0x2",
      "transactionHash": "0x215eb868635105d8482bbb26604f95bc1e16dd933b2d2ed51d0effd0137407a1",
      "transactionIndex": "0xc6",
      "blockHash": "0xa9e95f65fade5890d34593dbcea9af085eaecc56eefb1e95b6f67cda19ffd3c8",
      "blockNumber": "0x26196ce",
      "gasUsed": "0x11617",
      "effectiveGasPrice": "0x16e360",
      "blobGasUsed": "0x8a61",
      "from": "0xe403f79171b7050c78479f52e49e753d43e72c1a",
      "to": "0xad473eaa51821c915d03d9db5349a0586d55e55e",
      "contractAddress": null,
      "daFootprintGasScalar": "0x145",
      "l1BaseFeeScalar": "0x8dd",
      "l1BlobBaseFee": "0x17d84d",
      "l1BlobBaseFeeScalar": "0x101c12",
      "l1Fee": "0x11190488",
      "l1GasPrice": "0x19609dd",
      "l1GasUsed": "0x6da"
    },
    {
      "status": "0x1",
      "cumulativeGasUsed": "0x18105f5",
      "logs": [
        {
          "address": "0xad473eaa51821c915d03d9db5349a0586d55e55e",
          "topics": [
            "0x36e13ba1e45df3ecb8f6beb6274a1f5d4abf4c0792bb56700354f0d50bf0acd7",
            "0x0000000000000000000000000000000000000000000000000000000000000023",
            "0x000000000000000000000000e403f79171b7050c78479f52e49e753d43e72c1a"
          ],
          "data": "0x0692c63251d62c8f04eed454cc75e5bc199ba842e6b8106095e5d806a5e48cfa0000000000000000000000000000000000000000000000000000000000000003000000000000000000000000000000000000000000000000000000000000006000000000000000000000000000000000000000000000000000000000000000043323000000000000000000000000000000000000000000000000000000000000",
          "blockHash": "0xa9e95f65fade5890d34593dbcea9af085eaecc56eefb1e95b6f67cda19ffd3c8",
          "blockNumber": "0x26196ce",
          "blockTimestamp": "0x694d8a7f",
          "transactionHash": "0xf9b6f3f8275b4f627ecea07e711c07321c96c68fe1ae46d322ec23844dce277f",
          "transactionIndex": "0xc9",
          "logIndex": "0x193",
          "removed": false
        },
        {
          "address": "0xad473eaa51821c915d03d9db5349a0586d55e55e",
          "topics": [
            "0x36e13ba1e45df3ecb8f6beb6274a1f5d4abf4c0792bb56700354f0d50bf0acd7",
            "0x0000000000000000000000000000000000000000000000000000000000000023",
            "0x000000000000000000000000ad473eaa51821c915d03d9db5349a0586d55e55e"
          ],
          "data": "0x80db663b91d50261d3b6cf7c40f14617bc570551fdc50ae5d379aac6ea1fb5d50000000000000000000000000000000000000000000000000000000000000004000000000000000000000000000000000000000000000000000000000000006000000000000000000000000000000000000000000000000000000000000000043d0c000000000000000000000000000000000000000000000000000000000000",
          "blockHash": "0xa9e95f65fade5890d34593dbcea9af085eaecc56eefb1e95b6f67cda19ffd3c8",
          "blockNumber": "0x26196ce",
          "blockTimestamp": "0x694d8a7f",
          "transactionHash": "0xf9b6f3f8275b4f627ecea07e711c07321c96c68fe1ae46d322ec23844dce277f",
          "transactionIndex": "0xc9",
          "logIndex": "0x194",
          "removed": false
        }
      ],
      "logsBloom": "0x00000000000000000000000000000000000000000000000000000000000400000000000000000000000000000000000000000000000000800000000000000000000000000000000000000000000000000800000010000000000000000000000000000000000000000000000000000040000000000400000000000000000000000000000000000000000000000200000000000000000200040002000000000000000004000000000000000000000000000000000000000000000000004000000000000000000000000000000000400000000000000000000000000000000800000000000000000000000000000000000000000000000000800000000000000000",
      "type": "0x2",
      "transactionHash": "0xf9b6f3f8275b4f627ecea07e711c07321c96c68fe1ae46d322ec23844dce277f",
      "transactionIndex": "0xc9",
      "blockHash": "0xa9e95f65fade5890d34593dbcea9af085eaecc56eefb1e95b6f67cda19ffd3c8",
      "blockNumber": "0x26196ce",
      "gasUsed": "0xd3f5",
      "effectiveGasPrice": "0x16e360",
      "blobGasUsed": "0x8a61",
      "from": "0xe403f79171b7050c78479f52e49e753d43e72c1a",
      "to": "0xad473eaa51821c915d03d9db5349a0586d55e55e",
      "contractAddress": null,
      "daFootprintGasScalar": "0x145",
      "l1BaseFeeScalar": "0x8dd",
      "l1BlobBaseFee": "0x17d84d",
      "l1BlobBaseFeeScalar": "0x101c12",
      "l1Fee": "0x11190488",
      "l1GasPrice": "0x19609dd",
      "l1GasUsed": "0x6da"
    },
    {
      "status": "0x1",
      "cumulativeGasUsed": "0x1b000dc",
      "logs": [
        {
          "address": "0xad473eaa51821c915d03d9db5349a0586d55e55e",
          "topics": [
            "0x36e13ba1e45df3ecb8f6beb6274a1f5d4abf4c0792bb56700354f0d50bf0acd7",
            "0x0000000000000000000000000000000000000000000000000000000000000023",
            "0x000000000000000000000000e403f79171b7050c78479f52e49e753d43e72c1a"
          ],
          "data": "0x4442d021ec118fea7ce3641d3375363801af2e92adb1272f726cf20292795a62000000000000000000000000000000000000000000000000000000000000000500000000000000000000000000000000000000000000000000000000000000600000000000000000000000000000000000000000000000000000000000000004392a000000000000000000000000000000000000000000000000000000000000",
          "blockHash": "0xa9e95f65fade5890d34593dbcea9af085eaecc56eefb1e95b6f67cda19ffd3c8",
          "blockNumber": "0x26196ce",
          "blockTimestamp": "0x694d8a7f",
          "transactionHash": "0x0ea1b37c6e1d3cb974b9c37717ad80ad1a8d304edd37011e9539ff6895bafc76",
          "transactionIndex": "0xde",
          "logIndex": "0x1cc",
          "removed": false
        },
        {
          "address": "0xad473eaa51821c915d03d9db5349a0586d55e55e",
          "topics": [
            "0x36e13ba1e45df3ecb8f6beb6274a1f5d4abf4c0792bb56700354f0d50bf0acd7",
            "0x0000000000000000000000000000000000000000000000000000000000000023",
            "0x000000000000000000000000ad473eaa51821c915d03d9db5349a0586d55e55e"
          ],
          "data": "0xe131cca08afe30756df90d03f27be0045be7f7a0d73031afbdf14f8a193cb8e6000000000000000000000000000000000000000000000000000000000000000600000000000000000000000000000000000000000000000000000000000000600000000000000000000000000000000000000000000000000000000000000004271a000000000000000000000000000000000000000000000000000000000000",
          "blockHash": "0xa9e95f65fade5890d34593dbcea9af085eaecc56eefb1e95b6f67cda19ffd3c8",
          "blockNumber": "0x26196ce",
          "blockTimestamp": "0x694d8a7f",
          "transactionHash": "0x0ea1b37c6e1d3cb974b9c37717ad80ad1a8d304edd37011e9539ff6895bafc76",
          "transactionIndex": "0xde",
          "logIndex": "0x1cd",
          "removed": false
        }
      ],
      "logsBloom": "0x00000000000000000000000000000000000000000000000000000000000400000000000000000000000000000000000000000000000000800000000000000000000000000000000000000000000000000800000010000000000000000000000000000000000000000000000000000040000000000400000000000000000000000000000000000000000000000200000000000000000200040002000000000000000004000000000000000000000000000000000000000000000000004000000000000000000000000000000000400000000000000000000000000000000800000000000000000000000000000000000000000000000000800000000000000000",
      "type": "0x2",
      "transactionHash": "0x0ea1b37c6e1d3cb974b9c37717ad80ad1a8d304edd37011e9539ff6895bafc76",
      "transactionIndex": "0xde",
      "blockHash": "0xa9e95f65fade5890d34593dbcea9af085eaecc56eefb1e95b6f67cda19ffd3c8",
      "blockNumber": "0x26196ce",
      "gasUsed": "0xd3f5",
      "effectiveGasPrice": "0x16e360",
      "blobGasUsed": "0x8a61",
      "from": "0xe403f79171b7050c78479f52e49e753d43e72c1a",
      "to": "0xad473eaa51821c915d03d9db5349a0586d55e55e",
      "contractAddress": null,
      "daFootprintGasScalar": "0x145",
      "l1BaseFeeScalar": "0x8dd",
      "l1BlobBaseFee": "0x17d84d",
      "l1BlobBaseFeeScalar": "0x101c12",
      "l1Fee": "0x11190488",
      "l1GasPrice": "0x19609dd",
      "l1GasUsed": "0x6da"
    },
    {
      "status": "0x1",
      "cumulativeGasUsed": "0x1b0d4d1",
      "logs": [
        {
          "address": "0xad473eaa51821c915d03d9db5349a0586d55e55e",
          "topics": [
            "0x36e13ba1e45df3ecb8f6beb6274a1f5d4abf4c0792bb56700354f0d50bf0acd7",
            "0x0000000000000000000000000000000000000000000000000000000000000023",
            "0x000000000000000000000000e403f79171b7050c78479f52e49e753d43e72c1a"
          ],
          "data": "0xc7183fc0754b5e7da3b74bf364f8affe59ffdf73627f9b8e7d4991d4453bd3640000000000000000000000000000000000000000000000000000000000000007000000000000000000000000000000000000000000000000000000000000006000000000000000000000000000000000000000000000000000000000000000043b2c000000000000000000000000000000000000000000000000000000000000",
          "blockHash": "0xa9e95f65fade5890d34593dbcea9af085eaecc56eefb1e95b6f67cda19ffd3c8",
          "blockNumber": "0x26196ce",
          "blockTimestamp": "0x694d8a7f",
          "transactionHash": "0xc85f3c26718aeaeb57e8c8d154f5dd3b07265904994a9cd5bbec452d083ec69e",
          "transactionIndex": "0xdf",
          "logIndex": "0x1ce",
          "removed": false
        },
        {
          "address": "0xad473eaa51821c915d03d9db5349a0586d55e55e",
          "topics": [
            "0x36e13ba1e45df3ecb8f6beb6274a1f5d4abf4c0792bb56700354f0d50bf0acd7",
            "0x0000000000000000000000000000000000000000000000000000000000000023",
            "0x000000000000000000000000ad473eaa51821c915d03d9db5349a0586d55e55e"
          ],
          "data": "0xfa672e07d673b2d218b92d8ee0e059b5d1bfc274c1d1aaf67086a3dbe5f1587f0000000000000000000000000000000000000000000000000000000000000008000000000000000000000000000000000000000000000000000000000000006000000000000000000000000000000000000000000000000000000000000000042b13000000000000000000000000000000000000000000000000000000000000",
          "blockHash": "0xa9e95f65fade5890d34593dbcea9af085eaecc56eefb1e95b6f67cda19ffd3c8",
          "blockNumber": "0x26196ce",
          "blockTimestamp": "0x694d8a7f",
          "transactionHash": "0xc85f3c26718aeaeb57e8c8d154f5dd3b07265904994a9cd5bbec452d083ec69e",
          "transactionIndex": "0xdf",
          "logIndex": "0x1cf",
          "removed": false
        }
      ],
      "logsBloom": "0x00000000000000000000000000000000000000000000000000000000000400000000000000000000000000000000000000000000000000800000000000000000000000000000000000000000000000000800000010000000000000000000000000000000000000000000000000000040000000000400000000000000000000000000000000000000000000000200000000000000000200040002000000000000000004000000000000000000000000000000000000000000000000004000000000000000000000000000000000400000000000000000000000000000000800000000000000000000000000000000000000000000000000800000000000000000",
      "type": "0x2",
      "transactionHash": "0xc85f3c26718aeaeb57e8c8d154f5dd3b07265904994a9cd5bbec452d083ec69e",
      "transactionIndex": "0xdf",
      "blockHash": "0xa9e95f65fade5890d34593dbcea9af085eaecc56eefb1e95b6f67cda19ffd3c8",
      "blockNumber": "0x26196ce",
      "gasUsed": "0xd3f5",
      "effectiveGasPrice": "0x16e360",
      "blobGasUsed": "0x8a61",
      "from": "0xe403f79171b7050c78479f52e49e753d43e72c1a",
      "to": "0xad473eaa51821c915d03d9db5349a0586d55e55e",
      "contractAddress": null,
      "daFootprintGasScalar": "0x145",
      "l1BaseFeeScalar": "0x8dd",
      "l1BlobBaseFee": "0x17d84d",
      "l1BlobBaseFeeScalar": "0x101c12",
      "l1Fee": "0x11190488",
      "l1GasPrice": "0x19609dd",
      "l1GasUsed": "0x6da"
    },
    {
      "status": "0x1",
      "cumulativeGasUsed": "0x1b1eadc",
      "logs": [
        {
          "address": "0xad473eaa51821c915d03d9db5349a0586d55e55e",
          "topics": [
            "0x36e13ba1e45df3ecb8f6beb6274a1f5d4abf4c0792bb56700354f0d50bf0acd7",
            "0x0000000000000000000000000000000000000000000000000000000000000024",
            "0x000000000000000000000000e403f79171b7050c78479f52e49e753d43e72c1a"
          ],
          "data": "0x90e396633e67bfb131a9c9b400ea842e0f29f45c4bc7872a0e80af48deb785040000000000000000000000000000000000000000000000000000000000000001000000000000000000000000000000000000000000000000000000000000006000000000000000000000000000000000000000000000000000000000000000043028000000000000000000000000000000000000000000000000000000000000",
          "blockHash": "0xa9e95f65fade5890d34593dbcea9af085eaecc56eefb1e95b6f67cda19ffd3c8",
          "blockNumber": "0x26196ce",
          "blockTimestamp": "0x694d8a7f",
          "transactionHash": "0xf834c8a9aee2589836cda0db1519ab3e324c6a32a35bca8c33c1bcc920b14070",
          "transactionIndex": "0xe0",
          "logIndex": "0x1d0",
          "removed": false
        },
        {
          "address": "0xad473eaa51821c915d03d9db5349a0586d55e55e",
          "topics": [
            "0x36e13ba1e45df3ecb8f6beb6274a1f5d4abf4c0792bb56700354f0d50bf0acd7",
            "0x0000000000000000000000000000000000000000000000000000000000000024",
            "0x000000000000000000000000ad473eaa51821c915d03d9db5349a0586d55e55e"
          ],
          "data": "0x60e65b9330f95689004881ceb0c70271140d7a6c66037940d345a33188c341c30000000000000000000000000000000000000000000000000000000000000002000000000000000000000000000000000000000000000000000000000000006000000000000000000000000000000000000000000000000000000000000000043424000000000000000000000000000000000000000000000000000000000000",
          "blockHash": "0xa9e95f65fade5890d34593dbcea9af085eaecc56eefb1e95b6f67cda19ffd3c8",
          "blockNumber": "0x26196ce",
          "blockTimestamp": "0x694d8a7f",
          "transactionHash": "0xf834c8a9aee2589836cda0db1519ab3e324c6a32a35bca8c33c1bcc920b14070",
          "transactionIndex": "0xe0",
          "logIndex": "0x1d1",
          "removed": false
        }
      ],
      "logsBloom": "0x00000000000000000000000000000000000000000000000000000000000400000000000000000000000000000000000000000000000000000000000000000000000000000000000000000000000000000000000010000000000000000000000000000000000800000000000000000040000000000400000000000000000000000000000000000000000000000208000000000000000000040002000000000000000004000002000000000000000000000000000000000000000000004000000000000000000000000000000000400000000000000000000000000000000800000000000000000000000000000000000000000000000000800000000000000000",
      "type": "0x2",
      "transactionHash": "0xf834c8a9aee2589836cda0db1519ab3e324c6a32a35bca8c33c1bcc920b14070",
      "transactionIndex": "0xe0",
      "blockHash": "0xa9e95f65fade5890d34593dbcea9af085eaecc56eefb1e95b6f67cda19ffd3c8",
      "blockNumber": "0x26196ce",
      "gasUsed": "0x1160b",
      "effectiveGasPrice": "0x16e360",
      "blobGasUsed": "0x8a61",
      "from": "0xe403f79171b7050c78479f52e49e753d43e72c1a",
      "to": "0xad473eaa51821c915d03d9db5349a0586d55e55e",
      "contractAddress": null,
      "daFootprintGasScalar": "0x145",
      "l1BaseFeeScalar": "0x8dd",
      "l1BlobBaseFee": "0x17d84d",
      "l1BlobBaseFeeScalar": "0x101c12",
      "l1Fee": "0x11190488",
      "l1GasPrice": "0x19609dd",
      "l1GasUsed": "0x6da"
    },
    {
      "status": "0x1",
      "cumulativeGasUsed": "0x1d18b74",
      "logs": [
        {
          "address": "0xad473eaa51821c915d03d9db5349a0586d55e55e",
          "topics": [
            "0x36e13ba1e45df3ecb8f6beb6274a1f5d4abf4c0792bb56700354f0d50bf0acd7",
            "0x0000000000000000000000000000000000000000000000000000000000000024",
            "0x000000000000000000000000e403f79171b7050c78479f52e49e753d43e72c1a"
          ],
          "data": "0xfc6cc8976638831fc84ceab234894f532e0338e7268a3303d4c0c1939f85dbb90000000000000000000000000000000000000000000000000000000000000003000000000000000000000000000000000000000000000000000000000000006000000000000000000000000000000000000000000000000000000000000000043222000000000000000000000000000000000000000000000000000000000000",
          "blockHash": "0xa9e95f65fade5890d34593dbcea9af085eaecc56eefb1e95b6f67cda19ffd3c8",
          "blockNumber": "0x26196ce",
          "blockTimestamp": "0x694d8a7f",
          "transactionHash": "0x68bf4a6ab9430565e4f06c59fe6dfedef9a991bea89060a062e9f029cf18d5f8",
          "transactionIndex": "0xf7",
          "logIndex": "0x1e5",
          "removed": false
        },
        {
          "address": "0xad473eaa51821c915d03d9db5349a0586d55e55e",
          "topics": [
            "0x36e13ba1e45df3ecb8f6beb6274a1f5d4abf4c0792bb56700354f0d50bf0acd7",
            "0x0000000000000000000000000000000000000000000000000000000000000024",
            "0x000000000000000000000000ad473eaa51821c915d03d9db5349a0586d55e55e"
          ],
          "data": "0x0192d1e4a25acce6e7a2d4e8900eba6030b412ccc2d92d174c541b9d6055ff390000000000000000000000000000000000000000000000000000000000000004000000000000000000000000000000000000000000000000000000000000006000000000000000000000000000000000000000000000000000000000000000043c1b000000000000000000000000000000000000000000000000000000000000",
          "blockHash": "0xa9e95f65fade5890d34593dbcea9af085eaecc56eefb1e95b6f67cda19ffd3c8",
          "blockNumber": "0x26196ce",
          "blockTimestamp": "0x694d8a7f",
          "transactionHash": "0x68bf4a6ab9430565e4f06c59fe6dfedef9a991bea89060a062e9f029cf18d5f8",
          "transactionIndex": "0xf7",
          "logIndex": "0x1e6",
          "removed": false
        }
      ],
      "logsBloom": "0x00000000000000000000000000000000000000000000000000000000000400000000000000000000000000000000000000000000000000000000000000000000000000000000000000000000000000000000000010000000000000000000000000000000000800000000000000000040000000000400000000000000000000000000000000000000000000000208000000000000000000040002000000000000000004000002000000000000000000000000000000000000000000004000000000000000000000000000000000400000000000000000000000000000000800000000000000000000000000000000000000000000000000800000000000000000",
      "type": "0x2",
      "transactionHash": "0x68bf4a6ab9430565e4f06c59fe6dfedef9a991bea89060a062e9f029cf18d5f8",
      "transactionIndex": "0xf7",
      "blockHash": "0xa9e95f65fade5890d34593dbcea9af085eaecc56eefb1e95b6f67cda19ffd3c8",
      "blockNumber": "0x26196ce",
      "gasUsed": "0xd3f5",
      "effectiveGasPrice": "0x16e360",
      "blobGasUsed": "0x8a61",
      "from": "0xe403f79171b7050c78479f52e49e753d43e72c1a",
      "to": "0xad473eaa51821c915d03d9db5349a0586d55e55e",
      "contractAddress": null,
      "daFootprintGasScalar": "0x145",
      "l1BaseFeeScalar": "0x8dd",
      "l1BlobBaseFee": "0x17d84d",
      "l1BlobBaseFeeScalar": "0x101c12",
      "l1Fee": "0x11190488",
      "l1GasPrice": "0x19609dd",
      "l1GasUsed": "0x6da"
    },
    {
      "status": "0x1",
      "cumulativeGasUsed": "0x1d25f69",
      "logs": [
        {
          "address": "0xad473eaa51821c915d03d9db5349a0586d55e55e",
          "topics": [
            "0x36e13ba1e45df3ecb8f6beb6274a1f5d4abf4c0792bb56700354f0d50bf0acd7",
            "0x0000000000000000000000000000000000000000000000000000000000000024",
            "0x000000000000000000000000e403f79171b7050c78479f52e49e753d43e72c1a"
          ],
          "data": "0xbb9afb9861b8290cda948e4af3b636449a44547dca4c3acbc45e65f4e22aab400000000000000000000000000000000000000000000000000000000000000005000000000000000000000000000000000000000000000000000000000000006000000000000000000000000000000000000000000000000000000000000000043129000000000000000000000000000000000000000000000000000000000000",
          "blockHash": "0xa9e95f65fade5890d34593dbcea9af085eaecc56eefb1e95b6f67cda19ffd3c8",
          "blockNumber": "0x26196ce",
          "blockTimestamp": "0x694d8a7f",
          "transactionHash": "0x25bb16a0a7ee87e3be17f6c407755e1317d2f2a638b22f561ebe5a377bb74372",
          "transactionIndex": "0xf8",
          "logIndex": "0x1e7",
          "removed": false
        },
        {
          "address": "0xad473eaa51821c915d03d9db5349a0586d55e55e",
          "topics": [
            "0x36e13ba1e45df3ecb8f6beb6274a1f5d4abf4c0792bb56700354f0d50bf0acd7",
            "0x0000000000000000000000000000000000000000000000000000000000000024",
            "0x000000000000000000000000ad473eaa51821c915d03d9db5349a0586d55e55e"
          ],
          "data": "0x2760255e5f8c0d33599f68866f7b7bdd30ba831d73410b4548d9b6c2e2478d1c000000000000000000000000000000000000000000000000000000000000000600000000000000000000000000000000000000000000000000000000000000600000000000000000000000000000000000000000000000000000000000000004052b000000000000000000000000000000000000000000000000000000000000",
          "blockHash": "0xa9e95f65fade5890d34593dbcea9af085eaecc56eefb1e95b6f67cda19ffd3c8",
          "blockNumber": "0x26196ce",
          "blockTimestamp": "0x694d8a7f",
          "transactionHash": "0x25bb16a0a7ee87e3be17f6c407755e1317d2f2a638b22f561ebe5a377bb74372",
          "transactionIndex": "0xf8",
          "logIndex": "0x1e8",
          "removed": false
        }
      ],
      "logsBloom": "0x00000000000000000000000000000000000000000000000000000000000400000000000000000000000000000000000000000000000000000000000000000000000000000000000000000000000000000000000010000000000000000000000000000000000800000000000000000040000000000400000000000000000000000000000000000000000000000208000000000000000000040002000000000000000004000002000000000000000000000000000000000000000000004000000000000000000000000000000000400000000000000000000000000000000800000000000000000000000000000000000000000000000000800000000000000000",
      "type": "0x2",
      "transactionHash": "0x25bb16a0a7ee87e3be17f6c407755e1317d2f2a638b22f561ebe5a377bb74372",
      "transactionIndex": "0xf8",
      "blockHash": "0xa9e95f65fade5890d34593dbcea9af085eaecc56eefb1e95b6f67cda19ffd3c8",
      "blockNumber": "0x26196ce",
      "gasUsed": "0xd3f5",
      "effectiveGasPrice": "0x16e360",
      "blobGasUsed": "0x8a61",
      "from": "0xe403f79171b7050c78479f52e49e753d43e72c1a",
      "to": "0xad473eaa51821c915d03d9db5349a0586d55e55e",
      "contractAddress": null,
      "daFootprintGasScalar": "0x145",
      "l1BaseFeeScalar": "0x8dd",
      "l1BlobBaseFee": "0x17d84d",
      "l1BlobBaseFeeScalar": "0x101c12",
      "l1Fee": "0x11190488",
      "l1GasPrice": "0x19609dd",
      "l1GasUsed": "0x6da"
    },
    {
      "status": "0x1",
      "cumulativeGasUsed": "0x1d3c1da",
      "logs": [
        {
          "address": "0xad473eaa51821c915d03d9db5349a0586d55e55e",
          "topics": [
            "0x36e13ba1e45df3ecb8f6beb6274a1f5d4abf4c0792bb56700354f0d50bf0acd7",
            "0x0000000000000000000000000000000000000000000000000000000000000024",
            "0x000000000000000000000000e403f79171b7050c78479f52e49e753d43e72c1a"
          ],
          "data": "0x2a4b22ea265f7017c3f5040f1eec7d58baac29eda24dc699336157972973d8e10000000000000000000000000000000000000000000000000000000000000007000000000000000000000000000000000000000000000000000000000000006000000000000000000000000000000000000000000000000000000000000000043a2b000000000000000000000000000000000000000000000000000000000000",
          "blockHash": "0xa9e95f65fade5890d34593dbcea9af085eaecc56eefb1e95b6f67cda19ffd3c8",
          "blockNumber": "0x26196ce",
          "blockTimestamp": "0x694d8a7f",
          "transactionHash": "0x9791d6c035f28c85260c130fa962e9508f27dcbc2ad0bc20869221e65b63b90c",
          "transactionIndex": "0xfa",
          "logIndex": "0x1ea",
          "removed": false
        },
        {
          "address": "0xad473eaa51821c915d03d9db5349a0586d55e55e",
          "topics": [
            "0x36e13ba1e45df3ecb8f6beb6274a1f5d4abf4c0792bb56700354f0d50bf0acd7",
            "0x0000000000000000000000000000000000000000000000000000000000000024",
            "0x000000000000000000000000ad473eaa51821c915d03d9db5349a0586d55e55e"
          ],
          "data": "0x55f26890947882f1207e2a875a0d392857a077e9af9ea320f39541f65d9244dd0000000000000000000000000000000000000000000000000000000000000008000000000000000000000000000000000000000000000000000000000000006000000000000000000000000000000000000000000000000000000000000000042818000000000000000000000000000000000000000000000000000000000000",
          "blockHash": "0xa9e95f65fade5890d34593dbcea9af085eaecc56eefb1e95b6f67cda19ffd3c8",
          "blockNumber": "0x26196ce",
          "blockTimestamp": "0x694d8a7f",
          "transactionHash": "0x9791d6c035f28c85260c130fa962e9508f27dcbc2ad0bc20869221e65b63b90c",
          "transactionIndex": "0xfa",
          "logIndex": "0x1eb",
          "removed": false
        }
      ],
      "logsBloom": "0x00000000000000000000000000000000000000000000000000000000000400000000000000000000000000000000000000000000000000000000000000000000000000000000000000000000000000000000000010000000000000000000000000000000000800000000000000000040000000000400000000000000000000000000000000000000000000000208000000000000000000040002000000000000000004000002000000000000000000000000000000000000000000004000000000000000000000000000000000400000000000000000000000000000000800000000000000000000000000000000000000000000000000800000000000000000",
      "type": "0x2",
      "transactionHash": "0x9791d6c035f28c85260c130fa962e9508f27dcbc2ad0bc20869221e65b63b90c",
      "transactionIndex": "0xfa",
      "blockHash": "0xa9e95f65fade5890d34593dbcea9af085eaecc56eefb1e95b6f67cda19ffd3c8",
      "blockNumber": "0x26196ce",
      "gasUsed": "0xd3f5",
      "effectiveGasPrice": "0x16e360",
      "blobGasUsed": "0x8a61",
      "from": "0xe403f79171b7050c78479f52e49e753d43e72c1a",
      "to": "0xad473eaa51821c915d03d9db5349a0586d55e55e",
      "contractAddress": null,
      "daFootprintGasScalar": "0x145",
      "l1BaseFeeScalar": "0x8dd",
      "l1BlobBaseFee": "0x17d84d",
      "l1BlobBaseFeeScalar": "0x101c12",
      "l1Fee": "0x11190488",
      "l1GasPrice": "0x19609dd",
      "l1GasUsed": "0x6da"
    },
    {
      "status": "0x1",
      "cumulativeGasUsed": "0x1d4d7f1",
      "logs": [
        {
          "address": "0xad473eaa51821c915d03d9db5349a0586d55e55e",
          "topics": [
            "0x36e13ba1e45df3ecb8f6beb6274a1f5d4abf4c0792bb56700354f0d50bf0acd7",
            "0x0000000000000000000000000000000000000000000000000000000000000025",
            "0x000000000000000000000000e403f79171b7050c78479f52e49e753d43e72c1a"
          ],
          "data": "0xe8773807ffd17108aa2d132cec684352f2c5c8337ff4659cc010d15b0551847d0000000000000000000000000000000000000000000000000000000000000001000000000000000000000000000000000000000000000000000000000000006000000000000000000000000000000000000000000000000000000000000000043424000000000000000000000000000000000000000000000000000000000000",
          "blockHash": "0xa9e95f65fade5890d34593dbcea9af085eaecc56eefb1e95b6f67cda19ffd3c8",
          "blockNumber": "0x26196ce",
          "blockTimestamp": "0x694d8a7f",
          "transactionHash": "0x156cf6eb285e950dd11a90326152569b8e77af04cc75d7f9017a30fe1daf4cba",
          "transactionIndex": "0xfb",
          "logIndex": "0x1ec",
          "removed": false
        },
        {
          "address": "0xad473eaa51821c915d03d9db5349a0586d55e55e",
          "topics": [
            "0x36e13ba1e45df3ecb8f6beb6274a1f5d4abf4c0792bb56700354f0d50bf0acd7",
            "0x0000000000000000000000000000000000000000000000000000000000000025",
            "0x000000000000000000000000ad473eaa51821c915d03d9db5349a0586d55e55e"
          ],
          "data": "0xf4bb36a023d03b095a88119a20a9000a252aea11d80408b3bd0c6bade87b4ba70000000000000000000000000000000000000000000000000000000000000002000000000000000000000000000000000000000000000000000000000000006000000000000000000000000000000000000000000000000000000000000000043424000000000000000000000000000000000000000000000000000000000000",
          "blockHash": "0xa9e95f65fade5890d34593dbcea9af085eaecc56eefb1e95b6f67cda19ffd3c8",
          "blockNumber": "0x26196ce",
          "blockTimestamp": "0x694d8a7f",
          "transactionHash": "0x156cf6eb285e950dd11a90326152569b8e77af04cc75d7f9017a30fe1daf4cba",
          "transactionIndex": "0xfb",
          "logIndex": "0x1ed",
          "removed": false
        }
      ],
      "logsBloom": "0x00000000000000000000000000000000000000000000000000000000000400000000000000000000000000000000000000000000000000000000000000000000000000000000000000000000000000000000000010000000000000000000000000000000000000000000000000000040000000000400000000000000000000000000000000000000000000000200000000000000000000040002000000000000000004000000000000000002000000000000000000000000000000004000000000000000000000000000000000400000000000000000000000000000000800008000000000000000000000000000000000000000000000800000000002000000",
      "type": "0x2",
      "transactionHash": "0x156cf6eb285e950dd11a90326152569b8e77af04cc75d7f9017a30fe1daf4cba",
      "transactionIndex": "0xfb",
      "blockHash": "0xa9e95f65fade5890d34593dbcea9af085eaecc56eefb1e95b6f67cda19ffd3c8",
      "blockNumber": "0x26196ce",
      "gasUsed": "0x11617",
      "effectiveGasPrice": "0x16e360",
      "blobGasUsed": "0x8a61",
      "from": "0xe403f79171b7050c78479f52e49e753d43e72c1a",
      "to": "0xad473eaa51821c915d03d9db5349a0586d55e55e",
      "contractAddress": null,
      "daFootprintGasScalar": "0x145",
      "l1BaseFeeScalar": "0x8dd",
      "l1BlobBaseFee": "0x17d84d",
      "l1BlobBaseFeeScalar": "0x101c12",
      "l1Fee": "0x11190488",
      "l1GasPrice": "0x19609dd",
      "l1GasUsed": "0x6da"
    },
    {
      "status": "0x1",
      "cumulativeGasUsed": "0x1d5abe6",
      "logs": [
        {
          "address": "0xad473eaa51821c915d03d9db5349a0586d55e55e",
          "topics": [
            "0x36e13ba1e45df3ecb8f6beb6274a1f5d4abf4c0792bb56700354f0d50bf0acd7",
            "0x0000000000000000000000000000000000000000000000000000000000000025",
            "0x000000000000000000000000e403f79171b7050c78479f52e49e753d43e72c1a"
          ],
          "data": "0x0692c63251d62c8f04eed454cc75e5bc199ba842e6b8106095e5d806a5e48cfa0000000000000000000000000000000000000000000000000000000000000003000000000000000000000000000000000000000000000000000000000000006000000000000000000000000000000000000000000000000000000000000000043323000000000000000000000000000000000000000000000000000000000000",
          "blockHash": "0xa9e95f65fade5890d34593dbcea9af085eaecc56eefb1e95b6f67cda19ffd3c8",
          "blockNumber": "0x26196ce",
          "blockTimestamp": "0x694d8a7f",
          "transactionHash": "0xe7e2f6666bc0b06b8351e1f29ccf1593bc9c408d0bb0b2cd38adc190e4416588",
          "transactionIndex": "0xfc",
          "logIndex": "0x1ee",
          "removed": false
        },
        {
          "address": "0xad473eaa51821c915d03d9db5349a0586d55e55e",
          "topics": [
            "0x36e13ba1e45df3ecb8f6beb6274a1f5d4abf4c0792bb56700354f0d50bf0acd7",
            "0x0000000000000000000000000000000000000000000000000000000000000025",
            "0x000000000000000000000000ad473eaa51821c915d03d9db5349a0586d55e55e"
          ],
          "data": "0x80db663b91d50261d3b6cf7c40f14617bc570551fdc50ae5d379aac6ea1fb5d50000000000000000000000000000000000000000000000000000000000000004000000000000000000000000000000000000000000000000000000000000006000000000000000000000000000000000000000000000000000000000000000043d0c000000000000000000000000000000000000000000000000000000000000",
          "blockHash": "0xa9e95f65fade5890d34593dbcea9af085eaecc56eefb1e95b6f67cda19ffd3c8",
          "blockNumber": "0x26196ce",
          "blockTimestamp": "0x694d8a7f",
          "transactionHash": "0xe7e2f6666bc0b06b8351e1f29ccf1593bc9c408d0bb0b2cd38adc190e4416588",
          "transactionIndex": "0xfc",
          "logIndex": "0x1ef",
          "removed": false
        }
      ],
      "logsBloom": "0x00000000000000000000000000000000000000000000000000000000000400000000000000000000000000000000000000000000000000000000000000000000000000000000000000000000000000000000000010000000000000000000000000000000000000000000000000000040000000000400000000000000000000000000000000000000000000000200000000000000000000040002000000000000000004000000000000000002000000000000000000000000000000004000000000000000000000000000000000400000000000000000000000000000000800008000000000000000000000000000000000000000000000800000000002000000",
      "type": "0x2",
      "transactionHash": "0xe7e2f6666bc0b06b8351e1f29ccf1593bc9c408d0bb0b2cd38adc190e4416588",
      "transactionIndex": "0xfc",
      "blockHash": "0xa9e95f65fade5890d34593dbcea9af085eaecc56eefb1e95b6f67cda19ffd3c8",
      "blockNumber": "0x26196ce",
      "gasUsed": "0xd3f5",
      "effectiveGasPrice": "0x16e360",
      "blobGasUsed": "0x8a61",
      "from": "0xe403f79171b7050c78479f52e49e753d43e72c1a",
      "to": "0xad473eaa51821c915d03d9db5349a0586d55e55e",
      "contractAddress": null,
      "daFootprintGasScalar": "0x145",
      "l1BaseFeeScalar": "0x8dd",
      "l1BlobBaseFee": "0x17d84d",
      "l1BlobBaseFeeScalar": "0x101c12",
      "l1Fee": "0x11190488",
      "l1GasPrice": "0x19609dd",
      "l1GasUsed": "0x6da"
    },
    {
      "status": "0x1",
      "cumulativeGasUsed": "0x1d67fdb",
      "logs": [
        {
          "address": "0xad473eaa51821c915d03d9db5349a0586d55e55e",
          "topics": [
            "0x36e13ba1e45df3ecb8f6beb6274a1f5d4abf4c0792bb56700354f0d50bf0acd7",
            "0x0000000000000000000000000000000000000000000000000000000000000025",
            "0x000000000000000000000000e403f79171b7050c78479f52e49e753d43e72c1a"
          ],
          "data": "0x4442d021ec118fea7ce3641d3375363801af2e92adb1272f726cf20292795a62000000000000000000000000000000000000000000000000000000000000000500000000000000000000000000000000000000000000000000000000000000600000000000000000000000000000000000000000000000000000000000000004392a000000000000000000000000000000000000000000000000000000000000",
          "blockHash": "0xf62b3793c2395695bef2c715f1a4baf6215938130c14e31598feced2eb482d78",
          "blockNumber": "0x26196ce",
          "blockTimestamp": "0x694d8a7f",
          "transactionHash": "0xd7c4f6459324ec154bc1527e81bf4f1129e18dd97181bf25031e8047ed314dc2",
          "transactionIndex": "0xfd",
          "logIndex": "0x1f0",
          "removed": false
        },
        {
          "address": "0xad473eaa51821c915d03d9db5349a0586d55e55e",
          "topics": [
            "0x36e13ba1e45df3ecb8f6beb6274a1f5d4abf4c0792bb56700354f0d50bf0acd7",
            "0x0000000000000000000000000000000000000000000000000000000000000025",
            "0x000000000000000000000000ad473eaa51821c915d03d9db5349a0586d55e55e"
          ],
          "data": "0xe131cca08afe30756df90d03f27be0045be7f7a0d73031afbdf14f8a193cb8e6000000000000000000000000000000000000000000000000000000000000000600000000000000000000000000000000000000000000000000000000000000600000000000000000000000000000000000000000000000000000000000000004271a000000000000000000000000000000000000000000000000000000000000",
          "blockHash": "0xf62b3793c2395695bef2c715f1a4baf6215938130c14e31598feced2eb482d78",
          "blockNumber": "0x26196ce",
          "blockTimestamp": "0x694d8a7f",
          "transactionHash": "0xd7c4f6459324ec154bc1527e81bf4f1129e18dd97181bf25031e8047ed314dc2",
          "transactionIndex": "0xfd",
          "logIndex": "0x1f1",
          "removed": false
        }
      ],
      "logsBloom": "0x00000000000000000000000000000000000000000000000000000000000400000000000000000000000000000000000000000000000000000000000000000000000000000000000000000000000000000000000010000000000000000000000000000000000000000000000000000040000000000400000000000000000000000000000000000000000000000200000000000000000000040002000000000000000004000000000000000002000000000000000000000000000000004000000000000000000000000000000000400000000000000000000000000000000800008000000000000000000000000000000000000000000000800000000002000000",
      "type": "0x2",
      "transactionHash": "0xd7c4f6459324ec154bc1527e81bf4f1129e18dd97181bf25031e8047ed314dc2",
      "transactionIndex": "0xfd",
      "blockHash": "0xf62b3793c2395695bef2c715f1a4baf6215938130c14e31598feced2eb482d78",
      "blockNumber": "0x26196ce",
      "gasUsed": "0xd3f5",
      "effectiveGasPrice": "0x16e360",
      "blobGasUsed": "0x8a61",
      "from": "0xe403f79171b7050c78479f52e49e753d43e72c1a",
      "to": "0xad473eaa51821c915d03d9db5349a0586d55e55e",
      "contractAddress": null,
      "daFootprintGasScalar": "0x145",
      "l1BaseFeeScalar": "0x8dd",
      "l1BlobBaseFee": "0x17d84d",
      "l1BlobBaseFeeScalar": "0x101c12",
      "l1Fee": "0x2e0d6cd1",
      "l1GasPrice": "0x19609dd",
      "l1GasUsed": "0x6da"
    },
    {
      "status": "0x1",
      "cumulativeGasUsed": "0x1d753d0",
      "logs": [
        {
          "address": "0xad473eaa51821c915d03d9db5349a0586d55e55e",
          "topics": [
            "0x36e13ba1e45df3ecb8f6beb6274a1f5d4abf4c0792bb56700354f0d50bf0acd7",
            "0x0000000000000000000000000000000000000000000000000000000000000025",
            "0x000000000000000000000000e403f79171b7050c78479f52e49e753d43e72c1a"
          ],
          "data": "0xc7183fc0754b5e7da3b74bf364f8affe59ffdf73627f9b8e7d4991d4453bd3640000000000000000000000000000000000000000000000000000000000000007000000000000000000000000000000000000000000000000000000000000006000000000000000000000000000000000000000000000000000000000000000043b2c000000000000000000000000000000000000000000000000000000000000",
          "blockHash": "0xa9e95f65fade5890d34593dbcea9af085eaecc56eefb1e95b6f67cda19ffd3c8",
          "blockNumber": "0x26196ce",
          "blockTimestamp": "0x694d8a7f",
          "transactionHash": "0x9b3a3a38d12ba2292bac9a9ede641e6c6a3e50c3d4abdf10633724057b65300a",
          "transactionIndex": "0xfe",
          "logIndex": "0x1f2",
          "removed": false
        },
        {
          "address": "0xad473eaa51821c915d03d9db5349a0586d55e55e",
          "topics": [
            "0x36e13ba1e45df3ecb8f6beb6274a1f5d4abf4c0792bb56700354f0d50bf0acd7",
            "0x0000000000000000000000000000000000000000000000000000000000000025",
            "0x000000000000000000000000ad473eaa51821c915d03d9db5349a0586d55e55e"
          ],
          "data": "0xfa672e07d673b2d218b92d8ee0e059b5d1bfc274c1d1aaf67086a3dbe5f1587f0000000000000000000000000000000000000000000000000000000000000008000000000000000000000000000000000000000000000000000000000000006000000000000000000000000000000000000000000000000000000000000000042b13000000000000000000000000000000000000000000000000000000000000",
          "blockHash": "0xa9e95f65fade5890d34593dbcea9af085eaecc56eefb1e95b6f67cda19ffd3c8",
          "blockNumber": "0x26196ce",
          "blockTimestamp": "0x694d8a7f",
          "transactionHash": "0x9b3a3a38d12ba2292bac9a9ede641e6c6a3e50c3d4abdf10633724057b65300a",
          "transactionIndex": "0xfe",
          "logIndex": "0x1f3",
          "removed": false
        }
      ],
      "logsBloom": "0x00000000000000000000000000000000000000000000000000000000000400000000000000000000000000000000000000000000000000000000000000000000000000000000000000000000000000000000000010000000000000000000000000000000000000000000000000000040000000000400000000000000000000000000000000000000000000000200000000000000000000040002000000000000000004000000000000000002000000000000000000000000000000004000000000000000000000000000000000400000000000000000000000000000000800008000000000000000000000000000000000000000000000800000000002000000",
      "type": "0x2",
      "transactionHash": "0x9b3a3a38d12ba2292bac9a9ede641e6c6a3e50c3d4abdf10633724057b65300a",
      "transactionIndex": "0xfe",
      "blockHash": "0xa9e95f65fade5890d34593dbcea9af085eaecc56eefb1e95b6f67cda19ffd3c8",
      "blockNumber": "0x26196ce",
      "gasUsed": "0xd3f5",
      "effectiveGasPrice": "0x16e360",
      "blobGasUsed": "0x8a61",
      "from": "0xe403f79171b7050c78479f52e49e753d43e72c1a",
      "to": "0xad473eaa51821c915d03d9db5349a0586d55e55e",
      "contractAddress": null,
      "daFootprintGasScalar": "0x145",
      "l1BaseFeeScalar": "0x8dd",
      "l1BlobBaseFee": "0x17d84d",
      "l1BlobBaseFeeScalar": "0x101c12",
      "l1Fee": "0x11190488",
      "l1GasPrice": "0x19609dd",
      "l1GasUsed": "0x6da"
    },
    {
      "status": "0x1",
      "cumulativeGasUsed": "0x22e6d84",
      "logs": [
        {
          "address": "0xad473eaa51821c915d03d9db5349a0586d55e55e",
          "topics": [
            "0x36e13ba1e45df3ecb8f6beb6274a1f5d4abf4c0792bb56700354f0d50bf0acd7",
            "0x0000000000000000000000000000000000000000000000000000000000000026",
            "0x000000000000000000000000e403f79171b7050c78479f52e49e753d43e72c1a"
          ],
          "data": "0x90e396633e67bfb131a9c9b400ea842e0f29f45c4bc7872a0e80af48deb785040000000000000000000000000000000000000000000000000000000000000001000000000000000000000000000000000000000000000000000000000000006000000000000000000000000000000000000000000000000000000000000000043028000000000000000000000000000000000000000000000000000000000000",
          "blockHash": "0xa9e95f65fade5890d34593dbcea9af085eaecc56eefb1e95b6f67cda19ffd3c8",
          "blockNumber": "0x26196ce",
          "blockTimestamp": "0x694d8a7f",
          "transactionHash": "0x84d800a0b7762bbf1751b0f7f0b7e9c166dabbe54b06566afa8535015b3180c8",
          "transactionIndex": "0x116",
          "logIndex": "0x258",
          "removed": false
        },
        {
          "address": "0xad473eaa51821c915d03d9db5349a0586d55e55e",
          "topics": [
            "0x36e13ba1e45df3ecb8f6beb6274a1f5d4abf4c0792bb56700354f0d50bf0acd7",
            "0x0000000000000000000000000000000000000000000000000000000000000026",
            "0x000000000000000000000000ad473eaa51821c915d03d9db5349a0586d55e55e"
          ],
          "data": "0x60e65b9330f95689004881ceb0c70271140d7a6c66037940d345a33188c341c30000000000000000000000000000000000000000000000000000000000000002000000000000000000000000000000000000000000000000000000000000006000000000000000000000000000000000000000000000000000000000000000043424000000000000000000000000000000000000000000000000000000000000",
          "blockHash": "0xa9e95f65fade5890d34593dbcea9af085eaecc56eefb1e95b6f67cda19ffd3c8",
          "blockNumber": "0x26196ce",
          "blockTimestamp": "0x694d8a7f",
          "transactionHash": "0x84d800a0b7762bbf1751b0f7f0b7e9c166dabbe54b06566afa8535015b3180c8",
          "transactionIndex": "0x116",
          "logIndex": "0x259",
          "removed": false
        }
      ],
      "logsBloom": "0x00000000000000000000000000000000000000000000000000000000000400000000000000000000000000000000000000000000000000000000000000000000000000000000000000000000000000000001000010000000000000000000000001000000000000000000000000000040000000000400040000000000000000000000000000000000000000000200000000000000000000040002000000000000000004000000000000000000000000000000000000000000000000004000000000000000000000000000000000400000000000000000000000000000000800000000000000000000000000000000000000000000000000800000000000000000",
      "type": "0x2",
      "transactionHash": "0x84d800a0b7762bbf1751b0f7f0b7e9c166dabbe54b06566afa8535015b3180c8",
      "transactionIndex": "0x116",
      "blockHash": "0xa9e95f65fade5890d34593dbcea9af085eaecc56eefb1e95b6f67cda19ffd3c8",
      "blockNumber": "0x26196ce",
      "gasUsed": "0x1160b",
      "effectiveGasPrice": "0x16e360",
      "blobGasUsed": "0x8a61",
      "from": "0xe403f79171b7050c78479f52e49e753d43e72c1a",
      "to": "0xad473eaa51821c915d03d9db5349a0586d55e55e",
      "contractAddress": null,
      "daFootprintGasScalar": "0x145",
      "l1BaseFeeScalar": "0x8dd",
      "l1BlobBaseFee": "0x17d84d",
      "l1BlobBaseFeeScalar": "0x101c12",
      "l1Fee": "0x11190488",
      "l1GasPrice": "0x19609dd",
      "l1GasUsed": "0x6da"
    },
    {
      "status": "0x1",
      "cumulativeGasUsed": "0x22f9381",
      "logs": [
        {
          "address": "0xad473eaa51821c915d03d9db5349a0586d55e55e",
          "topics": [
            "0x36e13ba1e45df3ecb8f6beb6274a1f5d4abf4c0792bb56700354f0d50bf0acd7",
            "0x0000000000000000000000000000000000000000000000000000000000000026",
            "0x000000000000000000000000e403f79171b7050c78479f52e49e753d43e72c1a"
          ],
          "data": "0xfc6cc8976638831fc84ceab234894f532e0338e7268a3303d4c0c1939f85dbb90000000000000000000000000000000000000000000000000000000000000003000000000000000000000000000000000000000000000000000000000000006000000000000000000000000000000000000000000000000000000000000000043222000000000000000000000000000000000000000000000000000000000000",
          "blockHash": "0xa9e95f65fade5890d34593dbcea9af085eaecc56eefb1e95b6f67cda19ffd3c8",
          "blockNumber": "0x26196ce",
          "blockTimestamp": "0x694d8a7f",
          "transactionHash": "0xe49a3a4c4f96fc9a56f3e4e0a0e49d5ac799d20e6c12f7393c281ee9db4a7415",
          "transactionIndex": "0x118",
          "logIndex": "0x25a",
          "removed": false
        },
        {
          "address": "0xad473eaa51821c915d03d9db5349a0586d55e55e",
          "topics": [
            "0x36e13ba1e45df3ecb8f6beb6274a1f5d4abf4c0792bb56700354f0d50bf0acd7",
            "0x0000000000000000000000000000000000000000000000000000000000000026",
            "0x000000000000000000000000ad473eaa51821c915d03d9db5349a0586d55e55e"
          ],
          "data": "0x0192d1e4a25acce6e7a2d4e8900eba6030b412ccc2d92d174c541b9d6055ff390000000000000000000000000000000000000000000000000000000000000004000000000000000000000000000000000000000000000000000000000000006000000000000000000000000000000000000000000000000000000000000000043c1b000000000000000000000000000000000000000000000000000000000000",
          "blockHash": "0xa9e95f65fade5890d34593dbcea9af085eaecc56eefb1e95b6f67cda19ffd3c8",
          "blockNumber": "0x26196ce",
          "blockTimestamp": "0x694d8a7f",
          "transactionHash": "0xe49a3a4c4f96fc9a56f3e4e0a0e49d5ac799d20e6c12f7393c281ee9db4a7415",
          "transactionIndex": "0x118",
          "logIndex": "0x25b",
          "removed": false
        }
      ],
      "logsBloom": "0x00000000000000000000000000000000000000000000000000000000000400000000000000000000000000000000000000000000000000000000000000000000000000000000000000000000000000000001000010000000000000000000000001000000000000000000000000000040000000000400040000000000000000000000000000000000000000000200000000000000000000040002000000000000000004000000000000000000000000000000000000000000000000004000000000000000000000000000000000400000000000000000000000000000000800000000000000000000000000000000000000000000000000800000000000000000",
      "type": "0x2",
      "transactionHash": "0xe49a3a4c4f96fc9a56f3e4e0a0e49d5ac799d20e6c12f7393c281ee9db4a7415",
      "transactionIndex": "0x118",
      "blockHash": "0xa9e95f65fade5890d34593dbcea9af085eaecc56eefb1e95b6f67cda19ffd3c8",
      "blockNumber": "0x26196ce",
      "gasUsed": "0xd3f5",
      "effectiveGasPrice": "0x16e360",
      "blobGasUsed": "0x8a61",
      "from": "0xe403f79171b7050c78479f52e49e753d43e72c1a",
      "to": "0xad473eaa51821c915d03d9db5349a0586d55e55e",
      "contractAddress": null,
      "daFootprintGasScalar": "0x145",
      "l1BaseFeeScalar": "0x8dd",
      "l1BlobBaseFee": "0x17d84d",
      "l1BlobBaseFeeScalar": "0x101c12",
      "l1Fee": "0x11190488",
      "l1GasPrice": "0x19609dd",
      "l1GasUsed": "0x6da"
    },
    {
      "status": "0x1",
      "cumulativeGasUsed": "0x2325905",
      "logs": [
        {
          "address": "0xad473eaa51821c915d03d9db5349a0586d55e55e",
          "topics": [
            "0x36e13ba1e45df3ecb8f6beb6274a1f5d4abf4c0792bb56700354f0d50bf0acd7",
            "0x0000000000000000000000000000000000000000000000000000000000000026",
            "0x000000000000000000000000e403f79171b7050c78479f52e49e753d43e72c1a"
          ],
          "data": "0xbb9afb9861b8290cda948e4af3b636449a44547dca4c3acbc45e65f4e22aab400000000000000000000000000000000000000000000000000000000000000005000000000000000000000000000000000000000000000000000000000000006000000000000000000000000000000000000000000000000000000000000000043129000000000000000000000000000000000000000000000000000000000000",
          "blockHash": "0xa9e95f65fade5890d34593dbcea9af085eaecc56eefb1e95b6f67cda19ffd3c8",
          "blockNumber": "0x26196ce",
          "blockTimestamp": "0x694d8a7f",
          "transactionHash": "0x46c77199d8186995b3947967e36de83fe3601ee25cfa7e20a542414e5ae76a93",
          "transactionIndex": "0x11a",
          "logIndex": "0x25c",
          "removed": false
        },
        {
          "address": "0xad473eaa51821c915d03d9db5349a0586d55e55e",
          "topics": [
            "0x36e13ba1e45df3ecb8f6beb6274a1f5d4abf4c0792bb56700354f0d50bf0acd7",
            "0x0000000000000000000000000000000000000000000000000000000000000026",
            "0x000000000000000000000000ad473eaa51821c915d03d9db5349a0586d55e55e"
          ],
          "data": "0x2760255e5f8c0d33599f68866f7b7bdd30ba831d73410b4548d9b6c2e2478d1c000000000000000000000000000000000000000000000000000000000000000600000000000000000000000000000000000000000000000000000000000000600000000000000000000000000000000000000000000000000000000000000004052b000000000000000000000000000000000000000000000000000000000000",
          "blockHash": "0xa9e95f65fade5890d34593dbcea9af085eaecc56eefb1e95b6f67cda19ffd3c8",
          "blockNumber": "0x26196ce",
          "blockTimestamp": "0x694d8a7f",
          "transactionHash": "0x46c77199d8186995b3947967e36de83fe3601ee25cfa7e20a542414e5ae76a93",
          "transactionIndex": "0x11a",
          "logIndex": "0x25d",
          "removed": false
        }
      ],
      "logsBloom": "0x00000000000000000000000000000000000000000000000000000000000400000000000000000000000000000000000000000000000000000000000000000000000000000000000000000000000000000001000010000000000000000000000001000000000000000000000000000040000000000400040000000000000000000000000000000000000000000200000000000000000000040002000000000000000004000000000000000000000000000000000000000000000000004000000000000000000000000000000000400000000000000000000000000000000800000000000000000000000000000000000000000000000000800000000000000000",
      "type": "0x2",
      "transactionHash": "0x46c77199d8186995b3947967e36de83fe3601ee25cfa7e20a542414e5ae76a93",
      "transactionIndex": "0x11a",
      "blockHash": "0xa9e95f65fade5890d34593dbcea9af085eaecc56eefb1e95b6f67cda19ffd3c8",
      "blockNumber": "0x26196ce",
      "gasUsed": "0xd3f5",
      "effectiveGasPrice": "0x16e360",
      "blobGasUsed": "0x8a61",
      "from": "0xe403f79171b7050c78479f52e49e753d43e72c1a",
      "to": "0xad473eaa51821c915d03d9db5349a0586d55e55e",
      "contractAddress": null,
      "daFootprintGasScalar": "0x145",
      "l1BaseFeeScalar": "0x8dd",
      "l1BlobBaseFee": "0x17d84d",
      "l1BlobBaseFeeScalar": "0x101c12",
      "l1Fee": "0x11190488",
      "l1GasPrice": "0x19609dd",
      "l1GasUsed": "0x6da"
    },
    {
      "status": "0x1",
      "cumulativeGasUsed": "0x7ac83e",
      "logs": [
        {
          "address": "0xad473eaa51821c915d03d9db5349a0586d55e55e",
          "topics": [
            "0x36e13ba1e45df3ecb8f6beb6274a1f5d4abf4c0792bb56700354f0d50bf0acd7",
            "0x0000000000000000000000000000000000000000000000000000000000000026",
            "0x000000000000000000000000e403f79171b7050c78479f52e49e753d43e72c1a"
          ],
          "data": "0x2a4b22ea265f7017c3f5040f1eec7d58baac29eda24dc699336157972973d8e10000000000000000000000000000000000000000000000000000000000000007000000000000000000000000000000000000000000000000000000000000006000000000000000000000000000000000000000000000000000000000000000043a2b000000000000000000000000000000000000000000000000000000000000",
          "blockHash": "0xfb68abf8a8b68727cda741c6a9443333093fb529ad242a0157fde53809588a63",
          "blockNumber": "0x26196cf",
          "blockTimestamp": "0x694d8a81",
          "transactionHash": "0x99d1401636bba1c6f62339c4e34b3b8d24d0d673ca4b829429eb37c9b147b97d",
          "transactionIndex": "0x29",
          "logIndex": "0x9b",
          "removed": false
        },
        {
          "address": "0xad473eaa51821c915d03d9db5349a0586d55e55e",
          "topics": [
            "0x36e13ba1e45df3ecb8f6beb6274a1f5d4abf4c0792bb56700354f0d50bf0acd7",
            "0x0000000000000000000000000000000000000000000000000000000000000026",
            "0x000000000000000000000000ad473eaa51821c915d03d9db5349a0586d55e55e"
          ],
          "data": "0x55f26890947882f1207e2a875a0d392857a077e9af9ea320f39541f65d9244dd0000000000000000000000000000000000000000000000000000000000000008000000000000000000000000000000000000000000000000000000000000006000000000000000000000000000000000000000000000000000000000000000042818000000000000000000000000000000000000000000000000000000000000",
          "blockHash": "0xfb68abf8a8b68727cda741c6a9443333093fb529ad242a0157fde53809588a63",
          "blockNumber": "0x26196cf",
          "blockTimestamp": "0x694d8a81",
          "transactionHash": "0x99d1401636bba1c6f62339c4e34b3b8d24d0d673ca4b829429eb37c9b147b97d",
          "transactionIndex": "0x29",
          "logIndex": "0x9c",
          "removed": false
        }
      ],
      "logsBloom": "0x00000000000000000000000000000000000000000000000000000000000400000000000000000000000000000000000000000000000000000000000000000000000000000000000000000000000000000001000010000000000000000000000001000000000000000000000000000040000000000400040000000000000000000000000000000000000000000200000000000000000000040002000000000000000004000000000000000000000000000000000000000000000000004000000000000000000000000000000000400000000000000000000000000000000800000000000000000000000000000000000000000000000000800000000000000000",
      "type": "0x2",
      "transactionHash": "0x99d1401636bba1c6f62339c4e34b3b8d24d0d673ca4b829429eb37c9b147b97d",
      "transactionIndex": "0x29",
      "blockHash": "0xfb68abf8a8b68727cda741c6a9443333093fb529ad242a0157fde53809588a63",
      "blockNumber": "0x26196cf",
      "gasUsed": "0xdee5",
      "effectiveGasPrice": "0x16e360",
      "blobGasUsed": "0x8a61",
      "from": "0xe403f79171b7050c78479f52e49e753d43e72c1a",
      "to": "0xad473eaa51821c915d03d9db5349a0586d55e55e",
      "contractAddress": null,
      "daFootprintGasScalar": "0x145",
      "l1BaseFeeScalar": "0x8dd",
      "l1BlobBaseFee": "0x17d84d",
      "l1BlobBaseFeeScalar": "0x101c12",
      "l1Fee": "0x2e0d6cd1",
      "l1GasPrice": "0x19609dd",
      "l1GasUsed": "0x6da"
    },
    {
      "status": "0x1",
      "cumulativeGasUsed": "0x7be945",
      "logs": [
        {
          "address": "0xad473eaa51821c915d03d9db5349a0586d55e55e",
          "topics": [
            "0x36e13ba1e45df3ecb8f6beb6274a1f5d4abf4c0792bb56700354f0d50bf0acd7",
            "0x0000000000000000000000000000000000000000000000000000000000000027",
            "0x000000000000000000000000e403f79171b7050c78479f52e49e753d43e72c1a"
          ],
          "data": "0xe8773807ffd17108aa2d132cec684352f2c5c8337ff4659cc010d15b0551847d0000000000000000000000000000000000000000000000000000000000000001000000000000000000000000000000000000000000000000000000000000006000000000000000000000000000000000000000000000000000000000000000043424000000000000000000000000000000000000000000000000000000000000",
          "blockHash": "0xc48221c60584212eb08c3b5e4030f6849d43c13d7a04192a820c19e8bec71892",
          "blockNumber": "0x26196cf",
          "blockTimestamp": "0x694d8a81",
          "transactionHash": "0xf176d4379144e74e8f99a9f74d77bd4d6dc6464875069842f147338f1306afd6",
          "transactionIndex": "0x2a",
          "logIndex": "0x9d",
          "removed": false
        },
        {
          "address": "0xad473eaa51821c915d03d9db5349a0586d55e55e",
          "topics": [
            "0x36e13ba1e45df3ecb8f6beb6274a1f5d4abf4c0792bb56700354f0d50bf0acd7",
            "0x0000000000000000000000000000000000000000000000000000000000000027",
            "0x000000000000000000000000ad473eaa51821c915d03d9db5349a0586d55e55e"
          ],
          "data": "0xf4bb36a023d03b095a88119a20a9000a252aea11d80408b3bd0c6bade87b4ba70000000000000000000000000000000000000000000000000000000000000002000000000000000000000000000000000000000000000000000000000000006000000000000000000000000000000000000000000000000000000000000000043424000000000000000000000000000000000000000000000000000000000000",
          "blockHash": "0xc48221c60584212eb08c3b5e4030f6849d43c13d7a04192a820c19e8bec71892",
          "blockNumber": "0x26196cf",
          "blockTimestamp": "0x694d8a81",
          "transactionHash": "0xf176d4379144e74e8f99a9f74d77bd4d6dc6464875069842f147338f1306afd6",
          "transactionIndex": "0x2a",
          "logIndex": "0x9e",
          "removed": false
        }
      ],
      "logsBloom": "0x00000000000000000000000000000000000000000000000000000000000400000002000000000000000000000000000000000000000000000000000000000000000000000000000000000000000000000000000010000000000000000000000000000000000000000000000000000040000000000400000000000000000000000000000000000000000000000200000000000000000000040002000000000000000004000000000000000000000000000000000000000000000000004000000000000000000000000000000000400000000000000000000000000000000800000000000000000000000000100000000008000000000000800000000000000000",
      "type": "0x2",
      "transactionHash": "0xf176d4379144e74e8f99a9f74d77bd4d6dc6464875069842f147338f1306afd6",
      "transactionIndex": "0x2a",
      "blockHash": "0xc48221c60584212eb08c3b5e4030f6849d43c13d7a04192a820c19e8bec71892",
      "blockNumber": "0x26196cf",
      "gasUsed": "0x12107",
      "effectiveGasPrice": "0x16e360",
      "blobGasUsed": "0x8a61",
      "from": "0xe403f79171b7050c78479f52e49e753d43e72c1a",
      "to": "0xad473eaa51821c915d03d9db5349a0586d55e55e",
      "contractAddress": null,
      "daFootprintGasScalar": "0x145",
      "l1BaseFeeScalar": "0x8dd",
      "l1BlobBaseFee": "0x17d84d",
      "l1BlobBaseFeeScalar": "0x101c12",
      "l1Fee": "0x2e0d6cd1",
      "l1GasPrice": "0x19609dd",
      "l1GasUsed": "0x6da"
    },
    {
      "status": "0x1",
      "cumulativeGasUsed": "0x7cbd3a",
      "logs": [
        {
          "address": "0xad473eaa51821c915d03d9db5349a0586d55e55e",
          "topics": [
            "0x36e13ba1e45df3ecb8f6beb6274a1f5d4abf4c0792bb56700354f0d50bf0acd7",
            "0x0000000000000000000000000000000000000000000000000000000000000027",
            "0x000000000000000000000000e403f79171b7050c78479f52e49e753d43e72c1a"
          ],
          "data": "0x0692c63251d62c8f04eed454cc75e5bc199ba842e6b8106095e5d806a5e48cfa0000000000000000000000000000000000000000000000000000000000000003000000000000000000000000000000000000000000000000000000000000006000000000000000000000000000000000000000000000000000000000000000043323000000000000000000000000000000000000000000000000000000000000",
          "blockHash": "0xfb68abf8a8b68727cda741c6a9443333093fb529ad242a0157fde53809588a63",
          "blockNumber": "0x26196cf",
          "blockTimestamp": "0x694d8a81",
          "transactionHash": "0x173659bd750743e156959249289ce439e78d4307bc01bd0fa5d78a81bd315777",
          "transactionIndex": "0x2b",
          "logIndex": "0x9f",
          "removed": false
        },
        {
          "address": "0xad473eaa51821c915d03d9db5349a0586d55e55e",
          "topics": [
            "0x36e13ba1e45df3ecb8f6beb6274a1f5d4abf4c0792bb56700354f0d50bf0acd7",
            "0x0000000000000000000000000000000000000000000000000000000000000027",
            "0x000000000000000000000000ad473eaa51821c915d03d9db5349a0586d55e55e"
          ],
          "data": "0x80db663b91d50261d3b6cf7c40f14617bc570551fdc50ae5d379aac6ea1fb5d50000000000000000000000000000000000000000000000000000000000000004000000000000000000000000000000000000000000000000000000000000006000000000000000000000000000000000000000000000000000000000000000043d0c000000000000000000000000000000000000000000000000000000000000",
          "blockHash": "0xfb68abf8a8b68727cda741c6a9443333093fb529ad242a0157fde53809588a63",
          "blockNumber": "0x26196cf",
          "blockTimestamp": "0x694d8a81",
          "transactionHash": "0x173659bd750743e156959249289ce439e78d4307bc01bd0fa5d78a81bd315777",
          "transactionIndex": "0x2b",
          "logIndex": "0xa0",
          "removed": false
        }
      ],
      "logsBloom": "0x00000000000000000000000000000000000000000000000000000000000400000002000000000000000000000000000000000000000000000000000000000000000000000000000000000000000000000000000010000000000000000000000000000000000000000000000000000040000000000400000000000000000000000000000000000000000000000200000000000000000000040002000000000000000004000000000000000000000000000000000000000000000000004000000000000000000000000000000000400000000000000000000000000000000800000000000000000000000000100000000008000000000000800000000000000000",
      "type": "0x2",
      "transactionHash": "0x173659bd750743e156959249289ce439e78d4307bc01bd0fa5d78a81bd315777",
      "transactionIndex": "0x2b",
      "blockHash": "0xfb68abf8a8b68727cda741c6a9443333093fb529ad242a0157fde53809588a63",
      "blockNumber": "0x26196cf",
      "gasUsed": "0xd3f5",
      "effectiveGasPrice": "0x16e360",
      "blobGasUsed": "0x8a61",
      "from": "0xe403f79171b7050c78479f52e49e753d43e72c1a",
      "to": "0xad473eaa51821c915d03d9db5349a0586d55e55e",
      "contractAddress": null,
      "daFootprintGasScalar": "0x145",
      "l1BaseFeeScalar": "0x8dd",
      "l1BlobBaseFee": "0x17d84d",
      "l1BlobBaseFeeScalar": "0x101c12",
      "l1Fee": "0x2e0d6cd1",
      "l1GasPrice": "0x19609dd",
      "l1GasUsed": "0x6da"
    },
    {
      "status": "0x1",
      "cumulativeGasUsed": "0x7d912f",
      "logs": [
        {
          "address": "0xad473eaa51821c915d03d9db5349a0586d55e55e",
          "topics": [
            "0x36e13ba1e45df3ecb8f6beb6274a1f5d4abf4c0792bb56700354f0d50bf0acd7",
            "0x0000000000000000000000000000000000000000000000000000000000000027",
            "0x000000000000000000000000e403f79171b7050c78479f52e49e753d43e72c1a"
          ],
          "data": "0x4442d021ec118fea7ce3641d3375363801af2e92adb1272f726cf20292795a62000000000000000000000000000000000000000000000000000000000000000500000000000000000000000000000000000000000000000000000000000000600000000000000000000000000000000000000000000000000000000000000004392a000000000000000000000000000000000000000000000000000000000000",
          "blockHash": "0xfb68abf8a8b68727cda741c6a9443333093fb529ad242a0157fde53809588a63",
          "blockNumber": "0x26196cf",
          "blockTimestamp": "0x694d8a81",
          "transactionHash": "0x4c46365968fb5de1b7ca1c162518553082435f10141d97f0dec070ada26250a8",
          "transactionIndex": "0x2c",
          "logIndex": "0xa1",
          "removed": false
        },
        {
          "address": "0xad473eaa51821c915d03d9db5349a0586d55e55e",
          "topics": [
            "0x36e13ba1e45df3ecb8f6beb6274a1f5d4abf4c0792bb56700354f0d50bf0acd7",
            "0x0000000000000000000000000000000000000000000000000000000000000027",
            "0x000000000000000000000000ad473eaa51821c915d03d9db5349a0586d55e55e"
          ],
          "data": "0xe131cca08afe30756df90d03f27be0045be7f7a0d73031afbdf14f8a193cb8e6000000000000000000000000000000000000000000000000000000000000000600000000000000000000000000000000000000000000000000000000000000600000000000000000000000000000000000000000000000000000000000000004271a000000000000000000000000000000000000000000000000000000000000",
          "blockHash": "0xfb68abf8a8b68727cda741c6a9443333093fb529ad242a0157fde53809588a63",
          "blockNumber": "0x26196cf",
          "blockTimestamp": "0x694d8a81",
          "transactionHash": "0x4c46365968fb5de1b7ca1c162518553082435f10141d97f0dec070ada26250a8",
          "transactionIndex": "0x2c",
          "logIndex": "0xa2",
          "removed": false
        }
      ],
      "logsBloom": "0x00000000000000000000000000000000000000000000000000000000000400000002000000000000000000000000000000000000000000000000000000000000000000000000000000000000000000000000000010000000000000000000000000000000000000000000000000000040000000000400000000000000000000000000000000000000000000000200000000000000000000040002000000000000000004000000000000000000000000000000000000000000000000004000000000000000000000000000000000400000000000000000000000000000000800000000000000000000000000100000000008000000000000800000000000000000",
      "type": "0x2",
      "transactionHash": "0x4c46365968fb5de1b7ca1c162518553082435f10141d97f0dec070ada26250a8",
      "transactionIndex": "0x2c",
      "blockHash": "0xfb68abf8a8b68727cda741c6a9443333093fb529ad242a0157fde53809588a63",
      "blockNumber": "0x26196cf",
      "gasUsed": "0xd3f5",
      "effectiveGasPrice": "0x16e360",
      "blobGasUsed": "0x8a61",
      "from": "0xe403f79171b7050c78479f52e49e753d43e72c1a",
      "to": "0xad473eaa51821c915d03d9db5349a0586d55e55e",
      "contractAddress": null,
      "daFootprintGasScalar": "0x145",
      "l1BaseFeeScalar": "0x8dd",
      "l1BlobBaseFee": "0x17d84d",
      "l1BlobBaseFeeScalar": "0x101c12",
      "l1Fee": "0x2e0d6cd1",
      "l1GasPrice": "0x19609dd",
      "l1GasUsed": "0x6da"
    },
    {
      "status": "0x1",
      "cumulativeGasUsed": "0xa0c3cb",
      "logs": [
        {
          "address": "0xad473eaa51821c915d03d9db5349a0586d55e55e",
          "topics": [
            "0x36e13ba1e45df3ecb8f6beb6274a1f5d4abf4c0792bb56700354f0d50bf0acd7",
            "0x0000000000000000000000000000000000000000000000000000000000000027",
            "0x000000000000000000000000e403f79171b7050c78479f52e49e753d43e72c1a"
          ],
          "data": "0xc7183fc0754b5e7da3b74bf364f8affe59ffdf73627f9b8e7d4991d4453bd3640000000000000000000000000000000000000000000000000000000000000007000000000000000000000000000000000000000000000000000000000000006000000000000000000000000000000000000000000000000000000000000000043b2c000000000000000000000000000000000000000000000000000000000000",
          "blockHash": "0xfb68abf8a8b68727cda741c6a9443333093fb529ad242a0157fde53809588a63",
          "blockNumber": "0x26196cf",
          "blockTimestamp": "0x694d8a81",
          "transactionHash": "0x2036d8237f3a0136a03f9c91d9893e098d33a8efddbc05265c45225e485375b9",
          "transactionIndex": "0x36",
          "logIndex": "0xde",
          "removed": false
        },
        {
          "address": "0xad473eaa51821c915d03d9db5349a0586d55e55e",
          "topics": [
            "0x36e13ba1e45df3ecb8f6beb6274a1f5d4abf4c0792bb56700354f0d50bf0acd7",
            "0x0000000000000000000000000000000000000000000000000000000000000027",
            "0x000000000000000000000000ad473eaa51821c915d03d9db5349a0586d55e55e"
          ],
          "data": "0xfa672e07d673b2d218b92d8ee0e059b5d1bfc274c1d1aaf67086a3dbe5f1587f0000000000000000000000000000000000000000000000000000000000000008000000000000000000000000000000000000000000000000000000000000006000000000000000000000000000000000000000000000000000000000000000042b13000000000000000000000000000000000000000000000000000000000000",
          "blockHash": "0xfb68abf8a8b68727cda741c6a9443333093fb529ad242a0157fde53809588a63",
          "blockNumber": "0x26196cf",
          "blockTimestamp": "0x694d8a81",
          "transactionHash": "0x2036d8237f3a0136a03f9c91d9893e098d33a8efddbc05265c45225e485375b9",
          "transactionIndex": "0x36",
          "logIndex": "0xdf",
          "removed": false
        }
      ],
      "logsBloom": "0x00000000000000000000000000000000000000000000000000000000000400000002000000000000000000000000000000000000000000000000000000000000000000000000000000000000000000000000000010000000000000000000000000000000000000000000000000000040000000000400000000000000000000000000000000000000000000000200000000000000000000040002000000000000000004000000000000000000000000000000000000000000000000004000000000000000000000000000000000400000000000000000000000000000000800000000000000000000000000100000000008000000000000800000000000000000",
      "type": "0x2",
      "transactionHash": "0x2036d8237f3a0136a03f9c91d9893e098d33a8efddbc05265c45225e485375b9",
      "transactionIndex": "0x36",
      "blockHash": "0xfb68abf8a8b68727cda741c6a9443333093fb529ad242a0157fde53809588a63",
      "blockNumber": "0x26196cf",
      "gasUsed": "0xd3f5",
      "effectiveGasPrice": "0x16e360",
      "blobGasUsed": "0x8a61",
      "from": "0xe403f79171b7050c78479f52e49e753d43e72c1a",
      "to": "0xad473eaa51821c915d03d9db5349a0586d55e55e",
      "contractAddress": null,
      "daFootprintGasScalar": "0x145",
      "l1BaseFeeScalar": "0x8dd",
      "l1BlobBaseFee": "0x17d84d",
      "l1BlobBaseFeeScalar": "0x101c12",
      "l1Fee": "0x2e0d6cd1",
      "l1GasPrice": "0x19609dd",
      "l1GasUsed": "0x6da"
    },
    {
      "status": "0x1",
      "cumulativeGasUsed": "0xa1e4c6",
      "logs": [
        {
          "address": "0xad473eaa51821c915d03d9db5349a0586d55e55e",
          "topics": [
            "0x36e13ba1e45df3ecb8f6beb6274a1f5d4abf4c0792bb56700354f0d50bf0acd7",
            "0x0000000000000000000000000000000000000000000000000000000000000028",
            "0x000000000000000000000000e403f79171b7050c78479f52e49e753d43e72c1a"
          ],
          "data": "0x90e396633e67bfb131a9c9b400ea842e0f29f45c4bc7872a0e80af48deb785040000000000000000000000000000000000000000000000000000000000000001000000000000000000000000000000000000000000000000000000000000006000000000000000000000000000000000000000000000000000000000000000043028000000000000000000000000000000000000000000000000000000000000",
          "blockHash": "0xfb68abf8a8b68727cda741c6a9443333093fb529ad242a0157fde53809588a63",
          "blockNumber": "0x26196cf",
          "blockTimestamp": "0x694d8a81",
          "transactionHash": "0x3b6556ef4623d5a3d49a223af95d436a2a2903d0a99af0747582566484f3a075",
          "transactionIndex": "0x37",
          "logIndex": "0xe0",
          "removed": false
        },
        {
          "address": "0xad473eaa51821c915d03d9db5349a0586d55e55e",
          "topics": [
            "0x36e13ba1e45df3ecb8f6beb6274a1f5d4abf4c0792bb56700354f0d50bf0acd7",
            "0x0000000000000000000000000000000000000000000000000000000000000028",
            "0x000000000000000000000000ad473eaa51821c915d03d9db5349a0586d55e55e"
          ],
          "data": "0x60e65b9330f95689004881ceb0c70271140d7a6c66037940d345a33188c341c30000000000000000000000000000000000000000000000000000000000000002000000000000000000000000000000000000000000000000000000000000006000000000000000000000000000000000000000000000000000000000000000043424000000000000000000000000000000000000000000000000000000000000",
          "blockHash": "0xfb68abf8a8b68727cda741c6a9443333093fb529ad242a0157fde53809588a63",
          "blockNumber": "0x26196cf",
          "blockTimestamp": "0x694d8a81",
          "transactionHash": "0x3b6556ef4623d5a3d49a223af95d436a2a2903d0a99af0747582566484f3a075",
          "transactionIndex": "0x37",
          "logIndex": "0xe1",
          "removed": false
        }
      ],
      "logsBloom": "0x00000000000000000000000000000000000000000000000000000000000400000000000000000000000000000000000000000000000000000000000000000000000000000000000000000000000000000000000010000000000000000000000000000000000000000000000000000040000000000400000000000000000000000000000000000000000000000200000000000000000000040002000000000000000004000100000000000000000000000000000000000000000000004000000000000000000000000000000000400000000020000000000000000008000800000000000000000000000000000000000000000000000000800000000000000000",
      "type": "0x2",
      "transactionHash": "0x3b6556ef4623d5a3d49a223af95d436a2a2903d0a99af0747582566484f3a075",
      "transactionIndex": "0x37",
      "blockHash": "0xfb68abf8a8b68727cda741c6a9443333093fb529ad242a0157fde53809588a63",
      "blockNumber": "0x26196cf",
      "gasUsed": "0x120fb",
      "effectiveGasPrice": "0x16e360",
      "blobGasUsed": "0x8a61",
      "from": "0xe403f79171b7050c78479f52e49e753d43e72c1a",
      "to": "0xad473eaa51821c915d03d9db5349a0586d55e55e",
      "contractAddress": null,
      "daFootprintGasScalar": "0x145",
      "l1BaseFeeScalar": "0x8dd",
      "l1BlobBaseFee": "0x17d84d",
      "l1BlobBaseFeeScalar": "0x101c12",
      "l1Fee": "0x2e0d6cd1",
      "l1GasPrice": "0x19609dd",
      "l1GasUsed": "0x6da"
    },
    {
      "status": "0x1",
      "cumulativeGasUsed": "0xaedc9c",
      "logs": [
        {
          "address": "0xad473eaa51821c915d03d9db5349a0586d55e55e",
          "topics": [
            "0x36e13ba1e45df3ecb8f6beb6274a1f5d4abf4c0792bb56700354f0d50bf0acd7",
            "0x0000000000000000000000000000000000000000000000000000000000000028",
            "0x000000000000000000000000e403f79171b7050c78479f52e49e753d43e72c1a"
          ],
          "data": "0xfc6cc8976638831fc84ceab234894f532e0338e7268a3303d4c0c1939f85dbb90000000000000000000000000000000000000000000000000000000000000003000000000000000000000000000000000000000000000000000000000000006000000000000000000000000000000000000000000000000000000000000000043222000000000000000000000000000000000000000000000000000000000000",
          "blockHash": "0x226731a6239162118938a452a62d1d9c52ed43d9969ada4719e68cb489e51e86",
          "blockNumber": "0x26196cf",
          "blockTimestamp": "0x694d8a81",
          "transactionHash": "0xbc8b2d5f263a881d845ffb87c01b405666c8d3335f7eb80fcb390aa6cfabb773",
          "transactionIndex": "0x3c",
          "logIndex": "0xf9",
          "removed": false
        },
        {
          "address": "0xad473eaa51821c915d03d9db5349a0586d55e55e",
          "topics": [
            "0x36e13ba1e45df3ecb8f6beb6274a1f5d4abf4c0792bb56700354f0d50bf0acd7",
            "0x0000000000000000000000000000000000000000000000000000000000000028",
            "0x000000000000000000000000ad473eaa51821c915d03d9db5349a0586d55e55e"
          ],
          "data": "0x0192d1e4a25acce6e7a2d4e8900eba6030b412ccc2d92d174c541b9d6055ff390000000000000000000000000000000000000000000000000000000000000004000000000000000000000000000000000000000000000000000000000000006000000000000000000000000000000000000000000000000000000000000000043c1b000000000000000000000000000000000000000000000000000000000000",
          "blockHash": "0x226731a6239162118938a452a62d1d9c52ed43d9969ada4719e68cb489e51e86",
          "blockNumber": "0x26196cf",
          "blockTimestamp": "0x694d8a81",
          "transactionHash": "0xbc8b2d5f263a881d845ffb87c01b405666c8d3335f7eb80fcb390aa6cfabb773",
          "transactionIndex": "0x3c",
          "logIndex": "0xfa",
          "removed": false
        }
      ],
      "logsBloom": "0x00000000000000000000000000000000000000000000000000000000000400000000000000000000000000000000000000000000000000000000000000000000000000000000000000000000000000000000000010000000000000000000000000000000000000000000000000000040000000000400000000000000000000000000000000000000000000000200000000000000000000040002000000000000000004000100000000000000000000000000000000000000000000004000000000000000000000000000000000400000000020000000000000000008000800000000000000000000000000000000000000000000000000800000000000000000",
      "type": "0x2",
      "transactionHash": "0xbc8b2d5f263a881d845ffb87c01b405666c8d3335f7eb80fcb390aa6cfabb773",
      "transactionIndex": "0x3c",
      "blockHash": "0x226731a6239162118938a452a62d1d9c52ed43d9969ada4719e68cb489e51e86",
      "blockNumber": "0x26196cf",
      "gasUsed": "0xd3f5",
      "effectiveGasPrice": "0x16e360",
      "blobGasUsed": "0x8a61",
      "from": "0xe403f79171b7050c78479f52e49e753d43e72c1a",
      "to": "0xad473eaa51821c915d03d9db5349a0586d55e55e",
      "contractAddress": null,
      "daFootprintGasScalar": "0x145",
      "l1BaseFeeScalar": "0x8dd",
      "l1BlobBaseFee": "0x17d84d",
      "l1BlobBaseFeeScalar": "0x101c12",
      "l1Fee": "0x11190488",
      "l1GasPrice": "0x19609dd",
      "l1GasUsed": "0x6da"
    },
    {
      "status": "0x1",
      "cumulativeGasUsed": "0xafb091",
      "logs": [
        {
          "address": "0xad473eaa51821c915d03d9db5349a0586d55e55e",
          "topics": [
            "0x36e13ba1e45df3ecb8f6beb6274a1f5d4abf4c0792bb56700354f0d50bf0acd7",
            "0x0000000000000000000000000000000000000000000000000000000000000028",
            "0x000000000000000000000000e403f79171b7050c78479f52e49e753d43e72c1a"
          ],
          "data": "0xbb9afb9861b8290cda948e4af3b636449a44547dca4c3acbc45e65f4e22aab400000000000000000000000000000000000000000000000000000000000000005000000000000000000000000000000000000000000000000000000000000006000000000000000000000000000000000000000000000000000000000000000043129000000000000000000000000000000000000000000000000000000000000",
          "blockHash": "0xfb68abf8a8b68727cda741c6a9443333093fb529ad242a0157fde53809588a63",
          "blockNumber": "0x26196cf",
          "blockTimestamp": "0x694d8a81",
          "transactionHash": "0xc6b0420f82c596d9aa0c482234fe34c96c703fb06243085ebb6c1e77f6d7f5b3",
          "transactionIndex": "0x3d",
          "logIndex": "0xfb",
          "removed": false
        },
        {
          "address": "0xad473eaa51821c915d03d9db5349a0586d55e55e",
          "topics": [
            "0x36e13ba1e45df3ecb8f6beb6274a1f5d4abf4c0792bb56700354f0d50bf0acd7",
            "0x0000000000000000000000000000000000000000000000000000000000000028",
            "0x000000000000000000000000ad473eaa51821c915d03d9db5349a0586d55e55e"
          ],
          "data": "0x2760255e5f8c0d33599f68866f7b7bdd30ba831d73410b4548d9b6c2e2478d1c000000000000000000000000000000000000000000000000000000000000000600000000000000000000000000000000000000000000000000000000000000600000000000000000000000000000000000000000000000000000000000000004052b000000000000000000000000000000000000000000000000000000000000",
          "blockHash": "0xfb68abf8a8b68727cda741c6a9443333093fb529ad242a0157fde53809588a63",
          "blockNumber": "0x26196cf",
          "blockTimestamp": "0x694d8a81",
          "transactionHash": "0xc6b0420f82c596d9aa0c482234fe34c96c703fb06243085ebb6c1e77f6d7f5b3",
          "transactionIndex": "0x3d",
          "logIndex": "0xfc",
          "removed": false
        }
      ],
      "logsBloom": "0x00000000000000000000000000000000000000000000000000000000000400000000000000000000000000000000000000000000000000000000000000000000000000000000000000000000000000000000000010000000000000000000000000000000000000000000000000000040000000000400000000000000000000000000000000000000000000000200000000000000000000040002000000000000000004000100000000000000000000000000000000000000000000004000000000000000000000000000000000400000000020000000000000000008000800000000000000000000000000000000000000000000000000800000000000000000",
      "type": "0x2",
      "transactionHash": "0xc6b0420f82c596d9aa0c482234fe34c96c703fb06243085ebb6c1e77f6d7f5b3",
      "transactionIndex": "0x3d",
      "blockHash": "0xfb68abf8a8b68727cda741c6a9443333093fb529ad242a0157fde53809588a63",
      "blockNumber": "0x26196cf",
      "gasUsed": "0xd3f5",
      "effectiveGasPrice": "0x16e360",
      "blobGasUsed": "0x8a61",
      "from": "0xe403f79171b7050c78479f52e49e753d43e72c1a",
      "to": "0xad473eaa51821c915d03d9db5349a0586d55e55e",
      "contractAddress": null,
      "daFootprintGasScalar": "0x145",
      "l1BaseFeeScalar": "0x8dd",
      "l1BlobBaseFee": "0x17d84d",
      "l1BlobBaseFeeScalar": "0x101c12",
      "l1Fee": "0x2e0d6cd1",
      "l1GasPrice": "0x19609dd",
      "l1GasUsed": "0x6da"
    },
    {
      "status": "0x1",
      "cumulativeGasUsed": "0xb08486",
      "logs": [
        {
          "address": "0xad473eaa51821c915d03d9db5349a0586d55e55e",
          "topics": [
            "0x36e13ba1e45df3ecb8f6beb6274a1f5d4abf4c0792bb56700354f0d50bf0acd7",
            "0x0000000000000000000000000000000000000000000000000000000000000028",
            "0x000000000000000000000000e403f79171b7050c78479f52e49e753d43e72c1a"
          ],
          "data": "0x2a4b22ea265f7017c3f5040f1eec7d58baac29eda24dc699336157972973d8e10000000000000000000000000000000000000000000000000000000000000007000000000000000000000000000000000000000000000000000000000000006000000000000000000000000000000000000000000000000000000000000000043a2b000000000000000000000000000000000000000000000000000000000000",
          "blockHash": "0xfb68abf8a8b68727cda741c6a9443333093fb529ad242a0157fde53809588a63",
          "blockNumber": "0x26196cf",
          "blockTimestamp": "0x694d8a81",
          "transactionHash": "0x48f8622c73236caf09dbca3e0357cff0b1204e8dd8e1ebad857ca029d5ec6c5d",
          "transactionIndex": "0x3e",
          "logIndex": "0xfd",
          "removed": false
        },
        {
          "address": "0xad473eaa51821c915d03d9db5349a0586d55e55e",
          "topics": [
            "0x36e13ba1e45df3ecb8f6beb6274a1f5d4abf4c0792bb56700354f0d50bf0acd7",
            "0x0000000000000000000000000000000000000000000000000000000000000028",
            "0x000000000000000000000000ad473eaa51821c915d03d9db5349a0586d55e55e"
          ],
          "data": "0x55f26890947882f1207e2a875a0d392857a077e9af9ea320f39541f65d9244dd0000000000000000000000000000000000000000000000000000000000000008000000000000000000000000000000000000000000000000000000000000006000000000000000000000000000000000000000000000000000000000000000042818000000000000000000000000000000000000000000000000000000000000",
          "blockHash": "0xfb68abf8a8b68727cda741c6a9443333093fb529ad242a0157fde53809588a63",
          "blockNumber": "0x26196cf",
          "blockTimestamp": "0x694d8a81",
          "transactionHash": "0x48f8622c73236caf09dbca3e0357cff0b1204e8dd8e1ebad857ca029d5ec6c5d",
          "transactionIndex": "0x3e",
          "logIndex": "0xfe",
          "removed": false
        }
      ],
      "logsBloom": "0x00000000000000000000000000000000000000000000000000000000000400000000000000000000000000000000000000000000000000000000000000000000000000000000000000000000000000000000000010000000000000000000000000000000000000000000000000000040000000000400000000000000000000000000000000000000000000000200000000000000000000040002000000000000000004000100000000000000000000000000000000000000000000004000000000000000000000000000000000400000000020000000000000000008000800000000000000000000000000000000000000000000000000800000000000000000",
      "type": "0x2",
      "transactionHash": "0x48f8622c73236caf09dbca3e0357cff0b1204e8dd8e1ebad857ca029d5ec6c5d",
      "transactionIndex": "0x3e",
      "blockHash": "0xfb68abf8a8b68727cda741c6a9443333093fb529ad242a0157fde53809588a63",
      "blockNumber": "0x26196cf",
      "gasUsed": "0xd3f5",
      "effectiveGasPrice": "0x16e360",
      "blobGasUsed": "0x8a61",
      "from": "0xe403f79171b7050c78479f52e49e753d43e72c1a",
      "to": "0xad473eaa51821c915d03d9db5349a0586d55e55e",
      "contractAddress": null,
      "daFootprintGasScalar": "0x145",
      "l1BaseFeeScalar": "0x8dd",
      "l1BlobBaseFee": "0x17d84d",
      "l1BlobBaseFeeScalar": "0x101c12",
      "l1Fee": "0x2e0d6cd1",
      "l1GasPrice": "0x19609dd",
      "l1GasUsed": "0x6da"
    }
  ],
  "libraries": [],
  "pending": [],
  "returns": {},
  "timestamp": 1766689409954,
  "chain": 8453,
  "commit": "1b5b336"
}